{
  "_format": "hh-sol-artifact-1",
  "contractName": "Collection",
  "sourceName": "contracts/Collection.sol",
  "abi": [
    {
      "inputs": [
        {
          "internalType": "string",
          "name": "name_",
          "type": "string"
        },
        {
          "internalType": "string",
          "name": "symbol_",
          "type": "string"
        },
        {
          "internalType": "address payable",
          "name": "recipient_",
          "type": "address"
        },
        {
          "internalType": "uint256",
          "name": "startDate_",
          "type": "uint256"
        },
        {
          "internalType": "uint256",
          "name": "endDate_",
          "type": "uint256"
        },
        {
          "internalType": "bytes32",
          "name": "root_",
          "type": "bytes32"
        }
      ],
      "stateMutability": "nonpayable",
      "type": "constructor"
    },
    {
      "anonymous": false,
      "inputs": [
        {
          "indexed": true,
          "internalType": "address",
          "name": "owner",
          "type": "address"
        },
        {
          "indexed": true,
          "internalType": "address",
          "name": "approved",
          "type": "address"
        },
        {
          "indexed": true,
          "internalType": "uint256",
          "name": "tokenId",
          "type": "uint256"
        }
      ],
      "name": "Approval",
      "type": "event"
    },
    {
      "anonymous": false,
      "inputs": [
        {
          "indexed": true,
          "internalType": "address",
          "name": "owner",
          "type": "address"
        },
        {
          "indexed": true,
          "internalType": "address",
          "name": "operator",
          "type": "address"
        },
        {
          "indexed": false,
          "internalType": "bool",
          "name": "approved",
          "type": "bool"
        }
      ],
      "name": "ApprovalForAll",
      "type": "event"
    },
    {
      "anonymous": false,
      "inputs": [
        {
          "indexed": true,
          "internalType": "address",
          "name": "from",
          "type": "address"
        },
        {
          "indexed": true,
          "internalType": "address",
          "name": "to",
          "type": "address"
        },
        {
          "indexed": true,
          "internalType": "uint256",
          "name": "tokenId",
          "type": "uint256"
        }
      ],
      "name": "Transfer",
      "type": "event"
    },
    {
      "inputs": [
        {
          "internalType": "address",
          "name": "to",
          "type": "address"
        },
        {
          "internalType": "uint256",
          "name": "tokenId",
          "type": "uint256"
        }
      ],
      "name": "approve",
      "outputs": [],
      "stateMutability": "nonpayable",
      "type": "function"
    },
    {
      "inputs": [
        {
          "internalType": "address",
          "name": "owner",
          "type": "address"
        }
      ],
      "name": "balanceOf",
      "outputs": [
        {
          "internalType": "uint256",
          "name": "",
          "type": "uint256"
        }
      ],
      "stateMutability": "view",
      "type": "function"
    },
    {
      "inputs": [
        {
          "internalType": "address",
          "name": "_newDescriptor",
          "type": "address"
        }
      ],
      "name": "changeDescriptor",
      "outputs": [],
      "stateMutability": "nonpayable",
      "type": "function"
    },
    {
      "inputs": [
        {
          "internalType": "address",
          "name": "",
          "type": "address"
        }
      ],
      "name": "claimed",
      "outputs": [
        {
          "internalType": "bool",
          "name": "",
          "type": "bool"
        }
      ],
      "stateMutability": "view",
      "type": "function"
    },
    {
      "inputs": [],
      "name": "deluxeBuyableSupply",
      "outputs": [
        {
          "internalType": "uint256",
          "name": "",
          "type": "uint256"
        }
      ],
      "stateMutability": "view",
      "type": "function"
    },
    {
      "inputs": [
        {
          "internalType": "uint256",
          "name": "",
          "type": "uint256"
        }
      ],
      "name": "deluxeIDs",
      "outputs": [
        {
          "internalType": "bool",
          "name": "",
          "type": "bool"
        }
      ],
      "stateMutability": "view",
      "type": "function"
    },
    {
      "inputs": [],
      "name": "descriptor",
      "outputs": [
        {
          "internalType": "contract CollectionDescriptor",
          "name": "",
          "type": "address"
        }
      ],
      "stateMutability": "view",
      "type": "function"
    },
    {
      "inputs": [
        {
          "internalType": "address",
          "name": "_newRecipient",
          "type": "address"
        }
      ],
      "name": "emergencyWithdraw",
      "outputs": [],
      "stateMutability": "nonpayable",
      "type": "function"
    },
    {
      "inputs": [],
      "name": "endDate",
      "outputs": [
        {
          "internalType": "uint256",
          "name": "",
          "type": "uint256"
        }
      ],
      "stateMutability": "view",
      "type": "function"
    },
    {
      "inputs": [
        {
          "internalType": "uint256",
          "name": "tokenId",
          "type": "uint256"
        }
      ],
      "name": "generateBase64Image",
      "outputs": [
        {
          "internalType": "string",
          "name": "",
          "type": "string"
        }
      ],
      "stateMutability": "view",
      "type": "function"
    },
    {
      "inputs": [
        {
          "internalType": "uint256",
          "name": "_seed",
          "type": "uint256"
        },
        {
          "internalType": "address",
          "name": "_owner",
          "type": "address"
        },
        {
          "internalType": "bool",
          "name": "deluxe",
          "type": "bool"
        }
      ],
      "name": "generateFullImageFromVM",
      "outputs": [
        {
          "internalType": "string",
          "name": "",
          "type": "string"
        }
      ],
      "stateMutability": "view",
      "type": "function"
    },
    {
      "inputs": [
        {
          "internalType": "uint256",
          "name": "_seed",
          "type": "uint256"
        },
        {
          "internalType": "address",
          "name": "_minter",
          "type": "address"
        },
        {
          "internalType": "bool",
          "name": "deluxe",
          "type": "bool"
        }
      ],
      "name": "generateFullTraitsFromVM",
      "outputs": [
        {
          "internalType": "string",
          "name": "",
          "type": "string"
        }
      ],
      "stateMutability": "view",
      "type": "function"
    },
    {
      "inputs": [
        {
          "internalType": "uint256",
          "name": "tokenId",
          "type": "uint256"
        }
      ],
      "name": "generateImage",
      "outputs": [
        {
          "internalType": "string",
          "name": "",
          "type": "string"
        }
      ],
      "stateMutability": "view",
      "type": "function"
    },
    {
      "inputs": [
        {
          "internalType": "uint256",
          "name": "tokenId",
          "type": "uint256"
        },
        {
          "internalType": "bool",
          "name": "deluxe",
          "type": "bool"
        }
      ],
      "name": "generateImageFromTokenIDAndDeluxe",
      "outputs": [
        {
          "internalType": "string",
          "name": "",
          "type": "string"
        }
      ],
      "stateMutability": "view",
      "type": "function"
    },
    {
      "inputs": [
        {
          "internalType": "uint256",
          "name": "tokenId",
          "type": "uint256"
        }
      ],
      "name": "generateTraits",
      "outputs": [
        {
          "internalType": "string",
          "name": "",
          "type": "string"
        }
      ],
      "stateMutability": "view",
      "type": "function"
    },
    {
      "inputs": [
        {
          "internalType": "uint256",
          "name": "tokenId",
          "type": "uint256"
        }
      ],
      "name": "getApproved",
      "outputs": [
        {
          "internalType": "address",
          "name": "",
          "type": "address"
        }
      ],
      "stateMutability": "view",
      "type": "function"
    },
    {
      "inputs": [
        {
          "internalType": "address",
          "name": "owner",
          "type": "address"
        },
        {
          "internalType": "address",
          "name": "operator",
          "type": "address"
        }
      ],
      "name": "isApprovedForAll",
      "outputs": [
        {
          "internalType": "bool",
          "name": "",
          "type": "bool"
        }
      ],
      "stateMutability": "view",
      "type": "function"
    },
    {
      "inputs": [
        {
          "internalType": "bytes32[]",
          "name": "proof",
          "type": "bytes32[]"
        }
      ],
      "name": "loyalMint",
      "outputs": [],
      "stateMutability": "nonpayable",
      "type": "function"
    },
    {
      "inputs": [
        {
          "internalType": "bytes32[]",
          "name": "proof",
          "type": "bytes32[]"
        },
        {
          "internalType": "address",
          "name": "leaf",
          "type": "address"
        }
      ],
      "name": "loyalMintLeaf",
      "outputs": [],
      "stateMutability": "nonpayable",
      "type": "function"
    },
    {
      "inputs": [],
      "name": "loyaltyRoot",
      "outputs": [
        {
          "internalType": "bytes32",
          "name": "",
          "type": "bytes32"
        }
      ],
      "stateMutability": "view",
      "type": "function"
    },
    {
      "inputs": [],
      "name": "mint",
      "outputs": [],
      "stateMutability": "payable",
      "type": "function"
    },
    {
      "inputs": [],
      "name": "mintDeluxe",
      "outputs": [],
      "stateMutability": "payable",
      "type": "function"
    },
    {
      "inputs": [],
      "name": "name",
      "outputs": [
        {
          "internalType": "string",
          "name": "",
          "type": "string"
        }
      ],
      "stateMutability": "view",
      "type": "function"
    },
    {
      "inputs": [],
      "name": "owner",
      "outputs": [
        {
          "internalType": "address",
          "name": "",
          "type": "address"
        }
      ],
      "stateMutability": "view",
      "type": "function"
    },
    {
      "inputs": [
        {
          "internalType": "uint256",
          "name": "tokenId",
          "type": "uint256"
        }
      ],
      "name": "ownerOf",
      "outputs": [
        {
          "internalType": "address",
          "name": "",
          "type": "address"
        }
      ],
      "stateMutability": "view",
      "type": "function"
    },
    {
      "inputs": [],
      "name": "recipient",
      "outputs": [
        {
          "internalType": "address payable",
          "name": "",
          "type": "address"
        }
      ],
      "stateMutability": "view",
      "type": "function"
    },
    {
      "inputs": [
        {
          "internalType": "address",
          "name": "from",
          "type": "address"
        },
        {
          "internalType": "address",
          "name": "to",
          "type": "address"
        },
        {
          "internalType": "uint256",
          "name": "tokenId",
          "type": "uint256"
        }
      ],
      "name": "safeTransferFrom",
      "outputs": [],
      "stateMutability": "nonpayable",
      "type": "function"
    },
    {
      "inputs": [
        {
          "internalType": "address",
          "name": "from",
          "type": "address"
        },
        {
          "internalType": "address",
          "name": "to",
          "type": "address"
        },
        {
          "internalType": "uint256",
          "name": "tokenId",
          "type": "uint256"
        },
        {
          "internalType": "bytes",
          "name": "_data",
          "type": "bytes"
        }
      ],
      "name": "safeTransferFrom",
      "outputs": [],
      "stateMutability": "nonpayable",
      "type": "function"
    },
    {
      "inputs": [
        {
          "internalType": "address",
          "name": "operator",
          "type": "address"
        },
        {
          "internalType": "bool",
          "name": "approved",
          "type": "bool"
        }
      ],
      "name": "setApprovalForAll",
      "outputs": [],
      "stateMutability": "nonpayable",
      "type": "function"
    },
    {
      "inputs": [],
      "name": "startDate",
      "outputs": [
        {
          "internalType": "uint256",
          "name": "",
          "type": "uint256"
        }
      ],
      "stateMutability": "view",
      "type": "function"
    },
    {
      "inputs": [
        {
          "internalType": "bytes4",
          "name": "interfaceId",
          "type": "bytes4"
        }
      ],
      "name": "supportsInterface",
      "outputs": [
        {
          "internalType": "bool",
          "name": "",
          "type": "bool"
        }
      ],
      "stateMutability": "view",
      "type": "function"
    },
    {
      "inputs": [],
      "name": "symbol",
      "outputs": [
        {
          "internalType": "string",
          "name": "",
          "type": "string"
        }
      ],
      "stateMutability": "view",
      "type": "function"
    },
    {
      "inputs": [
        {
          "internalType": "uint256",
          "name": "tokenId",
          "type": "uint256"
        }
      ],
      "name": "tokenURI",
      "outputs": [
        {
          "internalType": "string",
          "name": "",
          "type": "string"
        }
      ],
      "stateMutability": "view",
      "type": "function"
    },
    {
      "inputs": [
        {
          "internalType": "address",
          "name": "from",
          "type": "address"
        },
        {
          "internalType": "address",
          "name": "to",
          "type": "address"
        },
        {
          "internalType": "uint256",
          "name": "tokenId",
          "type": "uint256"
        }
      ],
      "name": "transferFrom",
      "outputs": [],
      "stateMutability": "nonpayable",
      "type": "function"
    },
    {
      "inputs": [],
      "name": "withdrawETH",
      "outputs": [],
      "stateMutability": "nonpayable",
      "type": "function"
    }
  ],
  "bytecode": "0x60806040523480156200001157600080fd5b5060405162008bca38038062008bca833981810160405281019062000037919062000829565b8585816000908051906020019062000051929190620004f3565b5080600190805190602001906200006a929190620004f3565b50505033600660006101000a81548173ffffffffffffffffffffffffffffffffffffffff021916908373ffffffffffffffffffffffffffffffffffffffff160217905550604051620000bc9062000584565b604051809103906000f080158015620000d9573d6000803e3d6000fd5b50600860006101000a81548173ffffffffffffffffffffffffffffffffffffffff021916908373ffffffffffffffffffffffffffffffffffffffff16021790555083600760006101000a81548173ffffffffffffffffffffffffffffffffffffffff021916908373ffffffffffffffffffffffffffffffffffffffff1602179055508260098190555081600a8190555080600e81905550620001a6600660009054906101000a900473ffffffffffffffffffffffffffffffffffffffff164260016200022c60201b60201c565b6001600d6000600660009054906101000a900473ffffffffffffffffffffffffffffffffffffffff1673ffffffffffffffffffffffffffffffffffffffff1673ffffffffffffffffffffffffffffffffffffffff16815260200190815260200160002060006101000a81548160ff02191690831515021790555050505050505062000ba2565b60008284604051602001620002439291906200098c565b6040516020818303038152906040528051906020012060001c9050600115158215151415620002985781600c600083815260200190815260200160002060006101000a81548160ff0219169083151502179055505b620002af8482620002b560201b62001d6c1760201c565b50505050565b600073ffffffffffffffffffffffffffffffffffffffff168273ffffffffffffffffffffffffffffffffffffffff16141562000328576040517f08c379a00000000000000000000000000000000000000000000000000000000081526004016200031f9062000a1d565b60405180910390fd5b62000339816200048760201b60201c565b156200037c576040517f08c379a0000000000000000000000000000000000000000000000000000000008152600401620003739062000a8f565b60405180910390fd5b6001600360008473ffffffffffffffffffffffffffffffffffffffff1673ffffffffffffffffffffffffffffffffffffffff1681526020019081526020016000206000828254620003ce919062000ae0565b92505081905550816002600083815260200190815260200160002060006101000a81548173ffffffffffffffffffffffffffffffffffffffff021916908373ffffffffffffffffffffffffffffffffffffffff160217905550808273ffffffffffffffffffffffffffffffffffffffff16600073ffffffffffffffffffffffffffffffffffffffff167fddf252ad1be2c89b69c2b068fc378daa952ba7f163c4a11628f55a4df523b3ef60405160405180910390a45050565b60008073ffffffffffffffffffffffffffffffffffffffff166002600084815260200190815260200160002060009054906101000a900473ffffffffffffffffffffffffffffffffffffffff1673ffffffffffffffffffffffffffffffffffffffff1614159050919050565b828054620005019062000b6c565b90600052602060002090601f01602090048101928262000525576000855562000571565b82601f106200054057805160ff191683800117855562000571565b8280016001018555821562000571579182015b828111156200057057825182559160200191906001019062000553565b5b50905062000580919062000592565b5090565b613f518062004c7983390190565b5b80821115620005ad57600081600090555060010162000593565b5090565b6000604051905090565b600080fd5b600080fd5b600080fd5b600080fd5b6000601f19601f8301169050919050565b7f4e487b7100000000000000000000000000000000000000000000000000000000600052604160045260246000fd5b6200061a82620005cf565b810181811067ffffffffffffffff821117156200063c576200063b620005e0565b5b80604052505050565b600062000651620005b1565b90506200065f82826200060f565b919050565b600067ffffffffffffffff821115620006825762000681620005e0565b5b6200068d82620005cf565b9050602081019050919050565b60005b83811015620006ba5780820151818401526020810190506200069d565b83811115620006ca576000848401525b50505050565b6000620006e7620006e18462000664565b62000645565b905082815260208101848484011115620007065762000705620005ca565b5b620007138482856200069a565b509392505050565b600082601f830112620007335762000732620005c5565b5b815162000745848260208601620006d0565b91505092915050565b600073ffffffffffffffffffffffffffffffffffffffff82169050919050565b60006200077b826200074e565b9050919050565b6200078d816200076e565b81146200079957600080fd5b50565b600081519050620007ad8162000782565b92915050565b6000819050919050565b620007c881620007b3565b8114620007d457600080fd5b50565b600081519050620007e881620007bd565b92915050565b6000819050919050565b6200080381620007ee565b81146200080f57600080fd5b50565b6000815190506200082381620007f8565b92915050565b60008060008060008060c08789031215620008495762000848620005bb565b5b600087015167ffffffffffffffff8111156200086a5762000869620005c0565b5b6200087889828a016200071b565b965050602087015167ffffffffffffffff8111156200089c576200089b620005c0565b5b620008aa89828a016200071b565b9550506040620008bd89828a016200079c565b9450506060620008d089828a01620007d7565b9350506080620008e389828a01620007d7565b92505060a0620008f689828a0162000812565b9150509295509295509295565b6000819050919050565b620009226200091c82620007b3565b62000903565b82525050565b600062000935826200074e565b9050919050565b60008160601b9050919050565b600062000956826200093c565b9050919050565b60006200096a8262000949565b9050919050565b62000986620009808262000928565b6200095d565b82525050565b60006200099a82856200090d565b602082019150620009ac828462000971565b6014820191508190509392505050565b600082825260208201905092915050565b7f4552433732313a206d696e7420746f20746865207a65726f2061646472657373600082015250565b600062000a05602083620009bc565b915062000a1282620009cd565b602082019050919050565b6000602082019050818103600083015262000a3881620009f6565b9050919050565b7f4552433732313a20746f6b656e20616c7265616479206d696e74656400000000600082015250565b600062000a77601c83620009bc565b915062000a848262000a3f565b602082019050919050565b6000602082019050818103600083015262000aaa8162000a68565b9050919050565b7f4e487b7100000000000000000000000000000000000000000000000000000000600052601160045260246000fd5b600062000aed82620007b3565b915062000afa83620007b3565b9250827fffffffffffffffffffffffffffffffffffffffffffffffffffffffffffffffff0382111562000b325762000b3162000ab1565b5b828201905092915050565b7f4e487b7100000000000000000000000000000000000000000000000000000000600052602260045260246000fd5b6000600282049050600182168062000b8557607f821691505b6020821081141562000b9c5762000b9b62000b3d565b5b50919050565b6140c78062000bb26000396000f3fe6080604052600436106102045760003560e01c80636ff1c9bc11610118578063aba048b4116100a0578063c87b56dd1161006f578063c87b56dd14610773578063c884ef83146107b0578063e086e5ec146107ed578063e985e9c514610804578063fd85b89f1461084157610204565b8063aba048b4146106cb578063b88d4fde146106f4578063c24a0f8b1461071d578063c35ab7161461074857610204565b806395d89b41116100e757806395d89b41146105c0578063a22cb465146105eb578063a48b3b8f14610614578063a7bd0dba14610651578063ab7b5c8a1461068e57610204565b80636ff1c9bc146104f257806370a082311461051b57806379b92f27146105585780638da5cb5b1461059557610204565b80633ea8aa241161019b578063551c05fd1161016a578063551c05fd146103f95780636352211e1461043657806366d003ac146104735780636d9ec4941461049e5780636ddab6f9146104c957610204565b80633ea8aa2414610360578063423d79391461036a57806342842e0e146103935780634b44d812146103bc57610204565b80630b97bc86116101d75780630b97bc86146102d75780631249c58b1461030257806323b872dd1461030c578063303e74df1461033557610204565b806301ffc9a71461020957806306fdde0314610246578063081812fc14610271578063095ea7b3146102ae575b600080fd5b34801561021557600080fd5b50610230600480360381019061022b9190612823565b61087e565b60405161023d919061286b565b60405180910390f35b34801561025257600080fd5b5061025b610960565b604051610268919061291f565b60405180910390f35b34801561027d57600080fd5b5061029860048036038101906102939190612977565b6109f2565b6040516102a591906129e5565b60405180910390f35b3480156102ba57600080fd5b506102d560048036038101906102d09190612a2c565b610a77565b005b3480156102e357600080fd5b506102ec610b81565b6040516102f99190612a7b565b60405180910390f35b61030a610b87565b005b34801561031857600080fd5b50610333600480360381019061032e9190612a96565b610bdf565b005b34801561034157600080fd5b5061034a610c38565b6040516103579190612b48565b60405180910390f35b610368610c5e565b005b34801561037657600080fd5b50610391600480360381019061038c9190612bc8565b610d16565b005b34801561039f57600080fd5b506103ba60048036038101906103b59190612a96565b610ecb565b005b3480156103c857600080fd5b506103e360048036038101906103de9190612977565b610eeb565b6040516103f0919061291f565b60405180910390f35b34801561040557600080fd5b50610420600480360381019061041b9190612c54565b610fbd565b60405161042d919061291f565b60405180910390f35b34801561044257600080fd5b5061045d60048036038101906104589190612977565b61106a565b60405161046a91906129e5565b60405180910390f35b34801561047f57600080fd5b5061048861111c565b6040516104959190612cb5565b60405180910390f35b3480156104aa57600080fd5b506104b3611142565b6040516104c09190612ce9565b60405180910390f35b3480156104d557600080fd5b506104f060048036038101906104eb9190612d04565b611148565b005b3480156104fe57600080fd5b5061051960048036038101906105149190612d04565b611262565b005b34801561052757600080fd5b50610542600480360381019061053d9190612d04565b61143d565b60405161054f9190612a7b565b60405180910390f35b34801561056457600080fd5b5061057f600480360381019061057a9190612977565b6114f5565b60405161058c919061291f565b60405180910390f35b3480156105a157600080fd5b506105aa6115c7565b6040516105b791906129e5565b60405180910390f35b3480156105cc57600080fd5b506105d56115ed565b6040516105e2919061291f565b60405180910390f35b3480156105f757600080fd5b50610612600480360381019061060d9190612d31565b61167f565b005b34801561062057600080fd5b5061063b60048036038101906106369190612977565b6117eb565b604051610648919061291f565b60405180910390f35b34801561065d57600080fd5b5061067860048036038101906106739190612977565b6118bd565b604051610685919061286b565b60405180910390f35b34801561069a57600080fd5b506106b560048036038101906106b09190612d71565b6118dd565b6040516106c2919061291f565b60405180910390f35b3480156106d757600080fd5b506106f260048036038101906106ed9190612dc4565b6119bc565b005b34801561070057600080fd5b5061071b60048036038101906107169190612f41565b6119cb565b005b34801561072957600080fd5b50610732611a26565b60405161073f9190612a7b565b60405180910390f35b34801561075457600080fd5b5061075d611a2c565b60405161076a9190612a7b565b60405180910390f35b34801561077f57600080fd5b5061079a60048036038101906107959190612977565b611a32565b6040516107a7919061291f565b60405180910390f35b3480156107bc57600080fd5b506107d760048036038101906107d29190612d04565b611b4c565b6040516107e4919061286b565b60405180910390f35b3480156107f957600080fd5b50610802611b6c565b005b34801561081057600080fd5b5061082b60048036038101906108269190612fc4565b611bf9565b604051610838919061286b565b60405180910390f35b34801561084d57600080fd5b5061086860048036038101906108639190612d71565b611c8d565b604051610875919061291f565b60405180910390f35b60007f80ac58cd000000000000000000000000000000000000000000000000000000007bffffffffffffffffffffffffffffffffffffffffffffffffffffffff1916827bffffffffffffffffffffffffffffffffffffffffffffffffffffffff1916148061094957507f5b5e139f000000000000000000000000000000000000000000000000000000007bffffffffffffffffffffffffffffffffffffffffffffffffffffffff1916827bffffffffffffffffffffffffffffffffffffffffffffffffffffffff1916145b80610959575061095882611f2e565b5b9050919050565b60606000805461096f90613033565b80601f016020809104026020016040519081016040528092919081815260200182805461099b90613033565b80156109e85780601f106109bd576101008083540402835291602001916109e8565b820191906000526020600020905b8154815290600101906020018083116109cb57829003601f168201915b5050505050905090565b60006109fd82611f98565b610a3c576040517f08c379a0000000000000000000000000000000000000000000000000000000008152600401610a33906130d7565b60405180910390fd5b6004600083815260200190815260200160002060009054906101000a900473ffffffffffffffffffffffffffffffffffffffff169050919050565b6000610a828261106a565b90508073ffffffffffffffffffffffffffffffffffffffff168373ffffffffffffffffffffffffffffffffffffffff161415610af3576040517f08c379a0000000000000000000000000000000000000000000000000000000008152600401610aea90613169565b60405180910390fd5b8073ffffffffffffffffffffffffffffffffffffffff163373ffffffffffffffffffffffffffffffffffffffff161480610b335750610b328133611bf9565b5b610b72576040517f08c379a0000000000000000000000000000000000000000000000000000000008152600401610b69906131fb565b60405180910390fd5b610b7c8383612004565b505050565b60095481565b6638d7ea4c680000341015610bd1576040517f08c379a0000000000000000000000000000000000000000000000000000000008152600401610bc890613267565b60405180910390fd5b610bdd334260006120bd565b565b610be93382612155565b610c28576040517f08c379a0000000000000000000000000000000000000000000000000000000008152600401610c1f906132f9565b60405180910390fd5b610c33838383612233565b505050565b600860009054906101000a900473ffffffffffffffffffffffffffffffffffffffff1681565b6001600b6000828254610c719190613348565b925050819055506060600b541115610cbe576040517f08c379a0000000000000000000000000000000000000000000000000000000008152600401610cb5906133ea565b60405180910390fd5b66c3663566a58000341015610d08576040517f08c379a0000000000000000000000000000000000000000000000000000000008152600401610cff90613267565b60405180910390fd5b610d14334260016120bd565b565b60001515600d60008373ffffffffffffffffffffffffffffffffffffffff1673ffffffffffffffffffffffffffffffffffffffff16815260200190815260200160002060009054906101000a900460ff16151514610da9576040517f08c379a0000000000000000000000000000000000000000000000000000000008152600401610da090613456565b60405180910390fd5b6001600d60008373ffffffffffffffffffffffffffffffffffffffff1673ffffffffffffffffffffffffffffffffffffffff16815260200190815260200160002060006101000a81548160ff021916908315150217905550600081604051602001610e1491906134be565b604051602081830303815290604052805190602001209050610e7a848480806020026020016040519081016040528093929190818152602001838360200280828437600081840152601f19601f82011690508083019250505050505050600e5483612484565b610eb9576040517f08c379a0000000000000000000000000000000000000000000000000000000008152600401610eb090613525565b60405180910390fd5b610ec5824260016120bd565b50505050565b610ee6838383604051806020016040528060008152506119cb565b505050565b60606000600c600084815260200190815260200160002060009054906101000a900460ff169050600860009054906101000a900473ffffffffffffffffffffffffffffffffffffffff1673ffffffffffffffffffffffffffffffffffffffff1663effaaf6a84836040518363ffffffff1660e01b8152600401610f6f929190613545565b600060405180830381865afa158015610f8c573d6000803e3d6000fd5b505050506040513d6000823e3d601f19601f82011682018060405250810190610fb5919061360f565b915050919050565b6060600860009054906101000a900473ffffffffffffffffffffffffffffffffffffffff1673ffffffffffffffffffffffffffffffffffffffff1663effaaf6a84846040518363ffffffff1660e01b815260040161101c929190613545565b600060405180830381865afa158015611039573d6000803e3d6000fd5b505050506040513d6000823e3d601f19601f82011682018060405250810190611062919061360f565b905092915050565b6000806002600084815260200190815260200160002060009054906101000a900473ffffffffffffffffffffffffffffffffffffffff169050600073ffffffffffffffffffffffffffffffffffffffff168173ffffffffffffffffffffffffffffffffffffffff161415611113576040517f08c379a000000000000000000000000000000000000000000000000000000000815260040161110a906136ca565b60405180910390fd5b80915050919050565b600760009054906101000a900473ffffffffffffffffffffffffffffffffffffffff1681565b600e5481565b600660009054906101000a900473ffffffffffffffffffffffffffffffffffffffff1673ffffffffffffffffffffffffffffffffffffffff163373ffffffffffffffffffffffffffffffffffffffff16146111d8576040517f08c379a00000000000000000000000000000000000000000000000000000000081526004016111cf90613736565b60405180910390fd5b6365696850421061121e576040517f08c379a0000000000000000000000000000000000000000000000000000000008152600401611215906137a2565b60405180910390fd5b80600860006101000a81548173ffffffffffffffffffffffffffffffffffffffff021916908373ffffffffffffffffffffffffffffffffffffffff16021790555050565b600660009054906101000a900473ffffffffffffffffffffffffffffffffffffffff1673ffffffffffffffffffffffffffffffffffffffff163373ffffffffffffffffffffffffffffffffffffffff16146112f2576040517f08c379a00000000000000000000000000000000000000000000000000000000081526004016112e99061380e565b60405180910390fd5b600080600760009054906101000a900473ffffffffffffffffffffffffffffffffffffffff1673ffffffffffffffffffffffffffffffffffffffff164760405161133b9061385f565b60006040518083038185875af1925050503d8060008114611378576040519150601f19603f3d011682016040523d82523d6000602084013e61137d565b606091505b50915091506000151582151514156113fd578273ffffffffffffffffffffffffffffffffffffffff16476040516113b39061385f565b60006040518083038185875af1925050503d80600081146113f0576040519150601f19603f3d011682016040523d82523d6000602084013e6113f5565b606091505b505050611438565b6040517f08c379a000000000000000000000000000000000000000000000000000000000815260040161142f906138c0565b60405180910390fd5b505050565b60008073ffffffffffffffffffffffffffffffffffffffff168273ffffffffffffffffffffffffffffffffffffffff1614156114ae576040517f08c379a00000000000000000000000000000000000000000000000000000000081526004016114a590613952565b60405180910390fd5b600360008373ffffffffffffffffffffffffffffffffffffffff1673ffffffffffffffffffffffffffffffffffffffff168152602001908152602001600020549050919050565b60606000600c600084815260200190815260200160002060009054906101000a900460ff169050600860009054906101000a900473ffffffffffffffffffffffffffffffffffffffff1673ffffffffffffffffffffffffffffffffffffffff166337ee03ec84836040518363ffffffff1660e01b8152600401611579929190613545565b600060405180830381865afa158015611596573d6000803e3d6000fd5b505050506040513d6000823e3d601f19601f820116820180604052508101906115bf919061360f565b915050919050565b600660009054906101000a900473ffffffffffffffffffffffffffffffffffffffff1681565b6060600180546115fc90613033565b80601f016020809104026020016040519081016040528092919081815260200182805461162890613033565b80156116755780601f1061164a57610100808354040283529160200191611675565b820191906000526020600020905b81548152906001019060200180831161165857829003601f168201915b5050505050905090565b3373ffffffffffffffffffffffffffffffffffffffff168273ffffffffffffffffffffffffffffffffffffffff1614156116ee576040517f08c379a00000000000000000000000000000000000000000000000000000000081526004016116e5906139be565b60405180910390fd5b80600560003373ffffffffffffffffffffffffffffffffffffffff1673ffffffffffffffffffffffffffffffffffffffff16815260200190815260200160002060008473ffffffffffffffffffffffffffffffffffffffff1673ffffffffffffffffffffffffffffffffffffffff16815260200190815260200160002060006101000a81548160ff0219169083151502179055508173ffffffffffffffffffffffffffffffffffffffff163373ffffffffffffffffffffffffffffffffffffffff167f17307eab39ab6107e8899845ad3d59bd9653f200f220920489ca2b5937696c31836040516117df919061286b565b60405180910390a35050565b60606000600c600084815260200190815260200160002060009054906101000a900460ff169050600860009054906101000a900473ffffffffffffffffffffffffffffffffffffffff1673ffffffffffffffffffffffffffffffffffffffff166385e982eb84836040518363ffffffff1660e01b815260040161186f929190613545565b600060405180830381865afa15801561188c573d6000803e3d6000fd5b505050506040513d6000823e3d601f19601f820116820180604052508101906118b5919061360f565b915050919050565b600c6020528060005260406000206000915054906101000a900460ff1681565b6060600084846040516020016118f49291906139ff565b6040516020818303038152906040528051906020012060001c9050600860009054906101000a900473ffffffffffffffffffffffffffffffffffffffff1673ffffffffffffffffffffffffffffffffffffffff166337ee03ec82856040518363ffffffff1660e01b815260040161196c929190613545565b600060405180830381865afa158015611989573d6000803e3d6000fd5b505050506040513d6000823e3d601f19601f820116820180604052508101906119b2919061360f565b9150509392505050565b6119c7828233610d16565b5050565b6119d53383612155565b611a14576040517f08c379a0000000000000000000000000000000000000000000000000000000008152600401611a0b906132f9565b60405180910390fd5b611a208484848461249b565b50505050565b600a5481565b600b5481565b6060611a3d82611f98565b611a7c576040517f08c379a0000000000000000000000000000000000000000000000000000000008152600401611a7390613a9d565b60405180910390fd5b6000600c600084815260200190815260200160002060009054906101000a900460ff169050600860009054906101000a900473ffffffffffffffffffffffffffffffffffffffff1673ffffffffffffffffffffffffffffffffffffffff1663d7e4ee6f84836040518363ffffffff1660e01b8152600401611afe929190613545565b600060405180830381865afa158015611b1b573d6000803e3d6000fd5b505050506040513d6000823e3d601f19601f82011682018060405250810190611b44919061360f565b915050919050565b600d6020528060005260406000206000915054906101000a900460ff1681565b600760009054906101000a900473ffffffffffffffffffffffffffffffffffffffff1673ffffffffffffffffffffffffffffffffffffffff1647604051611bb29061385f565b60006040518083038185875af1925050503d8060008114611bef576040519150601f19603f3d011682016040523d82523d6000602084013e611bf4565b606091505b505050565b6000600560008473ffffffffffffffffffffffffffffffffffffffff1673ffffffffffffffffffffffffffffffffffffffff16815260200190815260200160002060008373ffffffffffffffffffffffffffffffffffffffff1673ffffffffffffffffffffffffffffffffffffffff16815260200190815260200160002060009054906101000a900460ff16905092915050565b606060008484604051602001611ca49291906139ff565b6040516020818303038152906040528051906020012060001c9050600860009054906101000a900473ffffffffffffffffffffffffffffffffffffffff1673ffffffffffffffffffffffffffffffffffffffff1663effaaf6a82856040518363ffffffff1660e01b8152600401611d1c929190613545565b600060405180830381865afa158015611d39573d6000803e3d6000fd5b505050506040513d6000823e3d601f19601f82011682018060405250810190611d62919061360f565b9150509392505050565b600073ffffffffffffffffffffffffffffffffffffffff168273ffffffffffffffffffffffffffffffffffffffff161415611ddc576040517f08c379a0000000000000000000000000000000000000000000000000000000008152600401611dd390613b09565b60405180910390fd5b611de581611f98565b15611e25576040517f08c379a0000000000000000000000000000000000000000000000000000000008152600401611e1c90613b75565b60405180910390fd5b6001600360008473ffffffffffffffffffffffffffffffffffffffff1673ffffffffffffffffffffffffffffffffffffffff1681526020019081526020016000206000828254611e759190613348565b92505081905550816002600083815260200190815260200160002060006101000a81548173ffffffffffffffffffffffffffffffffffffffff021916908373ffffffffffffffffffffffffffffffffffffffff160217905550808273ffffffffffffffffffffffffffffffffffffffff16600073ffffffffffffffffffffffffffffffffffffffff167fddf252ad1be2c89b69c2b068fc378daa952ba7f163c4a11628f55a4df523b3ef60405160405180910390a45050565b60007f01ffc9a7000000000000000000000000000000000000000000000000000000007bffffffffffffffffffffffffffffffffffffffffffffffffffffffff1916827bffffffffffffffffffffffffffffffffffffffffffffffffffffffff1916149050919050565b60008073ffffffffffffffffffffffffffffffffffffffff166002600084815260200190815260200160002060009054906101000a900473ffffffffffffffffffffffffffffffffffffffff1673ffffffffffffffffffffffffffffffffffffffff1614159050919050565b816004600083815260200190815260200160002060006101000a81548173ffffffffffffffffffffffffffffffffffffffff021916908373ffffffffffffffffffffffffffffffffffffffff160217905550808273ffffffffffffffffffffffffffffffffffffffff166120778361106a565b73ffffffffffffffffffffffffffffffffffffffff167f8c5be1e5ebec7d5bd14f71427d1e84f3dd0314c0f7b2291e5b200ac8c7c3b92560405160405180910390a45050565b6009544211612101576040517f08c379a00000000000000000000000000000000000000000000000000000000081526004016120f890613be1565b60405180910390fd5b600a544210612145576040517f08c379a000000000000000000000000000000000000000000000000000000000815260040161213c90613c4d565b60405180910390fd5b6121508383836124f7565b505050565b600061216082611f98565b61219f576040517f08c379a000000000000000000000000000000000000000000000000000000000815260040161219690613cdf565b60405180910390fd5b60006121aa8361106a565b90508073ffffffffffffffffffffffffffffffffffffffff168473ffffffffffffffffffffffffffffffffffffffff16148061221957508373ffffffffffffffffffffffffffffffffffffffff16612201846109f2565b73ffffffffffffffffffffffffffffffffffffffff16145b8061222a57506122298185611bf9565b5b91505092915050565b8273ffffffffffffffffffffffffffffffffffffffff166122538261106a565b73ffffffffffffffffffffffffffffffffffffffff16146122a9576040517f08c379a00000000000000000000000000000000000000000000000000000000081526004016122a090613d71565b60405180910390fd5b600073ffffffffffffffffffffffffffffffffffffffff168273ffffffffffffffffffffffffffffffffffffffff161415612319576040517f08c379a000000000000000000000000000000000000000000000000000000000815260040161231090613e03565b60405180910390fd5b612324600082612004565b6001600360008573ffffffffffffffffffffffffffffffffffffffff1673ffffffffffffffffffffffffffffffffffffffff16815260200190815260200160002060008282546123749190613e23565b925050819055506001600360008473ffffffffffffffffffffffffffffffffffffffff1673ffffffffffffffffffffffffffffffffffffffff16815260200190815260200160002060008282546123cb9190613348565b92505081905550816002600083815260200190815260200160002060006101000a81548173ffffffffffffffffffffffffffffffffffffffff021916908373ffffffffffffffffffffffffffffffffffffffff160217905550808273ffffffffffffffffffffffffffffffffffffffff168473ffffffffffffffffffffffffffffffffffffffff167fddf252ad1be2c89b69c2b068fc378daa952ba7f163c4a11628f55a4df523b3ef60405160405180910390a4505050565b6000826124918584612570565b1490509392505050565b6124a6848484612233565b6124b284848484612623565b6124f1576040517f08c379a00000000000000000000000000000000000000000000000000000000081526004016124e890613ec9565b60405180910390fd5b50505050565b6000828460405160200161250c9291906139ff565b6040516020818303038152906040528051906020012060001c90506001151582151514156125605781600c600083815260200190815260200160002060006101000a81548160ff0219169083151502179055505b61256a8482611d6c565b50505050565b60008082905060005b845181101561261857600085828151811061259757612596613ee9565b5b602002602001015190508083116125d85782816040516020016125bb929190613f39565b604051602081830303815290604052805190602001209250612604565b80836040516020016125eb929190613f39565b6040516020818303038152906040528051906020012092505b50808061261090613f65565b915050612579565b508091505092915050565b60006126448473ffffffffffffffffffffffffffffffffffffffff166127a4565b15612797578373ffffffffffffffffffffffffffffffffffffffff1663150b7a02338786866040518563ffffffff1660e01b81526004016126889493929190614003565b6020604051808303816000875af19250505080156126c457506040513d601f19601f820116820180604052508101906126c19190614064565b60015b612747573d80600081146126f4576040519150601f19603f3d011682016040523d82523d6000602084013e6126f9565b606091505b5060008151141561273f576040517f08c379a000000000000000000000000000000000000000000000000000000000815260040161273690613ec9565b60405180910390fd5b805181602001fd5b63150b7a0260e01b7bffffffffffffffffffffffffffffffffffffffffffffffffffffffff1916817bffffffffffffffffffffffffffffffffffffffffffffffffffffffff19161491505061279c565b600190505b949350505050565b600080823b905060008111915050919050565b6000604051905090565b600080fd5b600080fd5b60007fffffffff0000000000000000000000000000000000000000000000000000000082169050919050565b612800816127cb565b811461280b57600080fd5b50565b60008135905061281d816127f7565b92915050565b600060208284031215612839576128386127c1565b5b60006128478482850161280e565b91505092915050565b60008115159050919050565b61286581612850565b82525050565b6000602082019050612880600083018461285c565b92915050565b600081519050919050565b600082825260208201905092915050565b60005b838110156128c05780820151818401526020810190506128a5565b838111156128cf576000848401525b50505050565b6000601f19601f8301169050919050565b60006128f182612886565b6128fb8185612891565b935061290b8185602086016128a2565b612914816128d5565b840191505092915050565b6000602082019050818103600083015261293981846128e6565b905092915050565b6000819050919050565b61295481612941565b811461295f57600080fd5b50565b6000813590506129718161294b565b92915050565b60006020828403121561298d5761298c6127c1565b5b600061299b84828501612962565b91505092915050565b600073ffffffffffffffffffffffffffffffffffffffff82169050919050565b60006129cf826129a4565b9050919050565b6129df816129c4565b82525050565b60006020820190506129fa60008301846129d6565b92915050565b612a09816129c4565b8114612a1457600080fd5b50565b600081359050612a2681612a00565b92915050565b60008060408385031215612a4357612a426127c1565b5b6000612a5185828601612a17565b9250506020612a6285828601612962565b9150509250929050565b612a7581612941565b82525050565b6000602082019050612a906000830184612a6c565b92915050565b600080600060608486031215612aaf57612aae6127c1565b5b6000612abd86828701612a17565b9350506020612ace86828701612a17565b9250506040612adf86828701612962565b9150509250925092565b6000819050919050565b6000612b0e612b09612b04846129a4565b612ae9565b6129a4565b9050919050565b6000612b2082612af3565b9050919050565b6000612b3282612b15565b9050919050565b612b4281612b27565b82525050565b6000602082019050612b5d6000830184612b39565b92915050565b600080fd5b600080fd5b600080fd5b60008083601f840112612b8857612b87612b63565b5b8235905067ffffffffffffffff811115612ba557612ba4612b68565b5b602083019150836020820283011115612bc157612bc0612b6d565b5b9250929050565b600080600060408486031215612be157612be06127c1565b5b600084013567ffffffffffffffff811115612bff57612bfe6127c6565b5b612c0b86828701612b72565b93509350506020612c1e86828701612a17565b9150509250925092565b612c3181612850565b8114612c3c57600080fd5b50565b600081359050612c4e81612c28565b92915050565b60008060408385031215612c6b57612c6a6127c1565b5b6000612c7985828601612962565b9250506020612c8a85828601612c3f565b9150509250929050565b6000612c9f826129a4565b9050919050565b612caf81612c94565b82525050565b6000602082019050612cca6000830184612ca6565b92915050565b6000819050919050565b612ce381612cd0565b82525050565b6000602082019050612cfe6000830184612cda565b92915050565b600060208284031215612d1a57612d196127c1565b5b6000612d2884828501612a17565b91505092915050565b60008060408385031215612d4857612d476127c1565b5b6000612d5685828601612a17565b9250506020612d6785828601612c3f565b9150509250929050565b600080600060608486031215612d8a57612d896127c1565b5b6000612d9886828701612962565b9350506020612da986828701612a17565b9250506040612dba86828701612c3f565b9150509250925092565b60008060208385031215612ddb57612dda6127c1565b5b600083013567ffffffffffffffff811115612df957612df86127c6565b5b612e0585828601612b72565b92509250509250929050565b600080fd5b7f4e487b7100000000000000000000000000000000000000000000000000000000600052604160045260246000fd5b612e4e826128d5565b810181811067ffffffffffffffff82111715612e6d57612e6c612e16565b5b80604052505050565b6000612e806127b7565b9050612e8c8282612e45565b919050565b600067ffffffffffffffff821115612eac57612eab612e16565b5b612eb5826128d5565b9050602081019050919050565b82818337600083830152505050565b6000612ee4612edf84612e91565b612e76565b905082815260208101848484011115612f0057612eff612e11565b5b612f0b848285612ec2565b509392505050565b600082601f830112612f2857612f27612b63565b5b8135612f38848260208601612ed1565b91505092915050565b60008060008060808587031215612f5b57612f5a6127c1565b5b6000612f6987828801612a17565b9450506020612f7a87828801612a17565b9350506040612f8b87828801612962565b925050606085013567ffffffffffffffff811115612fac57612fab6127c6565b5b612fb887828801612f13565b91505092959194509250565b60008060408385031215612fdb57612fda6127c1565b5b6000612fe985828601612a17565b9250506020612ffa85828601612a17565b9150509250929050565b7f4e487b7100000000000000000000000000000000000000000000000000000000600052602260045260246000fd5b6000600282049050600182168061304b57607f821691505b6020821081141561305f5761305e613004565b5b50919050565b7f4552433732313a20617070726f76656420717565727920666f72206e6f6e657860008201527f697374656e7420746f6b656e0000000000000000000000000000000000000000602082015250565b60006130c1602c83612891565b91506130cc82613065565b604082019050919050565b600060208201905081810360008301526130f0816130b4565b9050919050565b7f4552433732313a20617070726f76616c20746f2063757272656e74206f776e6560008201527f7200000000000000000000000000000000000000000000000000000000000000602082015250565b6000613153602183612891565b915061315e826130f7565b604082019050919050565b6000602082019050818103600083015261318281613146565b9050919050565b7f4552433732313a20617070726f76652063616c6c6572206973206e6f74206f7760008201527f6e6572206e6f7220617070726f76656420666f7220616c6c0000000000000000602082015250565b60006131e5603883612891565b91506131f082613189565b604082019050919050565b60006020820190508181036000830152613214816131d8565b9050919050565b7f4d4f524520455448204e45454445440000000000000000000000000000000000600082015250565b6000613251600f83612891565b915061325c8261321b565b602082019050919050565b6000602082019050818103600083015261328081613244565b9050919050565b7f4552433732313a207472616e736665722063616c6c6572206973206e6f74206f60008201527f776e6572206e6f7220617070726f766564000000000000000000000000000000602082015250565b60006132e3603183612891565b91506132ee82613287565b604082019050919050565b60006020820190508181036000830152613312816132d6565b9050919050565b7f4e487b7100000000000000000000000000000000000000000000000000000000600052601160045260246000fd5b600061335382612941565b915061335e83612941565b9250827fffffffffffffffffffffffffffffffffffffffffffffffffffffffffffffffff0382111561339357613392613319565b5b828201905092915050565b7f414c4c2044454c55584520484153204245454e20534f4c440000000000000000600082015250565b60006133d4601883612891565b91506133df8261339e565b602082019050919050565b60006020820190508181036000830152613403816133c7565b9050919050565b7f416c726561647920636c61696d65640000000000000000000000000000000000600082015250565b6000613440600f83612891565b915061344b8261340a565b602082019050919050565b6000602082019050818103600083015261346f81613433565b9050919050565b60008160601b9050919050565b600061348e82613476565b9050919050565b60006134a082613483565b9050919050565b6134b86134b3826129c4565b613495565b82525050565b60006134ca82846134a7565b60148201915081905092915050565b7f496e76616c69642050726f6f6600000000000000000000000000000000000000600082015250565b600061350f600d83612891565b915061351a826134d9565b602082019050919050565b6000602082019050818103600083015261353e81613502565b9050919050565b600060408201905061355a6000830185612a6c565b613567602083018461285c565b9392505050565b600067ffffffffffffffff82111561358957613588612e16565b5b613592826128d5565b9050602081019050919050565b60006135b26135ad8461356e565b612e76565b9050828152602081018484840111156135ce576135cd612e11565b5b6135d98482856128a2565b509392505050565b600082601f8301126135f6576135f5612b63565b5b815161360684826020860161359f565b91505092915050565b600060208284031215613625576136246127c1565b5b600082015167ffffffffffffffff811115613643576136426127c6565b5b61364f848285016135e1565b91505092915050565b7f4552433732313a206f776e657220717565727920666f72206e6f6e657869737460008201527f656e7420746f6b656e0000000000000000000000000000000000000000000000602082015250565b60006136b4602983612891565b91506136bf82613658565b604082019050919050565b600060208201905081810360008301526136e3816136a7565b9050919050565b7f6e6f74206f776e65720000000000000000000000000000000000000000000000600082015250565b6000613720600983612891565b915061372b826136ea565b602082019050919050565b6000602082019050818103600083015261374f81613713565b9050919050565b7f63616e74206368616e67652064657363726970746f7220616e796d6f72650000600082015250565b600061378c601e83612891565b915061379782613756565b602082019050919050565b600060208201905081810360008301526137bb8161377f565b9050919050565b7f4e4f545f4f574e45520000000000000000000000000000000000000000000000600082015250565b60006137f8600983612891565b9150613803826137c2565b602082019050919050565b60006020820190508181036000830152613827816137eb565b9050919050565b600081905092915050565b50565b600061384960008361382e565b915061385482613839565b600082019050919050565b600061386a8261383c565b9150819050919050565b7f656d657267656e6379206e6f74206e6565646564000000000000000000000000600082015250565b60006138aa601483612891565b91506138b582613874565b602082019050919050565b600060208201905081810360008301526138d98161389d565b9050919050565b7f4552433732313a2062616c616e636520717565727920666f7220746865207a6560008201527f726f206164647265737300000000000000000000000000000000000000000000602082015250565b600061393c602a83612891565b9150613947826138e0565b604082019050919050565b6000602082019050818103600083015261396b8161392f565b9050919050565b7f4552433732313a20617070726f766520746f2063616c6c657200000000000000600082015250565b60006139a8601983612891565b91506139b382613972565b602082019050919050565b600060208201905081810360008301526139d78161399b565b9050919050565b6000819050919050565b6139f96139f482612941565b6139de565b82525050565b6000613a0b82856139e8565b602082019150613a1b82846134a7565b6014820191508190509392505050565b7f4552433732314d657461646174613a2055524920717565727920666f72206e6f60008201527f6e6578697374656e7420746f6b656e0000000000000000000000000000000000602082015250565b6000613a87602f83612891565b9150613a9282613a2b565b604082019050919050565b60006020820190508181036000830152613ab681613a7a565b9050919050565b7f4552433732313a206d696e7420746f20746865207a65726f2061646472657373600082015250565b6000613af3602083612891565b9150613afe82613abd565b602082019050919050565b60006020820190508181036000830152613b2281613ae6565b9050919050565b7f4552433732313a20746f6b656e20616c7265616479206d696e74656400000000600082015250565b6000613b5f601c83612891565b9150613b6a82613b29565b602082019050919050565b60006020820190508181036000830152613b8e81613b52565b9050919050565b7f4e4f545f53544152544544000000000000000000000000000000000000000000600082015250565b6000613bcb600b83612891565b9150613bd682613b95565b602082019050919050565b60006020820190508181036000830152613bfa81613bbe565b9050919050565b7f454e444544000000000000000000000000000000000000000000000000000000600082015250565b6000613c37600583612891565b9150613c4282613c01565b602082019050919050565b60006020820190508181036000830152613c6681613c2a565b9050919050565b7f4552433732313a206f70657261746f7220717565727920666f72206e6f6e657860008201527f697374656e7420746f6b656e0000000000000000000000000000000000000000602082015250565b6000613cc9602c83612891565b9150613cd482613c6d565b604082019050919050565b60006020820190508181036000830152613cf881613cbc565b9050919050565b7f4552433732313a207472616e73666572206f6620746f6b656e2074686174206960008201527f73206e6f74206f776e0000000000000000000000000000000000000000000000602082015250565b6000613d5b602983612891565b9150613d6682613cff565b604082019050919050565b60006020820190508181036000830152613d8a81613d4e565b9050919050565b7f4552433732313a207472616e7366657220746f20746865207a65726f2061646460008201527f7265737300000000000000000000000000000000000000000000000000000000602082015250565b6000613ded602483612891565b9150613df882613d91565b604082019050919050565b60006020820190508181036000830152613e1c81613de0565b9050919050565b6000613e2e82612941565b9150613e3983612941565b925082821015613e4c57613e4b613319565b5b828203905092915050565b7f4552433732313a207472616e7366657220746f206e6f6e20455243373231526560008201527f63656976657220696d706c656d656e7465720000000000000000000000000000602082015250565b6000613eb3603283612891565b9150613ebe82613e57565b604082019050919050565b60006020820190508181036000830152613ee281613ea6565b9050919050565b7f4e487b7100000000000000000000000000000000000000000000000000000000600052603260045260246000fd5b6000819050919050565b613f33613f2e82612cd0565b613f18565b82525050565b6000613f458285613f22565b602082019150613f558284613f22565b6020820191508190509392505050565b6000613f7082612941565b91507fffffffffffffffffffffffffffffffffffffffffffffffffffffffffffffffff821415613fa357613fa2613319565b5b600182019050919050565b600081519050919050565b600082825260208201905092915050565b6000613fd582613fae565b613fdf8185613fb9565b9350613fef8185602086016128a2565b613ff8816128d5565b840191505092915050565b600060808201905061401860008301876129d6565b61402560208301866129d6565b6140326040830185612a6c565b81810360608301526140448184613fca565b905095945050505050565b60008151905061405e816127f7565b92915050565b60006020828403121561407a576140796127c1565b5b60006140888482850161404f565b9150509291505056fea26469706673582212205929fb38dbf44ed57bff8362ebac1739667e36d3a8b36156f8cfa2fb2ed0419564736f6c634300080c0033608060405234801561001057600080fd5b50613f31806100206000396000f3fe608060405234801561001057600080fd5b50600436106100885760003560e01c806385e982eb1161005b57806385e982eb1461013b578063aab838ec1461016b578063d7e4ee6f1461019b578063effaaf6a146101cb57610088565b80632581d8b31461008d57806337ee03ec146100bd578063594bf5ad146100ed5780635a312a3d1461011d575b600080fd5b6100a760048036038101906100a29190611b12565b6101fb565b6040516100b49190611bf6565b60405180910390f35b6100d760048036038101906100d29190611c4e565b610398565b6040516100e49190611bf6565b60405180910390f35b61010760048036038101906101029190611e03565b610548565b6040516101149190611bf6565b60405180910390f35b6101256105f5565b6040516101329190611bf6565b60405180910390f35b61015560048036038101906101509190611c4e565b61061c565b6040516101629190611bf6565b60405180910390f35b61018560048036038101906101809190611c4e565b61063e565b6040516101929190611bf6565b60405180910390f35b6101b560048036038101906101b09190611c4e565b6106ff565b6040516101c29190611bf6565b60405180910390f35b6101e560048036038101906101e09190611c4e565b6107d7565b6040516101f29190611bf6565b60405180910390f35b60608060005b601481101561038d57600061021686836107eb565b905060006102308760018561022b9190611ed9565b61080e565b90506012831415610262578360405160200161024c9190611f91565b6040516020818303038152906040529350610377565b6013831415610292578360405160200161027c9190611fdd565b6040516020818303038152906040529350610376565b60048314806102a15750600983145b806102ac5750600e83145b1561030d576001151586151514156102e557836040516020016102cf9190612029565b6040516020818303038152906040529350610308565b836040516020016102f69190611fdd565b60405160208183030381529060405293505b610375565b6080811015610347578361032083610825565b604051602001610331929190612075565b6040516020818303038152906040529350610374565b8361035183610825565b6040516020016103629291906120ce565b60405160208183030381529060405293505b5b5b5b50506001816103869190611ed9565b9050610201565b508091505092915050565b606060008360001b6040516020016103b0919061213b565b6040516020818303038152906040529050606060011515841515141561044b576104446040518060400160405280600881526020017f416e696d617465640000000000000000000000000000000000000000000000008152506040518060400160405280600481526020017f54727565000000000000000000000000000000000000000000000000000000008152506109ae565b90506104c2565b6104bf6040518060400160405280600881526020017f416e696d617465640000000000000000000000000000000000000000000000008152506040518060400160405280600581526020017f46616c73650000000000000000000000000000000000000000000000000000008152506109ae565b90505b60006104cd836109da565b905060006105186040518060400160405280600b81526020017f506574616c20436f756e7400000000000000000000000000000000000000000081525061051384610825565b6109ae565b9050828160405160200161052d92919061223a565b60405160208183030381529060405294505050505092915050565b6060600061055d61055886610a62565b610825565b9050600061056a86610a9f565b9050600061057f61057a88610acf565b610825565b9050600061058c88610b0c565b905060008784600381106105a3576105a261227f565b5b6020020151858884600381106105bc576105bb61227f565b5b6020020151856040516020016105d594939291906122ae565b604051602081830303815290604052905080955050505050509392505050565b6060600060405180610100016040528060c68152602001613b7d60c6913990508091505090565b6060600061062a84846107d7565b905061063581610b3c565b91505092915050565b606060006040518060400160405280600781526020017f44656661756c740000000000000000000000000000000000000000000000000081525090506001151583151514156106c0576040518060400160405280600681526020017f44656c757865000000000000000000000000000000000000000000000000000081525090505b806106d66106cd86610825565b60006008610cc1565b6040516020016106e7929190612347565b60405160208183030381529060405291505092915050565b6060600061070d848461063e565b905060006107196105f5565b90506000610727868661061c565b905060006107358787610398565b9050600060405180602001604052806000815250905060011515871515141561077b578260405160200161076991906123c2565b60405160208183030381529060405290505b6107ab85858584866040516020016107979594939291906125bf565b604051602081830303815290604052610b3c565b6040516020016107bb9190612698565b6040516020818303038152906040529550505050505092915050565b60606107e38383610dbd565b905092915050565b600060046107f98484610f3a565b60ff1661080691906126e9565b905092915050565b600061081a8383610f3a565b60ff16905092915050565b6060600082141561086d576040518060400160405280600181526020017f300000000000000000000000000000000000000000000000000000000000000081525090506109a9565b600082905060005b6000821461089f5780806108889061271a565b915050600a8261089891906126e9565b9150610875565b60008167ffffffffffffffff8111156108bb576108ba6119af565b5b6040519080825280601f01601f1916602001820160405280156108ed5781602001600182028036833780820191505090505b50905060008290505b600086146109a15760018161090b9190612763565b90506000600a808861091d91906126e9565b6109279190612797565b876109329190612763565b603061093e91906127fe565b905060008160f81b90508084848151811061095c5761095b61227f565b5b60200101907effffffffffffffffffffffffffffffffffffffffffffffffffffffffffffff1916908160001a905350600a8861099891906126e9565b975050506108f6565b819450505050505b919050565b606082826040516020016109c39291906128a7565b604051602081830303815290604052905092915050565b6000806040518060a00160405280600860ff168152602001600c60ff168152602001601460ff168152602001601860ff168152602001602460ff16815250905060006034610a29856000610f3a565b610a3391906128f8565b60ff1690506000828260058110610a4d57610a4c61227f565b5b602002015160ff169050809350505050919050565b60006101006103e8610a75846005610f3a565b60ff16610a829190612797565b610a8c91906126e9565b6001610a989190611ed9565b9050919050565b60006101006003610ab1846007610f3a565b60ff16610abe9190612797565b610ac891906126e9565b9050919050565b60006101006103e8610ae2846006610f3a565b60ff16610aef9190612797565b610af991906126e9565b6001610b059190611ed9565b9050919050565b60006101006003610b1e846008610f3a565b60ff16610b2b9190612797565b610b3591906126e9565b9050919050565b6060600082511415610b5f57604051806020016040528060008152509050610cbc565b6000604051806060016040528060408152602001613b3d6040913990506000600360028551610b8e9190611ed9565b610b9891906126e9565b6004610ba49190612797565b90506000602082610bb59190611ed9565b67ffffffffffffffff811115610bce57610bcd6119af565b5b6040519080825280601f01601f191660200182016040528015610c005781602001600182028036833780820191505090505b509050818152600183018586518101602084015b81831015610c7b576003830192508251603f8160121c1685015160f81b8252600182019150603f81600c1c1685015160f81b8252600182019150603f8160061c1685015160f81b8252600182019150603f811685015160f81b825260018201915050610c14565b600389510660018114610c955760028114610ca557610cb0565b613d3d60f01b6002830352610cb0565b603d60f81b60018303525b50505050508093505050505b919050565b6060600084905060008484610cd69190612763565b67ffffffffffffffff811115610cef57610cee6119af565b5b6040519080825280601f01601f191660200182016040528015610d215781602001600182028036833780820191505090505b50905060008590505b84811015610db057828181518110610d4557610d4461227f565b5b602001015160f81c60f81b828783610d5d9190612763565b81518110610d6e57610d6d61227f565b5b60200101907effffffffffffffffffffffffffffffffffffffffffffffffffffffffffffff1916908160001a9053508080610da89061271a565b915050610d2a565b5080925050509392505050565b606060008360001b604051602001610dd5919061213b565b60405160208183030381529060405290506000610df1826109da565b9050600081610168610e0391906126e9565b905060006040518060400160405280600781526020017f3c7374796c653e00000000000000000000000000000000000000000000000000815250905060006040518060200160405280600081525090506000604051806020016040528060008152509050600115158815151415610ed05760405180610260016040528061022d8152602001613c4361022d913991506040518060c00160405280608c8152602001613e70608c9139905082604051602001610ebe9190612a59565b60405160208183030381529060405292505b82604051602001610ee19190612aa1565b604051602081830303815290604052925082610efc87610ff0565b610f0788888861106b565b8385604051602001610f1d959493929190612d73565b604051602081830303815290604052965050505050505092915050565b600081600183610f4a9190611ed9565b1015610f8b576040517f08c379a0000000000000000000000000000000000000000000000000000000008152600401610f8290612e58565b60405180910390fd5b600182610f989190611ed9565b83511015610fdb576040517f08c379a0000000000000000000000000000000000000000000000000000000008152600401610fd290612ec4565b60405180910390fd5b60008260018501015190508091505092915050565b60606000610fff83600161113a565b9050600061100e84600061113a565b9050600061101b856115dc565b9050600061103482609661102f9190611ed9565b610825565b9050838382838485604051602001611051969594939291906131dc565b604051602081830303815290604052945050505050919050565b606060006110788561160b565b905060006002826110899190612797565b9050600061109887878761163a565b905060006110b18460966110ac9190612763565b610825565b6110c68460966110c19190612763565b610825565b6110db8560966110d69190612763565b610825565b6110f08760966110eb9190611ed9565b610825565b6111058760966111009190612763565b610825565b8660405160200161111b9695949392919061353b565b6040516020818303038152906040529050809450505050509392505050565b606060006112bb8460405180606001604052806040518060400160405280600381526020017f302e30000000000000000000000000000000000000000000000000000000000081525081526020016040518060400160405280600481526020017f302e30300000000000000000000000000000000000000000000000000000000081525081526020016040518060400160405280600481526020017f302e30300000000000000000000000000000000000000000000000000000000081525081525060405180606001604052806040518060400160405280600381526020017f302e30000000000000000000000000000000000000000000000000000000000081525081526020016040518060400160405280600381526020017f302e30000000000000000000000000000000000000000000000000000000000081525081526020016040518060400160405280600481526020017f302e303000000000000000000000000000000000000000000000000000000000815250815250610548565b905060006112d06112cb86611807565b610825565b90506114236040518060400160405280600c81526020017f666554757262756c656e6365000000000000000000000000000000000000000081525061134a6040518060400160405280600d81526020017f626173654672657175656e6379000000000000000000000000000000000000008152508561184e565b6113896040518060400160405280600481526020017f73656564000000000000000000000000000000000000000000000000000000008152508561184e565b6113fd6040518060400160405280600681526020017f726573756c7400000000000000000000000000000000000000000000000000008152506040518060400160405280600481526020017f747572620000000000000000000000000000000000000000000000000000000081525061184e565b60405160200161140f93929190613630565b60405160208183030381529060405261187a565b6115b26040518060400160405280600d81526020017f6665436f6c6f724d6174726978000000000000000000000000000000000000008152506114d06040518060400160405280600281526020017f696e0000000000000000000000000000000000000000000000000000000000008152506040518060400160405280600481526020017f747572620000000000000000000000000000000000000000000000000000000081525061184e565b6115186040518060400160405280600681526020017f76616c75657300000000000000000000000000000000000000000000000000008152506115138b8b6101fb565b61184e565b61158c6040518060400160405280600381526020017f6f757400000000000000000000000000000000000000000000000000000000008152506040518060400160405280600581526020017f747572623200000000000000000000000000000000000000000000000000000081525061184e565b60405160200161159e93929190613630565b60405160208183030381529060405261187a565b6040516020016115c3929190613661565b6040516020818303038152906040529250505092915050565b600060026115eb836001610f3a565b6115f591906128f8565b60b46116019190613685565b60ff169050919050565b6000600d61161a836009610f3a565b61162491906128f8565b600561163091906127fe565b60ff169050919050565b606060006040518060200160405280600081525090506000604051806020016040528060008152509050600060405180602001604052806000815250905060005b86811015611757576002600360048961169491906126e9565b61169e9190612797565b6116a89190611ed9565b81101561174357826116d0600183896116c19190612797565b6116cb9190611ed9565b6118a6565b6040516020016116e1929190613661565b60405160208183030381529060405292508161172089605a6001856117069190611ed9565b8a6117119190612797565b61171b9190611ed9565b6118f9565b604051602001611731929190613661565b60405160208183030381529060405291505b6001816117509190611ed9565b905061167b565b508061178688605a60018a61176c9190611ed9565b896117779190612797565b6117819190611ed9565b6118f9565b6117b389605a60028b6117999190611ed9565b8a6117a49190612797565b6117ae9190611ed9565b6118f9565b6040516020016117c593929190613630565b604051602081830303815290604052905081816040516020016117e9929190613661565b60405160208183030381529060405292508293505050509392505050565b6000611814826004610f3a565b60ff16611822836003610f3a565b60ff16611830846002610f3a565b60ff1661183d9190612797565b6118479190612797565b9050919050565b6060828260405160200161186392919061372b565b604051602081830303815290604052905092915050565b6060828260405160200161188f9291906137c8565b604051602081830303815290604052905092915050565b60606118bd6001836118b89190611ed9565b610825565b6118d26001846118cd9190611ed9565b610825565b6040516020016118e39291906139e1565b6040516020818303038152906040529050919050565b606060006119068461194f565b905061191d6001846119189190611ed9565b610825565b61192682610825565b604051602001611937929190613aef565b60405160208183030381529060405291505092915050565b600061010061016861196284600a610f3a565b60ff1661196f9190612797565b61197991906126e9565b9050919050565b6000604051905090565b600080fd5b600080fd5b600080fd5b600080fd5b6000601f19601f8301169050919050565b7f4e487b7100000000000000000000000000000000000000000000000000000000600052604160045260246000fd5b6119e78261199e565b810181811067ffffffffffffffff82111715611a0657611a056119af565b5b80604052505050565b6000611a19611980565b9050611a2582826119de565b919050565b600067ffffffffffffffff821115611a4557611a446119af565b5b611a4e8261199e565b9050602081019050919050565b82818337600083830152505050565b6000611a7d611a7884611a2a565b611a0f565b905082815260208101848484011115611a9957611a98611999565b5b611aa4848285611a5b565b509392505050565b600082601f830112611ac157611ac0611994565b5b8135611ad1848260208601611a6a565b91505092915050565b60008115159050919050565b611aef81611ada565b8114611afa57600080fd5b50565b600081359050611b0c81611ae6565b92915050565b60008060408385031215611b2957611b2861198a565b5b600083013567ffffffffffffffff811115611b4757611b4661198f565b5b611b5385828601611aac565b9250506020611b6485828601611afd565b9150509250929050565b600081519050919050565b600082825260208201905092915050565b60005b83811015611ba8578082015181840152602081019050611b8d565b83811115611bb7576000848401525b50505050565b6000611bc882611b6e565b611bd28185611b79565b9350611be2818560208601611b8a565b611beb8161199e565b840191505092915050565b60006020820190508181036000830152611c108184611bbd565b905092915050565b6000819050919050565b611c2b81611c18565b8114611c3657600080fd5b50565b600081359050611c4881611c22565b92915050565b60008060408385031215611c6557611c6461198a565b5b6000611c7385828601611c39565b9250506020611c8485828601611afd565b9150509250929050565b600067ffffffffffffffff821115611ca957611ca86119af565b5b602082029050919050565b600080fd5b600067ffffffffffffffff821115611cd457611cd36119af565b5b611cdd8261199e565b9050602081019050919050565b6000611cfd611cf884611cb9565b611a0f565b905082815260208101848484011115611d1957611d18611999565b5b611d24848285611a5b565b509392505050565b600082601f830112611d4157611d40611994565b5b8135611d51848260208601611cea565b91505092915050565b6000611d6d611d6884611c8e565b611a0f565b90508060208402830185811115611d8757611d86611cb4565b5b835b81811015611dce57803567ffffffffffffffff811115611dac57611dab611994565b5b808601611db98982611d2c565b85526020850194505050602081019050611d89565b5050509392505050565b600082601f830112611ded57611dec611994565b5b6003611dfa848285611d5a565b91505092915050565b600080600060608486031215611e1c57611e1b61198a565b5b600084013567ffffffffffffffff811115611e3a57611e3961198f565b5b611e4686828701611aac565b935050602084013567ffffffffffffffff811115611e6757611e6661198f565b5b611e7386828701611dd8565b925050604084013567ffffffffffffffff811115611e9457611e9361198f565b5b611ea086828701611dd8565b9150509250925092565b7f4e487b7100000000000000000000000000000000000000000000000000000000600052601160045260246000fd5b6000611ee482611c18565b9150611eef83611c18565b9250827fffffffffffffffffffffffffffffffffffffffffffffffffffffffffffffffff03821115611f2457611f23611eaa565b5b828201905092915050565b600081905092915050565b6000611f4582611b6e565b611f4f8185611f2f565b9350611f5f818560208601611b8a565b80840191505092915050565b7f2d35302000000000000000000000000000000000000000000000000000000000815250565b6000611f9d8284611f3a565b9150611fa882611f6b565b60048201915081905092915050565b7f3120000000000000000000000000000000000000000000000000000000000000815250565b6000611fe98284611f3a565b9150611ff482611fb7565b60028201915081905092915050565b7f3020000000000000000000000000000000000000000000000000000000000000815250565b60006120358284611f3a565b915061204082612003565b60028201915081905092915050565b7f2000000000000000000000000000000000000000000000000000000000000000815250565b60006120818285611f3a565b915061208d8284611f3a565b91506120988261204f565b6001820191508190509392505050565b7f2d00000000000000000000000000000000000000000000000000000000000000815250565b60006120da8285611f3a565b91506120e5826120a8565b6001820191506120f58284611f3a565b91506121008261204f565b6001820191508190509392505050565b6000819050919050565b6000819050919050565b61213561213082612110565b61211a565b82525050565b60006121478284612124565b60208201915081905092915050565b7f2261747472696275746573223a205b0000000000000000000000000000000000600082015250565b600061218c600f83611f2f565b915061219782612156565b600f82019050919050565b7f2c00000000000000000000000000000000000000000000000000000000000000600082015250565b60006121d8600183611f2f565b91506121e3826121a2565b600182019050919050565b7f5d00000000000000000000000000000000000000000000000000000000000000600082015250565b6000612224600183611f2f565b915061222f826121ee565b600182019050919050565b60006122458261217f565b91506122518285611f3a565b915061225c826121cb565b91506122688284611f3a565b915061227382612217565b91508190509392505050565b7f4e487b7100000000000000000000000000000000000000000000000000000000600052603260045260246000fd5b60006122ba8287611f3a565b91506122c68286611f3a565b91506122d18261204f565b6001820191506122e18285611f3a565b91506122ed8284611f3a565b915081905095945050505050565b7f204461697379636861696e202300000000000000000000000000000000000000600082015250565b6000612331600d83611f2f565b915061233c826122fb565b600d82019050919050565b60006123538285611f3a565b915061235e82612324565b915061236a8284611f3a565b91508190509392505050565b7f222c2022616e696d6174696f6e5f75726c223a20220000000000000000000000815250565b7f646174613a696d6167652f7376672b786d6c3b6261736536342c000000000000815250565b60006123cd82612376565b6015820191506123dc8261239c565b601a820191506123ec8284611f3a565b915081905092915050565b7f7b226e616d65223a220000000000000000000000000000000000000000000000600082015250565b600061242d600983611f2f565b9150612438826123f7565b600982019050919050565b7f222c20226465736372697074696f6e223a220000000000000000000000000000600082015250565b6000612479601283611f2f565b915061248482612443565b601282019050919050565b7f222c2022696d616765223a202200000000000000000000000000000000000000600082015250565b60006124c5600d83611f2f565b91506124d08261248f565b600d82019050919050565b7f646174613a696d6167652f7376672b786d6c3b6261736536342c000000000000600082015250565b6000612511601a83611f2f565b915061251c826124db565b601a82019050919050565b7f222c200000000000000000000000000000000000000000000000000000000000600082015250565b600061255d600383611f2f565b915061256882612527565b600382019050919050565b7f7d00000000000000000000000000000000000000000000000000000000000000600082015250565b60006125a9600183611f2f565b91506125b482612573565b600182019050919050565b60006125ca82612420565b91506125d68288611f3a565b91506125e18261246c565b91506125ed8287611f3a565b91506125f8826124b8565b915061260382612504565b915061260f8286611f3a565b915061261b8285611f3a565b915061262682612550565b91506126328284611f3a565b915061263d8261259c565b91508190509695505050505050565b7f646174613a6170706c69636174696f6e2f6a736f6e3b6261736536342c000000600082015250565b6000612682601d83611f2f565b915061268d8261264c565b601d82019050919050565b60006126a382612675565b91506126af8284611f3a565b915081905092915050565b7f4e487b7100000000000000000000000000000000000000000000000000000000600052601260045260246000fd5b60006126f482611c18565b91506126ff83611c18565b92508261270f5761270e6126ba565b5b828204905092915050565b600061272582611c18565b91507fffffffffffffffffffffffffffffffffffffffffffffffffffffffffffffffff82141561275857612757611eaa565b5b600182019050919050565b600061276e82611c18565b915061277983611c18565b92508282101561278c5761278b611eaa565b5b828203905092915050565b60006127a282611c18565b91506127ad83611c18565b9250817fffffffffffffffffffffffffffffffffffffffffffffffffffffffffffffffff04831182151516156127e6576127e5611eaa565b5b828202905092915050565b600060ff82169050919050565b6000612809826127f1565b9150612814836127f1565b92508260ff0382111561282a57612829611eaa565b5b828201905092915050565b7f7b2274726169745f74797065223a202200000000000000000000000000000000815250565b7f222c202276616c7565223a202200000000000000000000000000000000000000815250565b7f227d000000000000000000000000000000000000000000000000000000000000815250565b60006128b282612835565b6010820191506128c28285611f3a565b91506128cd8261285b565b600d820191506128dd8284611f3a565b91506128e882612881565b6002820191508190509392505050565b6000612903826127f1565b915061290e836127f1565b92508261291e5761291d6126ba565b5b828204905092915050565b7f2e7374617274427574746f6e207b20637572736f723a20706f696e7465723b2060008201527f7d202e726f74617465207b7472616e73666f726d2d6f726967696e3a2031353060208201527f70782031353070783b616e696d6174696f6e3a20726f7461746520313030732060408201527f6c696e65617220696e66696e6974653b207d406b65796672616d657320726f7460608201527f617465207b66726f6d207b7472616e73666f726d3a20726f746174652830646560808201527f67293b7d746f207b7472616e73666f726d3a20726f746174652833363064656760a08201527f293b7d7d0000000000000000000000000000000000000000000000000000000060c082015250565b6000612a4360c483611f2f565b9150612a4e82612929565b60c482019050919050565b6000612a658284611f3a565b9150612a7082612a36565b915081905092915050565b7f3c2f7374796c653e000000000000000000000000000000000000000000000000815250565b6000612aad8284611f3a565b9150612ab882612a7b565b60088201915081905092915050565b7f3c73766720786d6c6e733d22687474703a2f2f7777772e77332e6f72672f323060008201527f30302f737667222076657273696f6e3d22322e3022207374796c653d2262616360208201527f6b67726f756e643a23666666222076696577426f783d2230203020333030203360408201527f3030222077696474683d2236303022206865696768743d223630302220786d6c60608201527f6e733a786c696e6b3d22687474703a2f2f7777772e77332e6f72672f3139393960808201527f2f786c696e6b223e00000000000000000000000000000000000000000000000060a082015250565b6000612bbb60a883611f2f565b9150612bc682612ac7565b60a882019050919050565b7f3c672069643d22656e74697265223e0000000000000000000000000000000000815250565b7f3c75736520687265663d2223666c6f7765722220636c69702d706174683d227560008201527f726c282368616c66436c69702922207472616e73666f726d3d22726f7461746560208201527f28302c203135302c2031353029222f3e00000000000000000000000000000000604082015250565b6000612c79605083611f2f565b9150612c8482612bf7565b605082019050919050565b7f3c75736520687265663d2223666c6f7765722220636c69702d706174683d227560008201527f726c282368616c66436c69702922207472616e73666f726d3d22726f7461746560208201527f283138302c203135302c2031353029222f3e0000000000000000000000000000604082015250565b6000612d11605283611f2f565b9150612d1c82612c8f565b605282019050919050565b7f3c2f673e00000000000000000000000000000000000000000000000000000000815250565b7f3c2f7376673e0000000000000000000000000000000000000000000000000000815250565b6000612d7e82612bae565b9150612d8a8288611f3a565b9150612d968287611f3a565b9150612da28286611f3a565b9150612dad82612bd1565b600f82019150612dbd8285611f3a565b9150612dc882612c6c565b9150612dd382612d04565b9150612ddf8284611f3a565b9150612dea82612d27565b600482019150612df982612d4d565b6006820191508190509695505050505050565b7f746f55696e74385f6f766572666c6f7700000000000000000000000000000000600082015250565b6000612e42601083611b79565b9150612e4d82612e0c565b602082019050919050565b60006020820190508181036000830152612e7181612e35565b9050919050565b7f746f55696e74385f6f75744f66426f756e647300000000000000000000000000600082015250565b6000612eae601383611b79565b9150612eb982612e78565b602082019050919050565b60006020820190508181036000830152612edd81612ea1565b9050919050565b7f3c66696c7465722069643d22626c7572223e0000000000000000000000000000815250565b7f3c6665476175737369616e426c757220737464446576696174696f6e3d22312260008201527f2f3e000000000000000000000000000000000000000000000000000000000000602082015250565b6000612f66602283611f2f565b9150612f7182612f0a565b602282019050919050565b7f3c2f66696c7465723e0000000000000000000000000000000000000000000000815250565b7f3c66696c7465722069643d227368617270223e00000000000000000000000000815250565b7f3c636c6970506174682069643d22626c7572436c6970223e0000000000000000815250565b7f3c7265637420783d223134352220793d22313435222077696474683d2232313560008201527f22206865696768743d22323135222f3e00000000000000000000000000000000602082015250565b600061304a603083611f2f565b915061305582612fee565b603082019050919050565b7f3c2f636c6970506174683e000000000000000000000000000000000000000000815250565b7f3c636c6970506174682069643d227061747465726e436c6970223e0000000000815250565b7f3c7061746820643d224d2031343520313435204c200000000000000000000000815250565b7f2031343520512000000000000000000000000000000000000000000000000000815250565b7f2031343520000000000000000000000000000000000000000000000000000000815250565b7f205a222f3e3c2f636c6970506174683e00000000000000000000000000000000815250565b7f3c636c6970506174682069643d2268616c66436c6970223e0000000000000000815250565b7f3c726563742077696474683d2232363022206865696768743d2236313022207860008201527f3d222d3131302220793d222d313130222f3e0000000000000000000000000000602082015250565b60006131c6603283611f2f565b91506131d18261316a565b603282019050919050565b60006131e782612ee4565b6012820191506131f78289611f3a565b915061320282612f59565b915061320d82612f7c565b60098201915061321c82612fa2565b60138201915061322c8288611f3a565b915061323782612f7c565b60098201915061324682612fc8565b6018820191506132558261303d565b915061326082613060565b600b8201915061326f82613086565b601b8201915061327e826130ac565b60158201915061328e8287611f3a565b9150613299826130d2565b6007820191506132a98286611f3a565b91506132b48261204f565b6001820191506132c48285611f3a565b91506132cf826130f8565b6005820191506132df8284611f3a565b91506132ea8261311e565b6010820191506132f982613144565b601882019150613308826131b9565b915061331382613060565b600b82019150819050979650505050505050565b7f3c646566733e0000000000000000000000000000000000000000000000000000815250565b7f3c726563742069643d227461702220783d223135302220793d2231353022207760008201527f696474683d2232303022206865696768743d22323030222066696c7465723d2260208201527f75726c2823736861727029222f3e000000000000000000000000000000000000604082015250565b60006133cf604e83611f2f565b91506133da8261334d565b604e82019050919050565b7f3c726563742069643d22626c75727461702220783d223135302220793d22313560008201527f30222077696474683d2232303022206865696768743d22323030222066696c7460208201527f65723d2275726c2823626c757229222f3e000000000000000000000000000000604082015250565b6000613467605183611f2f565b9150613472826133e5565b605182019050919050565b7f3c706174682069643d2270746c2220643d224d20313530203135302051200000815250565b7f2031353020000000000000000000000000000000000000000000000000000000815250565b7f2031353020313530205a22207374726f6b653d22626c61636b222f3e00000000815250565b7f3c672069643d22666c6f776572223e0000000000000000000000000000000000815250565b7f3c2f673e3c2f646566733e000000000000000000000000000000000000000000815250565b600061354682613327565b600682019150613555826133c2565b91506135608261345a565b915061356b8261347d565b601e8201915061357b8289611f3a565b91506135868261204f565b6001820191506135968288611f3a565b91506135a1826134a3565b6005820191506135b18287611f3a565b91506135bc8261204f565b6001820191506135cc8286611f3a565b91506135d78261204f565b6001820191506135e78285611f3a565b91506135f2826134c9565b601c82019150613601826134ef565b600f820191506136118284611f3a565b915061361c82613515565b600b82019150819050979650505050505050565b600061363c8286611f3a565b91506136488285611f3a565b91506136548284611f3a565b9150819050949350505050565b600061366d8285611f3a565b91506136798284611f3a565b91508190509392505050565b6000613690826127f1565b915061369b836127f1565b9250828210156136ae576136ad611eaa565b5b828203905092915050565b7f3d00000000000000000000000000000000000000000000000000000000000000815250565b7f2200000000000000000000000000000000000000000000000000000000000000815250565b7f2220000000000000000000000000000000000000000000000000000000000000815250565b60006137378285611f3a565b9150613742826136b9565b600182019150613751826136df565b6001820191506137618284611f3a565b915061376c82613705565b6002820191508190509392505050565b7f3c00000000000000000000000000000000000000000000000000000000000000815250565b7f2f3e000000000000000000000000000000000000000000000000000000000000815250565b60006137d38261377c565b6001820191506137e38285611f3a565b91506137ee8261204f565b6001820191506137fe8284611f3a565b9150613809826137a2565b6002820191508190509392505050565b7f3c75736520786c696e6b3a687265663d2223626c757274617022207472616e7360008201527f666f726d3d22726f746174652800000000000000000000000000000000000000602082015250565b6000613875602d83611f2f565b915061388082613819565b602d82019050919050565b7f2c203135302c20313530292220636c69702d706174683d2275726c2823626c7560008201527f72436c697029222f3e0000000000000000000000000000000000000000000000602082015250565b60006138e7602983611f2f565b91506138f28261388b565b602982019050919050565b7f3c75736520786c696e6b3a687265663d222374617022207472616e73666f726d60008201527f3d22726f74617465280000000000000000000000000000000000000000000000602082015250565b6000613959602983611f2f565b9150613964826138fd565b602982019050919050565b7f2c203135302c20313530292220636c69702d706174683d2275726c282370617460008201527f7465726e436c697029222f3e0000000000000000000000000000000000000000602082015250565b60006139cb602c83611f2f565b91506139d68261396f565b602c82019050919050565b60006139ec82613868565b91506139f88285611f3a565b9150613a03826138da565b9150613a0e8261394c565b9150613a1a8284611f3a565b9150613a25826139be565b91508190509392505050565b7f3c75736520786c696e6b3a687265663d222370746c22207472616e73666f726d60008201527f3d22726f74617465280000000000000000000000000000000000000000000000602082015250565b6000613a8d602983611f2f565b9150613a9882613a31565b602982019050919050565b7f2c203135302c2031353029222066696c6c3d2268736c28000000000000000000815250565b7f2c313030252c3530252922207374726f6b653d22626c61636b222f3e00000000815250565b6000613afa82613a80565b9150613b068285611f3a565b9150613b1182613aa3565b601782019150613b218284611f3a565b9150613b2c82613ac9565b601c82019150819050939250505056fe4142434445464748494a4b4c4d4e4f505152535455565758595a6162636465666768696a6b6c6d6e6f707172737475767778797a303132333435363738392b2f4461697379636861696e732e204c69666520496e204576657279204272656174682e20436f6c6c65637469626c65204f6e636861696e2053564720466c6f7765727320696e73706972656420627920746865206a6f75726e6579206f662048696e61746120696e20746865204c6f6767656420556e6976657273652073746f72793a204d532d4f532e2044656c757865204461697379636861696e732063616e20726f7461746520696620796f7520636c69636b206f6e2074686569722063656e746572732e3c636972636c6520636c6173733d227374617274427574746f6e222063783d22313530222063793d223135302220723d223530222066696c6c2d6f7061636974793d223022203e3c616e696d617465206475723d22302e303173222069643d227374617274416e696d6174696f6e22206174747269627574654e616d653d2272222076616c7565733d2235303b2030222066696c6c3d22667265657a652220626567696e3d22636c69636b22202f3e3c616e696d617465206475723d22302e30317322206174747269627574654e616d653d2272222076616c7565733d22303b203530222066696c6c3d22667265657a652220626567696e3d2273746f70416e696d6174696f6e2e656e6422202f3e3c2f636972636c653e3c636972636c6520636c6173733d22627574746f6e222063783d22313530222063793d223135302220723d2230222066696c6c2d6f7061636974793d223022203e3c616e696d617465206475723d22302e30303173222069643d2273746f70416e696d6174696f6e22206174747269627574654e616d653d2272222076616c7565733d2235303b2030222066696c6c3d22667265657a652220626567696e3d22636c69636b22202f3e3c616e696d617465206475723d22302e3030317322206174747269627574654e616d653d2272222076616c7565733d22303b2035302220626567696e3d227374617274416e696d6174696f6e2e656e64222066696c6c3d22667265657a652220202f3e3c2f636972636c653e3c736574206174747269627574654e616d653d22636c6173732220746f3d22726f746174652220626567696e3d227374617274416e696d6174696f6e2e626567696e222f3e3c736574206174747269627574654e616d653d22636c6173732220746f3d226e6f74526f746174652220626567696e3d2273746f70416e696d6174696f6e2e626567696e222f3ea264697066735822122077f5efbaa0dd5fcd08c7b6294ad25efc61711dd2f505fbdde7aa200b6df1a24264736f6c634300080c0033",
  "linkReferences": {},
  "deployedLinkReferences": {}
}