{
  "_format": "hh-sol-artifact-1",
  "contractName": "CollectionDescriptor",
  "sourceName": "contracts/CollectionDescriptor.sol",
  "abi": [
    {
      "inputs": [
        {
          "internalType": "bytes",
          "name": "hash",
          "type": "bytes"
        },
        {
          "internalType": "string[3]",
          "name": "decimalStrings",
          "type": "string[3]"
        },
        {
          "internalType": "string[3]",
          "name": "decimalStrings2",
          "type": "string[3]"
        }
      ],
      "name": "generateBaseFrequency",
      "outputs": [
        {
          "internalType": "string",
          "name": "",
          "type": "string"
        }
      ],
      "stateMutability": "pure",
      "type": "function"
    },
    {
      "inputs": [
        {
          "internalType": "bytes",
          "name": "hash",
          "type": "bytes"
        },
        {
          "internalType": "bool",
          "name": "maximalist",
          "type": "bool"
        }
      ],
      "name": "generateColorMatrix",
      "outputs": [
        {
          "internalType": "string",
          "name": "",
          "type": "string"
        }
      ],
      "stateMutability": "pure",
      "type": "function"
    },
    {
      "inputs": [],
      "name": "generateDescription",
      "outputs": [
        {
          "internalType": "string",
          "name": "",
          "type": "string"
        }
      ],
      "stateMutability": "pure",
      "type": "function"
    },
    {
      "inputs": [
        {
          "internalType": "uint256",
          "name": "tokenId",
          "type": "uint256"
        },
        {
          "internalType": "bool",
          "name": "deluxe",
          "type": "bool"
        }
      ],
      "name": "generateImage",
      "outputs": [
        {
          "internalType": "string",
          "name": "",
          "type": "string"
        }
      ],
      "stateMutability": "pure",
      "type": "function"
    },
    {
      "inputs": [
        {
          "internalType": "uint256",
          "name": "nr",
          "type": "uint256"
        }
      ],
      "name": "generateName",
      "outputs": [
        {
          "internalType": "string",
          "name": "",
          "type": "string"
        }
      ],
      "stateMutability": "pure",
      "type": "function"
    },
    {
      "inputs": [
        {
          "internalType": "uint256",
          "name": "tokenId",
          "type": "uint256"
        },
        {
          "internalType": "bool",
          "name": "deluxe",
          "type": "bool"
        }
      ],
      "name": "generateTraits",
      "outputs": [
        {
          "internalType": "string",
          "name": "",
          "type": "string"
        }
      ],
      "stateMutability": "pure",
      "type": "function"
    }
  ],
  "bytecode": "0x608060405234801561001057600080fd5b50613394806100206000396000f3fe608060405234801561001057600080fd5b50600436106100625760003560e01c8063192a0a1f146100675780632581d8b31461009757806337ee03ec146100c7578063594bf5ad146100f75780635a312a3d14610127578063effaaf6a14610145575b600080fd5b610081600480360381019061007c91906115a4565b610175565b60405161008e919061166a565b60405180910390f35b6100b160048036038101906100ac91906117f9565b6101b2565b6040516100be919061166a565b60405180910390f35b6100e160048036038101906100dc9190611855565b61034f565b6040516100ee919061166a565b60405180910390f35b610111600480360381019061010c9190611a0a565b6104ff565b60405161011e919061166a565b60405180910390f35b61012f6105ac565b60405161013c919061166a565b60405180910390f35b61015f600480360381019061015a9190611855565b6105d2565b60405161016c919061166a565b60405180910390f35b606061018c610183836105e6565b6000600861076f565b60405160200161019c9190611b39565b6040516020818303038152906040529050919050565b60608060005b60148110156103445760006101cd868361086b565b905060006101e7876001856101e29190611b8a565b61088e565b9050601283141561021957836040516020016102039190611c06565b604051602081830303815290604052935061032e565b601383141561024957836040516020016102339190611c52565b604051602081830303815290604052935061032d565b60048314806102585750600983145b806102635750600e83145b156102c45760011515861515141561029c57836040516020016102869190611c06565b60405160208183030381529060405293506102bf565b836040516020016102ad9190611c52565b60405160208183030381529060405293505b61032c565b60808110156102fe57836102d7836105e6565b6040516020016102e8929190611c9e565b604051602081830303815290604052935061032b565b83610308836105e6565b604051602001610319929190611cf7565b60405160208183030381529060405293505b5b5b5b505060018161033d9190611b8a565b90506101b8565b508091505092915050565b606060008360001b6040516020016103679190611d64565b60405160208183030381529060405290506060600115158415151415610402576103fb6040518060400160405280600881526020017f416e696d617465640000000000000000000000000000000000000000000000008152506040518060400160405280600481526020017f54727565000000000000000000000000000000000000000000000000000000008152506108a5565b9050610479565b6104766040518060400160405280600881526020017f416e696d617465640000000000000000000000000000000000000000000000008152506040518060400160405280600581526020017f46616c73650000000000000000000000000000000000000000000000000000008152506108a5565b90505b6000610484836108d1565b905060006104cf6040518060400160405280600b81526020017f506574616c20436f756e740000000000000000000000000000000000000000008152506104ca846105e6565b6108a5565b905082816040516020016104e4929190611e63565b60405160208183030381529060405294505050505092915050565b6060600061051461050f86610959565b6105e6565b9050600061052186610996565b90506000610536610531886109c6565b6105e6565b9050600061054388610a03565b9050600087846003811061055a57610559611ea8565b5b60200201518588846003811061057357610572611ea8565b5b60200201518560405160200161058c9493929190611ed7565b604051602081830303815290604052905080955050505050509392505050565b606060006040518060c00160405280608981526020016132276089913990508091505090565b60606105de8383610a33565b905092915050565b6060600082141561062e576040518060400160405280600181526020017f3000000000000000000000000000000000000000000000000000000000000000815250905061076a565b600082905060005b6000821461066057808061064990611f24565b915050600a826106599190611f9c565b9150610636565b60008167ffffffffffffffff81111561067c5761067b611696565b5b6040519080825280601f01601f1916602001820160405280156106ae5781602001600182028036833780820191505090505b50905060008290505b60008614610762576001816106cc9190611fcd565b90506000600a80886106de9190611f9c565b6106e89190612001565b876106f39190611fcd565b60306106ff9190612068565b905060008160f81b90508084848151811061071d5761071c611ea8565b5b60200101907effffffffffffffffffffffffffffffffffffffffffffffffffffffffffffff1916908160001a905350600a886107599190611f9c565b975050506106b7565b819450505050505b919050565b60606000849050600084846107849190611fcd565b67ffffffffffffffff81111561079d5761079c611696565b5b6040519080825280601f01601f1916602001820160405280156107cf5781602001600182028036833780820191505090505b50905060008590505b8481101561085e578281815181106107f3576107f2611ea8565b5b602001015160f81c60f81b82878361080b9190611fcd565b8151811061081c5761081b611ea8565b5b60200101907effffffffffffffffffffffffffffffffffffffffffffffffffffffffffffff1916908160001a905350808061085690611f24565b9150506107d8565b5080925050509392505050565b600060046108798484610afa565b60ff166108869190611f9c565b905092915050565b600061089a8383610afa565b60ff16905092915050565b606082826040516020016108ba929190612111565b604051602081830303815290604052905092915050565b6000806040518060a00160405280600860ff168152602001600c60ff168152602001601460ff168152602001601860ff168152602001602460ff16815250905060006034610920856000610afa565b61092a9190612162565b60ff169050600082826005811061094457610943611ea8565b5b602002015160ff169050809350505050919050565b60006101006103e861096c846005610afa565b60ff166109799190612001565b6109839190611f9c565b600161098f9190611b8a565b9050919050565b600061010060036109a8846007610afa565b60ff166109b59190612001565b6109bf9190611f9c565b9050919050565b60006101006103e86109d9846006610afa565b60ff166109e69190612001565b6109f09190611f9c565b60016109fc9190611b8a565b9050919050565b60006101006003610a15846008610afa565b60ff16610a229190612001565b610a2c9190611f9c565b9050919050565b606060008360001b604051602001610a4b9190611d64565b60405160208183030381529060405290506000610a67826108d1565b9050600081610168610a799190611f9c565b90506000604051806020016040528060008152509050600115158615151415610ab8576040518060e0016040528060af81526020016132b060af913990505b80610ac285610bb0565b610acd868686610c2b565b604051602001610adf93929190612419565b60405160208183030381529060405294505050505092915050565b600081600183610b0a9190611b8a565b1015610b4b576040517f08c379a0000000000000000000000000000000000000000000000000000000008152600401610b42906124e4565b60405180910390fd5b600182610b589190611b8a565b83511015610b9b576040517f08c379a0000000000000000000000000000000000000000000000000000000008152600401610b9290612550565b60405180910390fd5b60008260018501015190508091505092915050565b60606000610bbf836001610d14565b90506000610bce846000610d14565b90506000610bdb856111b6565b90506000610bf4826096610bef9190611b8a565b6105e6565b9050838382838485604051602001610c119695949392919061288e565b604051602081830303815290604052945050505050919050565b60606000610c40610c3b866111b6565b6105e6565b90506000610c4d866111e5565b90506000600282610c5e9190612001565b90506000610c6d888888611214565b905060008485610c88866096610c839190611fcd565b6105e6565b610c9d866096610c989190611fcd565b6105e6565b610cb2876096610cad9190611fcd565b6105e6565b610cc7896096610cc29190611b8a565b6105e6565b610cdc896096610cd79190611fcd565b6105e6565b88604051602001610cf4989796959493929190612bed565b604051602081830303815290604052905080955050505050509392505050565b60606000610e958460405180606001604052806040518060400160405280600381526020017f302e30000000000000000000000000000000000000000000000000000000000081525081526020016040518060400160405280600481526020017f302e30300000000000000000000000000000000000000000000000000000000081525081526020016040518060400160405280600481526020017f302e30300000000000000000000000000000000000000000000000000000000081525081525060405180606001604052806040518060400160405280600381526020017f302e30000000000000000000000000000000000000000000000000000000000081525081526020016040518060400160405280600381526020017f302e30000000000000000000000000000000000000000000000000000000000081525081526020016040518060400160405280600381526020017f302e3000000000000000000000000000000000000000000000000000000000008152508152506104ff565b90506000610eaa610ea5866113e1565b6105e6565b9050610ffd6040518060400160405280600c81526020017f666554757262756c656e63650000000000000000000000000000000000000000815250610f246040518060400160405280600d81526020017f626173654672657175656e63790000000000000000000000000000000000000081525085611428565b610f636040518060400160405280600481526020017f736565640000000000000000000000000000000000000000000000000000000081525085611428565b610fd76040518060400160405280600681526020017f726573756c7400000000000000000000000000000000000000000000000000008152506040518060400160405280600481526020017f7475726200000000000000000000000000000000000000000000000000000000815250611428565b604051602001610fe993929190612d1a565b604051602081830303815290604052611454565b61118c6040518060400160405280600d81526020017f6665436f6c6f724d6174726978000000000000000000000000000000000000008152506110aa6040518060400160405280600281526020017f696e0000000000000000000000000000000000000000000000000000000000008152506040518060400160405280600481526020017f7475726200000000000000000000000000000000000000000000000000000000815250611428565b6110f26040518060400160405280600681526020017f76616c75657300000000000000000000000000000000000000000000000000008152506110ed8b8b6101b2565b611428565b6111666040518060400160405280600381526020017f6f757400000000000000000000000000000000000000000000000000000000008152506040518060400160405280600581526020017f7475726232000000000000000000000000000000000000000000000000000000815250611428565b60405160200161117893929190612d1a565b604051602081830303815290604052611454565b60405160200161119d929190612d4b565b6040516020818303038152906040529250505092915050565b600060026111c5836001610afa565b6111cf9190612162565b60b46111db9190612d6f565b60ff169050919050565b6000600d6111f4836009610afa565b6111fe9190612162565b600561120a9190612068565b60ff169050919050565b606060006040518060200160405280600081525090506000604051806020016040528060008152509050600060405180602001604052806000815250905060005b86811015611331576002600360048961126e9190611f9c565b6112789190612001565b6112829190611b8a565b81101561131d57826112aa60018361129a9190611b8a565b886112a59190612001565b611480565b6040516020016112bb929190612d4b565b6040516020818303038152906040529250816112fa89605a6001856112e09190611b8a565b8a6112eb9190612001565b6112f59190611b8a565b6114d3565b60405160200161130b929190612d4b565b60405160208183030381529060405291505b60018161132a9190611b8a565b9050611255565b508061136088605a60018a6113469190611b8a565b896113519190612001565b61135b9190611b8a565b6114d3565b61138d89605a60028b6113739190611b8a565b8a61137e9190612001565b6113889190611b8a565b6114d3565b60405160200161139f93929190612d1a565b604051602081830303815290604052905081816040516020016113c3929190612d4b565b60405160208183030381529060405292508293505050509392505050565b60006113ee826004610afa565b60ff166113fc836003610afa565b60ff1661140a846002610afa565b60ff166114179190612001565b6114219190612001565b9050919050565b6060828260405160200161143d929190612e15565b604051602081830303815290604052905092915050565b60608282604051602001611469929190612eb2565b604051602081830303815290604052905092915050565b60606114976001836114929190611b8a565b6105e6565b6114ac6001846114a79190611b8a565b6105e6565b6040516020016114bd9291906130cb565b6040516020818303038152906040529050919050565b606060006114e084611529565b90506114f76001846114f29190611b8a565b6105e6565b611500826105e6565b6040516020016115119291906131d9565b60405160208183030381529060405291505092915050565b600061010061016861153c84600a610afa565b60ff166115499190612001565b6115539190611f9c565b9050919050565b6000604051905090565b600080fd5b600080fd5b6000819050919050565b6115818161156e565b811461158c57600080fd5b50565b60008135905061159e81611578565b92915050565b6000602082840312156115ba576115b9611564565b5b60006115c88482850161158f565b91505092915050565b600081519050919050565b600082825260208201905092915050565b60005b8381101561160b5780820151818401526020810190506115f0565b8381111561161a576000848401525b50505050565b6000601f19601f8301169050919050565b600061163c826115d1565b61164681856115dc565b93506116568185602086016115ed565b61165f81611620565b840191505092915050565b600060208201905081810360008301526116848184611631565b905092915050565b600080fd5b600080fd5b7f4e487b7100000000000000000000000000000000000000000000000000000000600052604160045260246000fd5b6116ce82611620565b810181811067ffffffffffffffff821117156116ed576116ec611696565b5b80604052505050565b600061170061155a565b905061170c82826116c5565b919050565b600067ffffffffffffffff82111561172c5761172b611696565b5b61173582611620565b9050602081019050919050565b82818337600083830152505050565b600061176461175f84611711565b6116f6565b9050828152602081018484840111156117805761177f611691565b5b61178b848285611742565b509392505050565b600082601f8301126117a8576117a761168c565b5b81356117b8848260208601611751565b91505092915050565b60008115159050919050565b6117d6816117c1565b81146117e157600080fd5b50565b6000813590506117f3816117cd565b92915050565b600080604083850312156118105761180f611564565b5b600083013567ffffffffffffffff81111561182e5761182d611569565b5b61183a85828601611793565b925050602061184b858286016117e4565b9150509250929050565b6000806040838503121561186c5761186b611564565b5b600061187a8582860161158f565b925050602061188b858286016117e4565b9150509250929050565b600067ffffffffffffffff8211156118b0576118af611696565b5b602082029050919050565b600080fd5b600067ffffffffffffffff8211156118db576118da611696565b5b6118e482611620565b9050602081019050919050565b60006119046118ff846118c0565b6116f6565b9050828152602081018484840111156119205761191f611691565b5b61192b848285611742565b509392505050565b600082601f8301126119485761194761168c565b5b81356119588482602086016118f1565b91505092915050565b600061197461196f84611895565b6116f6565b9050806020840283018581111561198e5761198d6118bb565b5b835b818110156119d557803567ffffffffffffffff8111156119b3576119b261168c565b5b8086016119c08982611933565b85526020850194505050602081019050611990565b5050509392505050565b600082601f8301126119f4576119f361168c565b5b6003611a01848285611961565b91505092915050565b600080600060608486031215611a2357611a22611564565b5b600084013567ffffffffffffffff811115611a4157611a40611569565b5b611a4d86828701611793565b935050602084013567ffffffffffffffff811115611a6e57611a6d611569565b5b611a7a868287016119df565b925050604084013567ffffffffffffffff811115611a9b57611a9a611569565b5b611aa7868287016119df565b9150509250925092565b600081905092915050565b7f4461697379636861696e20230000000000000000000000000000000000000000600082015250565b6000611af2600c83611ab1565b9150611afd82611abc565b600c82019050919050565b6000611b13826115d1565b611b1d8185611ab1565b9350611b2d8185602086016115ed565b80840191505092915050565b6000611b4482611ae5565b9150611b508284611b08565b915081905092915050565b7f4e487b7100000000000000000000000000000000000000000000000000000000600052601160045260246000fd5b6000611b958261156e565b9150611ba08361156e565b9250827fffffffffffffffffffffffffffffffffffffffffffffffffffffffffffffffff03821115611bd557611bd4611b5b565b5b828201905092915050565b7f3020000000000000000000000000000000000000000000000000000000000000815250565b6000611c128284611b08565b9150611c1d82611be0565b60028201915081905092915050565b7f3120000000000000000000000000000000000000000000000000000000000000815250565b6000611c5e8284611b08565b9150611c6982611c2c565b60028201915081905092915050565b7f2000000000000000000000000000000000000000000000000000000000000000815250565b6000611caa8285611b08565b9150611cb68284611b08565b9150611cc182611c78565b6001820191508190509392505050565b7f2d00000000000000000000000000000000000000000000000000000000000000815250565b6000611d038285611b08565b9150611d0e82611cd1565b600182019150611d1e8284611b08565b9150611d2982611c78565b6001820191508190509392505050565b6000819050919050565b6000819050919050565b611d5e611d5982611d39565b611d43565b82525050565b6000611d708284611d4d565b60208201915081905092915050565b7f2261747472696275746573223a205b0000000000000000000000000000000000600082015250565b6000611db5600f83611ab1565b9150611dc082611d7f565b600f82019050919050565b7f2c00000000000000000000000000000000000000000000000000000000000000600082015250565b6000611e01600183611ab1565b9150611e0c82611dcb565b600182019050919050565b7f5d00000000000000000000000000000000000000000000000000000000000000600082015250565b6000611e4d600183611ab1565b9150611e5882611e17565b600182019050919050565b6000611e6e82611da8565b9150611e7a8285611b08565b9150611e8582611df4565b9150611e918284611b08565b9150611e9c82611e40565b91508190509392505050565b7f4e487b7100000000000000000000000000000000000000000000000000000000600052603260045260246000fd5b6000611ee38287611b08565b9150611eef8286611b08565b9150611efa82611c78565b600182019150611f0a8285611b08565b9150611f168284611b08565b915081905095945050505050565b6000611f2f8261156e565b91507fffffffffffffffffffffffffffffffffffffffffffffffffffffffffffffffff821415611f6257611f61611b5b565b5b600182019050919050565b7f4e487b7100000000000000000000000000000000000000000000000000000000600052601260045260246000fd5b6000611fa78261156e565b9150611fb28361156e565b925082611fc257611fc1611f6d565b5b828204905092915050565b6000611fd88261156e565b9150611fe38361156e565b925082821015611ff657611ff5611b5b565b5b828203905092915050565b600061200c8261156e565b91506120178361156e565b9250817fffffffffffffffffffffffffffffffffffffffffffffffffffffffffffffffff04831182151516156120505761204f611b5b565b5b828202905092915050565b600060ff82169050919050565b60006120738261205b565b915061207e8361205b565b92508260ff0382111561209457612093611b5b565b5b828201905092915050565b7f7b2274726169745f74797065223a202200000000000000000000000000000000815250565b7f222c202276616c7565223a202200000000000000000000000000000000000000815250565b7f227d000000000000000000000000000000000000000000000000000000000000815250565b600061211c8261209f565b60108201915061212c8285611b08565b9150612137826120c5565b600d820191506121478284611b08565b9150612152826120eb565b6002820191508190509392505050565b600061216d8261205b565b91506121788361205b565b92508261218857612187611f6d565b5b828204905092915050565b7f3c73766720786d6c6e733d22687474703a2f2f7777772e77332e6f72672f323060008201527f30302f737667222077696474683d2233303022206865696768743d223330302260208201527f207374796c653d226261636b67726f756e643a236666662220786d6c6e733a7860408201527f6c696e6b3d22687474703a2f2f7777772e77332e6f72672f313939392f786c6960608201527f6e6b223e00000000000000000000000000000000000000000000000000000000608082015250565b6000612261608483611ab1565b915061226c82612193565b608482019050919050565b7f3c672069643d22656e74697265223e0000000000000000000000000000000000815250565b7f3c75736520786c696e6b3a687265663d2223666c6f7765722220636c69702d7060008201527f6174683d2275726c282368616c66436c69702922207472616e73666f726d3d2260208201527f726f7461746528302c203135302c2031353029222f3e00000000000000000000604082015250565b600061231f605683611ab1565b915061232a8261229d565b605682019050919050565b7f3c75736520786c696e6b3a687265663d2223666c6f7765722220636c69702d7060008201527f6174683d2275726c282368616c66436c69702922207472616e73666f726d3d2260208201527f726f74617465283138302c203135302c2031353029222f3e0000000000000000604082015250565b60006123b7605883611ab1565b91506123c282612335565b605882019050919050565b7f3c2f673e00000000000000000000000000000000000000000000000000000000815250565b7f3c2f7376673e0000000000000000000000000000000000000000000000000000815250565b600061242482612254565b91506124308286611b08565b915061243c8285611b08565b915061244782612277565b600f820191506124578284611b08565b915061246282612312565b915061246d826123aa565b9150612478826123cd565b600482019150612487826123f3565b600682019150819050949350505050565b7f746f55696e74385f6f766572666c6f7700000000000000000000000000000000600082015250565b60006124ce6010836115dc565b91506124d982612498565b602082019050919050565b600060208201905081810360008301526124fd816124c1565b9050919050565b7f746f55696e74385f6f75744f66426f756e647300000000000000000000000000600082015250565b600061253a6013836115dc565b915061254582612504565b602082019050919050565b600060208201905081810360008301526125698161252d565b9050919050565b7f3c66696c7465722069643d22626c7572223e0000000000000000000000000000815250565b7f3c6665476175737369616e426c757220737464446576696174696f6e3d22312260008201527f2f3e000000000000000000000000000000000000000000000000000000000000602082015250565b60006125f2602283611ab1565b91506125fd82612596565b602282019050919050565b7f3c2f66696c7465723e0000000000000000000000000000000000000000000000815250565b7f3c66696c7465722069643d227368617270223e00000000000000000000000000815250565b7f3c636c6970506174682069643d22626c7572436c6970223e0000000000000000815250565b7f3c7265637420783d223135302220793d22313530222077696474683d2233303060008201527f22206865696768743d22333030222f3e00000000000000000000000000000000602082015250565b60006126d6603083611ab1565b91506126e18261267a565b603082019050919050565b7f3c2f636c6970506174683e000000000000000000000000000000000000000000815250565b7f3c636c6970506174682069643d227061747465726e436c6970223e0000000000815250565b7f3c7061746820643d224d2031353020313530204c200000000000000000000000815250565b7f2031353020512000000000000000000000000000000000000000000000000000815250565b7f2031353020000000000000000000000000000000000000000000000000000000815250565b7f205a222f3e3c2f636c6970506174683e00000000000000000000000000000000815250565b7f3c636c6970506174682069643d2268616c66436c6970223e0000000000000000815250565b7f3c72656374207472616e73666f726d3d22726f7461746528312c203135302c2060008201527f31353029222077696474683d2232363022206865696768743d2236313022207860208201527f3d222d3131302220793d222d313130222f3e0000000000000000000000000000604082015250565b6000612878605283611ab1565b9150612883826127f6565b605282019050919050565b600061289982612570565b6012820191506128a98289611b08565b91506128b4826125e5565b91506128bf82612608565b6009820191506128ce8261262e565b6013820191506128de8288611b08565b91506128e982612608565b6009820191506128f882612654565b601882019150612907826126c9565b9150612912826126ec565b600b8201915061292182612712565b601b8201915061293082612738565b6015820191506129408287611b08565b915061294b8261275e565b60078201915061295b8286611b08565b915061296682611c78565b6001820191506129768285611b08565b915061298182612784565b6005820191506129918284611b08565b915061299c826127aa565b6010820191506129ab826127d0565b6018820191506129ba8261286b565b91506129c5826126ec565b600b82019150819050979650505050505050565b7f3c646566733e0000000000000000000000000000000000000000000000000000815250565b7f3c726563742069643d227461702220783d223135302220793d2231353022207760008201527f696474683d220000000000000000000000000000000000000000000000000000602082015250565b6000612a5b602683611ab1565b9150612a66826129ff565b602682019050919050565b7f22206865696768743d2200000000000000000000000000000000000000000000815250565b7f222066696c7465723d2275726c2823736861727029222f3e0000000000000000815250565b7f3c726563742069643d22626c75727461702220783d223135302220793d22313560008201527f30222077696474683d2235303022206865696768743d22353030222066696c7460208201527f65723d2275726c2823626c757229222f3e000000000000000000000000000000604082015250565b6000612b3f605183611ab1565b9150612b4a82612abd565b605182019050919050565b7f3c706174682069643d2270746c2220643d224d20313530203135302051200000815250565b7f2031353020313530205a22207374726f6b653d22626c61636b222f3e00000000815250565b7f3c672069643d22666c6f776572223e0000000000000000000000000000000000815250565b7f3c2f673e3c2f646566733e000000000000000000000000000000000000000000815250565b6000612bf8826129d9565b600682019150612c0782612a4e565b9150612c13828b611b08565b9150612c1e82612a71565b600a82019150612c2e828a611b08565b9150612c3982612a97565b601882019150612c4882612b32565b9150612c5382612b55565b601e82019150612c638289611b08565b9150612c6e82611c78565b600182019150612c7e8288611b08565b9150612c8982612784565b600582019150612c998287611b08565b9150612ca482611c78565b600182019150612cb48286611b08565b9150612cbf82611c78565b600182019150612ccf8285611b08565b9150612cda82612b7b565b601c82019150612ce982612ba1565b600f82019150612cf98284611b08565b9150612d0482612bc7565b600b820191508190509998505050505050505050565b6000612d268286611b08565b9150612d328285611b08565b9150612d3e8284611b08565b9150819050949350505050565b6000612d578285611b08565b9150612d638284611b08565b91508190509392505050565b6000612d7a8261205b565b9150612d858361205b565b925082821015612d9857612d97611b5b565b5b828203905092915050565b7f3d00000000000000000000000000000000000000000000000000000000000000815250565b7f2200000000000000000000000000000000000000000000000000000000000000815250565b7f2220000000000000000000000000000000000000000000000000000000000000815250565b6000612e218285611b08565b9150612e2c82612da3565b600182019150612e3b82612dc9565b600182019150612e4b8284611b08565b9150612e5682612def565b6002820191508190509392505050565b7f3c00000000000000000000000000000000000000000000000000000000000000815250565b7f2f3e000000000000000000000000000000000000000000000000000000000000815250565b6000612ebd82612e66565b600182019150612ecd8285611b08565b9150612ed882611c78565b600182019150612ee88284611b08565b9150612ef382612e8c565b6002820191508190509392505050565b7f3c75736520786c696e6b3a687265663d2223626c757274617022207472616e7360008201527f666f726d3d22726f746174652800000000000000000000000000000000000000602082015250565b6000612f5f602d83611ab1565b9150612f6a82612f03565b602d82019050919050565b7f2c203135302c20313530292220636c69702d706174683d2275726c2823626c7560008201527f72436c697029222f3e0000000000000000000000000000000000000000000000602082015250565b6000612fd1602983611ab1565b9150612fdc82612f75565b602982019050919050565b7f3c75736520786c696e6b3a687265663d222374617022207472616e73666f726d60008201527f3d22726f74617465280000000000000000000000000000000000000000000000602082015250565b6000613043602983611ab1565b915061304e82612fe7565b602982019050919050565b7f2c203135302c20313530292220636c69702d706174683d2275726c282370617460008201527f7465726e436c697029222f3e0000000000000000000000000000000000000000602082015250565b60006130b5602c83611ab1565b91506130c082613059565b602c82019050919050565b60006130d682612f52565b91506130e28285611b08565b91506130ed82612fc4565b91506130f882613036565b91506131048284611b08565b915061310f826130a8565b91508190509392505050565b7f3c75736520786c696e6b3a687265663d222370746c22207472616e73666f726d60008201527f3d22726f74617465280000000000000000000000000000000000000000000000602082015250565b6000613177602983611ab1565b91506131828261311b565b602982019050919050565b7f2c203135302c2031353029222066696c6c3d2268736c28000000000000000000815250565b7f2c313030252c3530252922207374726f6b653d22626c61636b222f3e00000000815250565b60006131e48261316a565b91506131f08285611b08565b91506131fb8261318d565b60178201915061320b8284611b08565b9150613216826131b3565b601c82019150819050939250505056fe4461697379636861696e732e204c69666520496e204576657279204272656174682e20436f6c6c65637469626c65204f6e636861696e2053564720466c6f7765727320696e73706972656420627920746865206a6f75726e6579206f662048696e61746120696e20746865204c6f6767656420556e6976657273652073746f72793a204d532d4f532e3c7374796c653e23656e74697265207b7472616e73666f726d2d6f726967696e3a2031353070782031353070783b616e696d6174696f6e3a20726f7461746520383073206c696e65617220696e66696e6974653b207d406b65796672616d657320726f74617465207b66726f6d207b7472616e73666f726d3a20726f746174652830646567293b7d746f207b7472616e73666f726d3a20726f7461746528333630646567293b7d3c2f7374796c653ea26469706673582212205402269bb4b89a00da63ea9c4865b77aff5ad90f8115c053b16dd4836da724cc64736f6c634300080c0033",
  "linkReferences": {},
  "deployedLinkReferences": {}
}