{
  "_format": "hh-sol-artifact-1",
  "contractName": "CollectionDescriptor",
  "sourceName": "contracts/CollectionDescriptor.sol",
  "abi": [
    {
      "inputs": [
        {
          "internalType": "uint256",
          "name": "tokenId",
          "type": "uint256"
        },
        {
          "internalType": "bool",
          "name": "deluxe",
          "type": "bool"
        }
      ],
      "name": "generateBase64Image",
      "outputs": [
        {
          "internalType": "string",
          "name": "",
          "type": "string"
        }
      ],
      "stateMutability": "pure",
      "type": "function"
    },
    {
      "inputs": [
        {
          "internalType": "bytes",
          "name": "hash",
          "type": "bytes"
        },
        {
          "internalType": "string[3]",
          "name": "decimalStrings",
          "type": "string[3]"
        },
        {
          "internalType": "string[3]",
          "name": "decimalStrings2",
          "type": "string[3]"
        }
      ],
      "name": "generateBaseFrequency",
      "outputs": [
        {
          "internalType": "string",
          "name": "",
          "type": "string"
        }
      ],
      "stateMutability": "pure",
      "type": "function"
    },
    {
      "inputs": [
        {
          "internalType": "bytes",
          "name": "hash",
          "type": "bytes"
        },
        {
          "internalType": "bool",
          "name": "maximalist",
          "type": "bool"
        }
      ],
      "name": "generateColorMatrix",
      "outputs": [
        {
          "internalType": "string",
          "name": "",
          "type": "string"
        }
      ],
      "stateMutability": "pure",
      "type": "function"
    },
    {
      "inputs": [],
      "name": "generateDescription",
      "outputs": [
        {
          "internalType": "string",
          "name": "",
          "type": "string"
        }
      ],
      "stateMutability": "pure",
      "type": "function"
    },
    {
      "inputs": [
        {
          "internalType": "uint256",
          "name": "tokenId",
          "type": "uint256"
        },
        {
          "internalType": "bool",
          "name": "deluxe",
          "type": "bool"
        }
      ],
      "name": "generateImage",
      "outputs": [
        {
          "internalType": "string",
          "name": "",
          "type": "string"
        }
      ],
      "stateMutability": "pure",
      "type": "function"
    },
    {
      "inputs": [
        {
          "internalType": "uint256",
          "name": "nr",
          "type": "uint256"
        },
        {
          "internalType": "bool",
          "name": "deluxe",
          "type": "bool"
        }
      ],
      "name": "generateName",
      "outputs": [
        {
          "internalType": "string",
          "name": "",
          "type": "string"
        }
      ],
      "stateMutability": "pure",
      "type": "function"
    },
    {
      "inputs": [
        {
          "internalType": "uint256",
          "name": "tokenId",
          "type": "uint256"
        },
        {
          "internalType": "bool",
          "name": "deluxe",
          "type": "bool"
        }
      ],
      "name": "generateTraits",
      "outputs": [
        {
          "internalType": "string",
          "name": "",
          "type": "string"
        }
      ],
      "stateMutability": "pure",
      "type": "function"
    },
    {
      "inputs": [
        {
          "internalType": "uint256",
          "name": "tokenId",
          "type": "uint256"
        },
        {
          "internalType": "bool",
          "name": "deluxe",
          "type": "bool"
        }
      ],
      "name": "generateURI",
      "outputs": [
        {
          "internalType": "string",
          "name": "",
          "type": "string"
        }
      ],
      "stateMutability": "pure",
      "type": "function"
    }
  ],
  "bytecode": "0x608060405234801561001057600080fd5b50613f31806100206000396000f3fe608060405234801561001057600080fd5b50600436106100885760003560e01c806385e982eb1161005b57806385e982eb1461013b578063aab838ec1461016b578063d7e4ee6f1461019b578063effaaf6a146101cb57610088565b80632581d8b31461008d57806337ee03ec146100bd578063594bf5ad146100ed5780635a312a3d1461011d575b600080fd5b6100a760048036038101906100a29190611b12565b6101fb565b6040516100b49190611bf6565b60405180910390f35b6100d760048036038101906100d29190611c4e565b610398565b6040516100e49190611bf6565b60405180910390f35b61010760048036038101906101029190611e03565b610548565b6040516101149190611bf6565b60405180910390f35b6101256105f5565b6040516101329190611bf6565b60405180910390f35b61015560048036038101906101509190611c4e565b61061c565b6040516101629190611bf6565b60405180910390f35b61018560048036038101906101809190611c4e565b61063e565b6040516101929190611bf6565b60405180910390f35b6101b560048036038101906101b09190611c4e565b6106ff565b6040516101c29190611bf6565b60405180910390f35b6101e560048036038101906101e09190611c4e565b6107d7565b6040516101f29190611bf6565b60405180910390f35b60608060005b601481101561038d57600061021686836107eb565b905060006102308760018561022b9190611ed9565b61080e565b90506012831415610262578360405160200161024c9190611f91565b6040516020818303038152906040529350610377565b6013831415610292578360405160200161027c9190611fdd565b6040516020818303038152906040529350610376565b60048314806102a15750600983145b806102ac5750600e83145b1561030d576001151586151514156102e557836040516020016102cf9190612029565b6040516020818303038152906040529350610308565b836040516020016102f69190611fdd565b60405160208183030381529060405293505b610375565b6080811015610347578361032083610825565b604051602001610331929190612075565b6040516020818303038152906040529350610374565b8361035183610825565b6040516020016103629291906120ce565b60405160208183030381529060405293505b5b5b5b50506001816103869190611ed9565b9050610201565b508091505092915050565b606060008360001b6040516020016103b0919061213b565b6040516020818303038152906040529050606060011515841515141561044b576104446040518060400160405280600881526020017f416e696d617465640000000000000000000000000000000000000000000000008152506040518060400160405280600481526020017f54727565000000000000000000000000000000000000000000000000000000008152506109ae565b90506104c2565b6104bf6040518060400160405280600881526020017f416e696d617465640000000000000000000000000000000000000000000000008152506040518060400160405280600581526020017f46616c73650000000000000000000000000000000000000000000000000000008152506109ae565b90505b60006104cd836109da565b905060006105186040518060400160405280600b81526020017f506574616c20436f756e7400000000000000000000000000000000000000000081525061051384610825565b6109ae565b9050828160405160200161052d92919061223a565b60405160208183030381529060405294505050505092915050565b6060600061055d61055886610a62565b610825565b9050600061056a86610a9f565b9050600061057f61057a88610acf565b610825565b9050600061058c88610b0c565b905060008784600381106105a3576105a261227f565b5b6020020151858884600381106105bc576105bb61227f565b5b6020020151856040516020016105d594939291906122ae565b604051602081830303815290604052905080955050505050509392505050565b6060600060405180610100016040528060c68152602001613b7d60c6913990508091505090565b6060600061062a84846107d7565b905061063581610b3c565b91505092915050565b606060006040518060400160405280600781526020017f44656661756c740000000000000000000000000000000000000000000000000081525090506001151583151514156106c0576040518060400160405280600681526020017f44656c757865000000000000000000000000000000000000000000000000000081525090505b806106d66106cd86610825565b60006008610cc1565b6040516020016106e7929190612347565b60405160208183030381529060405291505092915050565b6060600061070d848461063e565b905060006107196105f5565b90506000610727868661061c565b905060006107358787610398565b9050600060405180602001604052806000815250905060011515871515141561077b578260405160200161076991906123c2565b60405160208183030381529060405290505b6107ab85858584866040516020016107979594939291906125bf565b604051602081830303815290604052610b3c565b6040516020016107bb9190612698565b6040516020818303038152906040529550505050505092915050565b60606107e38383610dbd565b905092915050565b600060046107f98484610f3a565b60ff1661080691906126e9565b905092915050565b600061081a8383610f3a565b60ff16905092915050565b6060600082141561086d576040518060400160405280600181526020017f300000000000000000000000000000000000000000000000000000000000000081525090506109a9565b600082905060005b6000821461089f5780806108889061271a565b915050600a8261089891906126e9565b9150610875565b60008167ffffffffffffffff8111156108bb576108ba6119af565b5b6040519080825280601f01601f1916602001820160405280156108ed5781602001600182028036833780820191505090505b50905060008290505b600086146109a15760018161090b9190612763565b90506000600a808861091d91906126e9565b6109279190612797565b876109329190612763565b603061093e91906127fe565b905060008160f81b90508084848151811061095c5761095b61227f565b5b60200101907effffffffffffffffffffffffffffffffffffffffffffffffffffffffffffff1916908160001a905350600a8861099891906126e9565b975050506108f6565b819450505050505b919050565b606082826040516020016109c39291906128a7565b604051602081830303815290604052905092915050565b6000806040518060a00160405280600860ff168152602001600c60ff168152602001601460ff168152602001601860ff168152602001602460ff16815250905060006034610a29856000610f3a565b610a3391906128f8565b60ff1690506000828260058110610a4d57610a4c61227f565b5b602002015160ff169050809350505050919050565b60006101006103e8610a75846005610f3a565b60ff16610a829190612797565b610a8c91906126e9565b6001610a989190611ed9565b9050919050565b60006101006003610ab1846007610f3a565b60ff16610abe9190612797565b610ac891906126e9565b9050919050565b60006101006103e8610ae2846006610f3a565b60ff16610aef9190612797565b610af991906126e9565b6001610b059190611ed9565b9050919050565b60006101006003610b1e846008610f3a565b60ff16610b2b9190612797565b610b3591906126e9565b9050919050565b6060600082511415610b5f57604051806020016040528060008152509050610cbc565b6000604051806060016040528060408152602001613b3d6040913990506000600360028551610b8e9190611ed9565b610b9891906126e9565b6004610ba49190612797565b90506000602082610bb59190611ed9565b67ffffffffffffffff811115610bce57610bcd6119af565b5b6040519080825280601f01601f191660200182016040528015610c005781602001600182028036833780820191505090505b509050818152600183018586518101602084015b81831015610c7b576003830192508251603f8160121c1685015160f81b8252600182019150603f81600c1c1685015160f81b8252600182019150603f8160061c1685015160f81b8252600182019150603f811685015160f81b825260018201915050610c14565b600389510660018114610c955760028114610ca557610cb0565b613d3d60f01b6002830352610cb0565b603d60f81b60018303525b50505050508093505050505b919050565b6060600084905060008484610cd69190612763565b67ffffffffffffffff811115610cef57610cee6119af565b5b6040519080825280601f01601f191660200182016040528015610d215781602001600182028036833780820191505090505b50905060008590505b84811015610db057828181518110610d4557610d4461227f565b5b602001015160f81c60f81b828783610d5d9190612763565b81518110610d6e57610d6d61227f565b5b60200101907effffffffffffffffffffffffffffffffffffffffffffffffffffffffffffff1916908160001a9053508080610da89061271a565b915050610d2a565b5080925050509392505050565b606060008360001b604051602001610dd5919061213b565b60405160208183030381529060405290506000610df1826109da565b9050600081610168610e0391906126e9565b905060006040518060400160405280600781526020017f3c7374796c653e00000000000000000000000000000000000000000000000000815250905060006040518060200160405280600081525090506000604051806020016040528060008152509050600115158815151415610ed05760405180610260016040528061022d8152602001613c4361022d913991506040518060c00160405280608c8152602001613e70608c9139905082604051602001610ebe9190612a59565b60405160208183030381529060405292505b82604051602001610ee19190612aa1565b604051602081830303815290604052925082610efc87610ff0565b610f0788888861106b565b8385604051602001610f1d959493929190612d73565b604051602081830303815290604052965050505050505092915050565b600081600183610f4a9190611ed9565b1015610f8b576040517f08c379a0000000000000000000000000000000000000000000000000000000008152600401610f8290612e58565b60405180910390fd5b600182610f989190611ed9565b83511015610fdb576040517f08c379a0000000000000000000000000000000000000000000000000000000008152600401610fd290612ec4565b60405180910390fd5b60008260018501015190508091505092915050565b60606000610fff83600161113a565b9050600061100e84600061113a565b9050600061101b856115dc565b9050600061103482609661102f9190611ed9565b610825565b9050838382838485604051602001611051969594939291906131dc565b604051602081830303815290604052945050505050919050565b606060006110788561160b565b905060006002826110899190612797565b9050600061109887878761163a565b905060006110b18460966110ac9190612763565b610825565b6110c68460966110c19190612763565b610825565b6110db8560966110d69190612763565b610825565b6110f08760966110eb9190611ed9565b610825565b6111058760966111009190612763565b610825565b8660405160200161111b9695949392919061353b565b6040516020818303038152906040529050809450505050509392505050565b606060006112bb8460405180606001604052806040518060400160405280600381526020017f302e30000000000000000000000000000000000000000000000000000000000081525081526020016040518060400160405280600481526020017f302e30300000000000000000000000000000000000000000000000000000000081525081526020016040518060400160405280600481526020017f302e30300000000000000000000000000000000000000000000000000000000081525081525060405180606001604052806040518060400160405280600381526020017f302e30000000000000000000000000000000000000000000000000000000000081525081526020016040518060400160405280600381526020017f302e30000000000000000000000000000000000000000000000000000000000081525081526020016040518060400160405280600481526020017f302e303000000000000000000000000000000000000000000000000000000000815250815250610548565b905060006112d06112cb86611807565b610825565b90506114236040518060400160405280600c81526020017f666554757262756c656e6365000000000000000000000000000000000000000081525061134a6040518060400160405280600d81526020017f626173654672657175656e6379000000000000000000000000000000000000008152508561184e565b6113896040518060400160405280600481526020017f73656564000000000000000000000000000000000000000000000000000000008152508561184e565b6113fd6040518060400160405280600681526020017f726573756c7400000000000000000000000000000000000000000000000000008152506040518060400160405280600481526020017f747572620000000000000000000000000000000000000000000000000000000081525061184e565b60405160200161140f93929190613630565b60405160208183030381529060405261187a565b6115b26040518060400160405280600d81526020017f6665436f6c6f724d6174726978000000000000000000000000000000000000008152506114d06040518060400160405280600281526020017f696e0000000000000000000000000000000000000000000000000000000000008152506040518060400160405280600481526020017f747572620000000000000000000000000000000000000000000000000000000081525061184e565b6115186040518060400160405280600681526020017f76616c75657300000000000000000000000000000000000000000000000000008152506115138b8b6101fb565b61184e565b61158c6040518060400160405280600381526020017f6f757400000000000000000000000000000000000000000000000000000000008152506040518060400160405280600581526020017f747572623200000000000000000000000000000000000000000000000000000081525061184e565b60405160200161159e93929190613630565b60405160208183030381529060405261187a565b6040516020016115c3929190613661565b6040516020818303038152906040529250505092915050565b600060026115eb836001610f3a565b6115f591906128f8565b60b46116019190613685565b60ff169050919050565b6000600d61161a836009610f3a565b61162491906128f8565b600561163091906127fe565b60ff169050919050565b606060006040518060200160405280600081525090506000604051806020016040528060008152509050600060405180602001604052806000815250905060005b86811015611757576002600360048961169491906126e9565b61169e9190612797565b6116a89190611ed9565b81101561174357826116d0600183896116c19190612797565b6116cb9190611ed9565b6118a6565b6040516020016116e1929190613661565b60405160208183030381529060405292508161172089605a6001856117069190611ed9565b8a6117119190612797565b61171b9190611ed9565b6118f9565b604051602001611731929190613661565b60405160208183030381529060405291505b6001816117509190611ed9565b905061167b565b508061178688605a60018a61176c9190611ed9565b896117779190612797565b6117819190611ed9565b6118f9565b6117b389605a60028b6117999190611ed9565b8a6117a49190612797565b6117ae9190611ed9565b6118f9565b6040516020016117c593929190613630565b604051602081830303815290604052905081816040516020016117e9929190613661565b60405160208183030381529060405292508293505050509392505050565b6000611814826004610f3a565b60ff16611822836003610f3a565b60ff16611830846002610f3a565b60ff1661183d9190612797565b6118479190612797565b9050919050565b6060828260405160200161186392919061372b565b604051602081830303815290604052905092915050565b6060828260405160200161188f9291906137c8565b604051602081830303815290604052905092915050565b60606118bd6001836118b89190611ed9565b610825565b6118d26001846118cd9190611ed9565b610825565b6040516020016118e39291906139e1565b6040516020818303038152906040529050919050565b606060006119068461194f565b905061191d6001846119189190611ed9565b610825565b61192682610825565b604051602001611937929190613aef565b60405160208183030381529060405291505092915050565b600061010061016861196284600a610f3a565b60ff1661196f9190612797565b61197991906126e9565b9050919050565b6000604051905090565b600080fd5b600080fd5b600080fd5b600080fd5b6000601f19601f8301169050919050565b7f4e487b7100000000000000000000000000000000000000000000000000000000600052604160045260246000fd5b6119e78261199e565b810181811067ffffffffffffffff82111715611a0657611a056119af565b5b80604052505050565b6000611a19611980565b9050611a2582826119de565b919050565b600067ffffffffffffffff821115611a4557611a446119af565b5b611a4e8261199e565b9050602081019050919050565b82818337600083830152505050565b6000611a7d611a7884611a2a565b611a0f565b905082815260208101848484011115611a9957611a98611999565b5b611aa4848285611a5b565b509392505050565b600082601f830112611ac157611ac0611994565b5b8135611ad1848260208601611a6a565b91505092915050565b60008115159050919050565b611aef81611ada565b8114611afa57600080fd5b50565b600081359050611b0c81611ae6565b92915050565b60008060408385031215611b2957611b2861198a565b5b600083013567ffffffffffffffff811115611b4757611b4661198f565b5b611b5385828601611aac565b9250506020611b6485828601611afd565b9150509250929050565b600081519050919050565b600082825260208201905092915050565b60005b83811015611ba8578082015181840152602081019050611b8d565b83811115611bb7576000848401525b50505050565b6000611bc882611b6e565b611bd28185611b79565b9350611be2818560208601611b8a565b611beb8161199e565b840191505092915050565b60006020820190508181036000830152611c108184611bbd565b905092915050565b6000819050919050565b611c2b81611c18565b8114611c3657600080fd5b50565b600081359050611c4881611c22565b92915050565b60008060408385031215611c6557611c6461198a565b5b6000611c7385828601611c39565b9250506020611c8485828601611afd565b9150509250929050565b600067ffffffffffffffff821115611ca957611ca86119af565b5b602082029050919050565b600080fd5b600067ffffffffffffffff821115611cd457611cd36119af565b5b611cdd8261199e565b9050602081019050919050565b6000611cfd611cf884611cb9565b611a0f565b905082815260208101848484011115611d1957611d18611999565b5b611d24848285611a5b565b509392505050565b600082601f830112611d4157611d40611994565b5b8135611d51848260208601611cea565b91505092915050565b6000611d6d611d6884611c8e565b611a0f565b90508060208402830185811115611d8757611d86611cb4565b5b835b81811015611dce57803567ffffffffffffffff811115611dac57611dab611994565b5b808601611db98982611d2c565b85526020850194505050602081019050611d89565b5050509392505050565b600082601f830112611ded57611dec611994565b5b6003611dfa848285611d5a565b91505092915050565b600080600060608486031215611e1c57611e1b61198a565b5b600084013567ffffffffffffffff811115611e3a57611e3961198f565b5b611e4686828701611aac565b935050602084013567ffffffffffffffff811115611e6757611e6661198f565b5b611e7386828701611dd8565b925050604084013567ffffffffffffffff811115611e9457611e9361198f565b5b611ea086828701611dd8565b9150509250925092565b7f4e487b7100000000000000000000000000000000000000000000000000000000600052601160045260246000fd5b6000611ee482611c18565b9150611eef83611c18565b9250827fffffffffffffffffffffffffffffffffffffffffffffffffffffffffffffffff03821115611f2457611f23611eaa565b5b828201905092915050565b600081905092915050565b6000611f4582611b6e565b611f4f8185611f2f565b9350611f5f818560208601611b8a565b80840191505092915050565b7f2d35302000000000000000000000000000000000000000000000000000000000815250565b6000611f9d8284611f3a565b9150611fa882611f6b565b60048201915081905092915050565b7f3120000000000000000000000000000000000000000000000000000000000000815250565b6000611fe98284611f3a565b9150611ff482611fb7565b60028201915081905092915050565b7f3020000000000000000000000000000000000000000000000000000000000000815250565b60006120358284611f3a565b915061204082612003565b60028201915081905092915050565b7f2000000000000000000000000000000000000000000000000000000000000000815250565b60006120818285611f3a565b915061208d8284611f3a565b91506120988261204f565b6001820191508190509392505050565b7f2d00000000000000000000000000000000000000000000000000000000000000815250565b60006120da8285611f3a565b91506120e5826120a8565b6001820191506120f58284611f3a565b91506121008261204f565b6001820191508190509392505050565b6000819050919050565b6000819050919050565b61213561213082612110565b61211a565b82525050565b60006121478284612124565b60208201915081905092915050565b7f2261747472696275746573223a205b0000000000000000000000000000000000600082015250565b600061218c600f83611f2f565b915061219782612156565b600f82019050919050565b7f2c00000000000000000000000000000000000000000000000000000000000000600082015250565b60006121d8600183611f2f565b91506121e3826121a2565b600182019050919050565b7f5d00000000000000000000000000000000000000000000000000000000000000600082015250565b6000612224600183611f2f565b915061222f826121ee565b600182019050919050565b60006122458261217f565b91506122518285611f3a565b915061225c826121cb565b91506122688284611f3a565b915061227382612217565b91508190509392505050565b7f4e487b7100000000000000000000000000000000000000000000000000000000600052603260045260246000fd5b60006122ba8287611f3a565b91506122c68286611f3a565b91506122d18261204f565b6001820191506122e18285611f3a565b91506122ed8284611f3a565b915081905095945050505050565b7f204461697379636861696e202300000000000000000000000000000000000000600082015250565b6000612331600d83611f2f565b915061233c826122fb565b600d82019050919050565b60006123538285611f3a565b915061235e82612324565b915061236a8284611f3a565b91508190509392505050565b7f222c2022616e696d6174696f6e5f75726c223a20220000000000000000000000815250565b7f646174613a696d6167652f7376672b786d6c3b6261736536342c000000000000815250565b60006123cd82612376565b6015820191506123dc8261239c565b601a820191506123ec8284611f3a565b915081905092915050565b7f7b226e616d65223a220000000000000000000000000000000000000000000000600082015250565b600061242d600983611f2f565b9150612438826123f7565b600982019050919050565b7f222c20226465736372697074696f6e223a220000000000000000000000000000600082015250565b6000612479601283611f2f565b915061248482612443565b601282019050919050565b7f222c2022696d616765223a202200000000000000000000000000000000000000600082015250565b60006124c5600d83611f2f565b91506124d08261248f565b600d82019050919050565b7f646174613a696d6167652f7376672b786d6c3b6261736536342c000000000000600082015250565b6000612511601a83611f2f565b915061251c826124db565b601a82019050919050565b7f222c200000000000000000000000000000000000000000000000000000000000600082015250565b600061255d600383611f2f565b915061256882612527565b600382019050919050565b7f7d00000000000000000000000000000000000000000000000000000000000000600082015250565b60006125a9600183611f2f565b91506125b482612573565b600182019050919050565b60006125ca82612420565b91506125d68288611f3a565b91506125e18261246c565b91506125ed8287611f3a565b91506125f8826124b8565b915061260382612504565b915061260f8286611f3a565b915061261b8285611f3a565b915061262682612550565b91506126328284611f3a565b915061263d8261259c565b91508190509695505050505050565b7f646174613a6170706c69636174696f6e2f6a736f6e3b6261736536342c000000600082015250565b6000612682601d83611f2f565b915061268d8261264c565b601d82019050919050565b60006126a382612675565b91506126af8284611f3a565b915081905092915050565b7f4e487b7100000000000000000000000000000000000000000000000000000000600052601260045260246000fd5b60006126f482611c18565b91506126ff83611c18565b92508261270f5761270e6126ba565b5b828204905092915050565b600061272582611c18565b91507fffffffffffffffffffffffffffffffffffffffffffffffffffffffffffffffff82141561275857612757611eaa565b5b600182019050919050565b600061276e82611c18565b915061277983611c18565b92508282101561278c5761278b611eaa565b5b828203905092915050565b60006127a282611c18565b91506127ad83611c18565b9250817fffffffffffffffffffffffffffffffffffffffffffffffffffffffffffffffff04831182151516156127e6576127e5611eaa565b5b828202905092915050565b600060ff82169050919050565b6000612809826127f1565b9150612814836127f1565b92508260ff0382111561282a57612829611eaa565b5b828201905092915050565b7f7b2274726169745f74797065223a202200000000000000000000000000000000815250565b7f222c202276616c7565223a202200000000000000000000000000000000000000815250565b7f227d000000000000000000000000000000000000000000000000000000000000815250565b60006128b282612835565b6010820191506128c28285611f3a565b91506128cd8261285b565b600d820191506128dd8284611f3a565b91506128e882612881565b6002820191508190509392505050565b6000612903826127f1565b915061290e836127f1565b92508261291e5761291d6126ba565b5b828204905092915050565b7f2e7374617274427574746f6e207b20637572736f723a20706f696e7465723b2060008201527f7d202e726f74617465207b7472616e73666f726d2d6f726967696e3a2031353060208201527f70782031353070783b616e696d6174696f6e3a20726f7461746520313030732060408201527f6c696e65617220696e66696e6974653b207d406b65796672616d657320726f7460608201527f617465207b66726f6d207b7472616e73666f726d3a20726f746174652830646560808201527f67293b7d746f207b7472616e73666f726d3a20726f746174652833363064656760a08201527f293b7d7d0000000000000000000000000000000000000000000000000000000060c082015250565b6000612a4360c483611f2f565b9150612a4e82612929565b60c482019050919050565b6000612a658284611f3a565b9150612a7082612a36565b915081905092915050565b7f3c2f7374796c653e000000000000000000000000000000000000000000000000815250565b6000612aad8284611f3a565b9150612ab882612a7b565b60088201915081905092915050565b7f3c73766720786d6c6e733d22687474703a2f2f7777772e77332e6f72672f323060008201527f30302f737667222076657273696f6e3d22322e3022207374796c653d2262616360208201527f6b67726f756e643a23666666222076696577426f783d2230203020333030203360408201527f3030222077696474683d2236303022206865696768743d223630302220786d6c60608201527f6e733a786c696e6b3d22687474703a2f2f7777772e77332e6f72672f3139393960808201527f2f786c696e6b223e00000000000000000000000000000000000000000000000060a082015250565b6000612bbb60a883611f2f565b9150612bc682612ac7565b60a882019050919050565b7f3c672069643d22656e74697265223e0000000000000000000000000000000000815250565b7f3c75736520687265663d2223666c6f7765722220636c69702d706174683d227560008201527f726c282368616c66436c69702922207472616e73666f726d3d22726f7461746560208201527f28302c203135302c2031353029222f3e00000000000000000000000000000000604082015250565b6000612c79605083611f2f565b9150612c8482612bf7565b605082019050919050565b7f3c75736520687265663d2223666c6f7765722220636c69702d706174683d227560008201527f726c282368616c66436c69702922207472616e73666f726d3d22726f7461746560208201527f283138302c203135302c2031353029222f3e0000000000000000000000000000604082015250565b6000612d11605283611f2f565b9150612d1c82612c8f565b605282019050919050565b7f3c2f673e00000000000000000000000000000000000000000000000000000000815250565b7f3c2f7376673e0000000000000000000000000000000000000000000000000000815250565b6000612d7e82612bae565b9150612d8a8288611f3a565b9150612d968287611f3a565b9150612da28286611f3a565b9150612dad82612bd1565b600f82019150612dbd8285611f3a565b9150612dc882612c6c565b9150612dd382612d04565b9150612ddf8284611f3a565b9150612dea82612d27565b600482019150612df982612d4d565b6006820191508190509695505050505050565b7f746f55696e74385f6f766572666c6f7700000000000000000000000000000000600082015250565b6000612e42601083611b79565b9150612e4d82612e0c565b602082019050919050565b60006020820190508181036000830152612e7181612e35565b9050919050565b7f746f55696e74385f6f75744f66426f756e647300000000000000000000000000600082015250565b6000612eae601383611b79565b9150612eb982612e78565b602082019050919050565b60006020820190508181036000830152612edd81612ea1565b9050919050565b7f3c66696c7465722069643d22626c7572223e0000000000000000000000000000815250565b7f3c6665476175737369616e426c757220737464446576696174696f6e3d22312260008201527f2f3e000000000000000000000000000000000000000000000000000000000000602082015250565b6000612f66602283611f2f565b9150612f7182612f0a565b602282019050919050565b7f3c2f66696c7465723e0000000000000000000000000000000000000000000000815250565b7f3c66696c7465722069643d227368617270223e00000000000000000000000000815250565b7f3c636c6970506174682069643d22626c7572436c6970223e0000000000000000815250565b7f3c7265637420783d223134352220793d22313435222077696474683d2232313560008201527f22206865696768743d22323135222f3e00000000000000000000000000000000602082015250565b600061304a603083611f2f565b915061305582612fee565b603082019050919050565b7f3c2f636c6970506174683e000000000000000000000000000000000000000000815250565b7f3c636c6970506174682069643d227061747465726e436c6970223e0000000000815250565b7f3c7061746820643d224d2031343520313435204c200000000000000000000000815250565b7f2031343520512000000000000000000000000000000000000000000000000000815250565b7f2031343520000000000000000000000000000000000000000000000000000000815250565b7f205a222f3e3c2f636c6970506174683e00000000000000000000000000000000815250565b7f3c636c6970506174682069643d2268616c66436c6970223e0000000000000000815250565b7f3c726563742077696474683d2232363022206865696768743d2236313022207860008201527f3d222d3131302220793d222d313130222f3e0000000000000000000000000000602082015250565b60006131c6603283611f2f565b91506131d18261316a565b603282019050919050565b60006131e782612ee4565b6012820191506131f78289611f3a565b915061320282612f59565b915061320d82612f7c565b60098201915061321c82612fa2565b60138201915061322c8288611f3a565b915061323782612f7c565b60098201915061324682612fc8565b6018820191506132558261303d565b915061326082613060565b600b8201915061326f82613086565b601b8201915061327e826130ac565b60158201915061328e8287611f3a565b9150613299826130d2565b6007820191506132a98286611f3a565b91506132b48261204f565b6001820191506132c48285611f3a565b91506132cf826130f8565b6005820191506132df8284611f3a565b91506132ea8261311e565b6010820191506132f982613144565b601882019150613308826131b9565b915061331382613060565b600b82019150819050979650505050505050565b7f3c646566733e0000000000000000000000000000000000000000000000000000815250565b7f3c726563742069643d227461702220783d223135302220793d2231353022207760008201527f696474683d2232303022206865696768743d22323030222066696c7465723d2260208201527f75726c2823736861727029222f3e000000000000000000000000000000000000604082015250565b60006133cf604e83611f2f565b91506133da8261334d565b604e82019050919050565b7f3c726563742069643d22626c75727461702220783d223135302220793d22313560008201527f30222077696474683d2232303022206865696768743d22323030222066696c7460208201527f65723d2275726c2823626c757229222f3e000000000000000000000000000000604082015250565b6000613467605183611f2f565b9150613472826133e5565b605182019050919050565b7f3c706174682069643d2270746c2220643d224d20313530203135302051200000815250565b7f2031353020000000000000000000000000000000000000000000000000000000815250565b7f2031353020313530205a22207374726f6b653d22626c61636b222f3e00000000815250565b7f3c672069643d22666c6f776572223e0000000000000000000000000000000000815250565b7f3c2f673e3c2f646566733e000000000000000000000000000000000000000000815250565b600061354682613327565b600682019150613555826133c2565b91506135608261345a565b915061356b8261347d565b601e8201915061357b8289611f3a565b91506135868261204f565b6001820191506135968288611f3a565b91506135a1826134a3565b6005820191506135b18287611f3a565b91506135bc8261204f565b6001820191506135cc8286611f3a565b91506135d78261204f565b6001820191506135e78285611f3a565b91506135f2826134c9565b601c82019150613601826134ef565b600f820191506136118284611f3a565b915061361c82613515565b600b82019150819050979650505050505050565b600061363c8286611f3a565b91506136488285611f3a565b91506136548284611f3a565b9150819050949350505050565b600061366d8285611f3a565b91506136798284611f3a565b91508190509392505050565b6000613690826127f1565b915061369b836127f1565b9250828210156136ae576136ad611eaa565b5b828203905092915050565b7f3d00000000000000000000000000000000000000000000000000000000000000815250565b7f2200000000000000000000000000000000000000000000000000000000000000815250565b7f2220000000000000000000000000000000000000000000000000000000000000815250565b60006137378285611f3a565b9150613742826136b9565b600182019150613751826136df565b6001820191506137618284611f3a565b915061376c82613705565b6002820191508190509392505050565b7f3c00000000000000000000000000000000000000000000000000000000000000815250565b7f2f3e000000000000000000000000000000000000000000000000000000000000815250565b60006137d38261377c565b6001820191506137e38285611f3a565b91506137ee8261204f565b6001820191506137fe8284611f3a565b9150613809826137a2565b6002820191508190509392505050565b7f3c75736520786c696e6b3a687265663d2223626c757274617022207472616e7360008201527f666f726d3d22726f746174652800000000000000000000000000000000000000602082015250565b6000613875602d83611f2f565b915061388082613819565b602d82019050919050565b7f2c203135302c20313530292220636c69702d706174683d2275726c2823626c7560008201527f72436c697029222f3e0000000000000000000000000000000000000000000000602082015250565b60006138e7602983611f2f565b91506138f28261388b565b602982019050919050565b7f3c75736520786c696e6b3a687265663d222374617022207472616e73666f726d60008201527f3d22726f74617465280000000000000000000000000000000000000000000000602082015250565b6000613959602983611f2f565b9150613964826138fd565b602982019050919050565b7f2c203135302c20313530292220636c69702d706174683d2275726c282370617460008201527f7465726e436c697029222f3e0000000000000000000000000000000000000000602082015250565b60006139cb602c83611f2f565b91506139d68261396f565b602c82019050919050565b60006139ec82613868565b91506139f88285611f3a565b9150613a03826138da565b9150613a0e8261394c565b9150613a1a8284611f3a565b9150613a25826139be565b91508190509392505050565b7f3c75736520786c696e6b3a687265663d222370746c22207472616e73666f726d60008201527f3d22726f74617465280000000000000000000000000000000000000000000000602082015250565b6000613a8d602983611f2f565b9150613a9882613a31565b602982019050919050565b7f2c203135302c2031353029222066696c6c3d2268736c28000000000000000000815250565b7f2c313030252c3530252922207374726f6b653d22626c61636b222f3e00000000815250565b6000613afa82613a80565b9150613b068285611f3a565b9150613b1182613aa3565b601782019150613b218284611f3a565b9150613b2c82613ac9565b601c82019150819050939250505056fe4142434445464748494a4b4c4d4e4f505152535455565758595a6162636465666768696a6b6c6d6e6f707172737475767778797a303132333435363738392b2f4461697379636861696e732e204c69666520496e204576657279204272656174682e20436f6c6c65637469626c65204f6e636861696e2053564720466c6f7765727320696e73706972656420627920746865206a6f75726e6579206f662048696e61746120696e20746865204c6f6767656420556e6976657273652073746f72793a204d532d4f532e2044656c757865204461697379636861696e732063616e20726f7461746520696620796f7520636c69636b206f6e2074686569722063656e746572732e3c636972636c6520636c6173733d227374617274427574746f6e222063783d22313530222063793d223135302220723d223530222066696c6c2d6f7061636974793d223022203e3c616e696d617465206475723d22302e303173222069643d227374617274416e696d6174696f6e22206174747269627574654e616d653d2272222076616c7565733d2235303b2030222066696c6c3d22667265657a652220626567696e3d22636c69636b22202f3e3c616e696d617465206475723d22302e30317322206174747269627574654e616d653d2272222076616c7565733d22303b203530222066696c6c3d22667265657a652220626567696e3d2273746f70416e696d6174696f6e2e656e6422202f3e3c2f636972636c653e3c636972636c6520636c6173733d22627574746f6e222063783d22313530222063793d223135302220723d2230222066696c6c2d6f7061636974793d223022203e3c616e696d617465206475723d22302e30303173222069643d2273746f70416e696d6174696f6e22206174747269627574654e616d653d2272222076616c7565733d2235303b2030222066696c6c3d22667265657a652220626567696e3d22636c69636b22202f3e3c616e696d617465206475723d22302e3030317322206174747269627574654e616d653d2272222076616c7565733d22303b2035302220626567696e3d227374617274416e696d6174696f6e2e656e64222066696c6c3d22667265657a652220202f3e3c2f636972636c653e3c736574206174747269627574654e616d653d22636c6173732220746f3d22726f746174652220626567696e3d227374617274416e696d6174696f6e2e626567696e222f3e3c736574206174747269627574654e616d653d22636c6173732220746f3d226e6f74526f746174652220626567696e3d2273746f70416e696d6174696f6e2e626567696e222f3ea264697066735822122023927cd6822ead748f42079ae6ce3e0c39766ef4027ea4102854c113bdffa56464736f6c634300080c0033",
  "linkReferences": {},
  "deployedLinkReferences": {}
}