{
  "_format": "hh-sol-artifact-1",
  "contractName": "TestDescriptorChange",
  "sourceName": "contracts/TestDescriptorChange.sol",
  "abi": [
    {
      "inputs": [],
      "name": "example",
      "outputs": [
        {
          "internalType": "string",
          "name": "",
          "type": "string"
        }
      ],
      "stateMutability": "view",
      "type": "function"
    },
    {
      "inputs": [
        {
          "internalType": "bytes",
          "name": "hash",
          "type": "bytes"
        },
        {
          "internalType": "string[3]",
          "name": "decimalStrings",
          "type": "string[3]"
        },
        {
          "internalType": "string[3]",
          "name": "decimalStrings2",
          "type": "string[3]"
        }
      ],
      "name": "generateBaseFrequency",
      "outputs": [
        {
          "internalType": "string",
          "name": "",
          "type": "string"
        }
      ],
      "stateMutability": "pure",
      "type": "function"
    },
    {
      "inputs": [
        {
          "internalType": "bytes",
          "name": "hash",
          "type": "bytes"
        },
        {
          "internalType": "bool",
          "name": "maximalist",
          "type": "bool"
        }
      ],
      "name": "generateColorMatrix",
      "outputs": [
        {
          "internalType": "string",
          "name": "",
          "type": "string"
        }
      ],
      "stateMutability": "pure",
      "type": "function"
    },
    {
      "inputs": [],
      "name": "generateDescription",
      "outputs": [
        {
          "internalType": "string",
          "name": "",
          "type": "string"
        }
      ],
      "stateMutability": "pure",
      "type": "function"
    },
    {
      "inputs": [
        {
          "internalType": "uint256",
          "name": "tokenId",
          "type": "uint256"
        },
        {
          "internalType": "bool",
          "name": "deluxe",
          "type": "bool"
        }
      ],
      "name": "generateImage",
      "outputs": [
        {
          "internalType": "string",
          "name": "",
          "type": "string"
        }
      ],
      "stateMutability": "view",
      "type": "function"
    },
    {
      "inputs": [
        {
          "internalType": "uint256",
          "name": "nr",
          "type": "uint256"
        }
      ],
      "name": "generateName",
      "outputs": [
        {
          "internalType": "string",
          "name": "",
          "type": "string"
        }
      ],
      "stateMutability": "pure",
      "type": "function"
    },
    {
      "inputs": [
        {
          "internalType": "uint256",
          "name": "tokenId",
          "type": "uint256"
        },
        {
          "internalType": "bool",
          "name": "deluxe",
          "type": "bool"
        }
      ],
      "name": "generateTraits",
      "outputs": [
        {
          "internalType": "string",
          "name": "",
          "type": "string"
        }
      ],
      "stateMutability": "pure",
      "type": "function"
    }
  ],
  "bytecode": "0x608060405234801561001057600080fd5b506133de806100206000396000f3fe608060405234801561001057600080fd5b506004361061007d5760003560e01c806354353f2f1161005b57806354353f2f14610112578063594bf5ad146101305780635a312a3d14610160578063effaaf6a1461017e5761007d565b8063192a0a1f146100825780632581d8b3146100b257806337ee03ec146100e2575b600080fd5b61009c6004803603810190610097919061163b565b6101ae565b6040516100a99190611701565b60405180910390f35b6100cc60048036038101906100c79190611890565b6101eb565b6040516100d99190611701565b60405180910390f35b6100fc60048036038101906100f791906118ec565b610388565b6040516101099190611701565b60405180910390f35b61011a610538565b6040516101279190611701565b60405180910390f35b61014a60048036038101906101459190611aa1565b610579565b6040516101579190611701565b60405180910390f35b610168610626565b6040516101759190611701565b60405180910390f35b610198600480360381019061019391906118ec565b610669565b6040516101a59190611701565b60405180910390f35b60606101c56101bc8361067d565b60006008610806565b6040516020016101d59190611bd0565b6040516020818303038152906040529050919050565b60608060005b601481101561037d5760006102068683610902565b905060006102208760018561021b9190611c21565b610925565b90506012831415610252578360405160200161023c9190611c9d565b6040516020818303038152906040529350610367565b6013831415610282578360405160200161026c9190611ce9565b6040516020818303038152906040529350610366565b60048314806102915750600983145b8061029c5750600e83145b156102fd576001151586151514156102d557836040516020016102bf9190611c9d565b60405160208183030381529060405293506102f8565b836040516020016102e69190611ce9565b60405160208183030381529060405293505b610365565b608081101561033757836103108361067d565b604051602001610321929190611d35565b6040516020818303038152906040529350610364565b836103418361067d565b604051602001610352929190611d8e565b60405160208183030381529060405293505b5b5b5b50506001816103769190611c21565b90506101f1565b508091505092915050565b606060008360001b6040516020016103a09190611dfb565b6040516020818303038152906040529050606060011515841515141561043b576104346040518060400160405280600881526020017f416e696d617465640000000000000000000000000000000000000000000000008152506040518060400160405280600481526020017f547275650000000000000000000000000000000000000000000000000000000081525061093c565b90506104b2565b6104af6040518060400160405280600881526020017f416e696d617465640000000000000000000000000000000000000000000000008152506040518060400160405280600581526020017f46616c736500000000000000000000000000000000000000000000000000000081525061093c565b90505b60006104bd83610968565b905060006105086040518060400160405280600b81526020017f506574616c20436f756e740000000000000000000000000000000000000000008152506105038461067d565b61093c565b9050828160405160200161051d929190611efa565b60405160208183030381529060405294505050505092915050565b606060005a60405160200161054d9190611f60565b6040516020818303038152906040528051906020012060001c90506105738160016109f0565b91505090565b6060600061058e61058986610ab7565b61067d565b9050600061059b86610af4565b905060006105b06105ab88610b24565b61067d565b905060006105bd88610b61565b905060008784600381106105d4576105d3611f7b565b5b6020020151858884600381106105ed576105ec611f7b565b5b6020020151856040516020016106069493929190611faa565b604051602081830303815290604052905080955050505050509392505050565b606060006040518060400160405280601c81526020017f54657374696e67204368616e6765206f662044657363726970746f720000000081525090508091505090565b606061067583836109f0565b905092915050565b606060008214156106c5576040518060400160405280600181526020017f30000000000000000000000000000000000000000000000000000000000000008152509050610801565b600082905060005b600082146106f75780806106e090611ff7565b915050600a826106f0919061206f565b91506106cd565b60008167ffffffffffffffff8111156107135761071261172d565b5b6040519080825280601f01601f1916602001820160405280156107455781602001600182028036833780820191505090505b50905060008290505b600086146107f95760018161076391906120a0565b90506000600a8088610775919061206f565b61077f91906120d4565b8761078a91906120a0565b6030610796919061213b565b905060008160f81b9050808484815181106107b4576107b3611f7b565b5b60200101907effffffffffffffffffffffffffffffffffffffffffffffffffffffffffffff1916908160001a905350600a886107f0919061206f565b9750505061074e565b819450505050505b919050565b606060008490506000848461081b91906120a0565b67ffffffffffffffff8111156108345761083361172d565b5b6040519080825280601f01601f1916602001820160405280156108665781602001600182028036833780820191505090505b50905060008590505b848110156108f55782818151811061088a57610889611f7b565b5b602001015160f81c60f81b8287836108a291906120a0565b815181106108b3576108b2611f7b565b5b60200101907effffffffffffffffffffffffffffffffffffffffffffffffffffffffffffff1916908160001a90535080806108ed90611ff7565b91505061086f565b5080925050509392505050565b600060046109108484610b91565b60ff1661091d919061206f565b905092915050565b60006109318383610b91565b60ff16905092915050565b606082826040516020016109519291906121e4565b604051602081830303815290604052905092915050565b6000806040518060a00160405280600860ff168152602001600c60ff168152602001601460ff168152602001601860ff168152602001602460ff168152509050600060346109b7856000610b91565b6109c19190612235565b60ff16905060008282600581106109db576109da611f7b565b5b602002015160ff169050809350505050919050565b606060008360001b604051602001610a089190611dfb565b60405160208183030381529060405290506000610a2482610968565b9050600081610168610a36919061206f565b90506000604051806020016040528060008152509050600115158615151415610a75576040518060e0016040528060af81526020016132fa60af913990505b80610a7f85610c47565b610a8a868686610cc2565b604051602001610a9c939291906124ec565b60405160208183030381529060405294505050505092915050565b60006101006103e8610aca846005610b91565b60ff16610ad791906120d4565b610ae1919061206f565b6001610aed9190611c21565b9050919050565b60006101006003610b06846007610b91565b60ff16610b1391906120d4565b610b1d919061206f565b9050919050565b60006101006103e8610b37846006610b91565b60ff16610b4491906120d4565b610b4e919061206f565b6001610b5a9190611c21565b9050919050565b60006101006003610b73846008610b91565b60ff16610b8091906120d4565b610b8a919061206f565b9050919050565b600081600183610ba19190611c21565b1015610be2576040517f08c379a0000000000000000000000000000000000000000000000000000000008152600401610bd9906125b7565b60405180910390fd5b600182610bef9190611c21565b83511015610c32576040517f08c379a0000000000000000000000000000000000000000000000000000000008152600401610c2990612623565b60405180910390fd5b60008260018501015190508091505092915050565b60606000610c56836001610dab565b90506000610c65846000610dab565b90506000610c728561124d565b90506000610c8b826096610c869190611c21565b61067d565b9050838382838485604051602001610ca896959493929190612961565b604051602081830303815290604052945050505050919050565b60606000610cd7610cd28661124d565b61067d565b90506000610ce48661127c565b90506000600282610cf591906120d4565b90506000610d048888886112ab565b905060008485610d1f866096610d1a91906120a0565b61067d565b610d34866096610d2f91906120a0565b61067d565b610d49876096610d4491906120a0565b61067d565b610d5e896096610d599190611c21565b61067d565b610d73896096610d6e91906120a0565b61067d565b88604051602001610d8b989796959493929190612cc0565b604051602081830303815290604052905080955050505050509392505050565b60606000610f2c8460405180606001604052806040518060400160405280600381526020017f302e30000000000000000000000000000000000000000000000000000000000081525081526020016040518060400160405280600481526020017f302e30300000000000000000000000000000000000000000000000000000000081525081526020016040518060400160405280600481526020017f302e30300000000000000000000000000000000000000000000000000000000081525081525060405180606001604052806040518060400160405280600381526020017f302e30000000000000000000000000000000000000000000000000000000000081525081526020016040518060400160405280600381526020017f302e30000000000000000000000000000000000000000000000000000000000081525081526020016040518060400160405280600381526020017f302e300000000000000000000000000000000000000000000000000000000000815250815250610579565b90506000610f41610f3c86611478565b61067d565b90506110946040518060400160405280600c81526020017f666554757262756c656e63650000000000000000000000000000000000000000815250610fbb6040518060400160405280600d81526020017f626173654672657175656e637900000000000000000000000000000000000000815250856114bf565b610ffa6040518060400160405280600481526020017f7365656400000000000000000000000000000000000000000000000000000000815250856114bf565b61106e6040518060400160405280600681526020017f726573756c7400000000000000000000000000000000000000000000000000008152506040518060400160405280600481526020017f74757262000000000000000000000000000000000000000000000000000000008152506114bf565b60405160200161108093929190612ded565b6040516020818303038152906040526114eb565b6112236040518060400160405280600d81526020017f6665436f6c6f724d6174726978000000000000000000000000000000000000008152506111416040518060400160405280600281526020017f696e0000000000000000000000000000000000000000000000000000000000008152506040518060400160405280600481526020017f74757262000000000000000000000000000000000000000000000000000000008152506114bf565b6111896040518060400160405280600681526020017f76616c75657300000000000000000000000000000000000000000000000000008152506111848b8b6101eb565b6114bf565b6111fd6040518060400160405280600381526020017f6f757400000000000000000000000000000000000000000000000000000000008152506040518060400160405280600581526020017f74757262320000000000000000000000000000000000000000000000000000008152506114bf565b60405160200161120f93929190612ded565b6040516020818303038152906040526114eb565b604051602001611234929190612e1e565b6040516020818303038152906040529250505092915050565b6000600261125c836001610b91565b6112669190612235565b60b46112729190612e42565b60ff169050919050565b6000600d61128b836009610b91565b6112959190612235565b60056112a1919061213b565b60ff169050919050565b606060006040518060200160405280600081525090506000604051806020016040528060008152509050600060405180602001604052806000815250905060005b868110156113c85760026003600489611305919061206f565b61130f91906120d4565b6113199190611c21565b8110156113b457826113416001836113319190611c21565b8861133c91906120d4565b611517565b604051602001611352929190612e1e565b60405160208183030381529060405292508161139189605a6001856113779190611c21565b8a61138291906120d4565b61138c9190611c21565b61156a565b6040516020016113a2929190612e1e565b60405160208183030381529060405291505b6001816113c19190611c21565b90506112ec565b50806113f788605a60018a6113dd9190611c21565b896113e891906120d4565b6113f29190611c21565b61156a565b61142489605a60028b61140a9190611c21565b8a61141591906120d4565b61141f9190611c21565b61156a565b60405160200161143693929190612ded565b6040516020818303038152906040529050818160405160200161145a929190612e1e565b60405160208183030381529060405292508293505050509392505050565b6000611485826004610b91565b60ff16611493836003610b91565b60ff166114a1846002610b91565b60ff166114ae91906120d4565b6114b891906120d4565b9050919050565b606082826040516020016114d4929190612ee8565b604051602081830303815290604052905092915050565b60608282604051602001611500929190612f85565b604051602081830303815290604052905092915050565b606061152e6001836115299190611c21565b61067d565b61154360018461153e9190611c21565b61067d565b60405160200161155492919061319e565b6040516020818303038152906040529050919050565b60606000611577846115c0565b905061158e6001846115899190611c21565b61067d565b6115978261067d565b6040516020016115a89291906132ac565b60405160208183030381529060405291505092915050565b60006101006101686115d384600a610b91565b60ff166115e091906120d4565b6115ea919061206f565b9050919050565b6000604051905090565b600080fd5b600080fd5b6000819050919050565b61161881611605565b811461162357600080fd5b50565b6000813590506116358161160f565b92915050565b600060208284031215611651576116506115fb565b5b600061165f84828501611626565b91505092915050565b600081519050919050565b600082825260208201905092915050565b60005b838110156116a2578082015181840152602081019050611687565b838111156116b1576000848401525b50505050565b6000601f19601f8301169050919050565b60006116d382611668565b6116dd8185611673565b93506116ed818560208601611684565b6116f6816116b7565b840191505092915050565b6000602082019050818103600083015261171b81846116c8565b905092915050565b600080fd5b600080fd5b7f4e487b7100000000000000000000000000000000000000000000000000000000600052604160045260246000fd5b611765826116b7565b810181811067ffffffffffffffff821117156117845761178361172d565b5b80604052505050565b60006117976115f1565b90506117a3828261175c565b919050565b600067ffffffffffffffff8211156117c3576117c261172d565b5b6117cc826116b7565b9050602081019050919050565b82818337600083830152505050565b60006117fb6117f6846117a8565b61178d565b90508281526020810184848401111561181757611816611728565b5b6118228482856117d9565b509392505050565b600082601f83011261183f5761183e611723565b5b813561184f8482602086016117e8565b91505092915050565b60008115159050919050565b61186d81611858565b811461187857600080fd5b50565b60008135905061188a81611864565b92915050565b600080604083850312156118a7576118a66115fb565b5b600083013567ffffffffffffffff8111156118c5576118c4611600565b5b6118d18582860161182a565b92505060206118e28582860161187b565b9150509250929050565b60008060408385031215611903576119026115fb565b5b600061191185828601611626565b92505060206119228582860161187b565b9150509250929050565b600067ffffffffffffffff8211156119475761194661172d565b5b602082029050919050565b600080fd5b600067ffffffffffffffff8211156119725761197161172d565b5b61197b826116b7565b9050602081019050919050565b600061199b61199684611957565b61178d565b9050828152602081018484840111156119b7576119b6611728565b5b6119c28482856117d9565b509392505050565b600082601f8301126119df576119de611723565b5b81356119ef848260208601611988565b91505092915050565b6000611a0b611a068461192c565b61178d565b90508060208402830185811115611a2557611a24611952565b5b835b81811015611a6c57803567ffffffffffffffff811115611a4a57611a49611723565b5b808601611a5789826119ca565b85526020850194505050602081019050611a27565b5050509392505050565b600082601f830112611a8b57611a8a611723565b5b6003611a988482856119f8565b91505092915050565b600080600060608486031215611aba57611ab96115fb565b5b600084013567ffffffffffffffff811115611ad857611ad7611600565b5b611ae48682870161182a565b935050602084013567ffffffffffffffff811115611b0557611b04611600565b5b611b1186828701611a76565b925050604084013567ffffffffffffffff811115611b3257611b31611600565b5b611b3e86828701611a76565b9150509250925092565b600081905092915050565b7f4461697379636861696e20230000000000000000000000000000000000000000600082015250565b6000611b89600c83611b48565b9150611b9482611b53565b600c82019050919050565b6000611baa82611668565b611bb48185611b48565b9350611bc4818560208601611684565b80840191505092915050565b6000611bdb82611b7c565b9150611be78284611b9f565b915081905092915050565b7f4e487b7100000000000000000000000000000000000000000000000000000000600052601160045260246000fd5b6000611c2c82611605565b9150611c3783611605565b9250827fffffffffffffffffffffffffffffffffffffffffffffffffffffffffffffffff03821115611c6c57611c6b611bf2565b5b828201905092915050565b7f3020000000000000000000000000000000000000000000000000000000000000815250565b6000611ca98284611b9f565b9150611cb482611c77565b60028201915081905092915050565b7f3120000000000000000000000000000000000000000000000000000000000000815250565b6000611cf58284611b9f565b9150611d0082611cc3565b60028201915081905092915050565b7f2000000000000000000000000000000000000000000000000000000000000000815250565b6000611d418285611b9f565b9150611d4d8284611b9f565b9150611d5882611d0f565b6001820191508190509392505050565b7f2d00000000000000000000000000000000000000000000000000000000000000815250565b6000611d9a8285611b9f565b9150611da582611d68565b600182019150611db58284611b9f565b9150611dc082611d0f565b6001820191508190509392505050565b6000819050919050565b6000819050919050565b611df5611df082611dd0565b611dda565b82525050565b6000611e078284611de4565b60208201915081905092915050565b7f2261747472696275746573223a205b0000000000000000000000000000000000600082015250565b6000611e4c600f83611b48565b9150611e5782611e16565b600f82019050919050565b7f2c00000000000000000000000000000000000000000000000000000000000000600082015250565b6000611e98600183611b48565b9150611ea382611e62565b600182019050919050565b7f5d00000000000000000000000000000000000000000000000000000000000000600082015250565b6000611ee4600183611b48565b9150611eef82611eae565b600182019050919050565b6000611f0582611e3f565b9150611f118285611b9f565b9150611f1c82611e8b565b9150611f288284611b9f565b9150611f3382611ed7565b91508190509392505050565b6000819050919050565b611f5a611f5582611605565b611f3f565b82525050565b6000611f6c8284611f49565b60208201915081905092915050565b7f4e487b7100000000000000000000000000000000000000000000000000000000600052603260045260246000fd5b6000611fb68287611b9f565b9150611fc28286611b9f565b9150611fcd82611d0f565b600182019150611fdd8285611b9f565b9150611fe98284611b9f565b915081905095945050505050565b600061200282611605565b91507fffffffffffffffffffffffffffffffffffffffffffffffffffffffffffffffff82141561203557612034611bf2565b5b600182019050919050565b7f4e487b7100000000000000000000000000000000000000000000000000000000600052601260045260246000fd5b600061207a82611605565b915061208583611605565b92508261209557612094612040565b5b828204905092915050565b60006120ab82611605565b91506120b683611605565b9250828210156120c9576120c8611bf2565b5b828203905092915050565b60006120df82611605565b91506120ea83611605565b9250817fffffffffffffffffffffffffffffffffffffffffffffffffffffffffffffffff048311821515161561212357612122611bf2565b5b828202905092915050565b600060ff82169050919050565b60006121468261212e565b91506121518361212e565b92508260ff0382111561216757612166611bf2565b5b828201905092915050565b7f7b2274726169745f74797065223a202200000000000000000000000000000000815250565b7f222c202276616c7565223a202200000000000000000000000000000000000000815250565b7f227d000000000000000000000000000000000000000000000000000000000000815250565b60006121ef82612172565b6010820191506121ff8285611b9f565b915061220a82612198565b600d8201915061221a8284611b9f565b9150612225826121be565b6002820191508190509392505050565b60006122408261212e565b915061224b8361212e565b92508261225b5761225a612040565b5b828204905092915050565b7f3c73766720786d6c6e733d22687474703a2f2f7777772e77332e6f72672f323060008201527f30302f737667222077696474683d2233303022206865696768743d223330302260208201527f207374796c653d226261636b67726f756e643a236666662220786d6c6e733a7860408201527f6c696e6b3d22687474703a2f2f7777772e77332e6f72672f313939392f786c6960608201527f6e6b223e00000000000000000000000000000000000000000000000000000000608082015250565b6000612334608483611b48565b915061233f82612266565b608482019050919050565b7f3c672069643d22656e74697265223e0000000000000000000000000000000000815250565b7f3c75736520786c696e6b3a687265663d2223666c6f7765722220636c69702d7060008201527f6174683d2275726c282368616c66436c69702922207472616e73666f726d3d2260208201527f726f7461746528302c203135302c2031353029222f3e00000000000000000000604082015250565b60006123f2605683611b48565b91506123fd82612370565b605682019050919050565b7f3c75736520786c696e6b3a687265663d2223666c6f7765722220636c69702d7060008201527f6174683d2275726c282368616c66436c69702922207472616e73666f726d3d2260208201527f726f74617465283138302c203135302c2031353029222f3e0000000000000000604082015250565b600061248a605883611b48565b915061249582612408565b605882019050919050565b7f3c2f673e00000000000000000000000000000000000000000000000000000000815250565b7f3c2f7376673e0000000000000000000000000000000000000000000000000000815250565b60006124f782612327565b91506125038286611b9f565b915061250f8285611b9f565b915061251a8261234a565b600f8201915061252a8284611b9f565b9150612535826123e5565b91506125408261247d565b915061254b826124a0565b60048201915061255a826124c6565b600682019150819050949350505050565b7f746f55696e74385f6f766572666c6f7700000000000000000000000000000000600082015250565b60006125a1601083611673565b91506125ac8261256b565b602082019050919050565b600060208201905081810360008301526125d081612594565b9050919050565b7f746f55696e74385f6f75744f66426f756e647300000000000000000000000000600082015250565b600061260d601383611673565b9150612618826125d7565b602082019050919050565b6000602082019050818103600083015261263c81612600565b9050919050565b7f3c66696c7465722069643d22626c7572223e0000000000000000000000000000815250565b7f3c6665476175737369616e426c757220737464446576696174696f6e3d22312260008201527f2f3e000000000000000000000000000000000000000000000000000000000000602082015250565b60006126c5602283611b48565b91506126d082612669565b602282019050919050565b7f3c2f66696c7465723e0000000000000000000000000000000000000000000000815250565b7f3c66696c7465722069643d227368617270223e00000000000000000000000000815250565b7f3c636c6970506174682069643d22626c7572436c6970223e0000000000000000815250565b7f3c7265637420783d223135302220793d22313530222077696474683d2233303060008201527f22206865696768743d22333030222f3e00000000000000000000000000000000602082015250565b60006127a9603083611b48565b91506127b48261274d565b603082019050919050565b7f3c2f636c6970506174683e000000000000000000000000000000000000000000815250565b7f3c636c6970506174682069643d227061747465726e436c6970223e0000000000815250565b7f3c7061746820643d224d2031353020313530204c200000000000000000000000815250565b7f2031353020512000000000000000000000000000000000000000000000000000815250565b7f2031353020000000000000000000000000000000000000000000000000000000815250565b7f205a222f3e3c2f636c6970506174683e00000000000000000000000000000000815250565b7f3c636c6970506174682069643d2268616c66436c6970223e0000000000000000815250565b7f3c72656374207472616e73666f726d3d22726f7461746528312c203135302c2060008201527f31353029222077696474683d2232363022206865696768743d2236313022207860208201527f3d222d3131302220793d222d313130222f3e0000000000000000000000000000604082015250565b600061294b605283611b48565b9150612956826128c9565b605282019050919050565b600061296c82612643565b60128201915061297c8289611b9f565b9150612987826126b8565b9150612992826126db565b6009820191506129a182612701565b6013820191506129b18288611b9f565b91506129bc826126db565b6009820191506129cb82612727565b6018820191506129da8261279c565b91506129e5826127bf565b600b820191506129f4826127e5565b601b82019150612a038261280b565b601582019150612a138287611b9f565b9150612a1e82612831565b600782019150612a2e8286611b9f565b9150612a3982611d0f565b600182019150612a498285611b9f565b9150612a5482612857565b600582019150612a648284611b9f565b9150612a6f8261287d565b601082019150612a7e826128a3565b601882019150612a8d8261293e565b9150612a98826127bf565b600b82019150819050979650505050505050565b7f3c646566733e0000000000000000000000000000000000000000000000000000815250565b7f3c726563742069643d227461702220783d223135302220793d2231353022207760008201527f696474683d220000000000000000000000000000000000000000000000000000602082015250565b6000612b2e602683611b48565b9150612b3982612ad2565b602682019050919050565b7f22206865696768743d2200000000000000000000000000000000000000000000815250565b7f222066696c7465723d2275726c2823736861727029222f3e0000000000000000815250565b7f3c726563742069643d22626c75727461702220783d223135302220793d22313560008201527f30222077696474683d2235303022206865696768743d22353030222066696c7460208201527f65723d2275726c2823626c757229222f3e000000000000000000000000000000604082015250565b6000612c12605183611b48565b9150612c1d82612b90565b605182019050919050565b7f3c706174682069643d2270746c2220643d224d20313530203135302051200000815250565b7f2031353020313530205a22207374726f6b653d22626c61636b222f3e00000000815250565b7f3c672069643d22666c6f776572223e0000000000000000000000000000000000815250565b7f3c2f673e3c2f646566733e000000000000000000000000000000000000000000815250565b6000612ccb82612aac565b600682019150612cda82612b21565b9150612ce6828b611b9f565b9150612cf182612b44565b600a82019150612d01828a611b9f565b9150612d0c82612b6a565b601882019150612d1b82612c05565b9150612d2682612c28565b601e82019150612d368289611b9f565b9150612d4182611d0f565b600182019150612d518288611b9f565b9150612d5c82612857565b600582019150612d6c8287611b9f565b9150612d7782611d0f565b600182019150612d878286611b9f565b9150612d9282611d0f565b600182019150612da28285611b9f565b9150612dad82612c4e565b601c82019150612dbc82612c74565b600f82019150612dcc8284611b9f565b9150612dd782612c9a565b600b820191508190509998505050505050505050565b6000612df98286611b9f565b9150612e058285611b9f565b9150612e118284611b9f565b9150819050949350505050565b6000612e2a8285611b9f565b9150612e368284611b9f565b91508190509392505050565b6000612e4d8261212e565b9150612e588361212e565b925082821015612e6b57612e6a611bf2565b5b828203905092915050565b7f3d00000000000000000000000000000000000000000000000000000000000000815250565b7f2200000000000000000000000000000000000000000000000000000000000000815250565b7f2220000000000000000000000000000000000000000000000000000000000000815250565b6000612ef48285611b9f565b9150612eff82612e76565b600182019150612f0e82612e9c565b600182019150612f1e8284611b9f565b9150612f2982612ec2565b6002820191508190509392505050565b7f3c00000000000000000000000000000000000000000000000000000000000000815250565b7f2f3e000000000000000000000000000000000000000000000000000000000000815250565b6000612f9082612f39565b600182019150612fa08285611b9f565b9150612fab82611d0f565b600182019150612fbb8284611b9f565b9150612fc682612f5f565b6002820191508190509392505050565b7f3c75736520786c696e6b3a687265663d2223626c757274617022207472616e7360008201527f666f726d3d22726f746174652800000000000000000000000000000000000000602082015250565b6000613032602d83611b48565b915061303d82612fd6565b602d82019050919050565b7f2c203135302c20313530292220636c69702d706174683d2275726c2823626c7560008201527f72436c697029222f3e0000000000000000000000000000000000000000000000602082015250565b60006130a4602983611b48565b91506130af82613048565b602982019050919050565b7f3c75736520786c696e6b3a687265663d222374617022207472616e73666f726d60008201527f3d22726f74617465280000000000000000000000000000000000000000000000602082015250565b6000613116602983611b48565b9150613121826130ba565b602982019050919050565b7f2c203135302c20313530292220636c69702d706174683d2275726c282370617460008201527f7465726e436c697029222f3e0000000000000000000000000000000000000000602082015250565b6000613188602c83611b48565b91506131938261312c565b602c82019050919050565b60006131a982613025565b91506131b58285611b9f565b91506131c082613097565b91506131cb82613109565b91506131d78284611b9f565b91506131e28261317b565b91508190509392505050565b7f3c75736520786c696e6b3a687265663d222370746c22207472616e73666f726d60008201527f3d22726f74617465280000000000000000000000000000000000000000000000602082015250565b600061324a602983611b48565b9150613255826131ee565b602982019050919050565b7f2c203135302c2031353029222066696c6c3d2268736c28000000000000000000815250565b7f2c313030252c3530252922207374726f6b653d22626c61636b222f3e00000000815250565b60006132b78261323d565b91506132c38285611b9f565b91506132ce82613260565b6017820191506132de8284611b9f565b91506132e982613286565b601c82019150819050939250505056fe3c7374796c653e23656e74697265207b7472616e73666f726d2d6f726967696e3a2031353070782031353070783b616e696d6174696f6e3a20726f7461746520383073206c696e65617220696e66696e6974653b207d406b65796672616d657320726f74617465207b66726f6d207b7472616e73666f726d3a20726f746174652830646567293b7d746f207b7472616e73666f726d3a20726f7461746528333630646567293b7d3c2f7374796c653ea2646970667358221220f63537b58cdef868fd224447581b362326e0e67d8fc814bb951fb433f1f1629c64736f6c634300080c0033",
  "linkReferences": {},
  "deployedLinkReferences": {}
}