{
  "_format": "hh-sol-artifact-1",
  "contractName": "TestDescriptorChange",
  "sourceName": "contracts/TestDescriptorChange.sol",
  "abi": [
    {
      "inputs": [
        {
          "internalType": "uint256",
          "name": "tokenId",
          "type": "uint256"
        },
        {
          "internalType": "bool",
          "name": "deluxe",
          "type": "bool"
        }
      ],
      "name": "generateBase64Image",
      "outputs": [
        {
          "internalType": "string",
          "name": "",
          "type": "string"
        }
      ],
      "stateMutability": "pure",
      "type": "function"
    },
    {
      "inputs": [
        {
          "internalType": "bytes",
          "name": "hash",
          "type": "bytes"
        },
        {
          "internalType": "string[3]",
          "name": "decimalStrings",
          "type": "string[3]"
        },
        {
          "internalType": "string[3]",
          "name": "decimalStrings2",
          "type": "string[3]"
        }
      ],
      "name": "generateBaseFrequency",
      "outputs": [
        {
          "internalType": "string",
          "name": "",
          "type": "string"
        }
      ],
      "stateMutability": "pure",
      "type": "function"
    },
    {
      "inputs": [
        {
          "internalType": "bytes",
          "name": "hash",
          "type": "bytes"
        },
        {
          "internalType": "bool",
          "name": "maximalist",
          "type": "bool"
        }
      ],
      "name": "generateColorMatrix",
      "outputs": [
        {
          "internalType": "string",
          "name": "",
          "type": "string"
        }
      ],
      "stateMutability": "pure",
      "type": "function"
    },
    {
      "inputs": [],
      "name": "generateDescription",
      "outputs": [
        {
          "internalType": "string",
          "name": "",
          "type": "string"
        }
      ],
      "stateMutability": "pure",
      "type": "function"
    },
    {
      "inputs": [
        {
          "internalType": "uint256",
          "name": "tokenId",
          "type": "uint256"
        },
        {
          "internalType": "bool",
          "name": "deluxe",
          "type": "bool"
        }
      ],
      "name": "generateImage",
      "outputs": [
        {
          "internalType": "string",
          "name": "",
          "type": "string"
        }
      ],
      "stateMutability": "pure",
      "type": "function"
    },
    {
      "inputs": [
        {
          "internalType": "uint256",
          "name": "nr",
          "type": "uint256"
        },
        {
          "internalType": "bool",
          "name": "deluxe",
          "type": "bool"
        }
      ],
      "name": "generateName",
      "outputs": [
        {
          "internalType": "string",
          "name": "",
          "type": "string"
        }
      ],
      "stateMutability": "pure",
      "type": "function"
    },
    {
      "inputs": [
        {
          "internalType": "uint256",
          "name": "tokenId",
          "type": "uint256"
        },
        {
          "internalType": "bool",
          "name": "deluxe",
          "type": "bool"
        }
      ],
      "name": "generateTraits",
      "outputs": [
        {
          "internalType": "string",
          "name": "",
          "type": "string"
        }
      ],
      "stateMutability": "pure",
      "type": "function"
    },
    {
      "inputs": [
        {
          "internalType": "uint256",
          "name": "tokenId",
          "type": "uint256"
        },
        {
          "internalType": "bool",
          "name": "deluxe",
          "type": "bool"
        }
      ],
      "name": "generateURI",
      "outputs": [
        {
          "internalType": "string",
          "name": "",
          "type": "string"
        }
      ],
      "stateMutability": "pure",
      "type": "function"
    }
  ],
  "bytecode": "0x608060405234801561001057600080fd5b50613e87806100206000396000f3fe608060405234801561001057600080fd5b50600436106100885760003560e01c806385e982eb1161005b57806385e982eb1461013b578063aab838ec1461016b578063d7e4ee6f1461019b578063effaaf6a146101cb57610088565b80632581d8b31461008d57806337ee03ec146100bd578063594bf5ad146100ed5780635a312a3d1461011d575b600080fd5b6100a760048036038101906100a29190611b2e565b6101fb565b6040516100b49190611c12565b60405180910390f35b6100d760048036038101906100d29190611c6a565b610398565b6040516100e49190611c12565b60405180910390f35b61010760048036038101906101029190611e1f565b610548565b6040516101149190611c12565b60405180910390f35b6101256105f5565b6040516101329190611c12565b60405180910390f35b61015560048036038101906101509190611c6a565b610638565b6040516101629190611c12565b60405180910390f35b61018560048036038101906101809190611c6a565b61065a565b6040516101929190611c12565b60405180910390f35b6101b560048036038101906101b09190611c6a565b61071b565b6040516101c29190611c12565b60405180910390f35b6101e560048036038101906101e09190611c6a565b6107f3565b6040516101f29190611c12565b60405180910390f35b60608060005b601481101561038d5760006102168683610807565b905060006102308760018561022b9190611ef5565b61082a565b90506012831415610262578360405160200161024c9190611fad565b6040516020818303038152906040529350610377565b6013831415610292578360405160200161027c9190611ff9565b6040516020818303038152906040529350610376565b60048314806102a15750600983145b806102ac5750600e83145b1561030d576001151586151514156102e557836040516020016102cf9190612045565b6040516020818303038152906040529350610308565b836040516020016102f69190611ff9565b60405160208183030381529060405293505b610375565b6080811015610347578361032083610841565b604051602001610331929190612091565b6040516020818303038152906040529350610374565b8361035183610841565b6040516020016103629291906120ea565b60405160208183030381529060405293505b5b5b5b50506001816103869190611ef5565b9050610201565b508091505092915050565b606060008360001b6040516020016103b09190612157565b6040516020818303038152906040529050606060011515841515141561044b576104446040518060400160405280600881526020017f416e696d617465640000000000000000000000000000000000000000000000008152506040518060400160405280600481526020017f54727565000000000000000000000000000000000000000000000000000000008152506109ca565b90506104c2565b6104bf6040518060400160405280600881526020017f416e696d617465640000000000000000000000000000000000000000000000008152506040518060400160405280600581526020017f46616c73650000000000000000000000000000000000000000000000000000008152506109ca565b90505b60006104cd836109f6565b905060006105186040518060400160405280600b81526020017f506574616c20436f756e7400000000000000000000000000000000000000000081525061051384610841565b6109ca565b9050828160405160200161052d929190612256565b60405160208183030381529060405294505050505092915050565b6060600061055d61055886610a7e565b610841565b9050600061056a86610abb565b9050600061057f61057a88610aeb565b610841565b9050600061058c88610b28565b905060008784600381106105a3576105a261229b565b5b6020020151858884600381106105bc576105bb61229b565b5b6020020151856040516020016105d594939291906122ca565b604051602081830303815290604052905080955050505050509392505050565b606060006040518060400160405280601c81526020017f54657374696e67204368616e6765206f662044657363726970746f720000000081525090508091505090565b6060600061064684846107f3565b905061065181610b58565b91505092915050565b606060006040518060400160405280600781526020017f44656661756c740000000000000000000000000000000000000000000000000081525090506001151583151514156106dc576040518060400160405280600681526020017f44656c757865000000000000000000000000000000000000000000000000000081525090505b806106f26106e986610841565b60006008610cdd565b604051602001610703929190612363565b60405160208183030381529060405291505092915050565b60606000610729848461065a565b905060006107356105f5565b905060006107438686610638565b905060006107518787610398565b90506000604051806020016040528060008152509050600115158715151415610797578260405160200161078591906123de565b60405160208183030381529060405290505b6107c785858584866040516020016107b39594939291906125db565b604051602081830303815290604052610b58565b6040516020016107d791906126b4565b6040516020818303038152906040529550505050505092915050565b60606107ff8383610dd9565b905092915050565b600060046108158484610f56565b60ff166108229190612705565b905092915050565b60006108368383610f56565b60ff16905092915050565b60606000821415610889576040518060400160405280600181526020017f300000000000000000000000000000000000000000000000000000000000000081525090506109c5565b600082905060005b600082146108bb5780806108a490612736565b915050600a826108b49190612705565b9150610891565b60008167ffffffffffffffff8111156108d7576108d66119cb565b5b6040519080825280601f01601f1916602001820160405280156109095781602001600182028036833780820191505090505b50905060008290505b600086146109bd57600181610927919061277f565b90506000600a80886109399190612705565b61094391906127b3565b8761094e919061277f565b603061095a919061281a565b905060008160f81b9050808484815181106109785761097761229b565b5b60200101907effffffffffffffffffffffffffffffffffffffffffffffffffffffffffffff1916908160001a905350600a886109b49190612705565b97505050610912565b819450505050505b919050565b606082826040516020016109df9291906128c3565b604051602081830303815290604052905092915050565b6000806040518060a00160405280600860ff168152602001600c60ff168152602001601460ff168152602001601860ff168152602001602460ff16815250905060006034610a45856000610f56565b610a4f9190612914565b60ff1690506000828260058110610a6957610a6861229b565b5b602002015160ff169050809350505050919050565b60006101006103e8610a91846005610f56565b60ff16610a9e91906127b3565b610aa89190612705565b6001610ab49190611ef5565b9050919050565b60006101006003610acd846007610f56565b60ff16610ada91906127b3565b610ae49190612705565b9050919050565b60006101006103e8610afe846006610f56565b60ff16610b0b91906127b3565b610b159190612705565b6001610b219190611ef5565b9050919050565b60006101006003610b3a846008610f56565b60ff16610b4791906127b3565b610b519190612705565b9050919050565b6060600082511415610b7b57604051806020016040528060008152509050610cd8565b6000604051806060016040528060408152602001613b596040913990506000600360028551610baa9190611ef5565b610bb49190612705565b6004610bc091906127b3565b90506000602082610bd19190611ef5565b67ffffffffffffffff811115610bea57610be96119cb565b5b6040519080825280601f01601f191660200182016040528015610c1c5781602001600182028036833780820191505090505b509050818152600183018586518101602084015b81831015610c97576003830192508251603f8160121c1685015160f81b8252600182019150603f81600c1c1685015160f81b8252600182019150603f8160061c1685015160f81b8252600182019150603f811685015160f81b825260018201915050610c30565b600389510660018114610cb15760028114610cc157610ccc565b613d3d60f01b6002830352610ccc565b603d60f81b60018303525b50505050508093505050505b919050565b6060600084905060008484610cf2919061277f565b67ffffffffffffffff811115610d0b57610d0a6119cb565b5b6040519080825280601f01601f191660200182016040528015610d3d5781602001600182028036833780820191505090505b50905060008590505b84811015610dcc57828181518110610d6157610d6061229b565b5b602001015160f81c60f81b828783610d79919061277f565b81518110610d8a57610d8961229b565b5b60200101907effffffffffffffffffffffffffffffffffffffffffffffffffffffffffffff1916908160001a9053508080610dc490612736565b915050610d46565b5080925050509392505050565b606060008360001b604051602001610df19190612157565b60405160208183030381529060405290506000610e0d826109f6565b9050600081610168610e1f9190612705565b905060006040518060400160405280600781526020017f3c7374796c653e00000000000000000000000000000000000000000000000000815250905060006040518060200160405280600081525090506000604051806020016040528060008152509050600115158815151415610eec5760405180610260016040528061022d8152602001613b9961022d913991506040518060c00160405280608c8152602001613dc6608c9139905082604051602001610eda9190612a75565b60405160208183030381529060405292505b82604051602001610efd9190612abd565b604051602081830303815290604052925082610f188761100c565b610f23888888611087565b8385604051602001610f39959493929190612d8f565b604051602081830303815290604052965050505050505092915050565b600081600183610f669190611ef5565b1015610fa7576040517f08c379a0000000000000000000000000000000000000000000000000000000008152600401610f9e90612e74565b60405180910390fd5b600182610fb49190611ef5565b83511015610ff7576040517f08c379a0000000000000000000000000000000000000000000000000000000008152600401610fee90612ee0565b60405180910390fd5b60008260018501015190508091505092915050565b6060600061101b836001611156565b9050600061102a846000611156565b90506000611037856115f8565b9050600061105082609661104b9190611ef5565b610841565b905083838283848560405160200161106d969594939291906131f8565b604051602081830303815290604052945050505050919050565b6060600061109485611627565b905060006002826110a591906127b3565b905060006110b4878787611656565b905060006110cd8460966110c8919061277f565b610841565b6110e28460966110dd919061277f565b610841565b6110f78560966110f2919061277f565b610841565b61110c8760966111079190611ef5565b610841565b61112187609661111c919061277f565b610841565b8660405160200161113796959493929190613557565b6040516020818303038152906040529050809450505050509392505050565b606060006112d78460405180606001604052806040518060400160405280600381526020017f302e30000000000000000000000000000000000000000000000000000000000081525081526020016040518060400160405280600481526020017f302e30300000000000000000000000000000000000000000000000000000000081525081526020016040518060400160405280600481526020017f302e30300000000000000000000000000000000000000000000000000000000081525081525060405180606001604052806040518060400160405280600381526020017f302e30000000000000000000000000000000000000000000000000000000000081525081526020016040518060400160405280600381526020017f302e30000000000000000000000000000000000000000000000000000000000081525081526020016040518060400160405280600481526020017f302e303000000000000000000000000000000000000000000000000000000000815250815250610548565b905060006112ec6112e786611823565b610841565b905061143f6040518060400160405280600c81526020017f666554757262756c656e636500000000000000000000000000000000000000008152506113666040518060400160405280600d81526020017f626173654672657175656e6379000000000000000000000000000000000000008152508561186a565b6113a56040518060400160405280600481526020017f73656564000000000000000000000000000000000000000000000000000000008152508561186a565b6114196040518060400160405280600681526020017f726573756c7400000000000000000000000000000000000000000000000000008152506040518060400160405280600481526020017f747572620000000000000000000000000000000000000000000000000000000081525061186a565b60405160200161142b9392919061364c565b604051602081830303815290604052611896565b6115ce6040518060400160405280600d81526020017f6665436f6c6f724d6174726978000000000000000000000000000000000000008152506114ec6040518060400160405280600281526020017f696e0000000000000000000000000000000000000000000000000000000000008152506040518060400160405280600481526020017f747572620000000000000000000000000000000000000000000000000000000081525061186a565b6115346040518060400160405280600681526020017f76616c756573000000000000000000000000000000000000000000000000000081525061152f8b8b6101fb565b61186a565b6115a86040518060400160405280600381526020017f6f757400000000000000000000000000000000000000000000000000000000008152506040518060400160405280600581526020017f747572623200000000000000000000000000000000000000000000000000000081525061186a565b6040516020016115ba9392919061364c565b604051602081830303815290604052611896565b6040516020016115df92919061367d565b6040516020818303038152906040529250505092915050565b60006002611607836001610f56565b6116119190612914565b60b461161d91906136a1565b60ff169050919050565b6000600d611636836009610f56565b6116409190612914565b600561164c919061281a565b60ff169050919050565b606060006040518060200160405280600081525090506000604051806020016040528060008152509050600060405180602001604052806000815250905060005b8681101561177357600260036004896116b09190612705565b6116ba91906127b3565b6116c49190611ef5565b81101561175f57826116ec600183896116dd91906127b3565b6116e79190611ef5565b6118c2565b6040516020016116fd92919061367d565b60405160208183030381529060405292508161173c89605a6001856117229190611ef5565b8a61172d91906127b3565b6117379190611ef5565b611915565b60405160200161174d92919061367d565b60405160208183030381529060405291505b60018161176c9190611ef5565b9050611697565b50806117a288605a60018a6117889190611ef5565b8961179391906127b3565b61179d9190611ef5565b611915565b6117cf89605a60028b6117b59190611ef5565b8a6117c091906127b3565b6117ca9190611ef5565b611915565b6040516020016117e19392919061364c565b6040516020818303038152906040529050818160405160200161180592919061367d565b60405160208183030381529060405292508293505050509392505050565b6000611830826004610f56565b60ff1661183e836003610f56565b60ff1661184c846002610f56565b60ff1661185991906127b3565b61186391906127b3565b9050919050565b6060828260405160200161187f929190613747565b604051602081830303815290604052905092915050565b606082826040516020016118ab9291906137e4565b604051602081830303815290604052905092915050565b60606118d96001836118d49190611ef5565b610841565b6118ee6001846118e99190611ef5565b610841565b6040516020016118ff9291906139fd565b6040516020818303038152906040529050919050565b606060006119228461196b565b90506119396001846119349190611ef5565b610841565b61194282610841565b604051602001611953929190613b0b565b60405160208183030381529060405291505092915050565b600061010061016861197e84600a610f56565b60ff1661198b91906127b3565b6119959190612705565b9050919050565b6000604051905090565b600080fd5b600080fd5b600080fd5b600080fd5b6000601f19601f8301169050919050565b7f4e487b7100000000000000000000000000000000000000000000000000000000600052604160045260246000fd5b611a03826119ba565b810181811067ffffffffffffffff82111715611a2257611a216119cb565b5b80604052505050565b6000611a3561199c565b9050611a4182826119fa565b919050565b600067ffffffffffffffff821115611a6157611a606119cb565b5b611a6a826119ba565b9050602081019050919050565b82818337600083830152505050565b6000611a99611a9484611a46565b611a2b565b905082815260208101848484011115611ab557611ab46119b5565b5b611ac0848285611a77565b509392505050565b600082601f830112611add57611adc6119b0565b5b8135611aed848260208601611a86565b91505092915050565b60008115159050919050565b611b0b81611af6565b8114611b1657600080fd5b50565b600081359050611b2881611b02565b92915050565b60008060408385031215611b4557611b446119a6565b5b600083013567ffffffffffffffff811115611b6357611b626119ab565b5b611b6f85828601611ac8565b9250506020611b8085828601611b19565b9150509250929050565b600081519050919050565b600082825260208201905092915050565b60005b83811015611bc4578082015181840152602081019050611ba9565b83811115611bd3576000848401525b50505050565b6000611be482611b8a565b611bee8185611b95565b9350611bfe818560208601611ba6565b611c07816119ba565b840191505092915050565b60006020820190508181036000830152611c2c8184611bd9565b905092915050565b6000819050919050565b611c4781611c34565b8114611c5257600080fd5b50565b600081359050611c6481611c3e565b92915050565b60008060408385031215611c8157611c806119a6565b5b6000611c8f85828601611c55565b9250506020611ca085828601611b19565b9150509250929050565b600067ffffffffffffffff821115611cc557611cc46119cb565b5b602082029050919050565b600080fd5b600067ffffffffffffffff821115611cf057611cef6119cb565b5b611cf9826119ba565b9050602081019050919050565b6000611d19611d1484611cd5565b611a2b565b905082815260208101848484011115611d3557611d346119b5565b5b611d40848285611a77565b509392505050565b600082601f830112611d5d57611d5c6119b0565b5b8135611d6d848260208601611d06565b91505092915050565b6000611d89611d8484611caa565b611a2b565b90508060208402830185811115611da357611da2611cd0565b5b835b81811015611dea57803567ffffffffffffffff811115611dc857611dc76119b0565b5b808601611dd58982611d48565b85526020850194505050602081019050611da5565b5050509392505050565b600082601f830112611e0957611e086119b0565b5b6003611e16848285611d76565b91505092915050565b600080600060608486031215611e3857611e376119a6565b5b600084013567ffffffffffffffff811115611e5657611e556119ab565b5b611e6286828701611ac8565b935050602084013567ffffffffffffffff811115611e8357611e826119ab565b5b611e8f86828701611df4565b925050604084013567ffffffffffffffff811115611eb057611eaf6119ab565b5b611ebc86828701611df4565b9150509250925092565b7f4e487b7100000000000000000000000000000000000000000000000000000000600052601160045260246000fd5b6000611f0082611c34565b9150611f0b83611c34565b9250827fffffffffffffffffffffffffffffffffffffffffffffffffffffffffffffffff03821115611f4057611f3f611ec6565b5b828201905092915050565b600081905092915050565b6000611f6182611b8a565b611f6b8185611f4b565b9350611f7b818560208601611ba6565b80840191505092915050565b7f2d35302000000000000000000000000000000000000000000000000000000000815250565b6000611fb98284611f56565b9150611fc482611f87565b60048201915081905092915050565b7f3120000000000000000000000000000000000000000000000000000000000000815250565b60006120058284611f56565b915061201082611fd3565b60028201915081905092915050565b7f3020000000000000000000000000000000000000000000000000000000000000815250565b60006120518284611f56565b915061205c8261201f565b60028201915081905092915050565b7f2000000000000000000000000000000000000000000000000000000000000000815250565b600061209d8285611f56565b91506120a98284611f56565b91506120b48261206b565b6001820191508190509392505050565b7f2d00000000000000000000000000000000000000000000000000000000000000815250565b60006120f68285611f56565b9150612101826120c4565b6001820191506121118284611f56565b915061211c8261206b565b6001820191508190509392505050565b6000819050919050565b6000819050919050565b61215161214c8261212c565b612136565b82525050565b60006121638284612140565b60208201915081905092915050565b7f2261747472696275746573223a205b0000000000000000000000000000000000600082015250565b60006121a8600f83611f4b565b91506121b382612172565b600f82019050919050565b7f2c00000000000000000000000000000000000000000000000000000000000000600082015250565b60006121f4600183611f4b565b91506121ff826121be565b600182019050919050565b7f5d00000000000000000000000000000000000000000000000000000000000000600082015250565b6000612240600183611f4b565b915061224b8261220a565b600182019050919050565b60006122618261219b565b915061226d8285611f56565b9150612278826121e7565b91506122848284611f56565b915061228f82612233565b91508190509392505050565b7f4e487b7100000000000000000000000000000000000000000000000000000000600052603260045260246000fd5b60006122d68287611f56565b91506122e28286611f56565b91506122ed8261206b565b6001820191506122fd8285611f56565b91506123098284611f56565b915081905095945050505050565b7f204461697379636861696e202300000000000000000000000000000000000000600082015250565b600061234d600d83611f4b565b915061235882612317565b600d82019050919050565b600061236f8285611f56565b915061237a82612340565b91506123868284611f56565b91508190509392505050565b7f222c2022616e696d6174696f6e5f75726c223a20220000000000000000000000815250565b7f646174613a696d6167652f7376672b786d6c3b6261736536342c000000000000815250565b60006123e982612392565b6015820191506123f8826123b8565b601a820191506124088284611f56565b915081905092915050565b7f7b226e616d65223a220000000000000000000000000000000000000000000000600082015250565b6000612449600983611f4b565b915061245482612413565b600982019050919050565b7f222c20226465736372697074696f6e223a220000000000000000000000000000600082015250565b6000612495601283611f4b565b91506124a08261245f565b601282019050919050565b7f222c2022696d616765223a202200000000000000000000000000000000000000600082015250565b60006124e1600d83611f4b565b91506124ec826124ab565b600d82019050919050565b7f646174613a696d6167652f7376672b786d6c3b6261736536342c000000000000600082015250565b600061252d601a83611f4b565b9150612538826124f7565b601a82019050919050565b7f222c200000000000000000000000000000000000000000000000000000000000600082015250565b6000612579600383611f4b565b915061258482612543565b600382019050919050565b7f7d00000000000000000000000000000000000000000000000000000000000000600082015250565b60006125c5600183611f4b565b91506125d08261258f565b600182019050919050565b60006125e68261243c565b91506125f28288611f56565b91506125fd82612488565b91506126098287611f56565b9150612614826124d4565b915061261f82612520565b915061262b8286611f56565b91506126378285611f56565b91506126428261256c565b915061264e8284611f56565b9150612659826125b8565b91508190509695505050505050565b7f646174613a6170706c69636174696f6e2f6a736f6e3b6261736536342c000000600082015250565b600061269e601d83611f4b565b91506126a982612668565b601d82019050919050565b60006126bf82612691565b91506126cb8284611f56565b915081905092915050565b7f4e487b7100000000000000000000000000000000000000000000000000000000600052601260045260246000fd5b600061271082611c34565b915061271b83611c34565b92508261272b5761272a6126d6565b5b828204905092915050565b600061274182611c34565b91507fffffffffffffffffffffffffffffffffffffffffffffffffffffffffffffffff82141561277457612773611ec6565b5b600182019050919050565b600061278a82611c34565b915061279583611c34565b9250828210156127a8576127a7611ec6565b5b828203905092915050565b60006127be82611c34565b91506127c983611c34565b9250817fffffffffffffffffffffffffffffffffffffffffffffffffffffffffffffffff048311821515161561280257612801611ec6565b5b828202905092915050565b600060ff82169050919050565b60006128258261280d565b91506128308361280d565b92508260ff0382111561284657612845611ec6565b5b828201905092915050565b7f7b2274726169745f74797065223a202200000000000000000000000000000000815250565b7f222c202276616c7565223a202200000000000000000000000000000000000000815250565b7f227d000000000000000000000000000000000000000000000000000000000000815250565b60006128ce82612851565b6010820191506128de8285611f56565b91506128e982612877565b600d820191506128f98284611f56565b91506129048261289d565b6002820191508190509392505050565b600061291f8261280d565b915061292a8361280d565b92508261293a576129396126d6565b5b828204905092915050565b7f2e7374617274427574746f6e207b20637572736f723a20706f696e7465723b2060008201527f7d202e726f74617465207b7472616e73666f726d2d6f726967696e3a2031353060208201527f70782031353070783b616e696d6174696f6e3a20726f7461746520313030732060408201527f6c696e65617220696e66696e6974653b207d406b65796672616d657320726f7460608201527f617465207b66726f6d207b7472616e73666f726d3a20726f746174652830646560808201527f67293b7d746f207b7472616e73666f726d3a20726f746174652833363064656760a08201527f293b7d7d0000000000000000000000000000000000000000000000000000000060c082015250565b6000612a5f60c483611f4b565b9150612a6a82612945565b60c482019050919050565b6000612a818284611f56565b9150612a8c82612a52565b915081905092915050565b7f3c2f7374796c653e000000000000000000000000000000000000000000000000815250565b6000612ac98284611f56565b9150612ad482612a97565b60088201915081905092915050565b7f3c73766720786d6c6e733d22687474703a2f2f7777772e77332e6f72672f323060008201527f30302f737667222076657273696f6e3d22322e3022207374796c653d2262616360208201527f6b67726f756e643a23666666222076696577426f783d2230203020333030203360408201527f3030222077696474683d2236303022206865696768743d223630302220786d6c60608201527f6e733a786c696e6b3d22687474703a2f2f7777772e77332e6f72672f3139393960808201527f2f786c696e6b223e00000000000000000000000000000000000000000000000060a082015250565b6000612bd760a883611f4b565b9150612be282612ae3565b60a882019050919050565b7f3c672069643d22656e74697265223e0000000000000000000000000000000000815250565b7f3c75736520687265663d2223666c6f7765722220636c69702d706174683d227560008201527f726c282368616c66436c69702922207472616e73666f726d3d22726f7461746560208201527f28302c203135302c2031353029222f3e00000000000000000000000000000000604082015250565b6000612c95605083611f4b565b9150612ca082612c13565b605082019050919050565b7f3c75736520687265663d2223666c6f7765722220636c69702d706174683d227560008201527f726c282368616c66436c69702922207472616e73666f726d3d22726f7461746560208201527f283138302c203135302c2031353029222f3e0000000000000000000000000000604082015250565b6000612d2d605283611f4b565b9150612d3882612cab565b605282019050919050565b7f3c2f673e00000000000000000000000000000000000000000000000000000000815250565b7f3c2f7376673e0000000000000000000000000000000000000000000000000000815250565b6000612d9a82612bca565b9150612da68288611f56565b9150612db28287611f56565b9150612dbe8286611f56565b9150612dc982612bed565b600f82019150612dd98285611f56565b9150612de482612c88565b9150612def82612d20565b9150612dfb8284611f56565b9150612e0682612d43565b600482019150612e1582612d69565b6006820191508190509695505050505050565b7f746f55696e74385f6f766572666c6f7700000000000000000000000000000000600082015250565b6000612e5e601083611b95565b9150612e6982612e28565b602082019050919050565b60006020820190508181036000830152612e8d81612e51565b9050919050565b7f746f55696e74385f6f75744f66426f756e647300000000000000000000000000600082015250565b6000612eca601383611b95565b9150612ed582612e94565b602082019050919050565b60006020820190508181036000830152612ef981612ebd565b9050919050565b7f3c66696c7465722069643d22626c7572223e0000000000000000000000000000815250565b7f3c6665476175737369616e426c757220737464446576696174696f6e3d22312260008201527f2f3e000000000000000000000000000000000000000000000000000000000000602082015250565b6000612f82602283611f4b565b9150612f8d82612f26565b602282019050919050565b7f3c2f66696c7465723e0000000000000000000000000000000000000000000000815250565b7f3c66696c7465722069643d227368617270223e00000000000000000000000000815250565b7f3c636c6970506174682069643d22626c7572436c6970223e0000000000000000815250565b7f3c7265637420783d223134352220793d22313435222077696474683d2232313560008201527f22206865696768743d22323135222f3e00000000000000000000000000000000602082015250565b6000613066603083611f4b565b91506130718261300a565b603082019050919050565b7f3c2f636c6970506174683e000000000000000000000000000000000000000000815250565b7f3c636c6970506174682069643d227061747465726e436c6970223e0000000000815250565b7f3c7061746820643d224d2031343520313435204c200000000000000000000000815250565b7f2031343520512000000000000000000000000000000000000000000000000000815250565b7f2031343520000000000000000000000000000000000000000000000000000000815250565b7f205a222f3e3c2f636c6970506174683e00000000000000000000000000000000815250565b7f3c636c6970506174682069643d2268616c66436c6970223e0000000000000000815250565b7f3c726563742077696474683d2232363022206865696768743d2236313022207860008201527f3d222d3131302220793d222d313130222f3e0000000000000000000000000000602082015250565b60006131e2603283611f4b565b91506131ed82613186565b603282019050919050565b600061320382612f00565b6012820191506132138289611f56565b915061321e82612f75565b915061322982612f98565b60098201915061323882612fbe565b6013820191506132488288611f56565b915061325382612f98565b60098201915061326282612fe4565b60188201915061327182613059565b915061327c8261307c565b600b8201915061328b826130a2565b601b8201915061329a826130c8565b6015820191506132aa8287611f56565b91506132b5826130ee565b6007820191506132c58286611f56565b91506132d08261206b565b6001820191506132e08285611f56565b91506132eb82613114565b6005820191506132fb8284611f56565b91506133068261313a565b60108201915061331582613160565b601882019150613324826131d5565b915061332f8261307c565b600b82019150819050979650505050505050565b7f3c646566733e0000000000000000000000000000000000000000000000000000815250565b7f3c726563742069643d227461702220783d223135302220793d2231353022207760008201527f696474683d2232303022206865696768743d22323030222066696c7465723d2260208201527f75726c2823736861727029222f3e000000000000000000000000000000000000604082015250565b60006133eb604e83611f4b565b91506133f682613369565b604e82019050919050565b7f3c726563742069643d22626c75727461702220783d223135302220793d22313560008201527f30222077696474683d2232303022206865696768743d22323030222066696c7460208201527f65723d2275726c2823626c757229222f3e000000000000000000000000000000604082015250565b6000613483605183611f4b565b915061348e82613401565b605182019050919050565b7f3c706174682069643d2270746c2220643d224d20313530203135302051200000815250565b7f2031353020000000000000000000000000000000000000000000000000000000815250565b7f2031353020313530205a22207374726f6b653d22626c61636b222f3e00000000815250565b7f3c672069643d22666c6f776572223e0000000000000000000000000000000000815250565b7f3c2f673e3c2f646566733e000000000000000000000000000000000000000000815250565b600061356282613343565b600682019150613571826133de565b915061357c82613476565b915061358782613499565b601e820191506135978289611f56565b91506135a28261206b565b6001820191506135b28288611f56565b91506135bd826134bf565b6005820191506135cd8287611f56565b91506135d88261206b565b6001820191506135e88286611f56565b91506135f38261206b565b6001820191506136038285611f56565b915061360e826134e5565b601c8201915061361d8261350b565b600f8201915061362d8284611f56565b915061363882613531565b600b82019150819050979650505050505050565b60006136588286611f56565b91506136648285611f56565b91506136708284611f56565b9150819050949350505050565b60006136898285611f56565b91506136958284611f56565b91508190509392505050565b60006136ac8261280d565b91506136b78361280d565b9250828210156136ca576136c9611ec6565b5b828203905092915050565b7f3d00000000000000000000000000000000000000000000000000000000000000815250565b7f2200000000000000000000000000000000000000000000000000000000000000815250565b7f2220000000000000000000000000000000000000000000000000000000000000815250565b60006137538285611f56565b915061375e826136d5565b60018201915061376d826136fb565b60018201915061377d8284611f56565b915061378882613721565b6002820191508190509392505050565b7f3c00000000000000000000000000000000000000000000000000000000000000815250565b7f2f3e000000000000000000000000000000000000000000000000000000000000815250565b60006137ef82613798565b6001820191506137ff8285611f56565b915061380a8261206b565b60018201915061381a8284611f56565b9150613825826137be565b6002820191508190509392505050565b7f3c75736520786c696e6b3a687265663d2223626c757274617022207472616e7360008201527f666f726d3d22726f746174652800000000000000000000000000000000000000602082015250565b6000613891602d83611f4b565b915061389c82613835565b602d82019050919050565b7f2c203135302c20313530292220636c69702d706174683d2275726c2823626c7560008201527f72436c697029222f3e0000000000000000000000000000000000000000000000602082015250565b6000613903602983611f4b565b915061390e826138a7565b602982019050919050565b7f3c75736520786c696e6b3a687265663d222374617022207472616e73666f726d60008201527f3d22726f74617465280000000000000000000000000000000000000000000000602082015250565b6000613975602983611f4b565b915061398082613919565b602982019050919050565b7f2c203135302c20313530292220636c69702d706174683d2275726c282370617460008201527f7465726e436c697029222f3e0000000000000000000000000000000000000000602082015250565b60006139e7602c83611f4b565b91506139f28261398b565b602c82019050919050565b6000613a0882613884565b9150613a148285611f56565b9150613a1f826138f6565b9150613a2a82613968565b9150613a368284611f56565b9150613a41826139da565b91508190509392505050565b7f3c75736520786c696e6b3a687265663d222370746c22207472616e73666f726d60008201527f3d22726f74617465280000000000000000000000000000000000000000000000602082015250565b6000613aa9602983611f4b565b9150613ab482613a4d565b602982019050919050565b7f2c203135302c2031353029222066696c6c3d2268736c28000000000000000000815250565b7f2c313030252c3530252922207374726f6b653d22626c61636b222f3e00000000815250565b6000613b1682613a9c565b9150613b228285611f56565b9150613b2d82613abf565b601782019150613b3d8284611f56565b9150613b4882613ae5565b601c82019150819050939250505056fe4142434445464748494a4b4c4d4e4f505152535455565758595a6162636465666768696a6b6c6d6e6f707172737475767778797a303132333435363738392b2f3c636972636c6520636c6173733d227374617274427574746f6e222063783d22313530222063793d223135302220723d223530222066696c6c2d6f7061636974793d223022203e3c616e696d617465206475723d22302e303173222069643d227374617274416e696d6174696f6e22206174747269627574654e616d653d2272222076616c7565733d2235303b2030222066696c6c3d22667265657a652220626567696e3d22636c69636b22202f3e3c616e696d617465206475723d22302e30317322206174747269627574654e616d653d2272222076616c7565733d22303b203530222066696c6c3d22667265657a652220626567696e3d2273746f70416e696d6174696f6e2e656e6422202f3e3c2f636972636c653e3c636972636c6520636c6173733d22627574746f6e222063783d22313530222063793d223135302220723d2230222066696c6c2d6f7061636974793d223022203e3c616e696d617465206475723d22302e30303173222069643d2273746f70416e696d6174696f6e22206174747269627574654e616d653d2272222076616c7565733d2235303b2030222066696c6c3d22667265657a652220626567696e3d22636c69636b22202f3e3c616e696d617465206475723d22302e3030317322206174747269627574654e616d653d2272222076616c7565733d22303b2035302220626567696e3d227374617274416e696d6174696f6e2e656e64222066696c6c3d22667265657a652220202f3e3c2f636972636c653e3c736574206174747269627574654e616d653d22636c6173732220746f3d22726f746174652220626567696e3d227374617274416e696d6174696f6e2e626567696e222f3e3c736574206174747269627574654e616d653d22636c6173732220746f3d226e6f74526f746174652220626567696e3d2273746f70416e696d6174696f6e2e626567696e222f3ea2646970667358221220fd9f5c5d01df502c0eb737dc0a8923754a3207ea9ad14a3b6a272a97140a7ad964736f6c634300080c0033",
  "linkReferences": {},
  "deployedLinkReferences": {}
}