{"contracts/CollectionDescriptor.sol":{"CollectionDescriptor":{"abi":[{"inputs":[],"name":"example","outputs":[{"internalType":"string","name":"","type":"string"}],"stateMutability":"view","type":"function"},{"inputs":[{"internalType":"bytes","name":"hash","type":"bytes"},{"internalType":"string[3]","name":"decimalStrings","type":"string[3]"},{"internalType":"string[3]","name":"decimalStrings2","type":"string[3]"}],"name":"generateBaseFrequency","outputs":[{"internalType":"string","name":"","type":"string"}],"stateMutability":"pure","type":"function"},{"inputs":[{"internalType":"bytes","name":"hash","type":"bytes"},{"internalType":"bool","name":"maximalist","type":"bool"}],"name":"generateColorMatrix","outputs":[{"internalType":"string","name":"","type":"string"}],"stateMutability":"pure","type":"function"},{"inputs":[],"name":"generateDescription","outputs":[{"internalType":"string","name":"","type":"string"}],"stateMutability":"pure","type":"function"},{"inputs":[{"internalType":"uint256","name":"tokenId","type":"uint256"},{"internalType":"bool","name":"deluxe","type":"bool"}],"name":"generateImage","outputs":[{"internalType":"string","name":"","type":"string"}],"stateMutability":"pure","type":"function"},{"inputs":[{"internalType":"uint256","name":"nr","type":"uint256"}],"name":"generateName","outputs":[{"internalType":"string","name":"","type":"string"}],"stateMutability":"pure","type":"function"},{"inputs":[{"internalType":"uint256","name":"tokenId","type":"uint256"},{"internalType":"bool","name":"deluxe","type":"bool"}],"name":"generateTraits","outputs":[{"internalType":"string","name":"","type":"string"}],"stateMutability":"pure","type":"function"}],"evm":{"bytecode":{"linkReferences":{},"object":"608060405234801561001057600080fd5b5061344a806100206000396000f3fe608060405234801561001057600080fd5b506004361061007d5760003560e01c806354353f2f1161005b57806354353f2f14610112578063594bf5ad146101305780635a312a3d14610160578063effaaf6a1461017e5761007d565b8063192a0a1f146100825780632581d8b3146100b257806337ee03ec146100e2575b600080fd5b61009c6004803603810190610097919061161e565b6101ae565b6040516100a991906116e4565b60405180910390f35b6100cc60048036038101906100c79190611873565b6101eb565b6040516100d991906116e4565b60405180910390f35b6100fc60048036038101906100f791906118cf565b610388565b60405161010991906116e4565b60405180910390f35b61011a610538565b60405161012791906116e4565b60405180910390f35b61014a60048036038101906101459190611a84565b610579565b60405161015791906116e4565b60405180910390f35b610168610626565b60405161017591906116e4565b60405180910390f35b610198600480360381019061019391906118cf565b61064c565b6040516101a591906116e4565b60405180910390f35b60606101c56101bc83610660565b600060086107e9565b6040516020016101d59190611bb3565b6040516020818303038152906040529050919050565b60608060005b601481101561037d57600061020686836108e5565b905060006102208760018561021b9190611c04565b610908565b90506012831415610252578360405160200161023c9190611c80565b6040516020818303038152906040529350610367565b6013831415610282578360405160200161026c9190611ccc565b6040516020818303038152906040529350610366565b60048314806102915750600983145b8061029c5750600e83145b156102fd576001151586151514156102d557836040516020016102bf9190611c80565b60405160208183030381529060405293506102f8565b836040516020016102e69190611ccc565b60405160208183030381529060405293505b610365565b6080811015610337578361031083610660565b604051602001610321929190611d18565b6040516020818303038152906040529350610364565b8361034183610660565b604051602001610352929190611d71565b60405160208183030381529060405293505b5b5b5b50506001816103769190611c04565b90506101f1565b508091505092915050565b606060008360001b6040516020016103a09190611dde565b6040516020818303038152906040529050606060011515841515141561043b576104346040518060400160405280600881526020017f416e696d617465640000000000000000000000000000000000000000000000008152506040518060400160405280600481526020017f547275650000000000000000000000000000000000000000000000000000000081525061091f565b90506104b2565b6104af6040518060400160405280600881526020017f416e696d617465640000000000000000000000000000000000000000000000008152506040518060400160405280600581526020017f46616c736500000000000000000000000000000000000000000000000000000081525061091f565b90505b60006104bd8361094b565b905060006105086040518060400160405280600b81526020017f506574616c20436f756e7400000000000000000000000000000000000000000081525061050384610660565b61091f565b9050828160405160200161051d929190611edd565b60405160208183030381529060405294505050505092915050565b606060005a60405160200161054d9190611f43565b6040516020818303038152906040528051906020012060001c90506105738160016109d3565b91505090565b6060600061058e61058986610a9a565b610660565b9050600061059b86610ad7565b905060006105b06105ab88610b07565b610660565b905060006105bd88610b44565b905060008784600381106105d4576105d3611f5e565b5b6020020151858884600381106105ed576105ec611f5e565b5b6020020151856040516020016106069493929190611f8d565b604051602081830303815290604052905080955050505050509392505050565b606060006040518060c00160405280608981526020016132dd6089913990508091505090565b606061065883836109d3565b905092915050565b606060008214156106a8576040518060400160405280600181526020017f300000000000000000000000000000000000000000000000000000000000000081525090506107e4565b600082905060005b600082146106da5780806106c390611fda565b915050600a826106d39190612052565b91506106b0565b60008167ffffffffffffffff8111156106f6576106f5611710565b5b6040519080825280601f01601f1916602001820160405280156107285781602001600182028036833780820191505090505b50905060008290505b600086146107dc576001816107469190612083565b90506000600a80886107589190612052565b61076291906120b7565b8761076d9190612083565b6030610779919061211e565b905060008160f81b90508084848151811061079757610796611f5e565b5b60200101907effffffffffffffffffffffffffffffffffffffffffffffffffffffffffffff1916908160001a905350600a886107d39190612052565b97505050610731565b819450505050505b919050565b60606000849050600084846107fe9190612083565b67ffffffffffffffff81111561081757610816611710565b5b6040519080825280601f01601f1916602001820160405280156108495781602001600182028036833780820191505090505b50905060008590505b848110156108d85782818151811061086d5761086c611f5e565b5b602001015160f81c60f81b8287836108859190612083565b8151811061089657610895611f5e565b5b60200101907effffffffffffffffffffffffffffffffffffffffffffffffffffffffffffff1916908160001a90535080806108d090611fda565b915050610852565b5080925050509392505050565b600060046108f38484610b74565b60ff166109009190612052565b905092915050565b60006109148383610b74565b60ff16905092915050565b606082826040516020016109349291906121c7565b604051602081830303815290604052905092915050565b6000806040518060a00160405280600860ff168152602001600c60ff168152602001601460ff168152602001601860ff168152602001602460ff1681525090506000603461099a856000610b74565b6109a49190612218565b60ff16905060008282600581106109be576109bd611f5e565b5b602002015160ff169050809350505050919050565b606060008360001b6040516020016109eb9190611dde565b60405160208183030381529060405290506000610a078261094b565b9050600081610168610a199190612052565b90506000604051806020016040528060008152509050600115158615151415610a58576040518060e0016040528060af815260200161336660af913990505b80610a6285610c2a565b610a6d868686610ca5565b604051602001610a7f939291906124cf565b60405160208183030381529060405294505050505092915050565b60006101006103e8610aad846005610b74565b60ff16610aba91906120b7565b610ac49190612052565b6001610ad09190611c04565b9050919050565b60006101006003610ae9846007610b74565b60ff16610af691906120b7565b610b009190612052565b9050919050565b60006101006103e8610b1a846006610b74565b60ff16610b2791906120b7565b610b319190612052565b6001610b3d9190611c04565b9050919050565b60006101006003610b56846008610b74565b60ff16610b6391906120b7565b610b6d9190612052565b9050919050565b600081600183610b849190611c04565b1015610bc5576040517f08c379a0000000000000000000000000000000000000000000000000000000008152600401610bbc9061259a565b60405180910390fd5b600182610bd29190611c04565b83511015610c15576040517f08c379a0000000000000000000000000000000000000000000000000000000008152600401610c0c90612606565b60405180910390fd5b60008260018501015190508091505092915050565b60606000610c39836001610d8e565b90506000610c48846000610d8e565b90506000610c5585611230565b90506000610c6e826096610c699190611c04565b610660565b9050838382838485604051602001610c8b96959493929190612944565b604051602081830303815290604052945050505050919050565b60606000610cba610cb586611230565b610660565b90506000610cc78661125f565b90506000600282610cd891906120b7565b90506000610ce788888861128e565b905060008485610d02866096610cfd9190612083565b610660565b610d17866096610d129190612083565b610660565b610d2c876096610d279190612083565b610660565b610d41896096610d3c9190611c04565b610660565b610d56896096610d519190612083565b610660565b88604051602001610d6e989796959493929190612ca3565b604051602081830303815290604052905080955050505050509392505050565b60606000610f0f8460405180606001604052806040518060400160405280600381526020017f302e30000000000000000000000000000000000000000000000000000000000081525081526020016040518060400160405280600481526020017f302e30300000000000000000000000000000000000000000000000000000000081525081526020016040518060400160405280600481526020017f302e30300000000000000000000000000000000000000000000000000000000081525081525060405180606001604052806040518060400160405280600381526020017f302e30000000000000000000000000000000000000000000000000000000000081525081526020016040518060400160405280600381526020017f302e30000000000000000000000000000000000000000000000000000000000081525081526020016040518060400160405280600381526020017f302e300000000000000000000000000000000000000000000000000000000000815250815250610579565b90506000610f24610f1f8661145b565b610660565b90506110776040518060400160405280600c81526020017f666554757262756c656e63650000000000000000000000000000000000000000815250610f9e6040518060400160405280600d81526020017f626173654672657175656e637900000000000000000000000000000000000000815250856114a2565b610fdd6040518060400160405280600481526020017f7365656400000000000000000000000000000000000000000000000000000000815250856114a2565b6110516040518060400160405280600681526020017f726573756c7400000000000000000000000000000000000000000000000000008152506040518060400160405280600481526020017f74757262000000000000000000000000000000000000000000000000000000008152506114a2565b60405160200161106393929190612dd0565b6040516020818303038152906040526114ce565b6112066040518060400160405280600d81526020017f6665436f6c6f724d6174726978000000000000000000000000000000000000008152506111246040518060400160405280600281526020017f696e0000000000000000000000000000000000000000000000000000000000008152506040518060400160405280600481526020017f74757262000000000000000000000000000000000000000000000000000000008152506114a2565b61116c6040518060400160405280600681526020017f76616c75657300000000000000000000000000000000000000000000000000008152506111678b8b6101eb565b6114a2565b6111e06040518060400160405280600381526020017f6f757400000000000000000000000000000000000000000000000000000000008152506040518060400160405280600581526020017f74757262320000000000000000000000000000000000000000000000000000008152506114a2565b6040516020016111f293929190612dd0565b6040516020818303038152906040526114ce565b604051602001611217929190612e01565b6040516020818303038152906040529250505092915050565b6000600261123f836001610b74565b6112499190612218565b60b46112559190612e25565b60ff169050919050565b6000600d61126e836009610b74565b6112789190612218565b6005611284919061211e565b60ff169050919050565b606060006040518060200160405280600081525090506000604051806020016040528060008152509050600060405180602001604052806000815250905060005b868110156113ab57600260036004896112e89190612052565b6112f291906120b7565b6112fc9190611c04565b81101561139757826113246001836113149190611c04565b8861131f91906120b7565b6114fa565b604051602001611335929190612e01565b60405160208183030381529060405292508161137489605a60018561135a9190611c04565b8a61136591906120b7565b61136f9190611c04565b61154d565b604051602001611385929190612e01565b60405160208183030381529060405291505b6001816113a49190611c04565b90506112cf565b50806113da88605a60018a6113c09190611c04565b896113cb91906120b7565b6113d59190611c04565b61154d565b61140789605a60028b6113ed9190611c04565b8a6113f891906120b7565b6114029190611c04565b61154d565b60405160200161141993929190612dd0565b6040516020818303038152906040529050818160405160200161143d929190612e01565b60405160208183030381529060405292508293505050509392505050565b6000611468826004610b74565b60ff16611476836003610b74565b60ff16611484846002610b74565b60ff1661149191906120b7565b61149b91906120b7565b9050919050565b606082826040516020016114b7929190612ecb565b604051602081830303815290604052905092915050565b606082826040516020016114e3929190612f68565b604051602081830303815290604052905092915050565b606061151160018361150c9190611c04565b610660565b6115266001846115219190611c04565b610660565b604051602001611537929190613181565b6040516020818303038152906040529050919050565b6060600061155a846115a3565b905061157160018461156c9190611c04565b610660565b61157a82610660565b60405160200161158b92919061328f565b60405160208183030381529060405291505092915050565b60006101006101686115b684600a610b74565b60ff166115c391906120b7565b6115cd9190612052565b9050919050565b6000604051905090565b600080fd5b600080fd5b6000819050919050565b6115fb816115e8565b811461160657600080fd5b50565b600081359050611618816115f2565b92915050565b600060208284031215611634576116336115de565b5b600061164284828501611609565b91505092915050565b600081519050919050565b600082825260208201905092915050565b60005b8381101561168557808201518184015260208101905061166a565b83811115611694576000848401525b50505050565b6000601f19601f8301169050919050565b60006116b68261164b565b6116c08185611656565b93506116d0818560208601611667565b6116d98161169a565b840191505092915050565b600060208201905081810360008301526116fe81846116ab565b905092915050565b600080fd5b600080fd5b7f4e487b7100000000000000000000000000000000000000000000000000000000600052604160045260246000fd5b6117488261169a565b810181811067ffffffffffffffff8211171561176757611766611710565b5b80604052505050565b600061177a6115d4565b9050611786828261173f565b919050565b600067ffffffffffffffff8211156117a6576117a5611710565b5b6117af8261169a565b9050602081019050919050565b82818337600083830152505050565b60006117de6117d98461178b565b611770565b9050828152602081018484840111156117fa576117f961170b565b5b6118058482856117bc565b509392505050565b600082601f83011261182257611821611706565b5b81356118328482602086016117cb565b91505092915050565b60008115159050919050565b6118508161183b565b811461185b57600080fd5b50565b60008135905061186d81611847565b92915050565b6000806040838503121561188a576118896115de565b5b600083013567ffffffffffffffff8111156118a8576118a76115e3565b5b6118b48582860161180d565b92505060206118c58582860161185e565b9150509250929050565b600080604083850312156118e6576118e56115de565b5b60006118f485828601611609565b92505060206119058582860161185e565b9150509250929050565b600067ffffffffffffffff82111561192a57611929611710565b5b602082029050919050565b600080fd5b600067ffffffffffffffff82111561195557611954611710565b5b61195e8261169a565b9050602081019050919050565b600061197e6119798461193a565b611770565b90508281526020810184848401111561199a5761199961170b565b5b6119a58482856117bc565b509392505050565b600082601f8301126119c2576119c1611706565b5b81356119d284826020860161196b565b91505092915050565b60006119ee6119e98461190f565b611770565b90508060208402830185811115611a0857611a07611935565b5b835b81811015611a4f57803567ffffffffffffffff811115611a2d57611a2c611706565b5b808601611a3a89826119ad565b85526020850194505050602081019050611a0a565b5050509392505050565b600082601f830112611a6e57611a6d611706565b5b6003611a7b8482856119db565b91505092915050565b600080600060608486031215611a9d57611a9c6115de565b5b600084013567ffffffffffffffff811115611abb57611aba6115e3565b5b611ac78682870161180d565b935050602084013567ffffffffffffffff811115611ae857611ae76115e3565b5b611af486828701611a59565b925050604084013567ffffffffffffffff811115611b1557611b146115e3565b5b611b2186828701611a59565b9150509250925092565b600081905092915050565b7f4461697379636861696e20230000000000000000000000000000000000000000600082015250565b6000611b6c600c83611b2b565b9150611b7782611b36565b600c82019050919050565b6000611b8d8261164b565b611b978185611b2b565b9350611ba7818560208601611667565b80840191505092915050565b6000611bbe82611b5f565b9150611bca8284611b82565b915081905092915050565b7f4e487b7100000000000000000000000000000000000000000000000000000000600052601160045260246000fd5b6000611c0f826115e8565b9150611c1a836115e8565b9250827fffffffffffffffffffffffffffffffffffffffffffffffffffffffffffffffff03821115611c4f57611c4e611bd5565b5b828201905092915050565b7f3020000000000000000000000000000000000000000000000000000000000000815250565b6000611c8c8284611b82565b9150611c9782611c5a565b60028201915081905092915050565b7f3120000000000000000000000000000000000000000000000000000000000000815250565b6000611cd88284611b82565b9150611ce382611ca6565b60028201915081905092915050565b7f2000000000000000000000000000000000000000000000000000000000000000815250565b6000611d248285611b82565b9150611d308284611b82565b9150611d3b82611cf2565b6001820191508190509392505050565b7f2d00000000000000000000000000000000000000000000000000000000000000815250565b6000611d7d8285611b82565b9150611d8882611d4b565b600182019150611d988284611b82565b9150611da382611cf2565b6001820191508190509392505050565b6000819050919050565b6000819050919050565b611dd8611dd382611db3565b611dbd565b82525050565b6000611dea8284611dc7565b60208201915081905092915050565b7f2261747472696275746573223a205b0000000000000000000000000000000000600082015250565b6000611e2f600f83611b2b565b9150611e3a82611df9565b600f82019050919050565b7f2c00000000000000000000000000000000000000000000000000000000000000600082015250565b6000611e7b600183611b2b565b9150611e8682611e45565b600182019050919050565b7f5d00000000000000000000000000000000000000000000000000000000000000600082015250565b6000611ec7600183611b2b565b9150611ed282611e91565b600182019050919050565b6000611ee882611e22565b9150611ef48285611b82565b9150611eff82611e6e565b9150611f0b8284611b82565b9150611f1682611eba565b91508190509392505050565b6000819050919050565b611f3d611f38826115e8565b611f22565b82525050565b6000611f4f8284611f2c565b60208201915081905092915050565b7f4e487b7100000000000000000000000000000000000000000000000000000000600052603260045260246000fd5b6000611f998287611b82565b9150611fa58286611b82565b9150611fb082611cf2565b600182019150611fc08285611b82565b9150611fcc8284611b82565b915081905095945050505050565b6000611fe5826115e8565b91507fffffffffffffffffffffffffffffffffffffffffffffffffffffffffffffffff82141561201857612017611bd5565b5b600182019050919050565b7f4e487b7100000000000000000000000000000000000000000000000000000000600052601260045260246000fd5b600061205d826115e8565b9150612068836115e8565b92508261207857612077612023565b5b828204905092915050565b600061208e826115e8565b9150612099836115e8565b9250828210156120ac576120ab611bd5565b5b828203905092915050565b60006120c2826115e8565b91506120cd836115e8565b9250817fffffffffffffffffffffffffffffffffffffffffffffffffffffffffffffffff048311821515161561210657612105611bd5565b5b828202905092915050565b600060ff82169050919050565b600061212982612111565b915061213483612111565b92508260ff0382111561214a57612149611bd5565b5b828201905092915050565b7f7b2274726169745f74797065223a202200000000000000000000000000000000815250565b7f222c202276616c7565223a202200000000000000000000000000000000000000815250565b7f227d000000000000000000000000000000000000000000000000000000000000815250565b60006121d282612155565b6010820191506121e28285611b82565b91506121ed8261217b565b600d820191506121fd8284611b82565b9150612208826121a1565b6002820191508190509392505050565b600061222382612111565b915061222e83612111565b92508261223e5761223d612023565b5b828204905092915050565b7f3c73766720786d6c6e733d22687474703a2f2f7777772e77332e6f72672f323060008201527f30302f737667222077696474683d2233303022206865696768743d223330302260208201527f207374796c653d226261636b67726f756e643a236666662220786d6c6e733a7860408201527f6c696e6b3d22687474703a2f2f7777772e77332e6f72672f313939392f786c6960608201527f6e6b223e00000000000000000000000000000000000000000000000000000000608082015250565b6000612317608483611b2b565b915061232282612249565b608482019050919050565b7f3c672069643d22656e74697265223e0000000000000000000000000000000000815250565b7f3c75736520786c696e6b3a687265663d2223666c6f7765722220636c69702d7060008201527f6174683d2275726c282368616c66436c69702922207472616e73666f726d3d2260208201527f726f7461746528302c203135302c2031353029222f3e00000000000000000000604082015250565b60006123d5605683611b2b565b91506123e082612353565b605682019050919050565b7f3c75736520786c696e6b3a687265663d2223666c6f7765722220636c69702d7060008201527f6174683d2275726c282368616c66436c69702922207472616e73666f726d3d2260208201527f726f74617465283138302c203135302c2031353029222f3e0000000000000000604082015250565b600061246d605883611b2b565b9150612478826123eb565b605882019050919050565b7f3c2f673e00000000000000000000000000000000000000000000000000000000815250565b7f3c2f7376673e0000000000000000000000000000000000000000000000000000815250565b60006124da8261230a565b91506124e68286611b82565b91506124f28285611b82565b91506124fd8261232d565b600f8201915061250d8284611b82565b9150612518826123c8565b915061252382612460565b915061252e82612483565b60048201915061253d826124a9565b600682019150819050949350505050565b7f746f55696e74385f6f766572666c6f7700000000000000000000000000000000600082015250565b6000612584601083611656565b915061258f8261254e565b602082019050919050565b600060208201905081810360008301526125b381612577565b9050919050565b7f746f55696e74385f6f75744f66426f756e647300000000000000000000000000600082015250565b60006125f0601383611656565b91506125fb826125ba565b602082019050919050565b6000602082019050818103600083015261261f816125e3565b9050919050565b7f3c66696c7465722069643d22626c7572223e0000000000000000000000000000815250565b7f3c6665476175737369616e426c757220737464446576696174696f6e3d22312260008201527f2f3e000000000000000000000000000000000000000000000000000000000000602082015250565b60006126a8602283611b2b565b91506126b38261264c565b602282019050919050565b7f3c2f66696c7465723e0000000000000000000000000000000000000000000000815250565b7f3c66696c7465722069643d227368617270223e00000000000000000000000000815250565b7f3c636c6970506174682069643d22626c7572436c6970223e0000000000000000815250565b7f3c7265637420783d223135302220793d22313530222077696474683d2233303060008201527f22206865696768743d22333030222f3e00000000000000000000000000000000602082015250565b600061278c603083611b2b565b915061279782612730565b603082019050919050565b7f3c2f636c6970506174683e000000000000000000000000000000000000000000815250565b7f3c636c6970506174682069643d227061747465726e436c6970223e0000000000815250565b7f3c7061746820643d224d2031353020313530204c200000000000000000000000815250565b7f2031353020512000000000000000000000000000000000000000000000000000815250565b7f2031353020000000000000000000000000000000000000000000000000000000815250565b7f205a222f3e3c2f636c6970506174683e00000000000000000000000000000000815250565b7f3c636c6970506174682069643d2268616c66436c6970223e0000000000000000815250565b7f3c72656374207472616e73666f726d3d22726f7461746528312c203135302c2060008201527f31353029222077696474683d2232363022206865696768743d2236313022207860208201527f3d222d3131302220793d222d313130222f3e0000000000000000000000000000604082015250565b600061292e605283611b2b565b9150612939826128ac565b605282019050919050565b600061294f82612626565b60128201915061295f8289611b82565b915061296a8261269b565b9150612975826126be565b600982019150612984826126e4565b6013820191506129948288611b82565b915061299f826126be565b6009820191506129ae8261270a565b6018820191506129bd8261277f565b91506129c8826127a2565b600b820191506129d7826127c8565b601b820191506129e6826127ee565b6015820191506129f68287611b82565b9150612a0182612814565b600782019150612a118286611b82565b9150612a1c82611cf2565b600182019150612a2c8285611b82565b9150612a378261283a565b600582019150612a478284611b82565b9150612a5282612860565b601082019150612a6182612886565b601882019150612a7082612921565b9150612a7b826127a2565b600b82019150819050979650505050505050565b7f3c646566733e0000000000000000000000000000000000000000000000000000815250565b7f3c726563742069643d227461702220783d223135302220793d2231353022207760008201527f696474683d220000000000000000000000000000000000000000000000000000602082015250565b6000612b11602683611b2b565b9150612b1c82612ab5565b602682019050919050565b7f22206865696768743d2200000000000000000000000000000000000000000000815250565b7f222066696c7465723d2275726c2823736861727029222f3e0000000000000000815250565b7f3c726563742069643d22626c75727461702220783d223135302220793d22313560008201527f30222077696474683d2235303022206865696768743d22353030222066696c7460208201527f65723d2275726c2823626c757229222f3e000000000000000000000000000000604082015250565b6000612bf5605183611b2b565b9150612c0082612b73565b605182019050919050565b7f3c706174682069643d2270746c2220643d224d20313530203135302051200000815250565b7f2031353020313530205a22207374726f6b653d22626c61636b222f3e00000000815250565b7f3c672069643d22666c6f776572223e0000000000000000000000000000000000815250565b7f3c2f673e3c2f646566733e000000000000000000000000000000000000000000815250565b6000612cae82612a8f565b600682019150612cbd82612b04565b9150612cc9828b611b82565b9150612cd482612b27565b600a82019150612ce4828a611b82565b9150612cef82612b4d565b601882019150612cfe82612be8565b9150612d0982612c0b565b601e82019150612d198289611b82565b9150612d2482611cf2565b600182019150612d348288611b82565b9150612d3f8261283a565b600582019150612d4f8287611b82565b9150612d5a82611cf2565b600182019150612d6a8286611b82565b9150612d7582611cf2565b600182019150612d858285611b82565b9150612d9082612c31565b601c82019150612d9f82612c57565b600f82019150612daf8284611b82565b9150612dba82612c7d565b600b820191508190509998505050505050505050565b6000612ddc8286611b82565b9150612de88285611b82565b9150612df48284611b82565b9150819050949350505050565b6000612e0d8285611b82565b9150612e198284611b82565b91508190509392505050565b6000612e3082612111565b9150612e3b83612111565b925082821015612e4e57612e4d611bd5565b5b828203905092915050565b7f3d00000000000000000000000000000000000000000000000000000000000000815250565b7f2200000000000000000000000000000000000000000000000000000000000000815250565b7f2220000000000000000000000000000000000000000000000000000000000000815250565b6000612ed78285611b82565b9150612ee282612e59565b600182019150612ef182612e7f565b600182019150612f018284611b82565b9150612f0c82612ea5565b6002820191508190509392505050565b7f3c00000000000000000000000000000000000000000000000000000000000000815250565b7f2f3e000000000000000000000000000000000000000000000000000000000000815250565b6000612f7382612f1c565b600182019150612f838285611b82565b9150612f8e82611cf2565b600182019150612f9e8284611b82565b9150612fa982612f42565b6002820191508190509392505050565b7f3c75736520786c696e6b3a687265663d2223626c757274617022207472616e7360008201527f666f726d3d22726f746174652800000000000000000000000000000000000000602082015250565b6000613015602d83611b2b565b915061302082612fb9565b602d82019050919050565b7f2c203135302c20313530292220636c69702d706174683d2275726c2823626c7560008201527f72436c697029222f3e0000000000000000000000000000000000000000000000602082015250565b6000613087602983611b2b565b91506130928261302b565b602982019050919050565b7f3c75736520786c696e6b3a687265663d222374617022207472616e73666f726d60008201527f3d22726f74617465280000000000000000000000000000000000000000000000602082015250565b60006130f9602983611b2b565b91506131048261309d565b602982019050919050565b7f2c203135302c20313530292220636c69702d706174683d2275726c282370617460008201527f7465726e436c697029222f3e0000000000000000000000000000000000000000602082015250565b600061316b602c83611b2b565b91506131768261310f565b602c82019050919050565b600061318c82613008565b91506131988285611b82565b91506131a38261307a565b91506131ae826130ec565b91506131ba8284611b82565b91506131c58261315e565b91508190509392505050565b7f3c75736520786c696e6b3a687265663d222370746c22207472616e73666f726d60008201527f3d22726f74617465280000000000000000000000000000000000000000000000602082015250565b600061322d602983611b2b565b9150613238826131d1565b602982019050919050565b7f2c203135302c2031353029222066696c6c3d2268736c28000000000000000000815250565b7f2c313030252c3530252922207374726f6b653d22626c61636b222f3e00000000815250565b600061329a82613220565b91506132a68285611b82565b91506132b182613243565b6017820191506132c18284611b82565b91506132cc82613269565b601c82019150819050939250505056fe4461697379636861696e732e204c69666520496e204576657279204272656174682e20436f6c6c65637469626c65204f6e636861696e2053564720466c6f7765727320696e73706972656420627920746865206a6f75726e6579206f662048696e61746120696e20746865204c6f6767656420556e6976657273652073746f72793a204d532d4f532e3c7374796c653e23656e74697265207b7472616e73666f726d2d6f726967696e3a2031353070782031353070783b616e696d6174696f6e3a20726f7461746520383073206c696e65617220696e66696e6974653b207d406b65796672616d657320726f74617465207b66726f6d207b7472616e73666f726d3a20726f746174652830646567293b7d746f207b7472616e73666f726d3a20726f7461746528333630646567293b7d3c2f7374796c653ea26469706673582212200d1999308f6f3bcaadd0e8b05abf139e7db516b6ed515610251ebb63a3d89f8d64736f6c634300080c0033","opcodes":"PUSH1 0x80 PUSH1 0x40 MSTORE CALLVALUE DUP1 ISZERO PUSH2 0x10 JUMPI PUSH1 0x0 DUP1 REVERT JUMPDEST POP PUSH2 0x344A DUP1 PUSH2 0x20 PUSH1 0x0 CODECOPY PUSH1 0x0 RETURN INVALID PUSH1 0x80 PUSH1 0x40 MSTORE CALLVALUE DUP1 ISZERO PUSH2 0x10 JUMPI PUSH1 0x0 DUP1 REVERT JUMPDEST POP PUSH1 0x4 CALLDATASIZE LT PUSH2 0x7D JUMPI PUSH1 0x0 CALLDATALOAD PUSH1 0xE0 SHR DUP1 PUSH4 0x54353F2F GT PUSH2 0x5B JUMPI DUP1 PUSH4 0x54353F2F EQ PUSH2 0x112 JUMPI DUP1 PUSH4 0x594BF5AD EQ PUSH2 0x130 JUMPI DUP1 PUSH4 0x5A312A3D EQ PUSH2 0x160 JUMPI DUP1 PUSH4 0xEFFAAF6A EQ PUSH2 0x17E JUMPI PUSH2 0x7D JUMP JUMPDEST DUP1 PUSH4 0x192A0A1F EQ PUSH2 0x82 JUMPI DUP1 PUSH4 0x2581D8B3 EQ PUSH2 0xB2 JUMPI DUP1 PUSH4 0x37EE03EC EQ PUSH2 0xE2 JUMPI JUMPDEST PUSH1 0x0 DUP1 REVERT JUMPDEST PUSH2 0x9C PUSH1 0x4 DUP1 CALLDATASIZE SUB DUP2 ADD SWAP1 PUSH2 0x97 SWAP2 SWAP1 PUSH2 0x161E JUMP JUMPDEST PUSH2 0x1AE JUMP JUMPDEST PUSH1 0x40 MLOAD PUSH2 0xA9 SWAP2 SWAP1 PUSH2 0x16E4 JUMP JUMPDEST PUSH1 0x40 MLOAD DUP1 SWAP2 SUB SWAP1 RETURN JUMPDEST PUSH2 0xCC PUSH1 0x4 DUP1 CALLDATASIZE SUB DUP2 ADD SWAP1 PUSH2 0xC7 SWAP2 SWAP1 PUSH2 0x1873 JUMP JUMPDEST PUSH2 0x1EB JUMP JUMPDEST PUSH1 0x40 MLOAD PUSH2 0xD9 SWAP2 SWAP1 PUSH2 0x16E4 JUMP JUMPDEST PUSH1 0x40 MLOAD DUP1 SWAP2 SUB SWAP1 RETURN JUMPDEST PUSH2 0xFC PUSH1 0x4 DUP1 CALLDATASIZE SUB DUP2 ADD SWAP1 PUSH2 0xF7 SWAP2 SWAP1 PUSH2 0x18CF JUMP JUMPDEST PUSH2 0x388 JUMP JUMPDEST PUSH1 0x40 MLOAD PUSH2 0x109 SWAP2 SWAP1 PUSH2 0x16E4 JUMP JUMPDEST PUSH1 0x40 MLOAD DUP1 SWAP2 SUB SWAP1 RETURN JUMPDEST PUSH2 0x11A PUSH2 0x538 JUMP JUMPDEST PUSH1 0x40 MLOAD PUSH2 0x127 SWAP2 SWAP1 PUSH2 0x16E4 JUMP JUMPDEST PUSH1 0x40 MLOAD DUP1 SWAP2 SUB SWAP1 RETURN JUMPDEST PUSH2 0x14A PUSH1 0x4 DUP1 CALLDATASIZE SUB DUP2 ADD SWAP1 PUSH2 0x145 SWAP2 SWAP1 PUSH2 0x1A84 JUMP JUMPDEST PUSH2 0x579 JUMP JUMPDEST PUSH1 0x40 MLOAD PUSH2 0x157 SWAP2 SWAP1 PUSH2 0x16E4 JUMP JUMPDEST PUSH1 0x40 MLOAD DUP1 SWAP2 SUB SWAP1 RETURN JUMPDEST PUSH2 0x168 PUSH2 0x626 JUMP JUMPDEST PUSH1 0x40 MLOAD PUSH2 0x175 SWAP2 SWAP1 PUSH2 0x16E4 JUMP JUMPDEST PUSH1 0x40 MLOAD DUP1 SWAP2 SUB SWAP1 RETURN JUMPDEST PUSH2 0x198 PUSH1 0x4 DUP1 CALLDATASIZE SUB DUP2 ADD SWAP1 PUSH2 0x193 SWAP2 SWAP1 PUSH2 0x18CF JUMP JUMPDEST PUSH2 0x64C JUMP JUMPDEST PUSH1 0x40 MLOAD PUSH2 0x1A5 SWAP2 SWAP1 PUSH2 0x16E4 JUMP JUMPDEST PUSH1 0x40 MLOAD DUP1 SWAP2 SUB SWAP1 RETURN JUMPDEST PUSH1 0x60 PUSH2 0x1C5 PUSH2 0x1BC DUP4 PUSH2 0x660 JUMP JUMPDEST PUSH1 0x0 PUSH1 0x8 PUSH2 0x7E9 JUMP JUMPDEST PUSH1 0x40 MLOAD PUSH1 0x20 ADD PUSH2 0x1D5 SWAP2 SWAP1 PUSH2 0x1BB3 JUMP JUMPDEST PUSH1 0x40 MLOAD PUSH1 0x20 DUP2 DUP4 SUB SUB DUP2 MSTORE SWAP1 PUSH1 0x40 MSTORE SWAP1 POP SWAP2 SWAP1 POP JUMP JUMPDEST PUSH1 0x60 DUP1 PUSH1 0x0 JUMPDEST PUSH1 0x14 DUP2 LT ISZERO PUSH2 0x37D JUMPI PUSH1 0x0 PUSH2 0x206 DUP7 DUP4 PUSH2 0x8E5 JUMP JUMPDEST SWAP1 POP PUSH1 0x0 PUSH2 0x220 DUP8 PUSH1 0x1 DUP6 PUSH2 0x21B SWAP2 SWAP1 PUSH2 0x1C04 JUMP JUMPDEST PUSH2 0x908 JUMP JUMPDEST SWAP1 POP PUSH1 0x12 DUP4 EQ ISZERO PUSH2 0x252 JUMPI DUP4 PUSH1 0x40 MLOAD PUSH1 0x20 ADD PUSH2 0x23C SWAP2 SWAP1 PUSH2 0x1C80 JUMP JUMPDEST PUSH1 0x40 MLOAD PUSH1 0x20 DUP2 DUP4 SUB SUB DUP2 MSTORE SWAP1 PUSH1 0x40 MSTORE SWAP4 POP PUSH2 0x367 JUMP JUMPDEST PUSH1 0x13 DUP4 EQ ISZERO PUSH2 0x282 JUMPI DUP4 PUSH1 0x40 MLOAD PUSH1 0x20 ADD PUSH2 0x26C SWAP2 SWAP1 PUSH2 0x1CCC JUMP JUMPDEST PUSH1 0x40 MLOAD PUSH1 0x20 DUP2 DUP4 SUB SUB DUP2 MSTORE SWAP1 PUSH1 0x40 MSTORE SWAP4 POP PUSH2 0x366 JUMP JUMPDEST PUSH1 0x4 DUP4 EQ DUP1 PUSH2 0x291 JUMPI POP PUSH1 0x9 DUP4 EQ JUMPDEST DUP1 PUSH2 0x29C JUMPI POP PUSH1 0xE DUP4 EQ JUMPDEST ISZERO PUSH2 0x2FD JUMPI PUSH1 0x1 ISZERO ISZERO DUP7 ISZERO ISZERO EQ ISZERO PUSH2 0x2D5 JUMPI DUP4 PUSH1 0x40 MLOAD PUSH1 0x20 ADD PUSH2 0x2BF SWAP2 SWAP1 PUSH2 0x1C80 JUMP JUMPDEST PUSH1 0x40 MLOAD PUSH1 0x20 DUP2 DUP4 SUB SUB DUP2 MSTORE SWAP1 PUSH1 0x40 MSTORE SWAP4 POP PUSH2 0x2F8 JUMP JUMPDEST DUP4 PUSH1 0x40 MLOAD PUSH1 0x20 ADD PUSH2 0x2E6 SWAP2 SWAP1 PUSH2 0x1CCC JUMP JUMPDEST PUSH1 0x40 MLOAD PUSH1 0x20 DUP2 DUP4 SUB SUB DUP2 MSTORE SWAP1 PUSH1 0x40 MSTORE SWAP4 POP JUMPDEST PUSH2 0x365 JUMP JUMPDEST PUSH1 0x80 DUP2 LT ISZERO PUSH2 0x337 JUMPI DUP4 PUSH2 0x310 DUP4 PUSH2 0x660 JUMP JUMPDEST PUSH1 0x40 MLOAD PUSH1 0x20 ADD PUSH2 0x321 SWAP3 SWAP2 SWAP1 PUSH2 0x1D18 JUMP JUMPDEST PUSH1 0x40 MLOAD PUSH1 0x20 DUP2 DUP4 SUB SUB DUP2 MSTORE SWAP1 PUSH1 0x40 MSTORE SWAP4 POP PUSH2 0x364 JUMP JUMPDEST DUP4 PUSH2 0x341 DUP4 PUSH2 0x660 JUMP JUMPDEST PUSH1 0x40 MLOAD PUSH1 0x20 ADD PUSH2 0x352 SWAP3 SWAP2 SWAP1 PUSH2 0x1D71 JUMP JUMPDEST PUSH1 0x40 MLOAD PUSH1 0x20 DUP2 DUP4 SUB SUB DUP2 MSTORE SWAP1 PUSH1 0x40 MSTORE SWAP4 POP JUMPDEST JUMPDEST JUMPDEST JUMPDEST POP POP PUSH1 0x1 DUP2 PUSH2 0x376 SWAP2 SWAP1 PUSH2 0x1C04 JUMP JUMPDEST SWAP1 POP PUSH2 0x1F1 JUMP JUMPDEST POP DUP1 SWAP2 POP POP SWAP3 SWAP2 POP POP JUMP JUMPDEST PUSH1 0x60 PUSH1 0x0 DUP4 PUSH1 0x0 SHL PUSH1 0x40 MLOAD PUSH1 0x20 ADD PUSH2 0x3A0 SWAP2 SWAP1 PUSH2 0x1DDE JUMP JUMPDEST PUSH1 0x40 MLOAD PUSH1 0x20 DUP2 DUP4 SUB SUB DUP2 MSTORE SWAP1 PUSH1 0x40 MSTORE SWAP1 POP PUSH1 0x60 PUSH1 0x1 ISZERO ISZERO DUP5 ISZERO ISZERO EQ ISZERO PUSH2 0x43B JUMPI PUSH2 0x434 PUSH1 0x40 MLOAD DUP1 PUSH1 0x40 ADD PUSH1 0x40 MSTORE DUP1 PUSH1 0x8 DUP2 MSTORE PUSH1 0x20 ADD PUSH32 0x416E696D61746564000000000000000000000000000000000000000000000000 DUP2 MSTORE POP PUSH1 0x40 MLOAD DUP1 PUSH1 0x40 ADD PUSH1 0x40 MSTORE DUP1 PUSH1 0x4 DUP2 MSTORE PUSH1 0x20 ADD PUSH32 0x5472756500000000000000000000000000000000000000000000000000000000 DUP2 MSTORE POP PUSH2 0x91F JUMP JUMPDEST SWAP1 POP PUSH2 0x4B2 JUMP JUMPDEST PUSH2 0x4AF PUSH1 0x40 MLOAD DUP1 PUSH1 0x40 ADD PUSH1 0x40 MSTORE DUP1 PUSH1 0x8 DUP2 MSTORE PUSH1 0x20 ADD PUSH32 0x416E696D61746564000000000000000000000000000000000000000000000000 DUP2 MSTORE POP PUSH1 0x40 MLOAD DUP1 PUSH1 0x40 ADD PUSH1 0x40 MSTORE DUP1 PUSH1 0x5 DUP2 MSTORE PUSH1 0x20 ADD PUSH32 0x46616C7365000000000000000000000000000000000000000000000000000000 DUP2 MSTORE POP PUSH2 0x91F JUMP JUMPDEST SWAP1 POP JUMPDEST PUSH1 0x0 PUSH2 0x4BD DUP4 PUSH2 0x94B JUMP JUMPDEST SWAP1 POP PUSH1 0x0 PUSH2 0x508 PUSH1 0x40 MLOAD DUP1 PUSH1 0x40 ADD PUSH1 0x40 MSTORE DUP1 PUSH1 0xB DUP2 MSTORE PUSH1 0x20 ADD PUSH32 0x506574616C20436F756E74000000000000000000000000000000000000000000 DUP2 MSTORE POP PUSH2 0x503 DUP5 PUSH2 0x660 JUMP JUMPDEST PUSH2 0x91F JUMP JUMPDEST SWAP1 POP DUP3 DUP2 PUSH1 0x40 MLOAD PUSH1 0x20 ADD PUSH2 0x51D SWAP3 SWAP2 SWAP1 PUSH2 0x1EDD JUMP JUMPDEST PUSH1 0x40 MLOAD PUSH1 0x20 DUP2 DUP4 SUB SUB DUP2 MSTORE SWAP1 PUSH1 0x40 MSTORE SWAP5 POP POP POP POP POP SWAP3 SWAP2 POP POP JUMP JUMPDEST PUSH1 0x60 PUSH1 0x0 GAS PUSH1 0x40 MLOAD PUSH1 0x20 ADD PUSH2 0x54D SWAP2 SWAP1 PUSH2 0x1F43 JUMP JUMPDEST PUSH1 0x40 MLOAD PUSH1 0x20 DUP2 DUP4 SUB SUB DUP2 MSTORE SWAP1 PUSH1 0x40 MSTORE DUP1 MLOAD SWAP1 PUSH1 0x20 ADD KECCAK256 PUSH1 0x0 SHR SWAP1 POP PUSH2 0x573 DUP2 PUSH1 0x1 PUSH2 0x9D3 JUMP JUMPDEST SWAP2 POP POP SWAP1 JUMP JUMPDEST PUSH1 0x60 PUSH1 0x0 PUSH2 0x58E PUSH2 0x589 DUP7 PUSH2 0xA9A JUMP JUMPDEST PUSH2 0x660 JUMP JUMPDEST SWAP1 POP PUSH1 0x0 PUSH2 0x59B DUP7 PUSH2 0xAD7 JUMP JUMPDEST SWAP1 POP PUSH1 0x0 PUSH2 0x5B0 PUSH2 0x5AB DUP9 PUSH2 0xB07 JUMP JUMPDEST PUSH2 0x660 JUMP JUMPDEST SWAP1 POP PUSH1 0x0 PUSH2 0x5BD DUP9 PUSH2 0xB44 JUMP JUMPDEST SWAP1 POP PUSH1 0x0 DUP8 DUP5 PUSH1 0x3 DUP2 LT PUSH2 0x5D4 JUMPI PUSH2 0x5D3 PUSH2 0x1F5E JUMP JUMPDEST JUMPDEST PUSH1 0x20 MUL ADD MLOAD DUP6 DUP9 DUP5 PUSH1 0x3 DUP2 LT PUSH2 0x5ED JUMPI PUSH2 0x5EC PUSH2 0x1F5E JUMP JUMPDEST JUMPDEST PUSH1 0x20 MUL ADD MLOAD DUP6 PUSH1 0x40 MLOAD PUSH1 0x20 ADD PUSH2 0x606 SWAP5 SWAP4 SWAP3 SWAP2 SWAP1 PUSH2 0x1F8D JUMP JUMPDEST PUSH1 0x40 MLOAD PUSH1 0x20 DUP2 DUP4 SUB SUB DUP2 MSTORE SWAP1 PUSH1 0x40 MSTORE SWAP1 POP DUP1 SWAP6 POP POP POP POP POP POP SWAP4 SWAP3 POP POP POP JUMP JUMPDEST PUSH1 0x60 PUSH1 0x0 PUSH1 0x40 MLOAD DUP1 PUSH1 0xC0 ADD PUSH1 0x40 MSTORE DUP1 PUSH1 0x89 DUP2 MSTORE PUSH1 0x20 ADD PUSH2 0x32DD PUSH1 0x89 SWAP2 CODECOPY SWAP1 POP DUP1 SWAP2 POP POP SWAP1 JUMP JUMPDEST PUSH1 0x60 PUSH2 0x658 DUP4 DUP4 PUSH2 0x9D3 JUMP JUMPDEST SWAP1 POP SWAP3 SWAP2 POP POP JUMP JUMPDEST PUSH1 0x60 PUSH1 0x0 DUP3 EQ ISZERO PUSH2 0x6A8 JUMPI PUSH1 0x40 MLOAD DUP1 PUSH1 0x40 ADD PUSH1 0x40 MSTORE DUP1 PUSH1 0x1 DUP2 MSTORE PUSH1 0x20 ADD PUSH32 0x3000000000000000000000000000000000000000000000000000000000000000 DUP2 MSTORE POP SWAP1 POP PUSH2 0x7E4 JUMP JUMPDEST PUSH1 0x0 DUP3 SWAP1 POP PUSH1 0x0 JUMPDEST PUSH1 0x0 DUP3 EQ PUSH2 0x6DA JUMPI DUP1 DUP1 PUSH2 0x6C3 SWAP1 PUSH2 0x1FDA JUMP JUMPDEST SWAP2 POP POP PUSH1 0xA DUP3 PUSH2 0x6D3 SWAP2 SWAP1 PUSH2 0x2052 JUMP JUMPDEST SWAP2 POP PUSH2 0x6B0 JUMP JUMPDEST PUSH1 0x0 DUP2 PUSH8 0xFFFFFFFFFFFFFFFF DUP2 GT ISZERO PUSH2 0x6F6 JUMPI PUSH2 0x6F5 PUSH2 0x1710 JUMP JUMPDEST JUMPDEST PUSH1 0x40 MLOAD SWAP1 DUP1 DUP3 MSTORE DUP1 PUSH1 0x1F ADD PUSH1 0x1F NOT AND PUSH1 0x20 ADD DUP3 ADD PUSH1 0x40 MSTORE DUP1 ISZERO PUSH2 0x728 JUMPI DUP2 PUSH1 0x20 ADD PUSH1 0x1 DUP3 MUL DUP1 CALLDATASIZE DUP4 CALLDATACOPY DUP1 DUP3 ADD SWAP2 POP POP SWAP1 POP JUMPDEST POP SWAP1 POP PUSH1 0x0 DUP3 SWAP1 POP JUMPDEST PUSH1 0x0 DUP7 EQ PUSH2 0x7DC JUMPI PUSH1 0x1 DUP2 PUSH2 0x746 SWAP2 SWAP1 PUSH2 0x2083 JUMP JUMPDEST SWAP1 POP PUSH1 0x0 PUSH1 0xA DUP1 DUP9 PUSH2 0x758 SWAP2 SWAP1 PUSH2 0x2052 JUMP JUMPDEST PUSH2 0x762 SWAP2 SWAP1 PUSH2 0x20B7 JUMP JUMPDEST DUP8 PUSH2 0x76D SWAP2 SWAP1 PUSH2 0x2083 JUMP JUMPDEST PUSH1 0x30 PUSH2 0x779 SWAP2 SWAP1 PUSH2 0x211E JUMP JUMPDEST SWAP1 POP PUSH1 0x0 DUP2 PUSH1 0xF8 SHL SWAP1 POP DUP1 DUP5 DUP5 DUP2 MLOAD DUP2 LT PUSH2 0x797 JUMPI PUSH2 0x796 PUSH2 0x1F5E JUMP JUMPDEST JUMPDEST PUSH1 0x20 ADD ADD SWAP1 PUSH31 0xFFFFFFFFFFFFFFFFFFFFFFFFFFFFFFFFFFFFFFFFFFFFFFFFFFFFFFFFFFFFFF NOT AND SWAP1 DUP2 PUSH1 0x0 BYTE SWAP1 MSTORE8 POP PUSH1 0xA DUP9 PUSH2 0x7D3 SWAP2 SWAP1 PUSH2 0x2052 JUMP JUMPDEST SWAP8 POP POP POP PUSH2 0x731 JUMP JUMPDEST DUP2 SWAP5 POP POP POP POP POP JUMPDEST SWAP2 SWAP1 POP JUMP JUMPDEST PUSH1 0x60 PUSH1 0x0 DUP5 SWAP1 POP PUSH1 0x0 DUP5 DUP5 PUSH2 0x7FE SWAP2 SWAP1 PUSH2 0x2083 JUMP JUMPDEST PUSH8 0xFFFFFFFFFFFFFFFF DUP2 GT ISZERO PUSH2 0x817 JUMPI PUSH2 0x816 PUSH2 0x1710 JUMP JUMPDEST JUMPDEST PUSH1 0x40 MLOAD SWAP1 DUP1 DUP3 MSTORE DUP1 PUSH1 0x1F ADD PUSH1 0x1F NOT AND PUSH1 0x20 ADD DUP3 ADD PUSH1 0x40 MSTORE DUP1 ISZERO PUSH2 0x849 JUMPI DUP2 PUSH1 0x20 ADD PUSH1 0x1 DUP3 MUL DUP1 CALLDATASIZE DUP4 CALLDATACOPY DUP1 DUP3 ADD SWAP2 POP POP SWAP1 POP JUMPDEST POP SWAP1 POP PUSH1 0x0 DUP6 SWAP1 POP JUMPDEST DUP5 DUP2 LT ISZERO PUSH2 0x8D8 JUMPI DUP3 DUP2 DUP2 MLOAD DUP2 LT PUSH2 0x86D JUMPI PUSH2 0x86C PUSH2 0x1F5E JUMP JUMPDEST JUMPDEST PUSH1 0x20 ADD ADD MLOAD PUSH1 0xF8 SHR PUSH1 0xF8 SHL DUP3 DUP8 DUP4 PUSH2 0x885 SWAP2 SWAP1 PUSH2 0x2083 JUMP JUMPDEST DUP2 MLOAD DUP2 LT PUSH2 0x896 JUMPI PUSH2 0x895 PUSH2 0x1F5E JUMP JUMPDEST JUMPDEST PUSH1 0x20 ADD ADD SWAP1 PUSH31 0xFFFFFFFFFFFFFFFFFFFFFFFFFFFFFFFFFFFFFFFFFFFFFFFFFFFFFFFFFFFFFF NOT AND SWAP1 DUP2 PUSH1 0x0 BYTE SWAP1 MSTORE8 POP DUP1 DUP1 PUSH2 0x8D0 SWAP1 PUSH2 0x1FDA JUMP JUMPDEST SWAP2 POP POP PUSH2 0x852 JUMP JUMPDEST POP DUP1 SWAP3 POP POP POP SWAP4 SWAP3 POP POP POP JUMP JUMPDEST PUSH1 0x0 PUSH1 0x4 PUSH2 0x8F3 DUP5 DUP5 PUSH2 0xB74 JUMP JUMPDEST PUSH1 0xFF AND PUSH2 0x900 SWAP2 SWAP1 PUSH2 0x2052 JUMP JUMPDEST SWAP1 POP SWAP3 SWAP2 POP POP JUMP JUMPDEST PUSH1 0x0 PUSH2 0x914 DUP4 DUP4 PUSH2 0xB74 JUMP JUMPDEST PUSH1 0xFF AND SWAP1 POP SWAP3 SWAP2 POP POP JUMP JUMPDEST PUSH1 0x60 DUP3 DUP3 PUSH1 0x40 MLOAD PUSH1 0x20 ADD PUSH2 0x934 SWAP3 SWAP2 SWAP1 PUSH2 0x21C7 JUMP JUMPDEST PUSH1 0x40 MLOAD PUSH1 0x20 DUP2 DUP4 SUB SUB DUP2 MSTORE SWAP1 PUSH1 0x40 MSTORE SWAP1 POP SWAP3 SWAP2 POP POP JUMP JUMPDEST PUSH1 0x0 DUP1 PUSH1 0x40 MLOAD DUP1 PUSH1 0xA0 ADD PUSH1 0x40 MSTORE DUP1 PUSH1 0x8 PUSH1 0xFF AND DUP2 MSTORE PUSH1 0x20 ADD PUSH1 0xC PUSH1 0xFF AND DUP2 MSTORE PUSH1 0x20 ADD PUSH1 0x14 PUSH1 0xFF AND DUP2 MSTORE PUSH1 0x20 ADD PUSH1 0x18 PUSH1 0xFF AND DUP2 MSTORE PUSH1 0x20 ADD PUSH1 0x24 PUSH1 0xFF AND DUP2 MSTORE POP SWAP1 POP PUSH1 0x0 PUSH1 0x34 PUSH2 0x99A DUP6 PUSH1 0x0 PUSH2 0xB74 JUMP JUMPDEST PUSH2 0x9A4 SWAP2 SWAP1 PUSH2 0x2218 JUMP JUMPDEST PUSH1 0xFF AND SWAP1 POP PUSH1 0x0 DUP3 DUP3 PUSH1 0x5 DUP2 LT PUSH2 0x9BE JUMPI PUSH2 0x9BD PUSH2 0x1F5E JUMP JUMPDEST JUMPDEST PUSH1 0x20 MUL ADD MLOAD PUSH1 0xFF AND SWAP1 POP DUP1 SWAP4 POP POP POP POP SWAP2 SWAP1 POP JUMP JUMPDEST PUSH1 0x60 PUSH1 0x0 DUP4 PUSH1 0x0 SHL PUSH1 0x40 MLOAD PUSH1 0x20 ADD PUSH2 0x9EB SWAP2 SWAP1 PUSH2 0x1DDE JUMP JUMPDEST PUSH1 0x40 MLOAD PUSH1 0x20 DUP2 DUP4 SUB SUB DUP2 MSTORE SWAP1 PUSH1 0x40 MSTORE SWAP1 POP PUSH1 0x0 PUSH2 0xA07 DUP3 PUSH2 0x94B JUMP JUMPDEST SWAP1 POP PUSH1 0x0 DUP2 PUSH2 0x168 PUSH2 0xA19 SWAP2 SWAP1 PUSH2 0x2052 JUMP JUMPDEST SWAP1 POP PUSH1 0x0 PUSH1 0x40 MLOAD DUP1 PUSH1 0x20 ADD PUSH1 0x40 MSTORE DUP1 PUSH1 0x0 DUP2 MSTORE POP SWAP1 POP PUSH1 0x1 ISZERO ISZERO DUP7 ISZERO ISZERO EQ ISZERO PUSH2 0xA58 JUMPI PUSH1 0x40 MLOAD DUP1 PUSH1 0xE0 ADD PUSH1 0x40 MSTORE DUP1 PUSH1 0xAF DUP2 MSTORE PUSH1 0x20 ADD PUSH2 0x3366 PUSH1 0xAF SWAP2 CODECOPY SWAP1 POP JUMPDEST DUP1 PUSH2 0xA62 DUP6 PUSH2 0xC2A JUMP JUMPDEST PUSH2 0xA6D DUP7 DUP7 DUP7 PUSH2 0xCA5 JUMP JUMPDEST PUSH1 0x40 MLOAD PUSH1 0x20 ADD PUSH2 0xA7F SWAP4 SWAP3 SWAP2 SWAP1 PUSH2 0x24CF JUMP JUMPDEST PUSH1 0x40 MLOAD PUSH1 0x20 DUP2 DUP4 SUB SUB DUP2 MSTORE SWAP1 PUSH1 0x40 MSTORE SWAP5 POP POP POP POP POP SWAP3 SWAP2 POP POP JUMP JUMPDEST PUSH1 0x0 PUSH2 0x100 PUSH2 0x3E8 PUSH2 0xAAD DUP5 PUSH1 0x5 PUSH2 0xB74 JUMP JUMPDEST PUSH1 0xFF AND PUSH2 0xABA SWAP2 SWAP1 PUSH2 0x20B7 JUMP JUMPDEST PUSH2 0xAC4 SWAP2 SWAP1 PUSH2 0x2052 JUMP JUMPDEST PUSH1 0x1 PUSH2 0xAD0 SWAP2 SWAP1 PUSH2 0x1C04 JUMP JUMPDEST SWAP1 POP SWAP2 SWAP1 POP JUMP JUMPDEST PUSH1 0x0 PUSH2 0x100 PUSH1 0x3 PUSH2 0xAE9 DUP5 PUSH1 0x7 PUSH2 0xB74 JUMP JUMPDEST PUSH1 0xFF AND PUSH2 0xAF6 SWAP2 SWAP1 PUSH2 0x20B7 JUMP JUMPDEST PUSH2 0xB00 SWAP2 SWAP1 PUSH2 0x2052 JUMP JUMPDEST SWAP1 POP SWAP2 SWAP1 POP JUMP JUMPDEST PUSH1 0x0 PUSH2 0x100 PUSH2 0x3E8 PUSH2 0xB1A DUP5 PUSH1 0x6 PUSH2 0xB74 JUMP JUMPDEST PUSH1 0xFF AND PUSH2 0xB27 SWAP2 SWAP1 PUSH2 0x20B7 JUMP JUMPDEST PUSH2 0xB31 SWAP2 SWAP1 PUSH2 0x2052 JUMP JUMPDEST PUSH1 0x1 PUSH2 0xB3D SWAP2 SWAP1 PUSH2 0x1C04 JUMP JUMPDEST SWAP1 POP SWAP2 SWAP1 POP JUMP JUMPDEST PUSH1 0x0 PUSH2 0x100 PUSH1 0x3 PUSH2 0xB56 DUP5 PUSH1 0x8 PUSH2 0xB74 JUMP JUMPDEST PUSH1 0xFF AND PUSH2 0xB63 SWAP2 SWAP1 PUSH2 0x20B7 JUMP JUMPDEST PUSH2 0xB6D SWAP2 SWAP1 PUSH2 0x2052 JUMP JUMPDEST SWAP1 POP SWAP2 SWAP1 POP JUMP JUMPDEST PUSH1 0x0 DUP2 PUSH1 0x1 DUP4 PUSH2 0xB84 SWAP2 SWAP1 PUSH2 0x1C04 JUMP JUMPDEST LT ISZERO PUSH2 0xBC5 JUMPI PUSH1 0x40 MLOAD PUSH32 0x8C379A000000000000000000000000000000000000000000000000000000000 DUP2 MSTORE PUSH1 0x4 ADD PUSH2 0xBBC SWAP1 PUSH2 0x259A JUMP JUMPDEST PUSH1 0x40 MLOAD DUP1 SWAP2 SUB SWAP1 REVERT JUMPDEST PUSH1 0x1 DUP3 PUSH2 0xBD2 SWAP2 SWAP1 PUSH2 0x1C04 JUMP JUMPDEST DUP4 MLOAD LT ISZERO PUSH2 0xC15 JUMPI PUSH1 0x40 MLOAD PUSH32 0x8C379A000000000000000000000000000000000000000000000000000000000 DUP2 MSTORE PUSH1 0x4 ADD PUSH2 0xC0C SWAP1 PUSH2 0x2606 JUMP JUMPDEST PUSH1 0x40 MLOAD DUP1 SWAP2 SUB SWAP1 REVERT JUMPDEST PUSH1 0x0 DUP3 PUSH1 0x1 DUP6 ADD ADD MLOAD SWAP1 POP DUP1 SWAP2 POP POP SWAP3 SWAP2 POP POP JUMP JUMPDEST PUSH1 0x60 PUSH1 0x0 PUSH2 0xC39 DUP4 PUSH1 0x1 PUSH2 0xD8E JUMP JUMPDEST SWAP1 POP PUSH1 0x0 PUSH2 0xC48 DUP5 PUSH1 0x0 PUSH2 0xD8E JUMP JUMPDEST SWAP1 POP PUSH1 0x0 PUSH2 0xC55 DUP6 PUSH2 0x1230 JUMP JUMPDEST SWAP1 POP PUSH1 0x0 PUSH2 0xC6E DUP3 PUSH1 0x96 PUSH2 0xC69 SWAP2 SWAP1 PUSH2 0x1C04 JUMP JUMPDEST PUSH2 0x660 JUMP JUMPDEST SWAP1 POP DUP4 DUP4 DUP3 DUP4 DUP5 DUP6 PUSH1 0x40 MLOAD PUSH1 0x20 ADD PUSH2 0xC8B SWAP7 SWAP6 SWAP5 SWAP4 SWAP3 SWAP2 SWAP1 PUSH2 0x2944 JUMP JUMPDEST PUSH1 0x40 MLOAD PUSH1 0x20 DUP2 DUP4 SUB SUB DUP2 MSTORE SWAP1 PUSH1 0x40 MSTORE SWAP5 POP POP POP POP POP SWAP2 SWAP1 POP JUMP JUMPDEST PUSH1 0x60 PUSH1 0x0 PUSH2 0xCBA PUSH2 0xCB5 DUP7 PUSH2 0x1230 JUMP JUMPDEST PUSH2 0x660 JUMP JUMPDEST SWAP1 POP PUSH1 0x0 PUSH2 0xCC7 DUP7 PUSH2 0x125F JUMP JUMPDEST SWAP1 POP PUSH1 0x0 PUSH1 0x2 DUP3 PUSH2 0xCD8 SWAP2 SWAP1 PUSH2 0x20B7 JUMP JUMPDEST SWAP1 POP PUSH1 0x0 PUSH2 0xCE7 DUP9 DUP9 DUP9 PUSH2 0x128E JUMP JUMPDEST SWAP1 POP PUSH1 0x0 DUP5 DUP6 PUSH2 0xD02 DUP7 PUSH1 0x96 PUSH2 0xCFD SWAP2 SWAP1 PUSH2 0x2083 JUMP JUMPDEST PUSH2 0x660 JUMP JUMPDEST PUSH2 0xD17 DUP7 PUSH1 0x96 PUSH2 0xD12 SWAP2 SWAP1 PUSH2 0x2083 JUMP JUMPDEST PUSH2 0x660 JUMP JUMPDEST PUSH2 0xD2C DUP8 PUSH1 0x96 PUSH2 0xD27 SWAP2 SWAP1 PUSH2 0x2083 JUMP JUMPDEST PUSH2 0x660 JUMP JUMPDEST PUSH2 0xD41 DUP10 PUSH1 0x96 PUSH2 0xD3C SWAP2 SWAP1 PUSH2 0x1C04 JUMP JUMPDEST PUSH2 0x660 JUMP JUMPDEST PUSH2 0xD56 DUP10 PUSH1 0x96 PUSH2 0xD51 SWAP2 SWAP1 PUSH2 0x2083 JUMP JUMPDEST PUSH2 0x660 JUMP JUMPDEST DUP9 PUSH1 0x40 MLOAD PUSH1 0x20 ADD PUSH2 0xD6E SWAP9 SWAP8 SWAP7 SWAP6 SWAP5 SWAP4 SWAP3 SWAP2 SWAP1 PUSH2 0x2CA3 JUMP JUMPDEST PUSH1 0x40 MLOAD PUSH1 0x20 DUP2 DUP4 SUB SUB DUP2 MSTORE SWAP1 PUSH1 0x40 MSTORE SWAP1 POP DUP1 SWAP6 POP POP POP POP POP POP SWAP4 SWAP3 POP POP POP JUMP JUMPDEST PUSH1 0x60 PUSH1 0x0 PUSH2 0xF0F DUP5 PUSH1 0x40 MLOAD DUP1 PUSH1 0x60 ADD PUSH1 0x40 MSTORE DUP1 PUSH1 0x40 MLOAD DUP1 PUSH1 0x40 ADD PUSH1 0x40 MSTORE DUP1 PUSH1 0x3 DUP2 MSTORE PUSH1 0x20 ADD PUSH32 0x302E300000000000000000000000000000000000000000000000000000000000 DUP2 MSTORE POP DUP2 MSTORE PUSH1 0x20 ADD PUSH1 0x40 MLOAD DUP1 PUSH1 0x40 ADD PUSH1 0x40 MSTORE DUP1 PUSH1 0x4 DUP2 MSTORE PUSH1 0x20 ADD PUSH32 0x302E303000000000000000000000000000000000000000000000000000000000 DUP2 MSTORE POP DUP2 MSTORE PUSH1 0x20 ADD PUSH1 0x40 MLOAD DUP1 PUSH1 0x40 ADD PUSH1 0x40 MSTORE DUP1 PUSH1 0x4 DUP2 MSTORE PUSH1 0x20 ADD PUSH32 0x302E303000000000000000000000000000000000000000000000000000000000 DUP2 MSTORE POP DUP2 MSTORE POP PUSH1 0x40 MLOAD DUP1 PUSH1 0x60 ADD PUSH1 0x40 MSTORE DUP1 PUSH1 0x40 MLOAD DUP1 PUSH1 0x40 ADD PUSH1 0x40 MSTORE DUP1 PUSH1 0x3 DUP2 MSTORE PUSH1 0x20 ADD PUSH32 0x302E300000000000000000000000000000000000000000000000000000000000 DUP2 MSTORE POP DUP2 MSTORE PUSH1 0x20 ADD PUSH1 0x40 MLOAD DUP1 PUSH1 0x40 ADD PUSH1 0x40 MSTORE DUP1 PUSH1 0x3 DUP2 MSTORE PUSH1 0x20 ADD PUSH32 0x302E300000000000000000000000000000000000000000000000000000000000 DUP2 MSTORE POP DUP2 MSTORE PUSH1 0x20 ADD PUSH1 0x40 MLOAD DUP1 PUSH1 0x40 ADD PUSH1 0x40 MSTORE DUP1 PUSH1 0x3 DUP2 MSTORE PUSH1 0x20 ADD PUSH32 0x302E300000000000000000000000000000000000000000000000000000000000 DUP2 MSTORE POP DUP2 MSTORE POP PUSH2 0x579 JUMP JUMPDEST SWAP1 POP PUSH1 0x0 PUSH2 0xF24 PUSH2 0xF1F DUP7 PUSH2 0x145B JUMP JUMPDEST PUSH2 0x660 JUMP JUMPDEST SWAP1 POP PUSH2 0x1077 PUSH1 0x40 MLOAD DUP1 PUSH1 0x40 ADD PUSH1 0x40 MSTORE DUP1 PUSH1 0xC DUP2 MSTORE PUSH1 0x20 ADD PUSH32 0x666554757262756C656E63650000000000000000000000000000000000000000 DUP2 MSTORE POP PUSH2 0xF9E PUSH1 0x40 MLOAD DUP1 PUSH1 0x40 ADD PUSH1 0x40 MSTORE DUP1 PUSH1 0xD DUP2 MSTORE PUSH1 0x20 ADD PUSH32 0x626173654672657175656E637900000000000000000000000000000000000000 DUP2 MSTORE POP DUP6 PUSH2 0x14A2 JUMP JUMPDEST PUSH2 0xFDD PUSH1 0x40 MLOAD DUP1 PUSH1 0x40 ADD PUSH1 0x40 MSTORE DUP1 PUSH1 0x4 DUP2 MSTORE PUSH1 0x20 ADD PUSH32 0x7365656400000000000000000000000000000000000000000000000000000000 DUP2 MSTORE POP DUP6 PUSH2 0x14A2 JUMP JUMPDEST PUSH2 0x1051 PUSH1 0x40 MLOAD DUP1 PUSH1 0x40 ADD PUSH1 0x40 MSTORE DUP1 PUSH1 0x6 DUP2 MSTORE PUSH1 0x20 ADD PUSH32 0x726573756C740000000000000000000000000000000000000000000000000000 DUP2 MSTORE POP PUSH1 0x40 MLOAD DUP1 PUSH1 0x40 ADD PUSH1 0x40 MSTORE DUP1 PUSH1 0x4 DUP2 MSTORE PUSH1 0x20 ADD PUSH32 0x7475726200000000000000000000000000000000000000000000000000000000 DUP2 MSTORE POP PUSH2 0x14A2 JUMP JUMPDEST PUSH1 0x40 MLOAD PUSH1 0x20 ADD PUSH2 0x1063 SWAP4 SWAP3 SWAP2 SWAP1 PUSH2 0x2DD0 JUMP JUMPDEST PUSH1 0x40 MLOAD PUSH1 0x20 DUP2 DUP4 SUB SUB DUP2 MSTORE SWAP1 PUSH1 0x40 MSTORE PUSH2 0x14CE JUMP JUMPDEST PUSH2 0x1206 PUSH1 0x40 MLOAD DUP1 PUSH1 0x40 ADD PUSH1 0x40 MSTORE DUP1 PUSH1 0xD DUP2 MSTORE PUSH1 0x20 ADD PUSH32 0x6665436F6C6F724D617472697800000000000000000000000000000000000000 DUP2 MSTORE POP PUSH2 0x1124 PUSH1 0x40 MLOAD DUP1 PUSH1 0x40 ADD PUSH1 0x40 MSTORE DUP1 PUSH1 0x2 DUP2 MSTORE PUSH1 0x20 ADD PUSH32 0x696E000000000000000000000000000000000000000000000000000000000000 DUP2 MSTORE POP PUSH1 0x40 MLOAD DUP1 PUSH1 0x40 ADD PUSH1 0x40 MSTORE DUP1 PUSH1 0x4 DUP2 MSTORE PUSH1 0x20 ADD PUSH32 0x7475726200000000000000000000000000000000000000000000000000000000 DUP2 MSTORE POP PUSH2 0x14A2 JUMP JUMPDEST PUSH2 0x116C PUSH1 0x40 MLOAD DUP1 PUSH1 0x40 ADD PUSH1 0x40 MSTORE DUP1 PUSH1 0x6 DUP2 MSTORE PUSH1 0x20 ADD PUSH32 0x76616C7565730000000000000000000000000000000000000000000000000000 DUP2 MSTORE POP PUSH2 0x1167 DUP12 DUP12 PUSH2 0x1EB JUMP JUMPDEST PUSH2 0x14A2 JUMP JUMPDEST PUSH2 0x11E0 PUSH1 0x40 MLOAD DUP1 PUSH1 0x40 ADD PUSH1 0x40 MSTORE DUP1 PUSH1 0x3 DUP2 MSTORE PUSH1 0x20 ADD PUSH32 0x6F75740000000000000000000000000000000000000000000000000000000000 DUP2 MSTORE POP PUSH1 0x40 MLOAD DUP1 PUSH1 0x40 ADD PUSH1 0x40 MSTORE DUP1 PUSH1 0x5 DUP2 MSTORE PUSH1 0x20 ADD PUSH32 0x7475726232000000000000000000000000000000000000000000000000000000 DUP2 MSTORE POP PUSH2 0x14A2 JUMP JUMPDEST PUSH1 0x40 MLOAD PUSH1 0x20 ADD PUSH2 0x11F2 SWAP4 SWAP3 SWAP2 SWAP1 PUSH2 0x2DD0 JUMP JUMPDEST PUSH1 0x40 MLOAD PUSH1 0x20 DUP2 DUP4 SUB SUB DUP2 MSTORE SWAP1 PUSH1 0x40 MSTORE PUSH2 0x14CE JUMP JUMPDEST PUSH1 0x40 MLOAD PUSH1 0x20 ADD PUSH2 0x1217 SWAP3 SWAP2 SWAP1 PUSH2 0x2E01 JUMP JUMPDEST PUSH1 0x40 MLOAD PUSH1 0x20 DUP2 DUP4 SUB SUB DUP2 MSTORE SWAP1 PUSH1 0x40 MSTORE SWAP3 POP POP POP SWAP3 SWAP2 POP POP JUMP JUMPDEST PUSH1 0x0 PUSH1 0x2 PUSH2 0x123F DUP4 PUSH1 0x1 PUSH2 0xB74 JUMP JUMPDEST PUSH2 0x1249 SWAP2 SWAP1 PUSH2 0x2218 JUMP JUMPDEST PUSH1 0xB4 PUSH2 0x1255 SWAP2 SWAP1 PUSH2 0x2E25 JUMP JUMPDEST PUSH1 0xFF AND SWAP1 POP SWAP2 SWAP1 POP JUMP JUMPDEST PUSH1 0x0 PUSH1 0xD PUSH2 0x126E DUP4 PUSH1 0x9 PUSH2 0xB74 JUMP JUMPDEST PUSH2 0x1278 SWAP2 SWAP1 PUSH2 0x2218 JUMP JUMPDEST PUSH1 0x5 PUSH2 0x1284 SWAP2 SWAP1 PUSH2 0x211E JUMP JUMPDEST PUSH1 0xFF AND SWAP1 POP SWAP2 SWAP1 POP JUMP JUMPDEST PUSH1 0x60 PUSH1 0x0 PUSH1 0x40 MLOAD DUP1 PUSH1 0x20 ADD PUSH1 0x40 MSTORE DUP1 PUSH1 0x0 DUP2 MSTORE POP SWAP1 POP PUSH1 0x0 PUSH1 0x40 MLOAD DUP1 PUSH1 0x20 ADD PUSH1 0x40 MSTORE DUP1 PUSH1 0x0 DUP2 MSTORE POP SWAP1 POP PUSH1 0x0 PUSH1 0x40 MLOAD DUP1 PUSH1 0x20 ADD PUSH1 0x40 MSTORE DUP1 PUSH1 0x0 DUP2 MSTORE POP SWAP1 POP PUSH1 0x0 JUMPDEST DUP7 DUP2 LT ISZERO PUSH2 0x13AB JUMPI PUSH1 0x2 PUSH1 0x3 PUSH1 0x4 DUP10 PUSH2 0x12E8 SWAP2 SWAP1 PUSH2 0x2052 JUMP JUMPDEST PUSH2 0x12F2 SWAP2 SWAP1 PUSH2 0x20B7 JUMP JUMPDEST PUSH2 0x12FC SWAP2 SWAP1 PUSH2 0x1C04 JUMP JUMPDEST DUP2 LT ISZERO PUSH2 0x1397 JUMPI DUP3 PUSH2 0x1324 PUSH1 0x1 DUP4 PUSH2 0x1314 SWAP2 SWAP1 PUSH2 0x1C04 JUMP JUMPDEST DUP9 PUSH2 0x131F SWAP2 SWAP1 PUSH2 0x20B7 JUMP JUMPDEST PUSH2 0x14FA JUMP JUMPDEST PUSH1 0x40 MLOAD PUSH1 0x20 ADD PUSH2 0x1335 SWAP3 SWAP2 SWAP1 PUSH2 0x2E01 JUMP JUMPDEST PUSH1 0x40 MLOAD PUSH1 0x20 DUP2 DUP4 SUB SUB DUP2 MSTORE SWAP1 PUSH1 0x40 MSTORE SWAP3 POP DUP2 PUSH2 0x1374 DUP10 PUSH1 0x5A PUSH1 0x1 DUP6 PUSH2 0x135A SWAP2 SWAP1 PUSH2 0x1C04 JUMP JUMPDEST DUP11 PUSH2 0x1365 SWAP2 SWAP1 PUSH2 0x20B7 JUMP JUMPDEST PUSH2 0x136F SWAP2 SWAP1 PUSH2 0x1C04 JUMP JUMPDEST PUSH2 0x154D JUMP JUMPDEST PUSH1 0x40 MLOAD PUSH1 0x20 ADD PUSH2 0x1385 SWAP3 SWAP2 SWAP1 PUSH2 0x2E01 JUMP JUMPDEST PUSH1 0x40 MLOAD PUSH1 0x20 DUP2 DUP4 SUB SUB DUP2 MSTORE SWAP1 PUSH1 0x40 MSTORE SWAP2 POP JUMPDEST PUSH1 0x1 DUP2 PUSH2 0x13A4 SWAP2 SWAP1 PUSH2 0x1C04 JUMP JUMPDEST SWAP1 POP PUSH2 0x12CF JUMP JUMPDEST POP DUP1 PUSH2 0x13DA DUP9 PUSH1 0x5A PUSH1 0x1 DUP11 PUSH2 0x13C0 SWAP2 SWAP1 PUSH2 0x1C04 JUMP JUMPDEST DUP10 PUSH2 0x13CB SWAP2 SWAP1 PUSH2 0x20B7 JUMP JUMPDEST PUSH2 0x13D5 SWAP2 SWAP1 PUSH2 0x1C04 JUMP JUMPDEST PUSH2 0x154D JUMP JUMPDEST PUSH2 0x1407 DUP10 PUSH1 0x5A PUSH1 0x2 DUP12 PUSH2 0x13ED SWAP2 SWAP1 PUSH2 0x1C04 JUMP JUMPDEST DUP11 PUSH2 0x13F8 SWAP2 SWAP1 PUSH2 0x20B7 JUMP JUMPDEST PUSH2 0x1402 SWAP2 SWAP1 PUSH2 0x1C04 JUMP JUMPDEST PUSH2 0x154D JUMP JUMPDEST PUSH1 0x40 MLOAD PUSH1 0x20 ADD PUSH2 0x1419 SWAP4 SWAP3 SWAP2 SWAP1 PUSH2 0x2DD0 JUMP JUMPDEST PUSH1 0x40 MLOAD PUSH1 0x20 DUP2 DUP4 SUB SUB DUP2 MSTORE SWAP1 PUSH1 0x40 MSTORE SWAP1 POP DUP2 DUP2 PUSH1 0x40 MLOAD PUSH1 0x20 ADD PUSH2 0x143D SWAP3 SWAP2 SWAP1 PUSH2 0x2E01 JUMP JUMPDEST PUSH1 0x40 MLOAD PUSH1 0x20 DUP2 DUP4 SUB SUB DUP2 MSTORE SWAP1 PUSH1 0x40 MSTORE SWAP3 POP DUP3 SWAP4 POP POP POP POP SWAP4 SWAP3 POP POP POP JUMP JUMPDEST PUSH1 0x0 PUSH2 0x1468 DUP3 PUSH1 0x4 PUSH2 0xB74 JUMP JUMPDEST PUSH1 0xFF AND PUSH2 0x1476 DUP4 PUSH1 0x3 PUSH2 0xB74 JUMP JUMPDEST PUSH1 0xFF AND PUSH2 0x1484 DUP5 PUSH1 0x2 PUSH2 0xB74 JUMP JUMPDEST PUSH1 0xFF AND PUSH2 0x1491 SWAP2 SWAP1 PUSH2 0x20B7 JUMP JUMPDEST PUSH2 0x149B SWAP2 SWAP1 PUSH2 0x20B7 JUMP JUMPDEST SWAP1 POP SWAP2 SWAP1 POP JUMP JUMPDEST PUSH1 0x60 DUP3 DUP3 PUSH1 0x40 MLOAD PUSH1 0x20 ADD PUSH2 0x14B7 SWAP3 SWAP2 SWAP1 PUSH2 0x2ECB JUMP JUMPDEST PUSH1 0x40 MLOAD PUSH1 0x20 DUP2 DUP4 SUB SUB DUP2 MSTORE SWAP1 PUSH1 0x40 MSTORE SWAP1 POP SWAP3 SWAP2 POP POP JUMP JUMPDEST PUSH1 0x60 DUP3 DUP3 PUSH1 0x40 MLOAD PUSH1 0x20 ADD PUSH2 0x14E3 SWAP3 SWAP2 SWAP1 PUSH2 0x2F68 JUMP JUMPDEST PUSH1 0x40 MLOAD PUSH1 0x20 DUP2 DUP4 SUB SUB DUP2 MSTORE SWAP1 PUSH1 0x40 MSTORE SWAP1 POP SWAP3 SWAP2 POP POP JUMP JUMPDEST PUSH1 0x60 PUSH2 0x1511 PUSH1 0x1 DUP4 PUSH2 0x150C SWAP2 SWAP1 PUSH2 0x1C04 JUMP JUMPDEST PUSH2 0x660 JUMP JUMPDEST PUSH2 0x1526 PUSH1 0x1 DUP5 PUSH2 0x1521 SWAP2 SWAP1 PUSH2 0x1C04 JUMP JUMPDEST PUSH2 0x660 JUMP JUMPDEST PUSH1 0x40 MLOAD PUSH1 0x20 ADD PUSH2 0x1537 SWAP3 SWAP2 SWAP1 PUSH2 0x3181 JUMP JUMPDEST PUSH1 0x40 MLOAD PUSH1 0x20 DUP2 DUP4 SUB SUB DUP2 MSTORE SWAP1 PUSH1 0x40 MSTORE SWAP1 POP SWAP2 SWAP1 POP JUMP JUMPDEST PUSH1 0x60 PUSH1 0x0 PUSH2 0x155A DUP5 PUSH2 0x15A3 JUMP JUMPDEST SWAP1 POP PUSH2 0x1571 PUSH1 0x1 DUP5 PUSH2 0x156C SWAP2 SWAP1 PUSH2 0x1C04 JUMP JUMPDEST PUSH2 0x660 JUMP JUMPDEST PUSH2 0x157A DUP3 PUSH2 0x660 JUMP JUMPDEST PUSH1 0x40 MLOAD PUSH1 0x20 ADD PUSH2 0x158B SWAP3 SWAP2 SWAP1 PUSH2 0x328F JUMP JUMPDEST PUSH1 0x40 MLOAD PUSH1 0x20 DUP2 DUP4 SUB SUB DUP2 MSTORE SWAP1 PUSH1 0x40 MSTORE SWAP2 POP POP SWAP3 SWAP2 POP POP JUMP JUMPDEST PUSH1 0x0 PUSH2 0x100 PUSH2 0x168 PUSH2 0x15B6 DUP5 PUSH1 0xA PUSH2 0xB74 JUMP JUMPDEST PUSH1 0xFF AND PUSH2 0x15C3 SWAP2 SWAP1 PUSH2 0x20B7 JUMP JUMPDEST PUSH2 0x15CD SWAP2 SWAP1 PUSH2 0x2052 JUMP JUMPDEST SWAP1 POP SWAP2 SWAP1 POP JUMP JUMPDEST PUSH1 0x0 PUSH1 0x40 MLOAD SWAP1 POP SWAP1 JUMP JUMPDEST PUSH1 0x0 DUP1 REVERT JUMPDEST PUSH1 0x0 DUP1 REVERT JUMPDEST PUSH1 0x0 DUP2 SWAP1 POP SWAP2 SWAP1 POP JUMP JUMPDEST PUSH2 0x15FB DUP2 PUSH2 0x15E8 JUMP JUMPDEST DUP2 EQ PUSH2 0x1606 JUMPI PUSH1 0x0 DUP1 REVERT JUMPDEST POP JUMP JUMPDEST PUSH1 0x0 DUP2 CALLDATALOAD SWAP1 POP PUSH2 0x1618 DUP2 PUSH2 0x15F2 JUMP JUMPDEST SWAP3 SWAP2 POP POP JUMP JUMPDEST PUSH1 0x0 PUSH1 0x20 DUP3 DUP5 SUB SLT ISZERO PUSH2 0x1634 JUMPI PUSH2 0x1633 PUSH2 0x15DE JUMP JUMPDEST JUMPDEST PUSH1 0x0 PUSH2 0x1642 DUP5 DUP3 DUP6 ADD PUSH2 0x1609 JUMP JUMPDEST SWAP2 POP POP SWAP3 SWAP2 POP POP JUMP JUMPDEST PUSH1 0x0 DUP2 MLOAD SWAP1 POP SWAP2 SWAP1 POP JUMP JUMPDEST PUSH1 0x0 DUP3 DUP3 MSTORE PUSH1 0x20 DUP3 ADD SWAP1 POP SWAP3 SWAP2 POP POP JUMP JUMPDEST PUSH1 0x0 JUMPDEST DUP4 DUP2 LT ISZERO PUSH2 0x1685 JUMPI DUP1 DUP3 ADD MLOAD DUP2 DUP5 ADD MSTORE PUSH1 0x20 DUP2 ADD SWAP1 POP PUSH2 0x166A JUMP JUMPDEST DUP4 DUP2 GT ISZERO PUSH2 0x1694 JUMPI PUSH1 0x0 DUP5 DUP5 ADD MSTORE JUMPDEST POP POP POP POP JUMP JUMPDEST PUSH1 0x0 PUSH1 0x1F NOT PUSH1 0x1F DUP4 ADD AND SWAP1 POP SWAP2 SWAP1 POP JUMP JUMPDEST PUSH1 0x0 PUSH2 0x16B6 DUP3 PUSH2 0x164B JUMP JUMPDEST PUSH2 0x16C0 DUP2 DUP6 PUSH2 0x1656 JUMP JUMPDEST SWAP4 POP PUSH2 0x16D0 DUP2 DUP6 PUSH1 0x20 DUP7 ADD PUSH2 0x1667 JUMP JUMPDEST PUSH2 0x16D9 DUP2 PUSH2 0x169A JUMP JUMPDEST DUP5 ADD SWAP2 POP POP SWAP3 SWAP2 POP POP JUMP JUMPDEST PUSH1 0x0 PUSH1 0x20 DUP3 ADD SWAP1 POP DUP2 DUP2 SUB PUSH1 0x0 DUP4 ADD MSTORE PUSH2 0x16FE DUP2 DUP5 PUSH2 0x16AB JUMP JUMPDEST SWAP1 POP SWAP3 SWAP2 POP POP JUMP JUMPDEST PUSH1 0x0 DUP1 REVERT JUMPDEST PUSH1 0x0 DUP1 REVERT JUMPDEST PUSH32 0x4E487B7100000000000000000000000000000000000000000000000000000000 PUSH1 0x0 MSTORE PUSH1 0x41 PUSH1 0x4 MSTORE PUSH1 0x24 PUSH1 0x0 REVERT JUMPDEST PUSH2 0x1748 DUP3 PUSH2 0x169A JUMP JUMPDEST DUP2 ADD DUP2 DUP2 LT PUSH8 0xFFFFFFFFFFFFFFFF DUP3 GT OR ISZERO PUSH2 0x1767 JUMPI PUSH2 0x1766 PUSH2 0x1710 JUMP JUMPDEST JUMPDEST DUP1 PUSH1 0x40 MSTORE POP POP POP JUMP JUMPDEST PUSH1 0x0 PUSH2 0x177A PUSH2 0x15D4 JUMP JUMPDEST SWAP1 POP PUSH2 0x1786 DUP3 DUP3 PUSH2 0x173F JUMP JUMPDEST SWAP2 SWAP1 POP JUMP JUMPDEST PUSH1 0x0 PUSH8 0xFFFFFFFFFFFFFFFF DUP3 GT ISZERO PUSH2 0x17A6 JUMPI PUSH2 0x17A5 PUSH2 0x1710 JUMP JUMPDEST JUMPDEST PUSH2 0x17AF DUP3 PUSH2 0x169A JUMP JUMPDEST SWAP1 POP PUSH1 0x20 DUP2 ADD SWAP1 POP SWAP2 SWAP1 POP JUMP JUMPDEST DUP3 DUP2 DUP4 CALLDATACOPY PUSH1 0x0 DUP4 DUP4 ADD MSTORE POP POP POP JUMP JUMPDEST PUSH1 0x0 PUSH2 0x17DE PUSH2 0x17D9 DUP5 PUSH2 0x178B JUMP JUMPDEST PUSH2 0x1770 JUMP JUMPDEST SWAP1 POP DUP3 DUP2 MSTORE PUSH1 0x20 DUP2 ADD DUP5 DUP5 DUP5 ADD GT ISZERO PUSH2 0x17FA JUMPI PUSH2 0x17F9 PUSH2 0x170B JUMP JUMPDEST JUMPDEST PUSH2 0x1805 DUP5 DUP3 DUP6 PUSH2 0x17BC JUMP JUMPDEST POP SWAP4 SWAP3 POP POP POP JUMP JUMPDEST PUSH1 0x0 DUP3 PUSH1 0x1F DUP4 ADD SLT PUSH2 0x1822 JUMPI PUSH2 0x1821 PUSH2 0x1706 JUMP JUMPDEST JUMPDEST DUP2 CALLDATALOAD PUSH2 0x1832 DUP5 DUP3 PUSH1 0x20 DUP7 ADD PUSH2 0x17CB JUMP JUMPDEST SWAP2 POP POP SWAP3 SWAP2 POP POP JUMP JUMPDEST PUSH1 0x0 DUP2 ISZERO ISZERO SWAP1 POP SWAP2 SWAP1 POP JUMP JUMPDEST PUSH2 0x1850 DUP2 PUSH2 0x183B JUMP JUMPDEST DUP2 EQ PUSH2 0x185B JUMPI PUSH1 0x0 DUP1 REVERT JUMPDEST POP JUMP JUMPDEST PUSH1 0x0 DUP2 CALLDATALOAD SWAP1 POP PUSH2 0x186D DUP2 PUSH2 0x1847 JUMP JUMPDEST SWAP3 SWAP2 POP POP JUMP JUMPDEST PUSH1 0x0 DUP1 PUSH1 0x40 DUP4 DUP6 SUB SLT ISZERO PUSH2 0x188A JUMPI PUSH2 0x1889 PUSH2 0x15DE JUMP JUMPDEST JUMPDEST PUSH1 0x0 DUP4 ADD CALLDATALOAD PUSH8 0xFFFFFFFFFFFFFFFF DUP2 GT ISZERO PUSH2 0x18A8 JUMPI PUSH2 0x18A7 PUSH2 0x15E3 JUMP JUMPDEST JUMPDEST PUSH2 0x18B4 DUP6 DUP3 DUP7 ADD PUSH2 0x180D JUMP JUMPDEST SWAP3 POP POP PUSH1 0x20 PUSH2 0x18C5 DUP6 DUP3 DUP7 ADD PUSH2 0x185E JUMP JUMPDEST SWAP2 POP POP SWAP3 POP SWAP3 SWAP1 POP JUMP JUMPDEST PUSH1 0x0 DUP1 PUSH1 0x40 DUP4 DUP6 SUB SLT ISZERO PUSH2 0x18E6 JUMPI PUSH2 0x18E5 PUSH2 0x15DE JUMP JUMPDEST JUMPDEST PUSH1 0x0 PUSH2 0x18F4 DUP6 DUP3 DUP7 ADD PUSH2 0x1609 JUMP JUMPDEST SWAP3 POP POP PUSH1 0x20 PUSH2 0x1905 DUP6 DUP3 DUP7 ADD PUSH2 0x185E JUMP JUMPDEST SWAP2 POP POP SWAP3 POP SWAP3 SWAP1 POP JUMP JUMPDEST PUSH1 0x0 PUSH8 0xFFFFFFFFFFFFFFFF DUP3 GT ISZERO PUSH2 0x192A JUMPI PUSH2 0x1929 PUSH2 0x1710 JUMP JUMPDEST JUMPDEST PUSH1 0x20 DUP3 MUL SWAP1 POP SWAP2 SWAP1 POP JUMP JUMPDEST PUSH1 0x0 DUP1 REVERT JUMPDEST PUSH1 0x0 PUSH8 0xFFFFFFFFFFFFFFFF DUP3 GT ISZERO PUSH2 0x1955 JUMPI PUSH2 0x1954 PUSH2 0x1710 JUMP JUMPDEST JUMPDEST PUSH2 0x195E DUP3 PUSH2 0x169A JUMP JUMPDEST SWAP1 POP PUSH1 0x20 DUP2 ADD SWAP1 POP SWAP2 SWAP1 POP JUMP JUMPDEST PUSH1 0x0 PUSH2 0x197E PUSH2 0x1979 DUP5 PUSH2 0x193A JUMP JUMPDEST PUSH2 0x1770 JUMP JUMPDEST SWAP1 POP DUP3 DUP2 MSTORE PUSH1 0x20 DUP2 ADD DUP5 DUP5 DUP5 ADD GT ISZERO PUSH2 0x199A JUMPI PUSH2 0x1999 PUSH2 0x170B JUMP JUMPDEST JUMPDEST PUSH2 0x19A5 DUP5 DUP3 DUP6 PUSH2 0x17BC JUMP JUMPDEST POP SWAP4 SWAP3 POP POP POP JUMP JUMPDEST PUSH1 0x0 DUP3 PUSH1 0x1F DUP4 ADD SLT PUSH2 0x19C2 JUMPI PUSH2 0x19C1 PUSH2 0x1706 JUMP JUMPDEST JUMPDEST DUP2 CALLDATALOAD PUSH2 0x19D2 DUP5 DUP3 PUSH1 0x20 DUP7 ADD PUSH2 0x196B JUMP JUMPDEST SWAP2 POP POP SWAP3 SWAP2 POP POP JUMP JUMPDEST PUSH1 0x0 PUSH2 0x19EE PUSH2 0x19E9 DUP5 PUSH2 0x190F JUMP JUMPDEST PUSH2 0x1770 JUMP JUMPDEST SWAP1 POP DUP1 PUSH1 0x20 DUP5 MUL DUP4 ADD DUP6 DUP2 GT ISZERO PUSH2 0x1A08 JUMPI PUSH2 0x1A07 PUSH2 0x1935 JUMP JUMPDEST JUMPDEST DUP4 JUMPDEST DUP2 DUP2 LT ISZERO PUSH2 0x1A4F JUMPI DUP1 CALLDATALOAD PUSH8 0xFFFFFFFFFFFFFFFF DUP2 GT ISZERO PUSH2 0x1A2D JUMPI PUSH2 0x1A2C PUSH2 0x1706 JUMP JUMPDEST JUMPDEST DUP1 DUP7 ADD PUSH2 0x1A3A DUP10 DUP3 PUSH2 0x19AD JUMP JUMPDEST DUP6 MSTORE PUSH1 0x20 DUP6 ADD SWAP5 POP POP POP PUSH1 0x20 DUP2 ADD SWAP1 POP PUSH2 0x1A0A JUMP JUMPDEST POP POP POP SWAP4 SWAP3 POP POP POP JUMP JUMPDEST PUSH1 0x0 DUP3 PUSH1 0x1F DUP4 ADD SLT PUSH2 0x1A6E JUMPI PUSH2 0x1A6D PUSH2 0x1706 JUMP JUMPDEST JUMPDEST PUSH1 0x3 PUSH2 0x1A7B DUP5 DUP3 DUP6 PUSH2 0x19DB JUMP JUMPDEST SWAP2 POP POP SWAP3 SWAP2 POP POP JUMP JUMPDEST PUSH1 0x0 DUP1 PUSH1 0x0 PUSH1 0x60 DUP5 DUP7 SUB SLT ISZERO PUSH2 0x1A9D JUMPI PUSH2 0x1A9C PUSH2 0x15DE JUMP JUMPDEST JUMPDEST PUSH1 0x0 DUP5 ADD CALLDATALOAD PUSH8 0xFFFFFFFFFFFFFFFF DUP2 GT ISZERO PUSH2 0x1ABB JUMPI PUSH2 0x1ABA PUSH2 0x15E3 JUMP JUMPDEST JUMPDEST PUSH2 0x1AC7 DUP7 DUP3 DUP8 ADD PUSH2 0x180D JUMP JUMPDEST SWAP4 POP POP PUSH1 0x20 DUP5 ADD CALLDATALOAD PUSH8 0xFFFFFFFFFFFFFFFF DUP2 GT ISZERO PUSH2 0x1AE8 JUMPI PUSH2 0x1AE7 PUSH2 0x15E3 JUMP JUMPDEST JUMPDEST PUSH2 0x1AF4 DUP7 DUP3 DUP8 ADD PUSH2 0x1A59 JUMP JUMPDEST SWAP3 POP POP PUSH1 0x40 DUP5 ADD CALLDATALOAD PUSH8 0xFFFFFFFFFFFFFFFF DUP2 GT ISZERO PUSH2 0x1B15 JUMPI PUSH2 0x1B14 PUSH2 0x15E3 JUMP JUMPDEST JUMPDEST PUSH2 0x1B21 DUP7 DUP3 DUP8 ADD PUSH2 0x1A59 JUMP JUMPDEST SWAP2 POP POP SWAP3 POP SWAP3 POP SWAP3 JUMP JUMPDEST PUSH1 0x0 DUP2 SWAP1 POP SWAP3 SWAP2 POP POP JUMP JUMPDEST PUSH32 0x4461697379636861696E20230000000000000000000000000000000000000000 PUSH1 0x0 DUP3 ADD MSTORE POP JUMP JUMPDEST PUSH1 0x0 PUSH2 0x1B6C PUSH1 0xC DUP4 PUSH2 0x1B2B JUMP JUMPDEST SWAP2 POP PUSH2 0x1B77 DUP3 PUSH2 0x1B36 JUMP JUMPDEST PUSH1 0xC DUP3 ADD SWAP1 POP SWAP2 SWAP1 POP JUMP JUMPDEST PUSH1 0x0 PUSH2 0x1B8D DUP3 PUSH2 0x164B JUMP JUMPDEST PUSH2 0x1B97 DUP2 DUP6 PUSH2 0x1B2B JUMP JUMPDEST SWAP4 POP PUSH2 0x1BA7 DUP2 DUP6 PUSH1 0x20 DUP7 ADD PUSH2 0x1667 JUMP JUMPDEST DUP1 DUP5 ADD SWAP2 POP POP SWAP3 SWAP2 POP POP JUMP JUMPDEST PUSH1 0x0 PUSH2 0x1BBE DUP3 PUSH2 0x1B5F JUMP JUMPDEST SWAP2 POP PUSH2 0x1BCA DUP3 DUP5 PUSH2 0x1B82 JUMP JUMPDEST SWAP2 POP DUP2 SWAP1 POP SWAP3 SWAP2 POP POP JUMP JUMPDEST PUSH32 0x4E487B7100000000000000000000000000000000000000000000000000000000 PUSH1 0x0 MSTORE PUSH1 0x11 PUSH1 0x4 MSTORE PUSH1 0x24 PUSH1 0x0 REVERT JUMPDEST PUSH1 0x0 PUSH2 0x1C0F DUP3 PUSH2 0x15E8 JUMP JUMPDEST SWAP2 POP PUSH2 0x1C1A DUP4 PUSH2 0x15E8 JUMP JUMPDEST SWAP3 POP DUP3 PUSH32 0xFFFFFFFFFFFFFFFFFFFFFFFFFFFFFFFFFFFFFFFFFFFFFFFFFFFFFFFFFFFFFFFF SUB DUP3 GT ISZERO PUSH2 0x1C4F JUMPI PUSH2 0x1C4E PUSH2 0x1BD5 JUMP JUMPDEST JUMPDEST DUP3 DUP3 ADD SWAP1 POP SWAP3 SWAP2 POP POP JUMP JUMPDEST PUSH32 0x3020000000000000000000000000000000000000000000000000000000000000 DUP2 MSTORE POP JUMP JUMPDEST PUSH1 0x0 PUSH2 0x1C8C DUP3 DUP5 PUSH2 0x1B82 JUMP JUMPDEST SWAP2 POP PUSH2 0x1C97 DUP3 PUSH2 0x1C5A JUMP JUMPDEST PUSH1 0x2 DUP3 ADD SWAP2 POP DUP2 SWAP1 POP SWAP3 SWAP2 POP POP JUMP JUMPDEST PUSH32 0x3120000000000000000000000000000000000000000000000000000000000000 DUP2 MSTORE POP JUMP JUMPDEST PUSH1 0x0 PUSH2 0x1CD8 DUP3 DUP5 PUSH2 0x1B82 JUMP JUMPDEST SWAP2 POP PUSH2 0x1CE3 DUP3 PUSH2 0x1CA6 JUMP JUMPDEST PUSH1 0x2 DUP3 ADD SWAP2 POP DUP2 SWAP1 POP SWAP3 SWAP2 POP POP JUMP JUMPDEST PUSH32 0x2000000000000000000000000000000000000000000000000000000000000000 DUP2 MSTORE POP JUMP JUMPDEST PUSH1 0x0 PUSH2 0x1D24 DUP3 DUP6 PUSH2 0x1B82 JUMP JUMPDEST SWAP2 POP PUSH2 0x1D30 DUP3 DUP5 PUSH2 0x1B82 JUMP JUMPDEST SWAP2 POP PUSH2 0x1D3B DUP3 PUSH2 0x1CF2 JUMP JUMPDEST PUSH1 0x1 DUP3 ADD SWAP2 POP DUP2 SWAP1 POP SWAP4 SWAP3 POP POP POP JUMP JUMPDEST PUSH32 0x2D00000000000000000000000000000000000000000000000000000000000000 DUP2 MSTORE POP JUMP JUMPDEST PUSH1 0x0 PUSH2 0x1D7D DUP3 DUP6 PUSH2 0x1B82 JUMP JUMPDEST SWAP2 POP PUSH2 0x1D88 DUP3 PUSH2 0x1D4B JUMP JUMPDEST PUSH1 0x1 DUP3 ADD SWAP2 POP PUSH2 0x1D98 DUP3 DUP5 PUSH2 0x1B82 JUMP JUMPDEST SWAP2 POP PUSH2 0x1DA3 DUP3 PUSH2 0x1CF2 JUMP JUMPDEST PUSH1 0x1 DUP3 ADD SWAP2 POP DUP2 SWAP1 POP SWAP4 SWAP3 POP POP POP JUMP JUMPDEST PUSH1 0x0 DUP2 SWAP1 POP SWAP2 SWAP1 POP JUMP JUMPDEST PUSH1 0x0 DUP2 SWAP1 POP SWAP2 SWAP1 POP JUMP JUMPDEST PUSH2 0x1DD8 PUSH2 0x1DD3 DUP3 PUSH2 0x1DB3 JUMP JUMPDEST PUSH2 0x1DBD JUMP JUMPDEST DUP3 MSTORE POP POP JUMP JUMPDEST PUSH1 0x0 PUSH2 0x1DEA DUP3 DUP5 PUSH2 0x1DC7 JUMP JUMPDEST PUSH1 0x20 DUP3 ADD SWAP2 POP DUP2 SWAP1 POP SWAP3 SWAP2 POP POP JUMP JUMPDEST PUSH32 0x2261747472696275746573223A205B0000000000000000000000000000000000 PUSH1 0x0 DUP3 ADD MSTORE POP JUMP JUMPDEST PUSH1 0x0 PUSH2 0x1E2F PUSH1 0xF DUP4 PUSH2 0x1B2B JUMP JUMPDEST SWAP2 POP PUSH2 0x1E3A DUP3 PUSH2 0x1DF9 JUMP JUMPDEST PUSH1 0xF DUP3 ADD SWAP1 POP SWAP2 SWAP1 POP JUMP JUMPDEST PUSH32 0x2C00000000000000000000000000000000000000000000000000000000000000 PUSH1 0x0 DUP3 ADD MSTORE POP JUMP JUMPDEST PUSH1 0x0 PUSH2 0x1E7B PUSH1 0x1 DUP4 PUSH2 0x1B2B JUMP JUMPDEST SWAP2 POP PUSH2 0x1E86 DUP3 PUSH2 0x1E45 JUMP JUMPDEST PUSH1 0x1 DUP3 ADD SWAP1 POP SWAP2 SWAP1 POP JUMP JUMPDEST PUSH32 0x5D00000000000000000000000000000000000000000000000000000000000000 PUSH1 0x0 DUP3 ADD MSTORE POP JUMP JUMPDEST PUSH1 0x0 PUSH2 0x1EC7 PUSH1 0x1 DUP4 PUSH2 0x1B2B JUMP JUMPDEST SWAP2 POP PUSH2 0x1ED2 DUP3 PUSH2 0x1E91 JUMP JUMPDEST PUSH1 0x1 DUP3 ADD SWAP1 POP SWAP2 SWAP1 POP JUMP JUMPDEST PUSH1 0x0 PUSH2 0x1EE8 DUP3 PUSH2 0x1E22 JUMP JUMPDEST SWAP2 POP PUSH2 0x1EF4 DUP3 DUP6 PUSH2 0x1B82 JUMP JUMPDEST SWAP2 POP PUSH2 0x1EFF DUP3 PUSH2 0x1E6E JUMP JUMPDEST SWAP2 POP PUSH2 0x1F0B DUP3 DUP5 PUSH2 0x1B82 JUMP JUMPDEST SWAP2 POP PUSH2 0x1F16 DUP3 PUSH2 0x1EBA JUMP JUMPDEST SWAP2 POP DUP2 SWAP1 POP SWAP4 SWAP3 POP POP POP JUMP JUMPDEST PUSH1 0x0 DUP2 SWAP1 POP SWAP2 SWAP1 POP JUMP JUMPDEST PUSH2 0x1F3D PUSH2 0x1F38 DUP3 PUSH2 0x15E8 JUMP JUMPDEST PUSH2 0x1F22 JUMP JUMPDEST DUP3 MSTORE POP POP JUMP JUMPDEST PUSH1 0x0 PUSH2 0x1F4F DUP3 DUP5 PUSH2 0x1F2C JUMP JUMPDEST PUSH1 0x20 DUP3 ADD SWAP2 POP DUP2 SWAP1 POP SWAP3 SWAP2 POP POP JUMP JUMPDEST PUSH32 0x4E487B7100000000000000000000000000000000000000000000000000000000 PUSH1 0x0 MSTORE PUSH1 0x32 PUSH1 0x4 MSTORE PUSH1 0x24 PUSH1 0x0 REVERT JUMPDEST PUSH1 0x0 PUSH2 0x1F99 DUP3 DUP8 PUSH2 0x1B82 JUMP JUMPDEST SWAP2 POP PUSH2 0x1FA5 DUP3 DUP7 PUSH2 0x1B82 JUMP JUMPDEST SWAP2 POP PUSH2 0x1FB0 DUP3 PUSH2 0x1CF2 JUMP JUMPDEST PUSH1 0x1 DUP3 ADD SWAP2 POP PUSH2 0x1FC0 DUP3 DUP6 PUSH2 0x1B82 JUMP JUMPDEST SWAP2 POP PUSH2 0x1FCC DUP3 DUP5 PUSH2 0x1B82 JUMP JUMPDEST SWAP2 POP DUP2 SWAP1 POP SWAP6 SWAP5 POP POP POP POP POP JUMP JUMPDEST PUSH1 0x0 PUSH2 0x1FE5 DUP3 PUSH2 0x15E8 JUMP JUMPDEST SWAP2 POP PUSH32 0xFFFFFFFFFFFFFFFFFFFFFFFFFFFFFFFFFFFFFFFFFFFFFFFFFFFFFFFFFFFFFFFF DUP3 EQ ISZERO PUSH2 0x2018 JUMPI PUSH2 0x2017 PUSH2 0x1BD5 JUMP JUMPDEST JUMPDEST PUSH1 0x1 DUP3 ADD SWAP1 POP SWAP2 SWAP1 POP JUMP JUMPDEST PUSH32 0x4E487B7100000000000000000000000000000000000000000000000000000000 PUSH1 0x0 MSTORE PUSH1 0x12 PUSH1 0x4 MSTORE PUSH1 0x24 PUSH1 0x0 REVERT JUMPDEST PUSH1 0x0 PUSH2 0x205D DUP3 PUSH2 0x15E8 JUMP JUMPDEST SWAP2 POP PUSH2 0x2068 DUP4 PUSH2 0x15E8 JUMP JUMPDEST SWAP3 POP DUP3 PUSH2 0x2078 JUMPI PUSH2 0x2077 PUSH2 0x2023 JUMP JUMPDEST JUMPDEST DUP3 DUP3 DIV SWAP1 POP SWAP3 SWAP2 POP POP JUMP JUMPDEST PUSH1 0x0 PUSH2 0x208E DUP3 PUSH2 0x15E8 JUMP JUMPDEST SWAP2 POP PUSH2 0x2099 DUP4 PUSH2 0x15E8 JUMP JUMPDEST SWAP3 POP DUP3 DUP3 LT ISZERO PUSH2 0x20AC JUMPI PUSH2 0x20AB PUSH2 0x1BD5 JUMP JUMPDEST JUMPDEST DUP3 DUP3 SUB SWAP1 POP SWAP3 SWAP2 POP POP JUMP JUMPDEST PUSH1 0x0 PUSH2 0x20C2 DUP3 PUSH2 0x15E8 JUMP JUMPDEST SWAP2 POP PUSH2 0x20CD DUP4 PUSH2 0x15E8 JUMP JUMPDEST SWAP3 POP DUP2 PUSH32 0xFFFFFFFFFFFFFFFFFFFFFFFFFFFFFFFFFFFFFFFFFFFFFFFFFFFFFFFFFFFFFFFF DIV DUP4 GT DUP3 ISZERO ISZERO AND ISZERO PUSH2 0x2106 JUMPI PUSH2 0x2105 PUSH2 0x1BD5 JUMP JUMPDEST JUMPDEST DUP3 DUP3 MUL SWAP1 POP SWAP3 SWAP2 POP POP JUMP JUMPDEST PUSH1 0x0 PUSH1 0xFF DUP3 AND SWAP1 POP SWAP2 SWAP1 POP JUMP JUMPDEST PUSH1 0x0 PUSH2 0x2129 DUP3 PUSH2 0x2111 JUMP JUMPDEST SWAP2 POP PUSH2 0x2134 DUP4 PUSH2 0x2111 JUMP JUMPDEST SWAP3 POP DUP3 PUSH1 0xFF SUB DUP3 GT ISZERO PUSH2 0x214A JUMPI PUSH2 0x2149 PUSH2 0x1BD5 JUMP JUMPDEST JUMPDEST DUP3 DUP3 ADD SWAP1 POP SWAP3 SWAP2 POP POP JUMP JUMPDEST PUSH32 0x7B2274726169745F74797065223A202200000000000000000000000000000000 DUP2 MSTORE POP JUMP JUMPDEST PUSH32 0x222C202276616C7565223A202200000000000000000000000000000000000000 DUP2 MSTORE POP JUMP JUMPDEST PUSH32 0x227D000000000000000000000000000000000000000000000000000000000000 DUP2 MSTORE POP JUMP JUMPDEST PUSH1 0x0 PUSH2 0x21D2 DUP3 PUSH2 0x2155 JUMP JUMPDEST PUSH1 0x10 DUP3 ADD SWAP2 POP PUSH2 0x21E2 DUP3 DUP6 PUSH2 0x1B82 JUMP JUMPDEST SWAP2 POP PUSH2 0x21ED DUP3 PUSH2 0x217B JUMP JUMPDEST PUSH1 0xD DUP3 ADD SWAP2 POP PUSH2 0x21FD DUP3 DUP5 PUSH2 0x1B82 JUMP JUMPDEST SWAP2 POP PUSH2 0x2208 DUP3 PUSH2 0x21A1 JUMP JUMPDEST PUSH1 0x2 DUP3 ADD SWAP2 POP DUP2 SWAP1 POP SWAP4 SWAP3 POP POP POP JUMP JUMPDEST PUSH1 0x0 PUSH2 0x2223 DUP3 PUSH2 0x2111 JUMP JUMPDEST SWAP2 POP PUSH2 0x222E DUP4 PUSH2 0x2111 JUMP JUMPDEST SWAP3 POP DUP3 PUSH2 0x223E JUMPI PUSH2 0x223D PUSH2 0x2023 JUMP JUMPDEST JUMPDEST DUP3 DUP3 DIV SWAP1 POP SWAP3 SWAP2 POP POP JUMP JUMPDEST PUSH32 0x3C73766720786D6C6E733D22687474703A2F2F7777772E77332E6F72672F3230 PUSH1 0x0 DUP3 ADD MSTORE PUSH32 0x30302F737667222077696474683D2233303022206865696768743D2233303022 PUSH1 0x20 DUP3 ADD MSTORE PUSH32 0x207374796C653D226261636B67726F756E643A236666662220786D6C6E733A78 PUSH1 0x40 DUP3 ADD MSTORE PUSH32 0x6C696E6B3D22687474703A2F2F7777772E77332E6F72672F313939392F786C69 PUSH1 0x60 DUP3 ADD MSTORE PUSH32 0x6E6B223E00000000000000000000000000000000000000000000000000000000 PUSH1 0x80 DUP3 ADD MSTORE POP JUMP JUMPDEST PUSH1 0x0 PUSH2 0x2317 PUSH1 0x84 DUP4 PUSH2 0x1B2B JUMP JUMPDEST SWAP2 POP PUSH2 0x2322 DUP3 PUSH2 0x2249 JUMP JUMPDEST PUSH1 0x84 DUP3 ADD SWAP1 POP SWAP2 SWAP1 POP JUMP JUMPDEST PUSH32 0x3C672069643D22656E74697265223E0000000000000000000000000000000000 DUP2 MSTORE POP JUMP JUMPDEST PUSH32 0x3C75736520786C696E6B3A687265663D2223666C6F7765722220636C69702D70 PUSH1 0x0 DUP3 ADD MSTORE PUSH32 0x6174683D2275726C282368616C66436C69702922207472616E73666F726D3D22 PUSH1 0x20 DUP3 ADD MSTORE PUSH32 0x726F7461746528302C203135302C2031353029222F3E00000000000000000000 PUSH1 0x40 DUP3 ADD MSTORE POP JUMP JUMPDEST PUSH1 0x0 PUSH2 0x23D5 PUSH1 0x56 DUP4 PUSH2 0x1B2B JUMP JUMPDEST SWAP2 POP PUSH2 0x23E0 DUP3 PUSH2 0x2353 JUMP JUMPDEST PUSH1 0x56 DUP3 ADD SWAP1 POP SWAP2 SWAP1 POP JUMP JUMPDEST PUSH32 0x3C75736520786C696E6B3A687265663D2223666C6F7765722220636C69702D70 PUSH1 0x0 DUP3 ADD MSTORE PUSH32 0x6174683D2275726C282368616C66436C69702922207472616E73666F726D3D22 PUSH1 0x20 DUP3 ADD MSTORE PUSH32 0x726F74617465283138302C203135302C2031353029222F3E0000000000000000 PUSH1 0x40 DUP3 ADD MSTORE POP JUMP JUMPDEST PUSH1 0x0 PUSH2 0x246D PUSH1 0x58 DUP4 PUSH2 0x1B2B JUMP JUMPDEST SWAP2 POP PUSH2 0x2478 DUP3 PUSH2 0x23EB JUMP JUMPDEST PUSH1 0x58 DUP3 ADD SWAP1 POP SWAP2 SWAP1 POP JUMP JUMPDEST PUSH32 0x3C2F673E00000000000000000000000000000000000000000000000000000000 DUP2 MSTORE POP JUMP JUMPDEST PUSH32 0x3C2F7376673E0000000000000000000000000000000000000000000000000000 DUP2 MSTORE POP JUMP JUMPDEST PUSH1 0x0 PUSH2 0x24DA DUP3 PUSH2 0x230A JUMP JUMPDEST SWAP2 POP PUSH2 0x24E6 DUP3 DUP7 PUSH2 0x1B82 JUMP JUMPDEST SWAP2 POP PUSH2 0x24F2 DUP3 DUP6 PUSH2 0x1B82 JUMP JUMPDEST SWAP2 POP PUSH2 0x24FD DUP3 PUSH2 0x232D JUMP JUMPDEST PUSH1 0xF DUP3 ADD SWAP2 POP PUSH2 0x250D DUP3 DUP5 PUSH2 0x1B82 JUMP JUMPDEST SWAP2 POP PUSH2 0x2518 DUP3 PUSH2 0x23C8 JUMP JUMPDEST SWAP2 POP PUSH2 0x2523 DUP3 PUSH2 0x2460 JUMP JUMPDEST SWAP2 POP PUSH2 0x252E DUP3 PUSH2 0x2483 JUMP JUMPDEST PUSH1 0x4 DUP3 ADD SWAP2 POP PUSH2 0x253D DUP3 PUSH2 0x24A9 JUMP JUMPDEST PUSH1 0x6 DUP3 ADD SWAP2 POP DUP2 SWAP1 POP SWAP5 SWAP4 POP POP POP POP JUMP JUMPDEST PUSH32 0x746F55696E74385F6F766572666C6F7700000000000000000000000000000000 PUSH1 0x0 DUP3 ADD MSTORE POP JUMP JUMPDEST PUSH1 0x0 PUSH2 0x2584 PUSH1 0x10 DUP4 PUSH2 0x1656 JUMP JUMPDEST SWAP2 POP PUSH2 0x258F DUP3 PUSH2 0x254E JUMP JUMPDEST PUSH1 0x20 DUP3 ADD SWAP1 POP SWAP2 SWAP1 POP JUMP JUMPDEST PUSH1 0x0 PUSH1 0x20 DUP3 ADD SWAP1 POP DUP2 DUP2 SUB PUSH1 0x0 DUP4 ADD MSTORE PUSH2 0x25B3 DUP2 PUSH2 0x2577 JUMP JUMPDEST SWAP1 POP SWAP2 SWAP1 POP JUMP JUMPDEST PUSH32 0x746F55696E74385F6F75744F66426F756E647300000000000000000000000000 PUSH1 0x0 DUP3 ADD MSTORE POP JUMP JUMPDEST PUSH1 0x0 PUSH2 0x25F0 PUSH1 0x13 DUP4 PUSH2 0x1656 JUMP JUMPDEST SWAP2 POP PUSH2 0x25FB DUP3 PUSH2 0x25BA JUMP JUMPDEST PUSH1 0x20 DUP3 ADD SWAP1 POP SWAP2 SWAP1 POP JUMP JUMPDEST PUSH1 0x0 PUSH1 0x20 DUP3 ADD SWAP1 POP DUP2 DUP2 SUB PUSH1 0x0 DUP4 ADD MSTORE PUSH2 0x261F DUP2 PUSH2 0x25E3 JUMP JUMPDEST SWAP1 POP SWAP2 SWAP1 POP JUMP JUMPDEST PUSH32 0x3C66696C7465722069643D22626C7572223E0000000000000000000000000000 DUP2 MSTORE POP JUMP JUMPDEST PUSH32 0x3C6665476175737369616E426C757220737464446576696174696F6E3D223122 PUSH1 0x0 DUP3 ADD MSTORE PUSH32 0x2F3E000000000000000000000000000000000000000000000000000000000000 PUSH1 0x20 DUP3 ADD MSTORE POP JUMP JUMPDEST PUSH1 0x0 PUSH2 0x26A8 PUSH1 0x22 DUP4 PUSH2 0x1B2B JUMP JUMPDEST SWAP2 POP PUSH2 0x26B3 DUP3 PUSH2 0x264C JUMP JUMPDEST PUSH1 0x22 DUP3 ADD SWAP1 POP SWAP2 SWAP1 POP JUMP JUMPDEST PUSH32 0x3C2F66696C7465723E0000000000000000000000000000000000000000000000 DUP2 MSTORE POP JUMP JUMPDEST PUSH32 0x3C66696C7465722069643D227368617270223E00000000000000000000000000 DUP2 MSTORE POP JUMP JUMPDEST PUSH32 0x3C636C6970506174682069643D22626C7572436C6970223E0000000000000000 DUP2 MSTORE POP JUMP JUMPDEST PUSH32 0x3C7265637420783D223135302220793D22313530222077696474683D22333030 PUSH1 0x0 DUP3 ADD MSTORE PUSH32 0x22206865696768743D22333030222F3E00000000000000000000000000000000 PUSH1 0x20 DUP3 ADD MSTORE POP JUMP JUMPDEST PUSH1 0x0 PUSH2 0x278C PUSH1 0x30 DUP4 PUSH2 0x1B2B JUMP JUMPDEST SWAP2 POP PUSH2 0x2797 DUP3 PUSH2 0x2730 JUMP JUMPDEST PUSH1 0x30 DUP3 ADD SWAP1 POP SWAP2 SWAP1 POP JUMP JUMPDEST PUSH32 0x3C2F636C6970506174683E000000000000000000000000000000000000000000 DUP2 MSTORE POP JUMP JUMPDEST PUSH32 0x3C636C6970506174682069643D227061747465726E436C6970223E0000000000 DUP2 MSTORE POP JUMP JUMPDEST PUSH32 0x3C7061746820643D224D2031353020313530204C200000000000000000000000 DUP2 MSTORE POP JUMP JUMPDEST PUSH32 0x2031353020512000000000000000000000000000000000000000000000000000 DUP2 MSTORE POP JUMP JUMPDEST PUSH32 0x2031353020000000000000000000000000000000000000000000000000000000 DUP2 MSTORE POP JUMP JUMPDEST PUSH32 0x205A222F3E3C2F636C6970506174683E00000000000000000000000000000000 DUP2 MSTORE POP JUMP JUMPDEST PUSH32 0x3C636C6970506174682069643D2268616C66436C6970223E0000000000000000 DUP2 MSTORE POP JUMP JUMPDEST PUSH32 0x3C72656374207472616E73666F726D3D22726F7461746528312C203135302C20 PUSH1 0x0 DUP3 ADD MSTORE PUSH32 0x31353029222077696474683D2232363022206865696768743D22363130222078 PUSH1 0x20 DUP3 ADD MSTORE PUSH32 0x3D222D3131302220793D222D313130222F3E0000000000000000000000000000 PUSH1 0x40 DUP3 ADD MSTORE POP JUMP JUMPDEST PUSH1 0x0 PUSH2 0x292E PUSH1 0x52 DUP4 PUSH2 0x1B2B JUMP JUMPDEST SWAP2 POP PUSH2 0x2939 DUP3 PUSH2 0x28AC JUMP JUMPDEST PUSH1 0x52 DUP3 ADD SWAP1 POP SWAP2 SWAP1 POP JUMP JUMPDEST PUSH1 0x0 PUSH2 0x294F DUP3 PUSH2 0x2626 JUMP JUMPDEST PUSH1 0x12 DUP3 ADD SWAP2 POP PUSH2 0x295F DUP3 DUP10 PUSH2 0x1B82 JUMP JUMPDEST SWAP2 POP PUSH2 0x296A DUP3 PUSH2 0x269B JUMP JUMPDEST SWAP2 POP PUSH2 0x2975 DUP3 PUSH2 0x26BE JUMP JUMPDEST PUSH1 0x9 DUP3 ADD SWAP2 POP PUSH2 0x2984 DUP3 PUSH2 0x26E4 JUMP JUMPDEST PUSH1 0x13 DUP3 ADD SWAP2 POP PUSH2 0x2994 DUP3 DUP9 PUSH2 0x1B82 JUMP JUMPDEST SWAP2 POP PUSH2 0x299F DUP3 PUSH2 0x26BE JUMP JUMPDEST PUSH1 0x9 DUP3 ADD SWAP2 POP PUSH2 0x29AE DUP3 PUSH2 0x270A JUMP JUMPDEST PUSH1 0x18 DUP3 ADD SWAP2 POP PUSH2 0x29BD DUP3 PUSH2 0x277F JUMP JUMPDEST SWAP2 POP PUSH2 0x29C8 DUP3 PUSH2 0x27A2 JUMP JUMPDEST PUSH1 0xB DUP3 ADD SWAP2 POP PUSH2 0x29D7 DUP3 PUSH2 0x27C8 JUMP JUMPDEST PUSH1 0x1B DUP3 ADD SWAP2 POP PUSH2 0x29E6 DUP3 PUSH2 0x27EE JUMP JUMPDEST PUSH1 0x15 DUP3 ADD SWAP2 POP PUSH2 0x29F6 DUP3 DUP8 PUSH2 0x1B82 JUMP JUMPDEST SWAP2 POP PUSH2 0x2A01 DUP3 PUSH2 0x2814 JUMP JUMPDEST PUSH1 0x7 DUP3 ADD SWAP2 POP PUSH2 0x2A11 DUP3 DUP7 PUSH2 0x1B82 JUMP JUMPDEST SWAP2 POP PUSH2 0x2A1C DUP3 PUSH2 0x1CF2 JUMP JUMPDEST PUSH1 0x1 DUP3 ADD SWAP2 POP PUSH2 0x2A2C DUP3 DUP6 PUSH2 0x1B82 JUMP JUMPDEST SWAP2 POP PUSH2 0x2A37 DUP3 PUSH2 0x283A JUMP JUMPDEST PUSH1 0x5 DUP3 ADD SWAP2 POP PUSH2 0x2A47 DUP3 DUP5 PUSH2 0x1B82 JUMP JUMPDEST SWAP2 POP PUSH2 0x2A52 DUP3 PUSH2 0x2860 JUMP JUMPDEST PUSH1 0x10 DUP3 ADD SWAP2 POP PUSH2 0x2A61 DUP3 PUSH2 0x2886 JUMP JUMPDEST PUSH1 0x18 DUP3 ADD SWAP2 POP PUSH2 0x2A70 DUP3 PUSH2 0x2921 JUMP JUMPDEST SWAP2 POP PUSH2 0x2A7B DUP3 PUSH2 0x27A2 JUMP JUMPDEST PUSH1 0xB DUP3 ADD SWAP2 POP DUP2 SWAP1 POP SWAP8 SWAP7 POP POP POP POP POP POP POP JUMP JUMPDEST PUSH32 0x3C646566733E0000000000000000000000000000000000000000000000000000 DUP2 MSTORE POP JUMP JUMPDEST PUSH32 0x3C726563742069643D227461702220783D223135302220793D22313530222077 PUSH1 0x0 DUP3 ADD MSTORE PUSH32 0x696474683D220000000000000000000000000000000000000000000000000000 PUSH1 0x20 DUP3 ADD MSTORE POP JUMP JUMPDEST PUSH1 0x0 PUSH2 0x2B11 PUSH1 0x26 DUP4 PUSH2 0x1B2B JUMP JUMPDEST SWAP2 POP PUSH2 0x2B1C DUP3 PUSH2 0x2AB5 JUMP JUMPDEST PUSH1 0x26 DUP3 ADD SWAP1 POP SWAP2 SWAP1 POP JUMP JUMPDEST PUSH32 0x22206865696768743D2200000000000000000000000000000000000000000000 DUP2 MSTORE POP JUMP JUMPDEST PUSH32 0x222066696C7465723D2275726C2823736861727029222F3E0000000000000000 DUP2 MSTORE POP JUMP JUMPDEST PUSH32 0x3C726563742069643D22626C75727461702220783D223135302220793D223135 PUSH1 0x0 DUP3 ADD MSTORE PUSH32 0x30222077696474683D2235303022206865696768743D22353030222066696C74 PUSH1 0x20 DUP3 ADD MSTORE PUSH32 0x65723D2275726C2823626C757229222F3E000000000000000000000000000000 PUSH1 0x40 DUP3 ADD MSTORE POP JUMP JUMPDEST PUSH1 0x0 PUSH2 0x2BF5 PUSH1 0x51 DUP4 PUSH2 0x1B2B JUMP JUMPDEST SWAP2 POP PUSH2 0x2C00 DUP3 PUSH2 0x2B73 JUMP JUMPDEST PUSH1 0x51 DUP3 ADD SWAP1 POP SWAP2 SWAP1 POP JUMP JUMPDEST PUSH32 0x3C706174682069643D2270746C2220643D224D20313530203135302051200000 DUP2 MSTORE POP JUMP JUMPDEST PUSH32 0x2031353020313530205A22207374726F6B653D22626C61636B222F3E00000000 DUP2 MSTORE POP JUMP JUMPDEST PUSH32 0x3C672069643D22666C6F776572223E0000000000000000000000000000000000 DUP2 MSTORE POP JUMP JUMPDEST PUSH32 0x3C2F673E3C2F646566733E000000000000000000000000000000000000000000 DUP2 MSTORE POP JUMP JUMPDEST PUSH1 0x0 PUSH2 0x2CAE DUP3 PUSH2 0x2A8F JUMP JUMPDEST PUSH1 0x6 DUP3 ADD SWAP2 POP PUSH2 0x2CBD DUP3 PUSH2 0x2B04 JUMP JUMPDEST SWAP2 POP PUSH2 0x2CC9 DUP3 DUP12 PUSH2 0x1B82 JUMP JUMPDEST SWAP2 POP PUSH2 0x2CD4 DUP3 PUSH2 0x2B27 JUMP JUMPDEST PUSH1 0xA DUP3 ADD SWAP2 POP PUSH2 0x2CE4 DUP3 DUP11 PUSH2 0x1B82 JUMP JUMPDEST SWAP2 POP PUSH2 0x2CEF DUP3 PUSH2 0x2B4D JUMP JUMPDEST PUSH1 0x18 DUP3 ADD SWAP2 POP PUSH2 0x2CFE DUP3 PUSH2 0x2BE8 JUMP JUMPDEST SWAP2 POP PUSH2 0x2D09 DUP3 PUSH2 0x2C0B JUMP JUMPDEST PUSH1 0x1E DUP3 ADD SWAP2 POP PUSH2 0x2D19 DUP3 DUP10 PUSH2 0x1B82 JUMP JUMPDEST SWAP2 POP PUSH2 0x2D24 DUP3 PUSH2 0x1CF2 JUMP JUMPDEST PUSH1 0x1 DUP3 ADD SWAP2 POP PUSH2 0x2D34 DUP3 DUP9 PUSH2 0x1B82 JUMP JUMPDEST SWAP2 POP PUSH2 0x2D3F DUP3 PUSH2 0x283A JUMP JUMPDEST PUSH1 0x5 DUP3 ADD SWAP2 POP PUSH2 0x2D4F DUP3 DUP8 PUSH2 0x1B82 JUMP JUMPDEST SWAP2 POP PUSH2 0x2D5A DUP3 PUSH2 0x1CF2 JUMP JUMPDEST PUSH1 0x1 DUP3 ADD SWAP2 POP PUSH2 0x2D6A DUP3 DUP7 PUSH2 0x1B82 JUMP JUMPDEST SWAP2 POP PUSH2 0x2D75 DUP3 PUSH2 0x1CF2 JUMP JUMPDEST PUSH1 0x1 DUP3 ADD SWAP2 POP PUSH2 0x2D85 DUP3 DUP6 PUSH2 0x1B82 JUMP JUMPDEST SWAP2 POP PUSH2 0x2D90 DUP3 PUSH2 0x2C31 JUMP JUMPDEST PUSH1 0x1C DUP3 ADD SWAP2 POP PUSH2 0x2D9F DUP3 PUSH2 0x2C57 JUMP JUMPDEST PUSH1 0xF DUP3 ADD SWAP2 POP PUSH2 0x2DAF DUP3 DUP5 PUSH2 0x1B82 JUMP JUMPDEST SWAP2 POP PUSH2 0x2DBA DUP3 PUSH2 0x2C7D JUMP JUMPDEST PUSH1 0xB DUP3 ADD SWAP2 POP DUP2 SWAP1 POP SWAP10 SWAP9 POP POP POP POP POP POP POP POP POP JUMP JUMPDEST PUSH1 0x0 PUSH2 0x2DDC DUP3 DUP7 PUSH2 0x1B82 JUMP JUMPDEST SWAP2 POP PUSH2 0x2DE8 DUP3 DUP6 PUSH2 0x1B82 JUMP JUMPDEST SWAP2 POP PUSH2 0x2DF4 DUP3 DUP5 PUSH2 0x1B82 JUMP JUMPDEST SWAP2 POP DUP2 SWAP1 POP SWAP5 SWAP4 POP POP POP POP JUMP JUMPDEST PUSH1 0x0 PUSH2 0x2E0D DUP3 DUP6 PUSH2 0x1B82 JUMP JUMPDEST SWAP2 POP PUSH2 0x2E19 DUP3 DUP5 PUSH2 0x1B82 JUMP JUMPDEST SWAP2 POP DUP2 SWAP1 POP SWAP4 SWAP3 POP POP POP JUMP JUMPDEST PUSH1 0x0 PUSH2 0x2E30 DUP3 PUSH2 0x2111 JUMP JUMPDEST SWAP2 POP PUSH2 0x2E3B DUP4 PUSH2 0x2111 JUMP JUMPDEST SWAP3 POP DUP3 DUP3 LT ISZERO PUSH2 0x2E4E JUMPI PUSH2 0x2E4D PUSH2 0x1BD5 JUMP JUMPDEST JUMPDEST DUP3 DUP3 SUB SWAP1 POP SWAP3 SWAP2 POP POP JUMP JUMPDEST PUSH32 0x3D00000000000000000000000000000000000000000000000000000000000000 DUP2 MSTORE POP JUMP JUMPDEST PUSH32 0x2200000000000000000000000000000000000000000000000000000000000000 DUP2 MSTORE POP JUMP JUMPDEST PUSH32 0x2220000000000000000000000000000000000000000000000000000000000000 DUP2 MSTORE POP JUMP JUMPDEST PUSH1 0x0 PUSH2 0x2ED7 DUP3 DUP6 PUSH2 0x1B82 JUMP JUMPDEST SWAP2 POP PUSH2 0x2EE2 DUP3 PUSH2 0x2E59 JUMP JUMPDEST PUSH1 0x1 DUP3 ADD SWAP2 POP PUSH2 0x2EF1 DUP3 PUSH2 0x2E7F JUMP JUMPDEST PUSH1 0x1 DUP3 ADD SWAP2 POP PUSH2 0x2F01 DUP3 DUP5 PUSH2 0x1B82 JUMP JUMPDEST SWAP2 POP PUSH2 0x2F0C DUP3 PUSH2 0x2EA5 JUMP JUMPDEST PUSH1 0x2 DUP3 ADD SWAP2 POP DUP2 SWAP1 POP SWAP4 SWAP3 POP POP POP JUMP JUMPDEST PUSH32 0x3C00000000000000000000000000000000000000000000000000000000000000 DUP2 MSTORE POP JUMP JUMPDEST PUSH32 0x2F3E000000000000000000000000000000000000000000000000000000000000 DUP2 MSTORE POP JUMP JUMPDEST PUSH1 0x0 PUSH2 0x2F73 DUP3 PUSH2 0x2F1C JUMP JUMPDEST PUSH1 0x1 DUP3 ADD SWAP2 POP PUSH2 0x2F83 DUP3 DUP6 PUSH2 0x1B82 JUMP JUMPDEST SWAP2 POP PUSH2 0x2F8E DUP3 PUSH2 0x1CF2 JUMP JUMPDEST PUSH1 0x1 DUP3 ADD SWAP2 POP PUSH2 0x2F9E DUP3 DUP5 PUSH2 0x1B82 JUMP JUMPDEST SWAP2 POP PUSH2 0x2FA9 DUP3 PUSH2 0x2F42 JUMP JUMPDEST PUSH1 0x2 DUP3 ADD SWAP2 POP DUP2 SWAP1 POP SWAP4 SWAP3 POP POP POP JUMP JUMPDEST PUSH32 0x3C75736520786C696E6B3A687265663D2223626C757274617022207472616E73 PUSH1 0x0 DUP3 ADD MSTORE PUSH32 0x666F726D3D22726F746174652800000000000000000000000000000000000000 PUSH1 0x20 DUP3 ADD MSTORE POP JUMP JUMPDEST PUSH1 0x0 PUSH2 0x3015 PUSH1 0x2D DUP4 PUSH2 0x1B2B JUMP JUMPDEST SWAP2 POP PUSH2 0x3020 DUP3 PUSH2 0x2FB9 JUMP JUMPDEST PUSH1 0x2D DUP3 ADD SWAP1 POP SWAP2 SWAP1 POP JUMP JUMPDEST PUSH32 0x2C203135302C20313530292220636C69702D706174683D2275726C2823626C75 PUSH1 0x0 DUP3 ADD MSTORE PUSH32 0x72436C697029222F3E0000000000000000000000000000000000000000000000 PUSH1 0x20 DUP3 ADD MSTORE POP JUMP JUMPDEST PUSH1 0x0 PUSH2 0x3087 PUSH1 0x29 DUP4 PUSH2 0x1B2B JUMP JUMPDEST SWAP2 POP PUSH2 0x3092 DUP3 PUSH2 0x302B JUMP JUMPDEST PUSH1 0x29 DUP3 ADD SWAP1 POP SWAP2 SWAP1 POP JUMP JUMPDEST PUSH32 0x3C75736520786C696E6B3A687265663D222374617022207472616E73666F726D PUSH1 0x0 DUP3 ADD MSTORE PUSH32 0x3D22726F74617465280000000000000000000000000000000000000000000000 PUSH1 0x20 DUP3 ADD MSTORE POP JUMP JUMPDEST PUSH1 0x0 PUSH2 0x30F9 PUSH1 0x29 DUP4 PUSH2 0x1B2B JUMP JUMPDEST SWAP2 POP PUSH2 0x3104 DUP3 PUSH2 0x309D JUMP JUMPDEST PUSH1 0x29 DUP3 ADD SWAP1 POP SWAP2 SWAP1 POP JUMP JUMPDEST PUSH32 0x2C203135302C20313530292220636C69702D706174683D2275726C2823706174 PUSH1 0x0 DUP3 ADD MSTORE PUSH32 0x7465726E436C697029222F3E0000000000000000000000000000000000000000 PUSH1 0x20 DUP3 ADD MSTORE POP JUMP JUMPDEST PUSH1 0x0 PUSH2 0x316B PUSH1 0x2C DUP4 PUSH2 0x1B2B JUMP JUMPDEST SWAP2 POP PUSH2 0x3176 DUP3 PUSH2 0x310F JUMP JUMPDEST PUSH1 0x2C DUP3 ADD SWAP1 POP SWAP2 SWAP1 POP JUMP JUMPDEST PUSH1 0x0 PUSH2 0x318C DUP3 PUSH2 0x3008 JUMP JUMPDEST SWAP2 POP PUSH2 0x3198 DUP3 DUP6 PUSH2 0x1B82 JUMP JUMPDEST SWAP2 POP PUSH2 0x31A3 DUP3 PUSH2 0x307A JUMP JUMPDEST SWAP2 POP PUSH2 0x31AE DUP3 PUSH2 0x30EC JUMP JUMPDEST SWAP2 POP PUSH2 0x31BA DUP3 DUP5 PUSH2 0x1B82 JUMP JUMPDEST SWAP2 POP PUSH2 0x31C5 DUP3 PUSH2 0x315E JUMP JUMPDEST SWAP2 POP DUP2 SWAP1 POP SWAP4 SWAP3 POP POP POP JUMP JUMPDEST PUSH32 0x3C75736520786C696E6B3A687265663D222370746C22207472616E73666F726D PUSH1 0x0 DUP3 ADD MSTORE PUSH32 0x3D22726F74617465280000000000000000000000000000000000000000000000 PUSH1 0x20 DUP3 ADD MSTORE POP JUMP JUMPDEST PUSH1 0x0 PUSH2 0x322D PUSH1 0x29 DUP4 PUSH2 0x1B2B JUMP JUMPDEST SWAP2 POP PUSH2 0x3238 DUP3 PUSH2 0x31D1 JUMP JUMPDEST PUSH1 0x29 DUP3 ADD SWAP1 POP SWAP2 SWAP1 POP JUMP JUMPDEST PUSH32 0x2C203135302C2031353029222066696C6C3D2268736C28000000000000000000 DUP2 MSTORE POP JUMP JUMPDEST PUSH32 0x2C313030252C3530252922207374726F6B653D22626C61636B222F3E00000000 DUP2 MSTORE POP JUMP JUMPDEST PUSH1 0x0 PUSH2 0x329A DUP3 PUSH2 0x3220 JUMP JUMPDEST SWAP2 POP PUSH2 0x32A6 DUP3 DUP6 PUSH2 0x1B82 JUMP JUMPDEST SWAP2 POP PUSH2 0x32B1 DUP3 PUSH2 0x3243 JUMP JUMPDEST PUSH1 0x17 DUP3 ADD SWAP2 POP PUSH2 0x32C1 DUP3 DUP5 PUSH2 0x1B82 JUMP JUMPDEST SWAP2 POP PUSH2 0x32CC DUP3 PUSH2 0x3269 JUMP JUMPDEST PUSH1 0x1C DUP3 ADD SWAP2 POP DUP2 SWAP1 POP SWAP4 SWAP3 POP POP POP JUMP INVALID DIFFICULTY PUSH2 0x6973 PUSH26 0x636861696E732E204C69666520496E2045766572792042726561 PUSH21 0x682E20436F6C6C65637469626C65204F6E63686169 PUSH15 0x2053564720466C6F7765727320696E PUSH20 0x706972656420627920746865206A6F75726E6579 KECCAK256 PUSH16 0x662048696E61746120696E2074686520 0x4C PUSH16 0x6767656420556E697665727365207374 PUSH16 0x72793A204D532D4F532E3C7374796C65 RETURNDATACOPY 0x23 PUSH6 0x6E7469726520 PUSH28 0x7472616E73666F726D2D6F726967696E3A2031353070782031353070 PUSH25 0x3B616E696D6174696F6E3A20726F7461746520383073206C69 PUSH15 0x65617220696E66696E6974653B207D BLOCKHASH PUSH12 0x65796672616D657320726F74 PUSH2 0x7465 KECCAK256 PUSH28 0x66726F6D207B7472616E73666F726D3A20726F746174652830646567 0x29 EXTCODESIZE PUSH30 0x746F207B7472616E73666F726D3A20726F7461746528333630646567293B PUSH30 0x3C2F7374796C653EA26469706673582212200D1999308F6F3BCAADD0E8B0 GAS 0xBF SGT SWAP15 PUSH30 0xB516B6ED515610251EBB63A3D89F8D64736F6C634300080C003300000000 "},"methodIdentifiers":{"example()":"54353f2f","generateBaseFrequency(bytes,string[3],string[3])":"594bf5ad","generateColorMatrix(bytes,bool)":"2581d8b3","generateDescription()":"5a312a3d","generateImage(uint256,bool)":"effaaf6a","generateName(uint256)":"192a0a1f","generateTraits(uint256,bool)":"37ee03ec"}}}}}