{"contracts/Collection.sol":{"Collection":{"abi":[{"inputs":[{"internalType":"string","name":"name_","type":"string"},{"internalType":"string","name":"symbol_","type":"string"},{"internalType":"address payable","name":"recipient_","type":"address"},{"internalType":"uint256","name":"startDate_","type":"uint256"},{"internalType":"uint256","name":"endDate_","type":"uint256"},{"internalType":"bytes32","name":"root_","type":"bytes32"}],"stateMutability":"nonpayable","type":"constructor"},{"anonymous":false,"inputs":[{"indexed":true,"internalType":"address","name":"owner","type":"address"},{"indexed":true,"internalType":"address","name":"approved","type":"address"},{"indexed":true,"internalType":"uint256","name":"tokenId","type":"uint256"}],"name":"Approval","type":"event"},{"anonymous":false,"inputs":[{"indexed":true,"internalType":"address","name":"owner","type":"address"},{"indexed":true,"internalType":"address","name":"operator","type":"address"},{"indexed":false,"internalType":"bool","name":"approved","type":"bool"}],"name":"ApprovalForAll","type":"event"},{"anonymous":false,"inputs":[{"indexed":true,"internalType":"address","name":"from","type":"address"},{"indexed":true,"internalType":"address","name":"to","type":"address"},{"indexed":true,"internalType":"uint256","name":"tokenId","type":"uint256"}],"name":"Transfer","type":"event"},{"inputs":[{"internalType":"address","name":"to","type":"address"},{"internalType":"uint256","name":"tokenId","type":"uint256"}],"name":"approve","outputs":[],"stateMutability":"nonpayable","type":"function"},{"inputs":[{"internalType":"address","name":"owner","type":"address"}],"name":"balanceOf","outputs":[{"internalType":"uint256","name":"","type":"uint256"}],"stateMutability":"view","type":"function"},{"inputs":[{"internalType":"address","name":"_newDescriptor","type":"address"}],"name":"changeDescriptor","outputs":[],"stateMutability":"nonpayable","type":"function"},{"inputs":[{"internalType":"address","name":"","type":"address"}],"name":"claimed","outputs":[{"internalType":"bool","name":"","type":"bool"}],"stateMutability":"view","type":"function"},{"inputs":[],"name":"deluxeBuyableSupply","outputs":[{"internalType":"uint256","name":"","type":"uint256"}],"stateMutability":"view","type":"function"},{"inputs":[{"internalType":"uint256","name":"","type":"uint256"}],"name":"deluxeIDs","outputs":[{"internalType":"bool","name":"","type":"bool"}],"stateMutability":"view","type":"function"},{"inputs":[],"name":"descriptor","outputs":[{"internalType":"contract CollectionDescriptor","name":"","type":"address"}],"stateMutability":"view","type":"function"},{"inputs":[{"internalType":"address","name":"_newRecipient","type":"address"}],"name":"emergencyWithdraw","outputs":[],"stateMutability":"nonpayable","type":"function"},{"inputs":[],"name":"endDate","outputs":[{"internalType":"uint256","name":"","type":"uint256"}],"stateMutability":"view","type":"function"},{"inputs":[{"internalType":"uint256","name":"tokenId","type":"uint256"}],"name":"generateBase64Image","outputs":[{"internalType":"string","name":"","type":"string"}],"stateMutability":"view","type":"function"},{"inputs":[{"internalType":"uint256","name":"_seed","type":"uint256"},{"internalType":"address","name":"_owner","type":"address"},{"internalType":"bool","name":"deluxe","type":"bool"}],"name":"generateFullImageFromVM","outputs":[{"internalType":"string","name":"","type":"string"}],"stateMutability":"view","type":"function"},{"inputs":[{"internalType":"uint256","name":"tokenId","type":"uint256"}],"name":"generateImage","outputs":[{"internalType":"string","name":"","type":"string"}],"stateMutability":"view","type":"function"},{"inputs":[{"internalType":"uint256","name":"tokenId","type":"uint256"}],"name":"generateTraits","outputs":[{"internalType":"string","name":"","type":"string"}],"stateMutability":"view","type":"function"},{"inputs":[{"internalType":"uint256","name":"_seed","type":"uint256"},{"internalType":"address","name":"_minter","type":"address"},{"internalType":"bool","name":"deluxe","type":"bool"}],"name":"generateTraitsWithSeedAndAddress","outputs":[{"internalType":"string","name":"","type":"string"}],"stateMutability":"view","type":"function"},{"inputs":[{"internalType":"uint256","name":"tokenId","type":"uint256"}],"name":"getApproved","outputs":[{"internalType":"address","name":"","type":"address"}],"stateMutability":"view","type":"function"},{"inputs":[{"internalType":"address","name":"owner","type":"address"},{"internalType":"address","name":"operator","type":"address"}],"name":"isApprovedForAll","outputs":[{"internalType":"bool","name":"","type":"bool"}],"stateMutability":"view","type":"function"},{"inputs":[{"internalType":"bytes32[]","name":"proof","type":"bytes32[]"}],"name":"loyalMint","outputs":[],"stateMutability":"nonpayable","type":"function"},{"inputs":[{"internalType":"bytes32[]","name":"proof","type":"bytes32[]"},{"internalType":"address","name":"leaf","type":"address"}],"name":"loyalMintLeaf","outputs":[],"stateMutability":"nonpayable","type":"function"},{"inputs":[],"name":"loyaltyRoot","outputs":[{"internalType":"bytes32","name":"","type":"bytes32"}],"stateMutability":"view","type":"function"},{"inputs":[],"name":"mint","outputs":[],"stateMutability":"payable","type":"function"},{"inputs":[],"name":"mintDeluxe","outputs":[],"stateMutability":"payable","type":"function"},{"inputs":[],"name":"name","outputs":[{"internalType":"string","name":"","type":"string"}],"stateMutability":"view","type":"function"},{"inputs":[],"name":"owner","outputs":[{"internalType":"address","name":"","type":"address"}],"stateMutability":"view","type":"function"},{"inputs":[{"internalType":"uint256","name":"tokenId","type":"uint256"}],"name":"ownerOf","outputs":[{"internalType":"address","name":"","type":"address"}],"stateMutability":"view","type":"function"},{"inputs":[],"name":"recipient","outputs":[{"internalType":"address payable","name":"","type":"address"}],"stateMutability":"view","type":"function"},{"inputs":[{"internalType":"address","name":"from","type":"address"},{"internalType":"address","name":"to","type":"address"},{"internalType":"uint256","name":"tokenId","type":"uint256"}],"name":"safeTransferFrom","outputs":[],"stateMutability":"nonpayable","type":"function"},{"inputs":[{"internalType":"address","name":"from","type":"address"},{"internalType":"address","name":"to","type":"address"},{"internalType":"uint256","name":"tokenId","type":"uint256"},{"internalType":"bytes","name":"_data","type":"bytes"}],"name":"safeTransferFrom","outputs":[],"stateMutability":"nonpayable","type":"function"},{"inputs":[{"internalType":"address","name":"operator","type":"address"},{"internalType":"bool","name":"approved","type":"bool"}],"name":"setApprovalForAll","outputs":[],"stateMutability":"nonpayable","type":"function"},{"inputs":[],"name":"startDate","outputs":[{"internalType":"uint256","name":"","type":"uint256"}],"stateMutability":"view","type":"function"},{"inputs":[{"internalType":"bytes4","name":"interfaceId","type":"bytes4"}],"name":"supportsInterface","outputs":[{"internalType":"bool","name":"","type":"bool"}],"stateMutability":"view","type":"function"},{"inputs":[],"name":"symbol","outputs":[{"internalType":"string","name":"","type":"string"}],"stateMutability":"view","type":"function"},{"inputs":[{"internalType":"uint256","name":"tokenId","type":"uint256"}],"name":"tokenURI","outputs":[{"internalType":"string","name":"","type":"string"}],"stateMutability":"view","type":"function"},{"inputs":[{"internalType":"address","name":"from","type":"address"},{"internalType":"address","name":"to","type":"address"},{"internalType":"uint256","name":"tokenId","type":"uint256"}],"name":"transferFrom","outputs":[],"stateMutability":"nonpayable","type":"function"},{"inputs":[],"name":"withdrawETH","outputs":[],"stateMutability":"nonpayable","type":"function"}],"evm":{"bytecode":{"linkReferences":{},"object":"60806040523480156200001157600080fd5b506040516200843d3803806200843d833981810160405281019062000037919062000829565b8585816000908051906020019062000051929190620004f3565b5080600190805190602001906200006a929190620004f3565b50505033600660006101000a81548173ffffffffffffffffffffffffffffffffffffffff021916908373ffffffffffffffffffffffffffffffffffffffff160217905550604051620000bc9062000584565b604051809103906000f080158015620000d9573d6000803e3d6000fd5b50600860006101000a81548173ffffffffffffffffffffffffffffffffffffffff021916908373ffffffffffffffffffffffffffffffffffffffff16021790555083600760006101000a81548173ffffffffffffffffffffffffffffffffffffffff021916908373ffffffffffffffffffffffffffffffffffffffff1602179055508260098190555081600a8190555080600e81905550620001a6600660009054906101000a900473ffffffffffffffffffffffffffffffffffffffff164260016200022c60201b60201c565b6001600d6000600660009054906101000a900473ffffffffffffffffffffffffffffffffffffffff1673ffffffffffffffffffffffffffffffffffffffff1673ffffffffffffffffffffffffffffffffffffffff16815260200190815260200160002060006101000a81548160ff02191690831515021790555050505050505062000ba2565b60008284604051602001620002439291906200098c565b6040516020818303038152906040528051906020012060001c9050600115158215151415620002985781600c600083815260200190815260200160002060006101000a81548160ff0219169083151502179055505b620002af8482620002b560201b62001c681760201c565b50505050565b600073ffffffffffffffffffffffffffffffffffffffff168273ffffffffffffffffffffffffffffffffffffffff16141562000328576040517f08c379a00000000000000000000000000000000000000000000000000000000081526004016200031f9062000a1d565b60405180910390fd5b62000339816200048760201b60201c565b156200037c576040517f08c379a0000000000000000000000000000000000000000000000000000000008152600401620003739062000a8f565b60405180910390fd5b6001600360008473ffffffffffffffffffffffffffffffffffffffff1673ffffffffffffffffffffffffffffffffffffffff1681526020019081526020016000206000828254620003ce919062000ae0565b92505081905550816002600083815260200190815260200160002060006101000a81548173ffffffffffffffffffffffffffffffffffffffff021916908373ffffffffffffffffffffffffffffffffffffffff160217905550808273ffffffffffffffffffffffffffffffffffffffff16600073ffffffffffffffffffffffffffffffffffffffff167fddf252ad1be2c89b69c2b068fc378daa952ba7f163c4a11628f55a4df523b3ef60405160405180910390a45050565b60008073ffffffffffffffffffffffffffffffffffffffff166002600084815260200190815260200160002060009054906101000a900473ffffffffffffffffffffffffffffffffffffffff1673ffffffffffffffffffffffffffffffffffffffff1614159050919050565b828054620005019062000b6c565b90600052602060002090601f01602090048101928262000525576000855562000571565b82601f106200054057805160ff191683800117855562000571565b8280016001018555821562000571579182015b828111156200057057825182559160200191906001019062000553565b5b50905062000580919062000592565b5090565b613403806200503a83390190565b5b80821115620005ad57600081600090555060010162000593565b5090565b6000604051905090565b600080fd5b600080fd5b600080fd5b600080fd5b6000601f19601f8301169050919050565b7f4e487b7100000000000000000000000000000000000000000000000000000000600052604160045260246000fd5b6200061a82620005cf565b810181811067ffffffffffffffff821117156200063c576200063b620005e0565b5b80604052505050565b600062000651620005b1565b90506200065f82826200060f565b919050565b600067ffffffffffffffff821115620006825762000681620005e0565b5b6200068d82620005cf565b9050602081019050919050565b60005b83811015620006ba5780820151818401526020810190506200069d565b83811115620006ca576000848401525b50505050565b6000620006e7620006e18462000664565b62000645565b905082815260208101848484011115620007065762000705620005ca565b5b620007138482856200069a565b509392505050565b600082601f830112620007335762000732620005c5565b5b815162000745848260208601620006d0565b91505092915050565b600073ffffffffffffffffffffffffffffffffffffffff82169050919050565b60006200077b826200074e565b9050919050565b6200078d816200076e565b81146200079957600080fd5b50565b600081519050620007ad8162000782565b92915050565b6000819050919050565b620007c881620007b3565b8114620007d457600080fd5b50565b600081519050620007e881620007bd565b92915050565b6000819050919050565b6200080381620007ee565b81146200080f57600080fd5b50565b6000815190506200082381620007f8565b92915050565b60008060008060008060c08789031215620008495762000848620005bb565b5b600087015167ffffffffffffffff8111156200086a5762000869620005c0565b5b6200087889828a016200071b565b965050602087015167ffffffffffffffff8111156200089c576200089b620005c0565b5b620008aa89828a016200071b565b9550506040620008bd89828a016200079c565b9450506060620008d089828a01620007d7565b9350506080620008e389828a01620007d7565b92505060a0620008f689828a0162000812565b9150509295509295509295565b6000819050919050565b620009226200091c82620007b3565b62000903565b82525050565b600062000935826200074e565b9050919050565b60008160601b9050919050565b600062000956826200093c565b9050919050565b60006200096a8262000949565b9050919050565b62000986620009808262000928565b6200095d565b82525050565b60006200099a82856200090d565b602082019150620009ac828462000971565b6014820191508190509392505050565b600082825260208201905092915050565b7f4552433732313a206d696e7420746f20746865207a65726f2061646472657373600082015250565b600062000a05602083620009bc565b915062000a1282620009cd565b602082019050919050565b6000602082019050818103600083015262000a3881620009f6565b9050919050565b7f4552433732313a20746f6b656e20616c7265616479206d696e74656400000000600082015250565b600062000a77601c83620009bc565b915062000a848262000a3f565b602082019050919050565b6000602082019050818103600083015262000aaa8162000a68565b9050919050565b7f4e487b7100000000000000000000000000000000000000000000000000000000600052601160045260246000fd5b600062000aed82620007b3565b915062000afa83620007b3565b9250827fffffffffffffffffffffffffffffffffffffffffffffffffffffffffffffffff0382111562000b325762000b3162000ab1565b5b828201905092915050565b7f4e487b7100000000000000000000000000000000000000000000000000000000600052602260045260246000fd5b6000600282049050600182168062000b8557607f821691505b6020821081141562000b9c5762000b9b62000b3d565b5b50919050565b6144888062000bb26000396000f3fe6080604052600436106101f95760003560e01c806370a082311161010d578063aba048b4116100a0578063c87b56dd1161006f578063c87b56dd1461072b578063c884ef8314610768578063e086e5ec146107a5578063e985e9c5146107bc578063fd85b89f146107f9576101f9565b8063aba048b414610683578063b88d4fde146106ac578063c24a0f8b146106d5578063c35ab71614610700576101f9565b806395d89b41116100dc57806395d89b41146105b5578063a22cb465146105e0578063a48b3b8f14610609578063a7bd0dba14610646576101f9565b806370a08231146104d357806379b92f27146105105780638da5cb5b1461054d57806390346fd414610578576101f9565b80633ea8aa24116101905780636352211e1161015f5780636352211e146103ee57806366d003ac1461042b5780636d9ec494146104565780636ddab6f9146104815780636ff1c9bc146104aa576101f9565b80633ea8aa2414610355578063423d79391461035f57806342842e0e146103885780634b44d812146103b1576101f9565b80630b97bc86116101cc5780630b97bc86146102cc5780631249c58b146102f757806323b872dd14610301578063303e74df1461032a576101f9565b806301ffc9a7146101fe57806306fdde031461023b578063081812fc14610266578063095ea7b3146102a3575b600080fd5b34801561020a57600080fd5b50610225600480360381019061022091906128a4565b610836565b60405161023291906128ec565b60405180910390f35b34801561024757600080fd5b50610250610918565b60405161025d91906129a0565b60405180910390f35b34801561027257600080fd5b5061028d600480360381019061028891906129f8565b6109aa565b60405161029a9190612a66565b60405180910390f35b3480156102af57600080fd5b506102ca60048036038101906102c59190612aad565b610a2f565b005b3480156102d857600080fd5b506102e1610b39565b6040516102ee9190612afc565b60405180910390f35b6102ff610b3f565b005b34801561030d57600080fd5b5061032860048036038101906103239190612b17565b610b97565b005b34801561033657600080fd5b5061033f610bf0565b60405161034c9190612bc9565b60405180910390f35b61035d610c16565b005b34801561036b57600080fd5b5061038660048036038101906103819190612c49565b610ccf565b005b34801561039457600080fd5b506103af60048036038101906103aa9190612b17565b610e84565b005b3480156103bd57600080fd5b506103d860048036038101906103d391906129f8565b610ea4565b6040516103e591906129a0565b60405180910390f35b3480156103fa57600080fd5b50610415600480360381019061041091906129f8565b610f76565b6040516104229190612a66565b60405180910390f35b34801561043757600080fd5b50610440611028565b60405161044d9190612cca565b60405180910390f35b34801561046257600080fd5b5061046b61104e565b6040516104789190612cfe565b60405180910390f35b34801561048d57600080fd5b506104a860048036038101906104a39190612d19565b611054565b005b3480156104b657600080fd5b506104d160048036038101906104cc9190612d19565b61116e565b005b3480156104df57600080fd5b506104fa60048036038101906104f59190612d19565b61130a565b6040516105079190612afc565b60405180910390f35b34801561051c57600080fd5b50610537600480360381019061053291906129f8565b6113c2565b60405161054491906129a0565b60405180910390f35b34801561055957600080fd5b50610562611494565b60405161056f9190612a66565b60405180910390f35b34801561058457600080fd5b5061059f600480360381019061059a9190612d72565b6114ba565b6040516105ac91906129a0565b60405180910390f35b3480156105c157600080fd5b506105ca611599565b6040516105d791906129a0565b60405180910390f35b3480156105ec57600080fd5b5061060760048036038101906106029190612dc5565b61162b565b005b34801561061557600080fd5b50610630600480360381019061062b91906129f8565b611797565b60405161063d91906129a0565b60405180910390f35b34801561065257600080fd5b5061066d600480360381019061066891906129f8565b6117b7565b60405161067a91906128ec565b60405180910390f35b34801561068f57600080fd5b506106aa60048036038101906106a59190612e05565b6117d7565b005b3480156106b857600080fd5b506106d360048036038101906106ce9190612f82565b6117e6565b005b3480156106e157600080fd5b506106ea611841565b6040516106f79190612afc565b60405180910390f35b34801561070c57600080fd5b50610715611847565b6040516107229190612afc565b60405180910390f35b34801561073757600080fd5b50610752600480360381019061074d91906129f8565b61184d565b60405161075f91906129a0565b60405180910390f35b34801561077457600080fd5b5061078f600480360381019061078a9190612d19565b611a48565b60405161079c91906128ec565b60405180910390f35b3480156107b157600080fd5b506107ba611a68565b005b3480156107c857600080fd5b506107e360048036038101906107de9190613005565b611af5565b6040516107f091906128ec565b60405180910390f35b34801561080557600080fd5b50610820600480360381019061081b9190612d72565b611b89565b60405161082d91906129a0565b60405180910390f35b60007f80ac58cd000000000000000000000000000000000000000000000000000000007bffffffffffffffffffffffffffffffffffffffffffffffffffffffff1916827bffffffffffffffffffffffffffffffffffffffffffffffffffffffff1916148061090157507f5b5e139f000000000000000000000000000000000000000000000000000000007bffffffffffffffffffffffffffffffffffffffffffffffffffffffff1916827bffffffffffffffffffffffffffffffffffffffffffffffffffffffff1916145b80610911575061091082611e2a565b5b9050919050565b60606000805461092790613074565b80601f016020809104026020016040519081016040528092919081815260200182805461095390613074565b80156109a05780601f10610975576101008083540402835291602001916109a0565b820191906000526020600020905b81548152906001019060200180831161098357829003601f168201915b5050505050905090565b60006109b582611e94565b6109f4576040517f08c379a00000000000000000000000000000000000000000000000000000000081526004016109eb90613118565b60405180910390fd5b6004600083815260200190815260200160002060009054906101000a900473ffffffffffffffffffffffffffffffffffffffff169050919050565b6000610a3a82610f76565b90508073ffffffffffffffffffffffffffffffffffffffff168373ffffffffffffffffffffffffffffffffffffffff161415610aab576040517f08c379a0000000000000000000000000000000000000000000000000000000008152600401610aa2906131aa565b60405180910390fd5b8073ffffffffffffffffffffffffffffffffffffffff163373ffffffffffffffffffffffffffffffffffffffff161480610aeb5750610aea8133611af5565b5b610b2a576040517f08c379a0000000000000000000000000000000000000000000000000000000008152600401610b219061323c565b60405180910390fd5b610b348383611f00565b505050565b60095481565b664e28e2290f0000341015610b89576040517f08c379a0000000000000000000000000000000000000000000000000000000008152600401610b80906132a8565b60405180910390fd5b610b9533426000611fb9565b565b610ba13382612051565b610be0576040517f08c379a0000000000000000000000000000000000000000000000000000000008152600401610bd79061333a565b60405180910390fd5b610beb83838361212f565b505050565b600860009054906101000a900473ffffffffffffffffffffffffffffffffffffffff1681565b6001600b6000828254610c299190613389565b925050819055506060600b541115610c76576040517f08c379a0000000000000000000000000000000000000000000000000000000008152600401610c6d9061342b565b60405180910390fd5b670106e69ba1610000341015610cc1576040517f08c379a0000000000000000000000000000000000000000000000000000000008152600401610cb8906132a8565b60405180910390fd5b610ccd33426001611fb9565b565b60001515600d60008373ffffffffffffffffffffffffffffffffffffffff1673ffffffffffffffffffffffffffffffffffffffff16815260200190815260200160002060009054906101000a900460ff16151514610d62576040517f08c379a0000000000000000000000000000000000000000000000000000000008152600401610d5990613497565b60405180910390fd5b6001600d60008373ffffffffffffffffffffffffffffffffffffffff1673ffffffffffffffffffffffffffffffffffffffff16815260200190815260200160002060006101000a81548160ff021916908315150217905550600081604051602001610dcd91906134ff565b604051602081830303815290604052805190602001209050610e33848480806020026020016040519081016040528093929190818152602001838360200280828437600081840152601f19601f82011690508083019250505050505050600e5483612380565b610e72576040517f08c379a0000000000000000000000000000000000000000000000000000000008152600401610e6990613566565b60405180910390fd5b610e7e82426001611fb9565b50505050565b610e9f838383604051806020016040528060008152506117e6565b505050565b60606000600c600084815260200190815260200160002060009054906101000a900460ff169050600860009054906101000a900473ffffffffffffffffffffffffffffffffffffffff1673ffffffffffffffffffffffffffffffffffffffff1663effaaf6a84836040518363ffffffff1660e01b8152600401610f28929190613586565b600060405180830381865afa158015610f45573d6000803e3d6000fd5b505050506040513d6000823e3d601f19601f82011682018060405250810190610f6e9190613650565b915050919050565b6000806002600084815260200190815260200160002060009054906101000a900473ffffffffffffffffffffffffffffffffffffffff169050600073ffffffffffffffffffffffffffffffffffffffff168173ffffffffffffffffffffffffffffffffffffffff16141561101f576040517f08c379a00000000000000000000000000000000000000000000000000000000081526004016110169061370b565b60405180910390fd5b80915050919050565b600760009054906101000a900473ffffffffffffffffffffffffffffffffffffffff1681565b600e5481565b600660009054906101000a900473ffffffffffffffffffffffffffffffffffffffff1673ffffffffffffffffffffffffffffffffffffffff163373ffffffffffffffffffffffffffffffffffffffff16146110e4576040517f08c379a00000000000000000000000000000000000000000000000000000000081526004016110db90613777565b60405180910390fd5b6365696850421061112a576040517f08c379a0000000000000000000000000000000000000000000000000000000008152600401611121906137e3565b60405180910390fd5b80600860006101000a81548173ffffffffffffffffffffffffffffffffffffffff021916908373ffffffffffffffffffffffffffffffffffffffff16021790555050565b600660009054906101000a900473ffffffffffffffffffffffffffffffffffffffff1673ffffffffffffffffffffffffffffffffffffffff163373ffffffffffffffffffffffffffffffffffffffff16146111fe576040517f08c379a00000000000000000000000000000000000000000000000000000000081526004016111f59061384f565b60405180910390fd5b600080600760009054906101000a900473ffffffffffffffffffffffffffffffffffffffff1673ffffffffffffffffffffffffffffffffffffffff1647604051611247906138a0565b60006040518083038185875af1925050503d8060008114611284576040519150601f19603f3d011682016040523d82523d6000602084013e611289565b606091505b5091509150600015158215151415611305578273ffffffffffffffffffffffffffffffffffffffff16476040516112bf906138a0565b60006040518083038185875af1925050503d80600081146112fc576040519150601f19603f3d011682016040523d82523d6000602084013e611301565b606091505b5050505b505050565b60008073ffffffffffffffffffffffffffffffffffffffff168273ffffffffffffffffffffffffffffffffffffffff16141561137b576040517f08c379a000000000000000000000000000000000000000000000000000000000815260040161137290613927565b60405180910390fd5b600360008373ffffffffffffffffffffffffffffffffffffffff1673ffffffffffffffffffffffffffffffffffffffff168152602001908152602001600020549050919050565b60606000600c600084815260200190815260200160002060009054906101000a900460ff169050600860009054906101000a900473ffffffffffffffffffffffffffffffffffffffff1673ffffffffffffffffffffffffffffffffffffffff166337ee03ec84836040518363ffffffff1660e01b8152600401611446929190613586565b600060405180830381865afa158015611463573d6000803e3d6000fd5b505050506040513d6000823e3d601f19601f8201168201806040525081019061148c9190613650565b915050919050565b600660009054906101000a900473ffffffffffffffffffffffffffffffffffffffff1681565b6060600084846040516020016114d1929190613968565b6040516020818303038152906040528051906020012060001c9050600860009054906101000a900473ffffffffffffffffffffffffffffffffffffffff1673ffffffffffffffffffffffffffffffffffffffff166337ee03ec82856040518363ffffffff1660e01b8152600401611549929190613586565b600060405180830381865afa158015611566573d6000803e3d6000fd5b505050506040513d6000823e3d601f19601f8201168201806040525081019061158f9190613650565b9150509392505050565b6060600180546115a890613074565b80601f01602080910402602001604051908101604052809291908181526020018280546115d490613074565b80156116215780601f106115f657610100808354040283529160200191611621565b820191906000526020600020905b81548152906001019060200180831161160457829003601f168201915b5050505050905090565b3373ffffffffffffffffffffffffffffffffffffffff168273ffffffffffffffffffffffffffffffffffffffff16141561169a576040517f08c379a0000000000000000000000000000000000000000000000000000000008152600401611691906139e0565b60405180910390fd5b80600560003373ffffffffffffffffffffffffffffffffffffffff1673ffffffffffffffffffffffffffffffffffffffff16815260200190815260200160002060008473ffffffffffffffffffffffffffffffffffffffff1673ffffffffffffffffffffffffffffffffffffffff16815260200190815260200160002060006101000a81548160ff0219169083151502179055508173ffffffffffffffffffffffffffffffffffffffff163373ffffffffffffffffffffffffffffffffffffffff167f17307eab39ab6107e8899845ad3d59bd9653f200f220920489ca2b5937696c318360405161178b91906128ec565b60405180910390a35050565b606060006117a483610ea4565b90506117af81612397565b915050919050565b600c6020528060005260406000206000915054906101000a900460ff1681565b6117e2828233610ccf565b5050565b6117f03383612051565b61182f576040517f08c379a00000000000000000000000000000000000000000000000000000000081526004016118269061333a565b60405180910390fd5b61183b8484848461251c565b50505050565b600a5481565b600b5481565b606061185882611e94565b611897576040517f08c379a000000000000000000000000000000000000000000000000000000000815260040161188e90613a72565b60405180910390fd5b6000600860009054906101000a900473ffffffffffffffffffffffffffffffffffffffff1673ffffffffffffffffffffffffffffffffffffffff1663192a0a1f846040518263ffffffff1660e01b81526004016118f49190612afc565b600060405180830381865afa158015611911573d6000803e3d6000fd5b505050506040513d6000823e3d601f19601f8201168201806040525081019061193a9190613650565b90506000600860009054906101000a900473ffffffffffffffffffffffffffffffffffffffff1673ffffffffffffffffffffffffffffffffffffffff16635a312a3d6040518163ffffffff1660e01b8152600401600060405180830381865afa1580156119ab573d6000803e3d6000fd5b505050506040513d6000823e3d601f19601f820116820180604052508101906119d49190613650565b905060006119e185611797565b905060006119ee866113c2565b9050611a1e84848484604051602001611a0a9493929190613c96565b604051602081830303815290604052612397565b604051602001611a2e9190613d62565b604051602081830303815290604052945050505050919050565b600d6020528060005260406000206000915054906101000a900460ff1681565b600760009054906101000a900473ffffffffffffffffffffffffffffffffffffffff1673ffffffffffffffffffffffffffffffffffffffff1647604051611aae906138a0565b60006040518083038185875af1925050503d8060008114611aeb576040519150601f19603f3d011682016040523d82523d6000602084013e611af0565b606091505b505050565b6000600560008473ffffffffffffffffffffffffffffffffffffffff1673ffffffffffffffffffffffffffffffffffffffff16815260200190815260200160002060008373ffffffffffffffffffffffffffffffffffffffff1673ffffffffffffffffffffffffffffffffffffffff16815260200190815260200160002060009054906101000a900460ff16905092915050565b606060008484604051602001611ba0929190613968565b6040516020818303038152906040528051906020012060001c9050600860009054906101000a900473ffffffffffffffffffffffffffffffffffffffff1673ffffffffffffffffffffffffffffffffffffffff1663effaaf6a82856040518363ffffffff1660e01b8152600401611c18929190613586565b600060405180830381865afa158015611c35573d6000803e3d6000fd5b505050506040513d6000823e3d601f19601f82011682018060405250810190611c5e9190613650565b9150509392505050565b600073ffffffffffffffffffffffffffffffffffffffff168273ffffffffffffffffffffffffffffffffffffffff161415611cd8576040517f08c379a0000000000000000000000000000000000000000000000000000000008152600401611ccf90613dd0565b60405180910390fd5b611ce181611e94565b15611d21576040517f08c379a0000000000000000000000000000000000000000000000000000000008152600401611d1890613e3c565b60405180910390fd5b6001600360008473ffffffffffffffffffffffffffffffffffffffff1673ffffffffffffffffffffffffffffffffffffffff1681526020019081526020016000206000828254611d719190613389565b92505081905550816002600083815260200190815260200160002060006101000a81548173ffffffffffffffffffffffffffffffffffffffff021916908373ffffffffffffffffffffffffffffffffffffffff160217905550808273ffffffffffffffffffffffffffffffffffffffff16600073ffffffffffffffffffffffffffffffffffffffff167fddf252ad1be2c89b69c2b068fc378daa952ba7f163c4a11628f55a4df523b3ef60405160405180910390a45050565b60007f01ffc9a7000000000000000000000000000000000000000000000000000000007bffffffffffffffffffffffffffffffffffffffffffffffffffffffff1916827bffffffffffffffffffffffffffffffffffffffffffffffffffffffff1916149050919050565b60008073ffffffffffffffffffffffffffffffffffffffff166002600084815260200190815260200160002060009054906101000a900473ffffffffffffffffffffffffffffffffffffffff1673ffffffffffffffffffffffffffffffffffffffff1614159050919050565b816004600083815260200190815260200160002060006101000a81548173ffffffffffffffffffffffffffffffffffffffff021916908373ffffffffffffffffffffffffffffffffffffffff160217905550808273ffffffffffffffffffffffffffffffffffffffff16611f7383610f76565b73ffffffffffffffffffffffffffffffffffffffff167f8c5be1e5ebec7d5bd14f71427d1e84f3dd0314c0f7b2291e5b200ac8c7c3b92560405160405180910390a45050565b6009544211611ffd576040517f08c379a0000000000000000000000000000000000000000000000000000000008152600401611ff490613ea8565b60405180910390fd5b600a544210612041576040517f08c379a000000000000000000000000000000000000000000000000000000000815260040161203890613f14565b60405180910390fd5b61204c838383612578565b505050565b600061205c82611e94565b61209b576040517f08c379a000000000000000000000000000000000000000000000000000000000815260040161209290613fa6565b60405180910390fd5b60006120a683610f76565b90508073ffffffffffffffffffffffffffffffffffffffff168473ffffffffffffffffffffffffffffffffffffffff16148061211557508373ffffffffffffffffffffffffffffffffffffffff166120fd846109aa565b73ffffffffffffffffffffffffffffffffffffffff16145b8061212657506121258185611af5565b5b91505092915050565b8273ffffffffffffffffffffffffffffffffffffffff1661214f82610f76565b73ffffffffffffffffffffffffffffffffffffffff16146121a5576040517f08c379a000000000000000000000000000000000000000000000000000000000815260040161219c90614038565b60405180910390fd5b600073ffffffffffffffffffffffffffffffffffffffff168273ffffffffffffffffffffffffffffffffffffffff161415612215576040517f08c379a000000000000000000000000000000000000000000000000000000000815260040161220c906140ca565b60405180910390fd5b612220600082611f00565b6001600360008573ffffffffffffffffffffffffffffffffffffffff1673ffffffffffffffffffffffffffffffffffffffff168152602001908152602001600020600082825461227091906140ea565b925050819055506001600360008473ffffffffffffffffffffffffffffffffffffffff1673ffffffffffffffffffffffffffffffffffffffff16815260200190815260200160002060008282546122c79190613389565b92505081905550816002600083815260200190815260200160002060006101000a81548173ffffffffffffffffffffffffffffffffffffffff021916908373ffffffffffffffffffffffffffffffffffffffff160217905550808273ffffffffffffffffffffffffffffffffffffffff168473ffffffffffffffffffffffffffffffffffffffff167fddf252ad1be2c89b69c2b068fc378daa952ba7f163c4a11628f55a4df523b3ef60405160405180910390a4505050565b60008261238d85846125f1565b1490509392505050565b60606000825114156123ba57604051806020016040528060008152509050612517565b600060405180606001604052806040815260200161441360409139905060006003600285516123e99190613389565b6123f3919061414d565b60046123ff919061417e565b905060006020826124109190613389565b67ffffffffffffffff81111561242957612428612e57565b5b6040519080825280601f01601f19166020018201604052801561245b5781602001600182028036833780820191505090505b509050818152600183018586518101602084015b818310156124d6576003830192508251603f8160121c1685015160f81b8252600182019150603f81600c1c1685015160f81b8252600182019150603f8160061c1685015160f81b8252600182019150603f811685015160f81b82526001820191505061246f565b6003895106600181146124f057600281146125005761250b565b613d3d60f01b600283035261250b565b603d60f81b60018303525b50505050508093505050505b919050565b61252784848461212f565b612533848484846126a4565b612572576040517f08c379a00000000000000000000000000000000000000000000000000000000081526004016125699061424a565b60405180910390fd5b50505050565b6000828460405160200161258d929190613968565b6040516020818303038152906040528051906020012060001c90506001151582151514156125e15781600c600083815260200190815260200160002060006101000a81548160ff0219169083151502179055505b6125eb8482611c68565b50505050565b60008082905060005b84518110156126995760008582815181106126185761261761426a565b5b6020026020010151905080831161265957828160405160200161263c9291906142ba565b604051602081830303815290604052805190602001209250612685565b808360405160200161266c9291906142ba565b6040516020818303038152906040528051906020012092505b508080612691906142e6565b9150506125fa565b508091505092915050565b60006126c58473ffffffffffffffffffffffffffffffffffffffff16612825565b15612818578373ffffffffffffffffffffffffffffffffffffffff1663150b7a02338786866040518563ffffffff1660e01b81526004016127099493929190614384565b6020604051808303816000875af192505050801561274557506040513d601f19601f8201168201806040525081019061274291906143e5565b60015b6127c8573d8060008114612775576040519150601f19603f3d011682016040523d82523d6000602084013e61277a565b606091505b506000815114156127c0576040517f08c379a00000000000000000000000000000000000000000000000000000000081526004016127b79061424a565b60405180910390fd5b805181602001fd5b63150b7a0260e01b7bffffffffffffffffffffffffffffffffffffffffffffffffffffffff1916817bffffffffffffffffffffffffffffffffffffffffffffffffffffffff19161491505061281d565b600190505b949350505050565b600080823b905060008111915050919050565b6000604051905090565b600080fd5b600080fd5b60007fffffffff0000000000000000000000000000000000000000000000000000000082169050919050565b6128818161284c565b811461288c57600080fd5b50565b60008135905061289e81612878565b92915050565b6000602082840312156128ba576128b9612842565b5b60006128c88482850161288f565b91505092915050565b60008115159050919050565b6128e6816128d1565b82525050565b600060208201905061290160008301846128dd565b92915050565b600081519050919050565b600082825260208201905092915050565b60005b83811015612941578082015181840152602081019050612926565b83811115612950576000848401525b50505050565b6000601f19601f8301169050919050565b600061297282612907565b61297c8185612912565b935061298c818560208601612923565b61299581612956565b840191505092915050565b600060208201905081810360008301526129ba8184612967565b905092915050565b6000819050919050565b6129d5816129c2565b81146129e057600080fd5b50565b6000813590506129f2816129cc565b92915050565b600060208284031215612a0e57612a0d612842565b5b6000612a1c848285016129e3565b91505092915050565b600073ffffffffffffffffffffffffffffffffffffffff82169050919050565b6000612a5082612a25565b9050919050565b612a6081612a45565b82525050565b6000602082019050612a7b6000830184612a57565b92915050565b612a8a81612a45565b8114612a9557600080fd5b50565b600081359050612aa781612a81565b92915050565b60008060408385031215612ac457612ac3612842565b5b6000612ad285828601612a98565b9250506020612ae3858286016129e3565b9150509250929050565b612af6816129c2565b82525050565b6000602082019050612b116000830184612aed565b92915050565b600080600060608486031215612b3057612b2f612842565b5b6000612b3e86828701612a98565b9350506020612b4f86828701612a98565b9250506040612b60868287016129e3565b9150509250925092565b6000819050919050565b6000612b8f612b8a612b8584612a25565b612b6a565b612a25565b9050919050565b6000612ba182612b74565b9050919050565b6000612bb382612b96565b9050919050565b612bc381612ba8565b82525050565b6000602082019050612bde6000830184612bba565b92915050565b600080fd5b600080fd5b600080fd5b60008083601f840112612c0957612c08612be4565b5b8235905067ffffffffffffffff811115612c2657612c25612be9565b5b602083019150836020820283011115612c4257612c41612bee565b5b9250929050565b600080600060408486031215612c6257612c61612842565b5b600084013567ffffffffffffffff811115612c8057612c7f612847565b5b612c8c86828701612bf3565b93509350506020612c9f86828701612a98565b9150509250925092565b6000612cb482612a25565b9050919050565b612cc481612ca9565b82525050565b6000602082019050612cdf6000830184612cbb565b92915050565b6000819050919050565b612cf881612ce5565b82525050565b6000602082019050612d136000830184612cef565b92915050565b600060208284031215612d2f57612d2e612842565b5b6000612d3d84828501612a98565b91505092915050565b612d4f816128d1565b8114612d5a57600080fd5b50565b600081359050612d6c81612d46565b92915050565b600080600060608486031215612d8b57612d8a612842565b5b6000612d99868287016129e3565b9350506020612daa86828701612a98565b9250506040612dbb86828701612d5d565b9150509250925092565b60008060408385031215612ddc57612ddb612842565b5b6000612dea85828601612a98565b9250506020612dfb85828601612d5d565b9150509250929050565b60008060208385031215612e1c57612e1b612842565b5b600083013567ffffffffffffffff811115612e3a57612e39612847565b5b612e4685828601612bf3565b92509250509250929050565b600080fd5b7f4e487b7100000000000000000000000000000000000000000000000000000000600052604160045260246000fd5b612e8f82612956565b810181811067ffffffffffffffff82111715612eae57612ead612e57565b5b80604052505050565b6000612ec1612838565b9050612ecd8282612e86565b919050565b600067ffffffffffffffff821115612eed57612eec612e57565b5b612ef682612956565b9050602081019050919050565b82818337600083830152505050565b6000612f25612f2084612ed2565b612eb7565b905082815260208101848484011115612f4157612f40612e52565b5b612f4c848285612f03565b509392505050565b600082601f830112612f6957612f68612be4565b5b8135612f79848260208601612f12565b91505092915050565b60008060008060808587031215612f9c57612f9b612842565b5b6000612faa87828801612a98565b9450506020612fbb87828801612a98565b9350506040612fcc878288016129e3565b925050606085013567ffffffffffffffff811115612fed57612fec612847565b5b612ff987828801612f54565b91505092959194509250565b6000806040838503121561301c5761301b612842565b5b600061302a85828601612a98565b925050602061303b85828601612a98565b9150509250929050565b7f4e487b7100000000000000000000000000000000000000000000000000000000600052602260045260246000fd5b6000600282049050600182168061308c57607f821691505b602082108114156130a05761309f613045565b5b50919050565b7f4552433732313a20617070726f76656420717565727920666f72206e6f6e657860008201527f697374656e7420746f6b656e0000000000000000000000000000000000000000602082015250565b6000613102602c83612912565b915061310d826130a6565b604082019050919050565b60006020820190508181036000830152613131816130f5565b9050919050565b7f4552433732313a20617070726f76616c20746f2063757272656e74206f776e6560008201527f7200000000000000000000000000000000000000000000000000000000000000602082015250565b6000613194602183612912565b915061319f82613138565b604082019050919050565b600060208201905081810360008301526131c381613187565b9050919050565b7f4552433732313a20617070726f76652063616c6c6572206973206e6f74206f7760008201527f6e6572206e6f7220617070726f76656420666f7220616c6c0000000000000000602082015250565b6000613226603883612912565b9150613231826131ca565b604082019050919050565b6000602082019050818103600083015261325581613219565b9050919050565b7f4d4f524520455448204e45454445440000000000000000000000000000000000600082015250565b6000613292600f83612912565b915061329d8261325c565b602082019050919050565b600060208201905081810360008301526132c181613285565b9050919050565b7f4552433732313a207472616e736665722063616c6c6572206973206e6f74206f60008201527f776e6572206e6f7220617070726f766564000000000000000000000000000000602082015250565b6000613324603183612912565b915061332f826132c8565b604082019050919050565b6000602082019050818103600083015261335381613317565b9050919050565b7f4e487b7100000000000000000000000000000000000000000000000000000000600052601160045260246000fd5b6000613394826129c2565b915061339f836129c2565b9250827fffffffffffffffffffffffffffffffffffffffffffffffffffffffffffffffff038211156133d4576133d361335a565b5b828201905092915050565b7f414c4c2044454c55584520484153204245454e20534f4c440000000000000000600082015250565b6000613415601883612912565b9150613420826133df565b602082019050919050565b6000602082019050818103600083015261344481613408565b9050919050565b7f416c726561647920636c61696d65640000000000000000000000000000000000600082015250565b6000613481600f83612912565b915061348c8261344b565b602082019050919050565b600060208201905081810360008301526134b081613474565b9050919050565b60008160601b9050919050565b60006134cf826134b7565b9050919050565b60006134e1826134c4565b9050919050565b6134f96134f482612a45565b6134d6565b82525050565b600061350b82846134e8565b60148201915081905092915050565b7f496e76616c69642050726f6f6600000000000000000000000000000000000000600082015250565b6000613550600d83612912565b915061355b8261351a565b602082019050919050565b6000602082019050818103600083015261357f81613543565b9050919050565b600060408201905061359b6000830185612aed565b6135a860208301846128dd565b9392505050565b600067ffffffffffffffff8211156135ca576135c9612e57565b5b6135d382612956565b9050602081019050919050565b60006135f36135ee846135af565b612eb7565b90508281526020810184848401111561360f5761360e612e52565b5b61361a848285612923565b509392505050565b600082601f83011261363757613636612be4565b5b81516136478482602086016135e0565b91505092915050565b60006020828403121561366657613665612842565b5b600082015167ffffffffffffffff81111561368457613683612847565b5b61369084828501613622565b91505092915050565b7f4552433732313a206f776e657220717565727920666f72206e6f6e657869737460008201527f656e7420746f6b656e0000000000000000000000000000000000000000000000602082015250565b60006136f5602983612912565b915061370082613699565b604082019050919050565b60006020820190508181036000830152613724816136e8565b9050919050565b7f6e6f74206f776e65720000000000000000000000000000000000000000000000600082015250565b6000613761600983612912565b915061376c8261372b565b602082019050919050565b6000602082019050818103600083015261379081613754565b9050919050565b7f63616e74206368616e67652064657363726970746f7220616e796d6f72650000600082015250565b60006137cd601e83612912565b91506137d882613797565b602082019050919050565b600060208201905081810360008301526137fc816137c0565b9050919050565b7f4e4f545f4f574e45520000000000000000000000000000000000000000000000600082015250565b6000613839600983612912565b915061384482613803565b602082019050919050565b600060208201905081810360008301526138688161382c565b9050919050565b600081905092915050565b50565b600061388a60008361386f565b91506138958261387a565b600082019050919050565b60006138ab8261387d565b9150819050919050565b7f4552433732313a2062616c616e636520717565727920666f7220746865207a6560008201527f726f206164647265737300000000000000000000000000000000000000000000602082015250565b6000613911602a83612912565b915061391c826138b5565b604082019050919050565b6000602082019050818103600083015261394081613904565b9050919050565b6000819050919050565b61396261395d826129c2565b613947565b82525050565b60006139748285613951565b60208201915061398482846134e8565b6014820191508190509392505050565b7f4552433732313a20617070726f766520746f2063616c6c657200000000000000600082015250565b60006139ca601983612912565b91506139d582613994565b602082019050919050565b600060208201905081810360008301526139f9816139bd565b9050919050565b7f4552433732314d657461646174613a2055524920717565727920666f72206e6f60008201527f6e6578697374656e7420746f6b656e0000000000000000000000000000000000602082015250565b6000613a5c602f83612912565b9150613a6782613a00565b604082019050919050565b60006020820190508181036000830152613a8b81613a4f565b9050919050565b600081905092915050565b7f7b226e616d65223a220000000000000000000000000000000000000000000000600082015250565b6000613ad3600983613a92565b9150613ade82613a9d565b600982019050919050565b6000613af482612907565b613afe8185613a92565b9350613b0e818560208601612923565b80840191505092915050565b7f222c20226465736372697074696f6e223a220000000000000000000000000000600082015250565b6000613b50601283613a92565b9150613b5b82613b1a565b601282019050919050565b7f222c2022696d616765223a202200000000000000000000000000000000000000600082015250565b6000613b9c600d83613a92565b9150613ba782613b66565b600d82019050919050565b7f646174613a696d6167652f7376672b786d6c3b6261736536342c000000000000600082015250565b6000613be8601a83613a92565b9150613bf382613bb2565b601a82019050919050565b7f222c000000000000000000000000000000000000000000000000000000000000600082015250565b6000613c34600283613a92565b9150613c3f82613bfe565b600282019050919050565b7f7d00000000000000000000000000000000000000000000000000000000000000600082015250565b6000613c80600183613a92565b9150613c8b82613c4a565b600182019050919050565b6000613ca182613ac6565b9150613cad8287613ae9565b9150613cb882613b43565b9150613cc48286613ae9565b9150613ccf82613b8f565b9150613cda82613bdb565b9150613ce68285613ae9565b9150613cf182613c27565b9150613cfd8284613ae9565b9150613d0882613c73565b915081905095945050505050565b7f646174613a6170706c69636174696f6e2f6a736f6e3b6261736536342c000000600082015250565b6000613d4c601d83613a92565b9150613d5782613d16565b601d82019050919050565b6000613d6d82613d3f565b9150613d798284613ae9565b915081905092915050565b7f4552433732313a206d696e7420746f20746865207a65726f2061646472657373600082015250565b6000613dba602083612912565b9150613dc582613d84565b602082019050919050565b60006020820190508181036000830152613de981613dad565b9050919050565b7f4552433732313a20746f6b656e20616c7265616479206d696e74656400000000600082015250565b6000613e26601c83612912565b9150613e3182613df0565b602082019050919050565b60006020820190508181036000830152613e5581613e19565b9050919050565b7f4e4f545f53544152544544000000000000000000000000000000000000000000600082015250565b6000613e92600b83612912565b9150613e9d82613e5c565b602082019050919050565b60006020820190508181036000830152613ec181613e85565b9050919050565b7f454e444544000000000000000000000000000000000000000000000000000000600082015250565b6000613efe600583612912565b9150613f0982613ec8565b602082019050919050565b60006020820190508181036000830152613f2d81613ef1565b9050919050565b7f4552433732313a206f70657261746f7220717565727920666f72206e6f6e657860008201527f697374656e7420746f6b656e0000000000000000000000000000000000000000602082015250565b6000613f90602c83612912565b9150613f9b82613f34565b604082019050919050565b60006020820190508181036000830152613fbf81613f83565b9050919050565b7f4552433732313a207472616e73666572206f6620746f6b656e2074686174206960008201527f73206e6f74206f776e0000000000000000000000000000000000000000000000602082015250565b6000614022602983612912565b915061402d82613fc6565b604082019050919050565b6000602082019050818103600083015261405181614015565b9050919050565b7f4552433732313a207472616e7366657220746f20746865207a65726f2061646460008201527f7265737300000000000000000000000000000000000000000000000000000000602082015250565b60006140b4602483612912565b91506140bf82614058565b604082019050919050565b600060208201905081810360008301526140e3816140a7565b9050919050565b60006140f5826129c2565b9150614100836129c2565b9250828210156141135761411261335a565b5b828203905092915050565b7f4e487b7100000000000000000000000000000000000000000000000000000000600052601260045260246000fd5b6000614158826129c2565b9150614163836129c2565b9250826141735761417261411e565b5b828204905092915050565b6000614189826129c2565b9150614194836129c2565b9250817fffffffffffffffffffffffffffffffffffffffffffffffffffffffffffffffff04831182151516156141cd576141cc61335a565b5b828202905092915050565b7f4552433732313a207472616e7366657220746f206e6f6e20455243373231526560008201527f63656976657220696d706c656d656e7465720000000000000000000000000000602082015250565b6000614234603283612912565b915061423f826141d8565b604082019050919050565b6000602082019050818103600083015261426381614227565b9050919050565b7f4e487b7100000000000000000000000000000000000000000000000000000000600052603260045260246000fd5b6000819050919050565b6142b46142af82612ce5565b614299565b82525050565b60006142c682856142a3565b6020820191506142d682846142a3565b6020820191508190509392505050565b60006142f1826129c2565b91507fffffffffffffffffffffffffffffffffffffffffffffffffffffffffffffffff8214156143245761432361335a565b5b600182019050919050565b600081519050919050565b600082825260208201905092915050565b60006143568261432f565b614360818561433a565b9350614370818560208601612923565b61437981612956565b840191505092915050565b60006080820190506143996000830187612a57565b6143a66020830186612a57565b6143b36040830185612aed565b81810360608301526143c5818461434b565b905095945050505050565b6000815190506143df81612878565b92915050565b6000602082840312156143fb576143fa612842565b5b6000614409848285016143d0565b9150509291505056fe4142434445464748494a4b4c4d4e4f505152535455565758595a6162636465666768696a6b6c6d6e6f707172737475767778797a303132333435363738392b2fa2646970667358221220df459649592665391ea2d998a752fe6ec5e319d38b22f10a6ae5e782befa107464736f6c634300080c0033608060405234801561001057600080fd5b506133e3806100206000396000f3fe608060405234801561001057600080fd5b506004361061007d5760003560e01c806354353f2f1161005b57806354353f2f14610112578063594bf5ad146101305780635a312a3d14610160578063effaaf6a1461017e5761007d565b8063192a0a1f146100825780632581d8b3146100b257806337ee03ec146100e2575b600080fd5b61009c6004803603810190610097919061161e565b6101ae565b6040516100a991906116e4565b60405180910390f35b6100cc60048036038101906100c79190611873565b6101eb565b6040516100d991906116e4565b60405180910390f35b6100fc60048036038101906100f791906118cf565b610388565b60405161010991906116e4565b60405180910390f35b61011a610538565b60405161012791906116e4565b60405180910390f35b61014a60048036038101906101459190611a84565b610579565b60405161015791906116e4565b60405180910390f35b610168610626565b60405161017591906116e4565b60405180910390f35b610198600480360381019061019391906118cf565b61064c565b6040516101a591906116e4565b60405180910390f35b60606101c56101bc83610660565b600060086107e9565b6040516020016101d59190611bb3565b6040516020818303038152906040529050919050565b60608060005b601481101561037d57600061020686836108e5565b905060006102208760018561021b9190611c04565b610908565b90506012831415610252578360405160200161023c9190611c80565b6040516020818303038152906040529350610367565b6013831415610282578360405160200161026c9190611ccc565b6040516020818303038152906040529350610366565b60048314806102915750600983145b8061029c5750600e83145b156102fd576001151586151514156102d557836040516020016102bf9190611c80565b60405160208183030381529060405293506102f8565b836040516020016102e69190611ccc565b60405160208183030381529060405293505b610365565b6080811015610337578361031083610660565b604051602001610321929190611d18565b6040516020818303038152906040529350610364565b8361034183610660565b604051602001610352929190611d71565b60405160208183030381529060405293505b5b5b5b50506001816103769190611c04565b90506101f1565b508091505092915050565b606060008360001b6040516020016103a09190611dde565b6040516020818303038152906040529050606060011515841515141561043b576104346040518060400160405280600881526020017f416e696d617465640000000000000000000000000000000000000000000000008152506040518060400160405280600481526020017f547275650000000000000000000000000000000000000000000000000000000081525061091f565b90506104b2565b6104af6040518060400160405280600881526020017f416e696d617465640000000000000000000000000000000000000000000000008152506040518060400160405280600581526020017f46616c736500000000000000000000000000000000000000000000000000000081525061091f565b90505b60006104bd8361094b565b905060006105086040518060400160405280600b81526020017f506574616c20436f756e7400000000000000000000000000000000000000000081525061050384610660565b61091f565b9050828160405160200161051d929190611edd565b60405160208183030381529060405294505050505092915050565b606060005a60405160200161054d9190611f43565b6040516020818303038152906040528051906020012060001c90506105738160016109d3565b91505090565b6060600061058e61058986610a9a565b610660565b9050600061059b86610ad7565b905060006105b06105ab88610b07565b610660565b905060006105bd88610b44565b905060008784600381106105d4576105d3611f5e565b5b6020020151858884600381106105ed576105ec611f5e565b5b6020020151856040516020016106069493929190611f8d565b604051602081830303815290604052905080955050505050509392505050565b606060006040518060600160405280602281526020016132dd6022913990508091505090565b606061065883836109d3565b905092915050565b606060008214156106a8576040518060400160405280600181526020017f300000000000000000000000000000000000000000000000000000000000000081525090506107e4565b600082905060005b600082146106da5780806106c390611fda565b915050600a826106d39190612052565b91506106b0565b60008167ffffffffffffffff8111156106f6576106f5611710565b5b6040519080825280601f01601f1916602001820160405280156107285781602001600182028036833780820191505090505b50905060008290505b600086146107dc576001816107469190612083565b90506000600a80886107589190612052565b61076291906120b7565b8761076d9190612083565b6030610779919061211e565b905060008160f81b90508084848151811061079757610796611f5e565b5b60200101907effffffffffffffffffffffffffffffffffffffffffffffffffffffffffffff1916908160001a905350600a886107d39190612052565b97505050610731565b819450505050505b919050565b60606000849050600084846107fe9190612083565b67ffffffffffffffff81111561081757610816611710565b5b6040519080825280601f01601f1916602001820160405280156108495781602001600182028036833780820191505090505b50905060008590505b848110156108d85782818151811061086d5761086c611f5e565b5b602001015160f81c60f81b8287836108859190612083565b8151811061089657610895611f5e565b5b60200101907effffffffffffffffffffffffffffffffffffffffffffffffffffffffffffff1916908160001a90535080806108d090611fda565b915050610852565b5080925050509392505050565b600060046108f38484610b74565b60ff166109009190612052565b905092915050565b60006109148383610b74565b60ff16905092915050565b606082826040516020016109349291906121c7565b604051602081830303815290604052905092915050565b6000806040518060a00160405280600860ff168152602001600c60ff168152602001601460ff168152602001601860ff168152602001602460ff1681525090506000603461099a856000610b74565b6109a49190612218565b60ff16905060008282600581106109be576109bd611f5e565b5b602002015160ff169050809350505050919050565b606060008360001b6040516020016109eb9190611dde565b60405160208183030381529060405290506000610a078261094b565b9050600081610168610a199190612052565b90506000604051806020016040528060008152509050600115158615151415610a58576040518060e0016040528060af81526020016132ff60af913990505b80610a6285610c2a565b610a6d868686610ca5565b604051602001610a7f939291906124cf565b60405160208183030381529060405294505050505092915050565b60006101006103e8610aad846005610b74565b60ff16610aba91906120b7565b610ac49190612052565b6001610ad09190611c04565b9050919050565b60006101006003610ae9846007610b74565b60ff16610af691906120b7565b610b009190612052565b9050919050565b60006101006103e8610b1a846006610b74565b60ff16610b2791906120b7565b610b319190612052565b6001610b3d9190611c04565b9050919050565b60006101006003610b56846008610b74565b60ff16610b6391906120b7565b610b6d9190612052565b9050919050565b600081600183610b849190611c04565b1015610bc5576040517f08c379a0000000000000000000000000000000000000000000000000000000008152600401610bbc9061259a565b60405180910390fd5b600182610bd29190611c04565b83511015610c15576040517f08c379a0000000000000000000000000000000000000000000000000000000008152600401610c0c90612606565b60405180910390fd5b60008260018501015190508091505092915050565b60606000610c39836001610d8e565b90506000610c48846000610d8e565b90506000610c5585611230565b90506000610c6e826096610c699190611c04565b610660565b9050838382838485604051602001610c8b96959493929190612944565b604051602081830303815290604052945050505050919050565b60606000610cba610cb586611230565b610660565b90506000610cc78661125f565b90506000600282610cd891906120b7565b90506000610ce788888861128e565b905060008485610d02866096610cfd9190612083565b610660565b610d17866096610d129190612083565b610660565b610d2c876096610d279190612083565b610660565b610d41896096610d3c9190611c04565b610660565b610d56896096610d519190612083565b610660565b88604051602001610d6e989796959493929190612ca3565b604051602081830303815290604052905080955050505050509392505050565b60606000610f0f8460405180606001604052806040518060400160405280600381526020017f302e30000000000000000000000000000000000000000000000000000000000081525081526020016040518060400160405280600481526020017f302e30300000000000000000000000000000000000000000000000000000000081525081526020016040518060400160405280600481526020017f302e30300000000000000000000000000000000000000000000000000000000081525081525060405180606001604052806040518060400160405280600381526020017f302e30000000000000000000000000000000000000000000000000000000000081525081526020016040518060400160405280600381526020017f302e30000000000000000000000000000000000000000000000000000000000081525081526020016040518060400160405280600381526020017f302e300000000000000000000000000000000000000000000000000000000000815250815250610579565b90506000610f24610f1f8661145b565b610660565b90506110776040518060400160405280600c81526020017f666554757262756c656e63650000000000000000000000000000000000000000815250610f9e6040518060400160405280600d81526020017f626173654672657175656e637900000000000000000000000000000000000000815250856114a2565b610fdd6040518060400160405280600481526020017f7365656400000000000000000000000000000000000000000000000000000000815250856114a2565b6110516040518060400160405280600681526020017f726573756c7400000000000000000000000000000000000000000000000000008152506040518060400160405280600481526020017f74757262000000000000000000000000000000000000000000000000000000008152506114a2565b60405160200161106393929190612dd0565b6040516020818303038152906040526114ce565b6112066040518060400160405280600d81526020017f6665436f6c6f724d6174726978000000000000000000000000000000000000008152506111246040518060400160405280600281526020017f696e0000000000000000000000000000000000000000000000000000000000008152506040518060400160405280600481526020017f74757262000000000000000000000000000000000000000000000000000000008152506114a2565b61116c6040518060400160405280600681526020017f76616c75657300000000000000000000000000000000000000000000000000008152506111678b8b6101eb565b6114a2565b6111e06040518060400160405280600381526020017f6f757400000000000000000000000000000000000000000000000000000000008152506040518060400160405280600581526020017f74757262320000000000000000000000000000000000000000000000000000008152506114a2565b6040516020016111f293929190612dd0565b6040516020818303038152906040526114ce565b604051602001611217929190612e01565b6040516020818303038152906040529250505092915050565b6000600261123f836001610b74565b6112499190612218565b60b46112559190612e25565b60ff169050919050565b6000600d61126e836009610b74565b6112789190612218565b6005611284919061211e565b60ff169050919050565b606060006040518060200160405280600081525090506000604051806020016040528060008152509050600060405180602001604052806000815250905060005b868110156113ab57600260036004896112e89190612052565b6112f291906120b7565b6112fc9190611c04565b81101561139757826113246001836113149190611c04565b8861131f91906120b7565b6114fa565b604051602001611335929190612e01565b60405160208183030381529060405292508161137489605a60018561135a9190611c04565b8a61136591906120b7565b61136f9190611c04565b61154d565b604051602001611385929190612e01565b60405160208183030381529060405291505b6001816113a49190611c04565b90506112cf565b50806113da88605a60018a6113c09190611c04565b896113cb91906120b7565b6113d59190611c04565b61154d565b61140789605a60028b6113ed9190611c04565b8a6113f891906120b7565b6114029190611c04565b61154d565b60405160200161141993929190612dd0565b6040516020818303038152906040529050818160405160200161143d929190612e01565b60405160208183030381529060405292508293505050509392505050565b6000611468826004610b74565b60ff16611476836003610b74565b60ff16611484846002610b74565b60ff1661149191906120b7565b61149b91906120b7565b9050919050565b606082826040516020016114b7929190612ecb565b604051602081830303815290604052905092915050565b606082826040516020016114e3929190612f68565b604051602081830303815290604052905092915050565b606061151160018361150c9190611c04565b610660565b6115266001846115219190611c04565b610660565b604051602001611537929190613181565b6040516020818303038152906040529050919050565b6060600061155a846115a3565b905061157160018461156c9190611c04565b610660565b61157a82610660565b60405160200161158b92919061328f565b60405160208183030381529060405291505092915050565b60006101006101686115b684600a610b74565b60ff166115c391906120b7565b6115cd9190612052565b9050919050565b6000604051905090565b600080fd5b600080fd5b6000819050919050565b6115fb816115e8565b811461160657600080fd5b50565b600081359050611618816115f2565b92915050565b600060208284031215611634576116336115de565b5b600061164284828501611609565b91505092915050565b600081519050919050565b600082825260208201905092915050565b60005b8381101561168557808201518184015260208101905061166a565b83811115611694576000848401525b50505050565b6000601f19601f8301169050919050565b60006116b68261164b565b6116c08185611656565b93506116d0818560208601611667565b6116d98161169a565b840191505092915050565b600060208201905081810360008301526116fe81846116ab565b905092915050565b600080fd5b600080fd5b7f4e487b7100000000000000000000000000000000000000000000000000000000600052604160045260246000fd5b6117488261169a565b810181811067ffffffffffffffff8211171561176757611766611710565b5b80604052505050565b600061177a6115d4565b9050611786828261173f565b919050565b600067ffffffffffffffff8211156117a6576117a5611710565b5b6117af8261169a565b9050602081019050919050565b82818337600083830152505050565b60006117de6117d98461178b565b611770565b9050828152602081018484840111156117fa576117f961170b565b5b6118058482856117bc565b509392505050565b600082601f83011261182257611821611706565b5b81356118328482602086016117cb565b91505092915050565b60008115159050919050565b6118508161183b565b811461185b57600080fd5b50565b60008135905061186d81611847565b92915050565b6000806040838503121561188a576118896115de565b5b600083013567ffffffffffffffff8111156118a8576118a76115e3565b5b6118b48582860161180d565b92505060206118c58582860161185e565b9150509250929050565b600080604083850312156118e6576118e56115de565b5b60006118f485828601611609565b92505060206119058582860161185e565b9150509250929050565b600067ffffffffffffffff82111561192a57611929611710565b5b602082029050919050565b600080fd5b600067ffffffffffffffff82111561195557611954611710565b5b61195e8261169a565b9050602081019050919050565b600061197e6119798461193a565b611770565b90508281526020810184848401111561199a5761199961170b565b5b6119a58482856117bc565b509392505050565b600082601f8301126119c2576119c1611706565b5b81356119d284826020860161196b565b91505092915050565b60006119ee6119e98461190f565b611770565b90508060208402830185811115611a0857611a07611935565b5b835b81811015611a4f57803567ffffffffffffffff811115611a2d57611a2c611706565b5b808601611a3a89826119ad565b85526020850194505050602081019050611a0a565b5050509392505050565b600082601f830112611a6e57611a6d611706565b5b6003611a7b8482856119db565b91505092915050565b600080600060608486031215611a9d57611a9c6115de565b5b600084013567ffffffffffffffff811115611abb57611aba6115e3565b5b611ac78682870161180d565b935050602084013567ffffffffffffffff811115611ae857611ae76115e3565b5b611af486828701611a59565b925050604084013567ffffffffffffffff811115611b1557611b146115e3565b5b611b2186828701611a59565b9150509250925092565b600081905092915050565b7f4461697379636861696e20230000000000000000000000000000000000000000600082015250565b6000611b6c600c83611b2b565b9150611b7782611b36565b600c82019050919050565b6000611b8d8261164b565b611b978185611b2b565b9350611ba7818560208601611667565b80840191505092915050565b6000611bbe82611b5f565b9150611bca8284611b82565b915081905092915050565b7f4e487b7100000000000000000000000000000000000000000000000000000000600052601160045260246000fd5b6000611c0f826115e8565b9150611c1a836115e8565b9250827fffffffffffffffffffffffffffffffffffffffffffffffffffffffffffffffff03821115611c4f57611c4e611bd5565b5b828201905092915050565b7f3020000000000000000000000000000000000000000000000000000000000000815250565b6000611c8c8284611b82565b9150611c9782611c5a565b60028201915081905092915050565b7f3120000000000000000000000000000000000000000000000000000000000000815250565b6000611cd88284611b82565b9150611ce382611ca6565b60028201915081905092915050565b7f2000000000000000000000000000000000000000000000000000000000000000815250565b6000611d248285611b82565b9150611d308284611b82565b9150611d3b82611cf2565b6001820191508190509392505050565b7f2d00000000000000000000000000000000000000000000000000000000000000815250565b6000611d7d8285611b82565b9150611d8882611d4b565b600182019150611d988284611b82565b9150611da382611cf2565b6001820191508190509392505050565b6000819050919050565b6000819050919050565b611dd8611dd382611db3565b611dbd565b82525050565b6000611dea8284611dc7565b60208201915081905092915050565b7f2261747472696275746573223a205b0000000000000000000000000000000000600082015250565b6000611e2f600f83611b2b565b9150611e3a82611df9565b600f82019050919050565b7f2c00000000000000000000000000000000000000000000000000000000000000600082015250565b6000611e7b600183611b2b565b9150611e8682611e45565b600182019050919050565b7f5d00000000000000000000000000000000000000000000000000000000000000600082015250565b6000611ec7600183611b2b565b9150611ed282611e91565b600182019050919050565b6000611ee882611e22565b9150611ef48285611b82565b9150611eff82611e6e565b9150611f0b8284611b82565b9150611f1682611eba565b91508190509392505050565b6000819050919050565b611f3d611f38826115e8565b611f22565b82525050565b6000611f4f8284611f2c565b60208201915081905092915050565b7f4e487b7100000000000000000000000000000000000000000000000000000000600052603260045260246000fd5b6000611f998287611b82565b9150611fa58286611b82565b9150611fb082611cf2565b600182019150611fc08285611b82565b9150611fcc8284611b82565b915081905095945050505050565b6000611fe5826115e8565b91507fffffffffffffffffffffffffffffffffffffffffffffffffffffffffffffffff82141561201857612017611bd5565b5b600182019050919050565b7f4e487b7100000000000000000000000000000000000000000000000000000000600052601260045260246000fd5b600061205d826115e8565b9150612068836115e8565b92508261207857612077612023565b5b828204905092915050565b600061208e826115e8565b9150612099836115e8565b9250828210156120ac576120ab611bd5565b5b828203905092915050565b60006120c2826115e8565b91506120cd836115e8565b9250817fffffffffffffffffffffffffffffffffffffffffffffffffffffffffffffffff048311821515161561210657612105611bd5565b5b828202905092915050565b600060ff82169050919050565b600061212982612111565b915061213483612111565b92508260ff0382111561214a57612149611bd5565b5b828201905092915050565b7f7b2274726169745f74797065223a202200000000000000000000000000000000815250565b7f222c202276616c7565223a202200000000000000000000000000000000000000815250565b7f227d000000000000000000000000000000000000000000000000000000000000815250565b60006121d282612155565b6010820191506121e28285611b82565b91506121ed8261217b565b600d820191506121fd8284611b82565b9150612208826121a1565b6002820191508190509392505050565b600061222382612111565b915061222e83612111565b92508261223e5761223d612023565b5b828204905092915050565b7f3c73766720786d6c6e733d22687474703a2f2f7777772e77332e6f72672f323060008201527f30302f737667222077696474683d2233303022206865696768743d223330302260208201527f207374796c653d226261636b67726f756e643a236666662220786d6c6e733a7860408201527f6c696e6b3d22687474703a2f2f7777772e77332e6f72672f313939392f786c6960608201527f6e6b223e00000000000000000000000000000000000000000000000000000000608082015250565b6000612317608483611b2b565b915061232282612249565b608482019050919050565b7f3c672069643d22656e74697265223e0000000000000000000000000000000000815250565b7f3c75736520786c696e6b3a687265663d2223666c6f7765722220636c69702d7060008201527f6174683d2275726c282368616c66436c69702922207472616e73666f726d3d2260208201527f726f7461746528302c203135302c2031353029222f3e00000000000000000000604082015250565b60006123d5605683611b2b565b91506123e082612353565b605682019050919050565b7f3c75736520786c696e6b3a687265663d2223666c6f7765722220636c69702d7060008201527f6174683d2275726c282368616c66436c69702922207472616e73666f726d3d2260208201527f726f74617465283138302c203135302c2031353029222f3e0000000000000000604082015250565b600061246d605883611b2b565b9150612478826123eb565b605882019050919050565b7f3c2f673e00000000000000000000000000000000000000000000000000000000815250565b7f3c2f7376673e0000000000000000000000000000000000000000000000000000815250565b60006124da8261230a565b91506124e68286611b82565b91506124f28285611b82565b91506124fd8261232d565b600f8201915061250d8284611b82565b9150612518826123c8565b915061252382612460565b915061252e82612483565b60048201915061253d826124a9565b600682019150819050949350505050565b7f746f55696e74385f6f766572666c6f7700000000000000000000000000000000600082015250565b6000612584601083611656565b915061258f8261254e565b602082019050919050565b600060208201905081810360008301526125b381612577565b9050919050565b7f746f55696e74385f6f75744f66426f756e647300000000000000000000000000600082015250565b60006125f0601383611656565b91506125fb826125ba565b602082019050919050565b6000602082019050818103600083015261261f816125e3565b9050919050565b7f3c66696c7465722069643d22626c7572223e0000000000000000000000000000815250565b7f3c6665476175737369616e426c757220737464446576696174696f6e3d22312260008201527f2f3e000000000000000000000000000000000000000000000000000000000000602082015250565b60006126a8602283611b2b565b91506126b38261264c565b602282019050919050565b7f3c2f66696c7465723e0000000000000000000000000000000000000000000000815250565b7f3c66696c7465722069643d227368617270223e00000000000000000000000000815250565b7f3c636c6970506174682069643d22626c7572436c6970223e0000000000000000815250565b7f3c7265637420783d223135302220793d22313530222077696474683d2233303060008201527f22206865696768743d22333030222f3e00000000000000000000000000000000602082015250565b600061278c603083611b2b565b915061279782612730565b603082019050919050565b7f3c2f636c6970506174683e000000000000000000000000000000000000000000815250565b7f3c636c6970506174682069643d227061747465726e436c6970223e0000000000815250565b7f3c7061746820643d224d2031353020313530204c200000000000000000000000815250565b7f2031353020512000000000000000000000000000000000000000000000000000815250565b7f2031353020000000000000000000000000000000000000000000000000000000815250565b7f205a222f3e3c2f636c6970506174683e00000000000000000000000000000000815250565b7f3c636c6970506174682069643d2268616c66436c6970223e0000000000000000815250565b7f3c72656374207472616e73666f726d3d22726f7461746528312c203135302c2060008201527f31353029222077696474683d2232363022206865696768743d2236313022207860208201527f3d222d3131302220793d222d313130222f3e0000000000000000000000000000604082015250565b600061292e605283611b2b565b9150612939826128ac565b605282019050919050565b600061294f82612626565b60128201915061295f8289611b82565b915061296a8261269b565b9150612975826126be565b600982019150612984826126e4565b6013820191506129948288611b82565b915061299f826126be565b6009820191506129ae8261270a565b6018820191506129bd8261277f565b91506129c8826127a2565b600b820191506129d7826127c8565b601b820191506129e6826127ee565b6015820191506129f68287611b82565b9150612a0182612814565b600782019150612a118286611b82565b9150612a1c82611cf2565b600182019150612a2c8285611b82565b9150612a378261283a565b600582019150612a478284611b82565b9150612a5282612860565b601082019150612a6182612886565b601882019150612a7082612921565b9150612a7b826127a2565b600b82019150819050979650505050505050565b7f3c646566733e0000000000000000000000000000000000000000000000000000815250565b7f3c726563742069643d227461702220783d223135302220793d2231353022207760008201527f696474683d220000000000000000000000000000000000000000000000000000602082015250565b6000612b11602683611b2b565b9150612b1c82612ab5565b602682019050919050565b7f22206865696768743d2200000000000000000000000000000000000000000000815250565b7f222066696c7465723d2275726c2823736861727029222f3e0000000000000000815250565b7f3c726563742069643d22626c75727461702220783d223135302220793d22313560008201527f30222077696474683d2235303022206865696768743d22353030222066696c7460208201527f65723d2275726c2823626c757229222f3e000000000000000000000000000000604082015250565b6000612bf5605183611b2b565b9150612c0082612b73565b605182019050919050565b7f3c706174682069643d2270746c2220643d224d20313530203135302051200000815250565b7f2031353020313530205a22207374726f6b653d22626c61636b222f3e00000000815250565b7f3c672069643d22666c6f776572223e0000000000000000000000000000000000815250565b7f3c2f673e3c2f646566733e000000000000000000000000000000000000000000815250565b6000612cae82612a8f565b600682019150612cbd82612b04565b9150612cc9828b611b82565b9150612cd482612b27565b600a82019150612ce4828a611b82565b9150612cef82612b4d565b601882019150612cfe82612be8565b9150612d0982612c0b565b601e82019150612d198289611b82565b9150612d2482611cf2565b600182019150612d348288611b82565b9150612d3f8261283a565b600582019150612d4f8287611b82565b9150612d5a82611cf2565b600182019150612d6a8286611b82565b9150612d7582611cf2565b600182019150612d858285611b82565b9150612d9082612c31565b601c82019150612d9f82612c57565b600f82019150612daf8284611b82565b9150612dba82612c7d565b600b820191508190509998505050505050505050565b6000612ddc8286611b82565b9150612de88285611b82565b9150612df48284611b82565b9150819050949350505050565b6000612e0d8285611b82565b9150612e198284611b82565b91508190509392505050565b6000612e3082612111565b9150612e3b83612111565b925082821015612e4e57612e4d611bd5565b5b828203905092915050565b7f3d00000000000000000000000000000000000000000000000000000000000000815250565b7f2200000000000000000000000000000000000000000000000000000000000000815250565b7f2220000000000000000000000000000000000000000000000000000000000000815250565b6000612ed78285611b82565b9150612ee282612e59565b600182019150612ef182612e7f565b600182019150612f018284611b82565b9150612f0c82612ea5565b6002820191508190509392505050565b7f3c00000000000000000000000000000000000000000000000000000000000000815250565b7f2f3e000000000000000000000000000000000000000000000000000000000000815250565b6000612f7382612f1c565b600182019150612f838285611b82565b9150612f8e82611cf2565b600182019150612f9e8284611b82565b9150612fa982612f42565b6002820191508190509392505050565b7f3c75736520786c696e6b3a687265663d2223626c757274617022207472616e7360008201527f666f726d3d22726f746174652800000000000000000000000000000000000000602082015250565b6000613015602d83611b2b565b915061302082612fb9565b602d82019050919050565b7f2c203135302c20313530292220636c69702d706174683d2275726c2823626c7560008201527f72436c697029222f3e0000000000000000000000000000000000000000000000602082015250565b6000613087602983611b2b565b91506130928261302b565b602982019050919050565b7f3c75736520786c696e6b3a687265663d222374617022207472616e73666f726d60008201527f3d22726f74617465280000000000000000000000000000000000000000000000602082015250565b60006130f9602983611b2b565b91506131048261309d565b602982019050919050565b7f2c203135302c20313530292220636c69702d706174683d2275726c282370617460008201527f7465726e436c697029222f3e0000000000000000000000000000000000000000602082015250565b600061316b602c83611b2b565b91506131768261310f565b602c82019050919050565b600061318c82613008565b91506131988285611b82565b91506131a38261307a565b91506131ae826130ec565b91506131ba8284611b82565b91506131c58261315e565b91508190509392505050565b7f3c75736520786c696e6b3a687265663d222370746c22207472616e73666f726d60008201527f3d22726f74617465280000000000000000000000000000000000000000000000602082015250565b600061322d602983611b2b565b9150613238826131d1565b602982019050919050565b7f2c203135302c2031353029222066696c6c3d2268736c28000000000000000000815250565b7f2c313030252c3530252922207374726f6b653d22626c61636b222f3e00000000815250565b600061329a82613220565b91506132a68285611b82565b91506132b182613243565b6017820191506132c18284611b82565b91506132cc82613269565b601c82019150819050939250505056fe4461697379636861696e732e204c69666520496e204576657279204272656174682e3c7374796c653e23656e74697265207b7472616e73666f726d2d6f726967696e3a2031353070782031353070783b616e696d6174696f6e3a20726f7461746520383073206c696e65617220696e66696e6974653b207d406b65796672616d657320726f74617465207b66726f6d207b7472616e73666f726d3a20726f746174652830646567293b7d746f207b7472616e73666f726d3a20726f7461746528333630646567293b7d3c2f7374796c653ea2646970667358221220003a4400cbdaf2bbd7ea58fcaa2e313d5bcd0e91313d2a32a64834e7e4e68aff64736f6c634300080c0033","opcodes":"PUSH1 0x80 PUSH1 0x40 MSTORE CALLVALUE DUP1 ISZERO PUSH3 0x11 JUMPI PUSH1 0x0 DUP1 REVERT JUMPDEST POP PUSH1 0x40 MLOAD PUSH3 0x843D CODESIZE SUB DUP1 PUSH3 0x843D DUP4 CODECOPY DUP2 DUP2 ADD PUSH1 0x40 MSTORE DUP2 ADD SWAP1 PUSH3 0x37 SWAP2 SWAP1 PUSH3 0x829 JUMP JUMPDEST DUP6 DUP6 DUP2 PUSH1 0x0 SWAP1 DUP1 MLOAD SWAP1 PUSH1 0x20 ADD SWAP1 PUSH3 0x51 SWAP3 SWAP2 SWAP1 PUSH3 0x4F3 JUMP JUMPDEST POP DUP1 PUSH1 0x1 SWAP1 DUP1 MLOAD SWAP1 PUSH1 0x20 ADD SWAP1 PUSH3 0x6A SWAP3 SWAP2 SWAP1 PUSH3 0x4F3 JUMP JUMPDEST POP POP POP CALLER PUSH1 0x6 PUSH1 0x0 PUSH2 0x100 EXP DUP2 SLOAD DUP2 PUSH20 0xFFFFFFFFFFFFFFFFFFFFFFFFFFFFFFFFFFFFFFFF MUL NOT AND SWAP1 DUP4 PUSH20 0xFFFFFFFFFFFFFFFFFFFFFFFFFFFFFFFFFFFFFFFF AND MUL OR SWAP1 SSTORE POP PUSH1 0x40 MLOAD PUSH3 0xBC SWAP1 PUSH3 0x584 JUMP JUMPDEST PUSH1 0x40 MLOAD DUP1 SWAP2 SUB SWAP1 PUSH1 0x0 CREATE DUP1 ISZERO DUP1 ISZERO PUSH3 0xD9 JUMPI RETURNDATASIZE PUSH1 0x0 DUP1 RETURNDATACOPY RETURNDATASIZE PUSH1 0x0 REVERT JUMPDEST POP PUSH1 0x8 PUSH1 0x0 PUSH2 0x100 EXP DUP2 SLOAD DUP2 PUSH20 0xFFFFFFFFFFFFFFFFFFFFFFFFFFFFFFFFFFFFFFFF MUL NOT AND SWAP1 DUP4 PUSH20 0xFFFFFFFFFFFFFFFFFFFFFFFFFFFFFFFFFFFFFFFF AND MUL OR SWAP1 SSTORE POP DUP4 PUSH1 0x7 PUSH1 0x0 PUSH2 0x100 EXP DUP2 SLOAD DUP2 PUSH20 0xFFFFFFFFFFFFFFFFFFFFFFFFFFFFFFFFFFFFFFFF MUL NOT AND SWAP1 DUP4 PUSH20 0xFFFFFFFFFFFFFFFFFFFFFFFFFFFFFFFFFFFFFFFF AND MUL OR SWAP1 SSTORE POP DUP3 PUSH1 0x9 DUP2 SWAP1 SSTORE POP DUP2 PUSH1 0xA DUP2 SWAP1 SSTORE POP DUP1 PUSH1 0xE DUP2 SWAP1 SSTORE POP PUSH3 0x1A6 PUSH1 0x6 PUSH1 0x0 SWAP1 SLOAD SWAP1 PUSH2 0x100 EXP SWAP1 DIV PUSH20 0xFFFFFFFFFFFFFFFFFFFFFFFFFFFFFFFFFFFFFFFF AND TIMESTAMP PUSH1 0x1 PUSH3 0x22C PUSH1 0x20 SHL PUSH1 0x20 SHR JUMP JUMPDEST PUSH1 0x1 PUSH1 0xD PUSH1 0x0 PUSH1 0x6 PUSH1 0x0 SWAP1 SLOAD SWAP1 PUSH2 0x100 EXP SWAP1 DIV PUSH20 0xFFFFFFFFFFFFFFFFFFFFFFFFFFFFFFFFFFFFFFFF AND PUSH20 0xFFFFFFFFFFFFFFFFFFFFFFFFFFFFFFFFFFFFFFFF AND PUSH20 0xFFFFFFFFFFFFFFFFFFFFFFFFFFFFFFFFFFFFFFFF AND DUP2 MSTORE PUSH1 0x20 ADD SWAP1 DUP2 MSTORE PUSH1 0x20 ADD PUSH1 0x0 KECCAK256 PUSH1 0x0 PUSH2 0x100 EXP DUP2 SLOAD DUP2 PUSH1 0xFF MUL NOT AND SWAP1 DUP4 ISZERO ISZERO MUL OR SWAP1 SSTORE POP POP POP POP POP POP POP PUSH3 0xBA2 JUMP JUMPDEST PUSH1 0x0 DUP3 DUP5 PUSH1 0x40 MLOAD PUSH1 0x20 ADD PUSH3 0x243 SWAP3 SWAP2 SWAP1 PUSH3 0x98C JUMP JUMPDEST PUSH1 0x40 MLOAD PUSH1 0x20 DUP2 DUP4 SUB SUB DUP2 MSTORE SWAP1 PUSH1 0x40 MSTORE DUP1 MLOAD SWAP1 PUSH1 0x20 ADD KECCAK256 PUSH1 0x0 SHR SWAP1 POP PUSH1 0x1 ISZERO ISZERO DUP3 ISZERO ISZERO EQ ISZERO PUSH3 0x298 JUMPI DUP2 PUSH1 0xC PUSH1 0x0 DUP4 DUP2 MSTORE PUSH1 0x20 ADD SWAP1 DUP2 MSTORE PUSH1 0x20 ADD PUSH1 0x0 KECCAK256 PUSH1 0x0 PUSH2 0x100 EXP DUP2 SLOAD DUP2 PUSH1 0xFF MUL NOT AND SWAP1 DUP4 ISZERO ISZERO MUL OR SWAP1 SSTORE POP JUMPDEST PUSH3 0x2AF DUP5 DUP3 PUSH3 0x2B5 PUSH1 0x20 SHL PUSH3 0x1C68 OR PUSH1 0x20 SHR JUMP JUMPDEST POP POP POP POP JUMP JUMPDEST PUSH1 0x0 PUSH20 0xFFFFFFFFFFFFFFFFFFFFFFFFFFFFFFFFFFFFFFFF AND DUP3 PUSH20 0xFFFFFFFFFFFFFFFFFFFFFFFFFFFFFFFFFFFFFFFF AND EQ ISZERO PUSH3 0x328 JUMPI PUSH1 0x40 MLOAD PUSH32 0x8C379A000000000000000000000000000000000000000000000000000000000 DUP2 MSTORE PUSH1 0x4 ADD PUSH3 0x31F SWAP1 PUSH3 0xA1D JUMP JUMPDEST PUSH1 0x40 MLOAD DUP1 SWAP2 SUB SWAP1 REVERT JUMPDEST PUSH3 0x339 DUP2 PUSH3 0x487 PUSH1 0x20 SHL PUSH1 0x20 SHR JUMP JUMPDEST ISZERO PUSH3 0x37C JUMPI PUSH1 0x40 MLOAD PUSH32 0x8C379A000000000000000000000000000000000000000000000000000000000 DUP2 MSTORE PUSH1 0x4 ADD PUSH3 0x373 SWAP1 PUSH3 0xA8F JUMP JUMPDEST PUSH1 0x40 MLOAD DUP1 SWAP2 SUB SWAP1 REVERT JUMPDEST PUSH1 0x1 PUSH1 0x3 PUSH1 0x0 DUP5 PUSH20 0xFFFFFFFFFFFFFFFFFFFFFFFFFFFFFFFFFFFFFFFF AND PUSH20 0xFFFFFFFFFFFFFFFFFFFFFFFFFFFFFFFFFFFFFFFF AND DUP2 MSTORE PUSH1 0x20 ADD SWAP1 DUP2 MSTORE PUSH1 0x20 ADD PUSH1 0x0 KECCAK256 PUSH1 0x0 DUP3 DUP3 SLOAD PUSH3 0x3CE SWAP2 SWAP1 PUSH3 0xAE0 JUMP JUMPDEST SWAP3 POP POP DUP2 SWAP1 SSTORE POP DUP2 PUSH1 0x2 PUSH1 0x0 DUP4 DUP2 MSTORE PUSH1 0x20 ADD SWAP1 DUP2 MSTORE PUSH1 0x20 ADD PUSH1 0x0 KECCAK256 PUSH1 0x0 PUSH2 0x100 EXP DUP2 SLOAD DUP2 PUSH20 0xFFFFFFFFFFFFFFFFFFFFFFFFFFFFFFFFFFFFFFFF MUL NOT AND SWAP1 DUP4 PUSH20 0xFFFFFFFFFFFFFFFFFFFFFFFFFFFFFFFFFFFFFFFF AND MUL OR SWAP1 SSTORE POP DUP1 DUP3 PUSH20 0xFFFFFFFFFFFFFFFFFFFFFFFFFFFFFFFFFFFFFFFF AND PUSH1 0x0 PUSH20 0xFFFFFFFFFFFFFFFFFFFFFFFFFFFFFFFFFFFFFFFF AND PUSH32 0xDDF252AD1BE2C89B69C2B068FC378DAA952BA7F163C4A11628F55A4DF523B3EF PUSH1 0x40 MLOAD PUSH1 0x40 MLOAD DUP1 SWAP2 SUB SWAP1 LOG4 POP POP JUMP JUMPDEST PUSH1 0x0 DUP1 PUSH20 0xFFFFFFFFFFFFFFFFFFFFFFFFFFFFFFFFFFFFFFFF AND PUSH1 0x2 PUSH1 0x0 DUP5 DUP2 MSTORE PUSH1 0x20 ADD SWAP1 DUP2 MSTORE PUSH1 0x20 ADD PUSH1 0x0 KECCAK256 PUSH1 0x0 SWAP1 SLOAD SWAP1 PUSH2 0x100 EXP SWAP1 DIV PUSH20 0xFFFFFFFFFFFFFFFFFFFFFFFFFFFFFFFFFFFFFFFF AND PUSH20 0xFFFFFFFFFFFFFFFFFFFFFFFFFFFFFFFFFFFFFFFF AND EQ ISZERO SWAP1 POP SWAP2 SWAP1 POP JUMP JUMPDEST DUP3 DUP1 SLOAD PUSH3 0x501 SWAP1 PUSH3 0xB6C JUMP JUMPDEST SWAP1 PUSH1 0x0 MSTORE PUSH1 0x20 PUSH1 0x0 KECCAK256 SWAP1 PUSH1 0x1F ADD PUSH1 0x20 SWAP1 DIV DUP2 ADD SWAP3 DUP3 PUSH3 0x525 JUMPI PUSH1 0x0 DUP6 SSTORE PUSH3 0x571 JUMP JUMPDEST DUP3 PUSH1 0x1F LT PUSH3 0x540 JUMPI DUP1 MLOAD PUSH1 0xFF NOT AND DUP4 DUP1 ADD OR DUP6 SSTORE PUSH3 0x571 JUMP JUMPDEST DUP3 DUP1 ADD PUSH1 0x1 ADD DUP6 SSTORE DUP3 ISZERO PUSH3 0x571 JUMPI SWAP2 DUP3 ADD JUMPDEST DUP3 DUP2 GT ISZERO PUSH3 0x570 JUMPI DUP3 MLOAD DUP3 SSTORE SWAP2 PUSH1 0x20 ADD SWAP2 SWAP1 PUSH1 0x1 ADD SWAP1 PUSH3 0x553 JUMP JUMPDEST JUMPDEST POP SWAP1 POP PUSH3 0x580 SWAP2 SWAP1 PUSH3 0x592 JUMP JUMPDEST POP SWAP1 JUMP JUMPDEST PUSH2 0x3403 DUP1 PUSH3 0x503A DUP4 CODECOPY ADD SWAP1 JUMP JUMPDEST JUMPDEST DUP1 DUP3 GT ISZERO PUSH3 0x5AD JUMPI PUSH1 0x0 DUP2 PUSH1 0x0 SWAP1 SSTORE POP PUSH1 0x1 ADD PUSH3 0x593 JUMP JUMPDEST POP SWAP1 JUMP JUMPDEST PUSH1 0x0 PUSH1 0x40 MLOAD SWAP1 POP SWAP1 JUMP JUMPDEST PUSH1 0x0 DUP1 REVERT JUMPDEST PUSH1 0x0 DUP1 REVERT JUMPDEST PUSH1 0x0 DUP1 REVERT JUMPDEST PUSH1 0x0 DUP1 REVERT JUMPDEST PUSH1 0x0 PUSH1 0x1F NOT PUSH1 0x1F DUP4 ADD AND SWAP1 POP SWAP2 SWAP1 POP JUMP JUMPDEST PUSH32 0x4E487B7100000000000000000000000000000000000000000000000000000000 PUSH1 0x0 MSTORE PUSH1 0x41 PUSH1 0x4 MSTORE PUSH1 0x24 PUSH1 0x0 REVERT JUMPDEST PUSH3 0x61A DUP3 PUSH3 0x5CF JUMP JUMPDEST DUP2 ADD DUP2 DUP2 LT PUSH8 0xFFFFFFFFFFFFFFFF DUP3 GT OR ISZERO PUSH3 0x63C JUMPI PUSH3 0x63B PUSH3 0x5E0 JUMP JUMPDEST JUMPDEST DUP1 PUSH1 0x40 MSTORE POP POP POP JUMP JUMPDEST PUSH1 0x0 PUSH3 0x651 PUSH3 0x5B1 JUMP JUMPDEST SWAP1 POP PUSH3 0x65F DUP3 DUP3 PUSH3 0x60F JUMP JUMPDEST SWAP2 SWAP1 POP JUMP JUMPDEST PUSH1 0x0 PUSH8 0xFFFFFFFFFFFFFFFF DUP3 GT ISZERO PUSH3 0x682 JUMPI PUSH3 0x681 PUSH3 0x5E0 JUMP JUMPDEST JUMPDEST PUSH3 0x68D DUP3 PUSH3 0x5CF JUMP JUMPDEST SWAP1 POP PUSH1 0x20 DUP2 ADD SWAP1 POP SWAP2 SWAP1 POP JUMP JUMPDEST PUSH1 0x0 JUMPDEST DUP4 DUP2 LT ISZERO PUSH3 0x6BA JUMPI DUP1 DUP3 ADD MLOAD DUP2 DUP5 ADD MSTORE PUSH1 0x20 DUP2 ADD SWAP1 POP PUSH3 0x69D JUMP JUMPDEST DUP4 DUP2 GT ISZERO PUSH3 0x6CA JUMPI PUSH1 0x0 DUP5 DUP5 ADD MSTORE JUMPDEST POP POP POP POP JUMP JUMPDEST PUSH1 0x0 PUSH3 0x6E7 PUSH3 0x6E1 DUP5 PUSH3 0x664 JUMP JUMPDEST PUSH3 0x645 JUMP JUMPDEST SWAP1 POP DUP3 DUP2 MSTORE PUSH1 0x20 DUP2 ADD DUP5 DUP5 DUP5 ADD GT ISZERO PUSH3 0x706 JUMPI PUSH3 0x705 PUSH3 0x5CA JUMP JUMPDEST JUMPDEST PUSH3 0x713 DUP5 DUP3 DUP6 PUSH3 0x69A JUMP JUMPDEST POP SWAP4 SWAP3 POP POP POP JUMP JUMPDEST PUSH1 0x0 DUP3 PUSH1 0x1F DUP4 ADD SLT PUSH3 0x733 JUMPI PUSH3 0x732 PUSH3 0x5C5 JUMP JUMPDEST JUMPDEST DUP2 MLOAD PUSH3 0x745 DUP5 DUP3 PUSH1 0x20 DUP7 ADD PUSH3 0x6D0 JUMP JUMPDEST SWAP2 POP POP SWAP3 SWAP2 POP POP JUMP JUMPDEST PUSH1 0x0 PUSH20 0xFFFFFFFFFFFFFFFFFFFFFFFFFFFFFFFFFFFFFFFF DUP3 AND SWAP1 POP SWAP2 SWAP1 POP JUMP JUMPDEST PUSH1 0x0 PUSH3 0x77B DUP3 PUSH3 0x74E JUMP JUMPDEST SWAP1 POP SWAP2 SWAP1 POP JUMP JUMPDEST PUSH3 0x78D DUP2 PUSH3 0x76E JUMP JUMPDEST DUP2 EQ PUSH3 0x799 JUMPI PUSH1 0x0 DUP1 REVERT JUMPDEST POP JUMP JUMPDEST PUSH1 0x0 DUP2 MLOAD SWAP1 POP PUSH3 0x7AD DUP2 PUSH3 0x782 JUMP JUMPDEST SWAP3 SWAP2 POP POP JUMP JUMPDEST PUSH1 0x0 DUP2 SWAP1 POP SWAP2 SWAP1 POP JUMP JUMPDEST PUSH3 0x7C8 DUP2 PUSH3 0x7B3 JUMP JUMPDEST DUP2 EQ PUSH3 0x7D4 JUMPI PUSH1 0x0 DUP1 REVERT JUMPDEST POP JUMP JUMPDEST PUSH1 0x0 DUP2 MLOAD SWAP1 POP PUSH3 0x7E8 DUP2 PUSH3 0x7BD JUMP JUMPDEST SWAP3 SWAP2 POP POP JUMP JUMPDEST PUSH1 0x0 DUP2 SWAP1 POP SWAP2 SWAP1 POP JUMP JUMPDEST PUSH3 0x803 DUP2 PUSH3 0x7EE JUMP JUMPDEST DUP2 EQ PUSH3 0x80F JUMPI PUSH1 0x0 DUP1 REVERT JUMPDEST POP JUMP JUMPDEST PUSH1 0x0 DUP2 MLOAD SWAP1 POP PUSH3 0x823 DUP2 PUSH3 0x7F8 JUMP JUMPDEST SWAP3 SWAP2 POP POP JUMP JUMPDEST PUSH1 0x0 DUP1 PUSH1 0x0 DUP1 PUSH1 0x0 DUP1 PUSH1 0xC0 DUP8 DUP10 SUB SLT ISZERO PUSH3 0x849 JUMPI PUSH3 0x848 PUSH3 0x5BB JUMP JUMPDEST JUMPDEST PUSH1 0x0 DUP8 ADD MLOAD PUSH8 0xFFFFFFFFFFFFFFFF DUP2 GT ISZERO PUSH3 0x86A JUMPI PUSH3 0x869 PUSH3 0x5C0 JUMP JUMPDEST JUMPDEST PUSH3 0x878 DUP10 DUP3 DUP11 ADD PUSH3 0x71B JUMP JUMPDEST SWAP7 POP POP PUSH1 0x20 DUP8 ADD MLOAD PUSH8 0xFFFFFFFFFFFFFFFF DUP2 GT ISZERO PUSH3 0x89C JUMPI PUSH3 0x89B PUSH3 0x5C0 JUMP JUMPDEST JUMPDEST PUSH3 0x8AA DUP10 DUP3 DUP11 ADD PUSH3 0x71B JUMP JUMPDEST SWAP6 POP POP PUSH1 0x40 PUSH3 0x8BD DUP10 DUP3 DUP11 ADD PUSH3 0x79C JUMP JUMPDEST SWAP5 POP POP PUSH1 0x60 PUSH3 0x8D0 DUP10 DUP3 DUP11 ADD PUSH3 0x7D7 JUMP JUMPDEST SWAP4 POP POP PUSH1 0x80 PUSH3 0x8E3 DUP10 DUP3 DUP11 ADD PUSH3 0x7D7 JUMP JUMPDEST SWAP3 POP POP PUSH1 0xA0 PUSH3 0x8F6 DUP10 DUP3 DUP11 ADD PUSH3 0x812 JUMP JUMPDEST SWAP2 POP POP SWAP3 SWAP6 POP SWAP3 SWAP6 POP SWAP3 SWAP6 JUMP JUMPDEST PUSH1 0x0 DUP2 SWAP1 POP SWAP2 SWAP1 POP JUMP JUMPDEST PUSH3 0x922 PUSH3 0x91C DUP3 PUSH3 0x7B3 JUMP JUMPDEST PUSH3 0x903 JUMP JUMPDEST DUP3 MSTORE POP POP JUMP JUMPDEST PUSH1 0x0 PUSH3 0x935 DUP3 PUSH3 0x74E JUMP JUMPDEST SWAP1 POP SWAP2 SWAP1 POP JUMP JUMPDEST PUSH1 0x0 DUP2 PUSH1 0x60 SHL SWAP1 POP SWAP2 SWAP1 POP JUMP JUMPDEST PUSH1 0x0 PUSH3 0x956 DUP3 PUSH3 0x93C JUMP JUMPDEST SWAP1 POP SWAP2 SWAP1 POP JUMP JUMPDEST PUSH1 0x0 PUSH3 0x96A DUP3 PUSH3 0x949 JUMP JUMPDEST SWAP1 POP SWAP2 SWAP1 POP JUMP JUMPDEST PUSH3 0x986 PUSH3 0x980 DUP3 PUSH3 0x928 JUMP JUMPDEST PUSH3 0x95D JUMP JUMPDEST DUP3 MSTORE POP POP JUMP JUMPDEST PUSH1 0x0 PUSH3 0x99A DUP3 DUP6 PUSH3 0x90D JUMP JUMPDEST PUSH1 0x20 DUP3 ADD SWAP2 POP PUSH3 0x9AC DUP3 DUP5 PUSH3 0x971 JUMP JUMPDEST PUSH1 0x14 DUP3 ADD SWAP2 POP DUP2 SWAP1 POP SWAP4 SWAP3 POP POP POP JUMP JUMPDEST PUSH1 0x0 DUP3 DUP3 MSTORE PUSH1 0x20 DUP3 ADD SWAP1 POP SWAP3 SWAP2 POP POP JUMP JUMPDEST PUSH32 0x4552433732313A206D696E7420746F20746865207A65726F2061646472657373 PUSH1 0x0 DUP3 ADD MSTORE POP JUMP JUMPDEST PUSH1 0x0 PUSH3 0xA05 PUSH1 0x20 DUP4 PUSH3 0x9BC JUMP JUMPDEST SWAP2 POP PUSH3 0xA12 DUP3 PUSH3 0x9CD JUMP JUMPDEST PUSH1 0x20 DUP3 ADD SWAP1 POP SWAP2 SWAP1 POP JUMP JUMPDEST PUSH1 0x0 PUSH1 0x20 DUP3 ADD SWAP1 POP DUP2 DUP2 SUB PUSH1 0x0 DUP4 ADD MSTORE PUSH3 0xA38 DUP2 PUSH3 0x9F6 JUMP JUMPDEST SWAP1 POP SWAP2 SWAP1 POP JUMP JUMPDEST PUSH32 0x4552433732313A20746F6B656E20616C7265616479206D696E74656400000000 PUSH1 0x0 DUP3 ADD MSTORE POP JUMP JUMPDEST PUSH1 0x0 PUSH3 0xA77 PUSH1 0x1C DUP4 PUSH3 0x9BC JUMP JUMPDEST SWAP2 POP PUSH3 0xA84 DUP3 PUSH3 0xA3F JUMP JUMPDEST PUSH1 0x20 DUP3 ADD SWAP1 POP SWAP2 SWAP1 POP JUMP JUMPDEST PUSH1 0x0 PUSH1 0x20 DUP3 ADD SWAP1 POP DUP2 DUP2 SUB PUSH1 0x0 DUP4 ADD MSTORE PUSH3 0xAAA DUP2 PUSH3 0xA68 JUMP JUMPDEST SWAP1 POP SWAP2 SWAP1 POP JUMP JUMPDEST PUSH32 0x4E487B7100000000000000000000000000000000000000000000000000000000 PUSH1 0x0 MSTORE PUSH1 0x11 PUSH1 0x4 MSTORE PUSH1 0x24 PUSH1 0x0 REVERT JUMPDEST PUSH1 0x0 PUSH3 0xAED DUP3 PUSH3 0x7B3 JUMP JUMPDEST SWAP2 POP PUSH3 0xAFA DUP4 PUSH3 0x7B3 JUMP JUMPDEST SWAP3 POP DUP3 PUSH32 0xFFFFFFFFFFFFFFFFFFFFFFFFFFFFFFFFFFFFFFFFFFFFFFFFFFFFFFFFFFFFFFFF SUB DUP3 GT ISZERO PUSH3 0xB32 JUMPI PUSH3 0xB31 PUSH3 0xAB1 JUMP JUMPDEST JUMPDEST DUP3 DUP3 ADD SWAP1 POP SWAP3 SWAP2 POP POP JUMP JUMPDEST PUSH32 0x4E487B7100000000000000000000000000000000000000000000000000000000 PUSH1 0x0 MSTORE PUSH1 0x22 PUSH1 0x4 MSTORE PUSH1 0x24 PUSH1 0x0 REVERT JUMPDEST PUSH1 0x0 PUSH1 0x2 DUP3 DIV SWAP1 POP PUSH1 0x1 DUP3 AND DUP1 PUSH3 0xB85 JUMPI PUSH1 0x7F DUP3 AND SWAP2 POP JUMPDEST PUSH1 0x20 DUP3 LT DUP2 EQ ISZERO PUSH3 0xB9C JUMPI PUSH3 0xB9B PUSH3 0xB3D JUMP JUMPDEST JUMPDEST POP SWAP2 SWAP1 POP JUMP JUMPDEST PUSH2 0x4488 DUP1 PUSH3 0xBB2 PUSH1 0x0 CODECOPY PUSH1 0x0 RETURN INVALID PUSH1 0x80 PUSH1 0x40 MSTORE PUSH1 0x4 CALLDATASIZE LT PUSH2 0x1F9 JUMPI PUSH1 0x0 CALLDATALOAD PUSH1 0xE0 SHR DUP1 PUSH4 0x70A08231 GT PUSH2 0x10D JUMPI DUP1 PUSH4 0xABA048B4 GT PUSH2 0xA0 JUMPI DUP1 PUSH4 0xC87B56DD GT PUSH2 0x6F JUMPI DUP1 PUSH4 0xC87B56DD EQ PUSH2 0x72B JUMPI DUP1 PUSH4 0xC884EF83 EQ PUSH2 0x768 JUMPI DUP1 PUSH4 0xE086E5EC EQ PUSH2 0x7A5 JUMPI DUP1 PUSH4 0xE985E9C5 EQ PUSH2 0x7BC JUMPI DUP1 PUSH4 0xFD85B89F EQ PUSH2 0x7F9 JUMPI PUSH2 0x1F9 JUMP JUMPDEST DUP1 PUSH4 0xABA048B4 EQ PUSH2 0x683 JUMPI DUP1 PUSH4 0xB88D4FDE EQ PUSH2 0x6AC JUMPI DUP1 PUSH4 0xC24A0F8B EQ PUSH2 0x6D5 JUMPI DUP1 PUSH4 0xC35AB716 EQ PUSH2 0x700 JUMPI PUSH2 0x1F9 JUMP JUMPDEST DUP1 PUSH4 0x95D89B41 GT PUSH2 0xDC JUMPI DUP1 PUSH4 0x95D89B41 EQ PUSH2 0x5B5 JUMPI DUP1 PUSH4 0xA22CB465 EQ PUSH2 0x5E0 JUMPI DUP1 PUSH4 0xA48B3B8F EQ PUSH2 0x609 JUMPI DUP1 PUSH4 0xA7BD0DBA EQ PUSH2 0x646 JUMPI PUSH2 0x1F9 JUMP JUMPDEST DUP1 PUSH4 0x70A08231 EQ PUSH2 0x4D3 JUMPI DUP1 PUSH4 0x79B92F27 EQ PUSH2 0x510 JUMPI DUP1 PUSH4 0x8DA5CB5B EQ PUSH2 0x54D JUMPI DUP1 PUSH4 0x90346FD4 EQ PUSH2 0x578 JUMPI PUSH2 0x1F9 JUMP JUMPDEST DUP1 PUSH4 0x3EA8AA24 GT PUSH2 0x190 JUMPI DUP1 PUSH4 0x6352211E GT PUSH2 0x15F JUMPI DUP1 PUSH4 0x6352211E EQ PUSH2 0x3EE JUMPI DUP1 PUSH4 0x66D003AC EQ PUSH2 0x42B JUMPI DUP1 PUSH4 0x6D9EC494 EQ PUSH2 0x456 JUMPI DUP1 PUSH4 0x6DDAB6F9 EQ PUSH2 0x481 JUMPI DUP1 PUSH4 0x6FF1C9BC EQ PUSH2 0x4AA JUMPI PUSH2 0x1F9 JUMP JUMPDEST DUP1 PUSH4 0x3EA8AA24 EQ PUSH2 0x355 JUMPI DUP1 PUSH4 0x423D7939 EQ PUSH2 0x35F JUMPI DUP1 PUSH4 0x42842E0E EQ PUSH2 0x388 JUMPI DUP1 PUSH4 0x4B44D812 EQ PUSH2 0x3B1 JUMPI PUSH2 0x1F9 JUMP JUMPDEST DUP1 PUSH4 0xB97BC86 GT PUSH2 0x1CC JUMPI DUP1 PUSH4 0xB97BC86 EQ PUSH2 0x2CC JUMPI DUP1 PUSH4 0x1249C58B EQ PUSH2 0x2F7 JUMPI DUP1 PUSH4 0x23B872DD EQ PUSH2 0x301 JUMPI DUP1 PUSH4 0x303E74DF EQ PUSH2 0x32A JUMPI PUSH2 0x1F9 JUMP JUMPDEST DUP1 PUSH4 0x1FFC9A7 EQ PUSH2 0x1FE JUMPI DUP1 PUSH4 0x6FDDE03 EQ PUSH2 0x23B JUMPI DUP1 PUSH4 0x81812FC EQ PUSH2 0x266 JUMPI DUP1 PUSH4 0x95EA7B3 EQ PUSH2 0x2A3 JUMPI JUMPDEST PUSH1 0x0 DUP1 REVERT JUMPDEST CALLVALUE DUP1 ISZERO PUSH2 0x20A JUMPI PUSH1 0x0 DUP1 REVERT JUMPDEST POP PUSH2 0x225 PUSH1 0x4 DUP1 CALLDATASIZE SUB DUP2 ADD SWAP1 PUSH2 0x220 SWAP2 SWAP1 PUSH2 0x28A4 JUMP JUMPDEST PUSH2 0x836 JUMP JUMPDEST PUSH1 0x40 MLOAD PUSH2 0x232 SWAP2 SWAP1 PUSH2 0x28EC JUMP JUMPDEST PUSH1 0x40 MLOAD DUP1 SWAP2 SUB SWAP1 RETURN JUMPDEST CALLVALUE DUP1 ISZERO PUSH2 0x247 JUMPI PUSH1 0x0 DUP1 REVERT JUMPDEST POP PUSH2 0x250 PUSH2 0x918 JUMP JUMPDEST PUSH1 0x40 MLOAD PUSH2 0x25D SWAP2 SWAP1 PUSH2 0x29A0 JUMP JUMPDEST PUSH1 0x40 MLOAD DUP1 SWAP2 SUB SWAP1 RETURN JUMPDEST CALLVALUE DUP1 ISZERO PUSH2 0x272 JUMPI PUSH1 0x0 DUP1 REVERT JUMPDEST POP PUSH2 0x28D PUSH1 0x4 DUP1 CALLDATASIZE SUB DUP2 ADD SWAP1 PUSH2 0x288 SWAP2 SWAP1 PUSH2 0x29F8 JUMP JUMPDEST PUSH2 0x9AA JUMP JUMPDEST PUSH1 0x40 MLOAD PUSH2 0x29A SWAP2 SWAP1 PUSH2 0x2A66 JUMP JUMPDEST PUSH1 0x40 MLOAD DUP1 SWAP2 SUB SWAP1 RETURN JUMPDEST CALLVALUE DUP1 ISZERO PUSH2 0x2AF JUMPI PUSH1 0x0 DUP1 REVERT JUMPDEST POP PUSH2 0x2CA PUSH1 0x4 DUP1 CALLDATASIZE SUB DUP2 ADD SWAP1 PUSH2 0x2C5 SWAP2 SWAP1 PUSH2 0x2AAD JUMP JUMPDEST PUSH2 0xA2F JUMP JUMPDEST STOP JUMPDEST CALLVALUE DUP1 ISZERO PUSH2 0x2D8 JUMPI PUSH1 0x0 DUP1 REVERT JUMPDEST POP PUSH2 0x2E1 PUSH2 0xB39 JUMP JUMPDEST PUSH1 0x40 MLOAD PUSH2 0x2EE SWAP2 SWAP1 PUSH2 0x2AFC JUMP JUMPDEST PUSH1 0x40 MLOAD DUP1 SWAP2 SUB SWAP1 RETURN JUMPDEST PUSH2 0x2FF PUSH2 0xB3F JUMP JUMPDEST STOP JUMPDEST CALLVALUE DUP1 ISZERO PUSH2 0x30D JUMPI PUSH1 0x0 DUP1 REVERT JUMPDEST POP PUSH2 0x328 PUSH1 0x4 DUP1 CALLDATASIZE SUB DUP2 ADD SWAP1 PUSH2 0x323 SWAP2 SWAP1 PUSH2 0x2B17 JUMP JUMPDEST PUSH2 0xB97 JUMP JUMPDEST STOP JUMPDEST CALLVALUE DUP1 ISZERO PUSH2 0x336 JUMPI PUSH1 0x0 DUP1 REVERT JUMPDEST POP PUSH2 0x33F PUSH2 0xBF0 JUMP JUMPDEST PUSH1 0x40 MLOAD PUSH2 0x34C SWAP2 SWAP1 PUSH2 0x2BC9 JUMP JUMPDEST PUSH1 0x40 MLOAD DUP1 SWAP2 SUB SWAP1 RETURN JUMPDEST PUSH2 0x35D PUSH2 0xC16 JUMP JUMPDEST STOP JUMPDEST CALLVALUE DUP1 ISZERO PUSH2 0x36B JUMPI PUSH1 0x0 DUP1 REVERT JUMPDEST POP PUSH2 0x386 PUSH1 0x4 DUP1 CALLDATASIZE SUB DUP2 ADD SWAP1 PUSH2 0x381 SWAP2 SWAP1 PUSH2 0x2C49 JUMP JUMPDEST PUSH2 0xCCF JUMP JUMPDEST STOP JUMPDEST CALLVALUE DUP1 ISZERO PUSH2 0x394 JUMPI PUSH1 0x0 DUP1 REVERT JUMPDEST POP PUSH2 0x3AF PUSH1 0x4 DUP1 CALLDATASIZE SUB DUP2 ADD SWAP1 PUSH2 0x3AA SWAP2 SWAP1 PUSH2 0x2B17 JUMP JUMPDEST PUSH2 0xE84 JUMP JUMPDEST STOP JUMPDEST CALLVALUE DUP1 ISZERO PUSH2 0x3BD JUMPI PUSH1 0x0 DUP1 REVERT JUMPDEST POP PUSH2 0x3D8 PUSH1 0x4 DUP1 CALLDATASIZE SUB DUP2 ADD SWAP1 PUSH2 0x3D3 SWAP2 SWAP1 PUSH2 0x29F8 JUMP JUMPDEST PUSH2 0xEA4 JUMP JUMPDEST PUSH1 0x40 MLOAD PUSH2 0x3E5 SWAP2 SWAP1 PUSH2 0x29A0 JUMP JUMPDEST PUSH1 0x40 MLOAD DUP1 SWAP2 SUB SWAP1 RETURN JUMPDEST CALLVALUE DUP1 ISZERO PUSH2 0x3FA JUMPI PUSH1 0x0 DUP1 REVERT JUMPDEST POP PUSH2 0x415 PUSH1 0x4 DUP1 CALLDATASIZE SUB DUP2 ADD SWAP1 PUSH2 0x410 SWAP2 SWAP1 PUSH2 0x29F8 JUMP JUMPDEST PUSH2 0xF76 JUMP JUMPDEST PUSH1 0x40 MLOAD PUSH2 0x422 SWAP2 SWAP1 PUSH2 0x2A66 JUMP JUMPDEST PUSH1 0x40 MLOAD DUP1 SWAP2 SUB SWAP1 RETURN JUMPDEST CALLVALUE DUP1 ISZERO PUSH2 0x437 JUMPI PUSH1 0x0 DUP1 REVERT JUMPDEST POP PUSH2 0x440 PUSH2 0x1028 JUMP JUMPDEST PUSH1 0x40 MLOAD PUSH2 0x44D SWAP2 SWAP1 PUSH2 0x2CCA JUMP JUMPDEST PUSH1 0x40 MLOAD DUP1 SWAP2 SUB SWAP1 RETURN JUMPDEST CALLVALUE DUP1 ISZERO PUSH2 0x462 JUMPI PUSH1 0x0 DUP1 REVERT JUMPDEST POP PUSH2 0x46B PUSH2 0x104E JUMP JUMPDEST PUSH1 0x40 MLOAD PUSH2 0x478 SWAP2 SWAP1 PUSH2 0x2CFE JUMP JUMPDEST PUSH1 0x40 MLOAD DUP1 SWAP2 SUB SWAP1 RETURN JUMPDEST CALLVALUE DUP1 ISZERO PUSH2 0x48D JUMPI PUSH1 0x0 DUP1 REVERT JUMPDEST POP PUSH2 0x4A8 PUSH1 0x4 DUP1 CALLDATASIZE SUB DUP2 ADD SWAP1 PUSH2 0x4A3 SWAP2 SWAP1 PUSH2 0x2D19 JUMP JUMPDEST PUSH2 0x1054 JUMP JUMPDEST STOP JUMPDEST CALLVALUE DUP1 ISZERO PUSH2 0x4B6 JUMPI PUSH1 0x0 DUP1 REVERT JUMPDEST POP PUSH2 0x4D1 PUSH1 0x4 DUP1 CALLDATASIZE SUB DUP2 ADD SWAP1 PUSH2 0x4CC SWAP2 SWAP1 PUSH2 0x2D19 JUMP JUMPDEST PUSH2 0x116E JUMP JUMPDEST STOP JUMPDEST CALLVALUE DUP1 ISZERO PUSH2 0x4DF JUMPI PUSH1 0x0 DUP1 REVERT JUMPDEST POP PUSH2 0x4FA PUSH1 0x4 DUP1 CALLDATASIZE SUB DUP2 ADD SWAP1 PUSH2 0x4F5 SWAP2 SWAP1 PUSH2 0x2D19 JUMP JUMPDEST PUSH2 0x130A JUMP JUMPDEST PUSH1 0x40 MLOAD PUSH2 0x507 SWAP2 SWAP1 PUSH2 0x2AFC JUMP JUMPDEST PUSH1 0x40 MLOAD DUP1 SWAP2 SUB SWAP1 RETURN JUMPDEST CALLVALUE DUP1 ISZERO PUSH2 0x51C JUMPI PUSH1 0x0 DUP1 REVERT JUMPDEST POP PUSH2 0x537 PUSH1 0x4 DUP1 CALLDATASIZE SUB DUP2 ADD SWAP1 PUSH2 0x532 SWAP2 SWAP1 PUSH2 0x29F8 JUMP JUMPDEST PUSH2 0x13C2 JUMP JUMPDEST PUSH1 0x40 MLOAD PUSH2 0x544 SWAP2 SWAP1 PUSH2 0x29A0 JUMP JUMPDEST PUSH1 0x40 MLOAD DUP1 SWAP2 SUB SWAP1 RETURN JUMPDEST CALLVALUE DUP1 ISZERO PUSH2 0x559 JUMPI PUSH1 0x0 DUP1 REVERT JUMPDEST POP PUSH2 0x562 PUSH2 0x1494 JUMP JUMPDEST PUSH1 0x40 MLOAD PUSH2 0x56F SWAP2 SWAP1 PUSH2 0x2A66 JUMP JUMPDEST PUSH1 0x40 MLOAD DUP1 SWAP2 SUB SWAP1 RETURN JUMPDEST CALLVALUE DUP1 ISZERO PUSH2 0x584 JUMPI PUSH1 0x0 DUP1 REVERT JUMPDEST POP PUSH2 0x59F PUSH1 0x4 DUP1 CALLDATASIZE SUB DUP2 ADD SWAP1 PUSH2 0x59A SWAP2 SWAP1 PUSH2 0x2D72 JUMP JUMPDEST PUSH2 0x14BA JUMP JUMPDEST PUSH1 0x40 MLOAD PUSH2 0x5AC SWAP2 SWAP1 PUSH2 0x29A0 JUMP JUMPDEST PUSH1 0x40 MLOAD DUP1 SWAP2 SUB SWAP1 RETURN JUMPDEST CALLVALUE DUP1 ISZERO PUSH2 0x5C1 JUMPI PUSH1 0x0 DUP1 REVERT JUMPDEST POP PUSH2 0x5CA PUSH2 0x1599 JUMP JUMPDEST PUSH1 0x40 MLOAD PUSH2 0x5D7 SWAP2 SWAP1 PUSH2 0x29A0 JUMP JUMPDEST PUSH1 0x40 MLOAD DUP1 SWAP2 SUB SWAP1 RETURN JUMPDEST CALLVALUE DUP1 ISZERO PUSH2 0x5EC JUMPI PUSH1 0x0 DUP1 REVERT JUMPDEST POP PUSH2 0x607 PUSH1 0x4 DUP1 CALLDATASIZE SUB DUP2 ADD SWAP1 PUSH2 0x602 SWAP2 SWAP1 PUSH2 0x2DC5 JUMP JUMPDEST PUSH2 0x162B JUMP JUMPDEST STOP JUMPDEST CALLVALUE DUP1 ISZERO PUSH2 0x615 JUMPI PUSH1 0x0 DUP1 REVERT JUMPDEST POP PUSH2 0x630 PUSH1 0x4 DUP1 CALLDATASIZE SUB DUP2 ADD SWAP1 PUSH2 0x62B SWAP2 SWAP1 PUSH2 0x29F8 JUMP JUMPDEST PUSH2 0x1797 JUMP JUMPDEST PUSH1 0x40 MLOAD PUSH2 0x63D SWAP2 SWAP1 PUSH2 0x29A0 JUMP JUMPDEST PUSH1 0x40 MLOAD DUP1 SWAP2 SUB SWAP1 RETURN JUMPDEST CALLVALUE DUP1 ISZERO PUSH2 0x652 JUMPI PUSH1 0x0 DUP1 REVERT JUMPDEST POP PUSH2 0x66D PUSH1 0x4 DUP1 CALLDATASIZE SUB DUP2 ADD SWAP1 PUSH2 0x668 SWAP2 SWAP1 PUSH2 0x29F8 JUMP JUMPDEST PUSH2 0x17B7 JUMP JUMPDEST PUSH1 0x40 MLOAD PUSH2 0x67A SWAP2 SWAP1 PUSH2 0x28EC JUMP JUMPDEST PUSH1 0x40 MLOAD DUP1 SWAP2 SUB SWAP1 RETURN JUMPDEST CALLVALUE DUP1 ISZERO PUSH2 0x68F JUMPI PUSH1 0x0 DUP1 REVERT JUMPDEST POP PUSH2 0x6AA PUSH1 0x4 DUP1 CALLDATASIZE SUB DUP2 ADD SWAP1 PUSH2 0x6A5 SWAP2 SWAP1 PUSH2 0x2E05 JUMP JUMPDEST PUSH2 0x17D7 JUMP JUMPDEST STOP JUMPDEST CALLVALUE DUP1 ISZERO PUSH2 0x6B8 JUMPI PUSH1 0x0 DUP1 REVERT JUMPDEST POP PUSH2 0x6D3 PUSH1 0x4 DUP1 CALLDATASIZE SUB DUP2 ADD SWAP1 PUSH2 0x6CE SWAP2 SWAP1 PUSH2 0x2F82 JUMP JUMPDEST PUSH2 0x17E6 JUMP JUMPDEST STOP JUMPDEST CALLVALUE DUP1 ISZERO PUSH2 0x6E1 JUMPI PUSH1 0x0 DUP1 REVERT JUMPDEST POP PUSH2 0x6EA PUSH2 0x1841 JUMP JUMPDEST PUSH1 0x40 MLOAD PUSH2 0x6F7 SWAP2 SWAP1 PUSH2 0x2AFC JUMP JUMPDEST PUSH1 0x40 MLOAD DUP1 SWAP2 SUB SWAP1 RETURN JUMPDEST CALLVALUE DUP1 ISZERO PUSH2 0x70C JUMPI PUSH1 0x0 DUP1 REVERT JUMPDEST POP PUSH2 0x715 PUSH2 0x1847 JUMP JUMPDEST PUSH1 0x40 MLOAD PUSH2 0x722 SWAP2 SWAP1 PUSH2 0x2AFC JUMP JUMPDEST PUSH1 0x40 MLOAD DUP1 SWAP2 SUB SWAP1 RETURN JUMPDEST CALLVALUE DUP1 ISZERO PUSH2 0x737 JUMPI PUSH1 0x0 DUP1 REVERT JUMPDEST POP PUSH2 0x752 PUSH1 0x4 DUP1 CALLDATASIZE SUB DUP2 ADD SWAP1 PUSH2 0x74D SWAP2 SWAP1 PUSH2 0x29F8 JUMP JUMPDEST PUSH2 0x184D JUMP JUMPDEST PUSH1 0x40 MLOAD PUSH2 0x75F SWAP2 SWAP1 PUSH2 0x29A0 JUMP JUMPDEST PUSH1 0x40 MLOAD DUP1 SWAP2 SUB SWAP1 RETURN JUMPDEST CALLVALUE DUP1 ISZERO PUSH2 0x774 JUMPI PUSH1 0x0 DUP1 REVERT JUMPDEST POP PUSH2 0x78F PUSH1 0x4 DUP1 CALLDATASIZE SUB DUP2 ADD SWAP1 PUSH2 0x78A SWAP2 SWAP1 PUSH2 0x2D19 JUMP JUMPDEST PUSH2 0x1A48 JUMP JUMPDEST PUSH1 0x40 MLOAD PUSH2 0x79C SWAP2 SWAP1 PUSH2 0x28EC JUMP JUMPDEST PUSH1 0x40 MLOAD DUP1 SWAP2 SUB SWAP1 RETURN JUMPDEST CALLVALUE DUP1 ISZERO PUSH2 0x7B1 JUMPI PUSH1 0x0 DUP1 REVERT JUMPDEST POP PUSH2 0x7BA PUSH2 0x1A68 JUMP JUMPDEST STOP JUMPDEST CALLVALUE DUP1 ISZERO PUSH2 0x7C8 JUMPI PUSH1 0x0 DUP1 REVERT JUMPDEST POP PUSH2 0x7E3 PUSH1 0x4 DUP1 CALLDATASIZE SUB DUP2 ADD SWAP1 PUSH2 0x7DE SWAP2 SWAP1 PUSH2 0x3005 JUMP JUMPDEST PUSH2 0x1AF5 JUMP JUMPDEST PUSH1 0x40 MLOAD PUSH2 0x7F0 SWAP2 SWAP1 PUSH2 0x28EC JUMP JUMPDEST PUSH1 0x40 MLOAD DUP1 SWAP2 SUB SWAP1 RETURN JUMPDEST CALLVALUE DUP1 ISZERO PUSH2 0x805 JUMPI PUSH1 0x0 DUP1 REVERT JUMPDEST POP PUSH2 0x820 PUSH1 0x4 DUP1 CALLDATASIZE SUB DUP2 ADD SWAP1 PUSH2 0x81B SWAP2 SWAP1 PUSH2 0x2D72 JUMP JUMPDEST PUSH2 0x1B89 JUMP JUMPDEST PUSH1 0x40 MLOAD PUSH2 0x82D SWAP2 SWAP1 PUSH2 0x29A0 JUMP JUMPDEST PUSH1 0x40 MLOAD DUP1 SWAP2 SUB SWAP1 RETURN JUMPDEST PUSH1 0x0 PUSH32 0x80AC58CD00000000000000000000000000000000000000000000000000000000 PUSH28 0xFFFFFFFFFFFFFFFFFFFFFFFFFFFFFFFFFFFFFFFFFFFFFFFFFFFFFFFF NOT AND DUP3 PUSH28 0xFFFFFFFFFFFFFFFFFFFFFFFFFFFFFFFFFFFFFFFFFFFFFFFFFFFFFFFF NOT AND EQ DUP1 PUSH2 0x901 JUMPI POP PUSH32 0x5B5E139F00000000000000000000000000000000000000000000000000000000 PUSH28 0xFFFFFFFFFFFFFFFFFFFFFFFFFFFFFFFFFFFFFFFFFFFFFFFFFFFFFFFF NOT AND DUP3 PUSH28 0xFFFFFFFFFFFFFFFFFFFFFFFFFFFFFFFFFFFFFFFFFFFFFFFFFFFFFFFF NOT AND EQ JUMPDEST DUP1 PUSH2 0x911 JUMPI POP PUSH2 0x910 DUP3 PUSH2 0x1E2A JUMP JUMPDEST JUMPDEST SWAP1 POP SWAP2 SWAP1 POP JUMP JUMPDEST PUSH1 0x60 PUSH1 0x0 DUP1 SLOAD PUSH2 0x927 SWAP1 PUSH2 0x3074 JUMP JUMPDEST DUP1 PUSH1 0x1F ADD PUSH1 0x20 DUP1 SWAP2 DIV MUL PUSH1 0x20 ADD PUSH1 0x40 MLOAD SWAP1 DUP2 ADD PUSH1 0x40 MSTORE DUP1 SWAP3 SWAP2 SWAP1 DUP2 DUP2 MSTORE PUSH1 0x20 ADD DUP3 DUP1 SLOAD PUSH2 0x953 SWAP1 PUSH2 0x3074 JUMP JUMPDEST DUP1 ISZERO PUSH2 0x9A0 JUMPI DUP1 PUSH1 0x1F LT PUSH2 0x975 JUMPI PUSH2 0x100 DUP1 DUP4 SLOAD DIV MUL DUP4 MSTORE SWAP2 PUSH1 0x20 ADD SWAP2 PUSH2 0x9A0 JUMP JUMPDEST DUP3 ADD SWAP2 SWAP1 PUSH1 0x0 MSTORE PUSH1 0x20 PUSH1 0x0 KECCAK256 SWAP1 JUMPDEST DUP2 SLOAD DUP2 MSTORE SWAP1 PUSH1 0x1 ADD SWAP1 PUSH1 0x20 ADD DUP1 DUP4 GT PUSH2 0x983 JUMPI DUP3 SWAP1 SUB PUSH1 0x1F AND DUP3 ADD SWAP2 JUMPDEST POP POP POP POP POP SWAP1 POP SWAP1 JUMP JUMPDEST PUSH1 0x0 PUSH2 0x9B5 DUP3 PUSH2 0x1E94 JUMP JUMPDEST PUSH2 0x9F4 JUMPI PUSH1 0x40 MLOAD PUSH32 0x8C379A000000000000000000000000000000000000000000000000000000000 DUP2 MSTORE PUSH1 0x4 ADD PUSH2 0x9EB SWAP1 PUSH2 0x3118 JUMP JUMPDEST PUSH1 0x40 MLOAD DUP1 SWAP2 SUB SWAP1 REVERT JUMPDEST PUSH1 0x4 PUSH1 0x0 DUP4 DUP2 MSTORE PUSH1 0x20 ADD SWAP1 DUP2 MSTORE PUSH1 0x20 ADD PUSH1 0x0 KECCAK256 PUSH1 0x0 SWAP1 SLOAD SWAP1 PUSH2 0x100 EXP SWAP1 DIV PUSH20 0xFFFFFFFFFFFFFFFFFFFFFFFFFFFFFFFFFFFFFFFF AND SWAP1 POP SWAP2 SWAP1 POP JUMP JUMPDEST PUSH1 0x0 PUSH2 0xA3A DUP3 PUSH2 0xF76 JUMP JUMPDEST SWAP1 POP DUP1 PUSH20 0xFFFFFFFFFFFFFFFFFFFFFFFFFFFFFFFFFFFFFFFF AND DUP4 PUSH20 0xFFFFFFFFFFFFFFFFFFFFFFFFFFFFFFFFFFFFFFFF AND EQ ISZERO PUSH2 0xAAB JUMPI PUSH1 0x40 MLOAD PUSH32 0x8C379A000000000000000000000000000000000000000000000000000000000 DUP2 MSTORE PUSH1 0x4 ADD PUSH2 0xAA2 SWAP1 PUSH2 0x31AA JUMP JUMPDEST PUSH1 0x40 MLOAD DUP1 SWAP2 SUB SWAP1 REVERT JUMPDEST DUP1 PUSH20 0xFFFFFFFFFFFFFFFFFFFFFFFFFFFFFFFFFFFFFFFF AND CALLER PUSH20 0xFFFFFFFFFFFFFFFFFFFFFFFFFFFFFFFFFFFFFFFF AND EQ DUP1 PUSH2 0xAEB JUMPI POP PUSH2 0xAEA DUP2 CALLER PUSH2 0x1AF5 JUMP JUMPDEST JUMPDEST PUSH2 0xB2A JUMPI PUSH1 0x40 MLOAD PUSH32 0x8C379A000000000000000000000000000000000000000000000000000000000 DUP2 MSTORE PUSH1 0x4 ADD PUSH2 0xB21 SWAP1 PUSH2 0x323C JUMP JUMPDEST PUSH1 0x40 MLOAD DUP1 SWAP2 SUB SWAP1 REVERT JUMPDEST PUSH2 0xB34 DUP4 DUP4 PUSH2 0x1F00 JUMP JUMPDEST POP POP POP JUMP JUMPDEST PUSH1 0x9 SLOAD DUP2 JUMP JUMPDEST PUSH7 0x4E28E2290F0000 CALLVALUE LT ISZERO PUSH2 0xB89 JUMPI PUSH1 0x40 MLOAD PUSH32 0x8C379A000000000000000000000000000000000000000000000000000000000 DUP2 MSTORE PUSH1 0x4 ADD PUSH2 0xB80 SWAP1 PUSH2 0x32A8 JUMP JUMPDEST PUSH1 0x40 MLOAD DUP1 SWAP2 SUB SWAP1 REVERT JUMPDEST PUSH2 0xB95 CALLER TIMESTAMP PUSH1 0x0 PUSH2 0x1FB9 JUMP JUMPDEST JUMP JUMPDEST PUSH2 0xBA1 CALLER DUP3 PUSH2 0x2051 JUMP JUMPDEST PUSH2 0xBE0 JUMPI PUSH1 0x40 MLOAD PUSH32 0x8C379A000000000000000000000000000000000000000000000000000000000 DUP2 MSTORE PUSH1 0x4 ADD PUSH2 0xBD7 SWAP1 PUSH2 0x333A JUMP JUMPDEST PUSH1 0x40 MLOAD DUP1 SWAP2 SUB SWAP1 REVERT JUMPDEST PUSH2 0xBEB DUP4 DUP4 DUP4 PUSH2 0x212F JUMP JUMPDEST POP POP POP JUMP JUMPDEST PUSH1 0x8 PUSH1 0x0 SWAP1 SLOAD SWAP1 PUSH2 0x100 EXP SWAP1 DIV PUSH20 0xFFFFFFFFFFFFFFFFFFFFFFFFFFFFFFFFFFFFFFFF AND DUP2 JUMP JUMPDEST PUSH1 0x1 PUSH1 0xB PUSH1 0x0 DUP3 DUP3 SLOAD PUSH2 0xC29 SWAP2 SWAP1 PUSH2 0x3389 JUMP JUMPDEST SWAP3 POP POP DUP2 SWAP1 SSTORE POP PUSH1 0x60 PUSH1 0xB SLOAD GT ISZERO PUSH2 0xC76 JUMPI PUSH1 0x40 MLOAD PUSH32 0x8C379A000000000000000000000000000000000000000000000000000000000 DUP2 MSTORE PUSH1 0x4 ADD PUSH2 0xC6D SWAP1 PUSH2 0x342B JUMP JUMPDEST PUSH1 0x40 MLOAD DUP1 SWAP2 SUB SWAP1 REVERT JUMPDEST PUSH8 0x106E69BA1610000 CALLVALUE LT ISZERO PUSH2 0xCC1 JUMPI PUSH1 0x40 MLOAD PUSH32 0x8C379A000000000000000000000000000000000000000000000000000000000 DUP2 MSTORE PUSH1 0x4 ADD PUSH2 0xCB8 SWAP1 PUSH2 0x32A8 JUMP JUMPDEST PUSH1 0x40 MLOAD DUP1 SWAP2 SUB SWAP1 REVERT JUMPDEST PUSH2 0xCCD CALLER TIMESTAMP PUSH1 0x1 PUSH2 0x1FB9 JUMP JUMPDEST JUMP JUMPDEST PUSH1 0x0 ISZERO ISZERO PUSH1 0xD PUSH1 0x0 DUP4 PUSH20 0xFFFFFFFFFFFFFFFFFFFFFFFFFFFFFFFFFFFFFFFF AND PUSH20 0xFFFFFFFFFFFFFFFFFFFFFFFFFFFFFFFFFFFFFFFF AND DUP2 MSTORE PUSH1 0x20 ADD SWAP1 DUP2 MSTORE PUSH1 0x20 ADD PUSH1 0x0 KECCAK256 PUSH1 0x0 SWAP1 SLOAD SWAP1 PUSH2 0x100 EXP SWAP1 DIV PUSH1 0xFF AND ISZERO ISZERO EQ PUSH2 0xD62 JUMPI PUSH1 0x40 MLOAD PUSH32 0x8C379A000000000000000000000000000000000000000000000000000000000 DUP2 MSTORE PUSH1 0x4 ADD PUSH2 0xD59 SWAP1 PUSH2 0x3497 JUMP JUMPDEST PUSH1 0x40 MLOAD DUP1 SWAP2 SUB SWAP1 REVERT JUMPDEST PUSH1 0x1 PUSH1 0xD PUSH1 0x0 DUP4 PUSH20 0xFFFFFFFFFFFFFFFFFFFFFFFFFFFFFFFFFFFFFFFF AND PUSH20 0xFFFFFFFFFFFFFFFFFFFFFFFFFFFFFFFFFFFFFFFF AND DUP2 MSTORE PUSH1 0x20 ADD SWAP1 DUP2 MSTORE PUSH1 0x20 ADD PUSH1 0x0 KECCAK256 PUSH1 0x0 PUSH2 0x100 EXP DUP2 SLOAD DUP2 PUSH1 0xFF MUL NOT AND SWAP1 DUP4 ISZERO ISZERO MUL OR SWAP1 SSTORE POP PUSH1 0x0 DUP2 PUSH1 0x40 MLOAD PUSH1 0x20 ADD PUSH2 0xDCD SWAP2 SWAP1 PUSH2 0x34FF JUMP JUMPDEST PUSH1 0x40 MLOAD PUSH1 0x20 DUP2 DUP4 SUB SUB DUP2 MSTORE SWAP1 PUSH1 0x40 MSTORE DUP1 MLOAD SWAP1 PUSH1 0x20 ADD KECCAK256 SWAP1 POP PUSH2 0xE33 DUP5 DUP5 DUP1 DUP1 PUSH1 0x20 MUL PUSH1 0x20 ADD PUSH1 0x40 MLOAD SWAP1 DUP2 ADD PUSH1 0x40 MSTORE DUP1 SWAP4 SWAP3 SWAP2 SWAP1 DUP2 DUP2 MSTORE PUSH1 0x20 ADD DUP4 DUP4 PUSH1 0x20 MUL DUP1 DUP3 DUP5 CALLDATACOPY PUSH1 0x0 DUP2 DUP5 ADD MSTORE PUSH1 0x1F NOT PUSH1 0x1F DUP3 ADD AND SWAP1 POP DUP1 DUP4 ADD SWAP3 POP POP POP POP POP POP POP PUSH1 0xE SLOAD DUP4 PUSH2 0x2380 JUMP JUMPDEST PUSH2 0xE72 JUMPI PUSH1 0x40 MLOAD PUSH32 0x8C379A000000000000000000000000000000000000000000000000000000000 DUP2 MSTORE PUSH1 0x4 ADD PUSH2 0xE69 SWAP1 PUSH2 0x3566 JUMP JUMPDEST PUSH1 0x40 MLOAD DUP1 SWAP2 SUB SWAP1 REVERT JUMPDEST PUSH2 0xE7E DUP3 TIMESTAMP PUSH1 0x1 PUSH2 0x1FB9 JUMP JUMPDEST POP POP POP POP JUMP JUMPDEST PUSH2 0xE9F DUP4 DUP4 DUP4 PUSH1 0x40 MLOAD DUP1 PUSH1 0x20 ADD PUSH1 0x40 MSTORE DUP1 PUSH1 0x0 DUP2 MSTORE POP PUSH2 0x17E6 JUMP JUMPDEST POP POP POP JUMP JUMPDEST PUSH1 0x60 PUSH1 0x0 PUSH1 0xC PUSH1 0x0 DUP5 DUP2 MSTORE PUSH1 0x20 ADD SWAP1 DUP2 MSTORE PUSH1 0x20 ADD PUSH1 0x0 KECCAK256 PUSH1 0x0 SWAP1 SLOAD SWAP1 PUSH2 0x100 EXP SWAP1 DIV PUSH1 0xFF AND SWAP1 POP PUSH1 0x8 PUSH1 0x0 SWAP1 SLOAD SWAP1 PUSH2 0x100 EXP SWAP1 DIV PUSH20 0xFFFFFFFFFFFFFFFFFFFFFFFFFFFFFFFFFFFFFFFF AND PUSH20 0xFFFFFFFFFFFFFFFFFFFFFFFFFFFFFFFFFFFFFFFF AND PUSH4 0xEFFAAF6A DUP5 DUP4 PUSH1 0x40 MLOAD DUP4 PUSH4 0xFFFFFFFF AND PUSH1 0xE0 SHL DUP2 MSTORE PUSH1 0x4 ADD PUSH2 0xF28 SWAP3 SWAP2 SWAP1 PUSH2 0x3586 JUMP JUMPDEST PUSH1 0x0 PUSH1 0x40 MLOAD DUP1 DUP4 SUB DUP2 DUP7 GAS STATICCALL ISZERO DUP1 ISZERO PUSH2 0xF45 JUMPI RETURNDATASIZE PUSH1 0x0 DUP1 RETURNDATACOPY RETURNDATASIZE PUSH1 0x0 REVERT JUMPDEST POP POP POP POP PUSH1 0x40 MLOAD RETURNDATASIZE PUSH1 0x0 DUP3 RETURNDATACOPY RETURNDATASIZE PUSH1 0x1F NOT PUSH1 0x1F DUP3 ADD AND DUP3 ADD DUP1 PUSH1 0x40 MSTORE POP DUP2 ADD SWAP1 PUSH2 0xF6E SWAP2 SWAP1 PUSH2 0x3650 JUMP JUMPDEST SWAP2 POP POP SWAP2 SWAP1 POP JUMP JUMPDEST PUSH1 0x0 DUP1 PUSH1 0x2 PUSH1 0x0 DUP5 DUP2 MSTORE PUSH1 0x20 ADD SWAP1 DUP2 MSTORE PUSH1 0x20 ADD PUSH1 0x0 KECCAK256 PUSH1 0x0 SWAP1 SLOAD SWAP1 PUSH2 0x100 EXP SWAP1 DIV PUSH20 0xFFFFFFFFFFFFFFFFFFFFFFFFFFFFFFFFFFFFFFFF AND SWAP1 POP PUSH1 0x0 PUSH20 0xFFFFFFFFFFFFFFFFFFFFFFFFFFFFFFFFFFFFFFFF AND DUP2 PUSH20 0xFFFFFFFFFFFFFFFFFFFFFFFFFFFFFFFFFFFFFFFF AND EQ ISZERO PUSH2 0x101F JUMPI PUSH1 0x40 MLOAD PUSH32 0x8C379A000000000000000000000000000000000000000000000000000000000 DUP2 MSTORE PUSH1 0x4 ADD PUSH2 0x1016 SWAP1 PUSH2 0x370B JUMP JUMPDEST PUSH1 0x40 MLOAD DUP1 SWAP2 SUB SWAP1 REVERT JUMPDEST DUP1 SWAP2 POP POP SWAP2 SWAP1 POP JUMP JUMPDEST PUSH1 0x7 PUSH1 0x0 SWAP1 SLOAD SWAP1 PUSH2 0x100 EXP SWAP1 DIV PUSH20 0xFFFFFFFFFFFFFFFFFFFFFFFFFFFFFFFFFFFFFFFF AND DUP2 JUMP JUMPDEST PUSH1 0xE SLOAD DUP2 JUMP JUMPDEST PUSH1 0x6 PUSH1 0x0 SWAP1 SLOAD SWAP1 PUSH2 0x100 EXP SWAP1 DIV PUSH20 0xFFFFFFFFFFFFFFFFFFFFFFFFFFFFFFFFFFFFFFFF AND PUSH20 0xFFFFFFFFFFFFFFFFFFFFFFFFFFFFFFFFFFFFFFFF AND CALLER PUSH20 0xFFFFFFFFFFFFFFFFFFFFFFFFFFFFFFFFFFFFFFFF AND EQ PUSH2 0x10E4 JUMPI PUSH1 0x40 MLOAD PUSH32 0x8C379A000000000000000000000000000000000000000000000000000000000 DUP2 MSTORE PUSH1 0x4 ADD PUSH2 0x10DB SWAP1 PUSH2 0x3777 JUMP JUMPDEST PUSH1 0x40 MLOAD DUP1 SWAP2 SUB SWAP1 REVERT JUMPDEST PUSH4 0x65696850 TIMESTAMP LT PUSH2 0x112A JUMPI PUSH1 0x40 MLOAD PUSH32 0x8C379A000000000000000000000000000000000000000000000000000000000 DUP2 MSTORE PUSH1 0x4 ADD PUSH2 0x1121 SWAP1 PUSH2 0x37E3 JUMP JUMPDEST PUSH1 0x40 MLOAD DUP1 SWAP2 SUB SWAP1 REVERT JUMPDEST DUP1 PUSH1 0x8 PUSH1 0x0 PUSH2 0x100 EXP DUP2 SLOAD DUP2 PUSH20 0xFFFFFFFFFFFFFFFFFFFFFFFFFFFFFFFFFFFFFFFF MUL NOT AND SWAP1 DUP4 PUSH20 0xFFFFFFFFFFFFFFFFFFFFFFFFFFFFFFFFFFFFFFFF AND MUL OR SWAP1 SSTORE POP POP JUMP JUMPDEST PUSH1 0x6 PUSH1 0x0 SWAP1 SLOAD SWAP1 PUSH2 0x100 EXP SWAP1 DIV PUSH20 0xFFFFFFFFFFFFFFFFFFFFFFFFFFFFFFFFFFFFFFFF AND PUSH20 0xFFFFFFFFFFFFFFFFFFFFFFFFFFFFFFFFFFFFFFFF AND CALLER PUSH20 0xFFFFFFFFFFFFFFFFFFFFFFFFFFFFFFFFFFFFFFFF AND EQ PUSH2 0x11FE JUMPI PUSH1 0x40 MLOAD PUSH32 0x8C379A000000000000000000000000000000000000000000000000000000000 DUP2 MSTORE PUSH1 0x4 ADD PUSH2 0x11F5 SWAP1 PUSH2 0x384F JUMP JUMPDEST PUSH1 0x40 MLOAD DUP1 SWAP2 SUB SWAP1 REVERT JUMPDEST PUSH1 0x0 DUP1 PUSH1 0x7 PUSH1 0x0 SWAP1 SLOAD SWAP1 PUSH2 0x100 EXP SWAP1 DIV PUSH20 0xFFFFFFFFFFFFFFFFFFFFFFFFFFFFFFFFFFFFFFFF AND PUSH20 0xFFFFFFFFFFFFFFFFFFFFFFFFFFFFFFFFFFFFFFFF AND SELFBALANCE PUSH1 0x40 MLOAD PUSH2 0x1247 SWAP1 PUSH2 0x38A0 JUMP JUMPDEST PUSH1 0x0 PUSH1 0x40 MLOAD DUP1 DUP4 SUB DUP2 DUP6 DUP8 GAS CALL SWAP3 POP POP POP RETURNDATASIZE DUP1 PUSH1 0x0 DUP2 EQ PUSH2 0x1284 JUMPI PUSH1 0x40 MLOAD SWAP2 POP PUSH1 0x1F NOT PUSH1 0x3F RETURNDATASIZE ADD AND DUP3 ADD PUSH1 0x40 MSTORE RETURNDATASIZE DUP3 MSTORE RETURNDATASIZE PUSH1 0x0 PUSH1 0x20 DUP5 ADD RETURNDATACOPY PUSH2 0x1289 JUMP JUMPDEST PUSH1 0x60 SWAP2 POP JUMPDEST POP SWAP2 POP SWAP2 POP PUSH1 0x0 ISZERO ISZERO DUP3 ISZERO ISZERO EQ ISZERO PUSH2 0x1305 JUMPI DUP3 PUSH20 0xFFFFFFFFFFFFFFFFFFFFFFFFFFFFFFFFFFFFFFFF AND SELFBALANCE PUSH1 0x40 MLOAD PUSH2 0x12BF SWAP1 PUSH2 0x38A0 JUMP JUMPDEST PUSH1 0x0 PUSH1 0x40 MLOAD DUP1 DUP4 SUB DUP2 DUP6 DUP8 GAS CALL SWAP3 POP POP POP RETURNDATASIZE DUP1 PUSH1 0x0 DUP2 EQ PUSH2 0x12FC JUMPI PUSH1 0x40 MLOAD SWAP2 POP PUSH1 0x1F NOT PUSH1 0x3F RETURNDATASIZE ADD AND DUP3 ADD PUSH1 0x40 MSTORE RETURNDATASIZE DUP3 MSTORE RETURNDATASIZE PUSH1 0x0 PUSH1 0x20 DUP5 ADD RETURNDATACOPY PUSH2 0x1301 JUMP JUMPDEST PUSH1 0x60 SWAP2 POP JUMPDEST POP POP POP JUMPDEST POP POP POP JUMP JUMPDEST PUSH1 0x0 DUP1 PUSH20 0xFFFFFFFFFFFFFFFFFFFFFFFFFFFFFFFFFFFFFFFF AND DUP3 PUSH20 0xFFFFFFFFFFFFFFFFFFFFFFFFFFFFFFFFFFFFFFFF AND EQ ISZERO PUSH2 0x137B JUMPI PUSH1 0x40 MLOAD PUSH32 0x8C379A000000000000000000000000000000000000000000000000000000000 DUP2 MSTORE PUSH1 0x4 ADD PUSH2 0x1372 SWAP1 PUSH2 0x3927 JUMP JUMPDEST PUSH1 0x40 MLOAD DUP1 SWAP2 SUB SWAP1 REVERT JUMPDEST PUSH1 0x3 PUSH1 0x0 DUP4 PUSH20 0xFFFFFFFFFFFFFFFFFFFFFFFFFFFFFFFFFFFFFFFF AND PUSH20 0xFFFFFFFFFFFFFFFFFFFFFFFFFFFFFFFFFFFFFFFF AND DUP2 MSTORE PUSH1 0x20 ADD SWAP1 DUP2 MSTORE PUSH1 0x20 ADD PUSH1 0x0 KECCAK256 SLOAD SWAP1 POP SWAP2 SWAP1 POP JUMP JUMPDEST PUSH1 0x60 PUSH1 0x0 PUSH1 0xC PUSH1 0x0 DUP5 DUP2 MSTORE PUSH1 0x20 ADD SWAP1 DUP2 MSTORE PUSH1 0x20 ADD PUSH1 0x0 KECCAK256 PUSH1 0x0 SWAP1 SLOAD SWAP1 PUSH2 0x100 EXP SWAP1 DIV PUSH1 0xFF AND SWAP1 POP PUSH1 0x8 PUSH1 0x0 SWAP1 SLOAD SWAP1 PUSH2 0x100 EXP SWAP1 DIV PUSH20 0xFFFFFFFFFFFFFFFFFFFFFFFFFFFFFFFFFFFFFFFF AND PUSH20 0xFFFFFFFFFFFFFFFFFFFFFFFFFFFFFFFFFFFFFFFF AND PUSH4 0x37EE03EC DUP5 DUP4 PUSH1 0x40 MLOAD DUP4 PUSH4 0xFFFFFFFF AND PUSH1 0xE0 SHL DUP2 MSTORE PUSH1 0x4 ADD PUSH2 0x1446 SWAP3 SWAP2 SWAP1 PUSH2 0x3586 JUMP JUMPDEST PUSH1 0x0 PUSH1 0x40 MLOAD DUP1 DUP4 SUB DUP2 DUP7 GAS STATICCALL ISZERO DUP1 ISZERO PUSH2 0x1463 JUMPI RETURNDATASIZE PUSH1 0x0 DUP1 RETURNDATACOPY RETURNDATASIZE PUSH1 0x0 REVERT JUMPDEST POP POP POP POP PUSH1 0x40 MLOAD RETURNDATASIZE PUSH1 0x0 DUP3 RETURNDATACOPY RETURNDATASIZE PUSH1 0x1F NOT PUSH1 0x1F DUP3 ADD AND DUP3 ADD DUP1 PUSH1 0x40 MSTORE POP DUP2 ADD SWAP1 PUSH2 0x148C SWAP2 SWAP1 PUSH2 0x3650 JUMP JUMPDEST SWAP2 POP POP SWAP2 SWAP1 POP JUMP JUMPDEST PUSH1 0x6 PUSH1 0x0 SWAP1 SLOAD SWAP1 PUSH2 0x100 EXP SWAP1 DIV PUSH20 0xFFFFFFFFFFFFFFFFFFFFFFFFFFFFFFFFFFFFFFFF AND DUP2 JUMP JUMPDEST PUSH1 0x60 PUSH1 0x0 DUP5 DUP5 PUSH1 0x40 MLOAD PUSH1 0x20 ADD PUSH2 0x14D1 SWAP3 SWAP2 SWAP1 PUSH2 0x3968 JUMP JUMPDEST PUSH1 0x40 MLOAD PUSH1 0x20 DUP2 DUP4 SUB SUB DUP2 MSTORE SWAP1 PUSH1 0x40 MSTORE DUP1 MLOAD SWAP1 PUSH1 0x20 ADD KECCAK256 PUSH1 0x0 SHR SWAP1 POP PUSH1 0x8 PUSH1 0x0 SWAP1 SLOAD SWAP1 PUSH2 0x100 EXP SWAP1 DIV PUSH20 0xFFFFFFFFFFFFFFFFFFFFFFFFFFFFFFFFFFFFFFFF AND PUSH20 0xFFFFFFFFFFFFFFFFFFFFFFFFFFFFFFFFFFFFFFFF AND PUSH4 0x37EE03EC DUP3 DUP6 PUSH1 0x40 MLOAD DUP4 PUSH4 0xFFFFFFFF AND PUSH1 0xE0 SHL DUP2 MSTORE PUSH1 0x4 ADD PUSH2 0x1549 SWAP3 SWAP2 SWAP1 PUSH2 0x3586 JUMP JUMPDEST PUSH1 0x0 PUSH1 0x40 MLOAD DUP1 DUP4 SUB DUP2 DUP7 GAS STATICCALL ISZERO DUP1 ISZERO PUSH2 0x1566 JUMPI RETURNDATASIZE PUSH1 0x0 DUP1 RETURNDATACOPY RETURNDATASIZE PUSH1 0x0 REVERT JUMPDEST POP POP POP POP PUSH1 0x40 MLOAD RETURNDATASIZE PUSH1 0x0 DUP3 RETURNDATACOPY RETURNDATASIZE PUSH1 0x1F NOT PUSH1 0x1F DUP3 ADD AND DUP3 ADD DUP1 PUSH1 0x40 MSTORE POP DUP2 ADD SWAP1 PUSH2 0x158F SWAP2 SWAP1 PUSH2 0x3650 JUMP JUMPDEST SWAP2 POP POP SWAP4 SWAP3 POP POP POP JUMP JUMPDEST PUSH1 0x60 PUSH1 0x1 DUP1 SLOAD PUSH2 0x15A8 SWAP1 PUSH2 0x3074 JUMP JUMPDEST DUP1 PUSH1 0x1F ADD PUSH1 0x20 DUP1 SWAP2 DIV MUL PUSH1 0x20 ADD PUSH1 0x40 MLOAD SWAP1 DUP2 ADD PUSH1 0x40 MSTORE DUP1 SWAP3 SWAP2 SWAP1 DUP2 DUP2 MSTORE PUSH1 0x20 ADD DUP3 DUP1 SLOAD PUSH2 0x15D4 SWAP1 PUSH2 0x3074 JUMP JUMPDEST DUP1 ISZERO PUSH2 0x1621 JUMPI DUP1 PUSH1 0x1F LT PUSH2 0x15F6 JUMPI PUSH2 0x100 DUP1 DUP4 SLOAD DIV MUL DUP4 MSTORE SWAP2 PUSH1 0x20 ADD SWAP2 PUSH2 0x1621 JUMP JUMPDEST DUP3 ADD SWAP2 SWAP1 PUSH1 0x0 MSTORE PUSH1 0x20 PUSH1 0x0 KECCAK256 SWAP1 JUMPDEST DUP2 SLOAD DUP2 MSTORE SWAP1 PUSH1 0x1 ADD SWAP1 PUSH1 0x20 ADD DUP1 DUP4 GT PUSH2 0x1604 JUMPI DUP3 SWAP1 SUB PUSH1 0x1F AND DUP3 ADD SWAP2 JUMPDEST POP POP POP POP POP SWAP1 POP SWAP1 JUMP JUMPDEST CALLER PUSH20 0xFFFFFFFFFFFFFFFFFFFFFFFFFFFFFFFFFFFFFFFF AND DUP3 PUSH20 0xFFFFFFFFFFFFFFFFFFFFFFFFFFFFFFFFFFFFFFFF AND EQ ISZERO PUSH2 0x169A JUMPI PUSH1 0x40 MLOAD PUSH32 0x8C379A000000000000000000000000000000000000000000000000000000000 DUP2 MSTORE PUSH1 0x4 ADD PUSH2 0x1691 SWAP1 PUSH2 0x39E0 JUMP JUMPDEST PUSH1 0x40 MLOAD DUP1 SWAP2 SUB SWAP1 REVERT JUMPDEST DUP1 PUSH1 0x5 PUSH1 0x0 CALLER PUSH20 0xFFFFFFFFFFFFFFFFFFFFFFFFFFFFFFFFFFFFFFFF AND PUSH20 0xFFFFFFFFFFFFFFFFFFFFFFFFFFFFFFFFFFFFFFFF AND DUP2 MSTORE PUSH1 0x20 ADD SWAP1 DUP2 MSTORE PUSH1 0x20 ADD PUSH1 0x0 KECCAK256 PUSH1 0x0 DUP5 PUSH20 0xFFFFFFFFFFFFFFFFFFFFFFFFFFFFFFFFFFFFFFFF AND PUSH20 0xFFFFFFFFFFFFFFFFFFFFFFFFFFFFFFFFFFFFFFFF AND DUP2 MSTORE PUSH1 0x20 ADD SWAP1 DUP2 MSTORE PUSH1 0x20 ADD PUSH1 0x0 KECCAK256 PUSH1 0x0 PUSH2 0x100 EXP DUP2 SLOAD DUP2 PUSH1 0xFF MUL NOT AND SWAP1 DUP4 ISZERO ISZERO MUL OR SWAP1 SSTORE POP DUP2 PUSH20 0xFFFFFFFFFFFFFFFFFFFFFFFFFFFFFFFFFFFFFFFF AND CALLER PUSH20 0xFFFFFFFFFFFFFFFFFFFFFFFFFFFFFFFFFFFFFFFF AND PUSH32 0x17307EAB39AB6107E8899845AD3D59BD9653F200F220920489CA2B5937696C31 DUP4 PUSH1 0x40 MLOAD PUSH2 0x178B SWAP2 SWAP1 PUSH2 0x28EC JUMP JUMPDEST PUSH1 0x40 MLOAD DUP1 SWAP2 SUB SWAP1 LOG3 POP POP JUMP JUMPDEST PUSH1 0x60 PUSH1 0x0 PUSH2 0x17A4 DUP4 PUSH2 0xEA4 JUMP JUMPDEST SWAP1 POP PUSH2 0x17AF DUP2 PUSH2 0x2397 JUMP JUMPDEST SWAP2 POP POP SWAP2 SWAP1 POP JUMP JUMPDEST PUSH1 0xC PUSH1 0x20 MSTORE DUP1 PUSH1 0x0 MSTORE PUSH1 0x40 PUSH1 0x0 KECCAK256 PUSH1 0x0 SWAP2 POP SLOAD SWAP1 PUSH2 0x100 EXP SWAP1 DIV PUSH1 0xFF AND DUP2 JUMP JUMPDEST PUSH2 0x17E2 DUP3 DUP3 CALLER PUSH2 0xCCF JUMP JUMPDEST POP POP JUMP JUMPDEST PUSH2 0x17F0 CALLER DUP4 PUSH2 0x2051 JUMP JUMPDEST PUSH2 0x182F JUMPI PUSH1 0x40 MLOAD PUSH32 0x8C379A000000000000000000000000000000000000000000000000000000000 DUP2 MSTORE PUSH1 0x4 ADD PUSH2 0x1826 SWAP1 PUSH2 0x333A JUMP JUMPDEST PUSH1 0x40 MLOAD DUP1 SWAP2 SUB SWAP1 REVERT JUMPDEST PUSH2 0x183B DUP5 DUP5 DUP5 DUP5 PUSH2 0x251C JUMP JUMPDEST POP POP POP POP JUMP JUMPDEST PUSH1 0xA SLOAD DUP2 JUMP JUMPDEST PUSH1 0xB SLOAD DUP2 JUMP JUMPDEST PUSH1 0x60 PUSH2 0x1858 DUP3 PUSH2 0x1E94 JUMP JUMPDEST PUSH2 0x1897 JUMPI PUSH1 0x40 MLOAD PUSH32 0x8C379A000000000000000000000000000000000000000000000000000000000 DUP2 MSTORE PUSH1 0x4 ADD PUSH2 0x188E SWAP1 PUSH2 0x3A72 JUMP JUMPDEST PUSH1 0x40 MLOAD DUP1 SWAP2 SUB SWAP1 REVERT JUMPDEST PUSH1 0x0 PUSH1 0x8 PUSH1 0x0 SWAP1 SLOAD SWAP1 PUSH2 0x100 EXP SWAP1 DIV PUSH20 0xFFFFFFFFFFFFFFFFFFFFFFFFFFFFFFFFFFFFFFFF AND PUSH20 0xFFFFFFFFFFFFFFFFFFFFFFFFFFFFFFFFFFFFFFFF AND PUSH4 0x192A0A1F DUP5 PUSH1 0x40 MLOAD DUP3 PUSH4 0xFFFFFFFF AND PUSH1 0xE0 SHL DUP2 MSTORE PUSH1 0x4 ADD PUSH2 0x18F4 SWAP2 SWAP1 PUSH2 0x2AFC JUMP JUMPDEST PUSH1 0x0 PUSH1 0x40 MLOAD DUP1 DUP4 SUB DUP2 DUP7 GAS STATICCALL ISZERO DUP1 ISZERO PUSH2 0x1911 JUMPI RETURNDATASIZE PUSH1 0x0 DUP1 RETURNDATACOPY RETURNDATASIZE PUSH1 0x0 REVERT JUMPDEST POP POP POP POP PUSH1 0x40 MLOAD RETURNDATASIZE PUSH1 0x0 DUP3 RETURNDATACOPY RETURNDATASIZE PUSH1 0x1F NOT PUSH1 0x1F DUP3 ADD AND DUP3 ADD DUP1 PUSH1 0x40 MSTORE POP DUP2 ADD SWAP1 PUSH2 0x193A SWAP2 SWAP1 PUSH2 0x3650 JUMP JUMPDEST SWAP1 POP PUSH1 0x0 PUSH1 0x8 PUSH1 0x0 SWAP1 SLOAD SWAP1 PUSH2 0x100 EXP SWAP1 DIV PUSH20 0xFFFFFFFFFFFFFFFFFFFFFFFFFFFFFFFFFFFFFFFF AND PUSH20 0xFFFFFFFFFFFFFFFFFFFFFFFFFFFFFFFFFFFFFFFF AND PUSH4 0x5A312A3D PUSH1 0x40 MLOAD DUP2 PUSH4 0xFFFFFFFF AND PUSH1 0xE0 SHL DUP2 MSTORE PUSH1 0x4 ADD PUSH1 0x0 PUSH1 0x40 MLOAD DUP1 DUP4 SUB DUP2 DUP7 GAS STATICCALL ISZERO DUP1 ISZERO PUSH2 0x19AB JUMPI RETURNDATASIZE PUSH1 0x0 DUP1 RETURNDATACOPY RETURNDATASIZE PUSH1 0x0 REVERT JUMPDEST POP POP POP POP PUSH1 0x40 MLOAD RETURNDATASIZE PUSH1 0x0 DUP3 RETURNDATACOPY RETURNDATASIZE PUSH1 0x1F NOT PUSH1 0x1F DUP3 ADD AND DUP3 ADD DUP1 PUSH1 0x40 MSTORE POP DUP2 ADD SWAP1 PUSH2 0x19D4 SWAP2 SWAP1 PUSH2 0x3650 JUMP JUMPDEST SWAP1 POP PUSH1 0x0 PUSH2 0x19E1 DUP6 PUSH2 0x1797 JUMP JUMPDEST SWAP1 POP PUSH1 0x0 PUSH2 0x19EE DUP7 PUSH2 0x13C2 JUMP JUMPDEST SWAP1 POP PUSH2 0x1A1E DUP5 DUP5 DUP5 DUP5 PUSH1 0x40 MLOAD PUSH1 0x20 ADD PUSH2 0x1A0A SWAP5 SWAP4 SWAP3 SWAP2 SWAP1 PUSH2 0x3C96 JUMP JUMPDEST PUSH1 0x40 MLOAD PUSH1 0x20 DUP2 DUP4 SUB SUB DUP2 MSTORE SWAP1 PUSH1 0x40 MSTORE PUSH2 0x2397 JUMP JUMPDEST PUSH1 0x40 MLOAD PUSH1 0x20 ADD PUSH2 0x1A2E SWAP2 SWAP1 PUSH2 0x3D62 JUMP JUMPDEST PUSH1 0x40 MLOAD PUSH1 0x20 DUP2 DUP4 SUB SUB DUP2 MSTORE SWAP1 PUSH1 0x40 MSTORE SWAP5 POP POP POP POP POP SWAP2 SWAP1 POP JUMP JUMPDEST PUSH1 0xD PUSH1 0x20 MSTORE DUP1 PUSH1 0x0 MSTORE PUSH1 0x40 PUSH1 0x0 KECCAK256 PUSH1 0x0 SWAP2 POP SLOAD SWAP1 PUSH2 0x100 EXP SWAP1 DIV PUSH1 0xFF AND DUP2 JUMP JUMPDEST PUSH1 0x7 PUSH1 0x0 SWAP1 SLOAD SWAP1 PUSH2 0x100 EXP SWAP1 DIV PUSH20 0xFFFFFFFFFFFFFFFFFFFFFFFFFFFFFFFFFFFFFFFF AND PUSH20 0xFFFFFFFFFFFFFFFFFFFFFFFFFFFFFFFFFFFFFFFF AND SELFBALANCE PUSH1 0x40 MLOAD PUSH2 0x1AAE SWAP1 PUSH2 0x38A0 JUMP JUMPDEST PUSH1 0x0 PUSH1 0x40 MLOAD DUP1 DUP4 SUB DUP2 DUP6 DUP8 GAS CALL SWAP3 POP POP POP RETURNDATASIZE DUP1 PUSH1 0x0 DUP2 EQ PUSH2 0x1AEB JUMPI PUSH1 0x40 MLOAD SWAP2 POP PUSH1 0x1F NOT PUSH1 0x3F RETURNDATASIZE ADD AND DUP3 ADD PUSH1 0x40 MSTORE RETURNDATASIZE DUP3 MSTORE RETURNDATASIZE PUSH1 0x0 PUSH1 0x20 DUP5 ADD RETURNDATACOPY PUSH2 0x1AF0 JUMP JUMPDEST PUSH1 0x60 SWAP2 POP JUMPDEST POP POP POP JUMP JUMPDEST PUSH1 0x0 PUSH1 0x5 PUSH1 0x0 DUP5 PUSH20 0xFFFFFFFFFFFFFFFFFFFFFFFFFFFFFFFFFFFFFFFF AND PUSH20 0xFFFFFFFFFFFFFFFFFFFFFFFFFFFFFFFFFFFFFFFF AND DUP2 MSTORE PUSH1 0x20 ADD SWAP1 DUP2 MSTORE PUSH1 0x20 ADD PUSH1 0x0 KECCAK256 PUSH1 0x0 DUP4 PUSH20 0xFFFFFFFFFFFFFFFFFFFFFFFFFFFFFFFFFFFFFFFF AND PUSH20 0xFFFFFFFFFFFFFFFFFFFFFFFFFFFFFFFFFFFFFFFF AND DUP2 MSTORE PUSH1 0x20 ADD SWAP1 DUP2 MSTORE PUSH1 0x20 ADD PUSH1 0x0 KECCAK256 PUSH1 0x0 SWAP1 SLOAD SWAP1 PUSH2 0x100 EXP SWAP1 DIV PUSH1 0xFF AND SWAP1 POP SWAP3 SWAP2 POP POP JUMP JUMPDEST PUSH1 0x60 PUSH1 0x0 DUP5 DUP5 PUSH1 0x40 MLOAD PUSH1 0x20 ADD PUSH2 0x1BA0 SWAP3 SWAP2 SWAP1 PUSH2 0x3968 JUMP JUMPDEST PUSH1 0x40 MLOAD PUSH1 0x20 DUP2 DUP4 SUB SUB DUP2 MSTORE SWAP1 PUSH1 0x40 MSTORE DUP1 MLOAD SWAP1 PUSH1 0x20 ADD KECCAK256 PUSH1 0x0 SHR SWAP1 POP PUSH1 0x8 PUSH1 0x0 SWAP1 SLOAD SWAP1 PUSH2 0x100 EXP SWAP1 DIV PUSH20 0xFFFFFFFFFFFFFFFFFFFFFFFFFFFFFFFFFFFFFFFF AND PUSH20 0xFFFFFFFFFFFFFFFFFFFFFFFFFFFFFFFFFFFFFFFF AND PUSH4 0xEFFAAF6A DUP3 DUP6 PUSH1 0x40 MLOAD DUP4 PUSH4 0xFFFFFFFF AND PUSH1 0xE0 SHL DUP2 MSTORE PUSH1 0x4 ADD PUSH2 0x1C18 SWAP3 SWAP2 SWAP1 PUSH2 0x3586 JUMP JUMPDEST PUSH1 0x0 PUSH1 0x40 MLOAD DUP1 DUP4 SUB DUP2 DUP7 GAS STATICCALL ISZERO DUP1 ISZERO PUSH2 0x1C35 JUMPI RETURNDATASIZE PUSH1 0x0 DUP1 RETURNDATACOPY RETURNDATASIZE PUSH1 0x0 REVERT JUMPDEST POP POP POP POP PUSH1 0x40 MLOAD RETURNDATASIZE PUSH1 0x0 DUP3 RETURNDATACOPY RETURNDATASIZE PUSH1 0x1F NOT PUSH1 0x1F DUP3 ADD AND DUP3 ADD DUP1 PUSH1 0x40 MSTORE POP DUP2 ADD SWAP1 PUSH2 0x1C5E SWAP2 SWAP1 PUSH2 0x3650 JUMP JUMPDEST SWAP2 POP POP SWAP4 SWAP3 POP POP POP JUMP JUMPDEST PUSH1 0x0 PUSH20 0xFFFFFFFFFFFFFFFFFFFFFFFFFFFFFFFFFFFFFFFF AND DUP3 PUSH20 0xFFFFFFFFFFFFFFFFFFFFFFFFFFFFFFFFFFFFFFFF AND EQ ISZERO PUSH2 0x1CD8 JUMPI PUSH1 0x40 MLOAD PUSH32 0x8C379A000000000000000000000000000000000000000000000000000000000 DUP2 MSTORE PUSH1 0x4 ADD PUSH2 0x1CCF SWAP1 PUSH2 0x3DD0 JUMP JUMPDEST PUSH1 0x40 MLOAD DUP1 SWAP2 SUB SWAP1 REVERT JUMPDEST PUSH2 0x1CE1 DUP2 PUSH2 0x1E94 JUMP JUMPDEST ISZERO PUSH2 0x1D21 JUMPI PUSH1 0x40 MLOAD PUSH32 0x8C379A000000000000000000000000000000000000000000000000000000000 DUP2 MSTORE PUSH1 0x4 ADD PUSH2 0x1D18 SWAP1 PUSH2 0x3E3C JUMP JUMPDEST PUSH1 0x40 MLOAD DUP1 SWAP2 SUB SWAP1 REVERT JUMPDEST PUSH1 0x1 PUSH1 0x3 PUSH1 0x0 DUP5 PUSH20 0xFFFFFFFFFFFFFFFFFFFFFFFFFFFFFFFFFFFFFFFF AND PUSH20 0xFFFFFFFFFFFFFFFFFFFFFFFFFFFFFFFFFFFFFFFF AND DUP2 MSTORE PUSH1 0x20 ADD SWAP1 DUP2 MSTORE PUSH1 0x20 ADD PUSH1 0x0 KECCAK256 PUSH1 0x0 DUP3 DUP3 SLOAD PUSH2 0x1D71 SWAP2 SWAP1 PUSH2 0x3389 JUMP JUMPDEST SWAP3 POP POP DUP2 SWAP1 SSTORE POP DUP2 PUSH1 0x2 PUSH1 0x0 DUP4 DUP2 MSTORE PUSH1 0x20 ADD SWAP1 DUP2 MSTORE PUSH1 0x20 ADD PUSH1 0x0 KECCAK256 PUSH1 0x0 PUSH2 0x100 EXP DUP2 SLOAD DUP2 PUSH20 0xFFFFFFFFFFFFFFFFFFFFFFFFFFFFFFFFFFFFFFFF MUL NOT AND SWAP1 DUP4 PUSH20 0xFFFFFFFFFFFFFFFFFFFFFFFFFFFFFFFFFFFFFFFF AND MUL OR SWAP1 SSTORE POP DUP1 DUP3 PUSH20 0xFFFFFFFFFFFFFFFFFFFFFFFFFFFFFFFFFFFFFFFF AND PUSH1 0x0 PUSH20 0xFFFFFFFFFFFFFFFFFFFFFFFFFFFFFFFFFFFFFFFF AND PUSH32 0xDDF252AD1BE2C89B69C2B068FC378DAA952BA7F163C4A11628F55A4DF523B3EF PUSH1 0x40 MLOAD PUSH1 0x40 MLOAD DUP1 SWAP2 SUB SWAP1 LOG4 POP POP JUMP JUMPDEST PUSH1 0x0 PUSH32 0x1FFC9A700000000000000000000000000000000000000000000000000000000 PUSH28 0xFFFFFFFFFFFFFFFFFFFFFFFFFFFFFFFFFFFFFFFFFFFFFFFFFFFFFFFF NOT AND DUP3 PUSH28 0xFFFFFFFFFFFFFFFFFFFFFFFFFFFFFFFFFFFFFFFFFFFFFFFFFFFFFFFF NOT AND EQ SWAP1 POP SWAP2 SWAP1 POP JUMP JUMPDEST PUSH1 0x0 DUP1 PUSH20 0xFFFFFFFFFFFFFFFFFFFFFFFFFFFFFFFFFFFFFFFF AND PUSH1 0x2 PUSH1 0x0 DUP5 DUP2 MSTORE PUSH1 0x20 ADD SWAP1 DUP2 MSTORE PUSH1 0x20 ADD PUSH1 0x0 KECCAK256 PUSH1 0x0 SWAP1 SLOAD SWAP1 PUSH2 0x100 EXP SWAP1 DIV PUSH20 0xFFFFFFFFFFFFFFFFFFFFFFFFFFFFFFFFFFFFFFFF AND PUSH20 0xFFFFFFFFFFFFFFFFFFFFFFFFFFFFFFFFFFFFFFFF AND EQ ISZERO SWAP1 POP SWAP2 SWAP1 POP JUMP JUMPDEST DUP2 PUSH1 0x4 PUSH1 0x0 DUP4 DUP2 MSTORE PUSH1 0x20 ADD SWAP1 DUP2 MSTORE PUSH1 0x20 ADD PUSH1 0x0 KECCAK256 PUSH1 0x0 PUSH2 0x100 EXP DUP2 SLOAD DUP2 PUSH20 0xFFFFFFFFFFFFFFFFFFFFFFFFFFFFFFFFFFFFFFFF MUL NOT AND SWAP1 DUP4 PUSH20 0xFFFFFFFFFFFFFFFFFFFFFFFFFFFFFFFFFFFFFFFF AND MUL OR SWAP1 SSTORE POP DUP1 DUP3 PUSH20 0xFFFFFFFFFFFFFFFFFFFFFFFFFFFFFFFFFFFFFFFF AND PUSH2 0x1F73 DUP4 PUSH2 0xF76 JUMP JUMPDEST PUSH20 0xFFFFFFFFFFFFFFFFFFFFFFFFFFFFFFFFFFFFFFFF AND PUSH32 0x8C5BE1E5EBEC7D5BD14F71427D1E84F3DD0314C0F7B2291E5B200AC8C7C3B925 PUSH1 0x40 MLOAD PUSH1 0x40 MLOAD DUP1 SWAP2 SUB SWAP1 LOG4 POP POP JUMP JUMPDEST PUSH1 0x9 SLOAD TIMESTAMP GT PUSH2 0x1FFD JUMPI PUSH1 0x40 MLOAD PUSH32 0x8C379A000000000000000000000000000000000000000000000000000000000 DUP2 MSTORE PUSH1 0x4 ADD PUSH2 0x1FF4 SWAP1 PUSH2 0x3EA8 JUMP JUMPDEST PUSH1 0x40 MLOAD DUP1 SWAP2 SUB SWAP1 REVERT JUMPDEST PUSH1 0xA SLOAD TIMESTAMP LT PUSH2 0x2041 JUMPI PUSH1 0x40 MLOAD PUSH32 0x8C379A000000000000000000000000000000000000000000000000000000000 DUP2 MSTORE PUSH1 0x4 ADD PUSH2 0x2038 SWAP1 PUSH2 0x3F14 JUMP JUMPDEST PUSH1 0x40 MLOAD DUP1 SWAP2 SUB SWAP1 REVERT JUMPDEST PUSH2 0x204C DUP4 DUP4 DUP4 PUSH2 0x2578 JUMP JUMPDEST POP POP POP JUMP JUMPDEST PUSH1 0x0 PUSH2 0x205C DUP3 PUSH2 0x1E94 JUMP JUMPDEST PUSH2 0x209B JUMPI PUSH1 0x40 MLOAD PUSH32 0x8C379A000000000000000000000000000000000000000000000000000000000 DUP2 MSTORE PUSH1 0x4 ADD PUSH2 0x2092 SWAP1 PUSH2 0x3FA6 JUMP JUMPDEST PUSH1 0x40 MLOAD DUP1 SWAP2 SUB SWAP1 REVERT JUMPDEST PUSH1 0x0 PUSH2 0x20A6 DUP4 PUSH2 0xF76 JUMP JUMPDEST SWAP1 POP DUP1 PUSH20 0xFFFFFFFFFFFFFFFFFFFFFFFFFFFFFFFFFFFFFFFF AND DUP5 PUSH20 0xFFFFFFFFFFFFFFFFFFFFFFFFFFFFFFFFFFFFFFFF AND EQ DUP1 PUSH2 0x2115 JUMPI POP DUP4 PUSH20 0xFFFFFFFFFFFFFFFFFFFFFFFFFFFFFFFFFFFFFFFF AND PUSH2 0x20FD DUP5 PUSH2 0x9AA JUMP JUMPDEST PUSH20 0xFFFFFFFFFFFFFFFFFFFFFFFFFFFFFFFFFFFFFFFF AND EQ JUMPDEST DUP1 PUSH2 0x2126 JUMPI POP PUSH2 0x2125 DUP2 DUP6 PUSH2 0x1AF5 JUMP JUMPDEST JUMPDEST SWAP2 POP POP SWAP3 SWAP2 POP POP JUMP JUMPDEST DUP3 PUSH20 0xFFFFFFFFFFFFFFFFFFFFFFFFFFFFFFFFFFFFFFFF AND PUSH2 0x214F DUP3 PUSH2 0xF76 JUMP JUMPDEST PUSH20 0xFFFFFFFFFFFFFFFFFFFFFFFFFFFFFFFFFFFFFFFF AND EQ PUSH2 0x21A5 JUMPI PUSH1 0x40 MLOAD PUSH32 0x8C379A000000000000000000000000000000000000000000000000000000000 DUP2 MSTORE PUSH1 0x4 ADD PUSH2 0x219C SWAP1 PUSH2 0x4038 JUMP JUMPDEST PUSH1 0x40 MLOAD DUP1 SWAP2 SUB SWAP1 REVERT JUMPDEST PUSH1 0x0 PUSH20 0xFFFFFFFFFFFFFFFFFFFFFFFFFFFFFFFFFFFFFFFF AND DUP3 PUSH20 0xFFFFFFFFFFFFFFFFFFFFFFFFFFFFFFFFFFFFFFFF AND EQ ISZERO PUSH2 0x2215 JUMPI PUSH1 0x40 MLOAD PUSH32 0x8C379A000000000000000000000000000000000000000000000000000000000 DUP2 MSTORE PUSH1 0x4 ADD PUSH2 0x220C SWAP1 PUSH2 0x40CA JUMP JUMPDEST PUSH1 0x40 MLOAD DUP1 SWAP2 SUB SWAP1 REVERT JUMPDEST PUSH2 0x2220 PUSH1 0x0 DUP3 PUSH2 0x1F00 JUMP JUMPDEST PUSH1 0x1 PUSH1 0x3 PUSH1 0x0 DUP6 PUSH20 0xFFFFFFFFFFFFFFFFFFFFFFFFFFFFFFFFFFFFFFFF AND PUSH20 0xFFFFFFFFFFFFFFFFFFFFFFFFFFFFFFFFFFFFFFFF AND DUP2 MSTORE PUSH1 0x20 ADD SWAP1 DUP2 MSTORE PUSH1 0x20 ADD PUSH1 0x0 KECCAK256 PUSH1 0x0 DUP3 DUP3 SLOAD PUSH2 0x2270 SWAP2 SWAP1 PUSH2 0x40EA JUMP JUMPDEST SWAP3 POP POP DUP2 SWAP1 SSTORE POP PUSH1 0x1 PUSH1 0x3 PUSH1 0x0 DUP5 PUSH20 0xFFFFFFFFFFFFFFFFFFFFFFFFFFFFFFFFFFFFFFFF AND PUSH20 0xFFFFFFFFFFFFFFFFFFFFFFFFFFFFFFFFFFFFFFFF AND DUP2 MSTORE PUSH1 0x20 ADD SWAP1 DUP2 MSTORE PUSH1 0x20 ADD PUSH1 0x0 KECCAK256 PUSH1 0x0 DUP3 DUP3 SLOAD PUSH2 0x22C7 SWAP2 SWAP1 PUSH2 0x3389 JUMP JUMPDEST SWAP3 POP POP DUP2 SWAP1 SSTORE POP DUP2 PUSH1 0x2 PUSH1 0x0 DUP4 DUP2 MSTORE PUSH1 0x20 ADD SWAP1 DUP2 MSTORE PUSH1 0x20 ADD PUSH1 0x0 KECCAK256 PUSH1 0x0 PUSH2 0x100 EXP DUP2 SLOAD DUP2 PUSH20 0xFFFFFFFFFFFFFFFFFFFFFFFFFFFFFFFFFFFFFFFF MUL NOT AND SWAP1 DUP4 PUSH20 0xFFFFFFFFFFFFFFFFFFFFFFFFFFFFFFFFFFFFFFFF AND MUL OR SWAP1 SSTORE POP DUP1 DUP3 PUSH20 0xFFFFFFFFFFFFFFFFFFFFFFFFFFFFFFFFFFFFFFFF AND DUP5 PUSH20 0xFFFFFFFFFFFFFFFFFFFFFFFFFFFFFFFFFFFFFFFF AND PUSH32 0xDDF252AD1BE2C89B69C2B068FC378DAA952BA7F163C4A11628F55A4DF523B3EF PUSH1 0x40 MLOAD PUSH1 0x40 MLOAD DUP1 SWAP2 SUB SWAP1 LOG4 POP POP POP JUMP JUMPDEST PUSH1 0x0 DUP3 PUSH2 0x238D DUP6 DUP5 PUSH2 0x25F1 JUMP JUMPDEST EQ SWAP1 POP SWAP4 SWAP3 POP POP POP JUMP JUMPDEST PUSH1 0x60 PUSH1 0x0 DUP3 MLOAD EQ ISZERO PUSH2 0x23BA JUMPI PUSH1 0x40 MLOAD DUP1 PUSH1 0x20 ADD PUSH1 0x40 MSTORE DUP1 PUSH1 0x0 DUP2 MSTORE POP SWAP1 POP PUSH2 0x2517 JUMP JUMPDEST PUSH1 0x0 PUSH1 0x40 MLOAD DUP1 PUSH1 0x60 ADD PUSH1 0x40 MSTORE DUP1 PUSH1 0x40 DUP2 MSTORE PUSH1 0x20 ADD PUSH2 0x4413 PUSH1 0x40 SWAP2 CODECOPY SWAP1 POP PUSH1 0x0 PUSH1 0x3 PUSH1 0x2 DUP6 MLOAD PUSH2 0x23E9 SWAP2 SWAP1 PUSH2 0x3389 JUMP JUMPDEST PUSH2 0x23F3 SWAP2 SWAP1 PUSH2 0x414D JUMP JUMPDEST PUSH1 0x4 PUSH2 0x23FF SWAP2 SWAP1 PUSH2 0x417E JUMP JUMPDEST SWAP1 POP PUSH1 0x0 PUSH1 0x20 DUP3 PUSH2 0x2410 SWAP2 SWAP1 PUSH2 0x3389 JUMP JUMPDEST PUSH8 0xFFFFFFFFFFFFFFFF DUP2 GT ISZERO PUSH2 0x2429 JUMPI PUSH2 0x2428 PUSH2 0x2E57 JUMP JUMPDEST JUMPDEST PUSH1 0x40 MLOAD SWAP1 DUP1 DUP3 MSTORE DUP1 PUSH1 0x1F ADD PUSH1 0x1F NOT AND PUSH1 0x20 ADD DUP3 ADD PUSH1 0x40 MSTORE DUP1 ISZERO PUSH2 0x245B JUMPI DUP2 PUSH1 0x20 ADD PUSH1 0x1 DUP3 MUL DUP1 CALLDATASIZE DUP4 CALLDATACOPY DUP1 DUP3 ADD SWAP2 POP POP SWAP1 POP JUMPDEST POP SWAP1 POP DUP2 DUP2 MSTORE PUSH1 0x1 DUP4 ADD DUP6 DUP7 MLOAD DUP2 ADD PUSH1 0x20 DUP5 ADD JUMPDEST DUP2 DUP4 LT ISZERO PUSH2 0x24D6 JUMPI PUSH1 0x3 DUP4 ADD SWAP3 POP DUP3 MLOAD PUSH1 0x3F DUP2 PUSH1 0x12 SHR AND DUP6 ADD MLOAD PUSH1 0xF8 SHL DUP3 MSTORE PUSH1 0x1 DUP3 ADD SWAP2 POP PUSH1 0x3F DUP2 PUSH1 0xC SHR AND DUP6 ADD MLOAD PUSH1 0xF8 SHL DUP3 MSTORE PUSH1 0x1 DUP3 ADD SWAP2 POP PUSH1 0x3F DUP2 PUSH1 0x6 SHR AND DUP6 ADD MLOAD PUSH1 0xF8 SHL DUP3 MSTORE PUSH1 0x1 DUP3 ADD SWAP2 POP PUSH1 0x3F DUP2 AND DUP6 ADD MLOAD PUSH1 0xF8 SHL DUP3 MSTORE PUSH1 0x1 DUP3 ADD SWAP2 POP POP PUSH2 0x246F JUMP JUMPDEST PUSH1 0x3 DUP10 MLOAD MOD PUSH1 0x1 DUP2 EQ PUSH2 0x24F0 JUMPI PUSH1 0x2 DUP2 EQ PUSH2 0x2500 JUMPI PUSH2 0x250B JUMP JUMPDEST PUSH2 0x3D3D PUSH1 0xF0 SHL PUSH1 0x2 DUP4 SUB MSTORE PUSH2 0x250B JUMP JUMPDEST PUSH1 0x3D PUSH1 0xF8 SHL PUSH1 0x1 DUP4 SUB MSTORE JUMPDEST POP POP POP POP POP DUP1 SWAP4 POP POP POP POP JUMPDEST SWAP2 SWAP1 POP JUMP JUMPDEST PUSH2 0x2527 DUP5 DUP5 DUP5 PUSH2 0x212F JUMP JUMPDEST PUSH2 0x2533 DUP5 DUP5 DUP5 DUP5 PUSH2 0x26A4 JUMP JUMPDEST PUSH2 0x2572 JUMPI PUSH1 0x40 MLOAD PUSH32 0x8C379A000000000000000000000000000000000000000000000000000000000 DUP2 MSTORE PUSH1 0x4 ADD PUSH2 0x2569 SWAP1 PUSH2 0x424A JUMP JUMPDEST PUSH1 0x40 MLOAD DUP1 SWAP2 SUB SWAP1 REVERT JUMPDEST POP POP POP POP JUMP JUMPDEST PUSH1 0x0 DUP3 DUP5 PUSH1 0x40 MLOAD PUSH1 0x20 ADD PUSH2 0x258D SWAP3 SWAP2 SWAP1 PUSH2 0x3968 JUMP JUMPDEST PUSH1 0x40 MLOAD PUSH1 0x20 DUP2 DUP4 SUB SUB DUP2 MSTORE SWAP1 PUSH1 0x40 MSTORE DUP1 MLOAD SWAP1 PUSH1 0x20 ADD KECCAK256 PUSH1 0x0 SHR SWAP1 POP PUSH1 0x1 ISZERO ISZERO DUP3 ISZERO ISZERO EQ ISZERO PUSH2 0x25E1 JUMPI DUP2 PUSH1 0xC PUSH1 0x0 DUP4 DUP2 MSTORE PUSH1 0x20 ADD SWAP1 DUP2 MSTORE PUSH1 0x20 ADD PUSH1 0x0 KECCAK256 PUSH1 0x0 PUSH2 0x100 EXP DUP2 SLOAD DUP2 PUSH1 0xFF MUL NOT AND SWAP1 DUP4 ISZERO ISZERO MUL OR SWAP1 SSTORE POP JUMPDEST PUSH2 0x25EB DUP5 DUP3 PUSH2 0x1C68 JUMP JUMPDEST POP POP POP POP JUMP JUMPDEST PUSH1 0x0 DUP1 DUP3 SWAP1 POP PUSH1 0x0 JUMPDEST DUP5 MLOAD DUP2 LT ISZERO PUSH2 0x2699 JUMPI PUSH1 0x0 DUP6 DUP3 DUP2 MLOAD DUP2 LT PUSH2 0x2618 JUMPI PUSH2 0x2617 PUSH2 0x426A JUMP JUMPDEST JUMPDEST PUSH1 0x20 MUL PUSH1 0x20 ADD ADD MLOAD SWAP1 POP DUP1 DUP4 GT PUSH2 0x2659 JUMPI DUP3 DUP2 PUSH1 0x40 MLOAD PUSH1 0x20 ADD PUSH2 0x263C SWAP3 SWAP2 SWAP1 PUSH2 0x42BA JUMP JUMPDEST PUSH1 0x40 MLOAD PUSH1 0x20 DUP2 DUP4 SUB SUB DUP2 MSTORE SWAP1 PUSH1 0x40 MSTORE DUP1 MLOAD SWAP1 PUSH1 0x20 ADD KECCAK256 SWAP3 POP PUSH2 0x2685 JUMP JUMPDEST DUP1 DUP4 PUSH1 0x40 MLOAD PUSH1 0x20 ADD PUSH2 0x266C SWAP3 SWAP2 SWAP1 PUSH2 0x42BA JUMP JUMPDEST PUSH1 0x40 MLOAD PUSH1 0x20 DUP2 DUP4 SUB SUB DUP2 MSTORE SWAP1 PUSH1 0x40 MSTORE DUP1 MLOAD SWAP1 PUSH1 0x20 ADD KECCAK256 SWAP3 POP JUMPDEST POP DUP1 DUP1 PUSH2 0x2691 SWAP1 PUSH2 0x42E6 JUMP JUMPDEST SWAP2 POP POP PUSH2 0x25FA JUMP JUMPDEST POP DUP1 SWAP2 POP POP SWAP3 SWAP2 POP POP JUMP JUMPDEST PUSH1 0x0 PUSH2 0x26C5 DUP5 PUSH20 0xFFFFFFFFFFFFFFFFFFFFFFFFFFFFFFFFFFFFFFFF AND PUSH2 0x2825 JUMP JUMPDEST ISZERO PUSH2 0x2818 JUMPI DUP4 PUSH20 0xFFFFFFFFFFFFFFFFFFFFFFFFFFFFFFFFFFFFFFFF AND PUSH4 0x150B7A02 CALLER DUP8 DUP7 DUP7 PUSH1 0x40 MLOAD DUP6 PUSH4 0xFFFFFFFF AND PUSH1 0xE0 SHL DUP2 MSTORE PUSH1 0x4 ADD PUSH2 0x2709 SWAP5 SWAP4 SWAP3 SWAP2 SWAP1 PUSH2 0x4384 JUMP JUMPDEST PUSH1 0x20 PUSH1 0x40 MLOAD DUP1 DUP4 SUB DUP2 PUSH1 0x0 DUP8 GAS CALL SWAP3 POP POP POP DUP1 ISZERO PUSH2 0x2745 JUMPI POP PUSH1 0x40 MLOAD RETURNDATASIZE PUSH1 0x1F NOT PUSH1 0x1F DUP3 ADD AND DUP3 ADD DUP1 PUSH1 0x40 MSTORE POP DUP2 ADD SWAP1 PUSH2 0x2742 SWAP2 SWAP1 PUSH2 0x43E5 JUMP JUMPDEST PUSH1 0x1 JUMPDEST PUSH2 0x27C8 JUMPI RETURNDATASIZE DUP1 PUSH1 0x0 DUP2 EQ PUSH2 0x2775 JUMPI PUSH1 0x40 MLOAD SWAP2 POP PUSH1 0x1F NOT PUSH1 0x3F RETURNDATASIZE ADD AND DUP3 ADD PUSH1 0x40 MSTORE RETURNDATASIZE DUP3 MSTORE RETURNDATASIZE PUSH1 0x0 PUSH1 0x20 DUP5 ADD RETURNDATACOPY PUSH2 0x277A JUMP JUMPDEST PUSH1 0x60 SWAP2 POP JUMPDEST POP PUSH1 0x0 DUP2 MLOAD EQ ISZERO PUSH2 0x27C0 JUMPI PUSH1 0x40 MLOAD PUSH32 0x8C379A000000000000000000000000000000000000000000000000000000000 DUP2 MSTORE PUSH1 0x4 ADD PUSH2 0x27B7 SWAP1 PUSH2 0x424A JUMP JUMPDEST PUSH1 0x40 MLOAD DUP1 SWAP2 SUB SWAP1 REVERT JUMPDEST DUP1 MLOAD DUP2 PUSH1 0x20 ADD REVERT JUMPDEST PUSH4 0x150B7A02 PUSH1 0xE0 SHL PUSH28 0xFFFFFFFFFFFFFFFFFFFFFFFFFFFFFFFFFFFFFFFFFFFFFFFFFFFFFFFF NOT AND DUP2 PUSH28 0xFFFFFFFFFFFFFFFFFFFFFFFFFFFFFFFFFFFFFFFFFFFFFFFFFFFFFFFF NOT AND EQ SWAP2 POP POP PUSH2 0x281D JUMP JUMPDEST PUSH1 0x1 SWAP1 POP JUMPDEST SWAP5 SWAP4 POP POP POP POP JUMP JUMPDEST PUSH1 0x0 DUP1 DUP3 EXTCODESIZE SWAP1 POP PUSH1 0x0 DUP2 GT SWAP2 POP POP SWAP2 SWAP1 POP JUMP JUMPDEST PUSH1 0x0 PUSH1 0x40 MLOAD SWAP1 POP SWAP1 JUMP JUMPDEST PUSH1 0x0 DUP1 REVERT JUMPDEST PUSH1 0x0 DUP1 REVERT JUMPDEST PUSH1 0x0 PUSH32 0xFFFFFFFF00000000000000000000000000000000000000000000000000000000 DUP3 AND SWAP1 POP SWAP2 SWAP1 POP JUMP JUMPDEST PUSH2 0x2881 DUP2 PUSH2 0x284C JUMP JUMPDEST DUP2 EQ PUSH2 0x288C JUMPI PUSH1 0x0 DUP1 REVERT JUMPDEST POP JUMP JUMPDEST PUSH1 0x0 DUP2 CALLDATALOAD SWAP1 POP PUSH2 0x289E DUP2 PUSH2 0x2878 JUMP JUMPDEST SWAP3 SWAP2 POP POP JUMP JUMPDEST PUSH1 0x0 PUSH1 0x20 DUP3 DUP5 SUB SLT ISZERO PUSH2 0x28BA JUMPI PUSH2 0x28B9 PUSH2 0x2842 JUMP JUMPDEST JUMPDEST PUSH1 0x0 PUSH2 0x28C8 DUP5 DUP3 DUP6 ADD PUSH2 0x288F JUMP JUMPDEST SWAP2 POP POP SWAP3 SWAP2 POP POP JUMP JUMPDEST PUSH1 0x0 DUP2 ISZERO ISZERO SWAP1 POP SWAP2 SWAP1 POP JUMP JUMPDEST PUSH2 0x28E6 DUP2 PUSH2 0x28D1 JUMP JUMPDEST DUP3 MSTORE POP POP JUMP JUMPDEST PUSH1 0x0 PUSH1 0x20 DUP3 ADD SWAP1 POP PUSH2 0x2901 PUSH1 0x0 DUP4 ADD DUP5 PUSH2 0x28DD JUMP JUMPDEST SWAP3 SWAP2 POP POP JUMP JUMPDEST PUSH1 0x0 DUP2 MLOAD SWAP1 POP SWAP2 SWAP1 POP JUMP JUMPDEST PUSH1 0x0 DUP3 DUP3 MSTORE PUSH1 0x20 DUP3 ADD SWAP1 POP SWAP3 SWAP2 POP POP JUMP JUMPDEST PUSH1 0x0 JUMPDEST DUP4 DUP2 LT ISZERO PUSH2 0x2941 JUMPI DUP1 DUP3 ADD MLOAD DUP2 DUP5 ADD MSTORE PUSH1 0x20 DUP2 ADD SWAP1 POP PUSH2 0x2926 JUMP JUMPDEST DUP4 DUP2 GT ISZERO PUSH2 0x2950 JUMPI PUSH1 0x0 DUP5 DUP5 ADD MSTORE JUMPDEST POP POP POP POP JUMP JUMPDEST PUSH1 0x0 PUSH1 0x1F NOT PUSH1 0x1F DUP4 ADD AND SWAP1 POP SWAP2 SWAP1 POP JUMP JUMPDEST PUSH1 0x0 PUSH2 0x2972 DUP3 PUSH2 0x2907 JUMP JUMPDEST PUSH2 0x297C DUP2 DUP6 PUSH2 0x2912 JUMP JUMPDEST SWAP4 POP PUSH2 0x298C DUP2 DUP6 PUSH1 0x20 DUP7 ADD PUSH2 0x2923 JUMP JUMPDEST PUSH2 0x2995 DUP2 PUSH2 0x2956 JUMP JUMPDEST DUP5 ADD SWAP2 POP POP SWAP3 SWAP2 POP POP JUMP JUMPDEST PUSH1 0x0 PUSH1 0x20 DUP3 ADD SWAP1 POP DUP2 DUP2 SUB PUSH1 0x0 DUP4 ADD MSTORE PUSH2 0x29BA DUP2 DUP5 PUSH2 0x2967 JUMP JUMPDEST SWAP1 POP SWAP3 SWAP2 POP POP JUMP JUMPDEST PUSH1 0x0 DUP2 SWAP1 POP SWAP2 SWAP1 POP JUMP JUMPDEST PUSH2 0x29D5 DUP2 PUSH2 0x29C2 JUMP JUMPDEST DUP2 EQ PUSH2 0x29E0 JUMPI PUSH1 0x0 DUP1 REVERT JUMPDEST POP JUMP JUMPDEST PUSH1 0x0 DUP2 CALLDATALOAD SWAP1 POP PUSH2 0x29F2 DUP2 PUSH2 0x29CC JUMP JUMPDEST SWAP3 SWAP2 POP POP JUMP JUMPDEST PUSH1 0x0 PUSH1 0x20 DUP3 DUP5 SUB SLT ISZERO PUSH2 0x2A0E JUMPI PUSH2 0x2A0D PUSH2 0x2842 JUMP JUMPDEST JUMPDEST PUSH1 0x0 PUSH2 0x2A1C DUP5 DUP3 DUP6 ADD PUSH2 0x29E3 JUMP JUMPDEST SWAP2 POP POP SWAP3 SWAP2 POP POP JUMP JUMPDEST PUSH1 0x0 PUSH20 0xFFFFFFFFFFFFFFFFFFFFFFFFFFFFFFFFFFFFFFFF DUP3 AND SWAP1 POP SWAP2 SWAP1 POP JUMP JUMPDEST PUSH1 0x0 PUSH2 0x2A50 DUP3 PUSH2 0x2A25 JUMP JUMPDEST SWAP1 POP SWAP2 SWAP1 POP JUMP JUMPDEST PUSH2 0x2A60 DUP2 PUSH2 0x2A45 JUMP JUMPDEST DUP3 MSTORE POP POP JUMP JUMPDEST PUSH1 0x0 PUSH1 0x20 DUP3 ADD SWAP1 POP PUSH2 0x2A7B PUSH1 0x0 DUP4 ADD DUP5 PUSH2 0x2A57 JUMP JUMPDEST SWAP3 SWAP2 POP POP JUMP JUMPDEST PUSH2 0x2A8A DUP2 PUSH2 0x2A45 JUMP JUMPDEST DUP2 EQ PUSH2 0x2A95 JUMPI PUSH1 0x0 DUP1 REVERT JUMPDEST POP JUMP JUMPDEST PUSH1 0x0 DUP2 CALLDATALOAD SWAP1 POP PUSH2 0x2AA7 DUP2 PUSH2 0x2A81 JUMP JUMPDEST SWAP3 SWAP2 POP POP JUMP JUMPDEST PUSH1 0x0 DUP1 PUSH1 0x40 DUP4 DUP6 SUB SLT ISZERO PUSH2 0x2AC4 JUMPI PUSH2 0x2AC3 PUSH2 0x2842 JUMP JUMPDEST JUMPDEST PUSH1 0x0 PUSH2 0x2AD2 DUP6 DUP3 DUP7 ADD PUSH2 0x2A98 JUMP JUMPDEST SWAP3 POP POP PUSH1 0x20 PUSH2 0x2AE3 DUP6 DUP3 DUP7 ADD PUSH2 0x29E3 JUMP JUMPDEST SWAP2 POP POP SWAP3 POP SWAP3 SWAP1 POP JUMP JUMPDEST PUSH2 0x2AF6 DUP2 PUSH2 0x29C2 JUMP JUMPDEST DUP3 MSTORE POP POP JUMP JUMPDEST PUSH1 0x0 PUSH1 0x20 DUP3 ADD SWAP1 POP PUSH2 0x2B11 PUSH1 0x0 DUP4 ADD DUP5 PUSH2 0x2AED JUMP JUMPDEST SWAP3 SWAP2 POP POP JUMP JUMPDEST PUSH1 0x0 DUP1 PUSH1 0x0 PUSH1 0x60 DUP5 DUP7 SUB SLT ISZERO PUSH2 0x2B30 JUMPI PUSH2 0x2B2F PUSH2 0x2842 JUMP JUMPDEST JUMPDEST PUSH1 0x0 PUSH2 0x2B3E DUP7 DUP3 DUP8 ADD PUSH2 0x2A98 JUMP JUMPDEST SWAP4 POP POP PUSH1 0x20 PUSH2 0x2B4F DUP7 DUP3 DUP8 ADD PUSH2 0x2A98 JUMP JUMPDEST SWAP3 POP POP PUSH1 0x40 PUSH2 0x2B60 DUP7 DUP3 DUP8 ADD PUSH2 0x29E3 JUMP JUMPDEST SWAP2 POP POP SWAP3 POP SWAP3 POP SWAP3 JUMP JUMPDEST PUSH1 0x0 DUP2 SWAP1 POP SWAP2 SWAP1 POP JUMP JUMPDEST PUSH1 0x0 PUSH2 0x2B8F PUSH2 0x2B8A PUSH2 0x2B85 DUP5 PUSH2 0x2A25 JUMP JUMPDEST PUSH2 0x2B6A JUMP JUMPDEST PUSH2 0x2A25 JUMP JUMPDEST SWAP1 POP SWAP2 SWAP1 POP JUMP JUMPDEST PUSH1 0x0 PUSH2 0x2BA1 DUP3 PUSH2 0x2B74 JUMP JUMPDEST SWAP1 POP SWAP2 SWAP1 POP JUMP JUMPDEST PUSH1 0x0 PUSH2 0x2BB3 DUP3 PUSH2 0x2B96 JUMP JUMPDEST SWAP1 POP SWAP2 SWAP1 POP JUMP JUMPDEST PUSH2 0x2BC3 DUP2 PUSH2 0x2BA8 JUMP JUMPDEST DUP3 MSTORE POP POP JUMP JUMPDEST PUSH1 0x0 PUSH1 0x20 DUP3 ADD SWAP1 POP PUSH2 0x2BDE PUSH1 0x0 DUP4 ADD DUP5 PUSH2 0x2BBA JUMP JUMPDEST SWAP3 SWAP2 POP POP JUMP JUMPDEST PUSH1 0x0 DUP1 REVERT JUMPDEST PUSH1 0x0 DUP1 REVERT JUMPDEST PUSH1 0x0 DUP1 REVERT JUMPDEST PUSH1 0x0 DUP1 DUP4 PUSH1 0x1F DUP5 ADD SLT PUSH2 0x2C09 JUMPI PUSH2 0x2C08 PUSH2 0x2BE4 JUMP JUMPDEST JUMPDEST DUP3 CALLDATALOAD SWAP1 POP PUSH8 0xFFFFFFFFFFFFFFFF DUP2 GT ISZERO PUSH2 0x2C26 JUMPI PUSH2 0x2C25 PUSH2 0x2BE9 JUMP JUMPDEST JUMPDEST PUSH1 0x20 DUP4 ADD SWAP2 POP DUP4 PUSH1 0x20 DUP3 MUL DUP4 ADD GT ISZERO PUSH2 0x2C42 JUMPI PUSH2 0x2C41 PUSH2 0x2BEE JUMP JUMPDEST JUMPDEST SWAP3 POP SWAP3 SWAP1 POP JUMP JUMPDEST PUSH1 0x0 DUP1 PUSH1 0x0 PUSH1 0x40 DUP5 DUP7 SUB SLT ISZERO PUSH2 0x2C62 JUMPI PUSH2 0x2C61 PUSH2 0x2842 JUMP JUMPDEST JUMPDEST PUSH1 0x0 DUP5 ADD CALLDATALOAD PUSH8 0xFFFFFFFFFFFFFFFF DUP2 GT ISZERO PUSH2 0x2C80 JUMPI PUSH2 0x2C7F PUSH2 0x2847 JUMP JUMPDEST JUMPDEST PUSH2 0x2C8C DUP7 DUP3 DUP8 ADD PUSH2 0x2BF3 JUMP JUMPDEST SWAP4 POP SWAP4 POP POP PUSH1 0x20 PUSH2 0x2C9F DUP7 DUP3 DUP8 ADD PUSH2 0x2A98 JUMP JUMPDEST SWAP2 POP POP SWAP3 POP SWAP3 POP SWAP3 JUMP JUMPDEST PUSH1 0x0 PUSH2 0x2CB4 DUP3 PUSH2 0x2A25 JUMP JUMPDEST SWAP1 POP SWAP2 SWAP1 POP JUMP JUMPDEST PUSH2 0x2CC4 DUP2 PUSH2 0x2CA9 JUMP JUMPDEST DUP3 MSTORE POP POP JUMP JUMPDEST PUSH1 0x0 PUSH1 0x20 DUP3 ADD SWAP1 POP PUSH2 0x2CDF PUSH1 0x0 DUP4 ADD DUP5 PUSH2 0x2CBB JUMP JUMPDEST SWAP3 SWAP2 POP POP JUMP JUMPDEST PUSH1 0x0 DUP2 SWAP1 POP SWAP2 SWAP1 POP JUMP JUMPDEST PUSH2 0x2CF8 DUP2 PUSH2 0x2CE5 JUMP JUMPDEST DUP3 MSTORE POP POP JUMP JUMPDEST PUSH1 0x0 PUSH1 0x20 DUP3 ADD SWAP1 POP PUSH2 0x2D13 PUSH1 0x0 DUP4 ADD DUP5 PUSH2 0x2CEF JUMP JUMPDEST SWAP3 SWAP2 POP POP JUMP JUMPDEST PUSH1 0x0 PUSH1 0x20 DUP3 DUP5 SUB SLT ISZERO PUSH2 0x2D2F JUMPI PUSH2 0x2D2E PUSH2 0x2842 JUMP JUMPDEST JUMPDEST PUSH1 0x0 PUSH2 0x2D3D DUP5 DUP3 DUP6 ADD PUSH2 0x2A98 JUMP JUMPDEST SWAP2 POP POP SWAP3 SWAP2 POP POP JUMP JUMPDEST PUSH2 0x2D4F DUP2 PUSH2 0x28D1 JUMP JUMPDEST DUP2 EQ PUSH2 0x2D5A JUMPI PUSH1 0x0 DUP1 REVERT JUMPDEST POP JUMP JUMPDEST PUSH1 0x0 DUP2 CALLDATALOAD SWAP1 POP PUSH2 0x2D6C DUP2 PUSH2 0x2D46 JUMP JUMPDEST SWAP3 SWAP2 POP POP JUMP JUMPDEST PUSH1 0x0 DUP1 PUSH1 0x0 PUSH1 0x60 DUP5 DUP7 SUB SLT ISZERO PUSH2 0x2D8B JUMPI PUSH2 0x2D8A PUSH2 0x2842 JUMP JUMPDEST JUMPDEST PUSH1 0x0 PUSH2 0x2D99 DUP7 DUP3 DUP8 ADD PUSH2 0x29E3 JUMP JUMPDEST SWAP4 POP POP PUSH1 0x20 PUSH2 0x2DAA DUP7 DUP3 DUP8 ADD PUSH2 0x2A98 JUMP JUMPDEST SWAP3 POP POP PUSH1 0x40 PUSH2 0x2DBB DUP7 DUP3 DUP8 ADD PUSH2 0x2D5D JUMP JUMPDEST SWAP2 POP POP SWAP3 POP SWAP3 POP SWAP3 JUMP JUMPDEST PUSH1 0x0 DUP1 PUSH1 0x40 DUP4 DUP6 SUB SLT ISZERO PUSH2 0x2DDC JUMPI PUSH2 0x2DDB PUSH2 0x2842 JUMP JUMPDEST JUMPDEST PUSH1 0x0 PUSH2 0x2DEA DUP6 DUP3 DUP7 ADD PUSH2 0x2A98 JUMP JUMPDEST SWAP3 POP POP PUSH1 0x20 PUSH2 0x2DFB DUP6 DUP3 DUP7 ADD PUSH2 0x2D5D JUMP JUMPDEST SWAP2 POP POP SWAP3 POP SWAP3 SWAP1 POP JUMP JUMPDEST PUSH1 0x0 DUP1 PUSH1 0x20 DUP4 DUP6 SUB SLT ISZERO PUSH2 0x2E1C JUMPI PUSH2 0x2E1B PUSH2 0x2842 JUMP JUMPDEST JUMPDEST PUSH1 0x0 DUP4 ADD CALLDATALOAD PUSH8 0xFFFFFFFFFFFFFFFF DUP2 GT ISZERO PUSH2 0x2E3A JUMPI PUSH2 0x2E39 PUSH2 0x2847 JUMP JUMPDEST JUMPDEST PUSH2 0x2E46 DUP6 DUP3 DUP7 ADD PUSH2 0x2BF3 JUMP JUMPDEST SWAP3 POP SWAP3 POP POP SWAP3 POP SWAP3 SWAP1 POP JUMP JUMPDEST PUSH1 0x0 DUP1 REVERT JUMPDEST PUSH32 0x4E487B7100000000000000000000000000000000000000000000000000000000 PUSH1 0x0 MSTORE PUSH1 0x41 PUSH1 0x4 MSTORE PUSH1 0x24 PUSH1 0x0 REVERT JUMPDEST PUSH2 0x2E8F DUP3 PUSH2 0x2956 JUMP JUMPDEST DUP2 ADD DUP2 DUP2 LT PUSH8 0xFFFFFFFFFFFFFFFF DUP3 GT OR ISZERO PUSH2 0x2EAE JUMPI PUSH2 0x2EAD PUSH2 0x2E57 JUMP JUMPDEST JUMPDEST DUP1 PUSH1 0x40 MSTORE POP POP POP JUMP JUMPDEST PUSH1 0x0 PUSH2 0x2EC1 PUSH2 0x2838 JUMP JUMPDEST SWAP1 POP PUSH2 0x2ECD DUP3 DUP3 PUSH2 0x2E86 JUMP JUMPDEST SWAP2 SWAP1 POP JUMP JUMPDEST PUSH1 0x0 PUSH8 0xFFFFFFFFFFFFFFFF DUP3 GT ISZERO PUSH2 0x2EED JUMPI PUSH2 0x2EEC PUSH2 0x2E57 JUMP JUMPDEST JUMPDEST PUSH2 0x2EF6 DUP3 PUSH2 0x2956 JUMP JUMPDEST SWAP1 POP PUSH1 0x20 DUP2 ADD SWAP1 POP SWAP2 SWAP1 POP JUMP JUMPDEST DUP3 DUP2 DUP4 CALLDATACOPY PUSH1 0x0 DUP4 DUP4 ADD MSTORE POP POP POP JUMP JUMPDEST PUSH1 0x0 PUSH2 0x2F25 PUSH2 0x2F20 DUP5 PUSH2 0x2ED2 JUMP JUMPDEST PUSH2 0x2EB7 JUMP JUMPDEST SWAP1 POP DUP3 DUP2 MSTORE PUSH1 0x20 DUP2 ADD DUP5 DUP5 DUP5 ADD GT ISZERO PUSH2 0x2F41 JUMPI PUSH2 0x2F40 PUSH2 0x2E52 JUMP JUMPDEST JUMPDEST PUSH2 0x2F4C DUP5 DUP3 DUP6 PUSH2 0x2F03 JUMP JUMPDEST POP SWAP4 SWAP3 POP POP POP JUMP JUMPDEST PUSH1 0x0 DUP3 PUSH1 0x1F DUP4 ADD SLT PUSH2 0x2F69 JUMPI PUSH2 0x2F68 PUSH2 0x2BE4 JUMP JUMPDEST JUMPDEST DUP2 CALLDATALOAD PUSH2 0x2F79 DUP5 DUP3 PUSH1 0x20 DUP7 ADD PUSH2 0x2F12 JUMP JUMPDEST SWAP2 POP POP SWAP3 SWAP2 POP POP JUMP JUMPDEST PUSH1 0x0 DUP1 PUSH1 0x0 DUP1 PUSH1 0x80 DUP6 DUP8 SUB SLT ISZERO PUSH2 0x2F9C JUMPI PUSH2 0x2F9B PUSH2 0x2842 JUMP JUMPDEST JUMPDEST PUSH1 0x0 PUSH2 0x2FAA DUP8 DUP3 DUP9 ADD PUSH2 0x2A98 JUMP JUMPDEST SWAP5 POP POP PUSH1 0x20 PUSH2 0x2FBB DUP8 DUP3 DUP9 ADD PUSH2 0x2A98 JUMP JUMPDEST SWAP4 POP POP PUSH1 0x40 PUSH2 0x2FCC DUP8 DUP3 DUP9 ADD PUSH2 0x29E3 JUMP JUMPDEST SWAP3 POP POP PUSH1 0x60 DUP6 ADD CALLDATALOAD PUSH8 0xFFFFFFFFFFFFFFFF DUP2 GT ISZERO PUSH2 0x2FED JUMPI PUSH2 0x2FEC PUSH2 0x2847 JUMP JUMPDEST JUMPDEST PUSH2 0x2FF9 DUP8 DUP3 DUP9 ADD PUSH2 0x2F54 JUMP JUMPDEST SWAP2 POP POP SWAP3 SWAP6 SWAP2 SWAP5 POP SWAP3 POP JUMP JUMPDEST PUSH1 0x0 DUP1 PUSH1 0x40 DUP4 DUP6 SUB SLT ISZERO PUSH2 0x301C JUMPI PUSH2 0x301B PUSH2 0x2842 JUMP JUMPDEST JUMPDEST PUSH1 0x0 PUSH2 0x302A DUP6 DUP3 DUP7 ADD PUSH2 0x2A98 JUMP JUMPDEST SWAP3 POP POP PUSH1 0x20 PUSH2 0x303B DUP6 DUP3 DUP7 ADD PUSH2 0x2A98 JUMP JUMPDEST SWAP2 POP POP SWAP3 POP SWAP3 SWAP1 POP JUMP JUMPDEST PUSH32 0x4E487B7100000000000000000000000000000000000000000000000000000000 PUSH1 0x0 MSTORE PUSH1 0x22 PUSH1 0x4 MSTORE PUSH1 0x24 PUSH1 0x0 REVERT JUMPDEST PUSH1 0x0 PUSH1 0x2 DUP3 DIV SWAP1 POP PUSH1 0x1 DUP3 AND DUP1 PUSH2 0x308C JUMPI PUSH1 0x7F DUP3 AND SWAP2 POP JUMPDEST PUSH1 0x20 DUP3 LT DUP2 EQ ISZERO PUSH2 0x30A0 JUMPI PUSH2 0x309F PUSH2 0x3045 JUMP JUMPDEST JUMPDEST POP SWAP2 SWAP1 POP JUMP JUMPDEST PUSH32 0x4552433732313A20617070726F76656420717565727920666F72206E6F6E6578 PUSH1 0x0 DUP3 ADD MSTORE PUSH32 0x697374656E7420746F6B656E0000000000000000000000000000000000000000 PUSH1 0x20 DUP3 ADD MSTORE POP JUMP JUMPDEST PUSH1 0x0 PUSH2 0x3102 PUSH1 0x2C DUP4 PUSH2 0x2912 JUMP JUMPDEST SWAP2 POP PUSH2 0x310D DUP3 PUSH2 0x30A6 JUMP JUMPDEST PUSH1 0x40 DUP3 ADD SWAP1 POP SWAP2 SWAP1 POP JUMP JUMPDEST PUSH1 0x0 PUSH1 0x20 DUP3 ADD SWAP1 POP DUP2 DUP2 SUB PUSH1 0x0 DUP4 ADD MSTORE PUSH2 0x3131 DUP2 PUSH2 0x30F5 JUMP JUMPDEST SWAP1 POP SWAP2 SWAP1 POP JUMP JUMPDEST PUSH32 0x4552433732313A20617070726F76616C20746F2063757272656E74206F776E65 PUSH1 0x0 DUP3 ADD MSTORE PUSH32 0x7200000000000000000000000000000000000000000000000000000000000000 PUSH1 0x20 DUP3 ADD MSTORE POP JUMP JUMPDEST PUSH1 0x0 PUSH2 0x3194 PUSH1 0x21 DUP4 PUSH2 0x2912 JUMP JUMPDEST SWAP2 POP PUSH2 0x319F DUP3 PUSH2 0x3138 JUMP JUMPDEST PUSH1 0x40 DUP3 ADD SWAP1 POP SWAP2 SWAP1 POP JUMP JUMPDEST PUSH1 0x0 PUSH1 0x20 DUP3 ADD SWAP1 POP DUP2 DUP2 SUB PUSH1 0x0 DUP4 ADD MSTORE PUSH2 0x31C3 DUP2 PUSH2 0x3187 JUMP JUMPDEST SWAP1 POP SWAP2 SWAP1 POP JUMP JUMPDEST PUSH32 0x4552433732313A20617070726F76652063616C6C6572206973206E6F74206F77 PUSH1 0x0 DUP3 ADD MSTORE PUSH32 0x6E6572206E6F7220617070726F76656420666F7220616C6C0000000000000000 PUSH1 0x20 DUP3 ADD MSTORE POP JUMP JUMPDEST PUSH1 0x0 PUSH2 0x3226 PUSH1 0x38 DUP4 PUSH2 0x2912 JUMP JUMPDEST SWAP2 POP PUSH2 0x3231 DUP3 PUSH2 0x31CA JUMP JUMPDEST PUSH1 0x40 DUP3 ADD SWAP1 POP SWAP2 SWAP1 POP JUMP JUMPDEST PUSH1 0x0 PUSH1 0x20 DUP3 ADD SWAP1 POP DUP2 DUP2 SUB PUSH1 0x0 DUP4 ADD MSTORE PUSH2 0x3255 DUP2 PUSH2 0x3219 JUMP JUMPDEST SWAP1 POP SWAP2 SWAP1 POP JUMP JUMPDEST PUSH32 0x4D4F524520455448204E45454445440000000000000000000000000000000000 PUSH1 0x0 DUP3 ADD MSTORE POP JUMP JUMPDEST PUSH1 0x0 PUSH2 0x3292 PUSH1 0xF DUP4 PUSH2 0x2912 JUMP JUMPDEST SWAP2 POP PUSH2 0x329D DUP3 PUSH2 0x325C JUMP JUMPDEST PUSH1 0x20 DUP3 ADD SWAP1 POP SWAP2 SWAP1 POP JUMP JUMPDEST PUSH1 0x0 PUSH1 0x20 DUP3 ADD SWAP1 POP DUP2 DUP2 SUB PUSH1 0x0 DUP4 ADD MSTORE PUSH2 0x32C1 DUP2 PUSH2 0x3285 JUMP JUMPDEST SWAP1 POP SWAP2 SWAP1 POP JUMP JUMPDEST PUSH32 0x4552433732313A207472616E736665722063616C6C6572206973206E6F74206F PUSH1 0x0 DUP3 ADD MSTORE PUSH32 0x776E6572206E6F7220617070726F766564000000000000000000000000000000 PUSH1 0x20 DUP3 ADD MSTORE POP JUMP JUMPDEST PUSH1 0x0 PUSH2 0x3324 PUSH1 0x31 DUP4 PUSH2 0x2912 JUMP JUMPDEST SWAP2 POP PUSH2 0x332F DUP3 PUSH2 0x32C8 JUMP JUMPDEST PUSH1 0x40 DUP3 ADD SWAP1 POP SWAP2 SWAP1 POP JUMP JUMPDEST PUSH1 0x0 PUSH1 0x20 DUP3 ADD SWAP1 POP DUP2 DUP2 SUB PUSH1 0x0 DUP4 ADD MSTORE PUSH2 0x3353 DUP2 PUSH2 0x3317 JUMP JUMPDEST SWAP1 POP SWAP2 SWAP1 POP JUMP JUMPDEST PUSH32 0x4E487B7100000000000000000000000000000000000000000000000000000000 PUSH1 0x0 MSTORE PUSH1 0x11 PUSH1 0x4 MSTORE PUSH1 0x24 PUSH1 0x0 REVERT JUMPDEST PUSH1 0x0 PUSH2 0x3394 DUP3 PUSH2 0x29C2 JUMP JUMPDEST SWAP2 POP PUSH2 0x339F DUP4 PUSH2 0x29C2 JUMP JUMPDEST SWAP3 POP DUP3 PUSH32 0xFFFFFFFFFFFFFFFFFFFFFFFFFFFFFFFFFFFFFFFFFFFFFFFFFFFFFFFFFFFFFFFF SUB DUP3 GT ISZERO PUSH2 0x33D4 JUMPI PUSH2 0x33D3 PUSH2 0x335A JUMP JUMPDEST JUMPDEST DUP3 DUP3 ADD SWAP1 POP SWAP3 SWAP2 POP POP JUMP JUMPDEST PUSH32 0x414C4C2044454C55584520484153204245454E20534F4C440000000000000000 PUSH1 0x0 DUP3 ADD MSTORE POP JUMP JUMPDEST PUSH1 0x0 PUSH2 0x3415 PUSH1 0x18 DUP4 PUSH2 0x2912 JUMP JUMPDEST SWAP2 POP PUSH2 0x3420 DUP3 PUSH2 0x33DF JUMP JUMPDEST PUSH1 0x20 DUP3 ADD SWAP1 POP SWAP2 SWAP1 POP JUMP JUMPDEST PUSH1 0x0 PUSH1 0x20 DUP3 ADD SWAP1 POP DUP2 DUP2 SUB PUSH1 0x0 DUP4 ADD MSTORE PUSH2 0x3444 DUP2 PUSH2 0x3408 JUMP JUMPDEST SWAP1 POP SWAP2 SWAP1 POP JUMP JUMPDEST PUSH32 0x416C726561647920636C61696D65640000000000000000000000000000000000 PUSH1 0x0 DUP3 ADD MSTORE POP JUMP JUMPDEST PUSH1 0x0 PUSH2 0x3481 PUSH1 0xF DUP4 PUSH2 0x2912 JUMP JUMPDEST SWAP2 POP PUSH2 0x348C DUP3 PUSH2 0x344B JUMP JUMPDEST PUSH1 0x20 DUP3 ADD SWAP1 POP SWAP2 SWAP1 POP JUMP JUMPDEST PUSH1 0x0 PUSH1 0x20 DUP3 ADD SWAP1 POP DUP2 DUP2 SUB PUSH1 0x0 DUP4 ADD MSTORE PUSH2 0x34B0 DUP2 PUSH2 0x3474 JUMP JUMPDEST SWAP1 POP SWAP2 SWAP1 POP JUMP JUMPDEST PUSH1 0x0 DUP2 PUSH1 0x60 SHL SWAP1 POP SWAP2 SWAP1 POP JUMP JUMPDEST PUSH1 0x0 PUSH2 0x34CF DUP3 PUSH2 0x34B7 JUMP JUMPDEST SWAP1 POP SWAP2 SWAP1 POP JUMP JUMPDEST PUSH1 0x0 PUSH2 0x34E1 DUP3 PUSH2 0x34C4 JUMP JUMPDEST SWAP1 POP SWAP2 SWAP1 POP JUMP JUMPDEST PUSH2 0x34F9 PUSH2 0x34F4 DUP3 PUSH2 0x2A45 JUMP JUMPDEST PUSH2 0x34D6 JUMP JUMPDEST DUP3 MSTORE POP POP JUMP JUMPDEST PUSH1 0x0 PUSH2 0x350B DUP3 DUP5 PUSH2 0x34E8 JUMP JUMPDEST PUSH1 0x14 DUP3 ADD SWAP2 POP DUP2 SWAP1 POP SWAP3 SWAP2 POP POP JUMP JUMPDEST PUSH32 0x496E76616C69642050726F6F6600000000000000000000000000000000000000 PUSH1 0x0 DUP3 ADD MSTORE POP JUMP JUMPDEST PUSH1 0x0 PUSH2 0x3550 PUSH1 0xD DUP4 PUSH2 0x2912 JUMP JUMPDEST SWAP2 POP PUSH2 0x355B DUP3 PUSH2 0x351A JUMP JUMPDEST PUSH1 0x20 DUP3 ADD SWAP1 POP SWAP2 SWAP1 POP JUMP JUMPDEST PUSH1 0x0 PUSH1 0x20 DUP3 ADD SWAP1 POP DUP2 DUP2 SUB PUSH1 0x0 DUP4 ADD MSTORE PUSH2 0x357F DUP2 PUSH2 0x3543 JUMP JUMPDEST SWAP1 POP SWAP2 SWAP1 POP JUMP JUMPDEST PUSH1 0x0 PUSH1 0x40 DUP3 ADD SWAP1 POP PUSH2 0x359B PUSH1 0x0 DUP4 ADD DUP6 PUSH2 0x2AED JUMP JUMPDEST PUSH2 0x35A8 PUSH1 0x20 DUP4 ADD DUP5 PUSH2 0x28DD JUMP JUMPDEST SWAP4 SWAP3 POP POP POP JUMP JUMPDEST PUSH1 0x0 PUSH8 0xFFFFFFFFFFFFFFFF DUP3 GT ISZERO PUSH2 0x35CA JUMPI PUSH2 0x35C9 PUSH2 0x2E57 JUMP JUMPDEST JUMPDEST PUSH2 0x35D3 DUP3 PUSH2 0x2956 JUMP JUMPDEST SWAP1 POP PUSH1 0x20 DUP2 ADD SWAP1 POP SWAP2 SWAP1 POP JUMP JUMPDEST PUSH1 0x0 PUSH2 0x35F3 PUSH2 0x35EE DUP5 PUSH2 0x35AF JUMP JUMPDEST PUSH2 0x2EB7 JUMP JUMPDEST SWAP1 POP DUP3 DUP2 MSTORE PUSH1 0x20 DUP2 ADD DUP5 DUP5 DUP5 ADD GT ISZERO PUSH2 0x360F JUMPI PUSH2 0x360E PUSH2 0x2E52 JUMP JUMPDEST JUMPDEST PUSH2 0x361A DUP5 DUP3 DUP6 PUSH2 0x2923 JUMP JUMPDEST POP SWAP4 SWAP3 POP POP POP JUMP JUMPDEST PUSH1 0x0 DUP3 PUSH1 0x1F DUP4 ADD SLT PUSH2 0x3637 JUMPI PUSH2 0x3636 PUSH2 0x2BE4 JUMP JUMPDEST JUMPDEST DUP2 MLOAD PUSH2 0x3647 DUP5 DUP3 PUSH1 0x20 DUP7 ADD PUSH2 0x35E0 JUMP JUMPDEST SWAP2 POP POP SWAP3 SWAP2 POP POP JUMP JUMPDEST PUSH1 0x0 PUSH1 0x20 DUP3 DUP5 SUB SLT ISZERO PUSH2 0x3666 JUMPI PUSH2 0x3665 PUSH2 0x2842 JUMP JUMPDEST JUMPDEST PUSH1 0x0 DUP3 ADD MLOAD PUSH8 0xFFFFFFFFFFFFFFFF DUP2 GT ISZERO PUSH2 0x3684 JUMPI PUSH2 0x3683 PUSH2 0x2847 JUMP JUMPDEST JUMPDEST PUSH2 0x3690 DUP5 DUP3 DUP6 ADD PUSH2 0x3622 JUMP JUMPDEST SWAP2 POP POP SWAP3 SWAP2 POP POP JUMP JUMPDEST PUSH32 0x4552433732313A206F776E657220717565727920666F72206E6F6E6578697374 PUSH1 0x0 DUP3 ADD MSTORE PUSH32 0x656E7420746F6B656E0000000000000000000000000000000000000000000000 PUSH1 0x20 DUP3 ADD MSTORE POP JUMP JUMPDEST PUSH1 0x0 PUSH2 0x36F5 PUSH1 0x29 DUP4 PUSH2 0x2912 JUMP JUMPDEST SWAP2 POP PUSH2 0x3700 DUP3 PUSH2 0x3699 JUMP JUMPDEST PUSH1 0x40 DUP3 ADD SWAP1 POP SWAP2 SWAP1 POP JUMP JUMPDEST PUSH1 0x0 PUSH1 0x20 DUP3 ADD SWAP1 POP DUP2 DUP2 SUB PUSH1 0x0 DUP4 ADD MSTORE PUSH2 0x3724 DUP2 PUSH2 0x36E8 JUMP JUMPDEST SWAP1 POP SWAP2 SWAP1 POP JUMP JUMPDEST PUSH32 0x6E6F74206F776E65720000000000000000000000000000000000000000000000 PUSH1 0x0 DUP3 ADD MSTORE POP JUMP JUMPDEST PUSH1 0x0 PUSH2 0x3761 PUSH1 0x9 DUP4 PUSH2 0x2912 JUMP JUMPDEST SWAP2 POP PUSH2 0x376C DUP3 PUSH2 0x372B JUMP JUMPDEST PUSH1 0x20 DUP3 ADD SWAP1 POP SWAP2 SWAP1 POP JUMP JUMPDEST PUSH1 0x0 PUSH1 0x20 DUP3 ADD SWAP1 POP DUP2 DUP2 SUB PUSH1 0x0 DUP4 ADD MSTORE PUSH2 0x3790 DUP2 PUSH2 0x3754 JUMP JUMPDEST SWAP1 POP SWAP2 SWAP1 POP JUMP JUMPDEST PUSH32 0x63616E74206368616E67652064657363726970746F7220616E796D6F72650000 PUSH1 0x0 DUP3 ADD MSTORE POP JUMP JUMPDEST PUSH1 0x0 PUSH2 0x37CD PUSH1 0x1E DUP4 PUSH2 0x2912 JUMP JUMPDEST SWAP2 POP PUSH2 0x37D8 DUP3 PUSH2 0x3797 JUMP JUMPDEST PUSH1 0x20 DUP3 ADD SWAP1 POP SWAP2 SWAP1 POP JUMP JUMPDEST PUSH1 0x0 PUSH1 0x20 DUP3 ADD SWAP1 POP DUP2 DUP2 SUB PUSH1 0x0 DUP4 ADD MSTORE PUSH2 0x37FC DUP2 PUSH2 0x37C0 JUMP JUMPDEST SWAP1 POP SWAP2 SWAP1 POP JUMP JUMPDEST PUSH32 0x4E4F545F4F574E45520000000000000000000000000000000000000000000000 PUSH1 0x0 DUP3 ADD MSTORE POP JUMP JUMPDEST PUSH1 0x0 PUSH2 0x3839 PUSH1 0x9 DUP4 PUSH2 0x2912 JUMP JUMPDEST SWAP2 POP PUSH2 0x3844 DUP3 PUSH2 0x3803 JUMP JUMPDEST PUSH1 0x20 DUP3 ADD SWAP1 POP SWAP2 SWAP1 POP JUMP JUMPDEST PUSH1 0x0 PUSH1 0x20 DUP3 ADD SWAP1 POP DUP2 DUP2 SUB PUSH1 0x0 DUP4 ADD MSTORE PUSH2 0x3868 DUP2 PUSH2 0x382C JUMP JUMPDEST SWAP1 POP SWAP2 SWAP1 POP JUMP JUMPDEST PUSH1 0x0 DUP2 SWAP1 POP SWAP3 SWAP2 POP POP JUMP JUMPDEST POP JUMP JUMPDEST PUSH1 0x0 PUSH2 0x388A PUSH1 0x0 DUP4 PUSH2 0x386F JUMP JUMPDEST SWAP2 POP PUSH2 0x3895 DUP3 PUSH2 0x387A JUMP JUMPDEST PUSH1 0x0 DUP3 ADD SWAP1 POP SWAP2 SWAP1 POP JUMP JUMPDEST PUSH1 0x0 PUSH2 0x38AB DUP3 PUSH2 0x387D JUMP JUMPDEST SWAP2 POP DUP2 SWAP1 POP SWAP2 SWAP1 POP JUMP JUMPDEST PUSH32 0x4552433732313A2062616C616E636520717565727920666F7220746865207A65 PUSH1 0x0 DUP3 ADD MSTORE PUSH32 0x726F206164647265737300000000000000000000000000000000000000000000 PUSH1 0x20 DUP3 ADD MSTORE POP JUMP JUMPDEST PUSH1 0x0 PUSH2 0x3911 PUSH1 0x2A DUP4 PUSH2 0x2912 JUMP JUMPDEST SWAP2 POP PUSH2 0x391C DUP3 PUSH2 0x38B5 JUMP JUMPDEST PUSH1 0x40 DUP3 ADD SWAP1 POP SWAP2 SWAP1 POP JUMP JUMPDEST PUSH1 0x0 PUSH1 0x20 DUP3 ADD SWAP1 POP DUP2 DUP2 SUB PUSH1 0x0 DUP4 ADD MSTORE PUSH2 0x3940 DUP2 PUSH2 0x3904 JUMP JUMPDEST SWAP1 POP SWAP2 SWAP1 POP JUMP JUMPDEST PUSH1 0x0 DUP2 SWAP1 POP SWAP2 SWAP1 POP JUMP JUMPDEST PUSH2 0x3962 PUSH2 0x395D DUP3 PUSH2 0x29C2 JUMP JUMPDEST PUSH2 0x3947 JUMP JUMPDEST DUP3 MSTORE POP POP JUMP JUMPDEST PUSH1 0x0 PUSH2 0x3974 DUP3 DUP6 PUSH2 0x3951 JUMP JUMPDEST PUSH1 0x20 DUP3 ADD SWAP2 POP PUSH2 0x3984 DUP3 DUP5 PUSH2 0x34E8 JUMP JUMPDEST PUSH1 0x14 DUP3 ADD SWAP2 POP DUP2 SWAP1 POP SWAP4 SWAP3 POP POP POP JUMP JUMPDEST PUSH32 0x4552433732313A20617070726F766520746F2063616C6C657200000000000000 PUSH1 0x0 DUP3 ADD MSTORE POP JUMP JUMPDEST PUSH1 0x0 PUSH2 0x39CA PUSH1 0x19 DUP4 PUSH2 0x2912 JUMP JUMPDEST SWAP2 POP PUSH2 0x39D5 DUP3 PUSH2 0x3994 JUMP JUMPDEST PUSH1 0x20 DUP3 ADD SWAP1 POP SWAP2 SWAP1 POP JUMP JUMPDEST PUSH1 0x0 PUSH1 0x20 DUP3 ADD SWAP1 POP DUP2 DUP2 SUB PUSH1 0x0 DUP4 ADD MSTORE PUSH2 0x39F9 DUP2 PUSH2 0x39BD JUMP JUMPDEST SWAP1 POP SWAP2 SWAP1 POP JUMP JUMPDEST PUSH32 0x4552433732314D657461646174613A2055524920717565727920666F72206E6F PUSH1 0x0 DUP3 ADD MSTORE PUSH32 0x6E6578697374656E7420746F6B656E0000000000000000000000000000000000 PUSH1 0x20 DUP3 ADD MSTORE POP JUMP JUMPDEST PUSH1 0x0 PUSH2 0x3A5C PUSH1 0x2F DUP4 PUSH2 0x2912 JUMP JUMPDEST SWAP2 POP PUSH2 0x3A67 DUP3 PUSH2 0x3A00 JUMP JUMPDEST PUSH1 0x40 DUP3 ADD SWAP1 POP SWAP2 SWAP1 POP JUMP JUMPDEST PUSH1 0x0 PUSH1 0x20 DUP3 ADD SWAP1 POP DUP2 DUP2 SUB PUSH1 0x0 DUP4 ADD MSTORE PUSH2 0x3A8B DUP2 PUSH2 0x3A4F JUMP JUMPDEST SWAP1 POP SWAP2 SWAP1 POP JUMP JUMPDEST PUSH1 0x0 DUP2 SWAP1 POP SWAP3 SWAP2 POP POP JUMP JUMPDEST PUSH32 0x7B226E616D65223A220000000000000000000000000000000000000000000000 PUSH1 0x0 DUP3 ADD MSTORE POP JUMP JUMPDEST PUSH1 0x0 PUSH2 0x3AD3 PUSH1 0x9 DUP4 PUSH2 0x3A92 JUMP JUMPDEST SWAP2 POP PUSH2 0x3ADE DUP3 PUSH2 0x3A9D JUMP JUMPDEST PUSH1 0x9 DUP3 ADD SWAP1 POP SWAP2 SWAP1 POP JUMP JUMPDEST PUSH1 0x0 PUSH2 0x3AF4 DUP3 PUSH2 0x2907 JUMP JUMPDEST PUSH2 0x3AFE DUP2 DUP6 PUSH2 0x3A92 JUMP JUMPDEST SWAP4 POP PUSH2 0x3B0E DUP2 DUP6 PUSH1 0x20 DUP7 ADD PUSH2 0x2923 JUMP JUMPDEST DUP1 DUP5 ADD SWAP2 POP POP SWAP3 SWAP2 POP POP JUMP JUMPDEST PUSH32 0x222C20226465736372697074696F6E223A220000000000000000000000000000 PUSH1 0x0 DUP3 ADD MSTORE POP JUMP JUMPDEST PUSH1 0x0 PUSH2 0x3B50 PUSH1 0x12 DUP4 PUSH2 0x3A92 JUMP JUMPDEST SWAP2 POP PUSH2 0x3B5B DUP3 PUSH2 0x3B1A JUMP JUMPDEST PUSH1 0x12 DUP3 ADD SWAP1 POP SWAP2 SWAP1 POP JUMP JUMPDEST PUSH32 0x222C2022696D616765223A202200000000000000000000000000000000000000 PUSH1 0x0 DUP3 ADD MSTORE POP JUMP JUMPDEST PUSH1 0x0 PUSH2 0x3B9C PUSH1 0xD DUP4 PUSH2 0x3A92 JUMP JUMPDEST SWAP2 POP PUSH2 0x3BA7 DUP3 PUSH2 0x3B66 JUMP JUMPDEST PUSH1 0xD DUP3 ADD SWAP1 POP SWAP2 SWAP1 POP JUMP JUMPDEST PUSH32 0x646174613A696D6167652F7376672B786D6C3B6261736536342C000000000000 PUSH1 0x0 DUP3 ADD MSTORE POP JUMP JUMPDEST PUSH1 0x0 PUSH2 0x3BE8 PUSH1 0x1A DUP4 PUSH2 0x3A92 JUMP JUMPDEST SWAP2 POP PUSH2 0x3BF3 DUP3 PUSH2 0x3BB2 JUMP JUMPDEST PUSH1 0x1A DUP3 ADD SWAP1 POP SWAP2 SWAP1 POP JUMP JUMPDEST PUSH32 0x222C000000000000000000000000000000000000000000000000000000000000 PUSH1 0x0 DUP3 ADD MSTORE POP JUMP JUMPDEST PUSH1 0x0 PUSH2 0x3C34 PUSH1 0x2 DUP4 PUSH2 0x3A92 JUMP JUMPDEST SWAP2 POP PUSH2 0x3C3F DUP3 PUSH2 0x3BFE JUMP JUMPDEST PUSH1 0x2 DUP3 ADD SWAP1 POP SWAP2 SWAP1 POP JUMP JUMPDEST PUSH32 0x7D00000000000000000000000000000000000000000000000000000000000000 PUSH1 0x0 DUP3 ADD MSTORE POP JUMP JUMPDEST PUSH1 0x0 PUSH2 0x3C80 PUSH1 0x1 DUP4 PUSH2 0x3A92 JUMP JUMPDEST SWAP2 POP PUSH2 0x3C8B DUP3 PUSH2 0x3C4A JUMP JUMPDEST PUSH1 0x1 DUP3 ADD SWAP1 POP SWAP2 SWAP1 POP JUMP JUMPDEST PUSH1 0x0 PUSH2 0x3CA1 DUP3 PUSH2 0x3AC6 JUMP JUMPDEST SWAP2 POP PUSH2 0x3CAD DUP3 DUP8 PUSH2 0x3AE9 JUMP JUMPDEST SWAP2 POP PUSH2 0x3CB8 DUP3 PUSH2 0x3B43 JUMP JUMPDEST SWAP2 POP PUSH2 0x3CC4 DUP3 DUP7 PUSH2 0x3AE9 JUMP JUMPDEST SWAP2 POP PUSH2 0x3CCF DUP3 PUSH2 0x3B8F JUMP JUMPDEST SWAP2 POP PUSH2 0x3CDA DUP3 PUSH2 0x3BDB JUMP JUMPDEST SWAP2 POP PUSH2 0x3CE6 DUP3 DUP6 PUSH2 0x3AE9 JUMP JUMPDEST SWAP2 POP PUSH2 0x3CF1 DUP3 PUSH2 0x3C27 JUMP JUMPDEST SWAP2 POP PUSH2 0x3CFD DUP3 DUP5 PUSH2 0x3AE9 JUMP JUMPDEST SWAP2 POP PUSH2 0x3D08 DUP3 PUSH2 0x3C73 JUMP JUMPDEST SWAP2 POP DUP2 SWAP1 POP SWAP6 SWAP5 POP POP POP POP POP JUMP JUMPDEST PUSH32 0x646174613A6170706C69636174696F6E2F6A736F6E3B6261736536342C000000 PUSH1 0x0 DUP3 ADD MSTORE POP JUMP JUMPDEST PUSH1 0x0 PUSH2 0x3D4C PUSH1 0x1D DUP4 PUSH2 0x3A92 JUMP JUMPDEST SWAP2 POP PUSH2 0x3D57 DUP3 PUSH2 0x3D16 JUMP JUMPDEST PUSH1 0x1D DUP3 ADD SWAP1 POP SWAP2 SWAP1 POP JUMP JUMPDEST PUSH1 0x0 PUSH2 0x3D6D DUP3 PUSH2 0x3D3F JUMP JUMPDEST SWAP2 POP PUSH2 0x3D79 DUP3 DUP5 PUSH2 0x3AE9 JUMP JUMPDEST SWAP2 POP DUP2 SWAP1 POP SWAP3 SWAP2 POP POP JUMP JUMPDEST PUSH32 0x4552433732313A206D696E7420746F20746865207A65726F2061646472657373 PUSH1 0x0 DUP3 ADD MSTORE POP JUMP JUMPDEST PUSH1 0x0 PUSH2 0x3DBA PUSH1 0x20 DUP4 PUSH2 0x2912 JUMP JUMPDEST SWAP2 POP PUSH2 0x3DC5 DUP3 PUSH2 0x3D84 JUMP JUMPDEST PUSH1 0x20 DUP3 ADD SWAP1 POP SWAP2 SWAP1 POP JUMP JUMPDEST PUSH1 0x0 PUSH1 0x20 DUP3 ADD SWAP1 POP DUP2 DUP2 SUB PUSH1 0x0 DUP4 ADD MSTORE PUSH2 0x3DE9 DUP2 PUSH2 0x3DAD JUMP JUMPDEST SWAP1 POP SWAP2 SWAP1 POP JUMP JUMPDEST PUSH32 0x4552433732313A20746F6B656E20616C7265616479206D696E74656400000000 PUSH1 0x0 DUP3 ADD MSTORE POP JUMP JUMPDEST PUSH1 0x0 PUSH2 0x3E26 PUSH1 0x1C DUP4 PUSH2 0x2912 JUMP JUMPDEST SWAP2 POP PUSH2 0x3E31 DUP3 PUSH2 0x3DF0 JUMP JUMPDEST PUSH1 0x20 DUP3 ADD SWAP1 POP SWAP2 SWAP1 POP JUMP JUMPDEST PUSH1 0x0 PUSH1 0x20 DUP3 ADD SWAP1 POP DUP2 DUP2 SUB PUSH1 0x0 DUP4 ADD MSTORE PUSH2 0x3E55 DUP2 PUSH2 0x3E19 JUMP JUMPDEST SWAP1 POP SWAP2 SWAP1 POP JUMP JUMPDEST PUSH32 0x4E4F545F53544152544544000000000000000000000000000000000000000000 PUSH1 0x0 DUP3 ADD MSTORE POP JUMP JUMPDEST PUSH1 0x0 PUSH2 0x3E92 PUSH1 0xB DUP4 PUSH2 0x2912 JUMP JUMPDEST SWAP2 POP PUSH2 0x3E9D DUP3 PUSH2 0x3E5C JUMP JUMPDEST PUSH1 0x20 DUP3 ADD SWAP1 POP SWAP2 SWAP1 POP JUMP JUMPDEST PUSH1 0x0 PUSH1 0x20 DUP3 ADD SWAP1 POP DUP2 DUP2 SUB PUSH1 0x0 DUP4 ADD MSTORE PUSH2 0x3EC1 DUP2 PUSH2 0x3E85 JUMP JUMPDEST SWAP1 POP SWAP2 SWAP1 POP JUMP JUMPDEST PUSH32 0x454E444544000000000000000000000000000000000000000000000000000000 PUSH1 0x0 DUP3 ADD MSTORE POP JUMP JUMPDEST PUSH1 0x0 PUSH2 0x3EFE PUSH1 0x5 DUP4 PUSH2 0x2912 JUMP JUMPDEST SWAP2 POP PUSH2 0x3F09 DUP3 PUSH2 0x3EC8 JUMP JUMPDEST PUSH1 0x20 DUP3 ADD SWAP1 POP SWAP2 SWAP1 POP JUMP JUMPDEST PUSH1 0x0 PUSH1 0x20 DUP3 ADD SWAP1 POP DUP2 DUP2 SUB PUSH1 0x0 DUP4 ADD MSTORE PUSH2 0x3F2D DUP2 PUSH2 0x3EF1 JUMP JUMPDEST SWAP1 POP SWAP2 SWAP1 POP JUMP JUMPDEST PUSH32 0x4552433732313A206F70657261746F7220717565727920666F72206E6F6E6578 PUSH1 0x0 DUP3 ADD MSTORE PUSH32 0x697374656E7420746F6B656E0000000000000000000000000000000000000000 PUSH1 0x20 DUP3 ADD MSTORE POP JUMP JUMPDEST PUSH1 0x0 PUSH2 0x3F90 PUSH1 0x2C DUP4 PUSH2 0x2912 JUMP JUMPDEST SWAP2 POP PUSH2 0x3F9B DUP3 PUSH2 0x3F34 JUMP JUMPDEST PUSH1 0x40 DUP3 ADD SWAP1 POP SWAP2 SWAP1 POP JUMP JUMPDEST PUSH1 0x0 PUSH1 0x20 DUP3 ADD SWAP1 POP DUP2 DUP2 SUB PUSH1 0x0 DUP4 ADD MSTORE PUSH2 0x3FBF DUP2 PUSH2 0x3F83 JUMP JUMPDEST SWAP1 POP SWAP2 SWAP1 POP JUMP JUMPDEST PUSH32 0x4552433732313A207472616E73666572206F6620746F6B656E20746861742069 PUSH1 0x0 DUP3 ADD MSTORE PUSH32 0x73206E6F74206F776E0000000000000000000000000000000000000000000000 PUSH1 0x20 DUP3 ADD MSTORE POP JUMP JUMPDEST PUSH1 0x0 PUSH2 0x4022 PUSH1 0x29 DUP4 PUSH2 0x2912 JUMP JUMPDEST SWAP2 POP PUSH2 0x402D DUP3 PUSH2 0x3FC6 JUMP JUMPDEST PUSH1 0x40 DUP3 ADD SWAP1 POP SWAP2 SWAP1 POP JUMP JUMPDEST PUSH1 0x0 PUSH1 0x20 DUP3 ADD SWAP1 POP DUP2 DUP2 SUB PUSH1 0x0 DUP4 ADD MSTORE PUSH2 0x4051 DUP2 PUSH2 0x4015 JUMP JUMPDEST SWAP1 POP SWAP2 SWAP1 POP JUMP JUMPDEST PUSH32 0x4552433732313A207472616E7366657220746F20746865207A65726F20616464 PUSH1 0x0 DUP3 ADD MSTORE PUSH32 0x7265737300000000000000000000000000000000000000000000000000000000 PUSH1 0x20 DUP3 ADD MSTORE POP JUMP JUMPDEST PUSH1 0x0 PUSH2 0x40B4 PUSH1 0x24 DUP4 PUSH2 0x2912 JUMP JUMPDEST SWAP2 POP PUSH2 0x40BF DUP3 PUSH2 0x4058 JUMP JUMPDEST PUSH1 0x40 DUP3 ADD SWAP1 POP SWAP2 SWAP1 POP JUMP JUMPDEST PUSH1 0x0 PUSH1 0x20 DUP3 ADD SWAP1 POP DUP2 DUP2 SUB PUSH1 0x0 DUP4 ADD MSTORE PUSH2 0x40E3 DUP2 PUSH2 0x40A7 JUMP JUMPDEST SWAP1 POP SWAP2 SWAP1 POP JUMP JUMPDEST PUSH1 0x0 PUSH2 0x40F5 DUP3 PUSH2 0x29C2 JUMP JUMPDEST SWAP2 POP PUSH2 0x4100 DUP4 PUSH2 0x29C2 JUMP JUMPDEST SWAP3 POP DUP3 DUP3 LT ISZERO PUSH2 0x4113 JUMPI PUSH2 0x4112 PUSH2 0x335A JUMP JUMPDEST JUMPDEST DUP3 DUP3 SUB SWAP1 POP SWAP3 SWAP2 POP POP JUMP JUMPDEST PUSH32 0x4E487B7100000000000000000000000000000000000000000000000000000000 PUSH1 0x0 MSTORE PUSH1 0x12 PUSH1 0x4 MSTORE PUSH1 0x24 PUSH1 0x0 REVERT JUMPDEST PUSH1 0x0 PUSH2 0x4158 DUP3 PUSH2 0x29C2 JUMP JUMPDEST SWAP2 POP PUSH2 0x4163 DUP4 PUSH2 0x29C2 JUMP JUMPDEST SWAP3 POP DUP3 PUSH2 0x4173 JUMPI PUSH2 0x4172 PUSH2 0x411E JUMP JUMPDEST JUMPDEST DUP3 DUP3 DIV SWAP1 POP SWAP3 SWAP2 POP POP JUMP JUMPDEST PUSH1 0x0 PUSH2 0x4189 DUP3 PUSH2 0x29C2 JUMP JUMPDEST SWAP2 POP PUSH2 0x4194 DUP4 PUSH2 0x29C2 JUMP JUMPDEST SWAP3 POP DUP2 PUSH32 0xFFFFFFFFFFFFFFFFFFFFFFFFFFFFFFFFFFFFFFFFFFFFFFFFFFFFFFFFFFFFFFFF DIV DUP4 GT DUP3 ISZERO ISZERO AND ISZERO PUSH2 0x41CD JUMPI PUSH2 0x41CC PUSH2 0x335A JUMP JUMPDEST JUMPDEST DUP3 DUP3 MUL SWAP1 POP SWAP3 SWAP2 POP POP JUMP JUMPDEST PUSH32 0x4552433732313A207472616E7366657220746F206E6F6E204552433732315265 PUSH1 0x0 DUP3 ADD MSTORE PUSH32 0x63656976657220696D706C656D656E7465720000000000000000000000000000 PUSH1 0x20 DUP3 ADD MSTORE POP JUMP JUMPDEST PUSH1 0x0 PUSH2 0x4234 PUSH1 0x32 DUP4 PUSH2 0x2912 JUMP JUMPDEST SWAP2 POP PUSH2 0x423F DUP3 PUSH2 0x41D8 JUMP JUMPDEST PUSH1 0x40 DUP3 ADD SWAP1 POP SWAP2 SWAP1 POP JUMP JUMPDEST PUSH1 0x0 PUSH1 0x20 DUP3 ADD SWAP1 POP DUP2 DUP2 SUB PUSH1 0x0 DUP4 ADD MSTORE PUSH2 0x4263 DUP2 PUSH2 0x4227 JUMP JUMPDEST SWAP1 POP SWAP2 SWAP1 POP JUMP JUMPDEST PUSH32 0x4E487B7100000000000000000000000000000000000000000000000000000000 PUSH1 0x0 MSTORE PUSH1 0x32 PUSH1 0x4 MSTORE PUSH1 0x24 PUSH1 0x0 REVERT JUMPDEST PUSH1 0x0 DUP2 SWAP1 POP SWAP2 SWAP1 POP JUMP JUMPDEST PUSH2 0x42B4 PUSH2 0x42AF DUP3 PUSH2 0x2CE5 JUMP JUMPDEST PUSH2 0x4299 JUMP JUMPDEST DUP3 MSTORE POP POP JUMP JUMPDEST PUSH1 0x0 PUSH2 0x42C6 DUP3 DUP6 PUSH2 0x42A3 JUMP JUMPDEST PUSH1 0x20 DUP3 ADD SWAP2 POP PUSH2 0x42D6 DUP3 DUP5 PUSH2 0x42A3 JUMP JUMPDEST PUSH1 0x20 DUP3 ADD SWAP2 POP DUP2 SWAP1 POP SWAP4 SWAP3 POP POP POP JUMP JUMPDEST PUSH1 0x0 PUSH2 0x42F1 DUP3 PUSH2 0x29C2 JUMP JUMPDEST SWAP2 POP PUSH32 0xFFFFFFFFFFFFFFFFFFFFFFFFFFFFFFFFFFFFFFFFFFFFFFFFFFFFFFFFFFFFFFFF DUP3 EQ ISZERO PUSH2 0x4324 JUMPI PUSH2 0x4323 PUSH2 0x335A JUMP JUMPDEST JUMPDEST PUSH1 0x1 DUP3 ADD SWAP1 POP SWAP2 SWAP1 POP JUMP JUMPDEST PUSH1 0x0 DUP2 MLOAD SWAP1 POP SWAP2 SWAP1 POP JUMP JUMPDEST PUSH1 0x0 DUP3 DUP3 MSTORE PUSH1 0x20 DUP3 ADD SWAP1 POP SWAP3 SWAP2 POP POP JUMP JUMPDEST PUSH1 0x0 PUSH2 0x4356 DUP3 PUSH2 0x432F JUMP JUMPDEST PUSH2 0x4360 DUP2 DUP6 PUSH2 0x433A JUMP JUMPDEST SWAP4 POP PUSH2 0x4370 DUP2 DUP6 PUSH1 0x20 DUP7 ADD PUSH2 0x2923 JUMP JUMPDEST PUSH2 0x4379 DUP2 PUSH2 0x2956 JUMP JUMPDEST DUP5 ADD SWAP2 POP POP SWAP3 SWAP2 POP POP JUMP JUMPDEST PUSH1 0x0 PUSH1 0x80 DUP3 ADD SWAP1 POP PUSH2 0x4399 PUSH1 0x0 DUP4 ADD DUP8 PUSH2 0x2A57 JUMP JUMPDEST PUSH2 0x43A6 PUSH1 0x20 DUP4 ADD DUP7 PUSH2 0x2A57 JUMP JUMPDEST PUSH2 0x43B3 PUSH1 0x40 DUP4 ADD DUP6 PUSH2 0x2AED JUMP JUMPDEST DUP2 DUP2 SUB PUSH1 0x60 DUP4 ADD MSTORE PUSH2 0x43C5 DUP2 DUP5 PUSH2 0x434B JUMP JUMPDEST SWAP1 POP SWAP6 SWAP5 POP POP POP POP POP JUMP JUMPDEST PUSH1 0x0 DUP2 MLOAD SWAP1 POP PUSH2 0x43DF DUP2 PUSH2 0x2878 JUMP JUMPDEST SWAP3 SWAP2 POP POP JUMP JUMPDEST PUSH1 0x0 PUSH1 0x20 DUP3 DUP5 SUB SLT ISZERO PUSH2 0x43FB JUMPI PUSH2 0x43FA PUSH2 0x2842 JUMP JUMPDEST JUMPDEST PUSH1 0x0 PUSH2 0x4409 DUP5 DUP3 DUP6 ADD PUSH2 0x43D0 JUMP JUMPDEST SWAP2 POP POP SWAP3 SWAP2 POP POP JUMP INVALID COINBASE TIMESTAMP NUMBER DIFFICULTY GASLIMIT CHAINID SELFBALANCE BASEFEE 0x49 0x4A 0x4B 0x4C 0x4D 0x4E 0x4F POP MLOAD MSTORE MSTORE8 SLOAD SSTORE JUMP JUMPI PC MSIZE GAS PUSH2 0x6263 PUSH5 0x6566676869 PUSH11 0x6B6C6D6E6F707172737475 PUSH23 0x7778797A303132333435363738392B2FA2646970667358 0x22 SLT KECCAK256 0xDF GASLIMIT SWAP7 0x49 MSIZE 0x26 PUSH6 0x391EA2D998A7 MSTORE INVALID PUSH15 0xC5E319D38B22F10A6AE5E782BEFA10 PUSH21 0x64736F6C634300080C003360806040523480156100 LT JUMPI PUSH1 0x0 DUP1 REVERT JUMPDEST POP PUSH2 0x33E3 DUP1 PUSH2 0x20 PUSH1 0x0 CODECOPY PUSH1 0x0 RETURN INVALID PUSH1 0x80 PUSH1 0x40 MSTORE CALLVALUE DUP1 ISZERO PUSH2 0x10 JUMPI PUSH1 0x0 DUP1 REVERT JUMPDEST POP PUSH1 0x4 CALLDATASIZE LT PUSH2 0x7D JUMPI PUSH1 0x0 CALLDATALOAD PUSH1 0xE0 SHR DUP1 PUSH4 0x54353F2F GT PUSH2 0x5B JUMPI DUP1 PUSH4 0x54353F2F EQ PUSH2 0x112 JUMPI DUP1 PUSH4 0x594BF5AD EQ PUSH2 0x130 JUMPI DUP1 PUSH4 0x5A312A3D EQ PUSH2 0x160 JUMPI DUP1 PUSH4 0xEFFAAF6A EQ PUSH2 0x17E JUMPI PUSH2 0x7D JUMP JUMPDEST DUP1 PUSH4 0x192A0A1F EQ PUSH2 0x82 JUMPI DUP1 PUSH4 0x2581D8B3 EQ PUSH2 0xB2 JUMPI DUP1 PUSH4 0x37EE03EC EQ PUSH2 0xE2 JUMPI JUMPDEST PUSH1 0x0 DUP1 REVERT JUMPDEST PUSH2 0x9C PUSH1 0x4 DUP1 CALLDATASIZE SUB DUP2 ADD SWAP1 PUSH2 0x97 SWAP2 SWAP1 PUSH2 0x161E JUMP JUMPDEST PUSH2 0x1AE JUMP JUMPDEST PUSH1 0x40 MLOAD PUSH2 0xA9 SWAP2 SWAP1 PUSH2 0x16E4 JUMP JUMPDEST PUSH1 0x40 MLOAD DUP1 SWAP2 SUB SWAP1 RETURN JUMPDEST PUSH2 0xCC PUSH1 0x4 DUP1 CALLDATASIZE SUB DUP2 ADD SWAP1 PUSH2 0xC7 SWAP2 SWAP1 PUSH2 0x1873 JUMP JUMPDEST PUSH2 0x1EB JUMP JUMPDEST PUSH1 0x40 MLOAD PUSH2 0xD9 SWAP2 SWAP1 PUSH2 0x16E4 JUMP JUMPDEST PUSH1 0x40 MLOAD DUP1 SWAP2 SUB SWAP1 RETURN JUMPDEST PUSH2 0xFC PUSH1 0x4 DUP1 CALLDATASIZE SUB DUP2 ADD SWAP1 PUSH2 0xF7 SWAP2 SWAP1 PUSH2 0x18CF JUMP JUMPDEST PUSH2 0x388 JUMP JUMPDEST PUSH1 0x40 MLOAD PUSH2 0x109 SWAP2 SWAP1 PUSH2 0x16E4 JUMP JUMPDEST PUSH1 0x40 MLOAD DUP1 SWAP2 SUB SWAP1 RETURN JUMPDEST PUSH2 0x11A PUSH2 0x538 JUMP JUMPDEST PUSH1 0x40 MLOAD PUSH2 0x127 SWAP2 SWAP1 PUSH2 0x16E4 JUMP JUMPDEST PUSH1 0x40 MLOAD DUP1 SWAP2 SUB SWAP1 RETURN JUMPDEST PUSH2 0x14A PUSH1 0x4 DUP1 CALLDATASIZE SUB DUP2 ADD SWAP1 PUSH2 0x145 SWAP2 SWAP1 PUSH2 0x1A84 JUMP JUMPDEST PUSH2 0x579 JUMP JUMPDEST PUSH1 0x40 MLOAD PUSH2 0x157 SWAP2 SWAP1 PUSH2 0x16E4 JUMP JUMPDEST PUSH1 0x40 MLOAD DUP1 SWAP2 SUB SWAP1 RETURN JUMPDEST PUSH2 0x168 PUSH2 0x626 JUMP JUMPDEST PUSH1 0x40 MLOAD PUSH2 0x175 SWAP2 SWAP1 PUSH2 0x16E4 JUMP JUMPDEST PUSH1 0x40 MLOAD DUP1 SWAP2 SUB SWAP1 RETURN JUMPDEST PUSH2 0x198 PUSH1 0x4 DUP1 CALLDATASIZE SUB DUP2 ADD SWAP1 PUSH2 0x193 SWAP2 SWAP1 PUSH2 0x18CF JUMP JUMPDEST PUSH2 0x64C JUMP JUMPDEST PUSH1 0x40 MLOAD PUSH2 0x1A5 SWAP2 SWAP1 PUSH2 0x16E4 JUMP JUMPDEST PUSH1 0x40 MLOAD DUP1 SWAP2 SUB SWAP1 RETURN JUMPDEST PUSH1 0x60 PUSH2 0x1C5 PUSH2 0x1BC DUP4 PUSH2 0x660 JUMP JUMPDEST PUSH1 0x0 PUSH1 0x8 PUSH2 0x7E9 JUMP JUMPDEST PUSH1 0x40 MLOAD PUSH1 0x20 ADD PUSH2 0x1D5 SWAP2 SWAP1 PUSH2 0x1BB3 JUMP JUMPDEST PUSH1 0x40 MLOAD PUSH1 0x20 DUP2 DUP4 SUB SUB DUP2 MSTORE SWAP1 PUSH1 0x40 MSTORE SWAP1 POP SWAP2 SWAP1 POP JUMP JUMPDEST PUSH1 0x60 DUP1 PUSH1 0x0 JUMPDEST PUSH1 0x14 DUP2 LT ISZERO PUSH2 0x37D JUMPI PUSH1 0x0 PUSH2 0x206 DUP7 DUP4 PUSH2 0x8E5 JUMP JUMPDEST SWAP1 POP PUSH1 0x0 PUSH2 0x220 DUP8 PUSH1 0x1 DUP6 PUSH2 0x21B SWAP2 SWAP1 PUSH2 0x1C04 JUMP JUMPDEST PUSH2 0x908 JUMP JUMPDEST SWAP1 POP PUSH1 0x12 DUP4 EQ ISZERO PUSH2 0x252 JUMPI DUP4 PUSH1 0x40 MLOAD PUSH1 0x20 ADD PUSH2 0x23C SWAP2 SWAP1 PUSH2 0x1C80 JUMP JUMPDEST PUSH1 0x40 MLOAD PUSH1 0x20 DUP2 DUP4 SUB SUB DUP2 MSTORE SWAP1 PUSH1 0x40 MSTORE SWAP4 POP PUSH2 0x367 JUMP JUMPDEST PUSH1 0x13 DUP4 EQ ISZERO PUSH2 0x282 JUMPI DUP4 PUSH1 0x40 MLOAD PUSH1 0x20 ADD PUSH2 0x26C SWAP2 SWAP1 PUSH2 0x1CCC JUMP JUMPDEST PUSH1 0x40 MLOAD PUSH1 0x20 DUP2 DUP4 SUB SUB DUP2 MSTORE SWAP1 PUSH1 0x40 MSTORE SWAP4 POP PUSH2 0x366 JUMP JUMPDEST PUSH1 0x4 DUP4 EQ DUP1 PUSH2 0x291 JUMPI POP PUSH1 0x9 DUP4 EQ JUMPDEST DUP1 PUSH2 0x29C JUMPI POP PUSH1 0xE DUP4 EQ JUMPDEST ISZERO PUSH2 0x2FD JUMPI PUSH1 0x1 ISZERO ISZERO DUP7 ISZERO ISZERO EQ ISZERO PUSH2 0x2D5 JUMPI DUP4 PUSH1 0x40 MLOAD PUSH1 0x20 ADD PUSH2 0x2BF SWAP2 SWAP1 PUSH2 0x1C80 JUMP JUMPDEST PUSH1 0x40 MLOAD PUSH1 0x20 DUP2 DUP4 SUB SUB DUP2 MSTORE SWAP1 PUSH1 0x40 MSTORE SWAP4 POP PUSH2 0x2F8 JUMP JUMPDEST DUP4 PUSH1 0x40 MLOAD PUSH1 0x20 ADD PUSH2 0x2E6 SWAP2 SWAP1 PUSH2 0x1CCC JUMP JUMPDEST PUSH1 0x40 MLOAD PUSH1 0x20 DUP2 DUP4 SUB SUB DUP2 MSTORE SWAP1 PUSH1 0x40 MSTORE SWAP4 POP JUMPDEST PUSH2 0x365 JUMP JUMPDEST PUSH1 0x80 DUP2 LT ISZERO PUSH2 0x337 JUMPI DUP4 PUSH2 0x310 DUP4 PUSH2 0x660 JUMP JUMPDEST PUSH1 0x40 MLOAD PUSH1 0x20 ADD PUSH2 0x321 SWAP3 SWAP2 SWAP1 PUSH2 0x1D18 JUMP JUMPDEST PUSH1 0x40 MLOAD PUSH1 0x20 DUP2 DUP4 SUB SUB DUP2 MSTORE SWAP1 PUSH1 0x40 MSTORE SWAP4 POP PUSH2 0x364 JUMP JUMPDEST DUP4 PUSH2 0x341 DUP4 PUSH2 0x660 JUMP JUMPDEST PUSH1 0x40 MLOAD PUSH1 0x20 ADD PUSH2 0x352 SWAP3 SWAP2 SWAP1 PUSH2 0x1D71 JUMP JUMPDEST PUSH1 0x40 MLOAD PUSH1 0x20 DUP2 DUP4 SUB SUB DUP2 MSTORE SWAP1 PUSH1 0x40 MSTORE SWAP4 POP JUMPDEST JUMPDEST JUMPDEST JUMPDEST POP POP PUSH1 0x1 DUP2 PUSH2 0x376 SWAP2 SWAP1 PUSH2 0x1C04 JUMP JUMPDEST SWAP1 POP PUSH2 0x1F1 JUMP JUMPDEST POP DUP1 SWAP2 POP POP SWAP3 SWAP2 POP POP JUMP JUMPDEST PUSH1 0x60 PUSH1 0x0 DUP4 PUSH1 0x0 SHL PUSH1 0x40 MLOAD PUSH1 0x20 ADD PUSH2 0x3A0 SWAP2 SWAP1 PUSH2 0x1DDE JUMP JUMPDEST PUSH1 0x40 MLOAD PUSH1 0x20 DUP2 DUP4 SUB SUB DUP2 MSTORE SWAP1 PUSH1 0x40 MSTORE SWAP1 POP PUSH1 0x60 PUSH1 0x1 ISZERO ISZERO DUP5 ISZERO ISZERO EQ ISZERO PUSH2 0x43B JUMPI PUSH2 0x434 PUSH1 0x40 MLOAD DUP1 PUSH1 0x40 ADD PUSH1 0x40 MSTORE DUP1 PUSH1 0x8 DUP2 MSTORE PUSH1 0x20 ADD PUSH32 0x416E696D61746564000000000000000000000000000000000000000000000000 DUP2 MSTORE POP PUSH1 0x40 MLOAD DUP1 PUSH1 0x40 ADD PUSH1 0x40 MSTORE DUP1 PUSH1 0x4 DUP2 MSTORE PUSH1 0x20 ADD PUSH32 0x5472756500000000000000000000000000000000000000000000000000000000 DUP2 MSTORE POP PUSH2 0x91F JUMP JUMPDEST SWAP1 POP PUSH2 0x4B2 JUMP JUMPDEST PUSH2 0x4AF PUSH1 0x40 MLOAD DUP1 PUSH1 0x40 ADD PUSH1 0x40 MSTORE DUP1 PUSH1 0x8 DUP2 MSTORE PUSH1 0x20 ADD PUSH32 0x416E696D61746564000000000000000000000000000000000000000000000000 DUP2 MSTORE POP PUSH1 0x40 MLOAD DUP1 PUSH1 0x40 ADD PUSH1 0x40 MSTORE DUP1 PUSH1 0x5 DUP2 MSTORE PUSH1 0x20 ADD PUSH32 0x46616C7365000000000000000000000000000000000000000000000000000000 DUP2 MSTORE POP PUSH2 0x91F JUMP JUMPDEST SWAP1 POP JUMPDEST PUSH1 0x0 PUSH2 0x4BD DUP4 PUSH2 0x94B JUMP JUMPDEST SWAP1 POP PUSH1 0x0 PUSH2 0x508 PUSH1 0x40 MLOAD DUP1 PUSH1 0x40 ADD PUSH1 0x40 MSTORE DUP1 PUSH1 0xB DUP2 MSTORE PUSH1 0x20 ADD PUSH32 0x506574616C20436F756E74000000000000000000000000000000000000000000 DUP2 MSTORE POP PUSH2 0x503 DUP5 PUSH2 0x660 JUMP JUMPDEST PUSH2 0x91F JUMP JUMPDEST SWAP1 POP DUP3 DUP2 PUSH1 0x40 MLOAD PUSH1 0x20 ADD PUSH2 0x51D SWAP3 SWAP2 SWAP1 PUSH2 0x1EDD JUMP JUMPDEST PUSH1 0x40 MLOAD PUSH1 0x20 DUP2 DUP4 SUB SUB DUP2 MSTORE SWAP1 PUSH1 0x40 MSTORE SWAP5 POP POP POP POP POP SWAP3 SWAP2 POP POP JUMP JUMPDEST PUSH1 0x60 PUSH1 0x0 GAS PUSH1 0x40 MLOAD PUSH1 0x20 ADD PUSH2 0x54D SWAP2 SWAP1 PUSH2 0x1F43 JUMP JUMPDEST PUSH1 0x40 MLOAD PUSH1 0x20 DUP2 DUP4 SUB SUB DUP2 MSTORE SWAP1 PUSH1 0x40 MSTORE DUP1 MLOAD SWAP1 PUSH1 0x20 ADD KECCAK256 PUSH1 0x0 SHR SWAP1 POP PUSH2 0x573 DUP2 PUSH1 0x1 PUSH2 0x9D3 JUMP JUMPDEST SWAP2 POP POP SWAP1 JUMP JUMPDEST PUSH1 0x60 PUSH1 0x0 PUSH2 0x58E PUSH2 0x589 DUP7 PUSH2 0xA9A JUMP JUMPDEST PUSH2 0x660 JUMP JUMPDEST SWAP1 POP PUSH1 0x0 PUSH2 0x59B DUP7 PUSH2 0xAD7 JUMP JUMPDEST SWAP1 POP PUSH1 0x0 PUSH2 0x5B0 PUSH2 0x5AB DUP9 PUSH2 0xB07 JUMP JUMPDEST PUSH2 0x660 JUMP JUMPDEST SWAP1 POP PUSH1 0x0 PUSH2 0x5BD DUP9 PUSH2 0xB44 JUMP JUMPDEST SWAP1 POP PUSH1 0x0 DUP8 DUP5 PUSH1 0x3 DUP2 LT PUSH2 0x5D4 JUMPI PUSH2 0x5D3 PUSH2 0x1F5E JUMP JUMPDEST JUMPDEST PUSH1 0x20 MUL ADD MLOAD DUP6 DUP9 DUP5 PUSH1 0x3 DUP2 LT PUSH2 0x5ED JUMPI PUSH2 0x5EC PUSH2 0x1F5E JUMP JUMPDEST JUMPDEST PUSH1 0x20 MUL ADD MLOAD DUP6 PUSH1 0x40 MLOAD PUSH1 0x20 ADD PUSH2 0x606 SWAP5 SWAP4 SWAP3 SWAP2 SWAP1 PUSH2 0x1F8D JUMP JUMPDEST PUSH1 0x40 MLOAD PUSH1 0x20 DUP2 DUP4 SUB SUB DUP2 MSTORE SWAP1 PUSH1 0x40 MSTORE SWAP1 POP DUP1 SWAP6 POP POP POP POP POP POP SWAP4 SWAP3 POP POP POP JUMP JUMPDEST PUSH1 0x60 PUSH1 0x0 PUSH1 0x40 MLOAD DUP1 PUSH1 0x60 ADD PUSH1 0x40 MSTORE DUP1 PUSH1 0x22 DUP2 MSTORE PUSH1 0x20 ADD PUSH2 0x32DD PUSH1 0x22 SWAP2 CODECOPY SWAP1 POP DUP1 SWAP2 POP POP SWAP1 JUMP JUMPDEST PUSH1 0x60 PUSH2 0x658 DUP4 DUP4 PUSH2 0x9D3 JUMP JUMPDEST SWAP1 POP SWAP3 SWAP2 POP POP JUMP JUMPDEST PUSH1 0x60 PUSH1 0x0 DUP3 EQ ISZERO PUSH2 0x6A8 JUMPI PUSH1 0x40 MLOAD DUP1 PUSH1 0x40 ADD PUSH1 0x40 MSTORE DUP1 PUSH1 0x1 DUP2 MSTORE PUSH1 0x20 ADD PUSH32 0x3000000000000000000000000000000000000000000000000000000000000000 DUP2 MSTORE POP SWAP1 POP PUSH2 0x7E4 JUMP JUMPDEST PUSH1 0x0 DUP3 SWAP1 POP PUSH1 0x0 JUMPDEST PUSH1 0x0 DUP3 EQ PUSH2 0x6DA JUMPI DUP1 DUP1 PUSH2 0x6C3 SWAP1 PUSH2 0x1FDA JUMP JUMPDEST SWAP2 POP POP PUSH1 0xA DUP3 PUSH2 0x6D3 SWAP2 SWAP1 PUSH2 0x2052 JUMP JUMPDEST SWAP2 POP PUSH2 0x6B0 JUMP JUMPDEST PUSH1 0x0 DUP2 PUSH8 0xFFFFFFFFFFFFFFFF DUP2 GT ISZERO PUSH2 0x6F6 JUMPI PUSH2 0x6F5 PUSH2 0x1710 JUMP JUMPDEST JUMPDEST PUSH1 0x40 MLOAD SWAP1 DUP1 DUP3 MSTORE DUP1 PUSH1 0x1F ADD PUSH1 0x1F NOT AND PUSH1 0x20 ADD DUP3 ADD PUSH1 0x40 MSTORE DUP1 ISZERO PUSH2 0x728 JUMPI DUP2 PUSH1 0x20 ADD PUSH1 0x1 DUP3 MUL DUP1 CALLDATASIZE DUP4 CALLDATACOPY DUP1 DUP3 ADD SWAP2 POP POP SWAP1 POP JUMPDEST POP SWAP1 POP PUSH1 0x0 DUP3 SWAP1 POP JUMPDEST PUSH1 0x0 DUP7 EQ PUSH2 0x7DC JUMPI PUSH1 0x1 DUP2 PUSH2 0x746 SWAP2 SWAP1 PUSH2 0x2083 JUMP JUMPDEST SWAP1 POP PUSH1 0x0 PUSH1 0xA DUP1 DUP9 PUSH2 0x758 SWAP2 SWAP1 PUSH2 0x2052 JUMP JUMPDEST PUSH2 0x762 SWAP2 SWAP1 PUSH2 0x20B7 JUMP JUMPDEST DUP8 PUSH2 0x76D SWAP2 SWAP1 PUSH2 0x2083 JUMP JUMPDEST PUSH1 0x30 PUSH2 0x779 SWAP2 SWAP1 PUSH2 0x211E JUMP JUMPDEST SWAP1 POP PUSH1 0x0 DUP2 PUSH1 0xF8 SHL SWAP1 POP DUP1 DUP5 DUP5 DUP2 MLOAD DUP2 LT PUSH2 0x797 JUMPI PUSH2 0x796 PUSH2 0x1F5E JUMP JUMPDEST JUMPDEST PUSH1 0x20 ADD ADD SWAP1 PUSH31 0xFFFFFFFFFFFFFFFFFFFFFFFFFFFFFFFFFFFFFFFFFFFFFFFFFFFFFFFFFFFFFF NOT AND SWAP1 DUP2 PUSH1 0x0 BYTE SWAP1 MSTORE8 POP PUSH1 0xA DUP9 PUSH2 0x7D3 SWAP2 SWAP1 PUSH2 0x2052 JUMP JUMPDEST SWAP8 POP POP POP PUSH2 0x731 JUMP JUMPDEST DUP2 SWAP5 POP POP POP POP POP JUMPDEST SWAP2 SWAP1 POP JUMP JUMPDEST PUSH1 0x60 PUSH1 0x0 DUP5 SWAP1 POP PUSH1 0x0 DUP5 DUP5 PUSH2 0x7FE SWAP2 SWAP1 PUSH2 0x2083 JUMP JUMPDEST PUSH8 0xFFFFFFFFFFFFFFFF DUP2 GT ISZERO PUSH2 0x817 JUMPI PUSH2 0x816 PUSH2 0x1710 JUMP JUMPDEST JUMPDEST PUSH1 0x40 MLOAD SWAP1 DUP1 DUP3 MSTORE DUP1 PUSH1 0x1F ADD PUSH1 0x1F NOT AND PUSH1 0x20 ADD DUP3 ADD PUSH1 0x40 MSTORE DUP1 ISZERO PUSH2 0x849 JUMPI DUP2 PUSH1 0x20 ADD PUSH1 0x1 DUP3 MUL DUP1 CALLDATASIZE DUP4 CALLDATACOPY DUP1 DUP3 ADD SWAP2 POP POP SWAP1 POP JUMPDEST POP SWAP1 POP PUSH1 0x0 DUP6 SWAP1 POP JUMPDEST DUP5 DUP2 LT ISZERO PUSH2 0x8D8 JUMPI DUP3 DUP2 DUP2 MLOAD DUP2 LT PUSH2 0x86D JUMPI PUSH2 0x86C PUSH2 0x1F5E JUMP JUMPDEST JUMPDEST PUSH1 0x20 ADD ADD MLOAD PUSH1 0xF8 SHR PUSH1 0xF8 SHL DUP3 DUP8 DUP4 PUSH2 0x885 SWAP2 SWAP1 PUSH2 0x2083 JUMP JUMPDEST DUP2 MLOAD DUP2 LT PUSH2 0x896 JUMPI PUSH2 0x895 PUSH2 0x1F5E JUMP JUMPDEST JUMPDEST PUSH1 0x20 ADD ADD SWAP1 PUSH31 0xFFFFFFFFFFFFFFFFFFFFFFFFFFFFFFFFFFFFFFFFFFFFFFFFFFFFFFFFFFFFFF NOT AND SWAP1 DUP2 PUSH1 0x0 BYTE SWAP1 MSTORE8 POP DUP1 DUP1 PUSH2 0x8D0 SWAP1 PUSH2 0x1FDA JUMP JUMPDEST SWAP2 POP POP PUSH2 0x852 JUMP JUMPDEST POP DUP1 SWAP3 POP POP POP SWAP4 SWAP3 POP POP POP JUMP JUMPDEST PUSH1 0x0 PUSH1 0x4 PUSH2 0x8F3 DUP5 DUP5 PUSH2 0xB74 JUMP JUMPDEST PUSH1 0xFF AND PUSH2 0x900 SWAP2 SWAP1 PUSH2 0x2052 JUMP JUMPDEST SWAP1 POP SWAP3 SWAP2 POP POP JUMP JUMPDEST PUSH1 0x0 PUSH2 0x914 DUP4 DUP4 PUSH2 0xB74 JUMP JUMPDEST PUSH1 0xFF AND SWAP1 POP SWAP3 SWAP2 POP POP JUMP JUMPDEST PUSH1 0x60 DUP3 DUP3 PUSH1 0x40 MLOAD PUSH1 0x20 ADD PUSH2 0x934 SWAP3 SWAP2 SWAP1 PUSH2 0x21C7 JUMP JUMPDEST PUSH1 0x40 MLOAD PUSH1 0x20 DUP2 DUP4 SUB SUB DUP2 MSTORE SWAP1 PUSH1 0x40 MSTORE SWAP1 POP SWAP3 SWAP2 POP POP JUMP JUMPDEST PUSH1 0x0 DUP1 PUSH1 0x40 MLOAD DUP1 PUSH1 0xA0 ADD PUSH1 0x40 MSTORE DUP1 PUSH1 0x8 PUSH1 0xFF AND DUP2 MSTORE PUSH1 0x20 ADD PUSH1 0xC PUSH1 0xFF AND DUP2 MSTORE PUSH1 0x20 ADD PUSH1 0x14 PUSH1 0xFF AND DUP2 MSTORE PUSH1 0x20 ADD PUSH1 0x18 PUSH1 0xFF AND DUP2 MSTORE PUSH1 0x20 ADD PUSH1 0x24 PUSH1 0xFF AND DUP2 MSTORE POP SWAP1 POP PUSH1 0x0 PUSH1 0x34 PUSH2 0x99A DUP6 PUSH1 0x0 PUSH2 0xB74 JUMP JUMPDEST PUSH2 0x9A4 SWAP2 SWAP1 PUSH2 0x2218 JUMP JUMPDEST PUSH1 0xFF AND SWAP1 POP PUSH1 0x0 DUP3 DUP3 PUSH1 0x5 DUP2 LT PUSH2 0x9BE JUMPI PUSH2 0x9BD PUSH2 0x1F5E JUMP JUMPDEST JUMPDEST PUSH1 0x20 MUL ADD MLOAD PUSH1 0xFF AND SWAP1 POP DUP1 SWAP4 POP POP POP POP SWAP2 SWAP1 POP JUMP JUMPDEST PUSH1 0x60 PUSH1 0x0 DUP4 PUSH1 0x0 SHL PUSH1 0x40 MLOAD PUSH1 0x20 ADD PUSH2 0x9EB SWAP2 SWAP1 PUSH2 0x1DDE JUMP JUMPDEST PUSH1 0x40 MLOAD PUSH1 0x20 DUP2 DUP4 SUB SUB DUP2 MSTORE SWAP1 PUSH1 0x40 MSTORE SWAP1 POP PUSH1 0x0 PUSH2 0xA07 DUP3 PUSH2 0x94B JUMP JUMPDEST SWAP1 POP PUSH1 0x0 DUP2 PUSH2 0x168 PUSH2 0xA19 SWAP2 SWAP1 PUSH2 0x2052 JUMP JUMPDEST SWAP1 POP PUSH1 0x0 PUSH1 0x40 MLOAD DUP1 PUSH1 0x20 ADD PUSH1 0x40 MSTORE DUP1 PUSH1 0x0 DUP2 MSTORE POP SWAP1 POP PUSH1 0x1 ISZERO ISZERO DUP7 ISZERO ISZERO EQ ISZERO PUSH2 0xA58 JUMPI PUSH1 0x40 MLOAD DUP1 PUSH1 0xE0 ADD PUSH1 0x40 MSTORE DUP1 PUSH1 0xAF DUP2 MSTORE PUSH1 0x20 ADD PUSH2 0x32FF PUSH1 0xAF SWAP2 CODECOPY SWAP1 POP JUMPDEST DUP1 PUSH2 0xA62 DUP6 PUSH2 0xC2A JUMP JUMPDEST PUSH2 0xA6D DUP7 DUP7 DUP7 PUSH2 0xCA5 JUMP JUMPDEST PUSH1 0x40 MLOAD PUSH1 0x20 ADD PUSH2 0xA7F SWAP4 SWAP3 SWAP2 SWAP1 PUSH2 0x24CF JUMP JUMPDEST PUSH1 0x40 MLOAD PUSH1 0x20 DUP2 DUP4 SUB SUB DUP2 MSTORE SWAP1 PUSH1 0x40 MSTORE SWAP5 POP POP POP POP POP SWAP3 SWAP2 POP POP JUMP JUMPDEST PUSH1 0x0 PUSH2 0x100 PUSH2 0x3E8 PUSH2 0xAAD DUP5 PUSH1 0x5 PUSH2 0xB74 JUMP JUMPDEST PUSH1 0xFF AND PUSH2 0xABA SWAP2 SWAP1 PUSH2 0x20B7 JUMP JUMPDEST PUSH2 0xAC4 SWAP2 SWAP1 PUSH2 0x2052 JUMP JUMPDEST PUSH1 0x1 PUSH2 0xAD0 SWAP2 SWAP1 PUSH2 0x1C04 JUMP JUMPDEST SWAP1 POP SWAP2 SWAP1 POP JUMP JUMPDEST PUSH1 0x0 PUSH2 0x100 PUSH1 0x3 PUSH2 0xAE9 DUP5 PUSH1 0x7 PUSH2 0xB74 JUMP JUMPDEST PUSH1 0xFF AND PUSH2 0xAF6 SWAP2 SWAP1 PUSH2 0x20B7 JUMP JUMPDEST PUSH2 0xB00 SWAP2 SWAP1 PUSH2 0x2052 JUMP JUMPDEST SWAP1 POP SWAP2 SWAP1 POP JUMP JUMPDEST PUSH1 0x0 PUSH2 0x100 PUSH2 0x3E8 PUSH2 0xB1A DUP5 PUSH1 0x6 PUSH2 0xB74 JUMP JUMPDEST PUSH1 0xFF AND PUSH2 0xB27 SWAP2 SWAP1 PUSH2 0x20B7 JUMP JUMPDEST PUSH2 0xB31 SWAP2 SWAP1 PUSH2 0x2052 JUMP JUMPDEST PUSH1 0x1 PUSH2 0xB3D SWAP2 SWAP1 PUSH2 0x1C04 JUMP JUMPDEST SWAP1 POP SWAP2 SWAP1 POP JUMP JUMPDEST PUSH1 0x0 PUSH2 0x100 PUSH1 0x3 PUSH2 0xB56 DUP5 PUSH1 0x8 PUSH2 0xB74 JUMP JUMPDEST PUSH1 0xFF AND PUSH2 0xB63 SWAP2 SWAP1 PUSH2 0x20B7 JUMP JUMPDEST PUSH2 0xB6D SWAP2 SWAP1 PUSH2 0x2052 JUMP JUMPDEST SWAP1 POP SWAP2 SWAP1 POP JUMP JUMPDEST PUSH1 0x0 DUP2 PUSH1 0x1 DUP4 PUSH2 0xB84 SWAP2 SWAP1 PUSH2 0x1C04 JUMP JUMPDEST LT ISZERO PUSH2 0xBC5 JUMPI PUSH1 0x40 MLOAD PUSH32 0x8C379A000000000000000000000000000000000000000000000000000000000 DUP2 MSTORE PUSH1 0x4 ADD PUSH2 0xBBC SWAP1 PUSH2 0x259A JUMP JUMPDEST PUSH1 0x40 MLOAD DUP1 SWAP2 SUB SWAP1 REVERT JUMPDEST PUSH1 0x1 DUP3 PUSH2 0xBD2 SWAP2 SWAP1 PUSH2 0x1C04 JUMP JUMPDEST DUP4 MLOAD LT ISZERO PUSH2 0xC15 JUMPI PUSH1 0x40 MLOAD PUSH32 0x8C379A000000000000000000000000000000000000000000000000000000000 DUP2 MSTORE PUSH1 0x4 ADD PUSH2 0xC0C SWAP1 PUSH2 0x2606 JUMP JUMPDEST PUSH1 0x40 MLOAD DUP1 SWAP2 SUB SWAP1 REVERT JUMPDEST PUSH1 0x0 DUP3 PUSH1 0x1 DUP6 ADD ADD MLOAD SWAP1 POP DUP1 SWAP2 POP POP SWAP3 SWAP2 POP POP JUMP JUMPDEST PUSH1 0x60 PUSH1 0x0 PUSH2 0xC39 DUP4 PUSH1 0x1 PUSH2 0xD8E JUMP JUMPDEST SWAP1 POP PUSH1 0x0 PUSH2 0xC48 DUP5 PUSH1 0x0 PUSH2 0xD8E JUMP JUMPDEST SWAP1 POP PUSH1 0x0 PUSH2 0xC55 DUP6 PUSH2 0x1230 JUMP JUMPDEST SWAP1 POP PUSH1 0x0 PUSH2 0xC6E DUP3 PUSH1 0x96 PUSH2 0xC69 SWAP2 SWAP1 PUSH2 0x1C04 JUMP JUMPDEST PUSH2 0x660 JUMP JUMPDEST SWAP1 POP DUP4 DUP4 DUP3 DUP4 DUP5 DUP6 PUSH1 0x40 MLOAD PUSH1 0x20 ADD PUSH2 0xC8B SWAP7 SWAP6 SWAP5 SWAP4 SWAP3 SWAP2 SWAP1 PUSH2 0x2944 JUMP JUMPDEST PUSH1 0x40 MLOAD PUSH1 0x20 DUP2 DUP4 SUB SUB DUP2 MSTORE SWAP1 PUSH1 0x40 MSTORE SWAP5 POP POP POP POP POP SWAP2 SWAP1 POP JUMP JUMPDEST PUSH1 0x60 PUSH1 0x0 PUSH2 0xCBA PUSH2 0xCB5 DUP7 PUSH2 0x1230 JUMP JUMPDEST PUSH2 0x660 JUMP JUMPDEST SWAP1 POP PUSH1 0x0 PUSH2 0xCC7 DUP7 PUSH2 0x125F JUMP JUMPDEST SWAP1 POP PUSH1 0x0 PUSH1 0x2 DUP3 PUSH2 0xCD8 SWAP2 SWAP1 PUSH2 0x20B7 JUMP JUMPDEST SWAP1 POP PUSH1 0x0 PUSH2 0xCE7 DUP9 DUP9 DUP9 PUSH2 0x128E JUMP JUMPDEST SWAP1 POP PUSH1 0x0 DUP5 DUP6 PUSH2 0xD02 DUP7 PUSH1 0x96 PUSH2 0xCFD SWAP2 SWAP1 PUSH2 0x2083 JUMP JUMPDEST PUSH2 0x660 JUMP JUMPDEST PUSH2 0xD17 DUP7 PUSH1 0x96 PUSH2 0xD12 SWAP2 SWAP1 PUSH2 0x2083 JUMP JUMPDEST PUSH2 0x660 JUMP JUMPDEST PUSH2 0xD2C DUP8 PUSH1 0x96 PUSH2 0xD27 SWAP2 SWAP1 PUSH2 0x2083 JUMP JUMPDEST PUSH2 0x660 JUMP JUMPDEST PUSH2 0xD41 DUP10 PUSH1 0x96 PUSH2 0xD3C SWAP2 SWAP1 PUSH2 0x1C04 JUMP JUMPDEST PUSH2 0x660 JUMP JUMPDEST PUSH2 0xD56 DUP10 PUSH1 0x96 PUSH2 0xD51 SWAP2 SWAP1 PUSH2 0x2083 JUMP JUMPDEST PUSH2 0x660 JUMP JUMPDEST DUP9 PUSH1 0x40 MLOAD PUSH1 0x20 ADD PUSH2 0xD6E SWAP9 SWAP8 SWAP7 SWAP6 SWAP5 SWAP4 SWAP3 SWAP2 SWAP1 PUSH2 0x2CA3 JUMP JUMPDEST PUSH1 0x40 MLOAD PUSH1 0x20 DUP2 DUP4 SUB SUB DUP2 MSTORE SWAP1 PUSH1 0x40 MSTORE SWAP1 POP DUP1 SWAP6 POP POP POP POP POP POP SWAP4 SWAP3 POP POP POP JUMP JUMPDEST PUSH1 0x60 PUSH1 0x0 PUSH2 0xF0F DUP5 PUSH1 0x40 MLOAD DUP1 PUSH1 0x60 ADD PUSH1 0x40 MSTORE DUP1 PUSH1 0x40 MLOAD DUP1 PUSH1 0x40 ADD PUSH1 0x40 MSTORE DUP1 PUSH1 0x3 DUP2 MSTORE PUSH1 0x20 ADD PUSH32 0x302E300000000000000000000000000000000000000000000000000000000000 DUP2 MSTORE POP DUP2 MSTORE PUSH1 0x20 ADD PUSH1 0x40 MLOAD DUP1 PUSH1 0x40 ADD PUSH1 0x40 MSTORE DUP1 PUSH1 0x4 DUP2 MSTORE PUSH1 0x20 ADD PUSH32 0x302E303000000000000000000000000000000000000000000000000000000000 DUP2 MSTORE POP DUP2 MSTORE PUSH1 0x20 ADD PUSH1 0x40 MLOAD DUP1 PUSH1 0x40 ADD PUSH1 0x40 MSTORE DUP1 PUSH1 0x4 DUP2 MSTORE PUSH1 0x20 ADD PUSH32 0x302E303000000000000000000000000000000000000000000000000000000000 DUP2 MSTORE POP DUP2 MSTORE POP PUSH1 0x40 MLOAD DUP1 PUSH1 0x60 ADD PUSH1 0x40 MSTORE DUP1 PUSH1 0x40 MLOAD DUP1 PUSH1 0x40 ADD PUSH1 0x40 MSTORE DUP1 PUSH1 0x3 DUP2 MSTORE PUSH1 0x20 ADD PUSH32 0x302E300000000000000000000000000000000000000000000000000000000000 DUP2 MSTORE POP DUP2 MSTORE PUSH1 0x20 ADD PUSH1 0x40 MLOAD DUP1 PUSH1 0x40 ADD PUSH1 0x40 MSTORE DUP1 PUSH1 0x3 DUP2 MSTORE PUSH1 0x20 ADD PUSH32 0x302E300000000000000000000000000000000000000000000000000000000000 DUP2 MSTORE POP DUP2 MSTORE PUSH1 0x20 ADD PUSH1 0x40 MLOAD DUP1 PUSH1 0x40 ADD PUSH1 0x40 MSTORE DUP1 PUSH1 0x3 DUP2 MSTORE PUSH1 0x20 ADD PUSH32 0x302E300000000000000000000000000000000000000000000000000000000000 DUP2 MSTORE POP DUP2 MSTORE POP PUSH2 0x579 JUMP JUMPDEST SWAP1 POP PUSH1 0x0 PUSH2 0xF24 PUSH2 0xF1F DUP7 PUSH2 0x145B JUMP JUMPDEST PUSH2 0x660 JUMP JUMPDEST SWAP1 POP PUSH2 0x1077 PUSH1 0x40 MLOAD DUP1 PUSH1 0x40 ADD PUSH1 0x40 MSTORE DUP1 PUSH1 0xC DUP2 MSTORE PUSH1 0x20 ADD PUSH32 0x666554757262756C656E63650000000000000000000000000000000000000000 DUP2 MSTORE POP PUSH2 0xF9E PUSH1 0x40 MLOAD DUP1 PUSH1 0x40 ADD PUSH1 0x40 MSTORE DUP1 PUSH1 0xD DUP2 MSTORE PUSH1 0x20 ADD PUSH32 0x626173654672657175656E637900000000000000000000000000000000000000 DUP2 MSTORE POP DUP6 PUSH2 0x14A2 JUMP JUMPDEST PUSH2 0xFDD PUSH1 0x40 MLOAD DUP1 PUSH1 0x40 ADD PUSH1 0x40 MSTORE DUP1 PUSH1 0x4 DUP2 MSTORE PUSH1 0x20 ADD PUSH32 0x7365656400000000000000000000000000000000000000000000000000000000 DUP2 MSTORE POP DUP6 PUSH2 0x14A2 JUMP JUMPDEST PUSH2 0x1051 PUSH1 0x40 MLOAD DUP1 PUSH1 0x40 ADD PUSH1 0x40 MSTORE DUP1 PUSH1 0x6 DUP2 MSTORE PUSH1 0x20 ADD PUSH32 0x726573756C740000000000000000000000000000000000000000000000000000 DUP2 MSTORE POP PUSH1 0x40 MLOAD DUP1 PUSH1 0x40 ADD PUSH1 0x40 MSTORE DUP1 PUSH1 0x4 DUP2 MSTORE PUSH1 0x20 ADD PUSH32 0x7475726200000000000000000000000000000000000000000000000000000000 DUP2 MSTORE POP PUSH2 0x14A2 JUMP JUMPDEST PUSH1 0x40 MLOAD PUSH1 0x20 ADD PUSH2 0x1063 SWAP4 SWAP3 SWAP2 SWAP1 PUSH2 0x2DD0 JUMP JUMPDEST PUSH1 0x40 MLOAD PUSH1 0x20 DUP2 DUP4 SUB SUB DUP2 MSTORE SWAP1 PUSH1 0x40 MSTORE PUSH2 0x14CE JUMP JUMPDEST PUSH2 0x1206 PUSH1 0x40 MLOAD DUP1 PUSH1 0x40 ADD PUSH1 0x40 MSTORE DUP1 PUSH1 0xD DUP2 MSTORE PUSH1 0x20 ADD PUSH32 0x6665436F6C6F724D617472697800000000000000000000000000000000000000 DUP2 MSTORE POP PUSH2 0x1124 PUSH1 0x40 MLOAD DUP1 PUSH1 0x40 ADD PUSH1 0x40 MSTORE DUP1 PUSH1 0x2 DUP2 MSTORE PUSH1 0x20 ADD PUSH32 0x696E000000000000000000000000000000000000000000000000000000000000 DUP2 MSTORE POP PUSH1 0x40 MLOAD DUP1 PUSH1 0x40 ADD PUSH1 0x40 MSTORE DUP1 PUSH1 0x4 DUP2 MSTORE PUSH1 0x20 ADD PUSH32 0x7475726200000000000000000000000000000000000000000000000000000000 DUP2 MSTORE POP PUSH2 0x14A2 JUMP JUMPDEST PUSH2 0x116C PUSH1 0x40 MLOAD DUP1 PUSH1 0x40 ADD PUSH1 0x40 MSTORE DUP1 PUSH1 0x6 DUP2 MSTORE PUSH1 0x20 ADD PUSH32 0x76616C7565730000000000000000000000000000000000000000000000000000 DUP2 MSTORE POP PUSH2 0x1167 DUP12 DUP12 PUSH2 0x1EB JUMP JUMPDEST PUSH2 0x14A2 JUMP JUMPDEST PUSH2 0x11E0 PUSH1 0x40 MLOAD DUP1 PUSH1 0x40 ADD PUSH1 0x40 MSTORE DUP1 PUSH1 0x3 DUP2 MSTORE PUSH1 0x20 ADD PUSH32 0x6F75740000000000000000000000000000000000000000000000000000000000 DUP2 MSTORE POP PUSH1 0x40 MLOAD DUP1 PUSH1 0x40 ADD PUSH1 0x40 MSTORE DUP1 PUSH1 0x5 DUP2 MSTORE PUSH1 0x20 ADD PUSH32 0x7475726232000000000000000000000000000000000000000000000000000000 DUP2 MSTORE POP PUSH2 0x14A2 JUMP JUMPDEST PUSH1 0x40 MLOAD PUSH1 0x20 ADD PUSH2 0x11F2 SWAP4 SWAP3 SWAP2 SWAP1 PUSH2 0x2DD0 JUMP JUMPDEST PUSH1 0x40 MLOAD PUSH1 0x20 DUP2 DUP4 SUB SUB DUP2 MSTORE SWAP1 PUSH1 0x40 MSTORE PUSH2 0x14CE JUMP JUMPDEST PUSH1 0x40 MLOAD PUSH1 0x20 ADD PUSH2 0x1217 SWAP3 SWAP2 SWAP1 PUSH2 0x2E01 JUMP JUMPDEST PUSH1 0x40 MLOAD PUSH1 0x20 DUP2 DUP4 SUB SUB DUP2 MSTORE SWAP1 PUSH1 0x40 MSTORE SWAP3 POP POP POP SWAP3 SWAP2 POP POP JUMP JUMPDEST PUSH1 0x0 PUSH1 0x2 PUSH2 0x123F DUP4 PUSH1 0x1 PUSH2 0xB74 JUMP JUMPDEST PUSH2 0x1249 SWAP2 SWAP1 PUSH2 0x2218 JUMP JUMPDEST PUSH1 0xB4 PUSH2 0x1255 SWAP2 SWAP1 PUSH2 0x2E25 JUMP JUMPDEST PUSH1 0xFF AND SWAP1 POP SWAP2 SWAP1 POP JUMP JUMPDEST PUSH1 0x0 PUSH1 0xD PUSH2 0x126E DUP4 PUSH1 0x9 PUSH2 0xB74 JUMP JUMPDEST PUSH2 0x1278 SWAP2 SWAP1 PUSH2 0x2218 JUMP JUMPDEST PUSH1 0x5 PUSH2 0x1284 SWAP2 SWAP1 PUSH2 0x211E JUMP JUMPDEST PUSH1 0xFF AND SWAP1 POP SWAP2 SWAP1 POP JUMP JUMPDEST PUSH1 0x60 PUSH1 0x0 PUSH1 0x40 MLOAD DUP1 PUSH1 0x20 ADD PUSH1 0x40 MSTORE DUP1 PUSH1 0x0 DUP2 MSTORE POP SWAP1 POP PUSH1 0x0 PUSH1 0x40 MLOAD DUP1 PUSH1 0x20 ADD PUSH1 0x40 MSTORE DUP1 PUSH1 0x0 DUP2 MSTORE POP SWAP1 POP PUSH1 0x0 PUSH1 0x40 MLOAD DUP1 PUSH1 0x20 ADD PUSH1 0x40 MSTORE DUP1 PUSH1 0x0 DUP2 MSTORE POP SWAP1 POP PUSH1 0x0 JUMPDEST DUP7 DUP2 LT ISZERO PUSH2 0x13AB JUMPI PUSH1 0x2 PUSH1 0x3 PUSH1 0x4 DUP10 PUSH2 0x12E8 SWAP2 SWAP1 PUSH2 0x2052 JUMP JUMPDEST PUSH2 0x12F2 SWAP2 SWAP1 PUSH2 0x20B7 JUMP JUMPDEST PUSH2 0x12FC SWAP2 SWAP1 PUSH2 0x1C04 JUMP JUMPDEST DUP2 LT ISZERO PUSH2 0x1397 JUMPI DUP3 PUSH2 0x1324 PUSH1 0x1 DUP4 PUSH2 0x1314 SWAP2 SWAP1 PUSH2 0x1C04 JUMP JUMPDEST DUP9 PUSH2 0x131F SWAP2 SWAP1 PUSH2 0x20B7 JUMP JUMPDEST PUSH2 0x14FA JUMP JUMPDEST PUSH1 0x40 MLOAD PUSH1 0x20 ADD PUSH2 0x1335 SWAP3 SWAP2 SWAP1 PUSH2 0x2E01 JUMP JUMPDEST PUSH1 0x40 MLOAD PUSH1 0x20 DUP2 DUP4 SUB SUB DUP2 MSTORE SWAP1 PUSH1 0x40 MSTORE SWAP3 POP DUP2 PUSH2 0x1374 DUP10 PUSH1 0x5A PUSH1 0x1 DUP6 PUSH2 0x135A SWAP2 SWAP1 PUSH2 0x1C04 JUMP JUMPDEST DUP11 PUSH2 0x1365 SWAP2 SWAP1 PUSH2 0x20B7 JUMP JUMPDEST PUSH2 0x136F SWAP2 SWAP1 PUSH2 0x1C04 JUMP JUMPDEST PUSH2 0x154D JUMP JUMPDEST PUSH1 0x40 MLOAD PUSH1 0x20 ADD PUSH2 0x1385 SWAP3 SWAP2 SWAP1 PUSH2 0x2E01 JUMP JUMPDEST PUSH1 0x40 MLOAD PUSH1 0x20 DUP2 DUP4 SUB SUB DUP2 MSTORE SWAP1 PUSH1 0x40 MSTORE SWAP2 POP JUMPDEST PUSH1 0x1 DUP2 PUSH2 0x13A4 SWAP2 SWAP1 PUSH2 0x1C04 JUMP JUMPDEST SWAP1 POP PUSH2 0x12CF JUMP JUMPDEST POP DUP1 PUSH2 0x13DA DUP9 PUSH1 0x5A PUSH1 0x1 DUP11 PUSH2 0x13C0 SWAP2 SWAP1 PUSH2 0x1C04 JUMP JUMPDEST DUP10 PUSH2 0x13CB SWAP2 SWAP1 PUSH2 0x20B7 JUMP JUMPDEST PUSH2 0x13D5 SWAP2 SWAP1 PUSH2 0x1C04 JUMP JUMPDEST PUSH2 0x154D JUMP JUMPDEST PUSH2 0x1407 DUP10 PUSH1 0x5A PUSH1 0x2 DUP12 PUSH2 0x13ED SWAP2 SWAP1 PUSH2 0x1C04 JUMP JUMPDEST DUP11 PUSH2 0x13F8 SWAP2 SWAP1 PUSH2 0x20B7 JUMP JUMPDEST PUSH2 0x1402 SWAP2 SWAP1 PUSH2 0x1C04 JUMP JUMPDEST PUSH2 0x154D JUMP JUMPDEST PUSH1 0x40 MLOAD PUSH1 0x20 ADD PUSH2 0x1419 SWAP4 SWAP3 SWAP2 SWAP1 PUSH2 0x2DD0 JUMP JUMPDEST PUSH1 0x40 MLOAD PUSH1 0x20 DUP2 DUP4 SUB SUB DUP2 MSTORE SWAP1 PUSH1 0x40 MSTORE SWAP1 POP DUP2 DUP2 PUSH1 0x40 MLOAD PUSH1 0x20 ADD PUSH2 0x143D SWAP3 SWAP2 SWAP1 PUSH2 0x2E01 JUMP JUMPDEST PUSH1 0x40 MLOAD PUSH1 0x20 DUP2 DUP4 SUB SUB DUP2 MSTORE SWAP1 PUSH1 0x40 MSTORE SWAP3 POP DUP3 SWAP4 POP POP POP POP SWAP4 SWAP3 POP POP POP JUMP JUMPDEST PUSH1 0x0 PUSH2 0x1468 DUP3 PUSH1 0x4 PUSH2 0xB74 JUMP JUMPDEST PUSH1 0xFF AND PUSH2 0x1476 DUP4 PUSH1 0x3 PUSH2 0xB74 JUMP JUMPDEST PUSH1 0xFF AND PUSH2 0x1484 DUP5 PUSH1 0x2 PUSH2 0xB74 JUMP JUMPDEST PUSH1 0xFF AND PUSH2 0x1491 SWAP2 SWAP1 PUSH2 0x20B7 JUMP JUMPDEST PUSH2 0x149B SWAP2 SWAP1 PUSH2 0x20B7 JUMP JUMPDEST SWAP1 POP SWAP2 SWAP1 POP JUMP JUMPDEST PUSH1 0x60 DUP3 DUP3 PUSH1 0x40 MLOAD PUSH1 0x20 ADD PUSH2 0x14B7 SWAP3 SWAP2 SWAP1 PUSH2 0x2ECB JUMP JUMPDEST PUSH1 0x40 MLOAD PUSH1 0x20 DUP2 DUP4 SUB SUB DUP2 MSTORE SWAP1 PUSH1 0x40 MSTORE SWAP1 POP SWAP3 SWAP2 POP POP JUMP JUMPDEST PUSH1 0x60 DUP3 DUP3 PUSH1 0x40 MLOAD PUSH1 0x20 ADD PUSH2 0x14E3 SWAP3 SWAP2 SWAP1 PUSH2 0x2F68 JUMP JUMPDEST PUSH1 0x40 MLOAD PUSH1 0x20 DUP2 DUP4 SUB SUB DUP2 MSTORE SWAP1 PUSH1 0x40 MSTORE SWAP1 POP SWAP3 SWAP2 POP POP JUMP JUMPDEST PUSH1 0x60 PUSH2 0x1511 PUSH1 0x1 DUP4 PUSH2 0x150C SWAP2 SWAP1 PUSH2 0x1C04 JUMP JUMPDEST PUSH2 0x660 JUMP JUMPDEST PUSH2 0x1526 PUSH1 0x1 DUP5 PUSH2 0x1521 SWAP2 SWAP1 PUSH2 0x1C04 JUMP JUMPDEST PUSH2 0x660 JUMP JUMPDEST PUSH1 0x40 MLOAD PUSH1 0x20 ADD PUSH2 0x1537 SWAP3 SWAP2 SWAP1 PUSH2 0x3181 JUMP JUMPDEST PUSH1 0x40 MLOAD PUSH1 0x20 DUP2 DUP4 SUB SUB DUP2 MSTORE SWAP1 PUSH1 0x40 MSTORE SWAP1 POP SWAP2 SWAP1 POP JUMP JUMPDEST PUSH1 0x60 PUSH1 0x0 PUSH2 0x155A DUP5 PUSH2 0x15A3 JUMP JUMPDEST SWAP1 POP PUSH2 0x1571 PUSH1 0x1 DUP5 PUSH2 0x156C SWAP2 SWAP1 PUSH2 0x1C04 JUMP JUMPDEST PUSH2 0x660 JUMP JUMPDEST PUSH2 0x157A DUP3 PUSH2 0x660 JUMP JUMPDEST PUSH1 0x40 MLOAD PUSH1 0x20 ADD PUSH2 0x158B SWAP3 SWAP2 SWAP1 PUSH2 0x328F JUMP JUMPDEST PUSH1 0x40 MLOAD PUSH1 0x20 DUP2 DUP4 SUB SUB DUP2 MSTORE SWAP1 PUSH1 0x40 MSTORE SWAP2 POP POP SWAP3 SWAP2 POP POP JUMP JUMPDEST PUSH1 0x0 PUSH2 0x100 PUSH2 0x168 PUSH2 0x15B6 DUP5 PUSH1 0xA PUSH2 0xB74 JUMP JUMPDEST PUSH1 0xFF AND PUSH2 0x15C3 SWAP2 SWAP1 PUSH2 0x20B7 JUMP JUMPDEST PUSH2 0x15CD SWAP2 SWAP1 PUSH2 0x2052 JUMP JUMPDEST SWAP1 POP SWAP2 SWAP1 POP JUMP JUMPDEST PUSH1 0x0 PUSH1 0x40 MLOAD SWAP1 POP SWAP1 JUMP JUMPDEST PUSH1 0x0 DUP1 REVERT JUMPDEST PUSH1 0x0 DUP1 REVERT JUMPDEST PUSH1 0x0 DUP2 SWAP1 POP SWAP2 SWAP1 POP JUMP JUMPDEST PUSH2 0x15FB DUP2 PUSH2 0x15E8 JUMP JUMPDEST DUP2 EQ PUSH2 0x1606 JUMPI PUSH1 0x0 DUP1 REVERT JUMPDEST POP JUMP JUMPDEST PUSH1 0x0 DUP2 CALLDATALOAD SWAP1 POP PUSH2 0x1618 DUP2 PUSH2 0x15F2 JUMP JUMPDEST SWAP3 SWAP2 POP POP JUMP JUMPDEST PUSH1 0x0 PUSH1 0x20 DUP3 DUP5 SUB SLT ISZERO PUSH2 0x1634 JUMPI PUSH2 0x1633 PUSH2 0x15DE JUMP JUMPDEST JUMPDEST PUSH1 0x0 PUSH2 0x1642 DUP5 DUP3 DUP6 ADD PUSH2 0x1609 JUMP JUMPDEST SWAP2 POP POP SWAP3 SWAP2 POP POP JUMP JUMPDEST PUSH1 0x0 DUP2 MLOAD SWAP1 POP SWAP2 SWAP1 POP JUMP JUMPDEST PUSH1 0x0 DUP3 DUP3 MSTORE PUSH1 0x20 DUP3 ADD SWAP1 POP SWAP3 SWAP2 POP POP JUMP JUMPDEST PUSH1 0x0 JUMPDEST DUP4 DUP2 LT ISZERO PUSH2 0x1685 JUMPI DUP1 DUP3 ADD MLOAD DUP2 DUP5 ADD MSTORE PUSH1 0x20 DUP2 ADD SWAP1 POP PUSH2 0x166A JUMP JUMPDEST DUP4 DUP2 GT ISZERO PUSH2 0x1694 JUMPI PUSH1 0x0 DUP5 DUP5 ADD MSTORE JUMPDEST POP POP POP POP JUMP JUMPDEST PUSH1 0x0 PUSH1 0x1F NOT PUSH1 0x1F DUP4 ADD AND SWAP1 POP SWAP2 SWAP1 POP JUMP JUMPDEST PUSH1 0x0 PUSH2 0x16B6 DUP3 PUSH2 0x164B JUMP JUMPDEST PUSH2 0x16C0 DUP2 DUP6 PUSH2 0x1656 JUMP JUMPDEST SWAP4 POP PUSH2 0x16D0 DUP2 DUP6 PUSH1 0x20 DUP7 ADD PUSH2 0x1667 JUMP JUMPDEST PUSH2 0x16D9 DUP2 PUSH2 0x169A JUMP JUMPDEST DUP5 ADD SWAP2 POP POP SWAP3 SWAP2 POP POP JUMP JUMPDEST PUSH1 0x0 PUSH1 0x20 DUP3 ADD SWAP1 POP DUP2 DUP2 SUB PUSH1 0x0 DUP4 ADD MSTORE PUSH2 0x16FE DUP2 DUP5 PUSH2 0x16AB JUMP JUMPDEST SWAP1 POP SWAP3 SWAP2 POP POP JUMP JUMPDEST PUSH1 0x0 DUP1 REVERT JUMPDEST PUSH1 0x0 DUP1 REVERT JUMPDEST PUSH32 0x4E487B7100000000000000000000000000000000000000000000000000000000 PUSH1 0x0 MSTORE PUSH1 0x41 PUSH1 0x4 MSTORE PUSH1 0x24 PUSH1 0x0 REVERT JUMPDEST PUSH2 0x1748 DUP3 PUSH2 0x169A JUMP JUMPDEST DUP2 ADD DUP2 DUP2 LT PUSH8 0xFFFFFFFFFFFFFFFF DUP3 GT OR ISZERO PUSH2 0x1767 JUMPI PUSH2 0x1766 PUSH2 0x1710 JUMP JUMPDEST JUMPDEST DUP1 PUSH1 0x40 MSTORE POP POP POP JUMP JUMPDEST PUSH1 0x0 PUSH2 0x177A PUSH2 0x15D4 JUMP JUMPDEST SWAP1 POP PUSH2 0x1786 DUP3 DUP3 PUSH2 0x173F JUMP JUMPDEST SWAP2 SWAP1 POP JUMP JUMPDEST PUSH1 0x0 PUSH8 0xFFFFFFFFFFFFFFFF DUP3 GT ISZERO PUSH2 0x17A6 JUMPI PUSH2 0x17A5 PUSH2 0x1710 JUMP JUMPDEST JUMPDEST PUSH2 0x17AF DUP3 PUSH2 0x169A JUMP JUMPDEST SWAP1 POP PUSH1 0x20 DUP2 ADD SWAP1 POP SWAP2 SWAP1 POP JUMP JUMPDEST DUP3 DUP2 DUP4 CALLDATACOPY PUSH1 0x0 DUP4 DUP4 ADD MSTORE POP POP POP JUMP JUMPDEST PUSH1 0x0 PUSH2 0x17DE PUSH2 0x17D9 DUP5 PUSH2 0x178B JUMP JUMPDEST PUSH2 0x1770 JUMP JUMPDEST SWAP1 POP DUP3 DUP2 MSTORE PUSH1 0x20 DUP2 ADD DUP5 DUP5 DUP5 ADD GT ISZERO PUSH2 0x17FA JUMPI PUSH2 0x17F9 PUSH2 0x170B JUMP JUMPDEST JUMPDEST PUSH2 0x1805 DUP5 DUP3 DUP6 PUSH2 0x17BC JUMP JUMPDEST POP SWAP4 SWAP3 POP POP POP JUMP JUMPDEST PUSH1 0x0 DUP3 PUSH1 0x1F DUP4 ADD SLT PUSH2 0x1822 JUMPI PUSH2 0x1821 PUSH2 0x1706 JUMP JUMPDEST JUMPDEST DUP2 CALLDATALOAD PUSH2 0x1832 DUP5 DUP3 PUSH1 0x20 DUP7 ADD PUSH2 0x17CB JUMP JUMPDEST SWAP2 POP POP SWAP3 SWAP2 POP POP JUMP JUMPDEST PUSH1 0x0 DUP2 ISZERO ISZERO SWAP1 POP SWAP2 SWAP1 POP JUMP JUMPDEST PUSH2 0x1850 DUP2 PUSH2 0x183B JUMP JUMPDEST DUP2 EQ PUSH2 0x185B JUMPI PUSH1 0x0 DUP1 REVERT JUMPDEST POP JUMP JUMPDEST PUSH1 0x0 DUP2 CALLDATALOAD SWAP1 POP PUSH2 0x186D DUP2 PUSH2 0x1847 JUMP JUMPDEST SWAP3 SWAP2 POP POP JUMP JUMPDEST PUSH1 0x0 DUP1 PUSH1 0x40 DUP4 DUP6 SUB SLT ISZERO PUSH2 0x188A JUMPI PUSH2 0x1889 PUSH2 0x15DE JUMP JUMPDEST JUMPDEST PUSH1 0x0 DUP4 ADD CALLDATALOAD PUSH8 0xFFFFFFFFFFFFFFFF DUP2 GT ISZERO PUSH2 0x18A8 JUMPI PUSH2 0x18A7 PUSH2 0x15E3 JUMP JUMPDEST JUMPDEST PUSH2 0x18B4 DUP6 DUP3 DUP7 ADD PUSH2 0x180D JUMP JUMPDEST SWAP3 POP POP PUSH1 0x20 PUSH2 0x18C5 DUP6 DUP3 DUP7 ADD PUSH2 0x185E JUMP JUMPDEST SWAP2 POP POP SWAP3 POP SWAP3 SWAP1 POP JUMP JUMPDEST PUSH1 0x0 DUP1 PUSH1 0x40 DUP4 DUP6 SUB SLT ISZERO PUSH2 0x18E6 JUMPI PUSH2 0x18E5 PUSH2 0x15DE JUMP JUMPDEST JUMPDEST PUSH1 0x0 PUSH2 0x18F4 DUP6 DUP3 DUP7 ADD PUSH2 0x1609 JUMP JUMPDEST SWAP3 POP POP PUSH1 0x20 PUSH2 0x1905 DUP6 DUP3 DUP7 ADD PUSH2 0x185E JUMP JUMPDEST SWAP2 POP POP SWAP3 POP SWAP3 SWAP1 POP JUMP JUMPDEST PUSH1 0x0 PUSH8 0xFFFFFFFFFFFFFFFF DUP3 GT ISZERO PUSH2 0x192A JUMPI PUSH2 0x1929 PUSH2 0x1710 JUMP JUMPDEST JUMPDEST PUSH1 0x20 DUP3 MUL SWAP1 POP SWAP2 SWAP1 POP JUMP JUMPDEST PUSH1 0x0 DUP1 REVERT JUMPDEST PUSH1 0x0 PUSH8 0xFFFFFFFFFFFFFFFF DUP3 GT ISZERO PUSH2 0x1955 JUMPI PUSH2 0x1954 PUSH2 0x1710 JUMP JUMPDEST JUMPDEST PUSH2 0x195E DUP3 PUSH2 0x169A JUMP JUMPDEST SWAP1 POP PUSH1 0x20 DUP2 ADD SWAP1 POP SWAP2 SWAP1 POP JUMP JUMPDEST PUSH1 0x0 PUSH2 0x197E PUSH2 0x1979 DUP5 PUSH2 0x193A JUMP JUMPDEST PUSH2 0x1770 JUMP JUMPDEST SWAP1 POP DUP3 DUP2 MSTORE PUSH1 0x20 DUP2 ADD DUP5 DUP5 DUP5 ADD GT ISZERO PUSH2 0x199A JUMPI PUSH2 0x1999 PUSH2 0x170B JUMP JUMPDEST JUMPDEST PUSH2 0x19A5 DUP5 DUP3 DUP6 PUSH2 0x17BC JUMP JUMPDEST POP SWAP4 SWAP3 POP POP POP JUMP JUMPDEST PUSH1 0x0 DUP3 PUSH1 0x1F DUP4 ADD SLT PUSH2 0x19C2 JUMPI PUSH2 0x19C1 PUSH2 0x1706 JUMP JUMPDEST JUMPDEST DUP2 CALLDATALOAD PUSH2 0x19D2 DUP5 DUP3 PUSH1 0x20 DUP7 ADD PUSH2 0x196B JUMP JUMPDEST SWAP2 POP POP SWAP3 SWAP2 POP POP JUMP JUMPDEST PUSH1 0x0 PUSH2 0x19EE PUSH2 0x19E9 DUP5 PUSH2 0x190F JUMP JUMPDEST PUSH2 0x1770 JUMP JUMPDEST SWAP1 POP DUP1 PUSH1 0x20 DUP5 MUL DUP4 ADD DUP6 DUP2 GT ISZERO PUSH2 0x1A08 JUMPI PUSH2 0x1A07 PUSH2 0x1935 JUMP JUMPDEST JUMPDEST DUP4 JUMPDEST DUP2 DUP2 LT ISZERO PUSH2 0x1A4F JUMPI DUP1 CALLDATALOAD PUSH8 0xFFFFFFFFFFFFFFFF DUP2 GT ISZERO PUSH2 0x1A2D JUMPI PUSH2 0x1A2C PUSH2 0x1706 JUMP JUMPDEST JUMPDEST DUP1 DUP7 ADD PUSH2 0x1A3A DUP10 DUP3 PUSH2 0x19AD JUMP JUMPDEST DUP6 MSTORE PUSH1 0x20 DUP6 ADD SWAP5 POP POP POP PUSH1 0x20 DUP2 ADD SWAP1 POP PUSH2 0x1A0A JUMP JUMPDEST POP POP POP SWAP4 SWAP3 POP POP POP JUMP JUMPDEST PUSH1 0x0 DUP3 PUSH1 0x1F DUP4 ADD SLT PUSH2 0x1A6E JUMPI PUSH2 0x1A6D PUSH2 0x1706 JUMP JUMPDEST JUMPDEST PUSH1 0x3 PUSH2 0x1A7B DUP5 DUP3 DUP6 PUSH2 0x19DB JUMP JUMPDEST SWAP2 POP POP SWAP3 SWAP2 POP POP JUMP JUMPDEST PUSH1 0x0 DUP1 PUSH1 0x0 PUSH1 0x60 DUP5 DUP7 SUB SLT ISZERO PUSH2 0x1A9D JUMPI PUSH2 0x1A9C PUSH2 0x15DE JUMP JUMPDEST JUMPDEST PUSH1 0x0 DUP5 ADD CALLDATALOAD PUSH8 0xFFFFFFFFFFFFFFFF DUP2 GT ISZERO PUSH2 0x1ABB JUMPI PUSH2 0x1ABA PUSH2 0x15E3 JUMP JUMPDEST JUMPDEST PUSH2 0x1AC7 DUP7 DUP3 DUP8 ADD PUSH2 0x180D JUMP JUMPDEST SWAP4 POP POP PUSH1 0x20 DUP5 ADD CALLDATALOAD PUSH8 0xFFFFFFFFFFFFFFFF DUP2 GT ISZERO PUSH2 0x1AE8 JUMPI PUSH2 0x1AE7 PUSH2 0x15E3 JUMP JUMPDEST JUMPDEST PUSH2 0x1AF4 DUP7 DUP3 DUP8 ADD PUSH2 0x1A59 JUMP JUMPDEST SWAP3 POP POP PUSH1 0x40 DUP5 ADD CALLDATALOAD PUSH8 0xFFFFFFFFFFFFFFFF DUP2 GT ISZERO PUSH2 0x1B15 JUMPI PUSH2 0x1B14 PUSH2 0x15E3 JUMP JUMPDEST JUMPDEST PUSH2 0x1B21 DUP7 DUP3 DUP8 ADD PUSH2 0x1A59 JUMP JUMPDEST SWAP2 POP POP SWAP3 POP SWAP3 POP SWAP3 JUMP JUMPDEST PUSH1 0x0 DUP2 SWAP1 POP SWAP3 SWAP2 POP POP JUMP JUMPDEST PUSH32 0x4461697379636861696E20230000000000000000000000000000000000000000 PUSH1 0x0 DUP3 ADD MSTORE POP JUMP JUMPDEST PUSH1 0x0 PUSH2 0x1B6C PUSH1 0xC DUP4 PUSH2 0x1B2B JUMP JUMPDEST SWAP2 POP PUSH2 0x1B77 DUP3 PUSH2 0x1B36 JUMP JUMPDEST PUSH1 0xC DUP3 ADD SWAP1 POP SWAP2 SWAP1 POP JUMP JUMPDEST PUSH1 0x0 PUSH2 0x1B8D DUP3 PUSH2 0x164B JUMP JUMPDEST PUSH2 0x1B97 DUP2 DUP6 PUSH2 0x1B2B JUMP JUMPDEST SWAP4 POP PUSH2 0x1BA7 DUP2 DUP6 PUSH1 0x20 DUP7 ADD PUSH2 0x1667 JUMP JUMPDEST DUP1 DUP5 ADD SWAP2 POP POP SWAP3 SWAP2 POP POP JUMP JUMPDEST PUSH1 0x0 PUSH2 0x1BBE DUP3 PUSH2 0x1B5F JUMP JUMPDEST SWAP2 POP PUSH2 0x1BCA DUP3 DUP5 PUSH2 0x1B82 JUMP JUMPDEST SWAP2 POP DUP2 SWAP1 POP SWAP3 SWAP2 POP POP JUMP JUMPDEST PUSH32 0x4E487B7100000000000000000000000000000000000000000000000000000000 PUSH1 0x0 MSTORE PUSH1 0x11 PUSH1 0x4 MSTORE PUSH1 0x24 PUSH1 0x0 REVERT JUMPDEST PUSH1 0x0 PUSH2 0x1C0F DUP3 PUSH2 0x15E8 JUMP JUMPDEST SWAP2 POP PUSH2 0x1C1A DUP4 PUSH2 0x15E8 JUMP JUMPDEST SWAP3 POP DUP3 PUSH32 0xFFFFFFFFFFFFFFFFFFFFFFFFFFFFFFFFFFFFFFFFFFFFFFFFFFFFFFFFFFFFFFFF SUB DUP3 GT ISZERO PUSH2 0x1C4F JUMPI PUSH2 0x1C4E PUSH2 0x1BD5 JUMP JUMPDEST JUMPDEST DUP3 DUP3 ADD SWAP1 POP SWAP3 SWAP2 POP POP JUMP JUMPDEST PUSH32 0x3020000000000000000000000000000000000000000000000000000000000000 DUP2 MSTORE POP JUMP JUMPDEST PUSH1 0x0 PUSH2 0x1C8C DUP3 DUP5 PUSH2 0x1B82 JUMP JUMPDEST SWAP2 POP PUSH2 0x1C97 DUP3 PUSH2 0x1C5A JUMP JUMPDEST PUSH1 0x2 DUP3 ADD SWAP2 POP DUP2 SWAP1 POP SWAP3 SWAP2 POP POP JUMP JUMPDEST PUSH32 0x3120000000000000000000000000000000000000000000000000000000000000 DUP2 MSTORE POP JUMP JUMPDEST PUSH1 0x0 PUSH2 0x1CD8 DUP3 DUP5 PUSH2 0x1B82 JUMP JUMPDEST SWAP2 POP PUSH2 0x1CE3 DUP3 PUSH2 0x1CA6 JUMP JUMPDEST PUSH1 0x2 DUP3 ADD SWAP2 POP DUP2 SWAP1 POP SWAP3 SWAP2 POP POP JUMP JUMPDEST PUSH32 0x2000000000000000000000000000000000000000000000000000000000000000 DUP2 MSTORE POP JUMP JUMPDEST PUSH1 0x0 PUSH2 0x1D24 DUP3 DUP6 PUSH2 0x1B82 JUMP JUMPDEST SWAP2 POP PUSH2 0x1D30 DUP3 DUP5 PUSH2 0x1B82 JUMP JUMPDEST SWAP2 POP PUSH2 0x1D3B DUP3 PUSH2 0x1CF2 JUMP JUMPDEST PUSH1 0x1 DUP3 ADD SWAP2 POP DUP2 SWAP1 POP SWAP4 SWAP3 POP POP POP JUMP JUMPDEST PUSH32 0x2D00000000000000000000000000000000000000000000000000000000000000 DUP2 MSTORE POP JUMP JUMPDEST PUSH1 0x0 PUSH2 0x1D7D DUP3 DUP6 PUSH2 0x1B82 JUMP JUMPDEST SWAP2 POP PUSH2 0x1D88 DUP3 PUSH2 0x1D4B JUMP JUMPDEST PUSH1 0x1 DUP3 ADD SWAP2 POP PUSH2 0x1D98 DUP3 DUP5 PUSH2 0x1B82 JUMP JUMPDEST SWAP2 POP PUSH2 0x1DA3 DUP3 PUSH2 0x1CF2 JUMP JUMPDEST PUSH1 0x1 DUP3 ADD SWAP2 POP DUP2 SWAP1 POP SWAP4 SWAP3 POP POP POP JUMP JUMPDEST PUSH1 0x0 DUP2 SWAP1 POP SWAP2 SWAP1 POP JUMP JUMPDEST PUSH1 0x0 DUP2 SWAP1 POP SWAP2 SWAP1 POP JUMP JUMPDEST PUSH2 0x1DD8 PUSH2 0x1DD3 DUP3 PUSH2 0x1DB3 JUMP JUMPDEST PUSH2 0x1DBD JUMP JUMPDEST DUP3 MSTORE POP POP JUMP JUMPDEST PUSH1 0x0 PUSH2 0x1DEA DUP3 DUP5 PUSH2 0x1DC7 JUMP JUMPDEST PUSH1 0x20 DUP3 ADD SWAP2 POP DUP2 SWAP1 POP SWAP3 SWAP2 POP POP JUMP JUMPDEST PUSH32 0x2261747472696275746573223A205B0000000000000000000000000000000000 PUSH1 0x0 DUP3 ADD MSTORE POP JUMP JUMPDEST PUSH1 0x0 PUSH2 0x1E2F PUSH1 0xF DUP4 PUSH2 0x1B2B JUMP JUMPDEST SWAP2 POP PUSH2 0x1E3A DUP3 PUSH2 0x1DF9 JUMP JUMPDEST PUSH1 0xF DUP3 ADD SWAP1 POP SWAP2 SWAP1 POP JUMP JUMPDEST PUSH32 0x2C00000000000000000000000000000000000000000000000000000000000000 PUSH1 0x0 DUP3 ADD MSTORE POP JUMP JUMPDEST PUSH1 0x0 PUSH2 0x1E7B PUSH1 0x1 DUP4 PUSH2 0x1B2B JUMP JUMPDEST SWAP2 POP PUSH2 0x1E86 DUP3 PUSH2 0x1E45 JUMP JUMPDEST PUSH1 0x1 DUP3 ADD SWAP1 POP SWAP2 SWAP1 POP JUMP JUMPDEST PUSH32 0x5D00000000000000000000000000000000000000000000000000000000000000 PUSH1 0x0 DUP3 ADD MSTORE POP JUMP JUMPDEST PUSH1 0x0 PUSH2 0x1EC7 PUSH1 0x1 DUP4 PUSH2 0x1B2B JUMP JUMPDEST SWAP2 POP PUSH2 0x1ED2 DUP3 PUSH2 0x1E91 JUMP JUMPDEST PUSH1 0x1 DUP3 ADD SWAP1 POP SWAP2 SWAP1 POP JUMP JUMPDEST PUSH1 0x0 PUSH2 0x1EE8 DUP3 PUSH2 0x1E22 JUMP JUMPDEST SWAP2 POP PUSH2 0x1EF4 DUP3 DUP6 PUSH2 0x1B82 JUMP JUMPDEST SWAP2 POP PUSH2 0x1EFF DUP3 PUSH2 0x1E6E JUMP JUMPDEST SWAP2 POP PUSH2 0x1F0B DUP3 DUP5 PUSH2 0x1B82 JUMP JUMPDEST SWAP2 POP PUSH2 0x1F16 DUP3 PUSH2 0x1EBA JUMP JUMPDEST SWAP2 POP DUP2 SWAP1 POP SWAP4 SWAP3 POP POP POP JUMP JUMPDEST PUSH1 0x0 DUP2 SWAP1 POP SWAP2 SWAP1 POP JUMP JUMPDEST PUSH2 0x1F3D PUSH2 0x1F38 DUP3 PUSH2 0x15E8 JUMP JUMPDEST PUSH2 0x1F22 JUMP JUMPDEST DUP3 MSTORE POP POP JUMP JUMPDEST PUSH1 0x0 PUSH2 0x1F4F DUP3 DUP5 PUSH2 0x1F2C JUMP JUMPDEST PUSH1 0x20 DUP3 ADD SWAP2 POP DUP2 SWAP1 POP SWAP3 SWAP2 POP POP JUMP JUMPDEST PUSH32 0x4E487B7100000000000000000000000000000000000000000000000000000000 PUSH1 0x0 MSTORE PUSH1 0x32 PUSH1 0x4 MSTORE PUSH1 0x24 PUSH1 0x0 REVERT JUMPDEST PUSH1 0x0 PUSH2 0x1F99 DUP3 DUP8 PUSH2 0x1B82 JUMP JUMPDEST SWAP2 POP PUSH2 0x1FA5 DUP3 DUP7 PUSH2 0x1B82 JUMP JUMPDEST SWAP2 POP PUSH2 0x1FB0 DUP3 PUSH2 0x1CF2 JUMP JUMPDEST PUSH1 0x1 DUP3 ADD SWAP2 POP PUSH2 0x1FC0 DUP3 DUP6 PUSH2 0x1B82 JUMP JUMPDEST SWAP2 POP PUSH2 0x1FCC DUP3 DUP5 PUSH2 0x1B82 JUMP JUMPDEST SWAP2 POP DUP2 SWAP1 POP SWAP6 SWAP5 POP POP POP POP POP JUMP JUMPDEST PUSH1 0x0 PUSH2 0x1FE5 DUP3 PUSH2 0x15E8 JUMP JUMPDEST SWAP2 POP PUSH32 0xFFFFFFFFFFFFFFFFFFFFFFFFFFFFFFFFFFFFFFFFFFFFFFFFFFFFFFFFFFFFFFFF DUP3 EQ ISZERO PUSH2 0x2018 JUMPI PUSH2 0x2017 PUSH2 0x1BD5 JUMP JUMPDEST JUMPDEST PUSH1 0x1 DUP3 ADD SWAP1 POP SWAP2 SWAP1 POP JUMP JUMPDEST PUSH32 0x4E487B7100000000000000000000000000000000000000000000000000000000 PUSH1 0x0 MSTORE PUSH1 0x12 PUSH1 0x4 MSTORE PUSH1 0x24 PUSH1 0x0 REVERT JUMPDEST PUSH1 0x0 PUSH2 0x205D DUP3 PUSH2 0x15E8 JUMP JUMPDEST SWAP2 POP PUSH2 0x2068 DUP4 PUSH2 0x15E8 JUMP JUMPDEST SWAP3 POP DUP3 PUSH2 0x2078 JUMPI PUSH2 0x2077 PUSH2 0x2023 JUMP JUMPDEST JUMPDEST DUP3 DUP3 DIV SWAP1 POP SWAP3 SWAP2 POP POP JUMP JUMPDEST PUSH1 0x0 PUSH2 0x208E DUP3 PUSH2 0x15E8 JUMP JUMPDEST SWAP2 POP PUSH2 0x2099 DUP4 PUSH2 0x15E8 JUMP JUMPDEST SWAP3 POP DUP3 DUP3 LT ISZERO PUSH2 0x20AC JUMPI PUSH2 0x20AB PUSH2 0x1BD5 JUMP JUMPDEST JUMPDEST DUP3 DUP3 SUB SWAP1 POP SWAP3 SWAP2 POP POP JUMP JUMPDEST PUSH1 0x0 PUSH2 0x20C2 DUP3 PUSH2 0x15E8 JUMP JUMPDEST SWAP2 POP PUSH2 0x20CD DUP4 PUSH2 0x15E8 JUMP JUMPDEST SWAP3 POP DUP2 PUSH32 0xFFFFFFFFFFFFFFFFFFFFFFFFFFFFFFFFFFFFFFFFFFFFFFFFFFFFFFFFFFFFFFFF DIV DUP4 GT DUP3 ISZERO ISZERO AND ISZERO PUSH2 0x2106 JUMPI PUSH2 0x2105 PUSH2 0x1BD5 JUMP JUMPDEST JUMPDEST DUP3 DUP3 MUL SWAP1 POP SWAP3 SWAP2 POP POP JUMP JUMPDEST PUSH1 0x0 PUSH1 0xFF DUP3 AND SWAP1 POP SWAP2 SWAP1 POP JUMP JUMPDEST PUSH1 0x0 PUSH2 0x2129 DUP3 PUSH2 0x2111 JUMP JUMPDEST SWAP2 POP PUSH2 0x2134 DUP4 PUSH2 0x2111 JUMP JUMPDEST SWAP3 POP DUP3 PUSH1 0xFF SUB DUP3 GT ISZERO PUSH2 0x214A JUMPI PUSH2 0x2149 PUSH2 0x1BD5 JUMP JUMPDEST JUMPDEST DUP3 DUP3 ADD SWAP1 POP SWAP3 SWAP2 POP POP JUMP JUMPDEST PUSH32 0x7B2274726169745F74797065223A202200000000000000000000000000000000 DUP2 MSTORE POP JUMP JUMPDEST PUSH32 0x222C202276616C7565223A202200000000000000000000000000000000000000 DUP2 MSTORE POP JUMP JUMPDEST PUSH32 0x227D000000000000000000000000000000000000000000000000000000000000 DUP2 MSTORE POP JUMP JUMPDEST PUSH1 0x0 PUSH2 0x21D2 DUP3 PUSH2 0x2155 JUMP JUMPDEST PUSH1 0x10 DUP3 ADD SWAP2 POP PUSH2 0x21E2 DUP3 DUP6 PUSH2 0x1B82 JUMP JUMPDEST SWAP2 POP PUSH2 0x21ED DUP3 PUSH2 0x217B JUMP JUMPDEST PUSH1 0xD DUP3 ADD SWAP2 POP PUSH2 0x21FD DUP3 DUP5 PUSH2 0x1B82 JUMP JUMPDEST SWAP2 POP PUSH2 0x2208 DUP3 PUSH2 0x21A1 JUMP JUMPDEST PUSH1 0x2 DUP3 ADD SWAP2 POP DUP2 SWAP1 POP SWAP4 SWAP3 POP POP POP JUMP JUMPDEST PUSH1 0x0 PUSH2 0x2223 DUP3 PUSH2 0x2111 JUMP JUMPDEST SWAP2 POP PUSH2 0x222E DUP4 PUSH2 0x2111 JUMP JUMPDEST SWAP3 POP DUP3 PUSH2 0x223E JUMPI PUSH2 0x223D PUSH2 0x2023 JUMP JUMPDEST JUMPDEST DUP3 DUP3 DIV SWAP1 POP SWAP3 SWAP2 POP POP JUMP JUMPDEST PUSH32 0x3C73766720786D6C6E733D22687474703A2F2F7777772E77332E6F72672F3230 PUSH1 0x0 DUP3 ADD MSTORE PUSH32 0x30302F737667222077696474683D2233303022206865696768743D2233303022 PUSH1 0x20 DUP3 ADD MSTORE PUSH32 0x207374796C653D226261636B67726F756E643A236666662220786D6C6E733A78 PUSH1 0x40 DUP3 ADD MSTORE PUSH32 0x6C696E6B3D22687474703A2F2F7777772E77332E6F72672F313939392F786C69 PUSH1 0x60 DUP3 ADD MSTORE PUSH32 0x6E6B223E00000000000000000000000000000000000000000000000000000000 PUSH1 0x80 DUP3 ADD MSTORE POP JUMP JUMPDEST PUSH1 0x0 PUSH2 0x2317 PUSH1 0x84 DUP4 PUSH2 0x1B2B JUMP JUMPDEST SWAP2 POP PUSH2 0x2322 DUP3 PUSH2 0x2249 JUMP JUMPDEST PUSH1 0x84 DUP3 ADD SWAP1 POP SWAP2 SWAP1 POP JUMP JUMPDEST PUSH32 0x3C672069643D22656E74697265223E0000000000000000000000000000000000 DUP2 MSTORE POP JUMP JUMPDEST PUSH32 0x3C75736520786C696E6B3A687265663D2223666C6F7765722220636C69702D70 PUSH1 0x0 DUP3 ADD MSTORE PUSH32 0x6174683D2275726C282368616C66436C69702922207472616E73666F726D3D22 PUSH1 0x20 DUP3 ADD MSTORE PUSH32 0x726F7461746528302C203135302C2031353029222F3E00000000000000000000 PUSH1 0x40 DUP3 ADD MSTORE POP JUMP JUMPDEST PUSH1 0x0 PUSH2 0x23D5 PUSH1 0x56 DUP4 PUSH2 0x1B2B JUMP JUMPDEST SWAP2 POP PUSH2 0x23E0 DUP3 PUSH2 0x2353 JUMP JUMPDEST PUSH1 0x56 DUP3 ADD SWAP1 POP SWAP2 SWAP1 POP JUMP JUMPDEST PUSH32 0x3C75736520786C696E6B3A687265663D2223666C6F7765722220636C69702D70 PUSH1 0x0 DUP3 ADD MSTORE PUSH32 0x6174683D2275726C282368616C66436C69702922207472616E73666F726D3D22 PUSH1 0x20 DUP3 ADD MSTORE PUSH32 0x726F74617465283138302C203135302C2031353029222F3E0000000000000000 PUSH1 0x40 DUP3 ADD MSTORE POP JUMP JUMPDEST PUSH1 0x0 PUSH2 0x246D PUSH1 0x58 DUP4 PUSH2 0x1B2B JUMP JUMPDEST SWAP2 POP PUSH2 0x2478 DUP3 PUSH2 0x23EB JUMP JUMPDEST PUSH1 0x58 DUP3 ADD SWAP1 POP SWAP2 SWAP1 POP JUMP JUMPDEST PUSH32 0x3C2F673E00000000000000000000000000000000000000000000000000000000 DUP2 MSTORE POP JUMP JUMPDEST PUSH32 0x3C2F7376673E0000000000000000000000000000000000000000000000000000 DUP2 MSTORE POP JUMP JUMPDEST PUSH1 0x0 PUSH2 0x24DA DUP3 PUSH2 0x230A JUMP JUMPDEST SWAP2 POP PUSH2 0x24E6 DUP3 DUP7 PUSH2 0x1B82 JUMP JUMPDEST SWAP2 POP PUSH2 0x24F2 DUP3 DUP6 PUSH2 0x1B82 JUMP JUMPDEST SWAP2 POP PUSH2 0x24FD DUP3 PUSH2 0x232D JUMP JUMPDEST PUSH1 0xF DUP3 ADD SWAP2 POP PUSH2 0x250D DUP3 DUP5 PUSH2 0x1B82 JUMP JUMPDEST SWAP2 POP PUSH2 0x2518 DUP3 PUSH2 0x23C8 JUMP JUMPDEST SWAP2 POP PUSH2 0x2523 DUP3 PUSH2 0x2460 JUMP JUMPDEST SWAP2 POP PUSH2 0x252E DUP3 PUSH2 0x2483 JUMP JUMPDEST PUSH1 0x4 DUP3 ADD SWAP2 POP PUSH2 0x253D DUP3 PUSH2 0x24A9 JUMP JUMPDEST PUSH1 0x6 DUP3 ADD SWAP2 POP DUP2 SWAP1 POP SWAP5 SWAP4 POP POP POP POP JUMP JUMPDEST PUSH32 0x746F55696E74385F6F766572666C6F7700000000000000000000000000000000 PUSH1 0x0 DUP3 ADD MSTORE POP JUMP JUMPDEST PUSH1 0x0 PUSH2 0x2584 PUSH1 0x10 DUP4 PUSH2 0x1656 JUMP JUMPDEST SWAP2 POP PUSH2 0x258F DUP3 PUSH2 0x254E JUMP JUMPDEST PUSH1 0x20 DUP3 ADD SWAP1 POP SWAP2 SWAP1 POP JUMP JUMPDEST PUSH1 0x0 PUSH1 0x20 DUP3 ADD SWAP1 POP DUP2 DUP2 SUB PUSH1 0x0 DUP4 ADD MSTORE PUSH2 0x25B3 DUP2 PUSH2 0x2577 JUMP JUMPDEST SWAP1 POP SWAP2 SWAP1 POP JUMP JUMPDEST PUSH32 0x746F55696E74385F6F75744F66426F756E647300000000000000000000000000 PUSH1 0x0 DUP3 ADD MSTORE POP JUMP JUMPDEST PUSH1 0x0 PUSH2 0x25F0 PUSH1 0x13 DUP4 PUSH2 0x1656 JUMP JUMPDEST SWAP2 POP PUSH2 0x25FB DUP3 PUSH2 0x25BA JUMP JUMPDEST PUSH1 0x20 DUP3 ADD SWAP1 POP SWAP2 SWAP1 POP JUMP JUMPDEST PUSH1 0x0 PUSH1 0x20 DUP3 ADD SWAP1 POP DUP2 DUP2 SUB PUSH1 0x0 DUP4 ADD MSTORE PUSH2 0x261F DUP2 PUSH2 0x25E3 JUMP JUMPDEST SWAP1 POP SWAP2 SWAP1 POP JUMP JUMPDEST PUSH32 0x3C66696C7465722069643D22626C7572223E0000000000000000000000000000 DUP2 MSTORE POP JUMP JUMPDEST PUSH32 0x3C6665476175737369616E426C757220737464446576696174696F6E3D223122 PUSH1 0x0 DUP3 ADD MSTORE PUSH32 0x2F3E000000000000000000000000000000000000000000000000000000000000 PUSH1 0x20 DUP3 ADD MSTORE POP JUMP JUMPDEST PUSH1 0x0 PUSH2 0x26A8 PUSH1 0x22 DUP4 PUSH2 0x1B2B JUMP JUMPDEST SWAP2 POP PUSH2 0x26B3 DUP3 PUSH2 0x264C JUMP JUMPDEST PUSH1 0x22 DUP3 ADD SWAP1 POP SWAP2 SWAP1 POP JUMP JUMPDEST PUSH32 0x3C2F66696C7465723E0000000000000000000000000000000000000000000000 DUP2 MSTORE POP JUMP JUMPDEST PUSH32 0x3C66696C7465722069643D227368617270223E00000000000000000000000000 DUP2 MSTORE POP JUMP JUMPDEST PUSH32 0x3C636C6970506174682069643D22626C7572436C6970223E0000000000000000 DUP2 MSTORE POP JUMP JUMPDEST PUSH32 0x3C7265637420783D223135302220793D22313530222077696474683D22333030 PUSH1 0x0 DUP3 ADD MSTORE PUSH32 0x22206865696768743D22333030222F3E00000000000000000000000000000000 PUSH1 0x20 DUP3 ADD MSTORE POP JUMP JUMPDEST PUSH1 0x0 PUSH2 0x278C PUSH1 0x30 DUP4 PUSH2 0x1B2B JUMP JUMPDEST SWAP2 POP PUSH2 0x2797 DUP3 PUSH2 0x2730 JUMP JUMPDEST PUSH1 0x30 DUP3 ADD SWAP1 POP SWAP2 SWAP1 POP JUMP JUMPDEST PUSH32 0x3C2F636C6970506174683E000000000000000000000000000000000000000000 DUP2 MSTORE POP JUMP JUMPDEST PUSH32 0x3C636C6970506174682069643D227061747465726E436C6970223E0000000000 DUP2 MSTORE POP JUMP JUMPDEST PUSH32 0x3C7061746820643D224D2031353020313530204C200000000000000000000000 DUP2 MSTORE POP JUMP JUMPDEST PUSH32 0x2031353020512000000000000000000000000000000000000000000000000000 DUP2 MSTORE POP JUMP JUMPDEST PUSH32 0x2031353020000000000000000000000000000000000000000000000000000000 DUP2 MSTORE POP JUMP JUMPDEST PUSH32 0x205A222F3E3C2F636C6970506174683E00000000000000000000000000000000 DUP2 MSTORE POP JUMP JUMPDEST PUSH32 0x3C636C6970506174682069643D2268616C66436C6970223E0000000000000000 DUP2 MSTORE POP JUMP JUMPDEST PUSH32 0x3C72656374207472616E73666F726D3D22726F7461746528312C203135302C20 PUSH1 0x0 DUP3 ADD MSTORE PUSH32 0x31353029222077696474683D2232363022206865696768743D22363130222078 PUSH1 0x20 DUP3 ADD MSTORE PUSH32 0x3D222D3131302220793D222D313130222F3E0000000000000000000000000000 PUSH1 0x40 DUP3 ADD MSTORE POP JUMP JUMPDEST PUSH1 0x0 PUSH2 0x292E PUSH1 0x52 DUP4 PUSH2 0x1B2B JUMP JUMPDEST SWAP2 POP PUSH2 0x2939 DUP3 PUSH2 0x28AC JUMP JUMPDEST PUSH1 0x52 DUP3 ADD SWAP1 POP SWAP2 SWAP1 POP JUMP JUMPDEST PUSH1 0x0 PUSH2 0x294F DUP3 PUSH2 0x2626 JUMP JUMPDEST PUSH1 0x12 DUP3 ADD SWAP2 POP PUSH2 0x295F DUP3 DUP10 PUSH2 0x1B82 JUMP JUMPDEST SWAP2 POP PUSH2 0x296A DUP3 PUSH2 0x269B JUMP JUMPDEST SWAP2 POP PUSH2 0x2975 DUP3 PUSH2 0x26BE JUMP JUMPDEST PUSH1 0x9 DUP3 ADD SWAP2 POP PUSH2 0x2984 DUP3 PUSH2 0x26E4 JUMP JUMPDEST PUSH1 0x13 DUP3 ADD SWAP2 POP PUSH2 0x2994 DUP3 DUP9 PUSH2 0x1B82 JUMP JUMPDEST SWAP2 POP PUSH2 0x299F DUP3 PUSH2 0x26BE JUMP JUMPDEST PUSH1 0x9 DUP3 ADD SWAP2 POP PUSH2 0x29AE DUP3 PUSH2 0x270A JUMP JUMPDEST PUSH1 0x18 DUP3 ADD SWAP2 POP PUSH2 0x29BD DUP3 PUSH2 0x277F JUMP JUMPDEST SWAP2 POP PUSH2 0x29C8 DUP3 PUSH2 0x27A2 JUMP JUMPDEST PUSH1 0xB DUP3 ADD SWAP2 POP PUSH2 0x29D7 DUP3 PUSH2 0x27C8 JUMP JUMPDEST PUSH1 0x1B DUP3 ADD SWAP2 POP PUSH2 0x29E6 DUP3 PUSH2 0x27EE JUMP JUMPDEST PUSH1 0x15 DUP3 ADD SWAP2 POP PUSH2 0x29F6 DUP3 DUP8 PUSH2 0x1B82 JUMP JUMPDEST SWAP2 POP PUSH2 0x2A01 DUP3 PUSH2 0x2814 JUMP JUMPDEST PUSH1 0x7 DUP3 ADD SWAP2 POP PUSH2 0x2A11 DUP3 DUP7 PUSH2 0x1B82 JUMP JUMPDEST SWAP2 POP PUSH2 0x2A1C DUP3 PUSH2 0x1CF2 JUMP JUMPDEST PUSH1 0x1 DUP3 ADD SWAP2 POP PUSH2 0x2A2C DUP3 DUP6 PUSH2 0x1B82 JUMP JUMPDEST SWAP2 POP PUSH2 0x2A37 DUP3 PUSH2 0x283A JUMP JUMPDEST PUSH1 0x5 DUP3 ADD SWAP2 POP PUSH2 0x2A47 DUP3 DUP5 PUSH2 0x1B82 JUMP JUMPDEST SWAP2 POP PUSH2 0x2A52 DUP3 PUSH2 0x2860 JUMP JUMPDEST PUSH1 0x10 DUP3 ADD SWAP2 POP PUSH2 0x2A61 DUP3 PUSH2 0x2886 JUMP JUMPDEST PUSH1 0x18 DUP3 ADD SWAP2 POP PUSH2 0x2A70 DUP3 PUSH2 0x2921 JUMP JUMPDEST SWAP2 POP PUSH2 0x2A7B DUP3 PUSH2 0x27A2 JUMP JUMPDEST PUSH1 0xB DUP3 ADD SWAP2 POP DUP2 SWAP1 POP SWAP8 SWAP7 POP POP POP POP POP POP POP JUMP JUMPDEST PUSH32 0x3C646566733E0000000000000000000000000000000000000000000000000000 DUP2 MSTORE POP JUMP JUMPDEST PUSH32 0x3C726563742069643D227461702220783D223135302220793D22313530222077 PUSH1 0x0 DUP3 ADD MSTORE PUSH32 0x696474683D220000000000000000000000000000000000000000000000000000 PUSH1 0x20 DUP3 ADD MSTORE POP JUMP JUMPDEST PUSH1 0x0 PUSH2 0x2B11 PUSH1 0x26 DUP4 PUSH2 0x1B2B JUMP JUMPDEST SWAP2 POP PUSH2 0x2B1C DUP3 PUSH2 0x2AB5 JUMP JUMPDEST PUSH1 0x26 DUP3 ADD SWAP1 POP SWAP2 SWAP1 POP JUMP JUMPDEST PUSH32 0x22206865696768743D2200000000000000000000000000000000000000000000 DUP2 MSTORE POP JUMP JUMPDEST PUSH32 0x222066696C7465723D2275726C2823736861727029222F3E0000000000000000 DUP2 MSTORE POP JUMP JUMPDEST PUSH32 0x3C726563742069643D22626C75727461702220783D223135302220793D223135 PUSH1 0x0 DUP3 ADD MSTORE PUSH32 0x30222077696474683D2235303022206865696768743D22353030222066696C74 PUSH1 0x20 DUP3 ADD MSTORE PUSH32 0x65723D2275726C2823626C757229222F3E000000000000000000000000000000 PUSH1 0x40 DUP3 ADD MSTORE POP JUMP JUMPDEST PUSH1 0x0 PUSH2 0x2BF5 PUSH1 0x51 DUP4 PUSH2 0x1B2B JUMP JUMPDEST SWAP2 POP PUSH2 0x2C00 DUP3 PUSH2 0x2B73 JUMP JUMPDEST PUSH1 0x51 DUP3 ADD SWAP1 POP SWAP2 SWAP1 POP JUMP JUMPDEST PUSH32 0x3C706174682069643D2270746C2220643D224D20313530203135302051200000 DUP2 MSTORE POP JUMP JUMPDEST PUSH32 0x2031353020313530205A22207374726F6B653D22626C61636B222F3E00000000 DUP2 MSTORE POP JUMP JUMPDEST PUSH32 0x3C672069643D22666C6F776572223E0000000000000000000000000000000000 DUP2 MSTORE POP JUMP JUMPDEST PUSH32 0x3C2F673E3C2F646566733E000000000000000000000000000000000000000000 DUP2 MSTORE POP JUMP JUMPDEST PUSH1 0x0 PUSH2 0x2CAE DUP3 PUSH2 0x2A8F JUMP JUMPDEST PUSH1 0x6 DUP3 ADD SWAP2 POP PUSH2 0x2CBD DUP3 PUSH2 0x2B04 JUMP JUMPDEST SWAP2 POP PUSH2 0x2CC9 DUP3 DUP12 PUSH2 0x1B82 JUMP JUMPDEST SWAP2 POP PUSH2 0x2CD4 DUP3 PUSH2 0x2B27 JUMP JUMPDEST PUSH1 0xA DUP3 ADD SWAP2 POP PUSH2 0x2CE4 DUP3 DUP11 PUSH2 0x1B82 JUMP JUMPDEST SWAP2 POP PUSH2 0x2CEF DUP3 PUSH2 0x2B4D JUMP JUMPDEST PUSH1 0x18 DUP3 ADD SWAP2 POP PUSH2 0x2CFE DUP3 PUSH2 0x2BE8 JUMP JUMPDEST SWAP2 POP PUSH2 0x2D09 DUP3 PUSH2 0x2C0B JUMP JUMPDEST PUSH1 0x1E DUP3 ADD SWAP2 POP PUSH2 0x2D19 DUP3 DUP10 PUSH2 0x1B82 JUMP JUMPDEST SWAP2 POP PUSH2 0x2D24 DUP3 PUSH2 0x1CF2 JUMP JUMPDEST PUSH1 0x1 DUP3 ADD SWAP2 POP PUSH2 0x2D34 DUP3 DUP9 PUSH2 0x1B82 JUMP JUMPDEST SWAP2 POP PUSH2 0x2D3F DUP3 PUSH2 0x283A JUMP JUMPDEST PUSH1 0x5 DUP3 ADD SWAP2 POP PUSH2 0x2D4F DUP3 DUP8 PUSH2 0x1B82 JUMP JUMPDEST SWAP2 POP PUSH2 0x2D5A DUP3 PUSH2 0x1CF2 JUMP JUMPDEST PUSH1 0x1 DUP3 ADD SWAP2 POP PUSH2 0x2D6A DUP3 DUP7 PUSH2 0x1B82 JUMP JUMPDEST SWAP2 POP PUSH2 0x2D75 DUP3 PUSH2 0x1CF2 JUMP JUMPDEST PUSH1 0x1 DUP3 ADD SWAP2 POP PUSH2 0x2D85 DUP3 DUP6 PUSH2 0x1B82 JUMP JUMPDEST SWAP2 POP PUSH2 0x2D90 DUP3 PUSH2 0x2C31 JUMP JUMPDEST PUSH1 0x1C DUP3 ADD SWAP2 POP PUSH2 0x2D9F DUP3 PUSH2 0x2C57 JUMP JUMPDEST PUSH1 0xF DUP3 ADD SWAP2 POP PUSH2 0x2DAF DUP3 DUP5 PUSH2 0x1B82 JUMP JUMPDEST SWAP2 POP PUSH2 0x2DBA DUP3 PUSH2 0x2C7D JUMP JUMPDEST PUSH1 0xB DUP3 ADD SWAP2 POP DUP2 SWAP1 POP SWAP10 SWAP9 POP POP POP POP POP POP POP POP POP JUMP JUMPDEST PUSH1 0x0 PUSH2 0x2DDC DUP3 DUP7 PUSH2 0x1B82 JUMP JUMPDEST SWAP2 POP PUSH2 0x2DE8 DUP3 DUP6 PUSH2 0x1B82 JUMP JUMPDEST SWAP2 POP PUSH2 0x2DF4 DUP3 DUP5 PUSH2 0x1B82 JUMP JUMPDEST SWAP2 POP DUP2 SWAP1 POP SWAP5 SWAP4 POP POP POP POP JUMP JUMPDEST PUSH1 0x0 PUSH2 0x2E0D DUP3 DUP6 PUSH2 0x1B82 JUMP JUMPDEST SWAP2 POP PUSH2 0x2E19 DUP3 DUP5 PUSH2 0x1B82 JUMP JUMPDEST SWAP2 POP DUP2 SWAP1 POP SWAP4 SWAP3 POP POP POP JUMP JUMPDEST PUSH1 0x0 PUSH2 0x2E30 DUP3 PUSH2 0x2111 JUMP JUMPDEST SWAP2 POP PUSH2 0x2E3B DUP4 PUSH2 0x2111 JUMP JUMPDEST SWAP3 POP DUP3 DUP3 LT ISZERO PUSH2 0x2E4E JUMPI PUSH2 0x2E4D PUSH2 0x1BD5 JUMP JUMPDEST JUMPDEST DUP3 DUP3 SUB SWAP1 POP SWAP3 SWAP2 POP POP JUMP JUMPDEST PUSH32 0x3D00000000000000000000000000000000000000000000000000000000000000 DUP2 MSTORE POP JUMP JUMPDEST PUSH32 0x2200000000000000000000000000000000000000000000000000000000000000 DUP2 MSTORE POP JUMP JUMPDEST PUSH32 0x2220000000000000000000000000000000000000000000000000000000000000 DUP2 MSTORE POP JUMP JUMPDEST PUSH1 0x0 PUSH2 0x2ED7 DUP3 DUP6 PUSH2 0x1B82 JUMP JUMPDEST SWAP2 POP PUSH2 0x2EE2 DUP3 PUSH2 0x2E59 JUMP JUMPDEST PUSH1 0x1 DUP3 ADD SWAP2 POP PUSH2 0x2EF1 DUP3 PUSH2 0x2E7F JUMP JUMPDEST PUSH1 0x1 DUP3 ADD SWAP2 POP PUSH2 0x2F01 DUP3 DUP5 PUSH2 0x1B82 JUMP JUMPDEST SWAP2 POP PUSH2 0x2F0C DUP3 PUSH2 0x2EA5 JUMP JUMPDEST PUSH1 0x2 DUP3 ADD SWAP2 POP DUP2 SWAP1 POP SWAP4 SWAP3 POP POP POP JUMP JUMPDEST PUSH32 0x3C00000000000000000000000000000000000000000000000000000000000000 DUP2 MSTORE POP JUMP JUMPDEST PUSH32 0x2F3E000000000000000000000000000000000000000000000000000000000000 DUP2 MSTORE POP JUMP JUMPDEST PUSH1 0x0 PUSH2 0x2F73 DUP3 PUSH2 0x2F1C JUMP JUMPDEST PUSH1 0x1 DUP3 ADD SWAP2 POP PUSH2 0x2F83 DUP3 DUP6 PUSH2 0x1B82 JUMP JUMPDEST SWAP2 POP PUSH2 0x2F8E DUP3 PUSH2 0x1CF2 JUMP JUMPDEST PUSH1 0x1 DUP3 ADD SWAP2 POP PUSH2 0x2F9E DUP3 DUP5 PUSH2 0x1B82 JUMP JUMPDEST SWAP2 POP PUSH2 0x2FA9 DUP3 PUSH2 0x2F42 JUMP JUMPDEST PUSH1 0x2 DUP3 ADD SWAP2 POP DUP2 SWAP1 POP SWAP4 SWAP3 POP POP POP JUMP JUMPDEST PUSH32 0x3C75736520786C696E6B3A687265663D2223626C757274617022207472616E73 PUSH1 0x0 DUP3 ADD MSTORE PUSH32 0x666F726D3D22726F746174652800000000000000000000000000000000000000 PUSH1 0x20 DUP3 ADD MSTORE POP JUMP JUMPDEST PUSH1 0x0 PUSH2 0x3015 PUSH1 0x2D DUP4 PUSH2 0x1B2B JUMP JUMPDEST SWAP2 POP PUSH2 0x3020 DUP3 PUSH2 0x2FB9 JUMP JUMPDEST PUSH1 0x2D DUP3 ADD SWAP1 POP SWAP2 SWAP1 POP JUMP JUMPDEST PUSH32 0x2C203135302C20313530292220636C69702D706174683D2275726C2823626C75 PUSH1 0x0 DUP3 ADD MSTORE PUSH32 0x72436C697029222F3E0000000000000000000000000000000000000000000000 PUSH1 0x20 DUP3 ADD MSTORE POP JUMP JUMPDEST PUSH1 0x0 PUSH2 0x3087 PUSH1 0x29 DUP4 PUSH2 0x1B2B JUMP JUMPDEST SWAP2 POP PUSH2 0x3092 DUP3 PUSH2 0x302B JUMP JUMPDEST PUSH1 0x29 DUP3 ADD SWAP1 POP SWAP2 SWAP1 POP JUMP JUMPDEST PUSH32 0x3C75736520786C696E6B3A687265663D222374617022207472616E73666F726D PUSH1 0x0 DUP3 ADD MSTORE PUSH32 0x3D22726F74617465280000000000000000000000000000000000000000000000 PUSH1 0x20 DUP3 ADD MSTORE POP JUMP JUMPDEST PUSH1 0x0 PUSH2 0x30F9 PUSH1 0x29 DUP4 PUSH2 0x1B2B JUMP JUMPDEST SWAP2 POP PUSH2 0x3104 DUP3 PUSH2 0x309D JUMP JUMPDEST PUSH1 0x29 DUP3 ADD SWAP1 POP SWAP2 SWAP1 POP JUMP JUMPDEST PUSH32 0x2C203135302C20313530292220636C69702D706174683D2275726C2823706174 PUSH1 0x0 DUP3 ADD MSTORE PUSH32 0x7465726E436C697029222F3E0000000000000000000000000000000000000000 PUSH1 0x20 DUP3 ADD MSTORE POP JUMP JUMPDEST PUSH1 0x0 PUSH2 0x316B PUSH1 0x2C DUP4 PUSH2 0x1B2B JUMP JUMPDEST SWAP2 POP PUSH2 0x3176 DUP3 PUSH2 0x310F JUMP JUMPDEST PUSH1 0x2C DUP3 ADD SWAP1 POP SWAP2 SWAP1 POP JUMP JUMPDEST PUSH1 0x0 PUSH2 0x318C DUP3 PUSH2 0x3008 JUMP JUMPDEST SWAP2 POP PUSH2 0x3198 DUP3 DUP6 PUSH2 0x1B82 JUMP JUMPDEST SWAP2 POP PUSH2 0x31A3 DUP3 PUSH2 0x307A JUMP JUMPDEST SWAP2 POP PUSH2 0x31AE DUP3 PUSH2 0x30EC JUMP JUMPDEST SWAP2 POP PUSH2 0x31BA DUP3 DUP5 PUSH2 0x1B82 JUMP JUMPDEST SWAP2 POP PUSH2 0x31C5 DUP3 PUSH2 0x315E JUMP JUMPDEST SWAP2 POP DUP2 SWAP1 POP SWAP4 SWAP3 POP POP POP JUMP JUMPDEST PUSH32 0x3C75736520786C696E6B3A687265663D222370746C22207472616E73666F726D PUSH1 0x0 DUP3 ADD MSTORE PUSH32 0x3D22726F74617465280000000000000000000000000000000000000000000000 PUSH1 0x20 DUP3 ADD MSTORE POP JUMP JUMPDEST PUSH1 0x0 PUSH2 0x322D PUSH1 0x29 DUP4 PUSH2 0x1B2B JUMP JUMPDEST SWAP2 POP PUSH2 0x3238 DUP3 PUSH2 0x31D1 JUMP JUMPDEST PUSH1 0x29 DUP3 ADD SWAP1 POP SWAP2 SWAP1 POP JUMP JUMPDEST PUSH32 0x2C203135302C2031353029222066696C6C3D2268736C28000000000000000000 DUP2 MSTORE POP JUMP JUMPDEST PUSH32 0x2C313030252C3530252922207374726F6B653D22626C61636B222F3E00000000 DUP2 MSTORE POP JUMP JUMPDEST PUSH1 0x0 PUSH2 0x329A DUP3 PUSH2 0x3220 JUMP JUMPDEST SWAP2 POP PUSH2 0x32A6 DUP3 DUP6 PUSH2 0x1B82 JUMP JUMPDEST SWAP2 POP PUSH2 0x32B1 DUP3 PUSH2 0x3243 JUMP JUMPDEST PUSH1 0x17 DUP3 ADD SWAP2 POP PUSH2 0x32C1 DUP3 DUP5 PUSH2 0x1B82 JUMP JUMPDEST SWAP2 POP PUSH2 0x32CC DUP3 PUSH2 0x3269 JUMP JUMPDEST PUSH1 0x1C DUP3 ADD SWAP2 POP DUP2 SWAP1 POP SWAP4 SWAP3 POP POP POP JUMP INVALID DIFFICULTY PUSH2 0x6973 PUSH26 0x636861696E732E204C69666520496E2045766572792042726561 PUSH21 0x682E3C7374796C653E23656E74697265207B747261 PUSH15 0x73666F726D2D6F726967696E3A2031 CALLDATALOAD ADDRESS PUSH17 0x782031353070783B616E696D6174696F6E GASPRICE KECCAK256 PUSH19 0x6F7461746520383073206C696E65617220696E PUSH7 0x696E6974653B20 PUSH30 0x406B65796672616D657320726F74617465207B66726F6D207B7472616E73 PUSH7 0x6F726D3A20726F PUSH21 0x6174652830646567293B7D746F207B7472616E7366 PUSH16 0x726D3A20726F74617465283336306465 PUSH8 0x293B7D3C2F737479 PUSH13 0x653EA264697066735822122000 GASPRICE DIFFICULTY STOP 0xCB 0xDA CALLCODE 0xBB 0xD7 0xEA PC 0xFC 0xAA 0x2E BALANCE RETURNDATASIZE JUMPDEST 0xCD 0xE SWAP2 BALANCE RETURNDATASIZE 0x2A ORIGIN 0xA6 BASEFEE CALLVALUE 0xE7 0xE4 0xE6 DUP11 SELFDESTRUCT PUSH5 0x736F6C6343 STOP ADDMOD 0xC STOP CALLER "},"methodIdentifiers":{"approve(address,uint256)":"095ea7b3","balanceOf(address)":"70a08231","changeDescriptor(address)":"6ddab6f9","claimed(address)":"c884ef83","deluxeBuyableSupply()":"c35ab716","deluxeIDs(uint256)":"a7bd0dba","descriptor()":"303e74df","emergencyWithdraw(address)":"6ff1c9bc","endDate()":"c24a0f8b","generateBase64Image(uint256)":"a48b3b8f","generateFullImageFromVM(uint256,address,bool)":"fd85b89f","generateImage(uint256)":"4b44d812","generateTraits(uint256)":"79b92f27","generateTraitsWithSeedAndAddress(uint256,address,bool)":"90346fd4","getApproved(uint256)":"081812fc","isApprovedForAll(address,address)":"e985e9c5","loyalMint(bytes32[])":"aba048b4","loyalMintLeaf(bytes32[],address)":"423d7939","loyaltyRoot()":"6d9ec494","mint()":"1249c58b","mintDeluxe()":"3ea8aa24","name()":"06fdde03","owner()":"8da5cb5b","ownerOf(uint256)":"6352211e","recipient()":"66d003ac","safeTransferFrom(address,address,uint256)":"42842e0e","safeTransferFrom(address,address,uint256,bytes)":"b88d4fde","setApprovalForAll(address,bool)":"a22cb465","startDate()":"0b97bc86","supportsInterface(bytes4)":"01ffc9a7","symbol()":"95d89b41","tokenURI(uint256)":"c87b56dd","transferFrom(address,address,uint256)":"23b872dd","withdrawETH()":"e086e5ec"}}}}}