{"contracts/TestDescriptorChange.sol":{"TestDescriptorChange":{"abi":[{"inputs":[],"name":"example","outputs":[{"internalType":"string","name":"","type":"string"}],"stateMutability":"view","type":"function"},{"inputs":[{"internalType":"bytes","name":"hash","type":"bytes"},{"internalType":"string[3]","name":"decimalStrings","type":"string[3]"},{"internalType":"string[3]","name":"decimalStrings2","type":"string[3]"}],"name":"generateBaseFrequency","outputs":[{"internalType":"string","name":"","type":"string"}],"stateMutability":"pure","type":"function"},{"inputs":[{"internalType":"bytes","name":"hash","type":"bytes"},{"internalType":"bool","name":"maximalist","type":"bool"}],"name":"generateColorMatrix","outputs":[{"internalType":"string","name":"","type":"string"}],"stateMutability":"pure","type":"function"},{"inputs":[],"name":"generateDescription","outputs":[{"internalType":"string","name":"","type":"string"}],"stateMutability":"pure","type":"function"},{"inputs":[{"internalType":"uint256","name":"tokenId","type":"uint256"},{"internalType":"bool","name":"deluxe","type":"bool"}],"name":"generateImage","outputs":[{"internalType":"string","name":"","type":"string"}],"stateMutability":"view","type":"function"},{"inputs":[{"internalType":"uint256","name":"nr","type":"uint256"}],"name":"generateName","outputs":[{"internalType":"string","name":"","type":"string"}],"stateMutability":"pure","type":"function"},{"inputs":[{"internalType":"uint256","name":"tokenId","type":"uint256"},{"internalType":"bool","name":"deluxe","type":"bool"}],"name":"generateTraits","outputs":[{"internalType":"string","name":"","type":"string"}],"stateMutability":"pure","type":"function"}],"evm":{"bytecode":{"linkReferences":{},"object":"608060405234801561001057600080fd5b506133de806100206000396000f3fe608060405234801561001057600080fd5b506004361061007d5760003560e01c806354353f2f1161005b57806354353f2f14610112578063594bf5ad146101305780635a312a3d14610160578063effaaf6a1461017e5761007d565b8063192a0a1f146100825780632581d8b3146100b257806337ee03ec146100e2575b600080fd5b61009c6004803603810190610097919061163b565b6101ae565b6040516100a99190611701565b60405180910390f35b6100cc60048036038101906100c79190611890565b6101eb565b6040516100d99190611701565b60405180910390f35b6100fc60048036038101906100f791906118ec565b610388565b6040516101099190611701565b60405180910390f35b61011a610538565b6040516101279190611701565b60405180910390f35b61014a60048036038101906101459190611aa1565b610579565b6040516101579190611701565b60405180910390f35b610168610626565b6040516101759190611701565b60405180910390f35b610198600480360381019061019391906118ec565b610669565b6040516101a59190611701565b60405180910390f35b60606101c56101bc8361067d565b60006008610806565b6040516020016101d59190611bd0565b6040516020818303038152906040529050919050565b60608060005b601481101561037d5760006102068683610902565b905060006102208760018561021b9190611c21565b610925565b90506012831415610252578360405160200161023c9190611c9d565b6040516020818303038152906040529350610367565b6013831415610282578360405160200161026c9190611ce9565b6040516020818303038152906040529350610366565b60048314806102915750600983145b8061029c5750600e83145b156102fd576001151586151514156102d557836040516020016102bf9190611c9d565b60405160208183030381529060405293506102f8565b836040516020016102e69190611ce9565b60405160208183030381529060405293505b610365565b608081101561033757836103108361067d565b604051602001610321929190611d35565b6040516020818303038152906040529350610364565b836103418361067d565b604051602001610352929190611d8e565b60405160208183030381529060405293505b5b5b5b50506001816103769190611c21565b90506101f1565b508091505092915050565b606060008360001b6040516020016103a09190611dfb565b6040516020818303038152906040529050606060011515841515141561043b576104346040518060400160405280600881526020017f416e696d617465640000000000000000000000000000000000000000000000008152506040518060400160405280600481526020017f547275650000000000000000000000000000000000000000000000000000000081525061093c565b90506104b2565b6104af6040518060400160405280600881526020017f416e696d617465640000000000000000000000000000000000000000000000008152506040518060400160405280600581526020017f46616c736500000000000000000000000000000000000000000000000000000081525061093c565b90505b60006104bd83610968565b905060006105086040518060400160405280600b81526020017f506574616c20436f756e740000000000000000000000000000000000000000008152506105038461067d565b61093c565b9050828160405160200161051d929190611efa565b60405160208183030381529060405294505050505092915050565b606060005a60405160200161054d9190611f60565b6040516020818303038152906040528051906020012060001c90506105738160016109f0565b91505090565b6060600061058e61058986610ab7565b61067d565b9050600061059b86610af4565b905060006105b06105ab88610b24565b61067d565b905060006105bd88610b61565b905060008784600381106105d4576105d3611f7b565b5b6020020151858884600381106105ed576105ec611f7b565b5b6020020151856040516020016106069493929190611faa565b604051602081830303815290604052905080955050505050509392505050565b606060006040518060400160405280601c81526020017f54657374696e67204368616e6765206f662044657363726970746f720000000081525090508091505090565b606061067583836109f0565b905092915050565b606060008214156106c5576040518060400160405280600181526020017f30000000000000000000000000000000000000000000000000000000000000008152509050610801565b600082905060005b600082146106f75780806106e090611ff7565b915050600a826106f0919061206f565b91506106cd565b60008167ffffffffffffffff8111156107135761071261172d565b5b6040519080825280601f01601f1916602001820160405280156107455781602001600182028036833780820191505090505b50905060008290505b600086146107f95760018161076391906120a0565b90506000600a8088610775919061206f565b61077f91906120d4565b8761078a91906120a0565b6030610796919061213b565b905060008160f81b9050808484815181106107b4576107b3611f7b565b5b60200101907effffffffffffffffffffffffffffffffffffffffffffffffffffffffffffff1916908160001a905350600a886107f0919061206f565b9750505061074e565b819450505050505b919050565b606060008490506000848461081b91906120a0565b67ffffffffffffffff8111156108345761083361172d565b5b6040519080825280601f01601f1916602001820160405280156108665781602001600182028036833780820191505090505b50905060008590505b848110156108f55782818151811061088a57610889611f7b565b5b602001015160f81c60f81b8287836108a291906120a0565b815181106108b3576108b2611f7b565b5b60200101907effffffffffffffffffffffffffffffffffffffffffffffffffffffffffffff1916908160001a90535080806108ed90611ff7565b91505061086f565b5080925050509392505050565b600060046109108484610b91565b60ff1661091d919061206f565b905092915050565b60006109318383610b91565b60ff16905092915050565b606082826040516020016109519291906121e4565b604051602081830303815290604052905092915050565b6000806040518060a00160405280600860ff168152602001600c60ff168152602001601460ff168152602001601860ff168152602001602460ff168152509050600060346109b7856000610b91565b6109c19190612235565b60ff16905060008282600581106109db576109da611f7b565b5b602002015160ff169050809350505050919050565b606060008360001b604051602001610a089190611dfb565b60405160208183030381529060405290506000610a2482610968565b9050600081610168610a36919061206f565b90506000604051806020016040528060008152509050600115158615151415610a75576040518060e0016040528060af81526020016132fa60af913990505b80610a7f85610c47565b610a8a868686610cc2565b604051602001610a9c939291906124ec565b60405160208183030381529060405294505050505092915050565b60006101006103e8610aca846005610b91565b60ff16610ad791906120d4565b610ae1919061206f565b6001610aed9190611c21565b9050919050565b60006101006003610b06846007610b91565b60ff16610b1391906120d4565b610b1d919061206f565b9050919050565b60006101006103e8610b37846006610b91565b60ff16610b4491906120d4565b610b4e919061206f565b6001610b5a9190611c21565b9050919050565b60006101006003610b73846008610b91565b60ff16610b8091906120d4565b610b8a919061206f565b9050919050565b600081600183610ba19190611c21565b1015610be2576040517f08c379a0000000000000000000000000000000000000000000000000000000008152600401610bd9906125b7565b60405180910390fd5b600182610bef9190611c21565b83511015610c32576040517f08c379a0000000000000000000000000000000000000000000000000000000008152600401610c2990612623565b60405180910390fd5b60008260018501015190508091505092915050565b60606000610c56836001610dab565b90506000610c65846000610dab565b90506000610c728561124d565b90506000610c8b826096610c869190611c21565b61067d565b9050838382838485604051602001610ca896959493929190612961565b604051602081830303815290604052945050505050919050565b60606000610cd7610cd28661124d565b61067d565b90506000610ce48661127c565b90506000600282610cf591906120d4565b90506000610d048888886112ab565b905060008485610d1f866096610d1a91906120a0565b61067d565b610d34866096610d2f91906120a0565b61067d565b610d49876096610d4491906120a0565b61067d565b610d5e896096610d599190611c21565b61067d565b610d73896096610d6e91906120a0565b61067d565b88604051602001610d8b989796959493929190612cc0565b604051602081830303815290604052905080955050505050509392505050565b60606000610f2c8460405180606001604052806040518060400160405280600381526020017f302e30000000000000000000000000000000000000000000000000000000000081525081526020016040518060400160405280600481526020017f302e30300000000000000000000000000000000000000000000000000000000081525081526020016040518060400160405280600481526020017f302e30300000000000000000000000000000000000000000000000000000000081525081525060405180606001604052806040518060400160405280600381526020017f302e30000000000000000000000000000000000000000000000000000000000081525081526020016040518060400160405280600381526020017f302e30000000000000000000000000000000000000000000000000000000000081525081526020016040518060400160405280600381526020017f302e300000000000000000000000000000000000000000000000000000000000815250815250610579565b90506000610f41610f3c86611478565b61067d565b90506110946040518060400160405280600c81526020017f666554757262756c656e63650000000000000000000000000000000000000000815250610fbb6040518060400160405280600d81526020017f626173654672657175656e637900000000000000000000000000000000000000815250856114bf565b610ffa6040518060400160405280600481526020017f7365656400000000000000000000000000000000000000000000000000000000815250856114bf565b61106e6040518060400160405280600681526020017f726573756c7400000000000000000000000000000000000000000000000000008152506040518060400160405280600481526020017f74757262000000000000000000000000000000000000000000000000000000008152506114bf565b60405160200161108093929190612ded565b6040516020818303038152906040526114eb565b6112236040518060400160405280600d81526020017f6665436f6c6f724d6174726978000000000000000000000000000000000000008152506111416040518060400160405280600281526020017f696e0000000000000000000000000000000000000000000000000000000000008152506040518060400160405280600481526020017f74757262000000000000000000000000000000000000000000000000000000008152506114bf565b6111896040518060400160405280600681526020017f76616c75657300000000000000000000000000000000000000000000000000008152506111848b8b6101eb565b6114bf565b6111fd6040518060400160405280600381526020017f6f757400000000000000000000000000000000000000000000000000000000008152506040518060400160405280600581526020017f74757262320000000000000000000000000000000000000000000000000000008152506114bf565b60405160200161120f93929190612ded565b6040516020818303038152906040526114eb565b604051602001611234929190612e1e565b6040516020818303038152906040529250505092915050565b6000600261125c836001610b91565b6112669190612235565b60b46112729190612e42565b60ff169050919050565b6000600d61128b836009610b91565b6112959190612235565b60056112a1919061213b565b60ff169050919050565b606060006040518060200160405280600081525090506000604051806020016040528060008152509050600060405180602001604052806000815250905060005b868110156113c85760026003600489611305919061206f565b61130f91906120d4565b6113199190611c21565b8110156113b457826113416001836113319190611c21565b8861133c91906120d4565b611517565b604051602001611352929190612e1e565b60405160208183030381529060405292508161139189605a6001856113779190611c21565b8a61138291906120d4565b61138c9190611c21565b61156a565b6040516020016113a2929190612e1e565b60405160208183030381529060405291505b6001816113c19190611c21565b90506112ec565b50806113f788605a60018a6113dd9190611c21565b896113e891906120d4565b6113f29190611c21565b61156a565b61142489605a60028b61140a9190611c21565b8a61141591906120d4565b61141f9190611c21565b61156a565b60405160200161143693929190612ded565b6040516020818303038152906040529050818160405160200161145a929190612e1e565b60405160208183030381529060405292508293505050509392505050565b6000611485826004610b91565b60ff16611493836003610b91565b60ff166114a1846002610b91565b60ff166114ae91906120d4565b6114b891906120d4565b9050919050565b606082826040516020016114d4929190612ee8565b604051602081830303815290604052905092915050565b60608282604051602001611500929190612f85565b604051602081830303815290604052905092915050565b606061152e6001836115299190611c21565b61067d565b61154360018461153e9190611c21565b61067d565b60405160200161155492919061319e565b6040516020818303038152906040529050919050565b60606000611577846115c0565b905061158e6001846115899190611c21565b61067d565b6115978261067d565b6040516020016115a89291906132ac565b60405160208183030381529060405291505092915050565b60006101006101686115d384600a610b91565b60ff166115e091906120d4565b6115ea919061206f565b9050919050565b6000604051905090565b600080fd5b600080fd5b6000819050919050565b61161881611605565b811461162357600080fd5b50565b6000813590506116358161160f565b92915050565b600060208284031215611651576116506115fb565b5b600061165f84828501611626565b91505092915050565b600081519050919050565b600082825260208201905092915050565b60005b838110156116a2578082015181840152602081019050611687565b838111156116b1576000848401525b50505050565b6000601f19601f8301169050919050565b60006116d382611668565b6116dd8185611673565b93506116ed818560208601611684565b6116f6816116b7565b840191505092915050565b6000602082019050818103600083015261171b81846116c8565b905092915050565b600080fd5b600080fd5b7f4e487b7100000000000000000000000000000000000000000000000000000000600052604160045260246000fd5b611765826116b7565b810181811067ffffffffffffffff821117156117845761178361172d565b5b80604052505050565b60006117976115f1565b90506117a3828261175c565b919050565b600067ffffffffffffffff8211156117c3576117c261172d565b5b6117cc826116b7565b9050602081019050919050565b82818337600083830152505050565b60006117fb6117f6846117a8565b61178d565b90508281526020810184848401111561181757611816611728565b5b6118228482856117d9565b509392505050565b600082601f83011261183f5761183e611723565b5b813561184f8482602086016117e8565b91505092915050565b60008115159050919050565b61186d81611858565b811461187857600080fd5b50565b60008135905061188a81611864565b92915050565b600080604083850312156118a7576118a66115fb565b5b600083013567ffffffffffffffff8111156118c5576118c4611600565b5b6118d18582860161182a565b92505060206118e28582860161187b565b9150509250929050565b60008060408385031215611903576119026115fb565b5b600061191185828601611626565b92505060206119228582860161187b565b9150509250929050565b600067ffffffffffffffff8211156119475761194661172d565b5b602082029050919050565b600080fd5b600067ffffffffffffffff8211156119725761197161172d565b5b61197b826116b7565b9050602081019050919050565b600061199b61199684611957565b61178d565b9050828152602081018484840111156119b7576119b6611728565b5b6119c28482856117d9565b509392505050565b600082601f8301126119df576119de611723565b5b81356119ef848260208601611988565b91505092915050565b6000611a0b611a068461192c565b61178d565b90508060208402830185811115611a2557611a24611952565b5b835b81811015611a6c57803567ffffffffffffffff811115611a4a57611a49611723565b5b808601611a5789826119ca565b85526020850194505050602081019050611a27565b5050509392505050565b600082601f830112611a8b57611a8a611723565b5b6003611a988482856119f8565b91505092915050565b600080600060608486031215611aba57611ab96115fb565b5b600084013567ffffffffffffffff811115611ad857611ad7611600565b5b611ae48682870161182a565b935050602084013567ffffffffffffffff811115611b0557611b04611600565b5b611b1186828701611a76565b925050604084013567ffffffffffffffff811115611b3257611b31611600565b5b611b3e86828701611a76565b9150509250925092565b600081905092915050565b7f4461697379636861696e20230000000000000000000000000000000000000000600082015250565b6000611b89600c83611b48565b9150611b9482611b53565b600c82019050919050565b6000611baa82611668565b611bb48185611b48565b9350611bc4818560208601611684565b80840191505092915050565b6000611bdb82611b7c565b9150611be78284611b9f565b915081905092915050565b7f4e487b7100000000000000000000000000000000000000000000000000000000600052601160045260246000fd5b6000611c2c82611605565b9150611c3783611605565b9250827fffffffffffffffffffffffffffffffffffffffffffffffffffffffffffffffff03821115611c6c57611c6b611bf2565b5b828201905092915050565b7f3020000000000000000000000000000000000000000000000000000000000000815250565b6000611ca98284611b9f565b9150611cb482611c77565b60028201915081905092915050565b7f3120000000000000000000000000000000000000000000000000000000000000815250565b6000611cf58284611b9f565b9150611d0082611cc3565b60028201915081905092915050565b7f2000000000000000000000000000000000000000000000000000000000000000815250565b6000611d418285611b9f565b9150611d4d8284611b9f565b9150611d5882611d0f565b6001820191508190509392505050565b7f2d00000000000000000000000000000000000000000000000000000000000000815250565b6000611d9a8285611b9f565b9150611da582611d68565b600182019150611db58284611b9f565b9150611dc082611d0f565b6001820191508190509392505050565b6000819050919050565b6000819050919050565b611df5611df082611dd0565b611dda565b82525050565b6000611e078284611de4565b60208201915081905092915050565b7f2261747472696275746573223a205b0000000000000000000000000000000000600082015250565b6000611e4c600f83611b48565b9150611e5782611e16565b600f82019050919050565b7f2c00000000000000000000000000000000000000000000000000000000000000600082015250565b6000611e98600183611b48565b9150611ea382611e62565b600182019050919050565b7f5d00000000000000000000000000000000000000000000000000000000000000600082015250565b6000611ee4600183611b48565b9150611eef82611eae565b600182019050919050565b6000611f0582611e3f565b9150611f118285611b9f565b9150611f1c82611e8b565b9150611f288284611b9f565b9150611f3382611ed7565b91508190509392505050565b6000819050919050565b611f5a611f5582611605565b611f3f565b82525050565b6000611f6c8284611f49565b60208201915081905092915050565b7f4e487b7100000000000000000000000000000000000000000000000000000000600052603260045260246000fd5b6000611fb68287611b9f565b9150611fc28286611b9f565b9150611fcd82611d0f565b600182019150611fdd8285611b9f565b9150611fe98284611b9f565b915081905095945050505050565b600061200282611605565b91507fffffffffffffffffffffffffffffffffffffffffffffffffffffffffffffffff82141561203557612034611bf2565b5b600182019050919050565b7f4e487b7100000000000000000000000000000000000000000000000000000000600052601260045260246000fd5b600061207a82611605565b915061208583611605565b92508261209557612094612040565b5b828204905092915050565b60006120ab82611605565b91506120b683611605565b9250828210156120c9576120c8611bf2565b5b828203905092915050565b60006120df82611605565b91506120ea83611605565b9250817fffffffffffffffffffffffffffffffffffffffffffffffffffffffffffffffff048311821515161561212357612122611bf2565b5b828202905092915050565b600060ff82169050919050565b60006121468261212e565b91506121518361212e565b92508260ff0382111561216757612166611bf2565b5b828201905092915050565b7f7b2274726169745f74797065223a202200000000000000000000000000000000815250565b7f222c202276616c7565223a202200000000000000000000000000000000000000815250565b7f227d000000000000000000000000000000000000000000000000000000000000815250565b60006121ef82612172565b6010820191506121ff8285611b9f565b915061220a82612198565b600d8201915061221a8284611b9f565b9150612225826121be565b6002820191508190509392505050565b60006122408261212e565b915061224b8361212e565b92508261225b5761225a612040565b5b828204905092915050565b7f3c73766720786d6c6e733d22687474703a2f2f7777772e77332e6f72672f323060008201527f30302f737667222077696474683d2233303022206865696768743d223330302260208201527f207374796c653d226261636b67726f756e643a236666662220786d6c6e733a7860408201527f6c696e6b3d22687474703a2f2f7777772e77332e6f72672f313939392f786c6960608201527f6e6b223e00000000000000000000000000000000000000000000000000000000608082015250565b6000612334608483611b48565b915061233f82612266565b608482019050919050565b7f3c672069643d22656e74697265223e0000000000000000000000000000000000815250565b7f3c75736520786c696e6b3a687265663d2223666c6f7765722220636c69702d7060008201527f6174683d2275726c282368616c66436c69702922207472616e73666f726d3d2260208201527f726f7461746528302c203135302c2031353029222f3e00000000000000000000604082015250565b60006123f2605683611b48565b91506123fd82612370565b605682019050919050565b7f3c75736520786c696e6b3a687265663d2223666c6f7765722220636c69702d7060008201527f6174683d2275726c282368616c66436c69702922207472616e73666f726d3d2260208201527f726f74617465283138302c203135302c2031353029222f3e0000000000000000604082015250565b600061248a605883611b48565b915061249582612408565b605882019050919050565b7f3c2f673e00000000000000000000000000000000000000000000000000000000815250565b7f3c2f7376673e0000000000000000000000000000000000000000000000000000815250565b60006124f782612327565b91506125038286611b9f565b915061250f8285611b9f565b915061251a8261234a565b600f8201915061252a8284611b9f565b9150612535826123e5565b91506125408261247d565b915061254b826124a0565b60048201915061255a826124c6565b600682019150819050949350505050565b7f746f55696e74385f6f766572666c6f7700000000000000000000000000000000600082015250565b60006125a1601083611673565b91506125ac8261256b565b602082019050919050565b600060208201905081810360008301526125d081612594565b9050919050565b7f746f55696e74385f6f75744f66426f756e647300000000000000000000000000600082015250565b600061260d601383611673565b9150612618826125d7565b602082019050919050565b6000602082019050818103600083015261263c81612600565b9050919050565b7f3c66696c7465722069643d22626c7572223e0000000000000000000000000000815250565b7f3c6665476175737369616e426c757220737464446576696174696f6e3d22312260008201527f2f3e000000000000000000000000000000000000000000000000000000000000602082015250565b60006126c5602283611b48565b91506126d082612669565b602282019050919050565b7f3c2f66696c7465723e0000000000000000000000000000000000000000000000815250565b7f3c66696c7465722069643d227368617270223e00000000000000000000000000815250565b7f3c636c6970506174682069643d22626c7572436c6970223e0000000000000000815250565b7f3c7265637420783d223135302220793d22313530222077696474683d2233303060008201527f22206865696768743d22333030222f3e00000000000000000000000000000000602082015250565b60006127a9603083611b48565b91506127b48261274d565b603082019050919050565b7f3c2f636c6970506174683e000000000000000000000000000000000000000000815250565b7f3c636c6970506174682069643d227061747465726e436c6970223e0000000000815250565b7f3c7061746820643d224d2031353020313530204c200000000000000000000000815250565b7f2031353020512000000000000000000000000000000000000000000000000000815250565b7f2031353020000000000000000000000000000000000000000000000000000000815250565b7f205a222f3e3c2f636c6970506174683e00000000000000000000000000000000815250565b7f3c636c6970506174682069643d2268616c66436c6970223e0000000000000000815250565b7f3c72656374207472616e73666f726d3d22726f7461746528312c203135302c2060008201527f31353029222077696474683d2232363022206865696768743d2236313022207860208201527f3d222d3131302220793d222d313130222f3e0000000000000000000000000000604082015250565b600061294b605283611b48565b9150612956826128c9565b605282019050919050565b600061296c82612643565b60128201915061297c8289611b9f565b9150612987826126b8565b9150612992826126db565b6009820191506129a182612701565b6013820191506129b18288611b9f565b91506129bc826126db565b6009820191506129cb82612727565b6018820191506129da8261279c565b91506129e5826127bf565b600b820191506129f4826127e5565b601b82019150612a038261280b565b601582019150612a138287611b9f565b9150612a1e82612831565b600782019150612a2e8286611b9f565b9150612a3982611d0f565b600182019150612a498285611b9f565b9150612a5482612857565b600582019150612a648284611b9f565b9150612a6f8261287d565b601082019150612a7e826128a3565b601882019150612a8d8261293e565b9150612a98826127bf565b600b82019150819050979650505050505050565b7f3c646566733e0000000000000000000000000000000000000000000000000000815250565b7f3c726563742069643d227461702220783d223135302220793d2231353022207760008201527f696474683d220000000000000000000000000000000000000000000000000000602082015250565b6000612b2e602683611b48565b9150612b3982612ad2565b602682019050919050565b7f22206865696768743d2200000000000000000000000000000000000000000000815250565b7f222066696c7465723d2275726c2823736861727029222f3e0000000000000000815250565b7f3c726563742069643d22626c75727461702220783d223135302220793d22313560008201527f30222077696474683d2235303022206865696768743d22353030222066696c7460208201527f65723d2275726c2823626c757229222f3e000000000000000000000000000000604082015250565b6000612c12605183611b48565b9150612c1d82612b90565b605182019050919050565b7f3c706174682069643d2270746c2220643d224d20313530203135302051200000815250565b7f2031353020313530205a22207374726f6b653d22626c61636b222f3e00000000815250565b7f3c672069643d22666c6f776572223e0000000000000000000000000000000000815250565b7f3c2f673e3c2f646566733e000000000000000000000000000000000000000000815250565b6000612ccb82612aac565b600682019150612cda82612b21565b9150612ce6828b611b9f565b9150612cf182612b44565b600a82019150612d01828a611b9f565b9150612d0c82612b6a565b601882019150612d1b82612c05565b9150612d2682612c28565b601e82019150612d368289611b9f565b9150612d4182611d0f565b600182019150612d518288611b9f565b9150612d5c82612857565b600582019150612d6c8287611b9f565b9150612d7782611d0f565b600182019150612d878286611b9f565b9150612d9282611d0f565b600182019150612da28285611b9f565b9150612dad82612c4e565b601c82019150612dbc82612c74565b600f82019150612dcc8284611b9f565b9150612dd782612c9a565b600b820191508190509998505050505050505050565b6000612df98286611b9f565b9150612e058285611b9f565b9150612e118284611b9f565b9150819050949350505050565b6000612e2a8285611b9f565b9150612e368284611b9f565b91508190509392505050565b6000612e4d8261212e565b9150612e588361212e565b925082821015612e6b57612e6a611bf2565b5b828203905092915050565b7f3d00000000000000000000000000000000000000000000000000000000000000815250565b7f2200000000000000000000000000000000000000000000000000000000000000815250565b7f2220000000000000000000000000000000000000000000000000000000000000815250565b6000612ef48285611b9f565b9150612eff82612e76565b600182019150612f0e82612e9c565b600182019150612f1e8284611b9f565b9150612f2982612ec2565b6002820191508190509392505050565b7f3c00000000000000000000000000000000000000000000000000000000000000815250565b7f2f3e000000000000000000000000000000000000000000000000000000000000815250565b6000612f9082612f39565b600182019150612fa08285611b9f565b9150612fab82611d0f565b600182019150612fbb8284611b9f565b9150612fc682612f5f565b6002820191508190509392505050565b7f3c75736520786c696e6b3a687265663d2223626c757274617022207472616e7360008201527f666f726d3d22726f746174652800000000000000000000000000000000000000602082015250565b6000613032602d83611b48565b915061303d82612fd6565b602d82019050919050565b7f2c203135302c20313530292220636c69702d706174683d2275726c2823626c7560008201527f72436c697029222f3e0000000000000000000000000000000000000000000000602082015250565b60006130a4602983611b48565b91506130af82613048565b602982019050919050565b7f3c75736520786c696e6b3a687265663d222374617022207472616e73666f726d60008201527f3d22726f74617465280000000000000000000000000000000000000000000000602082015250565b6000613116602983611b48565b9150613121826130ba565b602982019050919050565b7f2c203135302c20313530292220636c69702d706174683d2275726c282370617460008201527f7465726e436c697029222f3e0000000000000000000000000000000000000000602082015250565b6000613188602c83611b48565b91506131938261312c565b602c82019050919050565b60006131a982613025565b91506131b58285611b9f565b91506131c082613097565b91506131cb82613109565b91506131d78284611b9f565b91506131e28261317b565b91508190509392505050565b7f3c75736520786c696e6b3a687265663d222370746c22207472616e73666f726d60008201527f3d22726f74617465280000000000000000000000000000000000000000000000602082015250565b600061324a602983611b48565b9150613255826131ee565b602982019050919050565b7f2c203135302c2031353029222066696c6c3d2268736c28000000000000000000815250565b7f2c313030252c3530252922207374726f6b653d22626c61636b222f3e00000000815250565b60006132b78261323d565b91506132c38285611b9f565b91506132ce82613260565b6017820191506132de8284611b9f565b91506132e982613286565b601c82019150819050939250505056fe3c7374796c653e23656e74697265207b7472616e73666f726d2d6f726967696e3a2031353070782031353070783b616e696d6174696f6e3a20726f7461746520383073206c696e65617220696e66696e6974653b207d406b65796672616d657320726f74617465207b66726f6d207b7472616e73666f726d3a20726f746174652830646567293b7d746f207b7472616e73666f726d3a20726f7461746528333630646567293b7d3c2f7374796c653ea2646970667358221220f63537b58cdef868fd224447581b362326e0e67d8fc814bb951fb433f1f1629c64736f6c634300080c0033","opcodes":"PUSH1 0x80 PUSH1 0x40 MSTORE CALLVALUE DUP1 ISZERO PUSH2 0x10 JUMPI PUSH1 0x0 DUP1 REVERT JUMPDEST POP PUSH2 0x33DE DUP1 PUSH2 0x20 PUSH1 0x0 CODECOPY PUSH1 0x0 RETURN INVALID PUSH1 0x80 PUSH1 0x40 MSTORE CALLVALUE DUP1 ISZERO PUSH2 0x10 JUMPI PUSH1 0x0 DUP1 REVERT JUMPDEST POP PUSH1 0x4 CALLDATASIZE LT PUSH2 0x7D JUMPI PUSH1 0x0 CALLDATALOAD PUSH1 0xE0 SHR DUP1 PUSH4 0x54353F2F GT PUSH2 0x5B JUMPI DUP1 PUSH4 0x54353F2F EQ PUSH2 0x112 JUMPI DUP1 PUSH4 0x594BF5AD EQ PUSH2 0x130 JUMPI DUP1 PUSH4 0x5A312A3D EQ PUSH2 0x160 JUMPI DUP1 PUSH4 0xEFFAAF6A EQ PUSH2 0x17E JUMPI PUSH2 0x7D JUMP JUMPDEST DUP1 PUSH4 0x192A0A1F EQ PUSH2 0x82 JUMPI DUP1 PUSH4 0x2581D8B3 EQ PUSH2 0xB2 JUMPI DUP1 PUSH4 0x37EE03EC EQ PUSH2 0xE2 JUMPI JUMPDEST PUSH1 0x0 DUP1 REVERT JUMPDEST PUSH2 0x9C PUSH1 0x4 DUP1 CALLDATASIZE SUB DUP2 ADD SWAP1 PUSH2 0x97 SWAP2 SWAP1 PUSH2 0x163B JUMP JUMPDEST PUSH2 0x1AE JUMP JUMPDEST PUSH1 0x40 MLOAD PUSH2 0xA9 SWAP2 SWAP1 PUSH2 0x1701 JUMP JUMPDEST PUSH1 0x40 MLOAD DUP1 SWAP2 SUB SWAP1 RETURN JUMPDEST PUSH2 0xCC PUSH1 0x4 DUP1 CALLDATASIZE SUB DUP2 ADD SWAP1 PUSH2 0xC7 SWAP2 SWAP1 PUSH2 0x1890 JUMP JUMPDEST PUSH2 0x1EB JUMP JUMPDEST PUSH1 0x40 MLOAD PUSH2 0xD9 SWAP2 SWAP1 PUSH2 0x1701 JUMP JUMPDEST PUSH1 0x40 MLOAD DUP1 SWAP2 SUB SWAP1 RETURN JUMPDEST PUSH2 0xFC PUSH1 0x4 DUP1 CALLDATASIZE SUB DUP2 ADD SWAP1 PUSH2 0xF7 SWAP2 SWAP1 PUSH2 0x18EC JUMP JUMPDEST PUSH2 0x388 JUMP JUMPDEST PUSH1 0x40 MLOAD PUSH2 0x109 SWAP2 SWAP1 PUSH2 0x1701 JUMP JUMPDEST PUSH1 0x40 MLOAD DUP1 SWAP2 SUB SWAP1 RETURN JUMPDEST PUSH2 0x11A PUSH2 0x538 JUMP JUMPDEST PUSH1 0x40 MLOAD PUSH2 0x127 SWAP2 SWAP1 PUSH2 0x1701 JUMP JUMPDEST PUSH1 0x40 MLOAD DUP1 SWAP2 SUB SWAP1 RETURN JUMPDEST PUSH2 0x14A PUSH1 0x4 DUP1 CALLDATASIZE SUB DUP2 ADD SWAP1 PUSH2 0x145 SWAP2 SWAP1 PUSH2 0x1AA1 JUMP JUMPDEST PUSH2 0x579 JUMP JUMPDEST PUSH1 0x40 MLOAD PUSH2 0x157 SWAP2 SWAP1 PUSH2 0x1701 JUMP JUMPDEST PUSH1 0x40 MLOAD DUP1 SWAP2 SUB SWAP1 RETURN JUMPDEST PUSH2 0x168 PUSH2 0x626 JUMP JUMPDEST PUSH1 0x40 MLOAD PUSH2 0x175 SWAP2 SWAP1 PUSH2 0x1701 JUMP JUMPDEST PUSH1 0x40 MLOAD DUP1 SWAP2 SUB SWAP1 RETURN JUMPDEST PUSH2 0x198 PUSH1 0x4 DUP1 CALLDATASIZE SUB DUP2 ADD SWAP1 PUSH2 0x193 SWAP2 SWAP1 PUSH2 0x18EC JUMP JUMPDEST PUSH2 0x669 JUMP JUMPDEST PUSH1 0x40 MLOAD PUSH2 0x1A5 SWAP2 SWAP1 PUSH2 0x1701 JUMP JUMPDEST PUSH1 0x40 MLOAD DUP1 SWAP2 SUB SWAP1 RETURN JUMPDEST PUSH1 0x60 PUSH2 0x1C5 PUSH2 0x1BC DUP4 PUSH2 0x67D JUMP JUMPDEST PUSH1 0x0 PUSH1 0x8 PUSH2 0x806 JUMP JUMPDEST PUSH1 0x40 MLOAD PUSH1 0x20 ADD PUSH2 0x1D5 SWAP2 SWAP1 PUSH2 0x1BD0 JUMP JUMPDEST PUSH1 0x40 MLOAD PUSH1 0x20 DUP2 DUP4 SUB SUB DUP2 MSTORE SWAP1 PUSH1 0x40 MSTORE SWAP1 POP SWAP2 SWAP1 POP JUMP JUMPDEST PUSH1 0x60 DUP1 PUSH1 0x0 JUMPDEST PUSH1 0x14 DUP2 LT ISZERO PUSH2 0x37D JUMPI PUSH1 0x0 PUSH2 0x206 DUP7 DUP4 PUSH2 0x902 JUMP JUMPDEST SWAP1 POP PUSH1 0x0 PUSH2 0x220 DUP8 PUSH1 0x1 DUP6 PUSH2 0x21B SWAP2 SWAP1 PUSH2 0x1C21 JUMP JUMPDEST PUSH2 0x925 JUMP JUMPDEST SWAP1 POP PUSH1 0x12 DUP4 EQ ISZERO PUSH2 0x252 JUMPI DUP4 PUSH1 0x40 MLOAD PUSH1 0x20 ADD PUSH2 0x23C SWAP2 SWAP1 PUSH2 0x1C9D JUMP JUMPDEST PUSH1 0x40 MLOAD PUSH1 0x20 DUP2 DUP4 SUB SUB DUP2 MSTORE SWAP1 PUSH1 0x40 MSTORE SWAP4 POP PUSH2 0x367 JUMP JUMPDEST PUSH1 0x13 DUP4 EQ ISZERO PUSH2 0x282 JUMPI DUP4 PUSH1 0x40 MLOAD PUSH1 0x20 ADD PUSH2 0x26C SWAP2 SWAP1 PUSH2 0x1CE9 JUMP JUMPDEST PUSH1 0x40 MLOAD PUSH1 0x20 DUP2 DUP4 SUB SUB DUP2 MSTORE SWAP1 PUSH1 0x40 MSTORE SWAP4 POP PUSH2 0x366 JUMP JUMPDEST PUSH1 0x4 DUP4 EQ DUP1 PUSH2 0x291 JUMPI POP PUSH1 0x9 DUP4 EQ JUMPDEST DUP1 PUSH2 0x29C JUMPI POP PUSH1 0xE DUP4 EQ JUMPDEST ISZERO PUSH2 0x2FD JUMPI PUSH1 0x1 ISZERO ISZERO DUP7 ISZERO ISZERO EQ ISZERO PUSH2 0x2D5 JUMPI DUP4 PUSH1 0x40 MLOAD PUSH1 0x20 ADD PUSH2 0x2BF SWAP2 SWAP1 PUSH2 0x1C9D JUMP JUMPDEST PUSH1 0x40 MLOAD PUSH1 0x20 DUP2 DUP4 SUB SUB DUP2 MSTORE SWAP1 PUSH1 0x40 MSTORE SWAP4 POP PUSH2 0x2F8 JUMP JUMPDEST DUP4 PUSH1 0x40 MLOAD PUSH1 0x20 ADD PUSH2 0x2E6 SWAP2 SWAP1 PUSH2 0x1CE9 JUMP JUMPDEST PUSH1 0x40 MLOAD PUSH1 0x20 DUP2 DUP4 SUB SUB DUP2 MSTORE SWAP1 PUSH1 0x40 MSTORE SWAP4 POP JUMPDEST PUSH2 0x365 JUMP JUMPDEST PUSH1 0x80 DUP2 LT ISZERO PUSH2 0x337 JUMPI DUP4 PUSH2 0x310 DUP4 PUSH2 0x67D JUMP JUMPDEST PUSH1 0x40 MLOAD PUSH1 0x20 ADD PUSH2 0x321 SWAP3 SWAP2 SWAP1 PUSH2 0x1D35 JUMP JUMPDEST PUSH1 0x40 MLOAD PUSH1 0x20 DUP2 DUP4 SUB SUB DUP2 MSTORE SWAP1 PUSH1 0x40 MSTORE SWAP4 POP PUSH2 0x364 JUMP JUMPDEST DUP4 PUSH2 0x341 DUP4 PUSH2 0x67D JUMP JUMPDEST PUSH1 0x40 MLOAD PUSH1 0x20 ADD PUSH2 0x352 SWAP3 SWAP2 SWAP1 PUSH2 0x1D8E JUMP JUMPDEST PUSH1 0x40 MLOAD PUSH1 0x20 DUP2 DUP4 SUB SUB DUP2 MSTORE SWAP1 PUSH1 0x40 MSTORE SWAP4 POP JUMPDEST JUMPDEST JUMPDEST JUMPDEST POP POP PUSH1 0x1 DUP2 PUSH2 0x376 SWAP2 SWAP1 PUSH2 0x1C21 JUMP JUMPDEST SWAP1 POP PUSH2 0x1F1 JUMP JUMPDEST POP DUP1 SWAP2 POP POP SWAP3 SWAP2 POP POP JUMP JUMPDEST PUSH1 0x60 PUSH1 0x0 DUP4 PUSH1 0x0 SHL PUSH1 0x40 MLOAD PUSH1 0x20 ADD PUSH2 0x3A0 SWAP2 SWAP1 PUSH2 0x1DFB JUMP JUMPDEST PUSH1 0x40 MLOAD PUSH1 0x20 DUP2 DUP4 SUB SUB DUP2 MSTORE SWAP1 PUSH1 0x40 MSTORE SWAP1 POP PUSH1 0x60 PUSH1 0x1 ISZERO ISZERO DUP5 ISZERO ISZERO EQ ISZERO PUSH2 0x43B JUMPI PUSH2 0x434 PUSH1 0x40 MLOAD DUP1 PUSH1 0x40 ADD PUSH1 0x40 MSTORE DUP1 PUSH1 0x8 DUP2 MSTORE PUSH1 0x20 ADD PUSH32 0x416E696D61746564000000000000000000000000000000000000000000000000 DUP2 MSTORE POP PUSH1 0x40 MLOAD DUP1 PUSH1 0x40 ADD PUSH1 0x40 MSTORE DUP1 PUSH1 0x4 DUP2 MSTORE PUSH1 0x20 ADD PUSH32 0x5472756500000000000000000000000000000000000000000000000000000000 DUP2 MSTORE POP PUSH2 0x93C JUMP JUMPDEST SWAP1 POP PUSH2 0x4B2 JUMP JUMPDEST PUSH2 0x4AF PUSH1 0x40 MLOAD DUP1 PUSH1 0x40 ADD PUSH1 0x40 MSTORE DUP1 PUSH1 0x8 DUP2 MSTORE PUSH1 0x20 ADD PUSH32 0x416E696D61746564000000000000000000000000000000000000000000000000 DUP2 MSTORE POP PUSH1 0x40 MLOAD DUP1 PUSH1 0x40 ADD PUSH1 0x40 MSTORE DUP1 PUSH1 0x5 DUP2 MSTORE PUSH1 0x20 ADD PUSH32 0x46616C7365000000000000000000000000000000000000000000000000000000 DUP2 MSTORE POP PUSH2 0x93C JUMP JUMPDEST SWAP1 POP JUMPDEST PUSH1 0x0 PUSH2 0x4BD DUP4 PUSH2 0x968 JUMP JUMPDEST SWAP1 POP PUSH1 0x0 PUSH2 0x508 PUSH1 0x40 MLOAD DUP1 PUSH1 0x40 ADD PUSH1 0x40 MSTORE DUP1 PUSH1 0xB DUP2 MSTORE PUSH1 0x20 ADD PUSH32 0x506574616C20436F756E74000000000000000000000000000000000000000000 DUP2 MSTORE POP PUSH2 0x503 DUP5 PUSH2 0x67D JUMP JUMPDEST PUSH2 0x93C JUMP JUMPDEST SWAP1 POP DUP3 DUP2 PUSH1 0x40 MLOAD PUSH1 0x20 ADD PUSH2 0x51D SWAP3 SWAP2 SWAP1 PUSH2 0x1EFA JUMP JUMPDEST PUSH1 0x40 MLOAD PUSH1 0x20 DUP2 DUP4 SUB SUB DUP2 MSTORE SWAP1 PUSH1 0x40 MSTORE SWAP5 POP POP POP POP POP SWAP3 SWAP2 POP POP JUMP JUMPDEST PUSH1 0x60 PUSH1 0x0 GAS PUSH1 0x40 MLOAD PUSH1 0x20 ADD PUSH2 0x54D SWAP2 SWAP1 PUSH2 0x1F60 JUMP JUMPDEST PUSH1 0x40 MLOAD PUSH1 0x20 DUP2 DUP4 SUB SUB DUP2 MSTORE SWAP1 PUSH1 0x40 MSTORE DUP1 MLOAD SWAP1 PUSH1 0x20 ADD KECCAK256 PUSH1 0x0 SHR SWAP1 POP PUSH2 0x573 DUP2 PUSH1 0x1 PUSH2 0x9F0 JUMP JUMPDEST SWAP2 POP POP SWAP1 JUMP JUMPDEST PUSH1 0x60 PUSH1 0x0 PUSH2 0x58E PUSH2 0x589 DUP7 PUSH2 0xAB7 JUMP JUMPDEST PUSH2 0x67D JUMP JUMPDEST SWAP1 POP PUSH1 0x0 PUSH2 0x59B DUP7 PUSH2 0xAF4 JUMP JUMPDEST SWAP1 POP PUSH1 0x0 PUSH2 0x5B0 PUSH2 0x5AB DUP9 PUSH2 0xB24 JUMP JUMPDEST PUSH2 0x67D JUMP JUMPDEST SWAP1 POP PUSH1 0x0 PUSH2 0x5BD DUP9 PUSH2 0xB61 JUMP JUMPDEST SWAP1 POP PUSH1 0x0 DUP8 DUP5 PUSH1 0x3 DUP2 LT PUSH2 0x5D4 JUMPI PUSH2 0x5D3 PUSH2 0x1F7B JUMP JUMPDEST JUMPDEST PUSH1 0x20 MUL ADD MLOAD DUP6 DUP9 DUP5 PUSH1 0x3 DUP2 LT PUSH2 0x5ED JUMPI PUSH2 0x5EC PUSH2 0x1F7B JUMP JUMPDEST JUMPDEST PUSH1 0x20 MUL ADD MLOAD DUP6 PUSH1 0x40 MLOAD PUSH1 0x20 ADD PUSH2 0x606 SWAP5 SWAP4 SWAP3 SWAP2 SWAP1 PUSH2 0x1FAA JUMP JUMPDEST PUSH1 0x40 MLOAD PUSH1 0x20 DUP2 DUP4 SUB SUB DUP2 MSTORE SWAP1 PUSH1 0x40 MSTORE SWAP1 POP DUP1 SWAP6 POP POP POP POP POP POP SWAP4 SWAP3 POP POP POP JUMP JUMPDEST PUSH1 0x60 PUSH1 0x0 PUSH1 0x40 MLOAD DUP1 PUSH1 0x40 ADD PUSH1 0x40 MSTORE DUP1 PUSH1 0x1C DUP2 MSTORE PUSH1 0x20 ADD PUSH32 0x54657374696E67204368616E6765206F662044657363726970746F7200000000 DUP2 MSTORE POP SWAP1 POP DUP1 SWAP2 POP POP SWAP1 JUMP JUMPDEST PUSH1 0x60 PUSH2 0x675 DUP4 DUP4 PUSH2 0x9F0 JUMP JUMPDEST SWAP1 POP SWAP3 SWAP2 POP POP JUMP JUMPDEST PUSH1 0x60 PUSH1 0x0 DUP3 EQ ISZERO PUSH2 0x6C5 JUMPI PUSH1 0x40 MLOAD DUP1 PUSH1 0x40 ADD PUSH1 0x40 MSTORE DUP1 PUSH1 0x1 DUP2 MSTORE PUSH1 0x20 ADD PUSH32 0x3000000000000000000000000000000000000000000000000000000000000000 DUP2 MSTORE POP SWAP1 POP PUSH2 0x801 JUMP JUMPDEST PUSH1 0x0 DUP3 SWAP1 POP PUSH1 0x0 JUMPDEST PUSH1 0x0 DUP3 EQ PUSH2 0x6F7 JUMPI DUP1 DUP1 PUSH2 0x6E0 SWAP1 PUSH2 0x1FF7 JUMP JUMPDEST SWAP2 POP POP PUSH1 0xA DUP3 PUSH2 0x6F0 SWAP2 SWAP1 PUSH2 0x206F JUMP JUMPDEST SWAP2 POP PUSH2 0x6CD JUMP JUMPDEST PUSH1 0x0 DUP2 PUSH8 0xFFFFFFFFFFFFFFFF DUP2 GT ISZERO PUSH2 0x713 JUMPI PUSH2 0x712 PUSH2 0x172D JUMP JUMPDEST JUMPDEST PUSH1 0x40 MLOAD SWAP1 DUP1 DUP3 MSTORE DUP1 PUSH1 0x1F ADD PUSH1 0x1F NOT AND PUSH1 0x20 ADD DUP3 ADD PUSH1 0x40 MSTORE DUP1 ISZERO PUSH2 0x745 JUMPI DUP2 PUSH1 0x20 ADD PUSH1 0x1 DUP3 MUL DUP1 CALLDATASIZE DUP4 CALLDATACOPY DUP1 DUP3 ADD SWAP2 POP POP SWAP1 POP JUMPDEST POP SWAP1 POP PUSH1 0x0 DUP3 SWAP1 POP JUMPDEST PUSH1 0x0 DUP7 EQ PUSH2 0x7F9 JUMPI PUSH1 0x1 DUP2 PUSH2 0x763 SWAP2 SWAP1 PUSH2 0x20A0 JUMP JUMPDEST SWAP1 POP PUSH1 0x0 PUSH1 0xA DUP1 DUP9 PUSH2 0x775 SWAP2 SWAP1 PUSH2 0x206F JUMP JUMPDEST PUSH2 0x77F SWAP2 SWAP1 PUSH2 0x20D4 JUMP JUMPDEST DUP8 PUSH2 0x78A SWAP2 SWAP1 PUSH2 0x20A0 JUMP JUMPDEST PUSH1 0x30 PUSH2 0x796 SWAP2 SWAP1 PUSH2 0x213B JUMP JUMPDEST SWAP1 POP PUSH1 0x0 DUP2 PUSH1 0xF8 SHL SWAP1 POP DUP1 DUP5 DUP5 DUP2 MLOAD DUP2 LT PUSH2 0x7B4 JUMPI PUSH2 0x7B3 PUSH2 0x1F7B JUMP JUMPDEST JUMPDEST PUSH1 0x20 ADD ADD SWAP1 PUSH31 0xFFFFFFFFFFFFFFFFFFFFFFFFFFFFFFFFFFFFFFFFFFFFFFFFFFFFFFFFFFFFFF NOT AND SWAP1 DUP2 PUSH1 0x0 BYTE SWAP1 MSTORE8 POP PUSH1 0xA DUP9 PUSH2 0x7F0 SWAP2 SWAP1 PUSH2 0x206F JUMP JUMPDEST SWAP8 POP POP POP PUSH2 0x74E JUMP JUMPDEST DUP2 SWAP5 POP POP POP POP POP JUMPDEST SWAP2 SWAP1 POP JUMP JUMPDEST PUSH1 0x60 PUSH1 0x0 DUP5 SWAP1 POP PUSH1 0x0 DUP5 DUP5 PUSH2 0x81B SWAP2 SWAP1 PUSH2 0x20A0 JUMP JUMPDEST PUSH8 0xFFFFFFFFFFFFFFFF DUP2 GT ISZERO PUSH2 0x834 JUMPI PUSH2 0x833 PUSH2 0x172D JUMP JUMPDEST JUMPDEST PUSH1 0x40 MLOAD SWAP1 DUP1 DUP3 MSTORE DUP1 PUSH1 0x1F ADD PUSH1 0x1F NOT AND PUSH1 0x20 ADD DUP3 ADD PUSH1 0x40 MSTORE DUP1 ISZERO PUSH2 0x866 JUMPI DUP2 PUSH1 0x20 ADD PUSH1 0x1 DUP3 MUL DUP1 CALLDATASIZE DUP4 CALLDATACOPY DUP1 DUP3 ADD SWAP2 POP POP SWAP1 POP JUMPDEST POP SWAP1 POP PUSH1 0x0 DUP6 SWAP1 POP JUMPDEST DUP5 DUP2 LT ISZERO PUSH2 0x8F5 JUMPI DUP3 DUP2 DUP2 MLOAD DUP2 LT PUSH2 0x88A JUMPI PUSH2 0x889 PUSH2 0x1F7B JUMP JUMPDEST JUMPDEST PUSH1 0x20 ADD ADD MLOAD PUSH1 0xF8 SHR PUSH1 0xF8 SHL DUP3 DUP8 DUP4 PUSH2 0x8A2 SWAP2 SWAP1 PUSH2 0x20A0 JUMP JUMPDEST DUP2 MLOAD DUP2 LT PUSH2 0x8B3 JUMPI PUSH2 0x8B2 PUSH2 0x1F7B JUMP JUMPDEST JUMPDEST PUSH1 0x20 ADD ADD SWAP1 PUSH31 0xFFFFFFFFFFFFFFFFFFFFFFFFFFFFFFFFFFFFFFFFFFFFFFFFFFFFFFFFFFFFFF NOT AND SWAP1 DUP2 PUSH1 0x0 BYTE SWAP1 MSTORE8 POP DUP1 DUP1 PUSH2 0x8ED SWAP1 PUSH2 0x1FF7 JUMP JUMPDEST SWAP2 POP POP PUSH2 0x86F JUMP JUMPDEST POP DUP1 SWAP3 POP POP POP SWAP4 SWAP3 POP POP POP JUMP JUMPDEST PUSH1 0x0 PUSH1 0x4 PUSH2 0x910 DUP5 DUP5 PUSH2 0xB91 JUMP JUMPDEST PUSH1 0xFF AND PUSH2 0x91D SWAP2 SWAP1 PUSH2 0x206F JUMP JUMPDEST SWAP1 POP SWAP3 SWAP2 POP POP JUMP JUMPDEST PUSH1 0x0 PUSH2 0x931 DUP4 DUP4 PUSH2 0xB91 JUMP JUMPDEST PUSH1 0xFF AND SWAP1 POP SWAP3 SWAP2 POP POP JUMP JUMPDEST PUSH1 0x60 DUP3 DUP3 PUSH1 0x40 MLOAD PUSH1 0x20 ADD PUSH2 0x951 SWAP3 SWAP2 SWAP1 PUSH2 0x21E4 JUMP JUMPDEST PUSH1 0x40 MLOAD PUSH1 0x20 DUP2 DUP4 SUB SUB DUP2 MSTORE SWAP1 PUSH1 0x40 MSTORE SWAP1 POP SWAP3 SWAP2 POP POP JUMP JUMPDEST PUSH1 0x0 DUP1 PUSH1 0x40 MLOAD DUP1 PUSH1 0xA0 ADD PUSH1 0x40 MSTORE DUP1 PUSH1 0x8 PUSH1 0xFF AND DUP2 MSTORE PUSH1 0x20 ADD PUSH1 0xC PUSH1 0xFF AND DUP2 MSTORE PUSH1 0x20 ADD PUSH1 0x14 PUSH1 0xFF AND DUP2 MSTORE PUSH1 0x20 ADD PUSH1 0x18 PUSH1 0xFF AND DUP2 MSTORE PUSH1 0x20 ADD PUSH1 0x24 PUSH1 0xFF AND DUP2 MSTORE POP SWAP1 POP PUSH1 0x0 PUSH1 0x34 PUSH2 0x9B7 DUP6 PUSH1 0x0 PUSH2 0xB91 JUMP JUMPDEST PUSH2 0x9C1 SWAP2 SWAP1 PUSH2 0x2235 JUMP JUMPDEST PUSH1 0xFF AND SWAP1 POP PUSH1 0x0 DUP3 DUP3 PUSH1 0x5 DUP2 LT PUSH2 0x9DB JUMPI PUSH2 0x9DA PUSH2 0x1F7B JUMP JUMPDEST JUMPDEST PUSH1 0x20 MUL ADD MLOAD PUSH1 0xFF AND SWAP1 POP DUP1 SWAP4 POP POP POP POP SWAP2 SWAP1 POP JUMP JUMPDEST PUSH1 0x60 PUSH1 0x0 DUP4 PUSH1 0x0 SHL PUSH1 0x40 MLOAD PUSH1 0x20 ADD PUSH2 0xA08 SWAP2 SWAP1 PUSH2 0x1DFB JUMP JUMPDEST PUSH1 0x40 MLOAD PUSH1 0x20 DUP2 DUP4 SUB SUB DUP2 MSTORE SWAP1 PUSH1 0x40 MSTORE SWAP1 POP PUSH1 0x0 PUSH2 0xA24 DUP3 PUSH2 0x968 JUMP JUMPDEST SWAP1 POP PUSH1 0x0 DUP2 PUSH2 0x168 PUSH2 0xA36 SWAP2 SWAP1 PUSH2 0x206F JUMP JUMPDEST SWAP1 POP PUSH1 0x0 PUSH1 0x40 MLOAD DUP1 PUSH1 0x20 ADD PUSH1 0x40 MSTORE DUP1 PUSH1 0x0 DUP2 MSTORE POP SWAP1 POP PUSH1 0x1 ISZERO ISZERO DUP7 ISZERO ISZERO EQ ISZERO PUSH2 0xA75 JUMPI PUSH1 0x40 MLOAD DUP1 PUSH1 0xE0 ADD PUSH1 0x40 MSTORE DUP1 PUSH1 0xAF DUP2 MSTORE PUSH1 0x20 ADD PUSH2 0x32FA PUSH1 0xAF SWAP2 CODECOPY SWAP1 POP JUMPDEST DUP1 PUSH2 0xA7F DUP6 PUSH2 0xC47 JUMP JUMPDEST PUSH2 0xA8A DUP7 DUP7 DUP7 PUSH2 0xCC2 JUMP JUMPDEST PUSH1 0x40 MLOAD PUSH1 0x20 ADD PUSH2 0xA9C SWAP4 SWAP3 SWAP2 SWAP1 PUSH2 0x24EC JUMP JUMPDEST PUSH1 0x40 MLOAD PUSH1 0x20 DUP2 DUP4 SUB SUB DUP2 MSTORE SWAP1 PUSH1 0x40 MSTORE SWAP5 POP POP POP POP POP SWAP3 SWAP2 POP POP JUMP JUMPDEST PUSH1 0x0 PUSH2 0x100 PUSH2 0x3E8 PUSH2 0xACA DUP5 PUSH1 0x5 PUSH2 0xB91 JUMP JUMPDEST PUSH1 0xFF AND PUSH2 0xAD7 SWAP2 SWAP1 PUSH2 0x20D4 JUMP JUMPDEST PUSH2 0xAE1 SWAP2 SWAP1 PUSH2 0x206F JUMP JUMPDEST PUSH1 0x1 PUSH2 0xAED SWAP2 SWAP1 PUSH2 0x1C21 JUMP JUMPDEST SWAP1 POP SWAP2 SWAP1 POP JUMP JUMPDEST PUSH1 0x0 PUSH2 0x100 PUSH1 0x3 PUSH2 0xB06 DUP5 PUSH1 0x7 PUSH2 0xB91 JUMP JUMPDEST PUSH1 0xFF AND PUSH2 0xB13 SWAP2 SWAP1 PUSH2 0x20D4 JUMP JUMPDEST PUSH2 0xB1D SWAP2 SWAP1 PUSH2 0x206F JUMP JUMPDEST SWAP1 POP SWAP2 SWAP1 POP JUMP JUMPDEST PUSH1 0x0 PUSH2 0x100 PUSH2 0x3E8 PUSH2 0xB37 DUP5 PUSH1 0x6 PUSH2 0xB91 JUMP JUMPDEST PUSH1 0xFF AND PUSH2 0xB44 SWAP2 SWAP1 PUSH2 0x20D4 JUMP JUMPDEST PUSH2 0xB4E SWAP2 SWAP1 PUSH2 0x206F JUMP JUMPDEST PUSH1 0x1 PUSH2 0xB5A SWAP2 SWAP1 PUSH2 0x1C21 JUMP JUMPDEST SWAP1 POP SWAP2 SWAP1 POP JUMP JUMPDEST PUSH1 0x0 PUSH2 0x100 PUSH1 0x3 PUSH2 0xB73 DUP5 PUSH1 0x8 PUSH2 0xB91 JUMP JUMPDEST PUSH1 0xFF AND PUSH2 0xB80 SWAP2 SWAP1 PUSH2 0x20D4 JUMP JUMPDEST PUSH2 0xB8A SWAP2 SWAP1 PUSH2 0x206F JUMP JUMPDEST SWAP1 POP SWAP2 SWAP1 POP JUMP JUMPDEST PUSH1 0x0 DUP2 PUSH1 0x1 DUP4 PUSH2 0xBA1 SWAP2 SWAP1 PUSH2 0x1C21 JUMP JUMPDEST LT ISZERO PUSH2 0xBE2 JUMPI PUSH1 0x40 MLOAD PUSH32 0x8C379A000000000000000000000000000000000000000000000000000000000 DUP2 MSTORE PUSH1 0x4 ADD PUSH2 0xBD9 SWAP1 PUSH2 0x25B7 JUMP JUMPDEST PUSH1 0x40 MLOAD DUP1 SWAP2 SUB SWAP1 REVERT JUMPDEST PUSH1 0x1 DUP3 PUSH2 0xBEF SWAP2 SWAP1 PUSH2 0x1C21 JUMP JUMPDEST DUP4 MLOAD LT ISZERO PUSH2 0xC32 JUMPI PUSH1 0x40 MLOAD PUSH32 0x8C379A000000000000000000000000000000000000000000000000000000000 DUP2 MSTORE PUSH1 0x4 ADD PUSH2 0xC29 SWAP1 PUSH2 0x2623 JUMP JUMPDEST PUSH1 0x40 MLOAD DUP1 SWAP2 SUB SWAP1 REVERT JUMPDEST PUSH1 0x0 DUP3 PUSH1 0x1 DUP6 ADD ADD MLOAD SWAP1 POP DUP1 SWAP2 POP POP SWAP3 SWAP2 POP POP JUMP JUMPDEST PUSH1 0x60 PUSH1 0x0 PUSH2 0xC56 DUP4 PUSH1 0x1 PUSH2 0xDAB JUMP JUMPDEST SWAP1 POP PUSH1 0x0 PUSH2 0xC65 DUP5 PUSH1 0x0 PUSH2 0xDAB JUMP JUMPDEST SWAP1 POP PUSH1 0x0 PUSH2 0xC72 DUP6 PUSH2 0x124D JUMP JUMPDEST SWAP1 POP PUSH1 0x0 PUSH2 0xC8B DUP3 PUSH1 0x96 PUSH2 0xC86 SWAP2 SWAP1 PUSH2 0x1C21 JUMP JUMPDEST PUSH2 0x67D JUMP JUMPDEST SWAP1 POP DUP4 DUP4 DUP3 DUP4 DUP5 DUP6 PUSH1 0x40 MLOAD PUSH1 0x20 ADD PUSH2 0xCA8 SWAP7 SWAP6 SWAP5 SWAP4 SWAP3 SWAP2 SWAP1 PUSH2 0x2961 JUMP JUMPDEST PUSH1 0x40 MLOAD PUSH1 0x20 DUP2 DUP4 SUB SUB DUP2 MSTORE SWAP1 PUSH1 0x40 MSTORE SWAP5 POP POP POP POP POP SWAP2 SWAP1 POP JUMP JUMPDEST PUSH1 0x60 PUSH1 0x0 PUSH2 0xCD7 PUSH2 0xCD2 DUP7 PUSH2 0x124D JUMP JUMPDEST PUSH2 0x67D JUMP JUMPDEST SWAP1 POP PUSH1 0x0 PUSH2 0xCE4 DUP7 PUSH2 0x127C JUMP JUMPDEST SWAP1 POP PUSH1 0x0 PUSH1 0x2 DUP3 PUSH2 0xCF5 SWAP2 SWAP1 PUSH2 0x20D4 JUMP JUMPDEST SWAP1 POP PUSH1 0x0 PUSH2 0xD04 DUP9 DUP9 DUP9 PUSH2 0x12AB JUMP JUMPDEST SWAP1 POP PUSH1 0x0 DUP5 DUP6 PUSH2 0xD1F DUP7 PUSH1 0x96 PUSH2 0xD1A SWAP2 SWAP1 PUSH2 0x20A0 JUMP JUMPDEST PUSH2 0x67D JUMP JUMPDEST PUSH2 0xD34 DUP7 PUSH1 0x96 PUSH2 0xD2F SWAP2 SWAP1 PUSH2 0x20A0 JUMP JUMPDEST PUSH2 0x67D JUMP JUMPDEST PUSH2 0xD49 DUP8 PUSH1 0x96 PUSH2 0xD44 SWAP2 SWAP1 PUSH2 0x20A0 JUMP JUMPDEST PUSH2 0x67D JUMP JUMPDEST PUSH2 0xD5E DUP10 PUSH1 0x96 PUSH2 0xD59 SWAP2 SWAP1 PUSH2 0x1C21 JUMP JUMPDEST PUSH2 0x67D JUMP JUMPDEST PUSH2 0xD73 DUP10 PUSH1 0x96 PUSH2 0xD6E SWAP2 SWAP1 PUSH2 0x20A0 JUMP JUMPDEST PUSH2 0x67D JUMP JUMPDEST DUP9 PUSH1 0x40 MLOAD PUSH1 0x20 ADD PUSH2 0xD8B SWAP9 SWAP8 SWAP7 SWAP6 SWAP5 SWAP4 SWAP3 SWAP2 SWAP1 PUSH2 0x2CC0 JUMP JUMPDEST PUSH1 0x40 MLOAD PUSH1 0x20 DUP2 DUP4 SUB SUB DUP2 MSTORE SWAP1 PUSH1 0x40 MSTORE SWAP1 POP DUP1 SWAP6 POP POP POP POP POP POP SWAP4 SWAP3 POP POP POP JUMP JUMPDEST PUSH1 0x60 PUSH1 0x0 PUSH2 0xF2C DUP5 PUSH1 0x40 MLOAD DUP1 PUSH1 0x60 ADD PUSH1 0x40 MSTORE DUP1 PUSH1 0x40 MLOAD DUP1 PUSH1 0x40 ADD PUSH1 0x40 MSTORE DUP1 PUSH1 0x3 DUP2 MSTORE PUSH1 0x20 ADD PUSH32 0x302E300000000000000000000000000000000000000000000000000000000000 DUP2 MSTORE POP DUP2 MSTORE PUSH1 0x20 ADD PUSH1 0x40 MLOAD DUP1 PUSH1 0x40 ADD PUSH1 0x40 MSTORE DUP1 PUSH1 0x4 DUP2 MSTORE PUSH1 0x20 ADD PUSH32 0x302E303000000000000000000000000000000000000000000000000000000000 DUP2 MSTORE POP DUP2 MSTORE PUSH1 0x20 ADD PUSH1 0x40 MLOAD DUP1 PUSH1 0x40 ADD PUSH1 0x40 MSTORE DUP1 PUSH1 0x4 DUP2 MSTORE PUSH1 0x20 ADD PUSH32 0x302E303000000000000000000000000000000000000000000000000000000000 DUP2 MSTORE POP DUP2 MSTORE POP PUSH1 0x40 MLOAD DUP1 PUSH1 0x60 ADD PUSH1 0x40 MSTORE DUP1 PUSH1 0x40 MLOAD DUP1 PUSH1 0x40 ADD PUSH1 0x40 MSTORE DUP1 PUSH1 0x3 DUP2 MSTORE PUSH1 0x20 ADD PUSH32 0x302E300000000000000000000000000000000000000000000000000000000000 DUP2 MSTORE POP DUP2 MSTORE PUSH1 0x20 ADD PUSH1 0x40 MLOAD DUP1 PUSH1 0x40 ADD PUSH1 0x40 MSTORE DUP1 PUSH1 0x3 DUP2 MSTORE PUSH1 0x20 ADD PUSH32 0x302E300000000000000000000000000000000000000000000000000000000000 DUP2 MSTORE POP DUP2 MSTORE PUSH1 0x20 ADD PUSH1 0x40 MLOAD DUP1 PUSH1 0x40 ADD PUSH1 0x40 MSTORE DUP1 PUSH1 0x3 DUP2 MSTORE PUSH1 0x20 ADD PUSH32 0x302E300000000000000000000000000000000000000000000000000000000000 DUP2 MSTORE POP DUP2 MSTORE POP PUSH2 0x579 JUMP JUMPDEST SWAP1 POP PUSH1 0x0 PUSH2 0xF41 PUSH2 0xF3C DUP7 PUSH2 0x1478 JUMP JUMPDEST PUSH2 0x67D JUMP JUMPDEST SWAP1 POP PUSH2 0x1094 PUSH1 0x40 MLOAD DUP1 PUSH1 0x40 ADD PUSH1 0x40 MSTORE DUP1 PUSH1 0xC DUP2 MSTORE PUSH1 0x20 ADD PUSH32 0x666554757262756C656E63650000000000000000000000000000000000000000 DUP2 MSTORE POP PUSH2 0xFBB PUSH1 0x40 MLOAD DUP1 PUSH1 0x40 ADD PUSH1 0x40 MSTORE DUP1 PUSH1 0xD DUP2 MSTORE PUSH1 0x20 ADD PUSH32 0x626173654672657175656E637900000000000000000000000000000000000000 DUP2 MSTORE POP DUP6 PUSH2 0x14BF JUMP JUMPDEST PUSH2 0xFFA PUSH1 0x40 MLOAD DUP1 PUSH1 0x40 ADD PUSH1 0x40 MSTORE DUP1 PUSH1 0x4 DUP2 MSTORE PUSH1 0x20 ADD PUSH32 0x7365656400000000000000000000000000000000000000000000000000000000 DUP2 MSTORE POP DUP6 PUSH2 0x14BF JUMP JUMPDEST PUSH2 0x106E PUSH1 0x40 MLOAD DUP1 PUSH1 0x40 ADD PUSH1 0x40 MSTORE DUP1 PUSH1 0x6 DUP2 MSTORE PUSH1 0x20 ADD PUSH32 0x726573756C740000000000000000000000000000000000000000000000000000 DUP2 MSTORE POP PUSH1 0x40 MLOAD DUP1 PUSH1 0x40 ADD PUSH1 0x40 MSTORE DUP1 PUSH1 0x4 DUP2 MSTORE PUSH1 0x20 ADD PUSH32 0x7475726200000000000000000000000000000000000000000000000000000000 DUP2 MSTORE POP PUSH2 0x14BF JUMP JUMPDEST PUSH1 0x40 MLOAD PUSH1 0x20 ADD PUSH2 0x1080 SWAP4 SWAP3 SWAP2 SWAP1 PUSH2 0x2DED JUMP JUMPDEST PUSH1 0x40 MLOAD PUSH1 0x20 DUP2 DUP4 SUB SUB DUP2 MSTORE SWAP1 PUSH1 0x40 MSTORE PUSH2 0x14EB JUMP JUMPDEST PUSH2 0x1223 PUSH1 0x40 MLOAD DUP1 PUSH1 0x40 ADD PUSH1 0x40 MSTORE DUP1 PUSH1 0xD DUP2 MSTORE PUSH1 0x20 ADD PUSH32 0x6665436F6C6F724D617472697800000000000000000000000000000000000000 DUP2 MSTORE POP PUSH2 0x1141 PUSH1 0x40 MLOAD DUP1 PUSH1 0x40 ADD PUSH1 0x40 MSTORE DUP1 PUSH1 0x2 DUP2 MSTORE PUSH1 0x20 ADD PUSH32 0x696E000000000000000000000000000000000000000000000000000000000000 DUP2 MSTORE POP PUSH1 0x40 MLOAD DUP1 PUSH1 0x40 ADD PUSH1 0x40 MSTORE DUP1 PUSH1 0x4 DUP2 MSTORE PUSH1 0x20 ADD PUSH32 0x7475726200000000000000000000000000000000000000000000000000000000 DUP2 MSTORE POP PUSH2 0x14BF JUMP JUMPDEST PUSH2 0x1189 PUSH1 0x40 MLOAD DUP1 PUSH1 0x40 ADD PUSH1 0x40 MSTORE DUP1 PUSH1 0x6 DUP2 MSTORE PUSH1 0x20 ADD PUSH32 0x76616C7565730000000000000000000000000000000000000000000000000000 DUP2 MSTORE POP PUSH2 0x1184 DUP12 DUP12 PUSH2 0x1EB JUMP JUMPDEST PUSH2 0x14BF JUMP JUMPDEST PUSH2 0x11FD PUSH1 0x40 MLOAD DUP1 PUSH1 0x40 ADD PUSH1 0x40 MSTORE DUP1 PUSH1 0x3 DUP2 MSTORE PUSH1 0x20 ADD PUSH32 0x6F75740000000000000000000000000000000000000000000000000000000000 DUP2 MSTORE POP PUSH1 0x40 MLOAD DUP1 PUSH1 0x40 ADD PUSH1 0x40 MSTORE DUP1 PUSH1 0x5 DUP2 MSTORE PUSH1 0x20 ADD PUSH32 0x7475726232000000000000000000000000000000000000000000000000000000 DUP2 MSTORE POP PUSH2 0x14BF JUMP JUMPDEST PUSH1 0x40 MLOAD PUSH1 0x20 ADD PUSH2 0x120F SWAP4 SWAP3 SWAP2 SWAP1 PUSH2 0x2DED JUMP JUMPDEST PUSH1 0x40 MLOAD PUSH1 0x20 DUP2 DUP4 SUB SUB DUP2 MSTORE SWAP1 PUSH1 0x40 MSTORE PUSH2 0x14EB JUMP JUMPDEST PUSH1 0x40 MLOAD PUSH1 0x20 ADD PUSH2 0x1234 SWAP3 SWAP2 SWAP1 PUSH2 0x2E1E JUMP JUMPDEST PUSH1 0x40 MLOAD PUSH1 0x20 DUP2 DUP4 SUB SUB DUP2 MSTORE SWAP1 PUSH1 0x40 MSTORE SWAP3 POP POP POP SWAP3 SWAP2 POP POP JUMP JUMPDEST PUSH1 0x0 PUSH1 0x2 PUSH2 0x125C DUP4 PUSH1 0x1 PUSH2 0xB91 JUMP JUMPDEST PUSH2 0x1266 SWAP2 SWAP1 PUSH2 0x2235 JUMP JUMPDEST PUSH1 0xB4 PUSH2 0x1272 SWAP2 SWAP1 PUSH2 0x2E42 JUMP JUMPDEST PUSH1 0xFF AND SWAP1 POP SWAP2 SWAP1 POP JUMP JUMPDEST PUSH1 0x0 PUSH1 0xD PUSH2 0x128B DUP4 PUSH1 0x9 PUSH2 0xB91 JUMP JUMPDEST PUSH2 0x1295 SWAP2 SWAP1 PUSH2 0x2235 JUMP JUMPDEST PUSH1 0x5 PUSH2 0x12A1 SWAP2 SWAP1 PUSH2 0x213B JUMP JUMPDEST PUSH1 0xFF AND SWAP1 POP SWAP2 SWAP1 POP JUMP JUMPDEST PUSH1 0x60 PUSH1 0x0 PUSH1 0x40 MLOAD DUP1 PUSH1 0x20 ADD PUSH1 0x40 MSTORE DUP1 PUSH1 0x0 DUP2 MSTORE POP SWAP1 POP PUSH1 0x0 PUSH1 0x40 MLOAD DUP1 PUSH1 0x20 ADD PUSH1 0x40 MSTORE DUP1 PUSH1 0x0 DUP2 MSTORE POP SWAP1 POP PUSH1 0x0 PUSH1 0x40 MLOAD DUP1 PUSH1 0x20 ADD PUSH1 0x40 MSTORE DUP1 PUSH1 0x0 DUP2 MSTORE POP SWAP1 POP PUSH1 0x0 JUMPDEST DUP7 DUP2 LT ISZERO PUSH2 0x13C8 JUMPI PUSH1 0x2 PUSH1 0x3 PUSH1 0x4 DUP10 PUSH2 0x1305 SWAP2 SWAP1 PUSH2 0x206F JUMP JUMPDEST PUSH2 0x130F SWAP2 SWAP1 PUSH2 0x20D4 JUMP JUMPDEST PUSH2 0x1319 SWAP2 SWAP1 PUSH2 0x1C21 JUMP JUMPDEST DUP2 LT ISZERO PUSH2 0x13B4 JUMPI DUP3 PUSH2 0x1341 PUSH1 0x1 DUP4 PUSH2 0x1331 SWAP2 SWAP1 PUSH2 0x1C21 JUMP JUMPDEST DUP9 PUSH2 0x133C SWAP2 SWAP1 PUSH2 0x20D4 JUMP JUMPDEST PUSH2 0x1517 JUMP JUMPDEST PUSH1 0x40 MLOAD PUSH1 0x20 ADD PUSH2 0x1352 SWAP3 SWAP2 SWAP1 PUSH2 0x2E1E JUMP JUMPDEST PUSH1 0x40 MLOAD PUSH1 0x20 DUP2 DUP4 SUB SUB DUP2 MSTORE SWAP1 PUSH1 0x40 MSTORE SWAP3 POP DUP2 PUSH2 0x1391 DUP10 PUSH1 0x5A PUSH1 0x1 DUP6 PUSH2 0x1377 SWAP2 SWAP1 PUSH2 0x1C21 JUMP JUMPDEST DUP11 PUSH2 0x1382 SWAP2 SWAP1 PUSH2 0x20D4 JUMP JUMPDEST PUSH2 0x138C SWAP2 SWAP1 PUSH2 0x1C21 JUMP JUMPDEST PUSH2 0x156A JUMP JUMPDEST PUSH1 0x40 MLOAD PUSH1 0x20 ADD PUSH2 0x13A2 SWAP3 SWAP2 SWAP1 PUSH2 0x2E1E JUMP JUMPDEST PUSH1 0x40 MLOAD PUSH1 0x20 DUP2 DUP4 SUB SUB DUP2 MSTORE SWAP1 PUSH1 0x40 MSTORE SWAP2 POP JUMPDEST PUSH1 0x1 DUP2 PUSH2 0x13C1 SWAP2 SWAP1 PUSH2 0x1C21 JUMP JUMPDEST SWAP1 POP PUSH2 0x12EC JUMP JUMPDEST POP DUP1 PUSH2 0x13F7 DUP9 PUSH1 0x5A PUSH1 0x1 DUP11 PUSH2 0x13DD SWAP2 SWAP1 PUSH2 0x1C21 JUMP JUMPDEST DUP10 PUSH2 0x13E8 SWAP2 SWAP1 PUSH2 0x20D4 JUMP JUMPDEST PUSH2 0x13F2 SWAP2 SWAP1 PUSH2 0x1C21 JUMP JUMPDEST PUSH2 0x156A JUMP JUMPDEST PUSH2 0x1424 DUP10 PUSH1 0x5A PUSH1 0x2 DUP12 PUSH2 0x140A SWAP2 SWAP1 PUSH2 0x1C21 JUMP JUMPDEST DUP11 PUSH2 0x1415 SWAP2 SWAP1 PUSH2 0x20D4 JUMP JUMPDEST PUSH2 0x141F SWAP2 SWAP1 PUSH2 0x1C21 JUMP JUMPDEST PUSH2 0x156A JUMP JUMPDEST PUSH1 0x40 MLOAD PUSH1 0x20 ADD PUSH2 0x1436 SWAP4 SWAP3 SWAP2 SWAP1 PUSH2 0x2DED JUMP JUMPDEST PUSH1 0x40 MLOAD PUSH1 0x20 DUP2 DUP4 SUB SUB DUP2 MSTORE SWAP1 PUSH1 0x40 MSTORE SWAP1 POP DUP2 DUP2 PUSH1 0x40 MLOAD PUSH1 0x20 ADD PUSH2 0x145A SWAP3 SWAP2 SWAP1 PUSH2 0x2E1E JUMP JUMPDEST PUSH1 0x40 MLOAD PUSH1 0x20 DUP2 DUP4 SUB SUB DUP2 MSTORE SWAP1 PUSH1 0x40 MSTORE SWAP3 POP DUP3 SWAP4 POP POP POP POP SWAP4 SWAP3 POP POP POP JUMP JUMPDEST PUSH1 0x0 PUSH2 0x1485 DUP3 PUSH1 0x4 PUSH2 0xB91 JUMP JUMPDEST PUSH1 0xFF AND PUSH2 0x1493 DUP4 PUSH1 0x3 PUSH2 0xB91 JUMP JUMPDEST PUSH1 0xFF AND PUSH2 0x14A1 DUP5 PUSH1 0x2 PUSH2 0xB91 JUMP JUMPDEST PUSH1 0xFF AND PUSH2 0x14AE SWAP2 SWAP1 PUSH2 0x20D4 JUMP JUMPDEST PUSH2 0x14B8 SWAP2 SWAP1 PUSH2 0x20D4 JUMP JUMPDEST SWAP1 POP SWAP2 SWAP1 POP JUMP JUMPDEST PUSH1 0x60 DUP3 DUP3 PUSH1 0x40 MLOAD PUSH1 0x20 ADD PUSH2 0x14D4 SWAP3 SWAP2 SWAP1 PUSH2 0x2EE8 JUMP JUMPDEST PUSH1 0x40 MLOAD PUSH1 0x20 DUP2 DUP4 SUB SUB DUP2 MSTORE SWAP1 PUSH1 0x40 MSTORE SWAP1 POP SWAP3 SWAP2 POP POP JUMP JUMPDEST PUSH1 0x60 DUP3 DUP3 PUSH1 0x40 MLOAD PUSH1 0x20 ADD PUSH2 0x1500 SWAP3 SWAP2 SWAP1 PUSH2 0x2F85 JUMP JUMPDEST PUSH1 0x40 MLOAD PUSH1 0x20 DUP2 DUP4 SUB SUB DUP2 MSTORE SWAP1 PUSH1 0x40 MSTORE SWAP1 POP SWAP3 SWAP2 POP POP JUMP JUMPDEST PUSH1 0x60 PUSH2 0x152E PUSH1 0x1 DUP4 PUSH2 0x1529 SWAP2 SWAP1 PUSH2 0x1C21 JUMP JUMPDEST PUSH2 0x67D JUMP JUMPDEST PUSH2 0x1543 PUSH1 0x1 DUP5 PUSH2 0x153E SWAP2 SWAP1 PUSH2 0x1C21 JUMP JUMPDEST PUSH2 0x67D JUMP JUMPDEST PUSH1 0x40 MLOAD PUSH1 0x20 ADD PUSH2 0x1554 SWAP3 SWAP2 SWAP1 PUSH2 0x319E JUMP JUMPDEST PUSH1 0x40 MLOAD PUSH1 0x20 DUP2 DUP4 SUB SUB DUP2 MSTORE SWAP1 PUSH1 0x40 MSTORE SWAP1 POP SWAP2 SWAP1 POP JUMP JUMPDEST PUSH1 0x60 PUSH1 0x0 PUSH2 0x1577 DUP5 PUSH2 0x15C0 JUMP JUMPDEST SWAP1 POP PUSH2 0x158E PUSH1 0x1 DUP5 PUSH2 0x1589 SWAP2 SWAP1 PUSH2 0x1C21 JUMP JUMPDEST PUSH2 0x67D JUMP JUMPDEST PUSH2 0x1597 DUP3 PUSH2 0x67D JUMP JUMPDEST PUSH1 0x40 MLOAD PUSH1 0x20 ADD PUSH2 0x15A8 SWAP3 SWAP2 SWAP1 PUSH2 0x32AC JUMP JUMPDEST PUSH1 0x40 MLOAD PUSH1 0x20 DUP2 DUP4 SUB SUB DUP2 MSTORE SWAP1 PUSH1 0x40 MSTORE SWAP2 POP POP SWAP3 SWAP2 POP POP JUMP JUMPDEST PUSH1 0x0 PUSH2 0x100 PUSH2 0x168 PUSH2 0x15D3 DUP5 PUSH1 0xA PUSH2 0xB91 JUMP JUMPDEST PUSH1 0xFF AND PUSH2 0x15E0 SWAP2 SWAP1 PUSH2 0x20D4 JUMP JUMPDEST PUSH2 0x15EA SWAP2 SWAP1 PUSH2 0x206F JUMP JUMPDEST SWAP1 POP SWAP2 SWAP1 POP JUMP JUMPDEST PUSH1 0x0 PUSH1 0x40 MLOAD SWAP1 POP SWAP1 JUMP JUMPDEST PUSH1 0x0 DUP1 REVERT JUMPDEST PUSH1 0x0 DUP1 REVERT JUMPDEST PUSH1 0x0 DUP2 SWAP1 POP SWAP2 SWAP1 POP JUMP JUMPDEST PUSH2 0x1618 DUP2 PUSH2 0x1605 JUMP JUMPDEST DUP2 EQ PUSH2 0x1623 JUMPI PUSH1 0x0 DUP1 REVERT JUMPDEST POP JUMP JUMPDEST PUSH1 0x0 DUP2 CALLDATALOAD SWAP1 POP PUSH2 0x1635 DUP2 PUSH2 0x160F JUMP JUMPDEST SWAP3 SWAP2 POP POP JUMP JUMPDEST PUSH1 0x0 PUSH1 0x20 DUP3 DUP5 SUB SLT ISZERO PUSH2 0x1651 JUMPI PUSH2 0x1650 PUSH2 0x15FB JUMP JUMPDEST JUMPDEST PUSH1 0x0 PUSH2 0x165F DUP5 DUP3 DUP6 ADD PUSH2 0x1626 JUMP JUMPDEST SWAP2 POP POP SWAP3 SWAP2 POP POP JUMP JUMPDEST PUSH1 0x0 DUP2 MLOAD SWAP1 POP SWAP2 SWAP1 POP JUMP JUMPDEST PUSH1 0x0 DUP3 DUP3 MSTORE PUSH1 0x20 DUP3 ADD SWAP1 POP SWAP3 SWAP2 POP POP JUMP JUMPDEST PUSH1 0x0 JUMPDEST DUP4 DUP2 LT ISZERO PUSH2 0x16A2 JUMPI DUP1 DUP3 ADD MLOAD DUP2 DUP5 ADD MSTORE PUSH1 0x20 DUP2 ADD SWAP1 POP PUSH2 0x1687 JUMP JUMPDEST DUP4 DUP2 GT ISZERO PUSH2 0x16B1 JUMPI PUSH1 0x0 DUP5 DUP5 ADD MSTORE JUMPDEST POP POP POP POP JUMP JUMPDEST PUSH1 0x0 PUSH1 0x1F NOT PUSH1 0x1F DUP4 ADD AND SWAP1 POP SWAP2 SWAP1 POP JUMP JUMPDEST PUSH1 0x0 PUSH2 0x16D3 DUP3 PUSH2 0x1668 JUMP JUMPDEST PUSH2 0x16DD DUP2 DUP6 PUSH2 0x1673 JUMP JUMPDEST SWAP4 POP PUSH2 0x16ED DUP2 DUP6 PUSH1 0x20 DUP7 ADD PUSH2 0x1684 JUMP JUMPDEST PUSH2 0x16F6 DUP2 PUSH2 0x16B7 JUMP JUMPDEST DUP5 ADD SWAP2 POP POP SWAP3 SWAP2 POP POP JUMP JUMPDEST PUSH1 0x0 PUSH1 0x20 DUP3 ADD SWAP1 POP DUP2 DUP2 SUB PUSH1 0x0 DUP4 ADD MSTORE PUSH2 0x171B DUP2 DUP5 PUSH2 0x16C8 JUMP JUMPDEST SWAP1 POP SWAP3 SWAP2 POP POP JUMP JUMPDEST PUSH1 0x0 DUP1 REVERT JUMPDEST PUSH1 0x0 DUP1 REVERT JUMPDEST PUSH32 0x4E487B7100000000000000000000000000000000000000000000000000000000 PUSH1 0x0 MSTORE PUSH1 0x41 PUSH1 0x4 MSTORE PUSH1 0x24 PUSH1 0x0 REVERT JUMPDEST PUSH2 0x1765 DUP3 PUSH2 0x16B7 JUMP JUMPDEST DUP2 ADD DUP2 DUP2 LT PUSH8 0xFFFFFFFFFFFFFFFF DUP3 GT OR ISZERO PUSH2 0x1784 JUMPI PUSH2 0x1783 PUSH2 0x172D JUMP JUMPDEST JUMPDEST DUP1 PUSH1 0x40 MSTORE POP POP POP JUMP JUMPDEST PUSH1 0x0 PUSH2 0x1797 PUSH2 0x15F1 JUMP JUMPDEST SWAP1 POP PUSH2 0x17A3 DUP3 DUP3 PUSH2 0x175C JUMP JUMPDEST SWAP2 SWAP1 POP JUMP JUMPDEST PUSH1 0x0 PUSH8 0xFFFFFFFFFFFFFFFF DUP3 GT ISZERO PUSH2 0x17C3 JUMPI PUSH2 0x17C2 PUSH2 0x172D JUMP JUMPDEST JUMPDEST PUSH2 0x17CC DUP3 PUSH2 0x16B7 JUMP JUMPDEST SWAP1 POP PUSH1 0x20 DUP2 ADD SWAP1 POP SWAP2 SWAP1 POP JUMP JUMPDEST DUP3 DUP2 DUP4 CALLDATACOPY PUSH1 0x0 DUP4 DUP4 ADD MSTORE POP POP POP JUMP JUMPDEST PUSH1 0x0 PUSH2 0x17FB PUSH2 0x17F6 DUP5 PUSH2 0x17A8 JUMP JUMPDEST PUSH2 0x178D JUMP JUMPDEST SWAP1 POP DUP3 DUP2 MSTORE PUSH1 0x20 DUP2 ADD DUP5 DUP5 DUP5 ADD GT ISZERO PUSH2 0x1817 JUMPI PUSH2 0x1816 PUSH2 0x1728 JUMP JUMPDEST JUMPDEST PUSH2 0x1822 DUP5 DUP3 DUP6 PUSH2 0x17D9 JUMP JUMPDEST POP SWAP4 SWAP3 POP POP POP JUMP JUMPDEST PUSH1 0x0 DUP3 PUSH1 0x1F DUP4 ADD SLT PUSH2 0x183F JUMPI PUSH2 0x183E PUSH2 0x1723 JUMP JUMPDEST JUMPDEST DUP2 CALLDATALOAD PUSH2 0x184F DUP5 DUP3 PUSH1 0x20 DUP7 ADD PUSH2 0x17E8 JUMP JUMPDEST SWAP2 POP POP SWAP3 SWAP2 POP POP JUMP JUMPDEST PUSH1 0x0 DUP2 ISZERO ISZERO SWAP1 POP SWAP2 SWAP1 POP JUMP JUMPDEST PUSH2 0x186D DUP2 PUSH2 0x1858 JUMP JUMPDEST DUP2 EQ PUSH2 0x1878 JUMPI PUSH1 0x0 DUP1 REVERT JUMPDEST POP JUMP JUMPDEST PUSH1 0x0 DUP2 CALLDATALOAD SWAP1 POP PUSH2 0x188A DUP2 PUSH2 0x1864 JUMP JUMPDEST SWAP3 SWAP2 POP POP JUMP JUMPDEST PUSH1 0x0 DUP1 PUSH1 0x40 DUP4 DUP6 SUB SLT ISZERO PUSH2 0x18A7 JUMPI PUSH2 0x18A6 PUSH2 0x15FB JUMP JUMPDEST JUMPDEST PUSH1 0x0 DUP4 ADD CALLDATALOAD PUSH8 0xFFFFFFFFFFFFFFFF DUP2 GT ISZERO PUSH2 0x18C5 JUMPI PUSH2 0x18C4 PUSH2 0x1600 JUMP JUMPDEST JUMPDEST PUSH2 0x18D1 DUP6 DUP3 DUP7 ADD PUSH2 0x182A JUMP JUMPDEST SWAP3 POP POP PUSH1 0x20 PUSH2 0x18E2 DUP6 DUP3 DUP7 ADD PUSH2 0x187B JUMP JUMPDEST SWAP2 POP POP SWAP3 POP SWAP3 SWAP1 POP JUMP JUMPDEST PUSH1 0x0 DUP1 PUSH1 0x40 DUP4 DUP6 SUB SLT ISZERO PUSH2 0x1903 JUMPI PUSH2 0x1902 PUSH2 0x15FB JUMP JUMPDEST JUMPDEST PUSH1 0x0 PUSH2 0x1911 DUP6 DUP3 DUP7 ADD PUSH2 0x1626 JUMP JUMPDEST SWAP3 POP POP PUSH1 0x20 PUSH2 0x1922 DUP6 DUP3 DUP7 ADD PUSH2 0x187B JUMP JUMPDEST SWAP2 POP POP SWAP3 POP SWAP3 SWAP1 POP JUMP JUMPDEST PUSH1 0x0 PUSH8 0xFFFFFFFFFFFFFFFF DUP3 GT ISZERO PUSH2 0x1947 JUMPI PUSH2 0x1946 PUSH2 0x172D JUMP JUMPDEST JUMPDEST PUSH1 0x20 DUP3 MUL SWAP1 POP SWAP2 SWAP1 POP JUMP JUMPDEST PUSH1 0x0 DUP1 REVERT JUMPDEST PUSH1 0x0 PUSH8 0xFFFFFFFFFFFFFFFF DUP3 GT ISZERO PUSH2 0x1972 JUMPI PUSH2 0x1971 PUSH2 0x172D JUMP JUMPDEST JUMPDEST PUSH2 0x197B DUP3 PUSH2 0x16B7 JUMP JUMPDEST SWAP1 POP PUSH1 0x20 DUP2 ADD SWAP1 POP SWAP2 SWAP1 POP JUMP JUMPDEST PUSH1 0x0 PUSH2 0x199B PUSH2 0x1996 DUP5 PUSH2 0x1957 JUMP JUMPDEST PUSH2 0x178D JUMP JUMPDEST SWAP1 POP DUP3 DUP2 MSTORE PUSH1 0x20 DUP2 ADD DUP5 DUP5 DUP5 ADD GT ISZERO PUSH2 0x19B7 JUMPI PUSH2 0x19B6 PUSH2 0x1728 JUMP JUMPDEST JUMPDEST PUSH2 0x19C2 DUP5 DUP3 DUP6 PUSH2 0x17D9 JUMP JUMPDEST POP SWAP4 SWAP3 POP POP POP JUMP JUMPDEST PUSH1 0x0 DUP3 PUSH1 0x1F DUP4 ADD SLT PUSH2 0x19DF JUMPI PUSH2 0x19DE PUSH2 0x1723 JUMP JUMPDEST JUMPDEST DUP2 CALLDATALOAD PUSH2 0x19EF DUP5 DUP3 PUSH1 0x20 DUP7 ADD PUSH2 0x1988 JUMP JUMPDEST SWAP2 POP POP SWAP3 SWAP2 POP POP JUMP JUMPDEST PUSH1 0x0 PUSH2 0x1A0B PUSH2 0x1A06 DUP5 PUSH2 0x192C JUMP JUMPDEST PUSH2 0x178D JUMP JUMPDEST SWAP1 POP DUP1 PUSH1 0x20 DUP5 MUL DUP4 ADD DUP6 DUP2 GT ISZERO PUSH2 0x1A25 JUMPI PUSH2 0x1A24 PUSH2 0x1952 JUMP JUMPDEST JUMPDEST DUP4 JUMPDEST DUP2 DUP2 LT ISZERO PUSH2 0x1A6C JUMPI DUP1 CALLDATALOAD PUSH8 0xFFFFFFFFFFFFFFFF DUP2 GT ISZERO PUSH2 0x1A4A JUMPI PUSH2 0x1A49 PUSH2 0x1723 JUMP JUMPDEST JUMPDEST DUP1 DUP7 ADD PUSH2 0x1A57 DUP10 DUP3 PUSH2 0x19CA JUMP JUMPDEST DUP6 MSTORE PUSH1 0x20 DUP6 ADD SWAP5 POP POP POP PUSH1 0x20 DUP2 ADD SWAP1 POP PUSH2 0x1A27 JUMP JUMPDEST POP POP POP SWAP4 SWAP3 POP POP POP JUMP JUMPDEST PUSH1 0x0 DUP3 PUSH1 0x1F DUP4 ADD SLT PUSH2 0x1A8B JUMPI PUSH2 0x1A8A PUSH2 0x1723 JUMP JUMPDEST JUMPDEST PUSH1 0x3 PUSH2 0x1A98 DUP5 DUP3 DUP6 PUSH2 0x19F8 JUMP JUMPDEST SWAP2 POP POP SWAP3 SWAP2 POP POP JUMP JUMPDEST PUSH1 0x0 DUP1 PUSH1 0x0 PUSH1 0x60 DUP5 DUP7 SUB SLT ISZERO PUSH2 0x1ABA JUMPI PUSH2 0x1AB9 PUSH2 0x15FB JUMP JUMPDEST JUMPDEST PUSH1 0x0 DUP5 ADD CALLDATALOAD PUSH8 0xFFFFFFFFFFFFFFFF DUP2 GT ISZERO PUSH2 0x1AD8 JUMPI PUSH2 0x1AD7 PUSH2 0x1600 JUMP JUMPDEST JUMPDEST PUSH2 0x1AE4 DUP7 DUP3 DUP8 ADD PUSH2 0x182A JUMP JUMPDEST SWAP4 POP POP PUSH1 0x20 DUP5 ADD CALLDATALOAD PUSH8 0xFFFFFFFFFFFFFFFF DUP2 GT ISZERO PUSH2 0x1B05 JUMPI PUSH2 0x1B04 PUSH2 0x1600 JUMP JUMPDEST JUMPDEST PUSH2 0x1B11 DUP7 DUP3 DUP8 ADD PUSH2 0x1A76 JUMP JUMPDEST SWAP3 POP POP PUSH1 0x40 DUP5 ADD CALLDATALOAD PUSH8 0xFFFFFFFFFFFFFFFF DUP2 GT ISZERO PUSH2 0x1B32 JUMPI PUSH2 0x1B31 PUSH2 0x1600 JUMP JUMPDEST JUMPDEST PUSH2 0x1B3E DUP7 DUP3 DUP8 ADD PUSH2 0x1A76 JUMP JUMPDEST SWAP2 POP POP SWAP3 POP SWAP3 POP SWAP3 JUMP JUMPDEST PUSH1 0x0 DUP2 SWAP1 POP SWAP3 SWAP2 POP POP JUMP JUMPDEST PUSH32 0x4461697379636861696E20230000000000000000000000000000000000000000 PUSH1 0x0 DUP3 ADD MSTORE POP JUMP JUMPDEST PUSH1 0x0 PUSH2 0x1B89 PUSH1 0xC DUP4 PUSH2 0x1B48 JUMP JUMPDEST SWAP2 POP PUSH2 0x1B94 DUP3 PUSH2 0x1B53 JUMP JUMPDEST PUSH1 0xC DUP3 ADD SWAP1 POP SWAP2 SWAP1 POP JUMP JUMPDEST PUSH1 0x0 PUSH2 0x1BAA DUP3 PUSH2 0x1668 JUMP JUMPDEST PUSH2 0x1BB4 DUP2 DUP6 PUSH2 0x1B48 JUMP JUMPDEST SWAP4 POP PUSH2 0x1BC4 DUP2 DUP6 PUSH1 0x20 DUP7 ADD PUSH2 0x1684 JUMP JUMPDEST DUP1 DUP5 ADD SWAP2 POP POP SWAP3 SWAP2 POP POP JUMP JUMPDEST PUSH1 0x0 PUSH2 0x1BDB DUP3 PUSH2 0x1B7C JUMP JUMPDEST SWAP2 POP PUSH2 0x1BE7 DUP3 DUP5 PUSH2 0x1B9F JUMP JUMPDEST SWAP2 POP DUP2 SWAP1 POP SWAP3 SWAP2 POP POP JUMP JUMPDEST PUSH32 0x4E487B7100000000000000000000000000000000000000000000000000000000 PUSH1 0x0 MSTORE PUSH1 0x11 PUSH1 0x4 MSTORE PUSH1 0x24 PUSH1 0x0 REVERT JUMPDEST PUSH1 0x0 PUSH2 0x1C2C DUP3 PUSH2 0x1605 JUMP JUMPDEST SWAP2 POP PUSH2 0x1C37 DUP4 PUSH2 0x1605 JUMP JUMPDEST SWAP3 POP DUP3 PUSH32 0xFFFFFFFFFFFFFFFFFFFFFFFFFFFFFFFFFFFFFFFFFFFFFFFFFFFFFFFFFFFFFFFF SUB DUP3 GT ISZERO PUSH2 0x1C6C JUMPI PUSH2 0x1C6B PUSH2 0x1BF2 JUMP JUMPDEST JUMPDEST DUP3 DUP3 ADD SWAP1 POP SWAP3 SWAP2 POP POP JUMP JUMPDEST PUSH32 0x3020000000000000000000000000000000000000000000000000000000000000 DUP2 MSTORE POP JUMP JUMPDEST PUSH1 0x0 PUSH2 0x1CA9 DUP3 DUP5 PUSH2 0x1B9F JUMP JUMPDEST SWAP2 POP PUSH2 0x1CB4 DUP3 PUSH2 0x1C77 JUMP JUMPDEST PUSH1 0x2 DUP3 ADD SWAP2 POP DUP2 SWAP1 POP SWAP3 SWAP2 POP POP JUMP JUMPDEST PUSH32 0x3120000000000000000000000000000000000000000000000000000000000000 DUP2 MSTORE POP JUMP JUMPDEST PUSH1 0x0 PUSH2 0x1CF5 DUP3 DUP5 PUSH2 0x1B9F JUMP JUMPDEST SWAP2 POP PUSH2 0x1D00 DUP3 PUSH2 0x1CC3 JUMP JUMPDEST PUSH1 0x2 DUP3 ADD SWAP2 POP DUP2 SWAP1 POP SWAP3 SWAP2 POP POP JUMP JUMPDEST PUSH32 0x2000000000000000000000000000000000000000000000000000000000000000 DUP2 MSTORE POP JUMP JUMPDEST PUSH1 0x0 PUSH2 0x1D41 DUP3 DUP6 PUSH2 0x1B9F JUMP JUMPDEST SWAP2 POP PUSH2 0x1D4D DUP3 DUP5 PUSH2 0x1B9F JUMP JUMPDEST SWAP2 POP PUSH2 0x1D58 DUP3 PUSH2 0x1D0F JUMP JUMPDEST PUSH1 0x1 DUP3 ADD SWAP2 POP DUP2 SWAP1 POP SWAP4 SWAP3 POP POP POP JUMP JUMPDEST PUSH32 0x2D00000000000000000000000000000000000000000000000000000000000000 DUP2 MSTORE POP JUMP JUMPDEST PUSH1 0x0 PUSH2 0x1D9A DUP3 DUP6 PUSH2 0x1B9F JUMP JUMPDEST SWAP2 POP PUSH2 0x1DA5 DUP3 PUSH2 0x1D68 JUMP JUMPDEST PUSH1 0x1 DUP3 ADD SWAP2 POP PUSH2 0x1DB5 DUP3 DUP5 PUSH2 0x1B9F JUMP JUMPDEST SWAP2 POP PUSH2 0x1DC0 DUP3 PUSH2 0x1D0F JUMP JUMPDEST PUSH1 0x1 DUP3 ADD SWAP2 POP DUP2 SWAP1 POP SWAP4 SWAP3 POP POP POP JUMP JUMPDEST PUSH1 0x0 DUP2 SWAP1 POP SWAP2 SWAP1 POP JUMP JUMPDEST PUSH1 0x0 DUP2 SWAP1 POP SWAP2 SWAP1 POP JUMP JUMPDEST PUSH2 0x1DF5 PUSH2 0x1DF0 DUP3 PUSH2 0x1DD0 JUMP JUMPDEST PUSH2 0x1DDA JUMP JUMPDEST DUP3 MSTORE POP POP JUMP JUMPDEST PUSH1 0x0 PUSH2 0x1E07 DUP3 DUP5 PUSH2 0x1DE4 JUMP JUMPDEST PUSH1 0x20 DUP3 ADD SWAP2 POP DUP2 SWAP1 POP SWAP3 SWAP2 POP POP JUMP JUMPDEST PUSH32 0x2261747472696275746573223A205B0000000000000000000000000000000000 PUSH1 0x0 DUP3 ADD MSTORE POP JUMP JUMPDEST PUSH1 0x0 PUSH2 0x1E4C PUSH1 0xF DUP4 PUSH2 0x1B48 JUMP JUMPDEST SWAP2 POP PUSH2 0x1E57 DUP3 PUSH2 0x1E16 JUMP JUMPDEST PUSH1 0xF DUP3 ADD SWAP1 POP SWAP2 SWAP1 POP JUMP JUMPDEST PUSH32 0x2C00000000000000000000000000000000000000000000000000000000000000 PUSH1 0x0 DUP3 ADD MSTORE POP JUMP JUMPDEST PUSH1 0x0 PUSH2 0x1E98 PUSH1 0x1 DUP4 PUSH2 0x1B48 JUMP JUMPDEST SWAP2 POP PUSH2 0x1EA3 DUP3 PUSH2 0x1E62 JUMP JUMPDEST PUSH1 0x1 DUP3 ADD SWAP1 POP SWAP2 SWAP1 POP JUMP JUMPDEST PUSH32 0x5D00000000000000000000000000000000000000000000000000000000000000 PUSH1 0x0 DUP3 ADD MSTORE POP JUMP JUMPDEST PUSH1 0x0 PUSH2 0x1EE4 PUSH1 0x1 DUP4 PUSH2 0x1B48 JUMP JUMPDEST SWAP2 POP PUSH2 0x1EEF DUP3 PUSH2 0x1EAE JUMP JUMPDEST PUSH1 0x1 DUP3 ADD SWAP1 POP SWAP2 SWAP1 POP JUMP JUMPDEST PUSH1 0x0 PUSH2 0x1F05 DUP3 PUSH2 0x1E3F JUMP JUMPDEST SWAP2 POP PUSH2 0x1F11 DUP3 DUP6 PUSH2 0x1B9F JUMP JUMPDEST SWAP2 POP PUSH2 0x1F1C DUP3 PUSH2 0x1E8B JUMP JUMPDEST SWAP2 POP PUSH2 0x1F28 DUP3 DUP5 PUSH2 0x1B9F JUMP JUMPDEST SWAP2 POP PUSH2 0x1F33 DUP3 PUSH2 0x1ED7 JUMP JUMPDEST SWAP2 POP DUP2 SWAP1 POP SWAP4 SWAP3 POP POP POP JUMP JUMPDEST PUSH1 0x0 DUP2 SWAP1 POP SWAP2 SWAP1 POP JUMP JUMPDEST PUSH2 0x1F5A PUSH2 0x1F55 DUP3 PUSH2 0x1605 JUMP JUMPDEST PUSH2 0x1F3F JUMP JUMPDEST DUP3 MSTORE POP POP JUMP JUMPDEST PUSH1 0x0 PUSH2 0x1F6C DUP3 DUP5 PUSH2 0x1F49 JUMP JUMPDEST PUSH1 0x20 DUP3 ADD SWAP2 POP DUP2 SWAP1 POP SWAP3 SWAP2 POP POP JUMP JUMPDEST PUSH32 0x4E487B7100000000000000000000000000000000000000000000000000000000 PUSH1 0x0 MSTORE PUSH1 0x32 PUSH1 0x4 MSTORE PUSH1 0x24 PUSH1 0x0 REVERT JUMPDEST PUSH1 0x0 PUSH2 0x1FB6 DUP3 DUP8 PUSH2 0x1B9F JUMP JUMPDEST SWAP2 POP PUSH2 0x1FC2 DUP3 DUP7 PUSH2 0x1B9F JUMP JUMPDEST SWAP2 POP PUSH2 0x1FCD DUP3 PUSH2 0x1D0F JUMP JUMPDEST PUSH1 0x1 DUP3 ADD SWAP2 POP PUSH2 0x1FDD DUP3 DUP6 PUSH2 0x1B9F JUMP JUMPDEST SWAP2 POP PUSH2 0x1FE9 DUP3 DUP5 PUSH2 0x1B9F JUMP JUMPDEST SWAP2 POP DUP2 SWAP1 POP SWAP6 SWAP5 POP POP POP POP POP JUMP JUMPDEST PUSH1 0x0 PUSH2 0x2002 DUP3 PUSH2 0x1605 JUMP JUMPDEST SWAP2 POP PUSH32 0xFFFFFFFFFFFFFFFFFFFFFFFFFFFFFFFFFFFFFFFFFFFFFFFFFFFFFFFFFFFFFFFF DUP3 EQ ISZERO PUSH2 0x2035 JUMPI PUSH2 0x2034 PUSH2 0x1BF2 JUMP JUMPDEST JUMPDEST PUSH1 0x1 DUP3 ADD SWAP1 POP SWAP2 SWAP1 POP JUMP JUMPDEST PUSH32 0x4E487B7100000000000000000000000000000000000000000000000000000000 PUSH1 0x0 MSTORE PUSH1 0x12 PUSH1 0x4 MSTORE PUSH1 0x24 PUSH1 0x0 REVERT JUMPDEST PUSH1 0x0 PUSH2 0x207A DUP3 PUSH2 0x1605 JUMP JUMPDEST SWAP2 POP PUSH2 0x2085 DUP4 PUSH2 0x1605 JUMP JUMPDEST SWAP3 POP DUP3 PUSH2 0x2095 JUMPI PUSH2 0x2094 PUSH2 0x2040 JUMP JUMPDEST JUMPDEST DUP3 DUP3 DIV SWAP1 POP SWAP3 SWAP2 POP POP JUMP JUMPDEST PUSH1 0x0 PUSH2 0x20AB DUP3 PUSH2 0x1605 JUMP JUMPDEST SWAP2 POP PUSH2 0x20B6 DUP4 PUSH2 0x1605 JUMP JUMPDEST SWAP3 POP DUP3 DUP3 LT ISZERO PUSH2 0x20C9 JUMPI PUSH2 0x20C8 PUSH2 0x1BF2 JUMP JUMPDEST JUMPDEST DUP3 DUP3 SUB SWAP1 POP SWAP3 SWAP2 POP POP JUMP JUMPDEST PUSH1 0x0 PUSH2 0x20DF DUP3 PUSH2 0x1605 JUMP JUMPDEST SWAP2 POP PUSH2 0x20EA DUP4 PUSH2 0x1605 JUMP JUMPDEST SWAP3 POP DUP2 PUSH32 0xFFFFFFFFFFFFFFFFFFFFFFFFFFFFFFFFFFFFFFFFFFFFFFFFFFFFFFFFFFFFFFFF DIV DUP4 GT DUP3 ISZERO ISZERO AND ISZERO PUSH2 0x2123 JUMPI PUSH2 0x2122 PUSH2 0x1BF2 JUMP JUMPDEST JUMPDEST DUP3 DUP3 MUL SWAP1 POP SWAP3 SWAP2 POP POP JUMP JUMPDEST PUSH1 0x0 PUSH1 0xFF DUP3 AND SWAP1 POP SWAP2 SWAP1 POP JUMP JUMPDEST PUSH1 0x0 PUSH2 0x2146 DUP3 PUSH2 0x212E JUMP JUMPDEST SWAP2 POP PUSH2 0x2151 DUP4 PUSH2 0x212E JUMP JUMPDEST SWAP3 POP DUP3 PUSH1 0xFF SUB DUP3 GT ISZERO PUSH2 0x2167 JUMPI PUSH2 0x2166 PUSH2 0x1BF2 JUMP JUMPDEST JUMPDEST DUP3 DUP3 ADD SWAP1 POP SWAP3 SWAP2 POP POP JUMP JUMPDEST PUSH32 0x7B2274726169745F74797065223A202200000000000000000000000000000000 DUP2 MSTORE POP JUMP JUMPDEST PUSH32 0x222C202276616C7565223A202200000000000000000000000000000000000000 DUP2 MSTORE POP JUMP JUMPDEST PUSH32 0x227D000000000000000000000000000000000000000000000000000000000000 DUP2 MSTORE POP JUMP JUMPDEST PUSH1 0x0 PUSH2 0x21EF DUP3 PUSH2 0x2172 JUMP JUMPDEST PUSH1 0x10 DUP3 ADD SWAP2 POP PUSH2 0x21FF DUP3 DUP6 PUSH2 0x1B9F JUMP JUMPDEST SWAP2 POP PUSH2 0x220A DUP3 PUSH2 0x2198 JUMP JUMPDEST PUSH1 0xD DUP3 ADD SWAP2 POP PUSH2 0x221A DUP3 DUP5 PUSH2 0x1B9F JUMP JUMPDEST SWAP2 POP PUSH2 0x2225 DUP3 PUSH2 0x21BE JUMP JUMPDEST PUSH1 0x2 DUP3 ADD SWAP2 POP DUP2 SWAP1 POP SWAP4 SWAP3 POP POP POP JUMP JUMPDEST PUSH1 0x0 PUSH2 0x2240 DUP3 PUSH2 0x212E JUMP JUMPDEST SWAP2 POP PUSH2 0x224B DUP4 PUSH2 0x212E JUMP JUMPDEST SWAP3 POP DUP3 PUSH2 0x225B JUMPI PUSH2 0x225A PUSH2 0x2040 JUMP JUMPDEST JUMPDEST DUP3 DUP3 DIV SWAP1 POP SWAP3 SWAP2 POP POP JUMP JUMPDEST PUSH32 0x3C73766720786D6C6E733D22687474703A2F2F7777772E77332E6F72672F3230 PUSH1 0x0 DUP3 ADD MSTORE PUSH32 0x30302F737667222077696474683D2233303022206865696768743D2233303022 PUSH1 0x20 DUP3 ADD MSTORE PUSH32 0x207374796C653D226261636B67726F756E643A236666662220786D6C6E733A78 PUSH1 0x40 DUP3 ADD MSTORE PUSH32 0x6C696E6B3D22687474703A2F2F7777772E77332E6F72672F313939392F786C69 PUSH1 0x60 DUP3 ADD MSTORE PUSH32 0x6E6B223E00000000000000000000000000000000000000000000000000000000 PUSH1 0x80 DUP3 ADD MSTORE POP JUMP JUMPDEST PUSH1 0x0 PUSH2 0x2334 PUSH1 0x84 DUP4 PUSH2 0x1B48 JUMP JUMPDEST SWAP2 POP PUSH2 0x233F DUP3 PUSH2 0x2266 JUMP JUMPDEST PUSH1 0x84 DUP3 ADD SWAP1 POP SWAP2 SWAP1 POP JUMP JUMPDEST PUSH32 0x3C672069643D22656E74697265223E0000000000000000000000000000000000 DUP2 MSTORE POP JUMP JUMPDEST PUSH32 0x3C75736520786C696E6B3A687265663D2223666C6F7765722220636C69702D70 PUSH1 0x0 DUP3 ADD MSTORE PUSH32 0x6174683D2275726C282368616C66436C69702922207472616E73666F726D3D22 PUSH1 0x20 DUP3 ADD MSTORE PUSH32 0x726F7461746528302C203135302C2031353029222F3E00000000000000000000 PUSH1 0x40 DUP3 ADD MSTORE POP JUMP JUMPDEST PUSH1 0x0 PUSH2 0x23F2 PUSH1 0x56 DUP4 PUSH2 0x1B48 JUMP JUMPDEST SWAP2 POP PUSH2 0x23FD DUP3 PUSH2 0x2370 JUMP JUMPDEST PUSH1 0x56 DUP3 ADD SWAP1 POP SWAP2 SWAP1 POP JUMP JUMPDEST PUSH32 0x3C75736520786C696E6B3A687265663D2223666C6F7765722220636C69702D70 PUSH1 0x0 DUP3 ADD MSTORE PUSH32 0x6174683D2275726C282368616C66436C69702922207472616E73666F726D3D22 PUSH1 0x20 DUP3 ADD MSTORE PUSH32 0x726F74617465283138302C203135302C2031353029222F3E0000000000000000 PUSH1 0x40 DUP3 ADD MSTORE POP JUMP JUMPDEST PUSH1 0x0 PUSH2 0x248A PUSH1 0x58 DUP4 PUSH2 0x1B48 JUMP JUMPDEST SWAP2 POP PUSH2 0x2495 DUP3 PUSH2 0x2408 JUMP JUMPDEST PUSH1 0x58 DUP3 ADD SWAP1 POP SWAP2 SWAP1 POP JUMP JUMPDEST PUSH32 0x3C2F673E00000000000000000000000000000000000000000000000000000000 DUP2 MSTORE POP JUMP JUMPDEST PUSH32 0x3C2F7376673E0000000000000000000000000000000000000000000000000000 DUP2 MSTORE POP JUMP JUMPDEST PUSH1 0x0 PUSH2 0x24F7 DUP3 PUSH2 0x2327 JUMP JUMPDEST SWAP2 POP PUSH2 0x2503 DUP3 DUP7 PUSH2 0x1B9F JUMP JUMPDEST SWAP2 POP PUSH2 0x250F DUP3 DUP6 PUSH2 0x1B9F JUMP JUMPDEST SWAP2 POP PUSH2 0x251A DUP3 PUSH2 0x234A JUMP JUMPDEST PUSH1 0xF DUP3 ADD SWAP2 POP PUSH2 0x252A DUP3 DUP5 PUSH2 0x1B9F JUMP JUMPDEST SWAP2 POP PUSH2 0x2535 DUP3 PUSH2 0x23E5 JUMP JUMPDEST SWAP2 POP PUSH2 0x2540 DUP3 PUSH2 0x247D JUMP JUMPDEST SWAP2 POP PUSH2 0x254B DUP3 PUSH2 0x24A0 JUMP JUMPDEST PUSH1 0x4 DUP3 ADD SWAP2 POP PUSH2 0x255A DUP3 PUSH2 0x24C6 JUMP JUMPDEST PUSH1 0x6 DUP3 ADD SWAP2 POP DUP2 SWAP1 POP SWAP5 SWAP4 POP POP POP POP JUMP JUMPDEST PUSH32 0x746F55696E74385F6F766572666C6F7700000000000000000000000000000000 PUSH1 0x0 DUP3 ADD MSTORE POP JUMP JUMPDEST PUSH1 0x0 PUSH2 0x25A1 PUSH1 0x10 DUP4 PUSH2 0x1673 JUMP JUMPDEST SWAP2 POP PUSH2 0x25AC DUP3 PUSH2 0x256B JUMP JUMPDEST PUSH1 0x20 DUP3 ADD SWAP1 POP SWAP2 SWAP1 POP JUMP JUMPDEST PUSH1 0x0 PUSH1 0x20 DUP3 ADD SWAP1 POP DUP2 DUP2 SUB PUSH1 0x0 DUP4 ADD MSTORE PUSH2 0x25D0 DUP2 PUSH2 0x2594 JUMP JUMPDEST SWAP1 POP SWAP2 SWAP1 POP JUMP JUMPDEST PUSH32 0x746F55696E74385F6F75744F66426F756E647300000000000000000000000000 PUSH1 0x0 DUP3 ADD MSTORE POP JUMP JUMPDEST PUSH1 0x0 PUSH2 0x260D PUSH1 0x13 DUP4 PUSH2 0x1673 JUMP JUMPDEST SWAP2 POP PUSH2 0x2618 DUP3 PUSH2 0x25D7 JUMP JUMPDEST PUSH1 0x20 DUP3 ADD SWAP1 POP SWAP2 SWAP1 POP JUMP JUMPDEST PUSH1 0x0 PUSH1 0x20 DUP3 ADD SWAP1 POP DUP2 DUP2 SUB PUSH1 0x0 DUP4 ADD MSTORE PUSH2 0x263C DUP2 PUSH2 0x2600 JUMP JUMPDEST SWAP1 POP SWAP2 SWAP1 POP JUMP JUMPDEST PUSH32 0x3C66696C7465722069643D22626C7572223E0000000000000000000000000000 DUP2 MSTORE POP JUMP JUMPDEST PUSH32 0x3C6665476175737369616E426C757220737464446576696174696F6E3D223122 PUSH1 0x0 DUP3 ADD MSTORE PUSH32 0x2F3E000000000000000000000000000000000000000000000000000000000000 PUSH1 0x20 DUP3 ADD MSTORE POP JUMP JUMPDEST PUSH1 0x0 PUSH2 0x26C5 PUSH1 0x22 DUP4 PUSH2 0x1B48 JUMP JUMPDEST SWAP2 POP PUSH2 0x26D0 DUP3 PUSH2 0x2669 JUMP JUMPDEST PUSH1 0x22 DUP3 ADD SWAP1 POP SWAP2 SWAP1 POP JUMP JUMPDEST PUSH32 0x3C2F66696C7465723E0000000000000000000000000000000000000000000000 DUP2 MSTORE POP JUMP JUMPDEST PUSH32 0x3C66696C7465722069643D227368617270223E00000000000000000000000000 DUP2 MSTORE POP JUMP JUMPDEST PUSH32 0x3C636C6970506174682069643D22626C7572436C6970223E0000000000000000 DUP2 MSTORE POP JUMP JUMPDEST PUSH32 0x3C7265637420783D223135302220793D22313530222077696474683D22333030 PUSH1 0x0 DUP3 ADD MSTORE PUSH32 0x22206865696768743D22333030222F3E00000000000000000000000000000000 PUSH1 0x20 DUP3 ADD MSTORE POP JUMP JUMPDEST PUSH1 0x0 PUSH2 0x27A9 PUSH1 0x30 DUP4 PUSH2 0x1B48 JUMP JUMPDEST SWAP2 POP PUSH2 0x27B4 DUP3 PUSH2 0x274D JUMP JUMPDEST PUSH1 0x30 DUP3 ADD SWAP1 POP SWAP2 SWAP1 POP JUMP JUMPDEST PUSH32 0x3C2F636C6970506174683E000000000000000000000000000000000000000000 DUP2 MSTORE POP JUMP JUMPDEST PUSH32 0x3C636C6970506174682069643D227061747465726E436C6970223E0000000000 DUP2 MSTORE POP JUMP JUMPDEST PUSH32 0x3C7061746820643D224D2031353020313530204C200000000000000000000000 DUP2 MSTORE POP JUMP JUMPDEST PUSH32 0x2031353020512000000000000000000000000000000000000000000000000000 DUP2 MSTORE POP JUMP JUMPDEST PUSH32 0x2031353020000000000000000000000000000000000000000000000000000000 DUP2 MSTORE POP JUMP JUMPDEST PUSH32 0x205A222F3E3C2F636C6970506174683E00000000000000000000000000000000 DUP2 MSTORE POP JUMP JUMPDEST PUSH32 0x3C636C6970506174682069643D2268616C66436C6970223E0000000000000000 DUP2 MSTORE POP JUMP JUMPDEST PUSH32 0x3C72656374207472616E73666F726D3D22726F7461746528312C203135302C20 PUSH1 0x0 DUP3 ADD MSTORE PUSH32 0x31353029222077696474683D2232363022206865696768743D22363130222078 PUSH1 0x20 DUP3 ADD MSTORE PUSH32 0x3D222D3131302220793D222D313130222F3E0000000000000000000000000000 PUSH1 0x40 DUP3 ADD MSTORE POP JUMP JUMPDEST PUSH1 0x0 PUSH2 0x294B PUSH1 0x52 DUP4 PUSH2 0x1B48 JUMP JUMPDEST SWAP2 POP PUSH2 0x2956 DUP3 PUSH2 0x28C9 JUMP JUMPDEST PUSH1 0x52 DUP3 ADD SWAP1 POP SWAP2 SWAP1 POP JUMP JUMPDEST PUSH1 0x0 PUSH2 0x296C DUP3 PUSH2 0x2643 JUMP JUMPDEST PUSH1 0x12 DUP3 ADD SWAP2 POP PUSH2 0x297C DUP3 DUP10 PUSH2 0x1B9F JUMP JUMPDEST SWAP2 POP PUSH2 0x2987 DUP3 PUSH2 0x26B8 JUMP JUMPDEST SWAP2 POP PUSH2 0x2992 DUP3 PUSH2 0x26DB JUMP JUMPDEST PUSH1 0x9 DUP3 ADD SWAP2 POP PUSH2 0x29A1 DUP3 PUSH2 0x2701 JUMP JUMPDEST PUSH1 0x13 DUP3 ADD SWAP2 POP PUSH2 0x29B1 DUP3 DUP9 PUSH2 0x1B9F JUMP JUMPDEST SWAP2 POP PUSH2 0x29BC DUP3 PUSH2 0x26DB JUMP JUMPDEST PUSH1 0x9 DUP3 ADD SWAP2 POP PUSH2 0x29CB DUP3 PUSH2 0x2727 JUMP JUMPDEST PUSH1 0x18 DUP3 ADD SWAP2 POP PUSH2 0x29DA DUP3 PUSH2 0x279C JUMP JUMPDEST SWAP2 POP PUSH2 0x29E5 DUP3 PUSH2 0x27BF JUMP JUMPDEST PUSH1 0xB DUP3 ADD SWAP2 POP PUSH2 0x29F4 DUP3 PUSH2 0x27E5 JUMP JUMPDEST PUSH1 0x1B DUP3 ADD SWAP2 POP PUSH2 0x2A03 DUP3 PUSH2 0x280B JUMP JUMPDEST PUSH1 0x15 DUP3 ADD SWAP2 POP PUSH2 0x2A13 DUP3 DUP8 PUSH2 0x1B9F JUMP JUMPDEST SWAP2 POP PUSH2 0x2A1E DUP3 PUSH2 0x2831 JUMP JUMPDEST PUSH1 0x7 DUP3 ADD SWAP2 POP PUSH2 0x2A2E DUP3 DUP7 PUSH2 0x1B9F JUMP JUMPDEST SWAP2 POP PUSH2 0x2A39 DUP3 PUSH2 0x1D0F JUMP JUMPDEST PUSH1 0x1 DUP3 ADD SWAP2 POP PUSH2 0x2A49 DUP3 DUP6 PUSH2 0x1B9F JUMP JUMPDEST SWAP2 POP PUSH2 0x2A54 DUP3 PUSH2 0x2857 JUMP JUMPDEST PUSH1 0x5 DUP3 ADD SWAP2 POP PUSH2 0x2A64 DUP3 DUP5 PUSH2 0x1B9F JUMP JUMPDEST SWAP2 POP PUSH2 0x2A6F DUP3 PUSH2 0x287D JUMP JUMPDEST PUSH1 0x10 DUP3 ADD SWAP2 POP PUSH2 0x2A7E DUP3 PUSH2 0x28A3 JUMP JUMPDEST PUSH1 0x18 DUP3 ADD SWAP2 POP PUSH2 0x2A8D DUP3 PUSH2 0x293E JUMP JUMPDEST SWAP2 POP PUSH2 0x2A98 DUP3 PUSH2 0x27BF JUMP JUMPDEST PUSH1 0xB DUP3 ADD SWAP2 POP DUP2 SWAP1 POP SWAP8 SWAP7 POP POP POP POP POP POP POP JUMP JUMPDEST PUSH32 0x3C646566733E0000000000000000000000000000000000000000000000000000 DUP2 MSTORE POP JUMP JUMPDEST PUSH32 0x3C726563742069643D227461702220783D223135302220793D22313530222077 PUSH1 0x0 DUP3 ADD MSTORE PUSH32 0x696474683D220000000000000000000000000000000000000000000000000000 PUSH1 0x20 DUP3 ADD MSTORE POP JUMP JUMPDEST PUSH1 0x0 PUSH2 0x2B2E PUSH1 0x26 DUP4 PUSH2 0x1B48 JUMP JUMPDEST SWAP2 POP PUSH2 0x2B39 DUP3 PUSH2 0x2AD2 JUMP JUMPDEST PUSH1 0x26 DUP3 ADD SWAP1 POP SWAP2 SWAP1 POP JUMP JUMPDEST PUSH32 0x22206865696768743D2200000000000000000000000000000000000000000000 DUP2 MSTORE POP JUMP JUMPDEST PUSH32 0x222066696C7465723D2275726C2823736861727029222F3E0000000000000000 DUP2 MSTORE POP JUMP JUMPDEST PUSH32 0x3C726563742069643D22626C75727461702220783D223135302220793D223135 PUSH1 0x0 DUP3 ADD MSTORE PUSH32 0x30222077696474683D2235303022206865696768743D22353030222066696C74 PUSH1 0x20 DUP3 ADD MSTORE PUSH32 0x65723D2275726C2823626C757229222F3E000000000000000000000000000000 PUSH1 0x40 DUP3 ADD MSTORE POP JUMP JUMPDEST PUSH1 0x0 PUSH2 0x2C12 PUSH1 0x51 DUP4 PUSH2 0x1B48 JUMP JUMPDEST SWAP2 POP PUSH2 0x2C1D DUP3 PUSH2 0x2B90 JUMP JUMPDEST PUSH1 0x51 DUP3 ADD SWAP1 POP SWAP2 SWAP1 POP JUMP JUMPDEST PUSH32 0x3C706174682069643D2270746C2220643D224D20313530203135302051200000 DUP2 MSTORE POP JUMP JUMPDEST PUSH32 0x2031353020313530205A22207374726F6B653D22626C61636B222F3E00000000 DUP2 MSTORE POP JUMP JUMPDEST PUSH32 0x3C672069643D22666C6F776572223E0000000000000000000000000000000000 DUP2 MSTORE POP JUMP JUMPDEST PUSH32 0x3C2F673E3C2F646566733E000000000000000000000000000000000000000000 DUP2 MSTORE POP JUMP JUMPDEST PUSH1 0x0 PUSH2 0x2CCB DUP3 PUSH2 0x2AAC JUMP JUMPDEST PUSH1 0x6 DUP3 ADD SWAP2 POP PUSH2 0x2CDA DUP3 PUSH2 0x2B21 JUMP JUMPDEST SWAP2 POP PUSH2 0x2CE6 DUP3 DUP12 PUSH2 0x1B9F JUMP JUMPDEST SWAP2 POP PUSH2 0x2CF1 DUP3 PUSH2 0x2B44 JUMP JUMPDEST PUSH1 0xA DUP3 ADD SWAP2 POP PUSH2 0x2D01 DUP3 DUP11 PUSH2 0x1B9F JUMP JUMPDEST SWAP2 POP PUSH2 0x2D0C DUP3 PUSH2 0x2B6A JUMP JUMPDEST PUSH1 0x18 DUP3 ADD SWAP2 POP PUSH2 0x2D1B DUP3 PUSH2 0x2C05 JUMP JUMPDEST SWAP2 POP PUSH2 0x2D26 DUP3 PUSH2 0x2C28 JUMP JUMPDEST PUSH1 0x1E DUP3 ADD SWAP2 POP PUSH2 0x2D36 DUP3 DUP10 PUSH2 0x1B9F JUMP JUMPDEST SWAP2 POP PUSH2 0x2D41 DUP3 PUSH2 0x1D0F JUMP JUMPDEST PUSH1 0x1 DUP3 ADD SWAP2 POP PUSH2 0x2D51 DUP3 DUP9 PUSH2 0x1B9F JUMP JUMPDEST SWAP2 POP PUSH2 0x2D5C DUP3 PUSH2 0x2857 JUMP JUMPDEST PUSH1 0x5 DUP3 ADD SWAP2 POP PUSH2 0x2D6C DUP3 DUP8 PUSH2 0x1B9F JUMP JUMPDEST SWAP2 POP PUSH2 0x2D77 DUP3 PUSH2 0x1D0F JUMP JUMPDEST PUSH1 0x1 DUP3 ADD SWAP2 POP PUSH2 0x2D87 DUP3 DUP7 PUSH2 0x1B9F JUMP JUMPDEST SWAP2 POP PUSH2 0x2D92 DUP3 PUSH2 0x1D0F JUMP JUMPDEST PUSH1 0x1 DUP3 ADD SWAP2 POP PUSH2 0x2DA2 DUP3 DUP6 PUSH2 0x1B9F JUMP JUMPDEST SWAP2 POP PUSH2 0x2DAD DUP3 PUSH2 0x2C4E JUMP JUMPDEST PUSH1 0x1C DUP3 ADD SWAP2 POP PUSH2 0x2DBC DUP3 PUSH2 0x2C74 JUMP JUMPDEST PUSH1 0xF DUP3 ADD SWAP2 POP PUSH2 0x2DCC DUP3 DUP5 PUSH2 0x1B9F JUMP JUMPDEST SWAP2 POP PUSH2 0x2DD7 DUP3 PUSH2 0x2C9A JUMP JUMPDEST PUSH1 0xB DUP3 ADD SWAP2 POP DUP2 SWAP1 POP SWAP10 SWAP9 POP POP POP POP POP POP POP POP POP JUMP JUMPDEST PUSH1 0x0 PUSH2 0x2DF9 DUP3 DUP7 PUSH2 0x1B9F JUMP JUMPDEST SWAP2 POP PUSH2 0x2E05 DUP3 DUP6 PUSH2 0x1B9F JUMP JUMPDEST SWAP2 POP PUSH2 0x2E11 DUP3 DUP5 PUSH2 0x1B9F JUMP JUMPDEST SWAP2 POP DUP2 SWAP1 POP SWAP5 SWAP4 POP POP POP POP JUMP JUMPDEST PUSH1 0x0 PUSH2 0x2E2A DUP3 DUP6 PUSH2 0x1B9F JUMP JUMPDEST SWAP2 POP PUSH2 0x2E36 DUP3 DUP5 PUSH2 0x1B9F JUMP JUMPDEST SWAP2 POP DUP2 SWAP1 POP SWAP4 SWAP3 POP POP POP JUMP JUMPDEST PUSH1 0x0 PUSH2 0x2E4D DUP3 PUSH2 0x212E JUMP JUMPDEST SWAP2 POP PUSH2 0x2E58 DUP4 PUSH2 0x212E JUMP JUMPDEST SWAP3 POP DUP3 DUP3 LT ISZERO PUSH2 0x2E6B JUMPI PUSH2 0x2E6A PUSH2 0x1BF2 JUMP JUMPDEST JUMPDEST DUP3 DUP3 SUB SWAP1 POP SWAP3 SWAP2 POP POP JUMP JUMPDEST PUSH32 0x3D00000000000000000000000000000000000000000000000000000000000000 DUP2 MSTORE POP JUMP JUMPDEST PUSH32 0x2200000000000000000000000000000000000000000000000000000000000000 DUP2 MSTORE POP JUMP JUMPDEST PUSH32 0x2220000000000000000000000000000000000000000000000000000000000000 DUP2 MSTORE POP JUMP JUMPDEST PUSH1 0x0 PUSH2 0x2EF4 DUP3 DUP6 PUSH2 0x1B9F JUMP JUMPDEST SWAP2 POP PUSH2 0x2EFF DUP3 PUSH2 0x2E76 JUMP JUMPDEST PUSH1 0x1 DUP3 ADD SWAP2 POP PUSH2 0x2F0E DUP3 PUSH2 0x2E9C JUMP JUMPDEST PUSH1 0x1 DUP3 ADD SWAP2 POP PUSH2 0x2F1E DUP3 DUP5 PUSH2 0x1B9F JUMP JUMPDEST SWAP2 POP PUSH2 0x2F29 DUP3 PUSH2 0x2EC2 JUMP JUMPDEST PUSH1 0x2 DUP3 ADD SWAP2 POP DUP2 SWAP1 POP SWAP4 SWAP3 POP POP POP JUMP JUMPDEST PUSH32 0x3C00000000000000000000000000000000000000000000000000000000000000 DUP2 MSTORE POP JUMP JUMPDEST PUSH32 0x2F3E000000000000000000000000000000000000000000000000000000000000 DUP2 MSTORE POP JUMP JUMPDEST PUSH1 0x0 PUSH2 0x2F90 DUP3 PUSH2 0x2F39 JUMP JUMPDEST PUSH1 0x1 DUP3 ADD SWAP2 POP PUSH2 0x2FA0 DUP3 DUP6 PUSH2 0x1B9F JUMP JUMPDEST SWAP2 POP PUSH2 0x2FAB DUP3 PUSH2 0x1D0F JUMP JUMPDEST PUSH1 0x1 DUP3 ADD SWAP2 POP PUSH2 0x2FBB DUP3 DUP5 PUSH2 0x1B9F JUMP JUMPDEST SWAP2 POP PUSH2 0x2FC6 DUP3 PUSH2 0x2F5F JUMP JUMPDEST PUSH1 0x2 DUP3 ADD SWAP2 POP DUP2 SWAP1 POP SWAP4 SWAP3 POP POP POP JUMP JUMPDEST PUSH32 0x3C75736520786C696E6B3A687265663D2223626C757274617022207472616E73 PUSH1 0x0 DUP3 ADD MSTORE PUSH32 0x666F726D3D22726F746174652800000000000000000000000000000000000000 PUSH1 0x20 DUP3 ADD MSTORE POP JUMP JUMPDEST PUSH1 0x0 PUSH2 0x3032 PUSH1 0x2D DUP4 PUSH2 0x1B48 JUMP JUMPDEST SWAP2 POP PUSH2 0x303D DUP3 PUSH2 0x2FD6 JUMP JUMPDEST PUSH1 0x2D DUP3 ADD SWAP1 POP SWAP2 SWAP1 POP JUMP JUMPDEST PUSH32 0x2C203135302C20313530292220636C69702D706174683D2275726C2823626C75 PUSH1 0x0 DUP3 ADD MSTORE PUSH32 0x72436C697029222F3E0000000000000000000000000000000000000000000000 PUSH1 0x20 DUP3 ADD MSTORE POP JUMP JUMPDEST PUSH1 0x0 PUSH2 0x30A4 PUSH1 0x29 DUP4 PUSH2 0x1B48 JUMP JUMPDEST SWAP2 POP PUSH2 0x30AF DUP3 PUSH2 0x3048 JUMP JUMPDEST PUSH1 0x29 DUP3 ADD SWAP1 POP SWAP2 SWAP1 POP JUMP JUMPDEST PUSH32 0x3C75736520786C696E6B3A687265663D222374617022207472616E73666F726D PUSH1 0x0 DUP3 ADD MSTORE PUSH32 0x3D22726F74617465280000000000000000000000000000000000000000000000 PUSH1 0x20 DUP3 ADD MSTORE POP JUMP JUMPDEST PUSH1 0x0 PUSH2 0x3116 PUSH1 0x29 DUP4 PUSH2 0x1B48 JUMP JUMPDEST SWAP2 POP PUSH2 0x3121 DUP3 PUSH2 0x30BA JUMP JUMPDEST PUSH1 0x29 DUP3 ADD SWAP1 POP SWAP2 SWAP1 POP JUMP JUMPDEST PUSH32 0x2C203135302C20313530292220636C69702D706174683D2275726C2823706174 PUSH1 0x0 DUP3 ADD MSTORE PUSH32 0x7465726E436C697029222F3E0000000000000000000000000000000000000000 PUSH1 0x20 DUP3 ADD MSTORE POP JUMP JUMPDEST PUSH1 0x0 PUSH2 0x3188 PUSH1 0x2C DUP4 PUSH2 0x1B48 JUMP JUMPDEST SWAP2 POP PUSH2 0x3193 DUP3 PUSH2 0x312C JUMP JUMPDEST PUSH1 0x2C DUP3 ADD SWAP1 POP SWAP2 SWAP1 POP JUMP JUMPDEST PUSH1 0x0 PUSH2 0x31A9 DUP3 PUSH2 0x3025 JUMP JUMPDEST SWAP2 POP PUSH2 0x31B5 DUP3 DUP6 PUSH2 0x1B9F JUMP JUMPDEST SWAP2 POP PUSH2 0x31C0 DUP3 PUSH2 0x3097 JUMP JUMPDEST SWAP2 POP PUSH2 0x31CB DUP3 PUSH2 0x3109 JUMP JUMPDEST SWAP2 POP PUSH2 0x31D7 DUP3 DUP5 PUSH2 0x1B9F JUMP JUMPDEST SWAP2 POP PUSH2 0x31E2 DUP3 PUSH2 0x317B JUMP JUMPDEST SWAP2 POP DUP2 SWAP1 POP SWAP4 SWAP3 POP POP POP JUMP JUMPDEST PUSH32 0x3C75736520786C696E6B3A687265663D222370746C22207472616E73666F726D PUSH1 0x0 DUP3 ADD MSTORE PUSH32 0x3D22726F74617465280000000000000000000000000000000000000000000000 PUSH1 0x20 DUP3 ADD MSTORE POP JUMP JUMPDEST PUSH1 0x0 PUSH2 0x324A PUSH1 0x29 DUP4 PUSH2 0x1B48 JUMP JUMPDEST SWAP2 POP PUSH2 0x3255 DUP3 PUSH2 0x31EE JUMP JUMPDEST PUSH1 0x29 DUP3 ADD SWAP1 POP SWAP2 SWAP1 POP JUMP JUMPDEST PUSH32 0x2C203135302C2031353029222066696C6C3D2268736C28000000000000000000 DUP2 MSTORE POP JUMP JUMPDEST PUSH32 0x2C313030252C3530252922207374726F6B653D22626C61636B222F3E00000000 DUP2 MSTORE POP JUMP JUMPDEST PUSH1 0x0 PUSH2 0x32B7 DUP3 PUSH2 0x323D JUMP JUMPDEST SWAP2 POP PUSH2 0x32C3 DUP3 DUP6 PUSH2 0x1B9F JUMP JUMPDEST SWAP2 POP PUSH2 0x32CE DUP3 PUSH2 0x3260 JUMP JUMPDEST PUSH1 0x17 DUP3 ADD SWAP2 POP PUSH2 0x32DE DUP3 DUP5 PUSH2 0x1B9F JUMP JUMPDEST SWAP2 POP PUSH2 0x32E9 DUP3 PUSH2 0x3286 JUMP JUMPDEST PUSH1 0x1C DUP3 ADD SWAP2 POP DUP2 SWAP1 POP SWAP4 SWAP3 POP POP POP JUMP INVALID EXTCODECOPY PUSH20 0x74796C653E23656E74697265207B7472616E7366 PUSH16 0x726D2D6F726967696E3A203135307078 KECCAK256 BALANCE CALLDATALOAD ADDRESS PUSH17 0x783B616E696D6174696F6E3A20726F7461 PUSH21 0x6520383073206C696E65617220696E66696E697465 EXTCODESIZE KECCAK256 PUSH30 0x406B65796672616D657320726F74617465207B66726F6D207B7472616E73 PUSH7 0x6F726D3A20726F PUSH21 0x6174652830646567293B7D746F207B7472616E7366 PUSH16 0x726D3A20726F74617465283336306465 PUSH8 0x293B7D3C2F737479 PUSH13 0x653EA2646970667358221220F6 CALLDATALOAD CALLDATACOPY 0xB5 DUP13 0xDE 0xF8 PUSH9 0xFD224447581B362326 0xE0 0xE6 PUSH30 0x8FC814BB951FB433F1F1629C64736F6C634300080C003300000000000000 "},"methodIdentifiers":{"example()":"54353f2f","generateBaseFrequency(bytes,string[3],string[3])":"594bf5ad","generateColorMatrix(bytes,bool)":"2581d8b3","generateDescription()":"5a312a3d","generateImage(uint256,bool)":"effaaf6a","generateName(uint256)":"192a0a1f","generateTraits(uint256,bool)":"37ee03ec"}}}}}