{"contracts/Collection.sol":{"Collection":{"abi":[{"inputs":[{"internalType":"string","name":"name_","type":"string"},{"internalType":"string","name":"symbol_","type":"string"},{"internalType":"address payable","name":"recipient_","type":"address"},{"internalType":"uint256","name":"startDate_","type":"uint256"},{"internalType":"uint256","name":"endDate_","type":"uint256"},{"internalType":"bytes32","name":"root_","type":"bytes32"}],"stateMutability":"nonpayable","type":"constructor"},{"anonymous":false,"inputs":[{"indexed":true,"internalType":"address","name":"owner","type":"address"},{"indexed":true,"internalType":"address","name":"approved","type":"address"},{"indexed":true,"internalType":"uint256","name":"tokenId","type":"uint256"}],"name":"Approval","type":"event"},{"anonymous":false,"inputs":[{"indexed":true,"internalType":"address","name":"owner","type":"address"},{"indexed":true,"internalType":"address","name":"operator","type":"address"},{"indexed":false,"internalType":"bool","name":"approved","type":"bool"}],"name":"ApprovalForAll","type":"event"},{"anonymous":false,"inputs":[{"indexed":true,"internalType":"address","name":"from","type":"address"},{"indexed":true,"internalType":"address","name":"to","type":"address"},{"indexed":true,"internalType":"uint256","name":"tokenId","type":"uint256"}],"name":"Transfer","type":"event"},{"inputs":[{"internalType":"address","name":"to","type":"address"},{"internalType":"uint256","name":"tokenId","type":"uint256"}],"name":"approve","outputs":[],"stateMutability":"nonpayable","type":"function"},{"inputs":[{"internalType":"address","name":"owner","type":"address"}],"name":"balanceOf","outputs":[{"internalType":"uint256","name":"","type":"uint256"}],"stateMutability":"view","type":"function"},{"inputs":[{"internalType":"address","name":"_newDescriptor","type":"address"}],"name":"changeDescriptor","outputs":[],"stateMutability":"nonpayable","type":"function"},{"inputs":[{"internalType":"address","name":"","type":"address"}],"name":"claimed","outputs":[{"internalType":"bool","name":"","type":"bool"}],"stateMutability":"view","type":"function"},{"inputs":[],"name":"deluxeBuyableSupply","outputs":[{"internalType":"uint256","name":"","type":"uint256"}],"stateMutability":"view","type":"function"},{"inputs":[],"name":"descriptor","outputs":[{"internalType":"contract CollectionDescriptor","name":"","type":"address"}],"stateMutability":"view","type":"function"},{"inputs":[],"name":"endDate","outputs":[{"internalType":"uint256","name":"","type":"uint256"}],"stateMutability":"view","type":"function"},{"inputs":[{"internalType":"uint256","name":"tokenId","type":"uint256"}],"name":"generateBase64Image","outputs":[{"internalType":"string","name":"","type":"string"}],"stateMutability":"view","type":"function"},{"inputs":[{"internalType":"uint256","name":"_seed","type":"uint256"},{"internalType":"address","name":"_owner","type":"address"},{"internalType":"bool","name":"deluxe","type":"bool"}],"name":"generateFullImageFromVM","outputs":[{"internalType":"string","name":"","type":"string"}],"stateMutability":"view","type":"function"},{"inputs":[{"internalType":"uint256","name":"tokenId","type":"uint256"}],"name":"generateImage","outputs":[{"internalType":"string","name":"","type":"string"}],"stateMutability":"view","type":"function"},{"inputs":[{"internalType":"uint256","name":"tokenId","type":"uint256"}],"name":"generateTraits","outputs":[{"internalType":"string","name":"","type":"string"}],"stateMutability":"view","type":"function"},{"inputs":[{"internalType":"uint256","name":"_seed","type":"uint256"},{"internalType":"address","name":"_minter","type":"address"},{"internalType":"bool","name":"deluxe","type":"bool"}],"name":"generateTraitsWithSeedAndAddress","outputs":[{"internalType":"string","name":"","type":"string"}],"stateMutability":"view","type":"function"},{"inputs":[{"internalType":"uint256","name":"tokenId","type":"uint256"}],"name":"getApproved","outputs":[{"internalType":"address","name":"","type":"address"}],"stateMutability":"view","type":"function"},{"inputs":[{"internalType":"address","name":"owner","type":"address"},{"internalType":"address","name":"operator","type":"address"}],"name":"isApprovedForAll","outputs":[{"internalType":"bool","name":"","type":"bool"}],"stateMutability":"view","type":"function"},{"inputs":[{"internalType":"bytes32[]","name":"proof","type":"bytes32[]"}],"name":"loyalMint","outputs":[],"stateMutability":"nonpayable","type":"function"},{"inputs":[{"internalType":"bytes32[]","name":"proof","type":"bytes32[]"},{"internalType":"address","name":"leaf","type":"address"}],"name":"loyalMintLeaf","outputs":[],"stateMutability":"nonpayable","type":"function"},{"inputs":[],"name":"loyaltyRoot","outputs":[{"internalType":"bytes32","name":"","type":"bytes32"}],"stateMutability":"view","type":"function"},{"inputs":[],"name":"mint","outputs":[],"stateMutability":"payable","type":"function"},{"inputs":[{"internalType":"uint256","name":"_seed","type":"uint256"}],"name":"mintDeluxe","outputs":[],"stateMutability":"payable","type":"function"},{"inputs":[],"name":"name","outputs":[{"internalType":"string","name":"","type":"string"}],"stateMutability":"view","type":"function"},{"inputs":[],"name":"owner","outputs":[{"internalType":"address","name":"","type":"address"}],"stateMutability":"view","type":"function"},{"inputs":[{"internalType":"uint256","name":"tokenId","type":"uint256"}],"name":"ownerOf","outputs":[{"internalType":"address","name":"","type":"address"}],"stateMutability":"view","type":"function"},{"inputs":[],"name":"recipient","outputs":[{"internalType":"address payable","name":"","type":"address"}],"stateMutability":"view","type":"function"},{"inputs":[{"internalType":"address","name":"from","type":"address"},{"internalType":"address","name":"to","type":"address"},{"internalType":"uint256","name":"tokenId","type":"uint256"}],"name":"safeTransferFrom","outputs":[],"stateMutability":"nonpayable","type":"function"},{"inputs":[{"internalType":"address","name":"from","type":"address"},{"internalType":"address","name":"to","type":"address"},{"internalType":"uint256","name":"tokenId","type":"uint256"},{"internalType":"bytes","name":"_data","type":"bytes"}],"name":"safeTransferFrom","outputs":[],"stateMutability":"nonpayable","type":"function"},{"inputs":[{"internalType":"address","name":"operator","type":"address"},{"internalType":"bool","name":"approved","type":"bool"}],"name":"setApprovalForAll","outputs":[],"stateMutability":"nonpayable","type":"function"},{"inputs":[],"name":"startDate","outputs":[{"internalType":"uint256","name":"","type":"uint256"}],"stateMutability":"view","type":"function"},{"inputs":[{"internalType":"bytes4","name":"interfaceId","type":"bytes4"}],"name":"supportsInterface","outputs":[{"internalType":"bool","name":"","type":"bool"}],"stateMutability":"view","type":"function"},{"inputs":[],"name":"symbol","outputs":[{"internalType":"string","name":"","type":"string"}],"stateMutability":"view","type":"function"},{"inputs":[{"internalType":"uint256","name":"tokenId","type":"uint256"}],"name":"tokenURI","outputs":[{"internalType":"string","name":"","type":"string"}],"stateMutability":"view","type":"function"},{"inputs":[{"internalType":"address","name":"from","type":"address"},{"internalType":"address","name":"to","type":"address"},{"internalType":"uint256","name":"tokenId","type":"uint256"}],"name":"transferFrom","outputs":[],"stateMutability":"nonpayable","type":"function"},{"inputs":[],"name":"withdrawETH","outputs":[],"stateMutability":"nonpayable","type":"function"}],"evm":{"bytecode":{"linkReferences":{},"object":"608060405273af69610ea9ddc95883f97a6a3171d52165b69b03600660006101000a81548173ffffffffffffffffffffffffffffffffffffffff021916908373ffffffffffffffffffffffffffffffffffffffff1602179055503480156200006657600080fd5b50604051620081113803806200811183398181016040528101906200008c91906200083d565b85858160009080519060200190620000a692919062000507565b508060019080519060200190620000bf92919062000507565b505050604051620000d09062000598565b604051809103906000f080158015620000ed573d6000803e3d6000fd5b50600860006101000a81548173ffffffffffffffffffffffffffffffffffffffff021916908373ffffffffffffffffffffffffffffffffffffffff16021790555083600760006101000a81548173ffffffffffffffffffffffffffffffffffffffff021916908373ffffffffffffffffffffffffffffffffffffffff1602179055508260098190555081600a8190555080600e81905550620001ba600660009054906101000a900473ffffffffffffffffffffffffffffffffffffffff164260016200024060201b60201c565b6001600d6000600660009054906101000a900473ffffffffffffffffffffffffffffffffffffffff1673ffffffffffffffffffffffffffffffffffffffff1673ffffffffffffffffffffffffffffffffffffffff16815260200190815260200160002060006101000a81548160ff02191690831515021790555050505050505062000bb6565b6000828460405160200162000257929190620009a0565b6040516020818303038152906040528051906020012060001c9050600115158215151415620002ac5781600c600083815260200190815260200160002060006101000a81548160ff0219169083151502179055505b620002c38482620002c960201b620019ac1760201c565b50505050565b600073ffffffffffffffffffffffffffffffffffffffff168273ffffffffffffffffffffffffffffffffffffffff1614156200033c576040517f08c379a0000000000000000000000000000000000000000000000000000000008152600401620003339062000a31565b60405180910390fd5b6200034d816200049b60201b60201c565b1562000390576040517f08c379a0000000000000000000000000000000000000000000000000000000008152600401620003879062000aa3565b60405180910390fd5b6001600360008473ffffffffffffffffffffffffffffffffffffffff1673ffffffffffffffffffffffffffffffffffffffff1681526020019081526020016000206000828254620003e2919062000af4565b92505081905550816002600083815260200190815260200160002060006101000a81548173ffffffffffffffffffffffffffffffffffffffff021916908373ffffffffffffffffffffffffffffffffffffffff160217905550808273ffffffffffffffffffffffffffffffffffffffff16600073ffffffffffffffffffffffffffffffffffffffff167fddf252ad1be2c89b69c2b068fc378daa952ba7f163c4a11628f55a4df523b3ef60405160405180910390a45050565b60008073ffffffffffffffffffffffffffffffffffffffff166002600084815260200190815260200160002060009054906101000a900473ffffffffffffffffffffffffffffffffffffffff1673ffffffffffffffffffffffffffffffffffffffff1614159050919050565b828054620005159062000b80565b90600052602060002090601f01602090048101928262000539576000855562000585565b82601f106200055457805160ff191683800117855562000585565b8280016001018555821562000585579182015b828111156200058457825182559160200191906001019062000567565b5b509050620005949190620005a6565b5090565b6133828062004d8f83390190565b5b80821115620005c1576000816000905550600101620005a7565b5090565b6000604051905090565b600080fd5b600080fd5b600080fd5b600080fd5b6000601f19601f8301169050919050565b7f4e487b7100000000000000000000000000000000000000000000000000000000600052604160045260246000fd5b6200062e82620005e3565b810181811067ffffffffffffffff8211171562000650576200064f620005f4565b5b80604052505050565b600062000665620005c5565b905062000673828262000623565b919050565b600067ffffffffffffffff821115620006965762000695620005f4565b5b620006a182620005e3565b9050602081019050919050565b60005b83811015620006ce578082015181840152602081019050620006b1565b83811115620006de576000848401525b50505050565b6000620006fb620006f58462000678565b62000659565b9050828152602081018484840111156200071a5762000719620005de565b5b62000727848285620006ae565b509392505050565b600082601f830112620007475762000746620005d9565b5b815162000759848260208601620006e4565b91505092915050565b600073ffffffffffffffffffffffffffffffffffffffff82169050919050565b60006200078f8262000762565b9050919050565b620007a18162000782565b8114620007ad57600080fd5b50565b600081519050620007c18162000796565b92915050565b6000819050919050565b620007dc81620007c7565b8114620007e857600080fd5b50565b600081519050620007fc81620007d1565b92915050565b6000819050919050565b620008178162000802565b81146200082357600080fd5b50565b60008151905062000837816200080c565b92915050565b60008060008060008060c087890312156200085d576200085c620005cf565b5b600087015167ffffffffffffffff8111156200087e576200087d620005d4565b5b6200088c89828a016200072f565b965050602087015167ffffffffffffffff811115620008b057620008af620005d4565b5b620008be89828a016200072f565b9550506040620008d189828a01620007b0565b9450506060620008e489828a01620007eb565b9350506080620008f789828a01620007eb565b92505060a06200090a89828a0162000826565b9150509295509295509295565b6000819050919050565b620009366200093082620007c7565b62000917565b82525050565b6000620009498262000762565b9050919050565b60008160601b9050919050565b60006200096a8262000950565b9050919050565b60006200097e826200095d565b9050919050565b6200099a62000994826200093c565b62000971565b82525050565b6000620009ae828562000921565b602082019150620009c0828462000985565b6014820191508190509392505050565b600082825260208201905092915050565b7f4552433732313a206d696e7420746f20746865207a65726f2061646472657373600082015250565b600062000a19602083620009d0565b915062000a2682620009e1565b602082019050919050565b6000602082019050818103600083015262000a4c8162000a0a565b9050919050565b7f4552433732313a20746f6b656e20616c7265616479206d696e74656400000000600082015250565b600062000a8b601c83620009d0565b915062000a988262000a53565b602082019050919050565b6000602082019050818103600083015262000abe8162000a7c565b9050919050565b7f4e487b7100000000000000000000000000000000000000000000000000000000600052601160045260246000fd5b600062000b0182620007c7565b915062000b0e83620007c7565b9250827fffffffffffffffffffffffffffffffffffffffffffffffffffffffffffffffff0382111562000b465762000b4562000ac5565b5b828201905092915050565b7f4e487b7100000000000000000000000000000000000000000000000000000000600052602260045260246000fd5b6000600282049050600182168062000b9957607f821691505b6020821081141562000bb05762000baf62000b51565b5b50919050565b6141c98062000bc66000396000f3fe6080604052600436106101e35760003560e01c806370a0823111610102578063b88d4fde11610095578063c884ef8311610064578063c884ef83146106fe578063e086e5ec1461073b578063e985e9c514610752578063fd85b89f1461078f576101e3565b8063b88d4fde14610642578063c24a0f8b1461066b578063c35ab71614610696578063c87b56dd146106c1576101e3565b806395d89b41116100d157806395d89b4114610588578063a22cb465146105b3578063a48b3b8f146105dc578063aba048b414610619576101e3565b806370a08231146104a657806379b92f27146104e35780638da5cb5b1461052057806390346fd41461054b576101e3565b8063423d79391161017a57806366d003ac1161014957806366d003ac1461040b5780636a9f60c4146104365780636d9ec494146104525780636ddab6f91461047d576101e3565b8063423d79391461033f57806342842e0e146103685780634b44d812146103915780636352211e146103ce576101e3565b80630b97bc86116101b65780630b97bc86146102b65780631249c58b146102e157806323b872dd146102eb578063303e74df14610314576101e3565b806301ffc9a7146101e857806306fdde0314610225578063081812fc14610250578063095ea7b31461028d575b600080fd5b3480156101f457600080fd5b5061020f600480360381019061020a91906125e8565b6107cc565b60405161021c9190612630565b60405180910390f35b34801561023157600080fd5b5061023a6108ae565b60405161024791906126e4565b60405180910390f35b34801561025c57600080fd5b506102776004803603810190610272919061273c565b610940565b60405161028491906127aa565b60405180910390f35b34801561029957600080fd5b506102b460048036038101906102af91906127f1565b6109c5565b005b3480156102c257600080fd5b506102cb610acf565b6040516102d89190612840565b60405180910390f35b6102e9610ad5565b005b3480156102f757600080fd5b50610312600480360381019061030d919061285b565b610b2d565b005b34801561032057600080fd5b50610329610b86565b604051610336919061290d565b60405180910390f35b34801561034b57600080fd5b506103666004803603810190610361919061298d565b610bac565b005b34801561037457600080fd5b5061038f600480360381019061038a919061285b565b610d61565b005b34801561039d57600080fd5b506103b860048036038101906103b3919061273c565b610d81565b6040516103c591906126e4565b60405180910390f35b3480156103da57600080fd5b506103f560048036038101906103f0919061273c565b610e53565b60405161040291906127aa565b60405180910390f35b34801561041757600080fd5b50610420610f05565b60405161042d9190612a0e565b60405180910390f35b610450600480360381019061044b919061273c565b610f2b565b005b34801561045e57600080fd5b50610467610fcb565b6040516104749190612a42565b60405180910390f35b34801561048957600080fd5b506104a4600480360381019061049f9190612a5d565b610fd1565b005b3480156104b257600080fd5b506104cd60048036038101906104c89190612a5d565b6110eb565b6040516104da9190612840565b60405180910390f35b3480156104ef57600080fd5b5061050a6004803603810190610505919061273c565b6111a3565b60405161051791906126e4565b60405180910390f35b34801561052c57600080fd5b50610535611275565b60405161054291906127aa565b60405180910390f35b34801561055757600080fd5b50610572600480360381019061056d9190612ab6565b61129b565b60405161057f91906126e4565b60405180910390f35b34801561059457600080fd5b5061059d61137a565b6040516105aa91906126e4565b60405180910390f35b3480156105bf57600080fd5b506105da60048036038101906105d59190612b09565b61140c565b005b3480156105e857600080fd5b5061060360048036038101906105fe919061273c565b611578565b60405161061091906126e4565b60405180910390f35b34801561062557600080fd5b50610640600480360381019061063b9190612b49565b611598565b005b34801561064e57600080fd5b5061066960048036038101906106649190612cc6565b6115a7565b005b34801561067757600080fd5b50610680611602565b60405161068d9190612840565b60405180910390f35b3480156106a257600080fd5b506106ab611608565b6040516106b89190612840565b60405180910390f35b3480156106cd57600080fd5b506106e860048036038101906106e3919061273c565b61160e565b6040516106f591906126e4565b60405180910390f35b34801561070a57600080fd5b5061072560048036038101906107209190612a5d565b61178c565b6040516107329190612630565b60405180910390f35b34801561074757600080fd5b506107506117ac565b005b34801561075e57600080fd5b5061077960048036038101906107749190612d49565b611839565b6040516107869190612630565b60405180910390f35b34801561079b57600080fd5b506107b660048036038101906107b19190612ab6565b6118cd565b6040516107c391906126e4565b60405180910390f35b60007f80ac58cd000000000000000000000000000000000000000000000000000000007bffffffffffffffffffffffffffffffffffffffffffffffffffffffff1916827bffffffffffffffffffffffffffffffffffffffffffffffffffffffff1916148061089757507f5b5e139f000000000000000000000000000000000000000000000000000000007bffffffffffffffffffffffffffffffffffffffffffffffffffffffff1916827bffffffffffffffffffffffffffffffffffffffffffffffffffffffff1916145b806108a757506108a682611b6e565b5b9050919050565b6060600080546108bd90612db8565b80601f01602080910402602001604051908101604052809291908181526020018280546108e990612db8565b80156109365780601f1061090b57610100808354040283529160200191610936565b820191906000526020600020905b81548152906001019060200180831161091957829003601f168201915b5050505050905090565b600061094b82611bd8565b61098a576040517f08c379a000000000000000000000000000000000000000000000000000000000815260040161098190612e5c565b60405180910390fd5b6004600083815260200190815260200160002060009054906101000a900473ffffffffffffffffffffffffffffffffffffffff169050919050565b60006109d082610e53565b90508073ffffffffffffffffffffffffffffffffffffffff168373ffffffffffffffffffffffffffffffffffffffff161415610a41576040517f08c379a0000000000000000000000000000000000000000000000000000000008152600401610a3890612eee565b60405180910390fd5b8073ffffffffffffffffffffffffffffffffffffffff163373ffffffffffffffffffffffffffffffffffffffff161480610a815750610a808133611839565b5b610ac0576040517f08c379a0000000000000000000000000000000000000000000000000000000008152600401610ab790612f80565b60405180910390fd5b610aca8383611c44565b505050565b60095481565b664e28e2290f0000341015610b1f576040517f08c379a0000000000000000000000000000000000000000000000000000000008152600401610b1690612fec565b60405180910390fd5b610b2b33426000611cfd565b565b610b373382611d95565b610b76576040517f08c379a0000000000000000000000000000000000000000000000000000000008152600401610b6d9061307e565b60405180910390fd5b610b81838383611e73565b505050565b600860009054906101000a900473ffffffffffffffffffffffffffffffffffffffff1681565b60001515600d60008373ffffffffffffffffffffffffffffffffffffffff1673ffffffffffffffffffffffffffffffffffffffff16815260200190815260200160002060009054906101000a900460ff16151514610c3f576040517f08c379a0000000000000000000000000000000000000000000000000000000008152600401610c36906130ea565b60405180910390fd5b6001600d60008373ffffffffffffffffffffffffffffffffffffffff1673ffffffffffffffffffffffffffffffffffffffff16815260200190815260200160002060006101000a81548160ff021916908315150217905550600081604051602001610caa9190613152565b604051602081830303815290604052805190602001209050610d10848480806020026020016040519081016040528093929190818152602001838360200280828437600081840152601f19601f82011690508083019250505050505050600e54836120c4565b610d4f576040517f08c379a0000000000000000000000000000000000000000000000000000000008152600401610d46906131b9565b60405180910390fd5b610d5b82426001611cfd565b50505050565b610d7c838383604051806020016040528060008152506115a7565b505050565b60606000600c600084815260200190815260200160002060009054906101000a900460ff169050600860009054906101000a900473ffffffffffffffffffffffffffffffffffffffff1673ffffffffffffffffffffffffffffffffffffffff1663effaaf6a84836040518363ffffffff1660e01b8152600401610e059291906131d9565b600060405180830381865afa158015610e22573d6000803e3d6000fd5b505050506040513d6000823e3d601f19601f82011682018060405250810190610e4b91906132a3565b915050919050565b6000806002600084815260200190815260200160002060009054906101000a900473ffffffffffffffffffffffffffffffffffffffff169050600073ffffffffffffffffffffffffffffffffffffffff168173ffffffffffffffffffffffffffffffffffffffff161415610efc576040517f08c379a0000000000000000000000000000000000000000000000000000000008152600401610ef39061335e565b60405180910390fd5b80915050919050565b600760009054906101000a900473ffffffffffffffffffffffffffffffffffffffff1681565b6060600b541115610f71576040517f08c379a0000000000000000000000000000000000000000000000000000000008152600401610f68906133ca565b60405180910390fd5b670106e69ba1610000341015610fbc576040517f08c379a0000000000000000000000000000000000000000000000000000000008152600401610fb390612fec565b60405180910390fd5b610fc833826001611cfd565b50565b600e5481565b600660009054906101000a900473ffffffffffffffffffffffffffffffffffffffff1673ffffffffffffffffffffffffffffffffffffffff163373ffffffffffffffffffffffffffffffffffffffff1614611061576040517f08c379a000000000000000000000000000000000000000000000000000000000815260040161105890613436565b60405180910390fd5b636569685042106110a7576040517f08c379a000000000000000000000000000000000000000000000000000000000815260040161109e906134a2565b60405180910390fd5b80600860006101000a81548173ffffffffffffffffffffffffffffffffffffffff021916908373ffffffffffffffffffffffffffffffffffffffff16021790555050565b60008073ffffffffffffffffffffffffffffffffffffffff168273ffffffffffffffffffffffffffffffffffffffff16141561115c576040517f08c379a000000000000000000000000000000000000000000000000000000000815260040161115390613534565b60405180910390fd5b600360008373ffffffffffffffffffffffffffffffffffffffff1673ffffffffffffffffffffffffffffffffffffffff168152602001908152602001600020549050919050565b60606000600c600084815260200190815260200160002060009054906101000a900460ff169050600860009054906101000a900473ffffffffffffffffffffffffffffffffffffffff1673ffffffffffffffffffffffffffffffffffffffff166337ee03ec84836040518363ffffffff1660e01b81526004016112279291906131d9565b600060405180830381865afa158015611244573d6000803e3d6000fd5b505050506040513d6000823e3d601f19601f8201168201806040525081019061126d91906132a3565b915050919050565b600660009054906101000a900473ffffffffffffffffffffffffffffffffffffffff1681565b6060600084846040516020016112b2929190613575565b6040516020818303038152906040528051906020012060001c9050600860009054906101000a900473ffffffffffffffffffffffffffffffffffffffff1673ffffffffffffffffffffffffffffffffffffffff166337ee03ec82856040518363ffffffff1660e01b815260040161132a9291906131d9565b600060405180830381865afa158015611347573d6000803e3d6000fd5b505050506040513d6000823e3d601f19601f8201168201806040525081019061137091906132a3565b9150509392505050565b60606001805461138990612db8565b80601f01602080910402602001604051908101604052809291908181526020018280546113b590612db8565b80156114025780601f106113d757610100808354040283529160200191611402565b820191906000526020600020905b8154815290600101906020018083116113e557829003601f168201915b5050505050905090565b3373ffffffffffffffffffffffffffffffffffffffff168273ffffffffffffffffffffffffffffffffffffffff16141561147b576040517f08c379a0000000000000000000000000000000000000000000000000000000008152600401611472906135ed565b60405180910390fd5b80600560003373ffffffffffffffffffffffffffffffffffffffff1673ffffffffffffffffffffffffffffffffffffffff16815260200190815260200160002060008473ffffffffffffffffffffffffffffffffffffffff1673ffffffffffffffffffffffffffffffffffffffff16815260200190815260200160002060006101000a81548160ff0219169083151502179055508173ffffffffffffffffffffffffffffffffffffffff163373ffffffffffffffffffffffffffffffffffffffff167f17307eab39ab6107e8899845ad3d59bd9653f200f220920489ca2b5937696c318360405161156c9190612630565b60405180910390a35050565b6060600061158583610d81565b9050611590816120db565b915050919050565b6115a3828233610bac565b5050565b6115b13383611d95565b6115f0576040517f08c379a00000000000000000000000000000000000000000000000000000000081526004016115e79061307e565b60405180910390fd5b6115fc84848484612260565b50505050565b600a5481565b600b5481565b606061161982611bd8565b611658576040517f08c379a000000000000000000000000000000000000000000000000000000000815260040161164f9061367f565b60405180910390fd5b6000600860009054906101000a900473ffffffffffffffffffffffffffffffffffffffff1673ffffffffffffffffffffffffffffffffffffffff1663192a0a1f846040518263ffffffff1660e01b81526004016116b59190612840565b600060405180830381865afa1580156116d2573d6000803e3d6000fd5b505050506040513d6000823e3d601f19601f820116820180604052508101906116fb91906132a3565b905060006040518060a001604052806069815260200161412b606991399050600061172585611578565b90506000611732866111a3565b90506117628484848460405160200161174e94939291906138a3565b6040516020818303038152906040526120db565b604051602001611772919061396f565b604051602081830303815290604052945050505050919050565b600d6020528060005260406000206000915054906101000a900460ff1681565b600760009054906101000a900473ffffffffffffffffffffffffffffffffffffffff1673ffffffffffffffffffffffffffffffffffffffff16476040516117f2906139c2565b60006040518083038185875af1925050503d806000811461182f576040519150601f19603f3d011682016040523d82523d6000602084013e611834565b606091505b505050565b6000600560008473ffffffffffffffffffffffffffffffffffffffff1673ffffffffffffffffffffffffffffffffffffffff16815260200190815260200160002060008373ffffffffffffffffffffffffffffffffffffffff1673ffffffffffffffffffffffffffffffffffffffff16815260200190815260200160002060009054906101000a900460ff16905092915050565b6060600084846040516020016118e4929190613575565b6040516020818303038152906040528051906020012060001c9050600860009054906101000a900473ffffffffffffffffffffffffffffffffffffffff1673ffffffffffffffffffffffffffffffffffffffff1663effaaf6a82856040518363ffffffff1660e01b815260040161195c9291906131d9565b600060405180830381865afa158015611979573d6000803e3d6000fd5b505050506040513d6000823e3d601f19601f820116820180604052508101906119a291906132a3565b9150509392505050565b600073ffffffffffffffffffffffffffffffffffffffff168273ffffffffffffffffffffffffffffffffffffffff161415611a1c576040517f08c379a0000000000000000000000000000000000000000000000000000000008152600401611a1390613a23565b60405180910390fd5b611a2581611bd8565b15611a65576040517f08c379a0000000000000000000000000000000000000000000000000000000008152600401611a5c90613a8f565b60405180910390fd5b6001600360008473ffffffffffffffffffffffffffffffffffffffff1673ffffffffffffffffffffffffffffffffffffffff1681526020019081526020016000206000828254611ab59190613ade565b92505081905550816002600083815260200190815260200160002060006101000a81548173ffffffffffffffffffffffffffffffffffffffff021916908373ffffffffffffffffffffffffffffffffffffffff160217905550808273ffffffffffffffffffffffffffffffffffffffff16600073ffffffffffffffffffffffffffffffffffffffff167fddf252ad1be2c89b69c2b068fc378daa952ba7f163c4a11628f55a4df523b3ef60405160405180910390a45050565b60007f01ffc9a7000000000000000000000000000000000000000000000000000000007bffffffffffffffffffffffffffffffffffffffffffffffffffffffff1916827bffffffffffffffffffffffffffffffffffffffffffffffffffffffff1916149050919050565b60008073ffffffffffffffffffffffffffffffffffffffff166002600084815260200190815260200160002060009054906101000a900473ffffffffffffffffffffffffffffffffffffffff1673ffffffffffffffffffffffffffffffffffffffff1614159050919050565b816004600083815260200190815260200160002060006101000a81548173ffffffffffffffffffffffffffffffffffffffff021916908373ffffffffffffffffffffffffffffffffffffffff160217905550808273ffffffffffffffffffffffffffffffffffffffff16611cb783610e53565b73ffffffffffffffffffffffffffffffffffffffff167f8c5be1e5ebec7d5bd14f71427d1e84f3dd0314c0f7b2291e5b200ac8c7c3b92560405160405180910390a45050565b6009544211611d41576040517f08c379a0000000000000000000000000000000000000000000000000000000008152600401611d3890613b80565b60405180910390fd5b600a544210611d85576040517f08c379a0000000000000000000000000000000000000000000000000000000008152600401611d7c90613bec565b60405180910390fd5b611d908383836122bc565b505050565b6000611da082611bd8565b611ddf576040517f08c379a0000000000000000000000000000000000000000000000000000000008152600401611dd690613c7e565b60405180910390fd5b6000611dea83610e53565b90508073ffffffffffffffffffffffffffffffffffffffff168473ffffffffffffffffffffffffffffffffffffffff161480611e5957508373ffffffffffffffffffffffffffffffffffffffff16611e4184610940565b73ffffffffffffffffffffffffffffffffffffffff16145b80611e6a5750611e698185611839565b5b91505092915050565b8273ffffffffffffffffffffffffffffffffffffffff16611e9382610e53565b73ffffffffffffffffffffffffffffffffffffffff1614611ee9576040517f08c379a0000000000000000000000000000000000000000000000000000000008152600401611ee090613d10565b60405180910390fd5b600073ffffffffffffffffffffffffffffffffffffffff168273ffffffffffffffffffffffffffffffffffffffff161415611f59576040517f08c379a0000000000000000000000000000000000000000000000000000000008152600401611f5090613da2565b60405180910390fd5b611f64600082611c44565b6001600360008573ffffffffffffffffffffffffffffffffffffffff1673ffffffffffffffffffffffffffffffffffffffff1681526020019081526020016000206000828254611fb49190613dc2565b925050819055506001600360008473ffffffffffffffffffffffffffffffffffffffff1673ffffffffffffffffffffffffffffffffffffffff168152602001908152602001600020600082825461200b9190613ade565b92505081905550816002600083815260200190815260200160002060006101000a81548173ffffffffffffffffffffffffffffffffffffffff021916908373ffffffffffffffffffffffffffffffffffffffff160217905550808273ffffffffffffffffffffffffffffffffffffffff168473ffffffffffffffffffffffffffffffffffffffff167fddf252ad1be2c89b69c2b068fc378daa952ba7f163c4a11628f55a4df523b3ef60405160405180910390a4505050565b6000826120d18584612335565b1490509392505050565b60606000825114156120fe5760405180602001604052806000815250905061225b565b60006040518060600160405280604081526020016140eb604091399050600060036002855161212d9190613ade565b6121379190613e25565b60046121439190613e56565b905060006020826121549190613ade565b67ffffffffffffffff81111561216d5761216c612b9b565b5b6040519080825280601f01601f19166020018201604052801561219f5781602001600182028036833780820191505090505b509050818152600183018586518101602084015b8183101561221a576003830192508251603f8160121c1685015160f81b8252600182019150603f81600c1c1685015160f81b8252600182019150603f8160061c1685015160f81b8252600182019150603f811685015160f81b8252600182019150506121b3565b60038951066001811461223457600281146122445761224f565b613d3d60f01b600283035261224f565b603d60f81b60018303525b50505050508093505050505b919050565b61226b848484611e73565b612277848484846123e8565b6122b6576040517f08c379a00000000000000000000000000000000000000000000000000000000081526004016122ad90613f22565b60405180910390fd5b50505050565b600082846040516020016122d1929190613575565b6040516020818303038152906040528051906020012060001c90506001151582151514156123255781600c600083815260200190815260200160002060006101000a81548160ff0219169083151502179055505b61232f84826119ac565b50505050565b60008082905060005b84518110156123dd57600085828151811061235c5761235b613f42565b5b6020026020010151905080831161239d578281604051602001612380929190613f92565b6040516020818303038152906040528051906020012092506123c9565b80836040516020016123b0929190613f92565b6040516020818303038152906040528051906020012092505b5080806123d590613fbe565b91505061233e565b508091505092915050565b60006124098473ffffffffffffffffffffffffffffffffffffffff16612569565b1561255c578373ffffffffffffffffffffffffffffffffffffffff1663150b7a02338786866040518563ffffffff1660e01b815260040161244d949392919061405c565b6020604051808303816000875af192505050801561248957506040513d601f19601f8201168201806040525081019061248691906140bd565b60015b61250c573d80600081146124b9576040519150601f19603f3d011682016040523d82523d6000602084013e6124be565b606091505b50600081511415612504576040517f08c379a00000000000000000000000000000000000000000000000000000000081526004016124fb90613f22565b60405180910390fd5b805181602001fd5b63150b7a0260e01b7bffffffffffffffffffffffffffffffffffffffffffffffffffffffff1916817bffffffffffffffffffffffffffffffffffffffffffffffffffffffff191614915050612561565b600190505b949350505050565b600080823b905060008111915050919050565b6000604051905090565b600080fd5b600080fd5b60007fffffffff0000000000000000000000000000000000000000000000000000000082169050919050565b6125c581612590565b81146125d057600080fd5b50565b6000813590506125e2816125bc565b92915050565b6000602082840312156125fe576125fd612586565b5b600061260c848285016125d3565b91505092915050565b60008115159050919050565b61262a81612615565b82525050565b60006020820190506126456000830184612621565b92915050565b600081519050919050565b600082825260208201905092915050565b60005b8381101561268557808201518184015260208101905061266a565b83811115612694576000848401525b50505050565b6000601f19601f8301169050919050565b60006126b68261264b565b6126c08185612656565b93506126d0818560208601612667565b6126d98161269a565b840191505092915050565b600060208201905081810360008301526126fe81846126ab565b905092915050565b6000819050919050565b61271981612706565b811461272457600080fd5b50565b60008135905061273681612710565b92915050565b60006020828403121561275257612751612586565b5b600061276084828501612727565b91505092915050565b600073ffffffffffffffffffffffffffffffffffffffff82169050919050565b600061279482612769565b9050919050565b6127a481612789565b82525050565b60006020820190506127bf600083018461279b565b92915050565b6127ce81612789565b81146127d957600080fd5b50565b6000813590506127eb816127c5565b92915050565b6000806040838503121561280857612807612586565b5b6000612816858286016127dc565b925050602061282785828601612727565b9150509250929050565b61283a81612706565b82525050565b60006020820190506128556000830184612831565b92915050565b60008060006060848603121561287457612873612586565b5b6000612882868287016127dc565b9350506020612893868287016127dc565b92505060406128a486828701612727565b9150509250925092565b6000819050919050565b60006128d36128ce6128c984612769565b6128ae565b612769565b9050919050565b60006128e5826128b8565b9050919050565b60006128f7826128da565b9050919050565b612907816128ec565b82525050565b600060208201905061292260008301846128fe565b92915050565b600080fd5b600080fd5b600080fd5b60008083601f84011261294d5761294c612928565b5b8235905067ffffffffffffffff81111561296a5761296961292d565b5b60208301915083602082028301111561298657612985612932565b5b9250929050565b6000806000604084860312156129a6576129a5612586565b5b600084013567ffffffffffffffff8111156129c4576129c361258b565b5b6129d086828701612937565b935093505060206129e3868287016127dc565b9150509250925092565b60006129f882612769565b9050919050565b612a08816129ed565b82525050565b6000602082019050612a2360008301846129ff565b92915050565b6000819050919050565b612a3c81612a29565b82525050565b6000602082019050612a576000830184612a33565b92915050565b600060208284031215612a7357612a72612586565b5b6000612a81848285016127dc565b91505092915050565b612a9381612615565b8114612a9e57600080fd5b50565b600081359050612ab081612a8a565b92915050565b600080600060608486031215612acf57612ace612586565b5b6000612add86828701612727565b9350506020612aee868287016127dc565b9250506040612aff86828701612aa1565b9150509250925092565b60008060408385031215612b2057612b1f612586565b5b6000612b2e858286016127dc565b9250506020612b3f85828601612aa1565b9150509250929050565b60008060208385031215612b6057612b5f612586565b5b600083013567ffffffffffffffff811115612b7e57612b7d61258b565b5b612b8a85828601612937565b92509250509250929050565b600080fd5b7f4e487b7100000000000000000000000000000000000000000000000000000000600052604160045260246000fd5b612bd38261269a565b810181811067ffffffffffffffff82111715612bf257612bf1612b9b565b5b80604052505050565b6000612c0561257c565b9050612c118282612bca565b919050565b600067ffffffffffffffff821115612c3157612c30612b9b565b5b612c3a8261269a565b9050602081019050919050565b82818337600083830152505050565b6000612c69612c6484612c16565b612bfb565b905082815260208101848484011115612c8557612c84612b96565b5b612c90848285612c47565b509392505050565b600082601f830112612cad57612cac612928565b5b8135612cbd848260208601612c56565b91505092915050565b60008060008060808587031215612ce057612cdf612586565b5b6000612cee878288016127dc565b9450506020612cff878288016127dc565b9350506040612d1087828801612727565b925050606085013567ffffffffffffffff811115612d3157612d3061258b565b5b612d3d87828801612c98565b91505092959194509250565b60008060408385031215612d6057612d5f612586565b5b6000612d6e858286016127dc565b9250506020612d7f858286016127dc565b9150509250929050565b7f4e487b7100000000000000000000000000000000000000000000000000000000600052602260045260246000fd5b60006002820490506001821680612dd057607f821691505b60208210811415612de457612de3612d89565b5b50919050565b7f4552433732313a20617070726f76656420717565727920666f72206e6f6e657860008201527f697374656e7420746f6b656e0000000000000000000000000000000000000000602082015250565b6000612e46602c83612656565b9150612e5182612dea565b604082019050919050565b60006020820190508181036000830152612e7581612e39565b9050919050565b7f4552433732313a20617070726f76616c20746f2063757272656e74206f776e6560008201527f7200000000000000000000000000000000000000000000000000000000000000602082015250565b6000612ed8602183612656565b9150612ee382612e7c565b604082019050919050565b60006020820190508181036000830152612f0781612ecb565b9050919050565b7f4552433732313a20617070726f76652063616c6c6572206973206e6f74206f7760008201527f6e6572206e6f7220617070726f76656420666f7220616c6c0000000000000000602082015250565b6000612f6a603883612656565b9150612f7582612f0e565b604082019050919050565b60006020820190508181036000830152612f9981612f5d565b9050919050565b7f4d4f524520455448204e45454445440000000000000000000000000000000000600082015250565b6000612fd6600f83612656565b9150612fe182612fa0565b602082019050919050565b6000602082019050818103600083015261300581612fc9565b9050919050565b7f4552433732313a207472616e736665722063616c6c6572206973206e6f74206f60008201527f776e6572206e6f7220617070726f766564000000000000000000000000000000602082015250565b6000613068603183612656565b91506130738261300c565b604082019050919050565b600060208201905081810360008301526130978161305b565b9050919050565b7f416c726561647920636c61696d65640000000000000000000000000000000000600082015250565b60006130d4600f83612656565b91506130df8261309e565b602082019050919050565b60006020820190508181036000830152613103816130c7565b9050919050565b60008160601b9050919050565b60006131228261310a565b9050919050565b600061313482613117565b9050919050565b61314c61314782612789565b613129565b82525050565b600061315e828461313b565b60148201915081905092915050565b7f496e76616c69642050726f6f6600000000000000000000000000000000000000600082015250565b60006131a3600d83612656565b91506131ae8261316d565b602082019050919050565b600060208201905081810360008301526131d281613196565b9050919050565b60006040820190506131ee6000830185612831565b6131fb6020830184612621565b9392505050565b600067ffffffffffffffff82111561321d5761321c612b9b565b5b6132268261269a565b9050602081019050919050565b600061324661324184613202565b612bfb565b90508281526020810184848401111561326257613261612b96565b5b61326d848285612667565b509392505050565b600082601f83011261328a57613289612928565b5b815161329a848260208601613233565b91505092915050565b6000602082840312156132b9576132b8612586565b5b600082015167ffffffffffffffff8111156132d7576132d661258b565b5b6132e384828501613275565b91505092915050565b7f4552433732313a206f776e657220717565727920666f72206e6f6e657869737460008201527f656e7420746f6b656e0000000000000000000000000000000000000000000000602082015250565b6000613348602983612656565b9150613353826132ec565b604082019050919050565b600060208201905081810360008301526133778161333b565b9050919050565b7f414c4c2044454c55584520484153204245454e20534f4c440000000000000000600082015250565b60006133b4601883612656565b91506133bf8261337e565b602082019050919050565b600060208201905081810360008301526133e3816133a7565b9050919050565b7f6e6f74206f776e65720000000000000000000000000000000000000000000000600082015250565b6000613420600983612656565b915061342b826133ea565b602082019050919050565b6000602082019050818103600083015261344f81613413565b9050919050565b7f63616e74206368616e67652064657363726970746f7220616e796d6f72650000600082015250565b600061348c601e83612656565b915061349782613456565b602082019050919050565b600060208201905081810360008301526134bb8161347f565b9050919050565b7f4552433732313a2062616c616e636520717565727920666f7220746865207a6560008201527f726f206164647265737300000000000000000000000000000000000000000000602082015250565b600061351e602a83612656565b9150613529826134c2565b604082019050919050565b6000602082019050818103600083015261354d81613511565b9050919050565b6000819050919050565b61356f61356a82612706565b613554565b82525050565b6000613581828561355e565b602082019150613591828461313b565b6014820191508190509392505050565b7f4552433732313a20617070726f766520746f2063616c6c657200000000000000600082015250565b60006135d7601983612656565b91506135e2826135a1565b602082019050919050565b60006020820190508181036000830152613606816135ca565b9050919050565b7f4552433732314d657461646174613a2055524920717565727920666f72206e6f60008201527f6e6578697374656e7420746f6b656e0000000000000000000000000000000000602082015250565b6000613669602f83612656565b91506136748261360d565b604082019050919050565b600060208201905081810360008301526136988161365c565b9050919050565b600081905092915050565b7f7b226e616d65223a220000000000000000000000000000000000000000000000600082015250565b60006136e060098361369f565b91506136eb826136aa565b600982019050919050565b60006137018261264b565b61370b818561369f565b935061371b818560208601612667565b80840191505092915050565b7f222c20226465736372697074696f6e223a220000000000000000000000000000600082015250565b600061375d60128361369f565b915061376882613727565b601282019050919050565b7f222c2022696d616765223a202200000000000000000000000000000000000000600082015250565b60006137a9600d8361369f565b91506137b482613773565b600d82019050919050565b7f646174613a696d6167652f7376672b786d6c3b6261736536342c000000000000600082015250565b60006137f5601a8361369f565b9150613800826137bf565b601a82019050919050565b7f222c000000000000000000000000000000000000000000000000000000000000600082015250565b600061384160028361369f565b915061384c8261380b565b600282019050919050565b7f7d00000000000000000000000000000000000000000000000000000000000000600082015250565b600061388d60018361369f565b915061389882613857565b600182019050919050565b60006138ae826136d3565b91506138ba82876136f6565b91506138c582613750565b91506138d182866136f6565b91506138dc8261379c565b91506138e7826137e8565b91506138f382856136f6565b91506138fe82613834565b915061390a82846136f6565b915061391582613880565b915081905095945050505050565b7f646174613a6170706c69636174696f6e2f6a736f6e3b6261736536342c000000600082015250565b6000613959601d8361369f565b915061396482613923565b601d82019050919050565b600061397a8261394c565b915061398682846136f6565b915081905092915050565b600081905092915050565b50565b60006139ac600083613991565b91506139b78261399c565b600082019050919050565b60006139cd8261399f565b9150819050919050565b7f4552433732313a206d696e7420746f20746865207a65726f2061646472657373600082015250565b6000613a0d602083612656565b9150613a18826139d7565b602082019050919050565b60006020820190508181036000830152613a3c81613a00565b9050919050565b7f4552433732313a20746f6b656e20616c7265616479206d696e74656400000000600082015250565b6000613a79601c83612656565b9150613a8482613a43565b602082019050919050565b60006020820190508181036000830152613aa881613a6c565b9050919050565b7f4e487b7100000000000000000000000000000000000000000000000000000000600052601160045260246000fd5b6000613ae982612706565b9150613af483612706565b9250827fffffffffffffffffffffffffffffffffffffffffffffffffffffffffffffffff03821115613b2957613b28613aaf565b5b828201905092915050565b7f4e4f545f53544152544544000000000000000000000000000000000000000000600082015250565b6000613b6a600b83612656565b9150613b7582613b34565b602082019050919050565b60006020820190508181036000830152613b9981613b5d565b9050919050565b7f454e444544000000000000000000000000000000000000000000000000000000600082015250565b6000613bd6600583612656565b9150613be182613ba0565b602082019050919050565b60006020820190508181036000830152613c0581613bc9565b9050919050565b7f4552433732313a206f70657261746f7220717565727920666f72206e6f6e657860008201527f697374656e7420746f6b656e0000000000000000000000000000000000000000602082015250565b6000613c68602c83612656565b9150613c7382613c0c565b604082019050919050565b60006020820190508181036000830152613c9781613c5b565b9050919050565b7f4552433732313a207472616e73666572206f6620746f6b656e2074686174206960008201527f73206e6f74206f776e0000000000000000000000000000000000000000000000602082015250565b6000613cfa602983612656565b9150613d0582613c9e565b604082019050919050565b60006020820190508181036000830152613d2981613ced565b9050919050565b7f4552433732313a207472616e7366657220746f20746865207a65726f2061646460008201527f7265737300000000000000000000000000000000000000000000000000000000602082015250565b6000613d8c602483612656565b9150613d9782613d30565b604082019050919050565b60006020820190508181036000830152613dbb81613d7f565b9050919050565b6000613dcd82612706565b9150613dd883612706565b925082821015613deb57613dea613aaf565b5b828203905092915050565b7f4e487b7100000000000000000000000000000000000000000000000000000000600052601260045260246000fd5b6000613e3082612706565b9150613e3b83612706565b925082613e4b57613e4a613df6565b5b828204905092915050565b6000613e6182612706565b9150613e6c83612706565b9250817fffffffffffffffffffffffffffffffffffffffffffffffffffffffffffffffff0483118215151615613ea557613ea4613aaf565b5b828202905092915050565b7f4552433732313a207472616e7366657220746f206e6f6e20455243373231526560008201527f63656976657220696d706c656d656e7465720000000000000000000000000000602082015250565b6000613f0c603283612656565b9150613f1782613eb0565b604082019050919050565b60006020820190508181036000830152613f3b81613eff565b9050919050565b7f4e487b7100000000000000000000000000000000000000000000000000000000600052603260045260246000fd5b6000819050919050565b613f8c613f8782612a29565b613f71565b82525050565b6000613f9e8285613f7b565b602082019150613fae8284613f7b565b6020820191508190509392505050565b6000613fc982612706565b91507fffffffffffffffffffffffffffffffffffffffffffffffffffffffffffffffff821415613ffc57613ffb613aaf565b5b600182019050919050565b600081519050919050565b600082825260208201905092915050565b600061402e82614007565b6140388185614012565b9350614048818560208601612667565b6140518161269a565b840191505092915050565b6000608082019050614071600083018761279b565b61407e602083018661279b565b61408b6040830185612831565b818103606083015261409d8184614023565b905095945050505050565b6000815190506140b7816125bc565b92915050565b6000602082840312156140d3576140d2612586565b5b60006140e1848285016140a8565b9150509291505056fe4142434445464748494a4b4c4d4e4f505152535455565758595a6162636465666768696a6b6c6d6e6f707172737475767778797a303132333435363738392b2f43617073756c657320636f6e7461696e696e672076697375616c697a6174696f6e73206f6620616c6c20746865206c69766573206c697665642062792073696d756c61746564206d696e647320696e20746865207363686f6f6c206f6620756e6c6561726e696e672ea26469706673582212208f16c1e7ae0454f61a98e16a62d950f4048d87c23f19b32f09ca4a405252a04b64736f6c634300080c0033608060405234801561001057600080fd5b50613362806100206000396000f3fe608060405234801561001057600080fd5b50600436106100625760003560e01c8063192a0a1f146100675780632581d8b31461009757806337ee03ec146100c757806354353f2f146100f7578063594bf5ad14610115578063effaaf6a14610145575b600080fd5b610081600480360381019061007c91906115bf565b610175565b60405161008e9190611685565b60405180910390f35b6100b160048036038101906100ac9190611814565b6101b2565b6040516100be9190611685565b60405180910390f35b6100e160048036038101906100dc9190611870565b61034f565b6040516100ee9190611685565b60405180910390f35b6100ff6104ff565b60405161010c9190611685565b60405180910390f35b61012f600480360381019061012a9190611a25565b610540565b60405161013c9190611685565b60405180910390f35b61015f600480360381019061015a9190611870565b6105ed565b60405161016c9190611685565b60405180910390f35b606061018c61018383610601565b6000600861078a565b60405160200161019c9190611b54565b6040516020818303038152906040529050919050565b60608060005b60148110156103445760006101cd8683610886565b905060006101e7876001856101e29190611ba5565b6108a9565b9050601283141561021957836040516020016102039190611c21565b604051602081830303815290604052935061032e565b601383141561024957836040516020016102339190611c6d565b604051602081830303815290604052935061032d565b60048314806102585750600983145b806102635750600e83145b156102c45760011515861515141561029c57836040516020016102869190611c21565b60405160208183030381529060405293506102bf565b836040516020016102ad9190611c6d565b60405160208183030381529060405293505b61032c565b60808110156102fe57836102d783610601565b6040516020016102e8929190611cb9565b604051602081830303815290604052935061032b565b8361030883610601565b604051602001610319929190611d12565b60405160208183030381529060405293505b5b5b5b505060018161033d9190611ba5565b90506101b8565b508091505092915050565b606060008360001b6040516020016103679190611d7f565b60405160208183030381529060405290506060600115158415151415610402576103fb6040518060400160405280600881526020017f416e696d617465640000000000000000000000000000000000000000000000008152506040518060400160405280600481526020017f54727565000000000000000000000000000000000000000000000000000000008152506108c0565b9050610479565b6104766040518060400160405280600881526020017f416e696d617465640000000000000000000000000000000000000000000000008152506040518060400160405280600581526020017f46616c73650000000000000000000000000000000000000000000000000000008152506108c0565b90505b6000610484836108ec565b905060006104cf6040518060400160405280600b81526020017f506574616c20436f756e740000000000000000000000000000000000000000008152506104ca84610601565b6108c0565b905082816040516020016104e4929190611e7e565b60405160208183030381529060405294505050505092915050565b606060005a6040516020016105149190611ee4565b6040516020818303038152906040528051906020012060001c905061053a816001610974565b91505090565b6060600061055561055086610a3b565b610601565b9050600061056286610a78565b9050600061057761057288610aa8565b610601565b9050600061058488610ae5565b9050600087846003811061059b5761059a611eff565b5b6020020151858884600381106105b4576105b3611eff565b5b6020020151856040516020016105cd9493929190611f2e565b604051602081830303815290604052905080955050505050509392505050565b60606105f98383610974565b905092915050565b60606000821415610649576040518060400160405280600181526020017f30000000000000000000000000000000000000000000000000000000000000008152509050610785565b600082905060005b6000821461067b57808061066490611f7b565b915050600a826106749190611ff3565b9150610651565b60008167ffffffffffffffff811115610697576106966116b1565b5b6040519080825280601f01601f1916602001820160405280156106c95781602001600182028036833780820191505090505b50905060008290505b6000861461077d576001816106e79190612024565b90506000600a80886106f99190611ff3565b6107039190612058565b8761070e9190612024565b603061071a91906120bf565b905060008160f81b90508084848151811061073857610737611eff565b5b60200101907effffffffffffffffffffffffffffffffffffffffffffffffffffffffffffff1916908160001a905350600a886107749190611ff3565b975050506106d2565b819450505050505b919050565b606060008490506000848461079f9190612024565b67ffffffffffffffff8111156107b8576107b76116b1565b5b6040519080825280601f01601f1916602001820160405280156107ea5781602001600182028036833780820191505090505b50905060008590505b848110156108795782818151811061080e5761080d611eff565b5b602001015160f81c60f81b8287836108269190612024565b8151811061083757610836611eff565b5b60200101907effffffffffffffffffffffffffffffffffffffffffffffffffffffffffffff1916908160001a905350808061087190611f7b565b9150506107f3565b5080925050509392505050565b600060046108948484610b15565b60ff166108a19190611ff3565b905092915050565b60006108b58383610b15565b60ff16905092915050565b606082826040516020016108d5929190612168565b604051602081830303815290604052905092915050565b6000806040518060a00160405280600860ff168152602001600c60ff168152602001601460ff168152602001601860ff168152602001602460ff1681525090506000603461093b856000610b15565b61094591906121b9565b60ff169050600082826005811061095f5761095e611eff565b5b602002015160ff169050809350505050919050565b606060008360001b60405160200161098c9190611d7f565b604051602081830303815290604052905060006109a8826108ec565b90506000816101686109ba9190611ff3565b905060006040518060200160405280600081525090506001151586151514156109f9576040518060e0016040528060af815260200161327e60af913990505b80610a0385610bcb565b610a0e868686610c46565b604051602001610a2093929190612470565b60405160208183030381529060405294505050505092915050565b60006101006103e8610a4e846005610b15565b60ff16610a5b9190612058565b610a659190611ff3565b6001610a719190611ba5565b9050919050565b60006101006003610a8a846007610b15565b60ff16610a979190612058565b610aa19190611ff3565b9050919050565b60006101006103e8610abb846006610b15565b60ff16610ac89190612058565b610ad29190611ff3565b6001610ade9190611ba5565b9050919050565b60006101006003610af7846008610b15565b60ff16610b049190612058565b610b0e9190611ff3565b9050919050565b600081600183610b259190611ba5565b1015610b66576040517f08c379a0000000000000000000000000000000000000000000000000000000008152600401610b5d9061253b565b60405180910390fd5b600182610b739190611ba5565b83511015610bb6576040517f08c379a0000000000000000000000000000000000000000000000000000000008152600401610bad906125a7565b60405180910390fd5b60008260018501015190508091505092915050565b60606000610bda836001610d2f565b90506000610be9846000610d2f565b90506000610bf6856111d1565b90506000610c0f826096610c0a9190611ba5565b610601565b9050838382838485604051602001610c2c969594939291906128e5565b604051602081830303815290604052945050505050919050565b60606000610c5b610c56866111d1565b610601565b90506000610c6886611200565b90506000600282610c799190612058565b90506000610c8888888861122f565b905060008485610ca3866096610c9e9190612024565b610601565b610cb8866096610cb39190612024565b610601565b610ccd876096610cc89190612024565b610601565b610ce2896096610cdd9190611ba5565b610601565b610cf7896096610cf29190612024565b610601565b88604051602001610d0f989796959493929190612c44565b604051602081830303815290604052905080955050505050509392505050565b60606000610eb08460405180606001604052806040518060400160405280600381526020017f302e30000000000000000000000000000000000000000000000000000000000081525081526020016040518060400160405280600481526020017f302e30300000000000000000000000000000000000000000000000000000000081525081526020016040518060400160405280600481526020017f302e30300000000000000000000000000000000000000000000000000000000081525081525060405180606001604052806040518060400160405280600381526020017f302e30000000000000000000000000000000000000000000000000000000000081525081526020016040518060400160405280600381526020017f302e30000000000000000000000000000000000000000000000000000000000081525081526020016040518060400160405280600381526020017f302e300000000000000000000000000000000000000000000000000000000000815250815250610540565b90506000610ec5610ec0866113fc565b610601565b90506110186040518060400160405280600c81526020017f666554757262756c656e63650000000000000000000000000000000000000000815250610f3f6040518060400160405280600d81526020017f626173654672657175656e63790000000000000000000000000000000000000081525085611443565b610f7e6040518060400160405280600481526020017f736565640000000000000000000000000000000000000000000000000000000081525085611443565b610ff26040518060400160405280600681526020017f726573756c7400000000000000000000000000000000000000000000000000008152506040518060400160405280600481526020017f7475726200000000000000000000000000000000000000000000000000000000815250611443565b60405160200161100493929190612d71565b60405160208183030381529060405261146f565b6111a76040518060400160405280600d81526020017f6665436f6c6f724d6174726978000000000000000000000000000000000000008152506110c56040518060400160405280600281526020017f696e0000000000000000000000000000000000000000000000000000000000008152506040518060400160405280600481526020017f7475726200000000000000000000000000000000000000000000000000000000815250611443565b61110d6040518060400160405280600681526020017f76616c75657300000000000000000000000000000000000000000000000000008152506111088b8b6101b2565b611443565b6111816040518060400160405280600381526020017f6f757400000000000000000000000000000000000000000000000000000000008152506040518060400160405280600581526020017f7475726232000000000000000000000000000000000000000000000000000000815250611443565b60405160200161119393929190612d71565b60405160208183030381529060405261146f565b6040516020016111b8929190612da2565b6040516020818303038152906040529250505092915050565b600060026111e0836001610b15565b6111ea91906121b9565b60b46111f69190612dc6565b60ff169050919050565b6000600d61120f836009610b15565b61121991906121b9565b600561122591906120bf565b60ff169050919050565b606060006040518060200160405280600081525090506000604051806020016040528060008152509050600060405180602001604052806000815250905060005b8681101561134c57600260036004896112899190611ff3565b6112939190612058565b61129d9190611ba5565b81101561133857826112c56001836112b59190611ba5565b886112c09190612058565b61149b565b6040516020016112d6929190612da2565b60405160208183030381529060405292508161131589605a6001856112fb9190611ba5565b8a6113069190612058565b6113109190611ba5565b6114ee565b604051602001611326929190612da2565b60405160208183030381529060405291505b6001816113459190611ba5565b9050611270565b508061137b88605a60018a6113619190611ba5565b8961136c9190612058565b6113769190611ba5565b6114ee565b6113a889605a60028b61138e9190611ba5565b8a6113999190612058565b6113a39190611ba5565b6114ee565b6040516020016113ba93929190612d71565b604051602081830303815290604052905081816040516020016113de929190612da2565b60405160208183030381529060405292508293505050509392505050565b6000611409826004610b15565b60ff16611417836003610b15565b60ff16611425846002610b15565b60ff166114329190612058565b61143c9190612058565b9050919050565b60608282604051602001611458929190612e6c565b604051602081830303815290604052905092915050565b60608282604051602001611484929190612f09565b604051602081830303815290604052905092915050565b60606114b26001836114ad9190611ba5565b610601565b6114c76001846114c29190611ba5565b610601565b6040516020016114d8929190613122565b6040516020818303038152906040529050919050565b606060006114fb84611544565b905061151260018461150d9190611ba5565b610601565b61151b82610601565b60405160200161152c929190613230565b60405160208183030381529060405291505092915050565b600061010061016861155784600a610b15565b60ff166115649190612058565b61156e9190611ff3565b9050919050565b6000604051905090565b600080fd5b600080fd5b6000819050919050565b61159c81611589565b81146115a757600080fd5b50565b6000813590506115b981611593565b92915050565b6000602082840312156115d5576115d461157f565b5b60006115e3848285016115aa565b91505092915050565b600081519050919050565b600082825260208201905092915050565b60005b8381101561162657808201518184015260208101905061160b565b83811115611635576000848401525b50505050565b6000601f19601f8301169050919050565b6000611657826115ec565b61166181856115f7565b9350611671818560208601611608565b61167a8161163b565b840191505092915050565b6000602082019050818103600083015261169f818461164c565b905092915050565b600080fd5b600080fd5b7f4e487b7100000000000000000000000000000000000000000000000000000000600052604160045260246000fd5b6116e98261163b565b810181811067ffffffffffffffff82111715611708576117076116b1565b5b80604052505050565b600061171b611575565b905061172782826116e0565b919050565b600067ffffffffffffffff821115611747576117466116b1565b5b6117508261163b565b9050602081019050919050565b82818337600083830152505050565b600061177f61177a8461172c565b611711565b90508281526020810184848401111561179b5761179a6116ac565b5b6117a684828561175d565b509392505050565b600082601f8301126117c3576117c26116a7565b5b81356117d384826020860161176c565b91505092915050565b60008115159050919050565b6117f1816117dc565b81146117fc57600080fd5b50565b60008135905061180e816117e8565b92915050565b6000806040838503121561182b5761182a61157f565b5b600083013567ffffffffffffffff81111561184957611848611584565b5b611855858286016117ae565b9250506020611866858286016117ff565b9150509250929050565b600080604083850312156118875761188661157f565b5b6000611895858286016115aa565b92505060206118a6858286016117ff565b9150509250929050565b600067ffffffffffffffff8211156118cb576118ca6116b1565b5b602082029050919050565b600080fd5b600067ffffffffffffffff8211156118f6576118f56116b1565b5b6118ff8261163b565b9050602081019050919050565b600061191f61191a846118db565b611711565b90508281526020810184848401111561193b5761193a6116ac565b5b61194684828561175d565b509392505050565b600082601f830112611963576119626116a7565b5b813561197384826020860161190c565b91505092915050565b600061198f61198a846118b0565b611711565b905080602084028301858111156119a9576119a86118d6565b5b835b818110156119f057803567ffffffffffffffff8111156119ce576119cd6116a7565b5b8086016119db898261194e565b855260208501945050506020810190506119ab565b5050509392505050565b600082601f830112611a0f57611a0e6116a7565b5b6003611a1c84828561197c565b91505092915050565b600080600060608486031215611a3e57611a3d61157f565b5b600084013567ffffffffffffffff811115611a5c57611a5b611584565b5b611a68868287016117ae565b935050602084013567ffffffffffffffff811115611a8957611a88611584565b5b611a95868287016119fa565b925050604084013567ffffffffffffffff811115611ab657611ab5611584565b5b611ac2868287016119fa565b9150509250925092565b600081905092915050565b7f4461697379636861696e20230000000000000000000000000000000000000000600082015250565b6000611b0d600c83611acc565b9150611b1882611ad7565b600c82019050919050565b6000611b2e826115ec565b611b388185611acc565b9350611b48818560208601611608565b80840191505092915050565b6000611b5f82611b00565b9150611b6b8284611b23565b915081905092915050565b7f4e487b7100000000000000000000000000000000000000000000000000000000600052601160045260246000fd5b6000611bb082611589565b9150611bbb83611589565b9250827fffffffffffffffffffffffffffffffffffffffffffffffffffffffffffffffff03821115611bf057611bef611b76565b5b828201905092915050565b7f3020000000000000000000000000000000000000000000000000000000000000815250565b6000611c2d8284611b23565b9150611c3882611bfb565b60028201915081905092915050565b7f3120000000000000000000000000000000000000000000000000000000000000815250565b6000611c798284611b23565b9150611c8482611c47565b60028201915081905092915050565b7f2000000000000000000000000000000000000000000000000000000000000000815250565b6000611cc58285611b23565b9150611cd18284611b23565b9150611cdc82611c93565b6001820191508190509392505050565b7f2d00000000000000000000000000000000000000000000000000000000000000815250565b6000611d1e8285611b23565b9150611d2982611cec565b600182019150611d398284611b23565b9150611d4482611c93565b6001820191508190509392505050565b6000819050919050565b6000819050919050565b611d79611d7482611d54565b611d5e565b82525050565b6000611d8b8284611d68565b60208201915081905092915050565b7f2261747472696275746573223a205b0000000000000000000000000000000000600082015250565b6000611dd0600f83611acc565b9150611ddb82611d9a565b600f82019050919050565b7f2c00000000000000000000000000000000000000000000000000000000000000600082015250565b6000611e1c600183611acc565b9150611e2782611de6565b600182019050919050565b7f5d00000000000000000000000000000000000000000000000000000000000000600082015250565b6000611e68600183611acc565b9150611e7382611e32565b600182019050919050565b6000611e8982611dc3565b9150611e958285611b23565b9150611ea082611e0f565b9150611eac8284611b23565b9150611eb782611e5b565b91508190509392505050565b6000819050919050565b611ede611ed982611589565b611ec3565b82525050565b6000611ef08284611ecd565b60208201915081905092915050565b7f4e487b7100000000000000000000000000000000000000000000000000000000600052603260045260246000fd5b6000611f3a8287611b23565b9150611f468286611b23565b9150611f5182611c93565b600182019150611f618285611b23565b9150611f6d8284611b23565b915081905095945050505050565b6000611f8682611589565b91507fffffffffffffffffffffffffffffffffffffffffffffffffffffffffffffffff821415611fb957611fb8611b76565b5b600182019050919050565b7f4e487b7100000000000000000000000000000000000000000000000000000000600052601260045260246000fd5b6000611ffe82611589565b915061200983611589565b92508261201957612018611fc4565b5b828204905092915050565b600061202f82611589565b915061203a83611589565b92508282101561204d5761204c611b76565b5b828203905092915050565b600061206382611589565b915061206e83611589565b9250817fffffffffffffffffffffffffffffffffffffffffffffffffffffffffffffffff04831182151516156120a7576120a6611b76565b5b828202905092915050565b600060ff82169050919050565b60006120ca826120b2565b91506120d5836120b2565b92508260ff038211156120eb576120ea611b76565b5b828201905092915050565b7f7b2274726169745f74797065223a202200000000000000000000000000000000815250565b7f222c202276616c7565223a202200000000000000000000000000000000000000815250565b7f227d000000000000000000000000000000000000000000000000000000000000815250565b6000612173826120f6565b6010820191506121838285611b23565b915061218e8261211c565b600d8201915061219e8284611b23565b91506121a982612142565b6002820191508190509392505050565b60006121c4826120b2565b91506121cf836120b2565b9250826121df576121de611fc4565b5b828204905092915050565b7f3c73766720786d6c6e733d22687474703a2f2f7777772e77332e6f72672f323060008201527f30302f737667222077696474683d2233303022206865696768743d223330302260208201527f207374796c653d226261636b67726f756e643a236666662220786d6c6e733a7860408201527f6c696e6b3d22687474703a2f2f7777772e77332e6f72672f313939392f786c6960608201527f6e6b223e00000000000000000000000000000000000000000000000000000000608082015250565b60006122b8608483611acc565b91506122c3826121ea565b608482019050919050565b7f3c672069643d22656e74697265223e0000000000000000000000000000000000815250565b7f3c75736520786c696e6b3a687265663d2223666c6f7765722220636c69702d7060008201527f6174683d2275726c282368616c66436c69702922207472616e73666f726d3d2260208201527f726f7461746528302c203135302c2031353029222f3e00000000000000000000604082015250565b6000612376605683611acc565b9150612381826122f4565b605682019050919050565b7f3c75736520786c696e6b3a687265663d2223666c6f7765722220636c69702d7060008201527f6174683d2275726c282368616c66436c69702922207472616e73666f726d3d2260208201527f726f74617465283138302c203135302c2031353029222f3e0000000000000000604082015250565b600061240e605883611acc565b91506124198261238c565b605882019050919050565b7f3c2f673e00000000000000000000000000000000000000000000000000000000815250565b7f3c2f7376673e0000000000000000000000000000000000000000000000000000815250565b600061247b826122ab565b91506124878286611b23565b91506124938285611b23565b915061249e826122ce565b600f820191506124ae8284611b23565b91506124b982612369565b91506124c482612401565b91506124cf82612424565b6004820191506124de8261244a565b600682019150819050949350505050565b7f746f55696e74385f6f766572666c6f7700000000000000000000000000000000600082015250565b60006125256010836115f7565b9150612530826124ef565b602082019050919050565b6000602082019050818103600083015261255481612518565b9050919050565b7f746f55696e74385f6f75744f66426f756e647300000000000000000000000000600082015250565b60006125916013836115f7565b915061259c8261255b565b602082019050919050565b600060208201905081810360008301526125c081612584565b9050919050565b7f3c66696c7465722069643d22626c7572223e0000000000000000000000000000815250565b7f3c6665476175737369616e426c757220737464446576696174696f6e3d22312260008201527f2f3e000000000000000000000000000000000000000000000000000000000000602082015250565b6000612649602283611acc565b9150612654826125ed565b602282019050919050565b7f3c2f66696c7465723e0000000000000000000000000000000000000000000000815250565b7f3c66696c7465722069643d227368617270223e00000000000000000000000000815250565b7f3c636c6970506174682069643d22626c7572436c6970223e0000000000000000815250565b7f3c7265637420783d223135302220793d22313530222077696474683d2233303060008201527f22206865696768743d22333030222f3e00000000000000000000000000000000602082015250565b600061272d603083611acc565b9150612738826126d1565b603082019050919050565b7f3c2f636c6970506174683e000000000000000000000000000000000000000000815250565b7f3c636c6970506174682069643d227061747465726e436c6970223e0000000000815250565b7f3c7061746820643d224d2031353020313530204c200000000000000000000000815250565b7f2031353020512000000000000000000000000000000000000000000000000000815250565b7f2031353020000000000000000000000000000000000000000000000000000000815250565b7f205a222f3e3c2f636c6970506174683e00000000000000000000000000000000815250565b7f3c636c6970506174682069643d2268616c66436c6970223e0000000000000000815250565b7f3c72656374207472616e73666f726d3d22726f7461746528312c203135302c2060008201527f31353029222077696474683d2232363022206865696768743d2236313022207860208201527f3d222d3131302220793d222d313130222f3e0000000000000000000000000000604082015250565b60006128cf605283611acc565b91506128da8261284d565b605282019050919050565b60006128f0826125c7565b6012820191506129008289611b23565b915061290b8261263c565b91506129168261265f565b60098201915061292582612685565b6013820191506129358288611b23565b91506129408261265f565b60098201915061294f826126ab565b60188201915061295e82612720565b915061296982612743565b600b8201915061297882612769565b601b820191506129878261278f565b6015820191506129978287611b23565b91506129a2826127b5565b6007820191506129b28286611b23565b91506129bd82611c93565b6001820191506129cd8285611b23565b91506129d8826127db565b6005820191506129e88284611b23565b91506129f382612801565b601082019150612a0282612827565b601882019150612a11826128c2565b9150612a1c82612743565b600b82019150819050979650505050505050565b7f3c646566733e0000000000000000000000000000000000000000000000000000815250565b7f3c726563742069643d227461702220783d223135302220793d2231353022207760008201527f696474683d220000000000000000000000000000000000000000000000000000602082015250565b6000612ab2602683611acc565b9150612abd82612a56565b602682019050919050565b7f22206865696768743d2200000000000000000000000000000000000000000000815250565b7f222066696c7465723d2275726c2823736861727029222f3e0000000000000000815250565b7f3c726563742069643d22626c75727461702220783d223135302220793d22313560008201527f30222077696474683d2235303022206865696768743d22353030222066696c7460208201527f65723d2275726c2823626c757229222f3e000000000000000000000000000000604082015250565b6000612b96605183611acc565b9150612ba182612b14565b605182019050919050565b7f3c706174682069643d2270746c2220643d224d20313530203135302051200000815250565b7f2031353020313530205a22207374726f6b653d22626c61636b222f3e00000000815250565b7f3c672069643d22666c6f776572223e0000000000000000000000000000000000815250565b7f3c2f673e3c2f646566733e000000000000000000000000000000000000000000815250565b6000612c4f82612a30565b600682019150612c5e82612aa5565b9150612c6a828b611b23565b9150612c7582612ac8565b600a82019150612c85828a611b23565b9150612c9082612aee565b601882019150612c9f82612b89565b9150612caa82612bac565b601e82019150612cba8289611b23565b9150612cc582611c93565b600182019150612cd58288611b23565b9150612ce0826127db565b600582019150612cf08287611b23565b9150612cfb82611c93565b600182019150612d0b8286611b23565b9150612d1682611c93565b600182019150612d268285611b23565b9150612d3182612bd2565b601c82019150612d4082612bf8565b600f82019150612d508284611b23565b9150612d5b82612c1e565b600b820191508190509998505050505050505050565b6000612d7d8286611b23565b9150612d898285611b23565b9150612d958284611b23565b9150819050949350505050565b6000612dae8285611b23565b9150612dba8284611b23565b91508190509392505050565b6000612dd1826120b2565b9150612ddc836120b2565b925082821015612def57612dee611b76565b5b828203905092915050565b7f3d00000000000000000000000000000000000000000000000000000000000000815250565b7f2200000000000000000000000000000000000000000000000000000000000000815250565b7f2220000000000000000000000000000000000000000000000000000000000000815250565b6000612e788285611b23565b9150612e8382612dfa565b600182019150612e9282612e20565b600182019150612ea28284611b23565b9150612ead82612e46565b6002820191508190509392505050565b7f3c00000000000000000000000000000000000000000000000000000000000000815250565b7f2f3e000000000000000000000000000000000000000000000000000000000000815250565b6000612f1482612ebd565b600182019150612f248285611b23565b9150612f2f82611c93565b600182019150612f3f8284611b23565b9150612f4a82612ee3565b6002820191508190509392505050565b7f3c75736520786c696e6b3a687265663d2223626c757274617022207472616e7360008201527f666f726d3d22726f746174652800000000000000000000000000000000000000602082015250565b6000612fb6602d83611acc565b9150612fc182612f5a565b602d82019050919050565b7f2c203135302c20313530292220636c69702d706174683d2275726c2823626c7560008201527f72436c697029222f3e0000000000000000000000000000000000000000000000602082015250565b6000613028602983611acc565b915061303382612fcc565b602982019050919050565b7f3c75736520786c696e6b3a687265663d222374617022207472616e73666f726d60008201527f3d22726f74617465280000000000000000000000000000000000000000000000602082015250565b600061309a602983611acc565b91506130a58261303e565b602982019050919050565b7f2c203135302c20313530292220636c69702d706174683d2275726c282370617460008201527f7465726e436c697029222f3e0000000000000000000000000000000000000000602082015250565b600061310c602c83611acc565b9150613117826130b0565b602c82019050919050565b600061312d82612fa9565b91506131398285611b23565b91506131448261301b565b915061314f8261308d565b915061315b8284611b23565b9150613166826130ff565b91508190509392505050565b7f3c75736520786c696e6b3a687265663d222370746c22207472616e73666f726d60008201527f3d22726f74617465280000000000000000000000000000000000000000000000602082015250565b60006131ce602983611acc565b91506131d982613172565b602982019050919050565b7f2c203135302c2031353029222066696c6c3d2268736c28000000000000000000815250565b7f2c313030252c3530252922207374726f6b653d22626c61636b222f3e00000000815250565b600061323b826131c1565b91506132478285611b23565b9150613252826131e4565b6017820191506132628284611b23565b915061326d8261320a565b601c82019150819050939250505056fe3c7374796c653e23656e74697265207b7472616e73666f726d2d6f726967696e3a2031353070782031353070783b616e696d6174696f6e3a20726f7461746520383073206c696e65617220696e66696e6974653b207d406b65796672616d657320726f74617465207b66726f6d207b7472616e73666f726d3a20726f746174652830646567293b7d746f207b7472616e73666f726d3a20726f7461746528333630646567293b7d3c2f7374796c653ea2646970667358221220c4a13acc22b63496d5511cc1ee6ddf0f3272f2c2558e1d80f2f5c613dcfbeab564736f6c634300080c0033","opcodes":"PUSH1 0x80 PUSH1 0x40 MSTORE PUSH20 0xAF69610EA9DDC95883F97A6A3171D52165B69B03 PUSH1 0x6 PUSH1 0x0 PUSH2 0x100 EXP DUP2 SLOAD DUP2 PUSH20 0xFFFFFFFFFFFFFFFFFFFFFFFFFFFFFFFFFFFFFFFF MUL NOT AND SWAP1 DUP4 PUSH20 0xFFFFFFFFFFFFFFFFFFFFFFFFFFFFFFFFFFFFFFFF AND MUL OR SWAP1 SSTORE POP CALLVALUE DUP1 ISZERO PUSH3 0x66 JUMPI PUSH1 0x0 DUP1 REVERT JUMPDEST POP PUSH1 0x40 MLOAD PUSH3 0x8111 CODESIZE SUB DUP1 PUSH3 0x8111 DUP4 CODECOPY DUP2 DUP2 ADD PUSH1 0x40 MSTORE DUP2 ADD SWAP1 PUSH3 0x8C SWAP2 SWAP1 PUSH3 0x83D JUMP JUMPDEST DUP6 DUP6 DUP2 PUSH1 0x0 SWAP1 DUP1 MLOAD SWAP1 PUSH1 0x20 ADD SWAP1 PUSH3 0xA6 SWAP3 SWAP2 SWAP1 PUSH3 0x507 JUMP JUMPDEST POP DUP1 PUSH1 0x1 SWAP1 DUP1 MLOAD SWAP1 PUSH1 0x20 ADD SWAP1 PUSH3 0xBF SWAP3 SWAP2 SWAP1 PUSH3 0x507 JUMP JUMPDEST POP POP POP PUSH1 0x40 MLOAD PUSH3 0xD0 SWAP1 PUSH3 0x598 JUMP JUMPDEST PUSH1 0x40 MLOAD DUP1 SWAP2 SUB SWAP1 PUSH1 0x0 CREATE DUP1 ISZERO DUP1 ISZERO PUSH3 0xED JUMPI RETURNDATASIZE PUSH1 0x0 DUP1 RETURNDATACOPY RETURNDATASIZE PUSH1 0x0 REVERT JUMPDEST POP PUSH1 0x8 PUSH1 0x0 PUSH2 0x100 EXP DUP2 SLOAD DUP2 PUSH20 0xFFFFFFFFFFFFFFFFFFFFFFFFFFFFFFFFFFFFFFFF MUL NOT AND SWAP1 DUP4 PUSH20 0xFFFFFFFFFFFFFFFFFFFFFFFFFFFFFFFFFFFFFFFF AND MUL OR SWAP1 SSTORE POP DUP4 PUSH1 0x7 PUSH1 0x0 PUSH2 0x100 EXP DUP2 SLOAD DUP2 PUSH20 0xFFFFFFFFFFFFFFFFFFFFFFFFFFFFFFFFFFFFFFFF MUL NOT AND SWAP1 DUP4 PUSH20 0xFFFFFFFFFFFFFFFFFFFFFFFFFFFFFFFFFFFFFFFF AND MUL OR SWAP1 SSTORE POP DUP3 PUSH1 0x9 DUP2 SWAP1 SSTORE POP DUP2 PUSH1 0xA DUP2 SWAP1 SSTORE POP DUP1 PUSH1 0xE DUP2 SWAP1 SSTORE POP PUSH3 0x1BA PUSH1 0x6 PUSH1 0x0 SWAP1 SLOAD SWAP1 PUSH2 0x100 EXP SWAP1 DIV PUSH20 0xFFFFFFFFFFFFFFFFFFFFFFFFFFFFFFFFFFFFFFFF AND TIMESTAMP PUSH1 0x1 PUSH3 0x240 PUSH1 0x20 SHL PUSH1 0x20 SHR JUMP JUMPDEST PUSH1 0x1 PUSH1 0xD PUSH1 0x0 PUSH1 0x6 PUSH1 0x0 SWAP1 SLOAD SWAP1 PUSH2 0x100 EXP SWAP1 DIV PUSH20 0xFFFFFFFFFFFFFFFFFFFFFFFFFFFFFFFFFFFFFFFF AND PUSH20 0xFFFFFFFFFFFFFFFFFFFFFFFFFFFFFFFFFFFFFFFF AND PUSH20 0xFFFFFFFFFFFFFFFFFFFFFFFFFFFFFFFFFFFFFFFF AND DUP2 MSTORE PUSH1 0x20 ADD SWAP1 DUP2 MSTORE PUSH1 0x20 ADD PUSH1 0x0 KECCAK256 PUSH1 0x0 PUSH2 0x100 EXP DUP2 SLOAD DUP2 PUSH1 0xFF MUL NOT AND SWAP1 DUP4 ISZERO ISZERO MUL OR SWAP1 SSTORE POP POP POP POP POP POP POP PUSH3 0xBB6 JUMP JUMPDEST PUSH1 0x0 DUP3 DUP5 PUSH1 0x40 MLOAD PUSH1 0x20 ADD PUSH3 0x257 SWAP3 SWAP2 SWAP1 PUSH3 0x9A0 JUMP JUMPDEST PUSH1 0x40 MLOAD PUSH1 0x20 DUP2 DUP4 SUB SUB DUP2 MSTORE SWAP1 PUSH1 0x40 MSTORE DUP1 MLOAD SWAP1 PUSH1 0x20 ADD KECCAK256 PUSH1 0x0 SHR SWAP1 POP PUSH1 0x1 ISZERO ISZERO DUP3 ISZERO ISZERO EQ ISZERO PUSH3 0x2AC JUMPI DUP2 PUSH1 0xC PUSH1 0x0 DUP4 DUP2 MSTORE PUSH1 0x20 ADD SWAP1 DUP2 MSTORE PUSH1 0x20 ADD PUSH1 0x0 KECCAK256 PUSH1 0x0 PUSH2 0x100 EXP DUP2 SLOAD DUP2 PUSH1 0xFF MUL NOT AND SWAP1 DUP4 ISZERO ISZERO MUL OR SWAP1 SSTORE POP JUMPDEST PUSH3 0x2C3 DUP5 DUP3 PUSH3 0x2C9 PUSH1 0x20 SHL PUSH3 0x19AC OR PUSH1 0x20 SHR JUMP JUMPDEST POP POP POP POP JUMP JUMPDEST PUSH1 0x0 PUSH20 0xFFFFFFFFFFFFFFFFFFFFFFFFFFFFFFFFFFFFFFFF AND DUP3 PUSH20 0xFFFFFFFFFFFFFFFFFFFFFFFFFFFFFFFFFFFFFFFF AND EQ ISZERO PUSH3 0x33C JUMPI PUSH1 0x40 MLOAD PUSH32 0x8C379A000000000000000000000000000000000000000000000000000000000 DUP2 MSTORE PUSH1 0x4 ADD PUSH3 0x333 SWAP1 PUSH3 0xA31 JUMP JUMPDEST PUSH1 0x40 MLOAD DUP1 SWAP2 SUB SWAP1 REVERT JUMPDEST PUSH3 0x34D DUP2 PUSH3 0x49B PUSH1 0x20 SHL PUSH1 0x20 SHR JUMP JUMPDEST ISZERO PUSH3 0x390 JUMPI PUSH1 0x40 MLOAD PUSH32 0x8C379A000000000000000000000000000000000000000000000000000000000 DUP2 MSTORE PUSH1 0x4 ADD PUSH3 0x387 SWAP1 PUSH3 0xAA3 JUMP JUMPDEST PUSH1 0x40 MLOAD DUP1 SWAP2 SUB SWAP1 REVERT JUMPDEST PUSH1 0x1 PUSH1 0x3 PUSH1 0x0 DUP5 PUSH20 0xFFFFFFFFFFFFFFFFFFFFFFFFFFFFFFFFFFFFFFFF AND PUSH20 0xFFFFFFFFFFFFFFFFFFFFFFFFFFFFFFFFFFFFFFFF AND DUP2 MSTORE PUSH1 0x20 ADD SWAP1 DUP2 MSTORE PUSH1 0x20 ADD PUSH1 0x0 KECCAK256 PUSH1 0x0 DUP3 DUP3 SLOAD PUSH3 0x3E2 SWAP2 SWAP1 PUSH3 0xAF4 JUMP JUMPDEST SWAP3 POP POP DUP2 SWAP1 SSTORE POP DUP2 PUSH1 0x2 PUSH1 0x0 DUP4 DUP2 MSTORE PUSH1 0x20 ADD SWAP1 DUP2 MSTORE PUSH1 0x20 ADD PUSH1 0x0 KECCAK256 PUSH1 0x0 PUSH2 0x100 EXP DUP2 SLOAD DUP2 PUSH20 0xFFFFFFFFFFFFFFFFFFFFFFFFFFFFFFFFFFFFFFFF MUL NOT AND SWAP1 DUP4 PUSH20 0xFFFFFFFFFFFFFFFFFFFFFFFFFFFFFFFFFFFFFFFF AND MUL OR SWAP1 SSTORE POP DUP1 DUP3 PUSH20 0xFFFFFFFFFFFFFFFFFFFFFFFFFFFFFFFFFFFFFFFF AND PUSH1 0x0 PUSH20 0xFFFFFFFFFFFFFFFFFFFFFFFFFFFFFFFFFFFFFFFF AND PUSH32 0xDDF252AD1BE2C89B69C2B068FC378DAA952BA7F163C4A11628F55A4DF523B3EF PUSH1 0x40 MLOAD PUSH1 0x40 MLOAD DUP1 SWAP2 SUB SWAP1 LOG4 POP POP JUMP JUMPDEST PUSH1 0x0 DUP1 PUSH20 0xFFFFFFFFFFFFFFFFFFFFFFFFFFFFFFFFFFFFFFFF AND PUSH1 0x2 PUSH1 0x0 DUP5 DUP2 MSTORE PUSH1 0x20 ADD SWAP1 DUP2 MSTORE PUSH1 0x20 ADD PUSH1 0x0 KECCAK256 PUSH1 0x0 SWAP1 SLOAD SWAP1 PUSH2 0x100 EXP SWAP1 DIV PUSH20 0xFFFFFFFFFFFFFFFFFFFFFFFFFFFFFFFFFFFFFFFF AND PUSH20 0xFFFFFFFFFFFFFFFFFFFFFFFFFFFFFFFFFFFFFFFF AND EQ ISZERO SWAP1 POP SWAP2 SWAP1 POP JUMP JUMPDEST DUP3 DUP1 SLOAD PUSH3 0x515 SWAP1 PUSH3 0xB80 JUMP JUMPDEST SWAP1 PUSH1 0x0 MSTORE PUSH1 0x20 PUSH1 0x0 KECCAK256 SWAP1 PUSH1 0x1F ADD PUSH1 0x20 SWAP1 DIV DUP2 ADD SWAP3 DUP3 PUSH3 0x539 JUMPI PUSH1 0x0 DUP6 SSTORE PUSH3 0x585 JUMP JUMPDEST DUP3 PUSH1 0x1F LT PUSH3 0x554 JUMPI DUP1 MLOAD PUSH1 0xFF NOT AND DUP4 DUP1 ADD OR DUP6 SSTORE PUSH3 0x585 JUMP JUMPDEST DUP3 DUP1 ADD PUSH1 0x1 ADD DUP6 SSTORE DUP3 ISZERO PUSH3 0x585 JUMPI SWAP2 DUP3 ADD JUMPDEST DUP3 DUP2 GT ISZERO PUSH3 0x584 JUMPI DUP3 MLOAD DUP3 SSTORE SWAP2 PUSH1 0x20 ADD SWAP2 SWAP1 PUSH1 0x1 ADD SWAP1 PUSH3 0x567 JUMP JUMPDEST JUMPDEST POP SWAP1 POP PUSH3 0x594 SWAP2 SWAP1 PUSH3 0x5A6 JUMP JUMPDEST POP SWAP1 JUMP JUMPDEST PUSH2 0x3382 DUP1 PUSH3 0x4D8F DUP4 CODECOPY ADD SWAP1 JUMP JUMPDEST JUMPDEST DUP1 DUP3 GT ISZERO PUSH3 0x5C1 JUMPI PUSH1 0x0 DUP2 PUSH1 0x0 SWAP1 SSTORE POP PUSH1 0x1 ADD PUSH3 0x5A7 JUMP JUMPDEST POP SWAP1 JUMP JUMPDEST PUSH1 0x0 PUSH1 0x40 MLOAD SWAP1 POP SWAP1 JUMP JUMPDEST PUSH1 0x0 DUP1 REVERT JUMPDEST PUSH1 0x0 DUP1 REVERT JUMPDEST PUSH1 0x0 DUP1 REVERT JUMPDEST PUSH1 0x0 DUP1 REVERT JUMPDEST PUSH1 0x0 PUSH1 0x1F NOT PUSH1 0x1F DUP4 ADD AND SWAP1 POP SWAP2 SWAP1 POP JUMP JUMPDEST PUSH32 0x4E487B7100000000000000000000000000000000000000000000000000000000 PUSH1 0x0 MSTORE PUSH1 0x41 PUSH1 0x4 MSTORE PUSH1 0x24 PUSH1 0x0 REVERT JUMPDEST PUSH3 0x62E DUP3 PUSH3 0x5E3 JUMP JUMPDEST DUP2 ADD DUP2 DUP2 LT PUSH8 0xFFFFFFFFFFFFFFFF DUP3 GT OR ISZERO PUSH3 0x650 JUMPI PUSH3 0x64F PUSH3 0x5F4 JUMP JUMPDEST JUMPDEST DUP1 PUSH1 0x40 MSTORE POP POP POP JUMP JUMPDEST PUSH1 0x0 PUSH3 0x665 PUSH3 0x5C5 JUMP JUMPDEST SWAP1 POP PUSH3 0x673 DUP3 DUP3 PUSH3 0x623 JUMP JUMPDEST SWAP2 SWAP1 POP JUMP JUMPDEST PUSH1 0x0 PUSH8 0xFFFFFFFFFFFFFFFF DUP3 GT ISZERO PUSH3 0x696 JUMPI PUSH3 0x695 PUSH3 0x5F4 JUMP JUMPDEST JUMPDEST PUSH3 0x6A1 DUP3 PUSH3 0x5E3 JUMP JUMPDEST SWAP1 POP PUSH1 0x20 DUP2 ADD SWAP1 POP SWAP2 SWAP1 POP JUMP JUMPDEST PUSH1 0x0 JUMPDEST DUP4 DUP2 LT ISZERO PUSH3 0x6CE JUMPI DUP1 DUP3 ADD MLOAD DUP2 DUP5 ADD MSTORE PUSH1 0x20 DUP2 ADD SWAP1 POP PUSH3 0x6B1 JUMP JUMPDEST DUP4 DUP2 GT ISZERO PUSH3 0x6DE JUMPI PUSH1 0x0 DUP5 DUP5 ADD MSTORE JUMPDEST POP POP POP POP JUMP JUMPDEST PUSH1 0x0 PUSH3 0x6FB PUSH3 0x6F5 DUP5 PUSH3 0x678 JUMP JUMPDEST PUSH3 0x659 JUMP JUMPDEST SWAP1 POP DUP3 DUP2 MSTORE PUSH1 0x20 DUP2 ADD DUP5 DUP5 DUP5 ADD GT ISZERO PUSH3 0x71A JUMPI PUSH3 0x719 PUSH3 0x5DE JUMP JUMPDEST JUMPDEST PUSH3 0x727 DUP5 DUP3 DUP6 PUSH3 0x6AE JUMP JUMPDEST POP SWAP4 SWAP3 POP POP POP JUMP JUMPDEST PUSH1 0x0 DUP3 PUSH1 0x1F DUP4 ADD SLT PUSH3 0x747 JUMPI PUSH3 0x746 PUSH3 0x5D9 JUMP JUMPDEST JUMPDEST DUP2 MLOAD PUSH3 0x759 DUP5 DUP3 PUSH1 0x20 DUP7 ADD PUSH3 0x6E4 JUMP JUMPDEST SWAP2 POP POP SWAP3 SWAP2 POP POP JUMP JUMPDEST PUSH1 0x0 PUSH20 0xFFFFFFFFFFFFFFFFFFFFFFFFFFFFFFFFFFFFFFFF DUP3 AND SWAP1 POP SWAP2 SWAP1 POP JUMP JUMPDEST PUSH1 0x0 PUSH3 0x78F DUP3 PUSH3 0x762 JUMP JUMPDEST SWAP1 POP SWAP2 SWAP1 POP JUMP JUMPDEST PUSH3 0x7A1 DUP2 PUSH3 0x782 JUMP JUMPDEST DUP2 EQ PUSH3 0x7AD JUMPI PUSH1 0x0 DUP1 REVERT JUMPDEST POP JUMP JUMPDEST PUSH1 0x0 DUP2 MLOAD SWAP1 POP PUSH3 0x7C1 DUP2 PUSH3 0x796 JUMP JUMPDEST SWAP3 SWAP2 POP POP JUMP JUMPDEST PUSH1 0x0 DUP2 SWAP1 POP SWAP2 SWAP1 POP JUMP JUMPDEST PUSH3 0x7DC DUP2 PUSH3 0x7C7 JUMP JUMPDEST DUP2 EQ PUSH3 0x7E8 JUMPI PUSH1 0x0 DUP1 REVERT JUMPDEST POP JUMP JUMPDEST PUSH1 0x0 DUP2 MLOAD SWAP1 POP PUSH3 0x7FC DUP2 PUSH3 0x7D1 JUMP JUMPDEST SWAP3 SWAP2 POP POP JUMP JUMPDEST PUSH1 0x0 DUP2 SWAP1 POP SWAP2 SWAP1 POP JUMP JUMPDEST PUSH3 0x817 DUP2 PUSH3 0x802 JUMP JUMPDEST DUP2 EQ PUSH3 0x823 JUMPI PUSH1 0x0 DUP1 REVERT JUMPDEST POP JUMP JUMPDEST PUSH1 0x0 DUP2 MLOAD SWAP1 POP PUSH3 0x837 DUP2 PUSH3 0x80C JUMP JUMPDEST SWAP3 SWAP2 POP POP JUMP JUMPDEST PUSH1 0x0 DUP1 PUSH1 0x0 DUP1 PUSH1 0x0 DUP1 PUSH1 0xC0 DUP8 DUP10 SUB SLT ISZERO PUSH3 0x85D JUMPI PUSH3 0x85C PUSH3 0x5CF JUMP JUMPDEST JUMPDEST PUSH1 0x0 DUP8 ADD MLOAD PUSH8 0xFFFFFFFFFFFFFFFF DUP2 GT ISZERO PUSH3 0x87E JUMPI PUSH3 0x87D PUSH3 0x5D4 JUMP JUMPDEST JUMPDEST PUSH3 0x88C DUP10 DUP3 DUP11 ADD PUSH3 0x72F JUMP JUMPDEST SWAP7 POP POP PUSH1 0x20 DUP8 ADD MLOAD PUSH8 0xFFFFFFFFFFFFFFFF DUP2 GT ISZERO PUSH3 0x8B0 JUMPI PUSH3 0x8AF PUSH3 0x5D4 JUMP JUMPDEST JUMPDEST PUSH3 0x8BE DUP10 DUP3 DUP11 ADD PUSH3 0x72F JUMP JUMPDEST SWAP6 POP POP PUSH1 0x40 PUSH3 0x8D1 DUP10 DUP3 DUP11 ADD PUSH3 0x7B0 JUMP JUMPDEST SWAP5 POP POP PUSH1 0x60 PUSH3 0x8E4 DUP10 DUP3 DUP11 ADD PUSH3 0x7EB JUMP JUMPDEST SWAP4 POP POP PUSH1 0x80 PUSH3 0x8F7 DUP10 DUP3 DUP11 ADD PUSH3 0x7EB JUMP JUMPDEST SWAP3 POP POP PUSH1 0xA0 PUSH3 0x90A DUP10 DUP3 DUP11 ADD PUSH3 0x826 JUMP JUMPDEST SWAP2 POP POP SWAP3 SWAP6 POP SWAP3 SWAP6 POP SWAP3 SWAP6 JUMP JUMPDEST PUSH1 0x0 DUP2 SWAP1 POP SWAP2 SWAP1 POP JUMP JUMPDEST PUSH3 0x936 PUSH3 0x930 DUP3 PUSH3 0x7C7 JUMP JUMPDEST PUSH3 0x917 JUMP JUMPDEST DUP3 MSTORE POP POP JUMP JUMPDEST PUSH1 0x0 PUSH3 0x949 DUP3 PUSH3 0x762 JUMP JUMPDEST SWAP1 POP SWAP2 SWAP1 POP JUMP JUMPDEST PUSH1 0x0 DUP2 PUSH1 0x60 SHL SWAP1 POP SWAP2 SWAP1 POP JUMP JUMPDEST PUSH1 0x0 PUSH3 0x96A DUP3 PUSH3 0x950 JUMP JUMPDEST SWAP1 POP SWAP2 SWAP1 POP JUMP JUMPDEST PUSH1 0x0 PUSH3 0x97E DUP3 PUSH3 0x95D JUMP JUMPDEST SWAP1 POP SWAP2 SWAP1 POP JUMP JUMPDEST PUSH3 0x99A PUSH3 0x994 DUP3 PUSH3 0x93C JUMP JUMPDEST PUSH3 0x971 JUMP JUMPDEST DUP3 MSTORE POP POP JUMP JUMPDEST PUSH1 0x0 PUSH3 0x9AE DUP3 DUP6 PUSH3 0x921 JUMP JUMPDEST PUSH1 0x20 DUP3 ADD SWAP2 POP PUSH3 0x9C0 DUP3 DUP5 PUSH3 0x985 JUMP JUMPDEST PUSH1 0x14 DUP3 ADD SWAP2 POP DUP2 SWAP1 POP SWAP4 SWAP3 POP POP POP JUMP JUMPDEST PUSH1 0x0 DUP3 DUP3 MSTORE PUSH1 0x20 DUP3 ADD SWAP1 POP SWAP3 SWAP2 POP POP JUMP JUMPDEST PUSH32 0x4552433732313A206D696E7420746F20746865207A65726F2061646472657373 PUSH1 0x0 DUP3 ADD MSTORE POP JUMP JUMPDEST PUSH1 0x0 PUSH3 0xA19 PUSH1 0x20 DUP4 PUSH3 0x9D0 JUMP JUMPDEST SWAP2 POP PUSH3 0xA26 DUP3 PUSH3 0x9E1 JUMP JUMPDEST PUSH1 0x20 DUP3 ADD SWAP1 POP SWAP2 SWAP1 POP JUMP JUMPDEST PUSH1 0x0 PUSH1 0x20 DUP3 ADD SWAP1 POP DUP2 DUP2 SUB PUSH1 0x0 DUP4 ADD MSTORE PUSH3 0xA4C DUP2 PUSH3 0xA0A JUMP JUMPDEST SWAP1 POP SWAP2 SWAP1 POP JUMP JUMPDEST PUSH32 0x4552433732313A20746F6B656E20616C7265616479206D696E74656400000000 PUSH1 0x0 DUP3 ADD MSTORE POP JUMP JUMPDEST PUSH1 0x0 PUSH3 0xA8B PUSH1 0x1C DUP4 PUSH3 0x9D0 JUMP JUMPDEST SWAP2 POP PUSH3 0xA98 DUP3 PUSH3 0xA53 JUMP JUMPDEST PUSH1 0x20 DUP3 ADD SWAP1 POP SWAP2 SWAP1 POP JUMP JUMPDEST PUSH1 0x0 PUSH1 0x20 DUP3 ADD SWAP1 POP DUP2 DUP2 SUB PUSH1 0x0 DUP4 ADD MSTORE PUSH3 0xABE DUP2 PUSH3 0xA7C JUMP JUMPDEST SWAP1 POP SWAP2 SWAP1 POP JUMP JUMPDEST PUSH32 0x4E487B7100000000000000000000000000000000000000000000000000000000 PUSH1 0x0 MSTORE PUSH1 0x11 PUSH1 0x4 MSTORE PUSH1 0x24 PUSH1 0x0 REVERT JUMPDEST PUSH1 0x0 PUSH3 0xB01 DUP3 PUSH3 0x7C7 JUMP JUMPDEST SWAP2 POP PUSH3 0xB0E DUP4 PUSH3 0x7C7 JUMP JUMPDEST SWAP3 POP DUP3 PUSH32 0xFFFFFFFFFFFFFFFFFFFFFFFFFFFFFFFFFFFFFFFFFFFFFFFFFFFFFFFFFFFFFFFF SUB DUP3 GT ISZERO PUSH3 0xB46 JUMPI PUSH3 0xB45 PUSH3 0xAC5 JUMP JUMPDEST JUMPDEST DUP3 DUP3 ADD SWAP1 POP SWAP3 SWAP2 POP POP JUMP JUMPDEST PUSH32 0x4E487B7100000000000000000000000000000000000000000000000000000000 PUSH1 0x0 MSTORE PUSH1 0x22 PUSH1 0x4 MSTORE PUSH1 0x24 PUSH1 0x0 REVERT JUMPDEST PUSH1 0x0 PUSH1 0x2 DUP3 DIV SWAP1 POP PUSH1 0x1 DUP3 AND DUP1 PUSH3 0xB99 JUMPI PUSH1 0x7F DUP3 AND SWAP2 POP JUMPDEST PUSH1 0x20 DUP3 LT DUP2 EQ ISZERO PUSH3 0xBB0 JUMPI PUSH3 0xBAF PUSH3 0xB51 JUMP JUMPDEST JUMPDEST POP SWAP2 SWAP1 POP JUMP JUMPDEST PUSH2 0x41C9 DUP1 PUSH3 0xBC6 PUSH1 0x0 CODECOPY PUSH1 0x0 RETURN INVALID PUSH1 0x80 PUSH1 0x40 MSTORE PUSH1 0x4 CALLDATASIZE LT PUSH2 0x1E3 JUMPI PUSH1 0x0 CALLDATALOAD PUSH1 0xE0 SHR DUP1 PUSH4 0x70A08231 GT PUSH2 0x102 JUMPI DUP1 PUSH4 0xB88D4FDE GT PUSH2 0x95 JUMPI DUP1 PUSH4 0xC884EF83 GT PUSH2 0x64 JUMPI DUP1 PUSH4 0xC884EF83 EQ PUSH2 0x6FE JUMPI DUP1 PUSH4 0xE086E5EC EQ PUSH2 0x73B JUMPI DUP1 PUSH4 0xE985E9C5 EQ PUSH2 0x752 JUMPI DUP1 PUSH4 0xFD85B89F EQ PUSH2 0x78F JUMPI PUSH2 0x1E3 JUMP JUMPDEST DUP1 PUSH4 0xB88D4FDE EQ PUSH2 0x642 JUMPI DUP1 PUSH4 0xC24A0F8B EQ PUSH2 0x66B JUMPI DUP1 PUSH4 0xC35AB716 EQ PUSH2 0x696 JUMPI DUP1 PUSH4 0xC87B56DD EQ PUSH2 0x6C1 JUMPI PUSH2 0x1E3 JUMP JUMPDEST DUP1 PUSH4 0x95D89B41 GT PUSH2 0xD1 JUMPI DUP1 PUSH4 0x95D89B41 EQ PUSH2 0x588 JUMPI DUP1 PUSH4 0xA22CB465 EQ PUSH2 0x5B3 JUMPI DUP1 PUSH4 0xA48B3B8F EQ PUSH2 0x5DC JUMPI DUP1 PUSH4 0xABA048B4 EQ PUSH2 0x619 JUMPI PUSH2 0x1E3 JUMP JUMPDEST DUP1 PUSH4 0x70A08231 EQ PUSH2 0x4A6 JUMPI DUP1 PUSH4 0x79B92F27 EQ PUSH2 0x4E3 JUMPI DUP1 PUSH4 0x8DA5CB5B EQ PUSH2 0x520 JUMPI DUP1 PUSH4 0x90346FD4 EQ PUSH2 0x54B JUMPI PUSH2 0x1E3 JUMP JUMPDEST DUP1 PUSH4 0x423D7939 GT PUSH2 0x17A JUMPI DUP1 PUSH4 0x66D003AC GT PUSH2 0x149 JUMPI DUP1 PUSH4 0x66D003AC EQ PUSH2 0x40B JUMPI DUP1 PUSH4 0x6A9F60C4 EQ PUSH2 0x436 JUMPI DUP1 PUSH4 0x6D9EC494 EQ PUSH2 0x452 JUMPI DUP1 PUSH4 0x6DDAB6F9 EQ PUSH2 0x47D JUMPI PUSH2 0x1E3 JUMP JUMPDEST DUP1 PUSH4 0x423D7939 EQ PUSH2 0x33F JUMPI DUP1 PUSH4 0x42842E0E EQ PUSH2 0x368 JUMPI DUP1 PUSH4 0x4B44D812 EQ PUSH2 0x391 JUMPI DUP1 PUSH4 0x6352211E EQ PUSH2 0x3CE JUMPI PUSH2 0x1E3 JUMP JUMPDEST DUP1 PUSH4 0xB97BC86 GT PUSH2 0x1B6 JUMPI DUP1 PUSH4 0xB97BC86 EQ PUSH2 0x2B6 JUMPI DUP1 PUSH4 0x1249C58B EQ PUSH2 0x2E1 JUMPI DUP1 PUSH4 0x23B872DD EQ PUSH2 0x2EB JUMPI DUP1 PUSH4 0x303E74DF EQ PUSH2 0x314 JUMPI PUSH2 0x1E3 JUMP JUMPDEST DUP1 PUSH4 0x1FFC9A7 EQ PUSH2 0x1E8 JUMPI DUP1 PUSH4 0x6FDDE03 EQ PUSH2 0x225 JUMPI DUP1 PUSH4 0x81812FC EQ PUSH2 0x250 JUMPI DUP1 PUSH4 0x95EA7B3 EQ PUSH2 0x28D JUMPI JUMPDEST PUSH1 0x0 DUP1 REVERT JUMPDEST CALLVALUE DUP1 ISZERO PUSH2 0x1F4 JUMPI PUSH1 0x0 DUP1 REVERT JUMPDEST POP PUSH2 0x20F PUSH1 0x4 DUP1 CALLDATASIZE SUB DUP2 ADD SWAP1 PUSH2 0x20A SWAP2 SWAP1 PUSH2 0x25E8 JUMP JUMPDEST PUSH2 0x7CC JUMP JUMPDEST PUSH1 0x40 MLOAD PUSH2 0x21C SWAP2 SWAP1 PUSH2 0x2630 JUMP JUMPDEST PUSH1 0x40 MLOAD DUP1 SWAP2 SUB SWAP1 RETURN JUMPDEST CALLVALUE DUP1 ISZERO PUSH2 0x231 JUMPI PUSH1 0x0 DUP1 REVERT JUMPDEST POP PUSH2 0x23A PUSH2 0x8AE JUMP JUMPDEST PUSH1 0x40 MLOAD PUSH2 0x247 SWAP2 SWAP1 PUSH2 0x26E4 JUMP JUMPDEST PUSH1 0x40 MLOAD DUP1 SWAP2 SUB SWAP1 RETURN JUMPDEST CALLVALUE DUP1 ISZERO PUSH2 0x25C JUMPI PUSH1 0x0 DUP1 REVERT JUMPDEST POP PUSH2 0x277 PUSH1 0x4 DUP1 CALLDATASIZE SUB DUP2 ADD SWAP1 PUSH2 0x272 SWAP2 SWAP1 PUSH2 0x273C JUMP JUMPDEST PUSH2 0x940 JUMP JUMPDEST PUSH1 0x40 MLOAD PUSH2 0x284 SWAP2 SWAP1 PUSH2 0x27AA JUMP JUMPDEST PUSH1 0x40 MLOAD DUP1 SWAP2 SUB SWAP1 RETURN JUMPDEST CALLVALUE DUP1 ISZERO PUSH2 0x299 JUMPI PUSH1 0x0 DUP1 REVERT JUMPDEST POP PUSH2 0x2B4 PUSH1 0x4 DUP1 CALLDATASIZE SUB DUP2 ADD SWAP1 PUSH2 0x2AF SWAP2 SWAP1 PUSH2 0x27F1 JUMP JUMPDEST PUSH2 0x9C5 JUMP JUMPDEST STOP JUMPDEST CALLVALUE DUP1 ISZERO PUSH2 0x2C2 JUMPI PUSH1 0x0 DUP1 REVERT JUMPDEST POP PUSH2 0x2CB PUSH2 0xACF JUMP JUMPDEST PUSH1 0x40 MLOAD PUSH2 0x2D8 SWAP2 SWAP1 PUSH2 0x2840 JUMP JUMPDEST PUSH1 0x40 MLOAD DUP1 SWAP2 SUB SWAP1 RETURN JUMPDEST PUSH2 0x2E9 PUSH2 0xAD5 JUMP JUMPDEST STOP JUMPDEST CALLVALUE DUP1 ISZERO PUSH2 0x2F7 JUMPI PUSH1 0x0 DUP1 REVERT JUMPDEST POP PUSH2 0x312 PUSH1 0x4 DUP1 CALLDATASIZE SUB DUP2 ADD SWAP1 PUSH2 0x30D SWAP2 SWAP1 PUSH2 0x285B JUMP JUMPDEST PUSH2 0xB2D JUMP JUMPDEST STOP JUMPDEST CALLVALUE DUP1 ISZERO PUSH2 0x320 JUMPI PUSH1 0x0 DUP1 REVERT JUMPDEST POP PUSH2 0x329 PUSH2 0xB86 JUMP JUMPDEST PUSH1 0x40 MLOAD PUSH2 0x336 SWAP2 SWAP1 PUSH2 0x290D JUMP JUMPDEST PUSH1 0x40 MLOAD DUP1 SWAP2 SUB SWAP1 RETURN JUMPDEST CALLVALUE DUP1 ISZERO PUSH2 0x34B JUMPI PUSH1 0x0 DUP1 REVERT JUMPDEST POP PUSH2 0x366 PUSH1 0x4 DUP1 CALLDATASIZE SUB DUP2 ADD SWAP1 PUSH2 0x361 SWAP2 SWAP1 PUSH2 0x298D JUMP JUMPDEST PUSH2 0xBAC JUMP JUMPDEST STOP JUMPDEST CALLVALUE DUP1 ISZERO PUSH2 0x374 JUMPI PUSH1 0x0 DUP1 REVERT JUMPDEST POP PUSH2 0x38F PUSH1 0x4 DUP1 CALLDATASIZE SUB DUP2 ADD SWAP1 PUSH2 0x38A SWAP2 SWAP1 PUSH2 0x285B JUMP JUMPDEST PUSH2 0xD61 JUMP JUMPDEST STOP JUMPDEST CALLVALUE DUP1 ISZERO PUSH2 0x39D JUMPI PUSH1 0x0 DUP1 REVERT JUMPDEST POP PUSH2 0x3B8 PUSH1 0x4 DUP1 CALLDATASIZE SUB DUP2 ADD SWAP1 PUSH2 0x3B3 SWAP2 SWAP1 PUSH2 0x273C JUMP JUMPDEST PUSH2 0xD81 JUMP JUMPDEST PUSH1 0x40 MLOAD PUSH2 0x3C5 SWAP2 SWAP1 PUSH2 0x26E4 JUMP JUMPDEST PUSH1 0x40 MLOAD DUP1 SWAP2 SUB SWAP1 RETURN JUMPDEST CALLVALUE DUP1 ISZERO PUSH2 0x3DA JUMPI PUSH1 0x0 DUP1 REVERT JUMPDEST POP PUSH2 0x3F5 PUSH1 0x4 DUP1 CALLDATASIZE SUB DUP2 ADD SWAP1 PUSH2 0x3F0 SWAP2 SWAP1 PUSH2 0x273C JUMP JUMPDEST PUSH2 0xE53 JUMP JUMPDEST PUSH1 0x40 MLOAD PUSH2 0x402 SWAP2 SWAP1 PUSH2 0x27AA JUMP JUMPDEST PUSH1 0x40 MLOAD DUP1 SWAP2 SUB SWAP1 RETURN JUMPDEST CALLVALUE DUP1 ISZERO PUSH2 0x417 JUMPI PUSH1 0x0 DUP1 REVERT JUMPDEST POP PUSH2 0x420 PUSH2 0xF05 JUMP JUMPDEST PUSH1 0x40 MLOAD PUSH2 0x42D SWAP2 SWAP1 PUSH2 0x2A0E JUMP JUMPDEST PUSH1 0x40 MLOAD DUP1 SWAP2 SUB SWAP1 RETURN JUMPDEST PUSH2 0x450 PUSH1 0x4 DUP1 CALLDATASIZE SUB DUP2 ADD SWAP1 PUSH2 0x44B SWAP2 SWAP1 PUSH2 0x273C JUMP JUMPDEST PUSH2 0xF2B JUMP JUMPDEST STOP JUMPDEST CALLVALUE DUP1 ISZERO PUSH2 0x45E JUMPI PUSH1 0x0 DUP1 REVERT JUMPDEST POP PUSH2 0x467 PUSH2 0xFCB JUMP JUMPDEST PUSH1 0x40 MLOAD PUSH2 0x474 SWAP2 SWAP1 PUSH2 0x2A42 JUMP JUMPDEST PUSH1 0x40 MLOAD DUP1 SWAP2 SUB SWAP1 RETURN JUMPDEST CALLVALUE DUP1 ISZERO PUSH2 0x489 JUMPI PUSH1 0x0 DUP1 REVERT JUMPDEST POP PUSH2 0x4A4 PUSH1 0x4 DUP1 CALLDATASIZE SUB DUP2 ADD SWAP1 PUSH2 0x49F SWAP2 SWAP1 PUSH2 0x2A5D JUMP JUMPDEST PUSH2 0xFD1 JUMP JUMPDEST STOP JUMPDEST CALLVALUE DUP1 ISZERO PUSH2 0x4B2 JUMPI PUSH1 0x0 DUP1 REVERT JUMPDEST POP PUSH2 0x4CD PUSH1 0x4 DUP1 CALLDATASIZE SUB DUP2 ADD SWAP1 PUSH2 0x4C8 SWAP2 SWAP1 PUSH2 0x2A5D JUMP JUMPDEST PUSH2 0x10EB JUMP JUMPDEST PUSH1 0x40 MLOAD PUSH2 0x4DA SWAP2 SWAP1 PUSH2 0x2840 JUMP JUMPDEST PUSH1 0x40 MLOAD DUP1 SWAP2 SUB SWAP1 RETURN JUMPDEST CALLVALUE DUP1 ISZERO PUSH2 0x4EF JUMPI PUSH1 0x0 DUP1 REVERT JUMPDEST POP PUSH2 0x50A PUSH1 0x4 DUP1 CALLDATASIZE SUB DUP2 ADD SWAP1 PUSH2 0x505 SWAP2 SWAP1 PUSH2 0x273C JUMP JUMPDEST PUSH2 0x11A3 JUMP JUMPDEST PUSH1 0x40 MLOAD PUSH2 0x517 SWAP2 SWAP1 PUSH2 0x26E4 JUMP JUMPDEST PUSH1 0x40 MLOAD DUP1 SWAP2 SUB SWAP1 RETURN JUMPDEST CALLVALUE DUP1 ISZERO PUSH2 0x52C JUMPI PUSH1 0x0 DUP1 REVERT JUMPDEST POP PUSH2 0x535 PUSH2 0x1275 JUMP JUMPDEST PUSH1 0x40 MLOAD PUSH2 0x542 SWAP2 SWAP1 PUSH2 0x27AA JUMP JUMPDEST PUSH1 0x40 MLOAD DUP1 SWAP2 SUB SWAP1 RETURN JUMPDEST CALLVALUE DUP1 ISZERO PUSH2 0x557 JUMPI PUSH1 0x0 DUP1 REVERT JUMPDEST POP PUSH2 0x572 PUSH1 0x4 DUP1 CALLDATASIZE SUB DUP2 ADD SWAP1 PUSH2 0x56D SWAP2 SWAP1 PUSH2 0x2AB6 JUMP JUMPDEST PUSH2 0x129B JUMP JUMPDEST PUSH1 0x40 MLOAD PUSH2 0x57F SWAP2 SWAP1 PUSH2 0x26E4 JUMP JUMPDEST PUSH1 0x40 MLOAD DUP1 SWAP2 SUB SWAP1 RETURN JUMPDEST CALLVALUE DUP1 ISZERO PUSH2 0x594 JUMPI PUSH1 0x0 DUP1 REVERT JUMPDEST POP PUSH2 0x59D PUSH2 0x137A JUMP JUMPDEST PUSH1 0x40 MLOAD PUSH2 0x5AA SWAP2 SWAP1 PUSH2 0x26E4 JUMP JUMPDEST PUSH1 0x40 MLOAD DUP1 SWAP2 SUB SWAP1 RETURN JUMPDEST CALLVALUE DUP1 ISZERO PUSH2 0x5BF JUMPI PUSH1 0x0 DUP1 REVERT JUMPDEST POP PUSH2 0x5DA PUSH1 0x4 DUP1 CALLDATASIZE SUB DUP2 ADD SWAP1 PUSH2 0x5D5 SWAP2 SWAP1 PUSH2 0x2B09 JUMP JUMPDEST PUSH2 0x140C JUMP JUMPDEST STOP JUMPDEST CALLVALUE DUP1 ISZERO PUSH2 0x5E8 JUMPI PUSH1 0x0 DUP1 REVERT JUMPDEST POP PUSH2 0x603 PUSH1 0x4 DUP1 CALLDATASIZE SUB DUP2 ADD SWAP1 PUSH2 0x5FE SWAP2 SWAP1 PUSH2 0x273C JUMP JUMPDEST PUSH2 0x1578 JUMP JUMPDEST PUSH1 0x40 MLOAD PUSH2 0x610 SWAP2 SWAP1 PUSH2 0x26E4 JUMP JUMPDEST PUSH1 0x40 MLOAD DUP1 SWAP2 SUB SWAP1 RETURN JUMPDEST CALLVALUE DUP1 ISZERO PUSH2 0x625 JUMPI PUSH1 0x0 DUP1 REVERT JUMPDEST POP PUSH2 0x640 PUSH1 0x4 DUP1 CALLDATASIZE SUB DUP2 ADD SWAP1 PUSH2 0x63B SWAP2 SWAP1 PUSH2 0x2B49 JUMP JUMPDEST PUSH2 0x1598 JUMP JUMPDEST STOP JUMPDEST CALLVALUE DUP1 ISZERO PUSH2 0x64E JUMPI PUSH1 0x0 DUP1 REVERT JUMPDEST POP PUSH2 0x669 PUSH1 0x4 DUP1 CALLDATASIZE SUB DUP2 ADD SWAP1 PUSH2 0x664 SWAP2 SWAP1 PUSH2 0x2CC6 JUMP JUMPDEST PUSH2 0x15A7 JUMP JUMPDEST STOP JUMPDEST CALLVALUE DUP1 ISZERO PUSH2 0x677 JUMPI PUSH1 0x0 DUP1 REVERT JUMPDEST POP PUSH2 0x680 PUSH2 0x1602 JUMP JUMPDEST PUSH1 0x40 MLOAD PUSH2 0x68D SWAP2 SWAP1 PUSH2 0x2840 JUMP JUMPDEST PUSH1 0x40 MLOAD DUP1 SWAP2 SUB SWAP1 RETURN JUMPDEST CALLVALUE DUP1 ISZERO PUSH2 0x6A2 JUMPI PUSH1 0x0 DUP1 REVERT JUMPDEST POP PUSH2 0x6AB PUSH2 0x1608 JUMP JUMPDEST PUSH1 0x40 MLOAD PUSH2 0x6B8 SWAP2 SWAP1 PUSH2 0x2840 JUMP JUMPDEST PUSH1 0x40 MLOAD DUP1 SWAP2 SUB SWAP1 RETURN JUMPDEST CALLVALUE DUP1 ISZERO PUSH2 0x6CD JUMPI PUSH1 0x0 DUP1 REVERT JUMPDEST POP PUSH2 0x6E8 PUSH1 0x4 DUP1 CALLDATASIZE SUB DUP2 ADD SWAP1 PUSH2 0x6E3 SWAP2 SWAP1 PUSH2 0x273C JUMP JUMPDEST PUSH2 0x160E JUMP JUMPDEST PUSH1 0x40 MLOAD PUSH2 0x6F5 SWAP2 SWAP1 PUSH2 0x26E4 JUMP JUMPDEST PUSH1 0x40 MLOAD DUP1 SWAP2 SUB SWAP1 RETURN JUMPDEST CALLVALUE DUP1 ISZERO PUSH2 0x70A JUMPI PUSH1 0x0 DUP1 REVERT JUMPDEST POP PUSH2 0x725 PUSH1 0x4 DUP1 CALLDATASIZE SUB DUP2 ADD SWAP1 PUSH2 0x720 SWAP2 SWAP1 PUSH2 0x2A5D JUMP JUMPDEST PUSH2 0x178C JUMP JUMPDEST PUSH1 0x40 MLOAD PUSH2 0x732 SWAP2 SWAP1 PUSH2 0x2630 JUMP JUMPDEST PUSH1 0x40 MLOAD DUP1 SWAP2 SUB SWAP1 RETURN JUMPDEST CALLVALUE DUP1 ISZERO PUSH2 0x747 JUMPI PUSH1 0x0 DUP1 REVERT JUMPDEST POP PUSH2 0x750 PUSH2 0x17AC JUMP JUMPDEST STOP JUMPDEST CALLVALUE DUP1 ISZERO PUSH2 0x75E JUMPI PUSH1 0x0 DUP1 REVERT JUMPDEST POP PUSH2 0x779 PUSH1 0x4 DUP1 CALLDATASIZE SUB DUP2 ADD SWAP1 PUSH2 0x774 SWAP2 SWAP1 PUSH2 0x2D49 JUMP JUMPDEST PUSH2 0x1839 JUMP JUMPDEST PUSH1 0x40 MLOAD PUSH2 0x786 SWAP2 SWAP1 PUSH2 0x2630 JUMP JUMPDEST PUSH1 0x40 MLOAD DUP1 SWAP2 SUB SWAP1 RETURN JUMPDEST CALLVALUE DUP1 ISZERO PUSH2 0x79B JUMPI PUSH1 0x0 DUP1 REVERT JUMPDEST POP PUSH2 0x7B6 PUSH1 0x4 DUP1 CALLDATASIZE SUB DUP2 ADD SWAP1 PUSH2 0x7B1 SWAP2 SWAP1 PUSH2 0x2AB6 JUMP JUMPDEST PUSH2 0x18CD JUMP JUMPDEST PUSH1 0x40 MLOAD PUSH2 0x7C3 SWAP2 SWAP1 PUSH2 0x26E4 JUMP JUMPDEST PUSH1 0x40 MLOAD DUP1 SWAP2 SUB SWAP1 RETURN JUMPDEST PUSH1 0x0 PUSH32 0x80AC58CD00000000000000000000000000000000000000000000000000000000 PUSH28 0xFFFFFFFFFFFFFFFFFFFFFFFFFFFFFFFFFFFFFFFFFFFFFFFFFFFFFFFF NOT AND DUP3 PUSH28 0xFFFFFFFFFFFFFFFFFFFFFFFFFFFFFFFFFFFFFFFFFFFFFFFFFFFFFFFF NOT AND EQ DUP1 PUSH2 0x897 JUMPI POP PUSH32 0x5B5E139F00000000000000000000000000000000000000000000000000000000 PUSH28 0xFFFFFFFFFFFFFFFFFFFFFFFFFFFFFFFFFFFFFFFFFFFFFFFFFFFFFFFF NOT AND DUP3 PUSH28 0xFFFFFFFFFFFFFFFFFFFFFFFFFFFFFFFFFFFFFFFFFFFFFFFFFFFFFFFF NOT AND EQ JUMPDEST DUP1 PUSH2 0x8A7 JUMPI POP PUSH2 0x8A6 DUP3 PUSH2 0x1B6E JUMP JUMPDEST JUMPDEST SWAP1 POP SWAP2 SWAP1 POP JUMP JUMPDEST PUSH1 0x60 PUSH1 0x0 DUP1 SLOAD PUSH2 0x8BD SWAP1 PUSH2 0x2DB8 JUMP JUMPDEST DUP1 PUSH1 0x1F ADD PUSH1 0x20 DUP1 SWAP2 DIV MUL PUSH1 0x20 ADD PUSH1 0x40 MLOAD SWAP1 DUP2 ADD PUSH1 0x40 MSTORE DUP1 SWAP3 SWAP2 SWAP1 DUP2 DUP2 MSTORE PUSH1 0x20 ADD DUP3 DUP1 SLOAD PUSH2 0x8E9 SWAP1 PUSH2 0x2DB8 JUMP JUMPDEST DUP1 ISZERO PUSH2 0x936 JUMPI DUP1 PUSH1 0x1F LT PUSH2 0x90B JUMPI PUSH2 0x100 DUP1 DUP4 SLOAD DIV MUL DUP4 MSTORE SWAP2 PUSH1 0x20 ADD SWAP2 PUSH2 0x936 JUMP JUMPDEST DUP3 ADD SWAP2 SWAP1 PUSH1 0x0 MSTORE PUSH1 0x20 PUSH1 0x0 KECCAK256 SWAP1 JUMPDEST DUP2 SLOAD DUP2 MSTORE SWAP1 PUSH1 0x1 ADD SWAP1 PUSH1 0x20 ADD DUP1 DUP4 GT PUSH2 0x919 JUMPI DUP3 SWAP1 SUB PUSH1 0x1F AND DUP3 ADD SWAP2 JUMPDEST POP POP POP POP POP SWAP1 POP SWAP1 JUMP JUMPDEST PUSH1 0x0 PUSH2 0x94B DUP3 PUSH2 0x1BD8 JUMP JUMPDEST PUSH2 0x98A JUMPI PUSH1 0x40 MLOAD PUSH32 0x8C379A000000000000000000000000000000000000000000000000000000000 DUP2 MSTORE PUSH1 0x4 ADD PUSH2 0x981 SWAP1 PUSH2 0x2E5C JUMP JUMPDEST PUSH1 0x40 MLOAD DUP1 SWAP2 SUB SWAP1 REVERT JUMPDEST PUSH1 0x4 PUSH1 0x0 DUP4 DUP2 MSTORE PUSH1 0x20 ADD SWAP1 DUP2 MSTORE PUSH1 0x20 ADD PUSH1 0x0 KECCAK256 PUSH1 0x0 SWAP1 SLOAD SWAP1 PUSH2 0x100 EXP SWAP1 DIV PUSH20 0xFFFFFFFFFFFFFFFFFFFFFFFFFFFFFFFFFFFFFFFF AND SWAP1 POP SWAP2 SWAP1 POP JUMP JUMPDEST PUSH1 0x0 PUSH2 0x9D0 DUP3 PUSH2 0xE53 JUMP JUMPDEST SWAP1 POP DUP1 PUSH20 0xFFFFFFFFFFFFFFFFFFFFFFFFFFFFFFFFFFFFFFFF AND DUP4 PUSH20 0xFFFFFFFFFFFFFFFFFFFFFFFFFFFFFFFFFFFFFFFF AND EQ ISZERO PUSH2 0xA41 JUMPI PUSH1 0x40 MLOAD PUSH32 0x8C379A000000000000000000000000000000000000000000000000000000000 DUP2 MSTORE PUSH1 0x4 ADD PUSH2 0xA38 SWAP1 PUSH2 0x2EEE JUMP JUMPDEST PUSH1 0x40 MLOAD DUP1 SWAP2 SUB SWAP1 REVERT JUMPDEST DUP1 PUSH20 0xFFFFFFFFFFFFFFFFFFFFFFFFFFFFFFFFFFFFFFFF AND CALLER PUSH20 0xFFFFFFFFFFFFFFFFFFFFFFFFFFFFFFFFFFFFFFFF AND EQ DUP1 PUSH2 0xA81 JUMPI POP PUSH2 0xA80 DUP2 CALLER PUSH2 0x1839 JUMP JUMPDEST JUMPDEST PUSH2 0xAC0 JUMPI PUSH1 0x40 MLOAD PUSH32 0x8C379A000000000000000000000000000000000000000000000000000000000 DUP2 MSTORE PUSH1 0x4 ADD PUSH2 0xAB7 SWAP1 PUSH2 0x2F80 JUMP JUMPDEST PUSH1 0x40 MLOAD DUP1 SWAP2 SUB SWAP1 REVERT JUMPDEST PUSH2 0xACA DUP4 DUP4 PUSH2 0x1C44 JUMP JUMPDEST POP POP POP JUMP JUMPDEST PUSH1 0x9 SLOAD DUP2 JUMP JUMPDEST PUSH7 0x4E28E2290F0000 CALLVALUE LT ISZERO PUSH2 0xB1F JUMPI PUSH1 0x40 MLOAD PUSH32 0x8C379A000000000000000000000000000000000000000000000000000000000 DUP2 MSTORE PUSH1 0x4 ADD PUSH2 0xB16 SWAP1 PUSH2 0x2FEC JUMP JUMPDEST PUSH1 0x40 MLOAD DUP1 SWAP2 SUB SWAP1 REVERT JUMPDEST PUSH2 0xB2B CALLER TIMESTAMP PUSH1 0x0 PUSH2 0x1CFD JUMP JUMPDEST JUMP JUMPDEST PUSH2 0xB37 CALLER DUP3 PUSH2 0x1D95 JUMP JUMPDEST PUSH2 0xB76 JUMPI PUSH1 0x40 MLOAD PUSH32 0x8C379A000000000000000000000000000000000000000000000000000000000 DUP2 MSTORE PUSH1 0x4 ADD PUSH2 0xB6D SWAP1 PUSH2 0x307E JUMP JUMPDEST PUSH1 0x40 MLOAD DUP1 SWAP2 SUB SWAP1 REVERT JUMPDEST PUSH2 0xB81 DUP4 DUP4 DUP4 PUSH2 0x1E73 JUMP JUMPDEST POP POP POP JUMP JUMPDEST PUSH1 0x8 PUSH1 0x0 SWAP1 SLOAD SWAP1 PUSH2 0x100 EXP SWAP1 DIV PUSH20 0xFFFFFFFFFFFFFFFFFFFFFFFFFFFFFFFFFFFFFFFF AND DUP2 JUMP JUMPDEST PUSH1 0x0 ISZERO ISZERO PUSH1 0xD PUSH1 0x0 DUP4 PUSH20 0xFFFFFFFFFFFFFFFFFFFFFFFFFFFFFFFFFFFFFFFF AND PUSH20 0xFFFFFFFFFFFFFFFFFFFFFFFFFFFFFFFFFFFFFFFF AND DUP2 MSTORE PUSH1 0x20 ADD SWAP1 DUP2 MSTORE PUSH1 0x20 ADD PUSH1 0x0 KECCAK256 PUSH1 0x0 SWAP1 SLOAD SWAP1 PUSH2 0x100 EXP SWAP1 DIV PUSH1 0xFF AND ISZERO ISZERO EQ PUSH2 0xC3F JUMPI PUSH1 0x40 MLOAD PUSH32 0x8C379A000000000000000000000000000000000000000000000000000000000 DUP2 MSTORE PUSH1 0x4 ADD PUSH2 0xC36 SWAP1 PUSH2 0x30EA JUMP JUMPDEST PUSH1 0x40 MLOAD DUP1 SWAP2 SUB SWAP1 REVERT JUMPDEST PUSH1 0x1 PUSH1 0xD PUSH1 0x0 DUP4 PUSH20 0xFFFFFFFFFFFFFFFFFFFFFFFFFFFFFFFFFFFFFFFF AND PUSH20 0xFFFFFFFFFFFFFFFFFFFFFFFFFFFFFFFFFFFFFFFF AND DUP2 MSTORE PUSH1 0x20 ADD SWAP1 DUP2 MSTORE PUSH1 0x20 ADD PUSH1 0x0 KECCAK256 PUSH1 0x0 PUSH2 0x100 EXP DUP2 SLOAD DUP2 PUSH1 0xFF MUL NOT AND SWAP1 DUP4 ISZERO ISZERO MUL OR SWAP1 SSTORE POP PUSH1 0x0 DUP2 PUSH1 0x40 MLOAD PUSH1 0x20 ADD PUSH2 0xCAA SWAP2 SWAP1 PUSH2 0x3152 JUMP JUMPDEST PUSH1 0x40 MLOAD PUSH1 0x20 DUP2 DUP4 SUB SUB DUP2 MSTORE SWAP1 PUSH1 0x40 MSTORE DUP1 MLOAD SWAP1 PUSH1 0x20 ADD KECCAK256 SWAP1 POP PUSH2 0xD10 DUP5 DUP5 DUP1 DUP1 PUSH1 0x20 MUL PUSH1 0x20 ADD PUSH1 0x40 MLOAD SWAP1 DUP2 ADD PUSH1 0x40 MSTORE DUP1 SWAP4 SWAP3 SWAP2 SWAP1 DUP2 DUP2 MSTORE PUSH1 0x20 ADD DUP4 DUP4 PUSH1 0x20 MUL DUP1 DUP3 DUP5 CALLDATACOPY PUSH1 0x0 DUP2 DUP5 ADD MSTORE PUSH1 0x1F NOT PUSH1 0x1F DUP3 ADD AND SWAP1 POP DUP1 DUP4 ADD SWAP3 POP POP POP POP POP POP POP PUSH1 0xE SLOAD DUP4 PUSH2 0x20C4 JUMP JUMPDEST PUSH2 0xD4F JUMPI PUSH1 0x40 MLOAD PUSH32 0x8C379A000000000000000000000000000000000000000000000000000000000 DUP2 MSTORE PUSH1 0x4 ADD PUSH2 0xD46 SWAP1 PUSH2 0x31B9 JUMP JUMPDEST PUSH1 0x40 MLOAD DUP1 SWAP2 SUB SWAP1 REVERT JUMPDEST PUSH2 0xD5B DUP3 TIMESTAMP PUSH1 0x1 PUSH2 0x1CFD JUMP JUMPDEST POP POP POP POP JUMP JUMPDEST PUSH2 0xD7C DUP4 DUP4 DUP4 PUSH1 0x40 MLOAD DUP1 PUSH1 0x20 ADD PUSH1 0x40 MSTORE DUP1 PUSH1 0x0 DUP2 MSTORE POP PUSH2 0x15A7 JUMP JUMPDEST POP POP POP JUMP JUMPDEST PUSH1 0x60 PUSH1 0x0 PUSH1 0xC PUSH1 0x0 DUP5 DUP2 MSTORE PUSH1 0x20 ADD SWAP1 DUP2 MSTORE PUSH1 0x20 ADD PUSH1 0x0 KECCAK256 PUSH1 0x0 SWAP1 SLOAD SWAP1 PUSH2 0x100 EXP SWAP1 DIV PUSH1 0xFF AND SWAP1 POP PUSH1 0x8 PUSH1 0x0 SWAP1 SLOAD SWAP1 PUSH2 0x100 EXP SWAP1 DIV PUSH20 0xFFFFFFFFFFFFFFFFFFFFFFFFFFFFFFFFFFFFFFFF AND PUSH20 0xFFFFFFFFFFFFFFFFFFFFFFFFFFFFFFFFFFFFFFFF AND PUSH4 0xEFFAAF6A DUP5 DUP4 PUSH1 0x40 MLOAD DUP4 PUSH4 0xFFFFFFFF AND PUSH1 0xE0 SHL DUP2 MSTORE PUSH1 0x4 ADD PUSH2 0xE05 SWAP3 SWAP2 SWAP1 PUSH2 0x31D9 JUMP JUMPDEST PUSH1 0x0 PUSH1 0x40 MLOAD DUP1 DUP4 SUB DUP2 DUP7 GAS STATICCALL ISZERO DUP1 ISZERO PUSH2 0xE22 JUMPI RETURNDATASIZE PUSH1 0x0 DUP1 RETURNDATACOPY RETURNDATASIZE PUSH1 0x0 REVERT JUMPDEST POP POP POP POP PUSH1 0x40 MLOAD RETURNDATASIZE PUSH1 0x0 DUP3 RETURNDATACOPY RETURNDATASIZE PUSH1 0x1F NOT PUSH1 0x1F DUP3 ADD AND DUP3 ADD DUP1 PUSH1 0x40 MSTORE POP DUP2 ADD SWAP1 PUSH2 0xE4B SWAP2 SWAP1 PUSH2 0x32A3 JUMP JUMPDEST SWAP2 POP POP SWAP2 SWAP1 POP JUMP JUMPDEST PUSH1 0x0 DUP1 PUSH1 0x2 PUSH1 0x0 DUP5 DUP2 MSTORE PUSH1 0x20 ADD SWAP1 DUP2 MSTORE PUSH1 0x20 ADD PUSH1 0x0 KECCAK256 PUSH1 0x0 SWAP1 SLOAD SWAP1 PUSH2 0x100 EXP SWAP1 DIV PUSH20 0xFFFFFFFFFFFFFFFFFFFFFFFFFFFFFFFFFFFFFFFF AND SWAP1 POP PUSH1 0x0 PUSH20 0xFFFFFFFFFFFFFFFFFFFFFFFFFFFFFFFFFFFFFFFF AND DUP2 PUSH20 0xFFFFFFFFFFFFFFFFFFFFFFFFFFFFFFFFFFFFFFFF AND EQ ISZERO PUSH2 0xEFC JUMPI PUSH1 0x40 MLOAD PUSH32 0x8C379A000000000000000000000000000000000000000000000000000000000 DUP2 MSTORE PUSH1 0x4 ADD PUSH2 0xEF3 SWAP1 PUSH2 0x335E JUMP JUMPDEST PUSH1 0x40 MLOAD DUP1 SWAP2 SUB SWAP1 REVERT JUMPDEST DUP1 SWAP2 POP POP SWAP2 SWAP1 POP JUMP JUMPDEST PUSH1 0x7 PUSH1 0x0 SWAP1 SLOAD SWAP1 PUSH2 0x100 EXP SWAP1 DIV PUSH20 0xFFFFFFFFFFFFFFFFFFFFFFFFFFFFFFFFFFFFFFFF AND DUP2 JUMP JUMPDEST PUSH1 0x60 PUSH1 0xB SLOAD GT ISZERO PUSH2 0xF71 JUMPI PUSH1 0x40 MLOAD PUSH32 0x8C379A000000000000000000000000000000000000000000000000000000000 DUP2 MSTORE PUSH1 0x4 ADD PUSH2 0xF68 SWAP1 PUSH2 0x33CA JUMP JUMPDEST PUSH1 0x40 MLOAD DUP1 SWAP2 SUB SWAP1 REVERT JUMPDEST PUSH8 0x106E69BA1610000 CALLVALUE LT ISZERO PUSH2 0xFBC JUMPI PUSH1 0x40 MLOAD PUSH32 0x8C379A000000000000000000000000000000000000000000000000000000000 DUP2 MSTORE PUSH1 0x4 ADD PUSH2 0xFB3 SWAP1 PUSH2 0x2FEC JUMP JUMPDEST PUSH1 0x40 MLOAD DUP1 SWAP2 SUB SWAP1 REVERT JUMPDEST PUSH2 0xFC8 CALLER DUP3 PUSH1 0x1 PUSH2 0x1CFD JUMP JUMPDEST POP JUMP JUMPDEST PUSH1 0xE SLOAD DUP2 JUMP JUMPDEST PUSH1 0x6 PUSH1 0x0 SWAP1 SLOAD SWAP1 PUSH2 0x100 EXP SWAP1 DIV PUSH20 0xFFFFFFFFFFFFFFFFFFFFFFFFFFFFFFFFFFFFFFFF AND PUSH20 0xFFFFFFFFFFFFFFFFFFFFFFFFFFFFFFFFFFFFFFFF AND CALLER PUSH20 0xFFFFFFFFFFFFFFFFFFFFFFFFFFFFFFFFFFFFFFFF AND EQ PUSH2 0x1061 JUMPI PUSH1 0x40 MLOAD PUSH32 0x8C379A000000000000000000000000000000000000000000000000000000000 DUP2 MSTORE PUSH1 0x4 ADD PUSH2 0x1058 SWAP1 PUSH2 0x3436 JUMP JUMPDEST PUSH1 0x40 MLOAD DUP1 SWAP2 SUB SWAP1 REVERT JUMPDEST PUSH4 0x65696850 TIMESTAMP LT PUSH2 0x10A7 JUMPI PUSH1 0x40 MLOAD PUSH32 0x8C379A000000000000000000000000000000000000000000000000000000000 DUP2 MSTORE PUSH1 0x4 ADD PUSH2 0x109E SWAP1 PUSH2 0x34A2 JUMP JUMPDEST PUSH1 0x40 MLOAD DUP1 SWAP2 SUB SWAP1 REVERT JUMPDEST DUP1 PUSH1 0x8 PUSH1 0x0 PUSH2 0x100 EXP DUP2 SLOAD DUP2 PUSH20 0xFFFFFFFFFFFFFFFFFFFFFFFFFFFFFFFFFFFFFFFF MUL NOT AND SWAP1 DUP4 PUSH20 0xFFFFFFFFFFFFFFFFFFFFFFFFFFFFFFFFFFFFFFFF AND MUL OR SWAP1 SSTORE POP POP JUMP JUMPDEST PUSH1 0x0 DUP1 PUSH20 0xFFFFFFFFFFFFFFFFFFFFFFFFFFFFFFFFFFFFFFFF AND DUP3 PUSH20 0xFFFFFFFFFFFFFFFFFFFFFFFFFFFFFFFFFFFFFFFF AND EQ ISZERO PUSH2 0x115C JUMPI PUSH1 0x40 MLOAD PUSH32 0x8C379A000000000000000000000000000000000000000000000000000000000 DUP2 MSTORE PUSH1 0x4 ADD PUSH2 0x1153 SWAP1 PUSH2 0x3534 JUMP JUMPDEST PUSH1 0x40 MLOAD DUP1 SWAP2 SUB SWAP1 REVERT JUMPDEST PUSH1 0x3 PUSH1 0x0 DUP4 PUSH20 0xFFFFFFFFFFFFFFFFFFFFFFFFFFFFFFFFFFFFFFFF AND PUSH20 0xFFFFFFFFFFFFFFFFFFFFFFFFFFFFFFFFFFFFFFFF AND DUP2 MSTORE PUSH1 0x20 ADD SWAP1 DUP2 MSTORE PUSH1 0x20 ADD PUSH1 0x0 KECCAK256 SLOAD SWAP1 POP SWAP2 SWAP1 POP JUMP JUMPDEST PUSH1 0x60 PUSH1 0x0 PUSH1 0xC PUSH1 0x0 DUP5 DUP2 MSTORE PUSH1 0x20 ADD SWAP1 DUP2 MSTORE PUSH1 0x20 ADD PUSH1 0x0 KECCAK256 PUSH1 0x0 SWAP1 SLOAD SWAP1 PUSH2 0x100 EXP SWAP1 DIV PUSH1 0xFF AND SWAP1 POP PUSH1 0x8 PUSH1 0x0 SWAP1 SLOAD SWAP1 PUSH2 0x100 EXP SWAP1 DIV PUSH20 0xFFFFFFFFFFFFFFFFFFFFFFFFFFFFFFFFFFFFFFFF AND PUSH20 0xFFFFFFFFFFFFFFFFFFFFFFFFFFFFFFFFFFFFFFFF AND PUSH4 0x37EE03EC DUP5 DUP4 PUSH1 0x40 MLOAD DUP4 PUSH4 0xFFFFFFFF AND PUSH1 0xE0 SHL DUP2 MSTORE PUSH1 0x4 ADD PUSH2 0x1227 SWAP3 SWAP2 SWAP1 PUSH2 0x31D9 JUMP JUMPDEST PUSH1 0x0 PUSH1 0x40 MLOAD DUP1 DUP4 SUB DUP2 DUP7 GAS STATICCALL ISZERO DUP1 ISZERO PUSH2 0x1244 JUMPI RETURNDATASIZE PUSH1 0x0 DUP1 RETURNDATACOPY RETURNDATASIZE PUSH1 0x0 REVERT JUMPDEST POP POP POP POP PUSH1 0x40 MLOAD RETURNDATASIZE PUSH1 0x0 DUP3 RETURNDATACOPY RETURNDATASIZE PUSH1 0x1F NOT PUSH1 0x1F DUP3 ADD AND DUP3 ADD DUP1 PUSH1 0x40 MSTORE POP DUP2 ADD SWAP1 PUSH2 0x126D SWAP2 SWAP1 PUSH2 0x32A3 JUMP JUMPDEST SWAP2 POP POP SWAP2 SWAP1 POP JUMP JUMPDEST PUSH1 0x6 PUSH1 0x0 SWAP1 SLOAD SWAP1 PUSH2 0x100 EXP SWAP1 DIV PUSH20 0xFFFFFFFFFFFFFFFFFFFFFFFFFFFFFFFFFFFFFFFF AND DUP2 JUMP JUMPDEST PUSH1 0x60 PUSH1 0x0 DUP5 DUP5 PUSH1 0x40 MLOAD PUSH1 0x20 ADD PUSH2 0x12B2 SWAP3 SWAP2 SWAP1 PUSH2 0x3575 JUMP JUMPDEST PUSH1 0x40 MLOAD PUSH1 0x20 DUP2 DUP4 SUB SUB DUP2 MSTORE SWAP1 PUSH1 0x40 MSTORE DUP1 MLOAD SWAP1 PUSH1 0x20 ADD KECCAK256 PUSH1 0x0 SHR SWAP1 POP PUSH1 0x8 PUSH1 0x0 SWAP1 SLOAD SWAP1 PUSH2 0x100 EXP SWAP1 DIV PUSH20 0xFFFFFFFFFFFFFFFFFFFFFFFFFFFFFFFFFFFFFFFF AND PUSH20 0xFFFFFFFFFFFFFFFFFFFFFFFFFFFFFFFFFFFFFFFF AND PUSH4 0x37EE03EC DUP3 DUP6 PUSH1 0x40 MLOAD DUP4 PUSH4 0xFFFFFFFF AND PUSH1 0xE0 SHL DUP2 MSTORE PUSH1 0x4 ADD PUSH2 0x132A SWAP3 SWAP2 SWAP1 PUSH2 0x31D9 JUMP JUMPDEST PUSH1 0x0 PUSH1 0x40 MLOAD DUP1 DUP4 SUB DUP2 DUP7 GAS STATICCALL ISZERO DUP1 ISZERO PUSH2 0x1347 JUMPI RETURNDATASIZE PUSH1 0x0 DUP1 RETURNDATACOPY RETURNDATASIZE PUSH1 0x0 REVERT JUMPDEST POP POP POP POP PUSH1 0x40 MLOAD RETURNDATASIZE PUSH1 0x0 DUP3 RETURNDATACOPY RETURNDATASIZE PUSH1 0x1F NOT PUSH1 0x1F DUP3 ADD AND DUP3 ADD DUP1 PUSH1 0x40 MSTORE POP DUP2 ADD SWAP1 PUSH2 0x1370 SWAP2 SWAP1 PUSH2 0x32A3 JUMP JUMPDEST SWAP2 POP POP SWAP4 SWAP3 POP POP POP JUMP JUMPDEST PUSH1 0x60 PUSH1 0x1 DUP1 SLOAD PUSH2 0x1389 SWAP1 PUSH2 0x2DB8 JUMP JUMPDEST DUP1 PUSH1 0x1F ADD PUSH1 0x20 DUP1 SWAP2 DIV MUL PUSH1 0x20 ADD PUSH1 0x40 MLOAD SWAP1 DUP2 ADD PUSH1 0x40 MSTORE DUP1 SWAP3 SWAP2 SWAP1 DUP2 DUP2 MSTORE PUSH1 0x20 ADD DUP3 DUP1 SLOAD PUSH2 0x13B5 SWAP1 PUSH2 0x2DB8 JUMP JUMPDEST DUP1 ISZERO PUSH2 0x1402 JUMPI DUP1 PUSH1 0x1F LT PUSH2 0x13D7 JUMPI PUSH2 0x100 DUP1 DUP4 SLOAD DIV MUL DUP4 MSTORE SWAP2 PUSH1 0x20 ADD SWAP2 PUSH2 0x1402 JUMP JUMPDEST DUP3 ADD SWAP2 SWAP1 PUSH1 0x0 MSTORE PUSH1 0x20 PUSH1 0x0 KECCAK256 SWAP1 JUMPDEST DUP2 SLOAD DUP2 MSTORE SWAP1 PUSH1 0x1 ADD SWAP1 PUSH1 0x20 ADD DUP1 DUP4 GT PUSH2 0x13E5 JUMPI DUP3 SWAP1 SUB PUSH1 0x1F AND DUP3 ADD SWAP2 JUMPDEST POP POP POP POP POP SWAP1 POP SWAP1 JUMP JUMPDEST CALLER PUSH20 0xFFFFFFFFFFFFFFFFFFFFFFFFFFFFFFFFFFFFFFFF AND DUP3 PUSH20 0xFFFFFFFFFFFFFFFFFFFFFFFFFFFFFFFFFFFFFFFF AND EQ ISZERO PUSH2 0x147B JUMPI PUSH1 0x40 MLOAD PUSH32 0x8C379A000000000000000000000000000000000000000000000000000000000 DUP2 MSTORE PUSH1 0x4 ADD PUSH2 0x1472 SWAP1 PUSH2 0x35ED JUMP JUMPDEST PUSH1 0x40 MLOAD DUP1 SWAP2 SUB SWAP1 REVERT JUMPDEST DUP1 PUSH1 0x5 PUSH1 0x0 CALLER PUSH20 0xFFFFFFFFFFFFFFFFFFFFFFFFFFFFFFFFFFFFFFFF AND PUSH20 0xFFFFFFFFFFFFFFFFFFFFFFFFFFFFFFFFFFFFFFFF AND DUP2 MSTORE PUSH1 0x20 ADD SWAP1 DUP2 MSTORE PUSH1 0x20 ADD PUSH1 0x0 KECCAK256 PUSH1 0x0 DUP5 PUSH20 0xFFFFFFFFFFFFFFFFFFFFFFFFFFFFFFFFFFFFFFFF AND PUSH20 0xFFFFFFFFFFFFFFFFFFFFFFFFFFFFFFFFFFFFFFFF AND DUP2 MSTORE PUSH1 0x20 ADD SWAP1 DUP2 MSTORE PUSH1 0x20 ADD PUSH1 0x0 KECCAK256 PUSH1 0x0 PUSH2 0x100 EXP DUP2 SLOAD DUP2 PUSH1 0xFF MUL NOT AND SWAP1 DUP4 ISZERO ISZERO MUL OR SWAP1 SSTORE POP DUP2 PUSH20 0xFFFFFFFFFFFFFFFFFFFFFFFFFFFFFFFFFFFFFFFF AND CALLER PUSH20 0xFFFFFFFFFFFFFFFFFFFFFFFFFFFFFFFFFFFFFFFF AND PUSH32 0x17307EAB39AB6107E8899845AD3D59BD9653F200F220920489CA2B5937696C31 DUP4 PUSH1 0x40 MLOAD PUSH2 0x156C SWAP2 SWAP1 PUSH2 0x2630 JUMP JUMPDEST PUSH1 0x40 MLOAD DUP1 SWAP2 SUB SWAP1 LOG3 POP POP JUMP JUMPDEST PUSH1 0x60 PUSH1 0x0 PUSH2 0x1585 DUP4 PUSH2 0xD81 JUMP JUMPDEST SWAP1 POP PUSH2 0x1590 DUP2 PUSH2 0x20DB JUMP JUMPDEST SWAP2 POP POP SWAP2 SWAP1 POP JUMP JUMPDEST PUSH2 0x15A3 DUP3 DUP3 CALLER PUSH2 0xBAC JUMP JUMPDEST POP POP JUMP JUMPDEST PUSH2 0x15B1 CALLER DUP4 PUSH2 0x1D95 JUMP JUMPDEST PUSH2 0x15F0 JUMPI PUSH1 0x40 MLOAD PUSH32 0x8C379A000000000000000000000000000000000000000000000000000000000 DUP2 MSTORE PUSH1 0x4 ADD PUSH2 0x15E7 SWAP1 PUSH2 0x307E JUMP JUMPDEST PUSH1 0x40 MLOAD DUP1 SWAP2 SUB SWAP1 REVERT JUMPDEST PUSH2 0x15FC DUP5 DUP5 DUP5 DUP5 PUSH2 0x2260 JUMP JUMPDEST POP POP POP POP JUMP JUMPDEST PUSH1 0xA SLOAD DUP2 JUMP JUMPDEST PUSH1 0xB SLOAD DUP2 JUMP JUMPDEST PUSH1 0x60 PUSH2 0x1619 DUP3 PUSH2 0x1BD8 JUMP JUMPDEST PUSH2 0x1658 JUMPI PUSH1 0x40 MLOAD PUSH32 0x8C379A000000000000000000000000000000000000000000000000000000000 DUP2 MSTORE PUSH1 0x4 ADD PUSH2 0x164F SWAP1 PUSH2 0x367F JUMP JUMPDEST PUSH1 0x40 MLOAD DUP1 SWAP2 SUB SWAP1 REVERT JUMPDEST PUSH1 0x0 PUSH1 0x8 PUSH1 0x0 SWAP1 SLOAD SWAP1 PUSH2 0x100 EXP SWAP1 DIV PUSH20 0xFFFFFFFFFFFFFFFFFFFFFFFFFFFFFFFFFFFFFFFF AND PUSH20 0xFFFFFFFFFFFFFFFFFFFFFFFFFFFFFFFFFFFFFFFF AND PUSH4 0x192A0A1F DUP5 PUSH1 0x40 MLOAD DUP3 PUSH4 0xFFFFFFFF AND PUSH1 0xE0 SHL DUP2 MSTORE PUSH1 0x4 ADD PUSH2 0x16B5 SWAP2 SWAP1 PUSH2 0x2840 JUMP JUMPDEST PUSH1 0x0 PUSH1 0x40 MLOAD DUP1 DUP4 SUB DUP2 DUP7 GAS STATICCALL ISZERO DUP1 ISZERO PUSH2 0x16D2 JUMPI RETURNDATASIZE PUSH1 0x0 DUP1 RETURNDATACOPY RETURNDATASIZE PUSH1 0x0 REVERT JUMPDEST POP POP POP POP PUSH1 0x40 MLOAD RETURNDATASIZE PUSH1 0x0 DUP3 RETURNDATACOPY RETURNDATASIZE PUSH1 0x1F NOT PUSH1 0x1F DUP3 ADD AND DUP3 ADD DUP1 PUSH1 0x40 MSTORE POP DUP2 ADD SWAP1 PUSH2 0x16FB SWAP2 SWAP1 PUSH2 0x32A3 JUMP JUMPDEST SWAP1 POP PUSH1 0x0 PUSH1 0x40 MLOAD DUP1 PUSH1 0xA0 ADD PUSH1 0x40 MSTORE DUP1 PUSH1 0x69 DUP2 MSTORE PUSH1 0x20 ADD PUSH2 0x412B PUSH1 0x69 SWAP2 CODECOPY SWAP1 POP PUSH1 0x0 PUSH2 0x1725 DUP6 PUSH2 0x1578 JUMP JUMPDEST SWAP1 POP PUSH1 0x0 PUSH2 0x1732 DUP7 PUSH2 0x11A3 JUMP JUMPDEST SWAP1 POP PUSH2 0x1762 DUP5 DUP5 DUP5 DUP5 PUSH1 0x40 MLOAD PUSH1 0x20 ADD PUSH2 0x174E SWAP5 SWAP4 SWAP3 SWAP2 SWAP1 PUSH2 0x38A3 JUMP JUMPDEST PUSH1 0x40 MLOAD PUSH1 0x20 DUP2 DUP4 SUB SUB DUP2 MSTORE SWAP1 PUSH1 0x40 MSTORE PUSH2 0x20DB JUMP JUMPDEST PUSH1 0x40 MLOAD PUSH1 0x20 ADD PUSH2 0x1772 SWAP2 SWAP1 PUSH2 0x396F JUMP JUMPDEST PUSH1 0x40 MLOAD PUSH1 0x20 DUP2 DUP4 SUB SUB DUP2 MSTORE SWAP1 PUSH1 0x40 MSTORE SWAP5 POP POP POP POP POP SWAP2 SWAP1 POP JUMP JUMPDEST PUSH1 0xD PUSH1 0x20 MSTORE DUP1 PUSH1 0x0 MSTORE PUSH1 0x40 PUSH1 0x0 KECCAK256 PUSH1 0x0 SWAP2 POP SLOAD SWAP1 PUSH2 0x100 EXP SWAP1 DIV PUSH1 0xFF AND DUP2 JUMP JUMPDEST PUSH1 0x7 PUSH1 0x0 SWAP1 SLOAD SWAP1 PUSH2 0x100 EXP SWAP1 DIV PUSH20 0xFFFFFFFFFFFFFFFFFFFFFFFFFFFFFFFFFFFFFFFF AND PUSH20 0xFFFFFFFFFFFFFFFFFFFFFFFFFFFFFFFFFFFFFFFF AND SELFBALANCE PUSH1 0x40 MLOAD PUSH2 0x17F2 SWAP1 PUSH2 0x39C2 JUMP JUMPDEST PUSH1 0x0 PUSH1 0x40 MLOAD DUP1 DUP4 SUB DUP2 DUP6 DUP8 GAS CALL SWAP3 POP POP POP RETURNDATASIZE DUP1 PUSH1 0x0 DUP2 EQ PUSH2 0x182F JUMPI PUSH1 0x40 MLOAD SWAP2 POP PUSH1 0x1F NOT PUSH1 0x3F RETURNDATASIZE ADD AND DUP3 ADD PUSH1 0x40 MSTORE RETURNDATASIZE DUP3 MSTORE RETURNDATASIZE PUSH1 0x0 PUSH1 0x20 DUP5 ADD RETURNDATACOPY PUSH2 0x1834 JUMP JUMPDEST PUSH1 0x60 SWAP2 POP JUMPDEST POP POP POP JUMP JUMPDEST PUSH1 0x0 PUSH1 0x5 PUSH1 0x0 DUP5 PUSH20 0xFFFFFFFFFFFFFFFFFFFFFFFFFFFFFFFFFFFFFFFF AND PUSH20 0xFFFFFFFFFFFFFFFFFFFFFFFFFFFFFFFFFFFFFFFF AND DUP2 MSTORE PUSH1 0x20 ADD SWAP1 DUP2 MSTORE PUSH1 0x20 ADD PUSH1 0x0 KECCAK256 PUSH1 0x0 DUP4 PUSH20 0xFFFFFFFFFFFFFFFFFFFFFFFFFFFFFFFFFFFFFFFF AND PUSH20 0xFFFFFFFFFFFFFFFFFFFFFFFFFFFFFFFFFFFFFFFF AND DUP2 MSTORE PUSH1 0x20 ADD SWAP1 DUP2 MSTORE PUSH1 0x20 ADD PUSH1 0x0 KECCAK256 PUSH1 0x0 SWAP1 SLOAD SWAP1 PUSH2 0x100 EXP SWAP1 DIV PUSH1 0xFF AND SWAP1 POP SWAP3 SWAP2 POP POP JUMP JUMPDEST PUSH1 0x60 PUSH1 0x0 DUP5 DUP5 PUSH1 0x40 MLOAD PUSH1 0x20 ADD PUSH2 0x18E4 SWAP3 SWAP2 SWAP1 PUSH2 0x3575 JUMP JUMPDEST PUSH1 0x40 MLOAD PUSH1 0x20 DUP2 DUP4 SUB SUB DUP2 MSTORE SWAP1 PUSH1 0x40 MSTORE DUP1 MLOAD SWAP1 PUSH1 0x20 ADD KECCAK256 PUSH1 0x0 SHR SWAP1 POP PUSH1 0x8 PUSH1 0x0 SWAP1 SLOAD SWAP1 PUSH2 0x100 EXP SWAP1 DIV PUSH20 0xFFFFFFFFFFFFFFFFFFFFFFFFFFFFFFFFFFFFFFFF AND PUSH20 0xFFFFFFFFFFFFFFFFFFFFFFFFFFFFFFFFFFFFFFFF AND PUSH4 0xEFFAAF6A DUP3 DUP6 PUSH1 0x40 MLOAD DUP4 PUSH4 0xFFFFFFFF AND PUSH1 0xE0 SHL DUP2 MSTORE PUSH1 0x4 ADD PUSH2 0x195C SWAP3 SWAP2 SWAP1 PUSH2 0x31D9 JUMP JUMPDEST PUSH1 0x0 PUSH1 0x40 MLOAD DUP1 DUP4 SUB DUP2 DUP7 GAS STATICCALL ISZERO DUP1 ISZERO PUSH2 0x1979 JUMPI RETURNDATASIZE PUSH1 0x0 DUP1 RETURNDATACOPY RETURNDATASIZE PUSH1 0x0 REVERT JUMPDEST POP POP POP POP PUSH1 0x40 MLOAD RETURNDATASIZE PUSH1 0x0 DUP3 RETURNDATACOPY RETURNDATASIZE PUSH1 0x1F NOT PUSH1 0x1F DUP3 ADD AND DUP3 ADD DUP1 PUSH1 0x40 MSTORE POP DUP2 ADD SWAP1 PUSH2 0x19A2 SWAP2 SWAP1 PUSH2 0x32A3 JUMP JUMPDEST SWAP2 POP POP SWAP4 SWAP3 POP POP POP JUMP JUMPDEST PUSH1 0x0 PUSH20 0xFFFFFFFFFFFFFFFFFFFFFFFFFFFFFFFFFFFFFFFF AND DUP3 PUSH20 0xFFFFFFFFFFFFFFFFFFFFFFFFFFFFFFFFFFFFFFFF AND EQ ISZERO PUSH2 0x1A1C JUMPI PUSH1 0x40 MLOAD PUSH32 0x8C379A000000000000000000000000000000000000000000000000000000000 DUP2 MSTORE PUSH1 0x4 ADD PUSH2 0x1A13 SWAP1 PUSH2 0x3A23 JUMP JUMPDEST PUSH1 0x40 MLOAD DUP1 SWAP2 SUB SWAP1 REVERT JUMPDEST PUSH2 0x1A25 DUP2 PUSH2 0x1BD8 JUMP JUMPDEST ISZERO PUSH2 0x1A65 JUMPI PUSH1 0x40 MLOAD PUSH32 0x8C379A000000000000000000000000000000000000000000000000000000000 DUP2 MSTORE PUSH1 0x4 ADD PUSH2 0x1A5C SWAP1 PUSH2 0x3A8F JUMP JUMPDEST PUSH1 0x40 MLOAD DUP1 SWAP2 SUB SWAP1 REVERT JUMPDEST PUSH1 0x1 PUSH1 0x3 PUSH1 0x0 DUP5 PUSH20 0xFFFFFFFFFFFFFFFFFFFFFFFFFFFFFFFFFFFFFFFF AND PUSH20 0xFFFFFFFFFFFFFFFFFFFFFFFFFFFFFFFFFFFFFFFF AND DUP2 MSTORE PUSH1 0x20 ADD SWAP1 DUP2 MSTORE PUSH1 0x20 ADD PUSH1 0x0 KECCAK256 PUSH1 0x0 DUP3 DUP3 SLOAD PUSH2 0x1AB5 SWAP2 SWAP1 PUSH2 0x3ADE JUMP JUMPDEST SWAP3 POP POP DUP2 SWAP1 SSTORE POP DUP2 PUSH1 0x2 PUSH1 0x0 DUP4 DUP2 MSTORE PUSH1 0x20 ADD SWAP1 DUP2 MSTORE PUSH1 0x20 ADD PUSH1 0x0 KECCAK256 PUSH1 0x0 PUSH2 0x100 EXP DUP2 SLOAD DUP2 PUSH20 0xFFFFFFFFFFFFFFFFFFFFFFFFFFFFFFFFFFFFFFFF MUL NOT AND SWAP1 DUP4 PUSH20 0xFFFFFFFFFFFFFFFFFFFFFFFFFFFFFFFFFFFFFFFF AND MUL OR SWAP1 SSTORE POP DUP1 DUP3 PUSH20 0xFFFFFFFFFFFFFFFFFFFFFFFFFFFFFFFFFFFFFFFF AND PUSH1 0x0 PUSH20 0xFFFFFFFFFFFFFFFFFFFFFFFFFFFFFFFFFFFFFFFF AND PUSH32 0xDDF252AD1BE2C89B69C2B068FC378DAA952BA7F163C4A11628F55A4DF523B3EF PUSH1 0x40 MLOAD PUSH1 0x40 MLOAD DUP1 SWAP2 SUB SWAP1 LOG4 POP POP JUMP JUMPDEST PUSH1 0x0 PUSH32 0x1FFC9A700000000000000000000000000000000000000000000000000000000 PUSH28 0xFFFFFFFFFFFFFFFFFFFFFFFFFFFFFFFFFFFFFFFFFFFFFFFFFFFFFFFF NOT AND DUP3 PUSH28 0xFFFFFFFFFFFFFFFFFFFFFFFFFFFFFFFFFFFFFFFFFFFFFFFFFFFFFFFF NOT AND EQ SWAP1 POP SWAP2 SWAP1 POP JUMP JUMPDEST PUSH1 0x0 DUP1 PUSH20 0xFFFFFFFFFFFFFFFFFFFFFFFFFFFFFFFFFFFFFFFF AND PUSH1 0x2 PUSH1 0x0 DUP5 DUP2 MSTORE PUSH1 0x20 ADD SWAP1 DUP2 MSTORE PUSH1 0x20 ADD PUSH1 0x0 KECCAK256 PUSH1 0x0 SWAP1 SLOAD SWAP1 PUSH2 0x100 EXP SWAP1 DIV PUSH20 0xFFFFFFFFFFFFFFFFFFFFFFFFFFFFFFFFFFFFFFFF AND PUSH20 0xFFFFFFFFFFFFFFFFFFFFFFFFFFFFFFFFFFFFFFFF AND EQ ISZERO SWAP1 POP SWAP2 SWAP1 POP JUMP JUMPDEST DUP2 PUSH1 0x4 PUSH1 0x0 DUP4 DUP2 MSTORE PUSH1 0x20 ADD SWAP1 DUP2 MSTORE PUSH1 0x20 ADD PUSH1 0x0 KECCAK256 PUSH1 0x0 PUSH2 0x100 EXP DUP2 SLOAD DUP2 PUSH20 0xFFFFFFFFFFFFFFFFFFFFFFFFFFFFFFFFFFFFFFFF MUL NOT AND SWAP1 DUP4 PUSH20 0xFFFFFFFFFFFFFFFFFFFFFFFFFFFFFFFFFFFFFFFF AND MUL OR SWAP1 SSTORE POP DUP1 DUP3 PUSH20 0xFFFFFFFFFFFFFFFFFFFFFFFFFFFFFFFFFFFFFFFF AND PUSH2 0x1CB7 DUP4 PUSH2 0xE53 JUMP JUMPDEST PUSH20 0xFFFFFFFFFFFFFFFFFFFFFFFFFFFFFFFFFFFFFFFF AND PUSH32 0x8C5BE1E5EBEC7D5BD14F71427D1E84F3DD0314C0F7B2291E5B200AC8C7C3B925 PUSH1 0x40 MLOAD PUSH1 0x40 MLOAD DUP1 SWAP2 SUB SWAP1 LOG4 POP POP JUMP JUMPDEST PUSH1 0x9 SLOAD TIMESTAMP GT PUSH2 0x1D41 JUMPI PUSH1 0x40 MLOAD PUSH32 0x8C379A000000000000000000000000000000000000000000000000000000000 DUP2 MSTORE PUSH1 0x4 ADD PUSH2 0x1D38 SWAP1 PUSH2 0x3B80 JUMP JUMPDEST PUSH1 0x40 MLOAD DUP1 SWAP2 SUB SWAP1 REVERT JUMPDEST PUSH1 0xA SLOAD TIMESTAMP LT PUSH2 0x1D85 JUMPI PUSH1 0x40 MLOAD PUSH32 0x8C379A000000000000000000000000000000000000000000000000000000000 DUP2 MSTORE PUSH1 0x4 ADD PUSH2 0x1D7C SWAP1 PUSH2 0x3BEC JUMP JUMPDEST PUSH1 0x40 MLOAD DUP1 SWAP2 SUB SWAP1 REVERT JUMPDEST PUSH2 0x1D90 DUP4 DUP4 DUP4 PUSH2 0x22BC JUMP JUMPDEST POP POP POP JUMP JUMPDEST PUSH1 0x0 PUSH2 0x1DA0 DUP3 PUSH2 0x1BD8 JUMP JUMPDEST PUSH2 0x1DDF JUMPI PUSH1 0x40 MLOAD PUSH32 0x8C379A000000000000000000000000000000000000000000000000000000000 DUP2 MSTORE PUSH1 0x4 ADD PUSH2 0x1DD6 SWAP1 PUSH2 0x3C7E JUMP JUMPDEST PUSH1 0x40 MLOAD DUP1 SWAP2 SUB SWAP1 REVERT JUMPDEST PUSH1 0x0 PUSH2 0x1DEA DUP4 PUSH2 0xE53 JUMP JUMPDEST SWAP1 POP DUP1 PUSH20 0xFFFFFFFFFFFFFFFFFFFFFFFFFFFFFFFFFFFFFFFF AND DUP5 PUSH20 0xFFFFFFFFFFFFFFFFFFFFFFFFFFFFFFFFFFFFFFFF AND EQ DUP1 PUSH2 0x1E59 JUMPI POP DUP4 PUSH20 0xFFFFFFFFFFFFFFFFFFFFFFFFFFFFFFFFFFFFFFFF AND PUSH2 0x1E41 DUP5 PUSH2 0x940 JUMP JUMPDEST PUSH20 0xFFFFFFFFFFFFFFFFFFFFFFFFFFFFFFFFFFFFFFFF AND EQ JUMPDEST DUP1 PUSH2 0x1E6A JUMPI POP PUSH2 0x1E69 DUP2 DUP6 PUSH2 0x1839 JUMP JUMPDEST JUMPDEST SWAP2 POP POP SWAP3 SWAP2 POP POP JUMP JUMPDEST DUP3 PUSH20 0xFFFFFFFFFFFFFFFFFFFFFFFFFFFFFFFFFFFFFFFF AND PUSH2 0x1E93 DUP3 PUSH2 0xE53 JUMP JUMPDEST PUSH20 0xFFFFFFFFFFFFFFFFFFFFFFFFFFFFFFFFFFFFFFFF AND EQ PUSH2 0x1EE9 JUMPI PUSH1 0x40 MLOAD PUSH32 0x8C379A000000000000000000000000000000000000000000000000000000000 DUP2 MSTORE PUSH1 0x4 ADD PUSH2 0x1EE0 SWAP1 PUSH2 0x3D10 JUMP JUMPDEST PUSH1 0x40 MLOAD DUP1 SWAP2 SUB SWAP1 REVERT JUMPDEST PUSH1 0x0 PUSH20 0xFFFFFFFFFFFFFFFFFFFFFFFFFFFFFFFFFFFFFFFF AND DUP3 PUSH20 0xFFFFFFFFFFFFFFFFFFFFFFFFFFFFFFFFFFFFFFFF AND EQ ISZERO PUSH2 0x1F59 JUMPI PUSH1 0x40 MLOAD PUSH32 0x8C379A000000000000000000000000000000000000000000000000000000000 DUP2 MSTORE PUSH1 0x4 ADD PUSH2 0x1F50 SWAP1 PUSH2 0x3DA2 JUMP JUMPDEST PUSH1 0x40 MLOAD DUP1 SWAP2 SUB SWAP1 REVERT JUMPDEST PUSH2 0x1F64 PUSH1 0x0 DUP3 PUSH2 0x1C44 JUMP JUMPDEST PUSH1 0x1 PUSH1 0x3 PUSH1 0x0 DUP6 PUSH20 0xFFFFFFFFFFFFFFFFFFFFFFFFFFFFFFFFFFFFFFFF AND PUSH20 0xFFFFFFFFFFFFFFFFFFFFFFFFFFFFFFFFFFFFFFFF AND DUP2 MSTORE PUSH1 0x20 ADD SWAP1 DUP2 MSTORE PUSH1 0x20 ADD PUSH1 0x0 KECCAK256 PUSH1 0x0 DUP3 DUP3 SLOAD PUSH2 0x1FB4 SWAP2 SWAP1 PUSH2 0x3DC2 JUMP JUMPDEST SWAP3 POP POP DUP2 SWAP1 SSTORE POP PUSH1 0x1 PUSH1 0x3 PUSH1 0x0 DUP5 PUSH20 0xFFFFFFFFFFFFFFFFFFFFFFFFFFFFFFFFFFFFFFFF AND PUSH20 0xFFFFFFFFFFFFFFFFFFFFFFFFFFFFFFFFFFFFFFFF AND DUP2 MSTORE PUSH1 0x20 ADD SWAP1 DUP2 MSTORE PUSH1 0x20 ADD PUSH1 0x0 KECCAK256 PUSH1 0x0 DUP3 DUP3 SLOAD PUSH2 0x200B SWAP2 SWAP1 PUSH2 0x3ADE JUMP JUMPDEST SWAP3 POP POP DUP2 SWAP1 SSTORE POP DUP2 PUSH1 0x2 PUSH1 0x0 DUP4 DUP2 MSTORE PUSH1 0x20 ADD SWAP1 DUP2 MSTORE PUSH1 0x20 ADD PUSH1 0x0 KECCAK256 PUSH1 0x0 PUSH2 0x100 EXP DUP2 SLOAD DUP2 PUSH20 0xFFFFFFFFFFFFFFFFFFFFFFFFFFFFFFFFFFFFFFFF MUL NOT AND SWAP1 DUP4 PUSH20 0xFFFFFFFFFFFFFFFFFFFFFFFFFFFFFFFFFFFFFFFF AND MUL OR SWAP1 SSTORE POP DUP1 DUP3 PUSH20 0xFFFFFFFFFFFFFFFFFFFFFFFFFFFFFFFFFFFFFFFF AND DUP5 PUSH20 0xFFFFFFFFFFFFFFFFFFFFFFFFFFFFFFFFFFFFFFFF AND PUSH32 0xDDF252AD1BE2C89B69C2B068FC378DAA952BA7F163C4A11628F55A4DF523B3EF PUSH1 0x40 MLOAD PUSH1 0x40 MLOAD DUP1 SWAP2 SUB SWAP1 LOG4 POP POP POP JUMP JUMPDEST PUSH1 0x0 DUP3 PUSH2 0x20D1 DUP6 DUP5 PUSH2 0x2335 JUMP JUMPDEST EQ SWAP1 POP SWAP4 SWAP3 POP POP POP JUMP JUMPDEST PUSH1 0x60 PUSH1 0x0 DUP3 MLOAD EQ ISZERO PUSH2 0x20FE JUMPI PUSH1 0x40 MLOAD DUP1 PUSH1 0x20 ADD PUSH1 0x40 MSTORE DUP1 PUSH1 0x0 DUP2 MSTORE POP SWAP1 POP PUSH2 0x225B JUMP JUMPDEST PUSH1 0x0 PUSH1 0x40 MLOAD DUP1 PUSH1 0x60 ADD PUSH1 0x40 MSTORE DUP1 PUSH1 0x40 DUP2 MSTORE PUSH1 0x20 ADD PUSH2 0x40EB PUSH1 0x40 SWAP2 CODECOPY SWAP1 POP PUSH1 0x0 PUSH1 0x3 PUSH1 0x2 DUP6 MLOAD PUSH2 0x212D SWAP2 SWAP1 PUSH2 0x3ADE JUMP JUMPDEST PUSH2 0x2137 SWAP2 SWAP1 PUSH2 0x3E25 JUMP JUMPDEST PUSH1 0x4 PUSH2 0x2143 SWAP2 SWAP1 PUSH2 0x3E56 JUMP JUMPDEST SWAP1 POP PUSH1 0x0 PUSH1 0x20 DUP3 PUSH2 0x2154 SWAP2 SWAP1 PUSH2 0x3ADE JUMP JUMPDEST PUSH8 0xFFFFFFFFFFFFFFFF DUP2 GT ISZERO PUSH2 0x216D JUMPI PUSH2 0x216C PUSH2 0x2B9B JUMP JUMPDEST JUMPDEST PUSH1 0x40 MLOAD SWAP1 DUP1 DUP3 MSTORE DUP1 PUSH1 0x1F ADD PUSH1 0x1F NOT AND PUSH1 0x20 ADD DUP3 ADD PUSH1 0x40 MSTORE DUP1 ISZERO PUSH2 0x219F JUMPI DUP2 PUSH1 0x20 ADD PUSH1 0x1 DUP3 MUL DUP1 CALLDATASIZE DUP4 CALLDATACOPY DUP1 DUP3 ADD SWAP2 POP POP SWAP1 POP JUMPDEST POP SWAP1 POP DUP2 DUP2 MSTORE PUSH1 0x1 DUP4 ADD DUP6 DUP7 MLOAD DUP2 ADD PUSH1 0x20 DUP5 ADD JUMPDEST DUP2 DUP4 LT ISZERO PUSH2 0x221A JUMPI PUSH1 0x3 DUP4 ADD SWAP3 POP DUP3 MLOAD PUSH1 0x3F DUP2 PUSH1 0x12 SHR AND DUP6 ADD MLOAD PUSH1 0xF8 SHL DUP3 MSTORE PUSH1 0x1 DUP3 ADD SWAP2 POP PUSH1 0x3F DUP2 PUSH1 0xC SHR AND DUP6 ADD MLOAD PUSH1 0xF8 SHL DUP3 MSTORE PUSH1 0x1 DUP3 ADD SWAP2 POP PUSH1 0x3F DUP2 PUSH1 0x6 SHR AND DUP6 ADD MLOAD PUSH1 0xF8 SHL DUP3 MSTORE PUSH1 0x1 DUP3 ADD SWAP2 POP PUSH1 0x3F DUP2 AND DUP6 ADD MLOAD PUSH1 0xF8 SHL DUP3 MSTORE PUSH1 0x1 DUP3 ADD SWAP2 POP POP PUSH2 0x21B3 JUMP JUMPDEST PUSH1 0x3 DUP10 MLOAD MOD PUSH1 0x1 DUP2 EQ PUSH2 0x2234 JUMPI PUSH1 0x2 DUP2 EQ PUSH2 0x2244 JUMPI PUSH2 0x224F JUMP JUMPDEST PUSH2 0x3D3D PUSH1 0xF0 SHL PUSH1 0x2 DUP4 SUB MSTORE PUSH2 0x224F JUMP JUMPDEST PUSH1 0x3D PUSH1 0xF8 SHL PUSH1 0x1 DUP4 SUB MSTORE JUMPDEST POP POP POP POP POP DUP1 SWAP4 POP POP POP POP JUMPDEST SWAP2 SWAP1 POP JUMP JUMPDEST PUSH2 0x226B DUP5 DUP5 DUP5 PUSH2 0x1E73 JUMP JUMPDEST PUSH2 0x2277 DUP5 DUP5 DUP5 DUP5 PUSH2 0x23E8 JUMP JUMPDEST PUSH2 0x22B6 JUMPI PUSH1 0x40 MLOAD PUSH32 0x8C379A000000000000000000000000000000000000000000000000000000000 DUP2 MSTORE PUSH1 0x4 ADD PUSH2 0x22AD SWAP1 PUSH2 0x3F22 JUMP JUMPDEST PUSH1 0x40 MLOAD DUP1 SWAP2 SUB SWAP1 REVERT JUMPDEST POP POP POP POP JUMP JUMPDEST PUSH1 0x0 DUP3 DUP5 PUSH1 0x40 MLOAD PUSH1 0x20 ADD PUSH2 0x22D1 SWAP3 SWAP2 SWAP1 PUSH2 0x3575 JUMP JUMPDEST PUSH1 0x40 MLOAD PUSH1 0x20 DUP2 DUP4 SUB SUB DUP2 MSTORE SWAP1 PUSH1 0x40 MSTORE DUP1 MLOAD SWAP1 PUSH1 0x20 ADD KECCAK256 PUSH1 0x0 SHR SWAP1 POP PUSH1 0x1 ISZERO ISZERO DUP3 ISZERO ISZERO EQ ISZERO PUSH2 0x2325 JUMPI DUP2 PUSH1 0xC PUSH1 0x0 DUP4 DUP2 MSTORE PUSH1 0x20 ADD SWAP1 DUP2 MSTORE PUSH1 0x20 ADD PUSH1 0x0 KECCAK256 PUSH1 0x0 PUSH2 0x100 EXP DUP2 SLOAD DUP2 PUSH1 0xFF MUL NOT AND SWAP1 DUP4 ISZERO ISZERO MUL OR SWAP1 SSTORE POP JUMPDEST PUSH2 0x232F DUP5 DUP3 PUSH2 0x19AC JUMP JUMPDEST POP POP POP POP JUMP JUMPDEST PUSH1 0x0 DUP1 DUP3 SWAP1 POP PUSH1 0x0 JUMPDEST DUP5 MLOAD DUP2 LT ISZERO PUSH2 0x23DD JUMPI PUSH1 0x0 DUP6 DUP3 DUP2 MLOAD DUP2 LT PUSH2 0x235C JUMPI PUSH2 0x235B PUSH2 0x3F42 JUMP JUMPDEST JUMPDEST PUSH1 0x20 MUL PUSH1 0x20 ADD ADD MLOAD SWAP1 POP DUP1 DUP4 GT PUSH2 0x239D JUMPI DUP3 DUP2 PUSH1 0x40 MLOAD PUSH1 0x20 ADD PUSH2 0x2380 SWAP3 SWAP2 SWAP1 PUSH2 0x3F92 JUMP JUMPDEST PUSH1 0x40 MLOAD PUSH1 0x20 DUP2 DUP4 SUB SUB DUP2 MSTORE SWAP1 PUSH1 0x40 MSTORE DUP1 MLOAD SWAP1 PUSH1 0x20 ADD KECCAK256 SWAP3 POP PUSH2 0x23C9 JUMP JUMPDEST DUP1 DUP4 PUSH1 0x40 MLOAD PUSH1 0x20 ADD PUSH2 0x23B0 SWAP3 SWAP2 SWAP1 PUSH2 0x3F92 JUMP JUMPDEST PUSH1 0x40 MLOAD PUSH1 0x20 DUP2 DUP4 SUB SUB DUP2 MSTORE SWAP1 PUSH1 0x40 MSTORE DUP1 MLOAD SWAP1 PUSH1 0x20 ADD KECCAK256 SWAP3 POP JUMPDEST POP DUP1 DUP1 PUSH2 0x23D5 SWAP1 PUSH2 0x3FBE JUMP JUMPDEST SWAP2 POP POP PUSH2 0x233E JUMP JUMPDEST POP DUP1 SWAP2 POP POP SWAP3 SWAP2 POP POP JUMP JUMPDEST PUSH1 0x0 PUSH2 0x2409 DUP5 PUSH20 0xFFFFFFFFFFFFFFFFFFFFFFFFFFFFFFFFFFFFFFFF AND PUSH2 0x2569 JUMP JUMPDEST ISZERO PUSH2 0x255C JUMPI DUP4 PUSH20 0xFFFFFFFFFFFFFFFFFFFFFFFFFFFFFFFFFFFFFFFF AND PUSH4 0x150B7A02 CALLER DUP8 DUP7 DUP7 PUSH1 0x40 MLOAD DUP6 PUSH4 0xFFFFFFFF AND PUSH1 0xE0 SHL DUP2 MSTORE PUSH1 0x4 ADD PUSH2 0x244D SWAP5 SWAP4 SWAP3 SWAP2 SWAP1 PUSH2 0x405C JUMP JUMPDEST PUSH1 0x20 PUSH1 0x40 MLOAD DUP1 DUP4 SUB DUP2 PUSH1 0x0 DUP8 GAS CALL SWAP3 POP POP POP DUP1 ISZERO PUSH2 0x2489 JUMPI POP PUSH1 0x40 MLOAD RETURNDATASIZE PUSH1 0x1F NOT PUSH1 0x1F DUP3 ADD AND DUP3 ADD DUP1 PUSH1 0x40 MSTORE POP DUP2 ADD SWAP1 PUSH2 0x2486 SWAP2 SWAP1 PUSH2 0x40BD JUMP JUMPDEST PUSH1 0x1 JUMPDEST PUSH2 0x250C JUMPI RETURNDATASIZE DUP1 PUSH1 0x0 DUP2 EQ PUSH2 0x24B9 JUMPI PUSH1 0x40 MLOAD SWAP2 POP PUSH1 0x1F NOT PUSH1 0x3F RETURNDATASIZE ADD AND DUP3 ADD PUSH1 0x40 MSTORE RETURNDATASIZE DUP3 MSTORE RETURNDATASIZE PUSH1 0x0 PUSH1 0x20 DUP5 ADD RETURNDATACOPY PUSH2 0x24BE JUMP JUMPDEST PUSH1 0x60 SWAP2 POP JUMPDEST POP PUSH1 0x0 DUP2 MLOAD EQ ISZERO PUSH2 0x2504 JUMPI PUSH1 0x40 MLOAD PUSH32 0x8C379A000000000000000000000000000000000000000000000000000000000 DUP2 MSTORE PUSH1 0x4 ADD PUSH2 0x24FB SWAP1 PUSH2 0x3F22 JUMP JUMPDEST PUSH1 0x40 MLOAD DUP1 SWAP2 SUB SWAP1 REVERT JUMPDEST DUP1 MLOAD DUP2 PUSH1 0x20 ADD REVERT JUMPDEST PUSH4 0x150B7A02 PUSH1 0xE0 SHL PUSH28 0xFFFFFFFFFFFFFFFFFFFFFFFFFFFFFFFFFFFFFFFFFFFFFFFFFFFFFFFF NOT AND DUP2 PUSH28 0xFFFFFFFFFFFFFFFFFFFFFFFFFFFFFFFFFFFFFFFFFFFFFFFFFFFFFFFF NOT AND EQ SWAP2 POP POP PUSH2 0x2561 JUMP JUMPDEST PUSH1 0x1 SWAP1 POP JUMPDEST SWAP5 SWAP4 POP POP POP POP JUMP JUMPDEST PUSH1 0x0 DUP1 DUP3 EXTCODESIZE SWAP1 POP PUSH1 0x0 DUP2 GT SWAP2 POP POP SWAP2 SWAP1 POP JUMP JUMPDEST PUSH1 0x0 PUSH1 0x40 MLOAD SWAP1 POP SWAP1 JUMP JUMPDEST PUSH1 0x0 DUP1 REVERT JUMPDEST PUSH1 0x0 DUP1 REVERT JUMPDEST PUSH1 0x0 PUSH32 0xFFFFFFFF00000000000000000000000000000000000000000000000000000000 DUP3 AND SWAP1 POP SWAP2 SWAP1 POP JUMP JUMPDEST PUSH2 0x25C5 DUP2 PUSH2 0x2590 JUMP JUMPDEST DUP2 EQ PUSH2 0x25D0 JUMPI PUSH1 0x0 DUP1 REVERT JUMPDEST POP JUMP JUMPDEST PUSH1 0x0 DUP2 CALLDATALOAD SWAP1 POP PUSH2 0x25E2 DUP2 PUSH2 0x25BC JUMP JUMPDEST SWAP3 SWAP2 POP POP JUMP JUMPDEST PUSH1 0x0 PUSH1 0x20 DUP3 DUP5 SUB SLT ISZERO PUSH2 0x25FE JUMPI PUSH2 0x25FD PUSH2 0x2586 JUMP JUMPDEST JUMPDEST PUSH1 0x0 PUSH2 0x260C DUP5 DUP3 DUP6 ADD PUSH2 0x25D3 JUMP JUMPDEST SWAP2 POP POP SWAP3 SWAP2 POP POP JUMP JUMPDEST PUSH1 0x0 DUP2 ISZERO ISZERO SWAP1 POP SWAP2 SWAP1 POP JUMP JUMPDEST PUSH2 0x262A DUP2 PUSH2 0x2615 JUMP JUMPDEST DUP3 MSTORE POP POP JUMP JUMPDEST PUSH1 0x0 PUSH1 0x20 DUP3 ADD SWAP1 POP PUSH2 0x2645 PUSH1 0x0 DUP4 ADD DUP5 PUSH2 0x2621 JUMP JUMPDEST SWAP3 SWAP2 POP POP JUMP JUMPDEST PUSH1 0x0 DUP2 MLOAD SWAP1 POP SWAP2 SWAP1 POP JUMP JUMPDEST PUSH1 0x0 DUP3 DUP3 MSTORE PUSH1 0x20 DUP3 ADD SWAP1 POP SWAP3 SWAP2 POP POP JUMP JUMPDEST PUSH1 0x0 JUMPDEST DUP4 DUP2 LT ISZERO PUSH2 0x2685 JUMPI DUP1 DUP3 ADD MLOAD DUP2 DUP5 ADD MSTORE PUSH1 0x20 DUP2 ADD SWAP1 POP PUSH2 0x266A JUMP JUMPDEST DUP4 DUP2 GT ISZERO PUSH2 0x2694 JUMPI PUSH1 0x0 DUP5 DUP5 ADD MSTORE JUMPDEST POP POP POP POP JUMP JUMPDEST PUSH1 0x0 PUSH1 0x1F NOT PUSH1 0x1F DUP4 ADD AND SWAP1 POP SWAP2 SWAP1 POP JUMP JUMPDEST PUSH1 0x0 PUSH2 0x26B6 DUP3 PUSH2 0x264B JUMP JUMPDEST PUSH2 0x26C0 DUP2 DUP6 PUSH2 0x2656 JUMP JUMPDEST SWAP4 POP PUSH2 0x26D0 DUP2 DUP6 PUSH1 0x20 DUP7 ADD PUSH2 0x2667 JUMP JUMPDEST PUSH2 0x26D9 DUP2 PUSH2 0x269A JUMP JUMPDEST DUP5 ADD SWAP2 POP POP SWAP3 SWAP2 POP POP JUMP JUMPDEST PUSH1 0x0 PUSH1 0x20 DUP3 ADD SWAP1 POP DUP2 DUP2 SUB PUSH1 0x0 DUP4 ADD MSTORE PUSH2 0x26FE DUP2 DUP5 PUSH2 0x26AB JUMP JUMPDEST SWAP1 POP SWAP3 SWAP2 POP POP JUMP JUMPDEST PUSH1 0x0 DUP2 SWAP1 POP SWAP2 SWAP1 POP JUMP JUMPDEST PUSH2 0x2719 DUP2 PUSH2 0x2706 JUMP JUMPDEST DUP2 EQ PUSH2 0x2724 JUMPI PUSH1 0x0 DUP1 REVERT JUMPDEST POP JUMP JUMPDEST PUSH1 0x0 DUP2 CALLDATALOAD SWAP1 POP PUSH2 0x2736 DUP2 PUSH2 0x2710 JUMP JUMPDEST SWAP3 SWAP2 POP POP JUMP JUMPDEST PUSH1 0x0 PUSH1 0x20 DUP3 DUP5 SUB SLT ISZERO PUSH2 0x2752 JUMPI PUSH2 0x2751 PUSH2 0x2586 JUMP JUMPDEST JUMPDEST PUSH1 0x0 PUSH2 0x2760 DUP5 DUP3 DUP6 ADD PUSH2 0x2727 JUMP JUMPDEST SWAP2 POP POP SWAP3 SWAP2 POP POP JUMP JUMPDEST PUSH1 0x0 PUSH20 0xFFFFFFFFFFFFFFFFFFFFFFFFFFFFFFFFFFFFFFFF DUP3 AND SWAP1 POP SWAP2 SWAP1 POP JUMP JUMPDEST PUSH1 0x0 PUSH2 0x2794 DUP3 PUSH2 0x2769 JUMP JUMPDEST SWAP1 POP SWAP2 SWAP1 POP JUMP JUMPDEST PUSH2 0x27A4 DUP2 PUSH2 0x2789 JUMP JUMPDEST DUP3 MSTORE POP POP JUMP JUMPDEST PUSH1 0x0 PUSH1 0x20 DUP3 ADD SWAP1 POP PUSH2 0x27BF PUSH1 0x0 DUP4 ADD DUP5 PUSH2 0x279B JUMP JUMPDEST SWAP3 SWAP2 POP POP JUMP JUMPDEST PUSH2 0x27CE DUP2 PUSH2 0x2789 JUMP JUMPDEST DUP2 EQ PUSH2 0x27D9 JUMPI PUSH1 0x0 DUP1 REVERT JUMPDEST POP JUMP JUMPDEST PUSH1 0x0 DUP2 CALLDATALOAD SWAP1 POP PUSH2 0x27EB DUP2 PUSH2 0x27C5 JUMP JUMPDEST SWAP3 SWAP2 POP POP JUMP JUMPDEST PUSH1 0x0 DUP1 PUSH1 0x40 DUP4 DUP6 SUB SLT ISZERO PUSH2 0x2808 JUMPI PUSH2 0x2807 PUSH2 0x2586 JUMP JUMPDEST JUMPDEST PUSH1 0x0 PUSH2 0x2816 DUP6 DUP3 DUP7 ADD PUSH2 0x27DC JUMP JUMPDEST SWAP3 POP POP PUSH1 0x20 PUSH2 0x2827 DUP6 DUP3 DUP7 ADD PUSH2 0x2727 JUMP JUMPDEST SWAP2 POP POP SWAP3 POP SWAP3 SWAP1 POP JUMP JUMPDEST PUSH2 0x283A DUP2 PUSH2 0x2706 JUMP JUMPDEST DUP3 MSTORE POP POP JUMP JUMPDEST PUSH1 0x0 PUSH1 0x20 DUP3 ADD SWAP1 POP PUSH2 0x2855 PUSH1 0x0 DUP4 ADD DUP5 PUSH2 0x2831 JUMP JUMPDEST SWAP3 SWAP2 POP POP JUMP JUMPDEST PUSH1 0x0 DUP1 PUSH1 0x0 PUSH1 0x60 DUP5 DUP7 SUB SLT ISZERO PUSH2 0x2874 JUMPI PUSH2 0x2873 PUSH2 0x2586 JUMP JUMPDEST JUMPDEST PUSH1 0x0 PUSH2 0x2882 DUP7 DUP3 DUP8 ADD PUSH2 0x27DC JUMP JUMPDEST SWAP4 POP POP PUSH1 0x20 PUSH2 0x2893 DUP7 DUP3 DUP8 ADD PUSH2 0x27DC JUMP JUMPDEST SWAP3 POP POP PUSH1 0x40 PUSH2 0x28A4 DUP7 DUP3 DUP8 ADD PUSH2 0x2727 JUMP JUMPDEST SWAP2 POP POP SWAP3 POP SWAP3 POP SWAP3 JUMP JUMPDEST PUSH1 0x0 DUP2 SWAP1 POP SWAP2 SWAP1 POP JUMP JUMPDEST PUSH1 0x0 PUSH2 0x28D3 PUSH2 0x28CE PUSH2 0x28C9 DUP5 PUSH2 0x2769 JUMP JUMPDEST PUSH2 0x28AE JUMP JUMPDEST PUSH2 0x2769 JUMP JUMPDEST SWAP1 POP SWAP2 SWAP1 POP JUMP JUMPDEST PUSH1 0x0 PUSH2 0x28E5 DUP3 PUSH2 0x28B8 JUMP JUMPDEST SWAP1 POP SWAP2 SWAP1 POP JUMP JUMPDEST PUSH1 0x0 PUSH2 0x28F7 DUP3 PUSH2 0x28DA JUMP JUMPDEST SWAP1 POP SWAP2 SWAP1 POP JUMP JUMPDEST PUSH2 0x2907 DUP2 PUSH2 0x28EC JUMP JUMPDEST DUP3 MSTORE POP POP JUMP JUMPDEST PUSH1 0x0 PUSH1 0x20 DUP3 ADD SWAP1 POP PUSH2 0x2922 PUSH1 0x0 DUP4 ADD DUP5 PUSH2 0x28FE JUMP JUMPDEST SWAP3 SWAP2 POP POP JUMP JUMPDEST PUSH1 0x0 DUP1 REVERT JUMPDEST PUSH1 0x0 DUP1 REVERT JUMPDEST PUSH1 0x0 DUP1 REVERT JUMPDEST PUSH1 0x0 DUP1 DUP4 PUSH1 0x1F DUP5 ADD SLT PUSH2 0x294D JUMPI PUSH2 0x294C PUSH2 0x2928 JUMP JUMPDEST JUMPDEST DUP3 CALLDATALOAD SWAP1 POP PUSH8 0xFFFFFFFFFFFFFFFF DUP2 GT ISZERO PUSH2 0x296A JUMPI PUSH2 0x2969 PUSH2 0x292D JUMP JUMPDEST JUMPDEST PUSH1 0x20 DUP4 ADD SWAP2 POP DUP4 PUSH1 0x20 DUP3 MUL DUP4 ADD GT ISZERO PUSH2 0x2986 JUMPI PUSH2 0x2985 PUSH2 0x2932 JUMP JUMPDEST JUMPDEST SWAP3 POP SWAP3 SWAP1 POP JUMP JUMPDEST PUSH1 0x0 DUP1 PUSH1 0x0 PUSH1 0x40 DUP5 DUP7 SUB SLT ISZERO PUSH2 0x29A6 JUMPI PUSH2 0x29A5 PUSH2 0x2586 JUMP JUMPDEST JUMPDEST PUSH1 0x0 DUP5 ADD CALLDATALOAD PUSH8 0xFFFFFFFFFFFFFFFF DUP2 GT ISZERO PUSH2 0x29C4 JUMPI PUSH2 0x29C3 PUSH2 0x258B JUMP JUMPDEST JUMPDEST PUSH2 0x29D0 DUP7 DUP3 DUP8 ADD PUSH2 0x2937 JUMP JUMPDEST SWAP4 POP SWAP4 POP POP PUSH1 0x20 PUSH2 0x29E3 DUP7 DUP3 DUP8 ADD PUSH2 0x27DC JUMP JUMPDEST SWAP2 POP POP SWAP3 POP SWAP3 POP SWAP3 JUMP JUMPDEST PUSH1 0x0 PUSH2 0x29F8 DUP3 PUSH2 0x2769 JUMP JUMPDEST SWAP1 POP SWAP2 SWAP1 POP JUMP JUMPDEST PUSH2 0x2A08 DUP2 PUSH2 0x29ED JUMP JUMPDEST DUP3 MSTORE POP POP JUMP JUMPDEST PUSH1 0x0 PUSH1 0x20 DUP3 ADD SWAP1 POP PUSH2 0x2A23 PUSH1 0x0 DUP4 ADD DUP5 PUSH2 0x29FF JUMP JUMPDEST SWAP3 SWAP2 POP POP JUMP JUMPDEST PUSH1 0x0 DUP2 SWAP1 POP SWAP2 SWAP1 POP JUMP JUMPDEST PUSH2 0x2A3C DUP2 PUSH2 0x2A29 JUMP JUMPDEST DUP3 MSTORE POP POP JUMP JUMPDEST PUSH1 0x0 PUSH1 0x20 DUP3 ADD SWAP1 POP PUSH2 0x2A57 PUSH1 0x0 DUP4 ADD DUP5 PUSH2 0x2A33 JUMP JUMPDEST SWAP3 SWAP2 POP POP JUMP JUMPDEST PUSH1 0x0 PUSH1 0x20 DUP3 DUP5 SUB SLT ISZERO PUSH2 0x2A73 JUMPI PUSH2 0x2A72 PUSH2 0x2586 JUMP JUMPDEST JUMPDEST PUSH1 0x0 PUSH2 0x2A81 DUP5 DUP3 DUP6 ADD PUSH2 0x27DC JUMP JUMPDEST SWAP2 POP POP SWAP3 SWAP2 POP POP JUMP JUMPDEST PUSH2 0x2A93 DUP2 PUSH2 0x2615 JUMP JUMPDEST DUP2 EQ PUSH2 0x2A9E JUMPI PUSH1 0x0 DUP1 REVERT JUMPDEST POP JUMP JUMPDEST PUSH1 0x0 DUP2 CALLDATALOAD SWAP1 POP PUSH2 0x2AB0 DUP2 PUSH2 0x2A8A JUMP JUMPDEST SWAP3 SWAP2 POP POP JUMP JUMPDEST PUSH1 0x0 DUP1 PUSH1 0x0 PUSH1 0x60 DUP5 DUP7 SUB SLT ISZERO PUSH2 0x2ACF JUMPI PUSH2 0x2ACE PUSH2 0x2586 JUMP JUMPDEST JUMPDEST PUSH1 0x0 PUSH2 0x2ADD DUP7 DUP3 DUP8 ADD PUSH2 0x2727 JUMP JUMPDEST SWAP4 POP POP PUSH1 0x20 PUSH2 0x2AEE DUP7 DUP3 DUP8 ADD PUSH2 0x27DC JUMP JUMPDEST SWAP3 POP POP PUSH1 0x40 PUSH2 0x2AFF DUP7 DUP3 DUP8 ADD PUSH2 0x2AA1 JUMP JUMPDEST SWAP2 POP POP SWAP3 POP SWAP3 POP SWAP3 JUMP JUMPDEST PUSH1 0x0 DUP1 PUSH1 0x40 DUP4 DUP6 SUB SLT ISZERO PUSH2 0x2B20 JUMPI PUSH2 0x2B1F PUSH2 0x2586 JUMP JUMPDEST JUMPDEST PUSH1 0x0 PUSH2 0x2B2E DUP6 DUP3 DUP7 ADD PUSH2 0x27DC JUMP JUMPDEST SWAP3 POP POP PUSH1 0x20 PUSH2 0x2B3F DUP6 DUP3 DUP7 ADD PUSH2 0x2AA1 JUMP JUMPDEST SWAP2 POP POP SWAP3 POP SWAP3 SWAP1 POP JUMP JUMPDEST PUSH1 0x0 DUP1 PUSH1 0x20 DUP4 DUP6 SUB SLT ISZERO PUSH2 0x2B60 JUMPI PUSH2 0x2B5F PUSH2 0x2586 JUMP JUMPDEST JUMPDEST PUSH1 0x0 DUP4 ADD CALLDATALOAD PUSH8 0xFFFFFFFFFFFFFFFF DUP2 GT ISZERO PUSH2 0x2B7E JUMPI PUSH2 0x2B7D PUSH2 0x258B JUMP JUMPDEST JUMPDEST PUSH2 0x2B8A DUP6 DUP3 DUP7 ADD PUSH2 0x2937 JUMP JUMPDEST SWAP3 POP SWAP3 POP POP SWAP3 POP SWAP3 SWAP1 POP JUMP JUMPDEST PUSH1 0x0 DUP1 REVERT JUMPDEST PUSH32 0x4E487B7100000000000000000000000000000000000000000000000000000000 PUSH1 0x0 MSTORE PUSH1 0x41 PUSH1 0x4 MSTORE PUSH1 0x24 PUSH1 0x0 REVERT JUMPDEST PUSH2 0x2BD3 DUP3 PUSH2 0x269A JUMP JUMPDEST DUP2 ADD DUP2 DUP2 LT PUSH8 0xFFFFFFFFFFFFFFFF DUP3 GT OR ISZERO PUSH2 0x2BF2 JUMPI PUSH2 0x2BF1 PUSH2 0x2B9B JUMP JUMPDEST JUMPDEST DUP1 PUSH1 0x40 MSTORE POP POP POP JUMP JUMPDEST PUSH1 0x0 PUSH2 0x2C05 PUSH2 0x257C JUMP JUMPDEST SWAP1 POP PUSH2 0x2C11 DUP3 DUP3 PUSH2 0x2BCA JUMP JUMPDEST SWAP2 SWAP1 POP JUMP JUMPDEST PUSH1 0x0 PUSH8 0xFFFFFFFFFFFFFFFF DUP3 GT ISZERO PUSH2 0x2C31 JUMPI PUSH2 0x2C30 PUSH2 0x2B9B JUMP JUMPDEST JUMPDEST PUSH2 0x2C3A DUP3 PUSH2 0x269A JUMP JUMPDEST SWAP1 POP PUSH1 0x20 DUP2 ADD SWAP1 POP SWAP2 SWAP1 POP JUMP JUMPDEST DUP3 DUP2 DUP4 CALLDATACOPY PUSH1 0x0 DUP4 DUP4 ADD MSTORE POP POP POP JUMP JUMPDEST PUSH1 0x0 PUSH2 0x2C69 PUSH2 0x2C64 DUP5 PUSH2 0x2C16 JUMP JUMPDEST PUSH2 0x2BFB JUMP JUMPDEST SWAP1 POP DUP3 DUP2 MSTORE PUSH1 0x20 DUP2 ADD DUP5 DUP5 DUP5 ADD GT ISZERO PUSH2 0x2C85 JUMPI PUSH2 0x2C84 PUSH2 0x2B96 JUMP JUMPDEST JUMPDEST PUSH2 0x2C90 DUP5 DUP3 DUP6 PUSH2 0x2C47 JUMP JUMPDEST POP SWAP4 SWAP3 POP POP POP JUMP JUMPDEST PUSH1 0x0 DUP3 PUSH1 0x1F DUP4 ADD SLT PUSH2 0x2CAD JUMPI PUSH2 0x2CAC PUSH2 0x2928 JUMP JUMPDEST JUMPDEST DUP2 CALLDATALOAD PUSH2 0x2CBD DUP5 DUP3 PUSH1 0x20 DUP7 ADD PUSH2 0x2C56 JUMP JUMPDEST SWAP2 POP POP SWAP3 SWAP2 POP POP JUMP JUMPDEST PUSH1 0x0 DUP1 PUSH1 0x0 DUP1 PUSH1 0x80 DUP6 DUP8 SUB SLT ISZERO PUSH2 0x2CE0 JUMPI PUSH2 0x2CDF PUSH2 0x2586 JUMP JUMPDEST JUMPDEST PUSH1 0x0 PUSH2 0x2CEE DUP8 DUP3 DUP9 ADD PUSH2 0x27DC JUMP JUMPDEST SWAP5 POP POP PUSH1 0x20 PUSH2 0x2CFF DUP8 DUP3 DUP9 ADD PUSH2 0x27DC JUMP JUMPDEST SWAP4 POP POP PUSH1 0x40 PUSH2 0x2D10 DUP8 DUP3 DUP9 ADD PUSH2 0x2727 JUMP JUMPDEST SWAP3 POP POP PUSH1 0x60 DUP6 ADD CALLDATALOAD PUSH8 0xFFFFFFFFFFFFFFFF DUP2 GT ISZERO PUSH2 0x2D31 JUMPI PUSH2 0x2D30 PUSH2 0x258B JUMP JUMPDEST JUMPDEST PUSH2 0x2D3D DUP8 DUP3 DUP9 ADD PUSH2 0x2C98 JUMP JUMPDEST SWAP2 POP POP SWAP3 SWAP6 SWAP2 SWAP5 POP SWAP3 POP JUMP JUMPDEST PUSH1 0x0 DUP1 PUSH1 0x40 DUP4 DUP6 SUB SLT ISZERO PUSH2 0x2D60 JUMPI PUSH2 0x2D5F PUSH2 0x2586 JUMP JUMPDEST JUMPDEST PUSH1 0x0 PUSH2 0x2D6E DUP6 DUP3 DUP7 ADD PUSH2 0x27DC JUMP JUMPDEST SWAP3 POP POP PUSH1 0x20 PUSH2 0x2D7F DUP6 DUP3 DUP7 ADD PUSH2 0x27DC JUMP JUMPDEST SWAP2 POP POP SWAP3 POP SWAP3 SWAP1 POP JUMP JUMPDEST PUSH32 0x4E487B7100000000000000000000000000000000000000000000000000000000 PUSH1 0x0 MSTORE PUSH1 0x22 PUSH1 0x4 MSTORE PUSH1 0x24 PUSH1 0x0 REVERT JUMPDEST PUSH1 0x0 PUSH1 0x2 DUP3 DIV SWAP1 POP PUSH1 0x1 DUP3 AND DUP1 PUSH2 0x2DD0 JUMPI PUSH1 0x7F DUP3 AND SWAP2 POP JUMPDEST PUSH1 0x20 DUP3 LT DUP2 EQ ISZERO PUSH2 0x2DE4 JUMPI PUSH2 0x2DE3 PUSH2 0x2D89 JUMP JUMPDEST JUMPDEST POP SWAP2 SWAP1 POP JUMP JUMPDEST PUSH32 0x4552433732313A20617070726F76656420717565727920666F72206E6F6E6578 PUSH1 0x0 DUP3 ADD MSTORE PUSH32 0x697374656E7420746F6B656E0000000000000000000000000000000000000000 PUSH1 0x20 DUP3 ADD MSTORE POP JUMP JUMPDEST PUSH1 0x0 PUSH2 0x2E46 PUSH1 0x2C DUP4 PUSH2 0x2656 JUMP JUMPDEST SWAP2 POP PUSH2 0x2E51 DUP3 PUSH2 0x2DEA JUMP JUMPDEST PUSH1 0x40 DUP3 ADD SWAP1 POP SWAP2 SWAP1 POP JUMP JUMPDEST PUSH1 0x0 PUSH1 0x20 DUP3 ADD SWAP1 POP DUP2 DUP2 SUB PUSH1 0x0 DUP4 ADD MSTORE PUSH2 0x2E75 DUP2 PUSH2 0x2E39 JUMP JUMPDEST SWAP1 POP SWAP2 SWAP1 POP JUMP JUMPDEST PUSH32 0x4552433732313A20617070726F76616C20746F2063757272656E74206F776E65 PUSH1 0x0 DUP3 ADD MSTORE PUSH32 0x7200000000000000000000000000000000000000000000000000000000000000 PUSH1 0x20 DUP3 ADD MSTORE POP JUMP JUMPDEST PUSH1 0x0 PUSH2 0x2ED8 PUSH1 0x21 DUP4 PUSH2 0x2656 JUMP JUMPDEST SWAP2 POP PUSH2 0x2EE3 DUP3 PUSH2 0x2E7C JUMP JUMPDEST PUSH1 0x40 DUP3 ADD SWAP1 POP SWAP2 SWAP1 POP JUMP JUMPDEST PUSH1 0x0 PUSH1 0x20 DUP3 ADD SWAP1 POP DUP2 DUP2 SUB PUSH1 0x0 DUP4 ADD MSTORE PUSH2 0x2F07 DUP2 PUSH2 0x2ECB JUMP JUMPDEST SWAP1 POP SWAP2 SWAP1 POP JUMP JUMPDEST PUSH32 0x4552433732313A20617070726F76652063616C6C6572206973206E6F74206F77 PUSH1 0x0 DUP3 ADD MSTORE PUSH32 0x6E6572206E6F7220617070726F76656420666F7220616C6C0000000000000000 PUSH1 0x20 DUP3 ADD MSTORE POP JUMP JUMPDEST PUSH1 0x0 PUSH2 0x2F6A PUSH1 0x38 DUP4 PUSH2 0x2656 JUMP JUMPDEST SWAP2 POP PUSH2 0x2F75 DUP3 PUSH2 0x2F0E JUMP JUMPDEST PUSH1 0x40 DUP3 ADD SWAP1 POP SWAP2 SWAP1 POP JUMP JUMPDEST PUSH1 0x0 PUSH1 0x20 DUP3 ADD SWAP1 POP DUP2 DUP2 SUB PUSH1 0x0 DUP4 ADD MSTORE PUSH2 0x2F99 DUP2 PUSH2 0x2F5D JUMP JUMPDEST SWAP1 POP SWAP2 SWAP1 POP JUMP JUMPDEST PUSH32 0x4D4F524520455448204E45454445440000000000000000000000000000000000 PUSH1 0x0 DUP3 ADD MSTORE POP JUMP JUMPDEST PUSH1 0x0 PUSH2 0x2FD6 PUSH1 0xF DUP4 PUSH2 0x2656 JUMP JUMPDEST SWAP2 POP PUSH2 0x2FE1 DUP3 PUSH2 0x2FA0 JUMP JUMPDEST PUSH1 0x20 DUP3 ADD SWAP1 POP SWAP2 SWAP1 POP JUMP JUMPDEST PUSH1 0x0 PUSH1 0x20 DUP3 ADD SWAP1 POP DUP2 DUP2 SUB PUSH1 0x0 DUP4 ADD MSTORE PUSH2 0x3005 DUP2 PUSH2 0x2FC9 JUMP JUMPDEST SWAP1 POP SWAP2 SWAP1 POP JUMP JUMPDEST PUSH32 0x4552433732313A207472616E736665722063616C6C6572206973206E6F74206F PUSH1 0x0 DUP3 ADD MSTORE PUSH32 0x776E6572206E6F7220617070726F766564000000000000000000000000000000 PUSH1 0x20 DUP3 ADD MSTORE POP JUMP JUMPDEST PUSH1 0x0 PUSH2 0x3068 PUSH1 0x31 DUP4 PUSH2 0x2656 JUMP JUMPDEST SWAP2 POP PUSH2 0x3073 DUP3 PUSH2 0x300C JUMP JUMPDEST PUSH1 0x40 DUP3 ADD SWAP1 POP SWAP2 SWAP1 POP JUMP JUMPDEST PUSH1 0x0 PUSH1 0x20 DUP3 ADD SWAP1 POP DUP2 DUP2 SUB PUSH1 0x0 DUP4 ADD MSTORE PUSH2 0x3097 DUP2 PUSH2 0x305B JUMP JUMPDEST SWAP1 POP SWAP2 SWAP1 POP JUMP JUMPDEST PUSH32 0x416C726561647920636C61696D65640000000000000000000000000000000000 PUSH1 0x0 DUP3 ADD MSTORE POP JUMP JUMPDEST PUSH1 0x0 PUSH2 0x30D4 PUSH1 0xF DUP4 PUSH2 0x2656 JUMP JUMPDEST SWAP2 POP PUSH2 0x30DF DUP3 PUSH2 0x309E JUMP JUMPDEST PUSH1 0x20 DUP3 ADD SWAP1 POP SWAP2 SWAP1 POP JUMP JUMPDEST PUSH1 0x0 PUSH1 0x20 DUP3 ADD SWAP1 POP DUP2 DUP2 SUB PUSH1 0x0 DUP4 ADD MSTORE PUSH2 0x3103 DUP2 PUSH2 0x30C7 JUMP JUMPDEST SWAP1 POP SWAP2 SWAP1 POP JUMP JUMPDEST PUSH1 0x0 DUP2 PUSH1 0x60 SHL SWAP1 POP SWAP2 SWAP1 POP JUMP JUMPDEST PUSH1 0x0 PUSH2 0x3122 DUP3 PUSH2 0x310A JUMP JUMPDEST SWAP1 POP SWAP2 SWAP1 POP JUMP JUMPDEST PUSH1 0x0 PUSH2 0x3134 DUP3 PUSH2 0x3117 JUMP JUMPDEST SWAP1 POP SWAP2 SWAP1 POP JUMP JUMPDEST PUSH2 0x314C PUSH2 0x3147 DUP3 PUSH2 0x2789 JUMP JUMPDEST PUSH2 0x3129 JUMP JUMPDEST DUP3 MSTORE POP POP JUMP JUMPDEST PUSH1 0x0 PUSH2 0x315E DUP3 DUP5 PUSH2 0x313B JUMP JUMPDEST PUSH1 0x14 DUP3 ADD SWAP2 POP DUP2 SWAP1 POP SWAP3 SWAP2 POP POP JUMP JUMPDEST PUSH32 0x496E76616C69642050726F6F6600000000000000000000000000000000000000 PUSH1 0x0 DUP3 ADD MSTORE POP JUMP JUMPDEST PUSH1 0x0 PUSH2 0x31A3 PUSH1 0xD DUP4 PUSH2 0x2656 JUMP JUMPDEST SWAP2 POP PUSH2 0x31AE DUP3 PUSH2 0x316D JUMP JUMPDEST PUSH1 0x20 DUP3 ADD SWAP1 POP SWAP2 SWAP1 POP JUMP JUMPDEST PUSH1 0x0 PUSH1 0x20 DUP3 ADD SWAP1 POP DUP2 DUP2 SUB PUSH1 0x0 DUP4 ADD MSTORE PUSH2 0x31D2 DUP2 PUSH2 0x3196 JUMP JUMPDEST SWAP1 POP SWAP2 SWAP1 POP JUMP JUMPDEST PUSH1 0x0 PUSH1 0x40 DUP3 ADD SWAP1 POP PUSH2 0x31EE PUSH1 0x0 DUP4 ADD DUP6 PUSH2 0x2831 JUMP JUMPDEST PUSH2 0x31FB PUSH1 0x20 DUP4 ADD DUP5 PUSH2 0x2621 JUMP JUMPDEST SWAP4 SWAP3 POP POP POP JUMP JUMPDEST PUSH1 0x0 PUSH8 0xFFFFFFFFFFFFFFFF DUP3 GT ISZERO PUSH2 0x321D JUMPI PUSH2 0x321C PUSH2 0x2B9B JUMP JUMPDEST JUMPDEST PUSH2 0x3226 DUP3 PUSH2 0x269A JUMP JUMPDEST SWAP1 POP PUSH1 0x20 DUP2 ADD SWAP1 POP SWAP2 SWAP1 POP JUMP JUMPDEST PUSH1 0x0 PUSH2 0x3246 PUSH2 0x3241 DUP5 PUSH2 0x3202 JUMP JUMPDEST PUSH2 0x2BFB JUMP JUMPDEST SWAP1 POP DUP3 DUP2 MSTORE PUSH1 0x20 DUP2 ADD DUP5 DUP5 DUP5 ADD GT ISZERO PUSH2 0x3262 JUMPI PUSH2 0x3261 PUSH2 0x2B96 JUMP JUMPDEST JUMPDEST PUSH2 0x326D DUP5 DUP3 DUP6 PUSH2 0x2667 JUMP JUMPDEST POP SWAP4 SWAP3 POP POP POP JUMP JUMPDEST PUSH1 0x0 DUP3 PUSH1 0x1F DUP4 ADD SLT PUSH2 0x328A JUMPI PUSH2 0x3289 PUSH2 0x2928 JUMP JUMPDEST JUMPDEST DUP2 MLOAD PUSH2 0x329A DUP5 DUP3 PUSH1 0x20 DUP7 ADD PUSH2 0x3233 JUMP JUMPDEST SWAP2 POP POP SWAP3 SWAP2 POP POP JUMP JUMPDEST PUSH1 0x0 PUSH1 0x20 DUP3 DUP5 SUB SLT ISZERO PUSH2 0x32B9 JUMPI PUSH2 0x32B8 PUSH2 0x2586 JUMP JUMPDEST JUMPDEST PUSH1 0x0 DUP3 ADD MLOAD PUSH8 0xFFFFFFFFFFFFFFFF DUP2 GT ISZERO PUSH2 0x32D7 JUMPI PUSH2 0x32D6 PUSH2 0x258B JUMP JUMPDEST JUMPDEST PUSH2 0x32E3 DUP5 DUP3 DUP6 ADD PUSH2 0x3275 JUMP JUMPDEST SWAP2 POP POP SWAP3 SWAP2 POP POP JUMP JUMPDEST PUSH32 0x4552433732313A206F776E657220717565727920666F72206E6F6E6578697374 PUSH1 0x0 DUP3 ADD MSTORE PUSH32 0x656E7420746F6B656E0000000000000000000000000000000000000000000000 PUSH1 0x20 DUP3 ADD MSTORE POP JUMP JUMPDEST PUSH1 0x0 PUSH2 0x3348 PUSH1 0x29 DUP4 PUSH2 0x2656 JUMP JUMPDEST SWAP2 POP PUSH2 0x3353 DUP3 PUSH2 0x32EC JUMP JUMPDEST PUSH1 0x40 DUP3 ADD SWAP1 POP SWAP2 SWAP1 POP JUMP JUMPDEST PUSH1 0x0 PUSH1 0x20 DUP3 ADD SWAP1 POP DUP2 DUP2 SUB PUSH1 0x0 DUP4 ADD MSTORE PUSH2 0x3377 DUP2 PUSH2 0x333B JUMP JUMPDEST SWAP1 POP SWAP2 SWAP1 POP JUMP JUMPDEST PUSH32 0x414C4C2044454C55584520484153204245454E20534F4C440000000000000000 PUSH1 0x0 DUP3 ADD MSTORE POP JUMP JUMPDEST PUSH1 0x0 PUSH2 0x33B4 PUSH1 0x18 DUP4 PUSH2 0x2656 JUMP JUMPDEST SWAP2 POP PUSH2 0x33BF DUP3 PUSH2 0x337E JUMP JUMPDEST PUSH1 0x20 DUP3 ADD SWAP1 POP SWAP2 SWAP1 POP JUMP JUMPDEST PUSH1 0x0 PUSH1 0x20 DUP3 ADD SWAP1 POP DUP2 DUP2 SUB PUSH1 0x0 DUP4 ADD MSTORE PUSH2 0x33E3 DUP2 PUSH2 0x33A7 JUMP JUMPDEST SWAP1 POP SWAP2 SWAP1 POP JUMP JUMPDEST PUSH32 0x6E6F74206F776E65720000000000000000000000000000000000000000000000 PUSH1 0x0 DUP3 ADD MSTORE POP JUMP JUMPDEST PUSH1 0x0 PUSH2 0x3420 PUSH1 0x9 DUP4 PUSH2 0x2656 JUMP JUMPDEST SWAP2 POP PUSH2 0x342B DUP3 PUSH2 0x33EA JUMP JUMPDEST PUSH1 0x20 DUP3 ADD SWAP1 POP SWAP2 SWAP1 POP JUMP JUMPDEST PUSH1 0x0 PUSH1 0x20 DUP3 ADD SWAP1 POP DUP2 DUP2 SUB PUSH1 0x0 DUP4 ADD MSTORE PUSH2 0x344F DUP2 PUSH2 0x3413 JUMP JUMPDEST SWAP1 POP SWAP2 SWAP1 POP JUMP JUMPDEST PUSH32 0x63616E74206368616E67652064657363726970746F7220616E796D6F72650000 PUSH1 0x0 DUP3 ADD MSTORE POP JUMP JUMPDEST PUSH1 0x0 PUSH2 0x348C PUSH1 0x1E DUP4 PUSH2 0x2656 JUMP JUMPDEST SWAP2 POP PUSH2 0x3497 DUP3 PUSH2 0x3456 JUMP JUMPDEST PUSH1 0x20 DUP3 ADD SWAP1 POP SWAP2 SWAP1 POP JUMP JUMPDEST PUSH1 0x0 PUSH1 0x20 DUP3 ADD SWAP1 POP DUP2 DUP2 SUB PUSH1 0x0 DUP4 ADD MSTORE PUSH2 0x34BB DUP2 PUSH2 0x347F JUMP JUMPDEST SWAP1 POP SWAP2 SWAP1 POP JUMP JUMPDEST PUSH32 0x4552433732313A2062616C616E636520717565727920666F7220746865207A65 PUSH1 0x0 DUP3 ADD MSTORE PUSH32 0x726F206164647265737300000000000000000000000000000000000000000000 PUSH1 0x20 DUP3 ADD MSTORE POP JUMP JUMPDEST PUSH1 0x0 PUSH2 0x351E PUSH1 0x2A DUP4 PUSH2 0x2656 JUMP JUMPDEST SWAP2 POP PUSH2 0x3529 DUP3 PUSH2 0x34C2 JUMP JUMPDEST PUSH1 0x40 DUP3 ADD SWAP1 POP SWAP2 SWAP1 POP JUMP JUMPDEST PUSH1 0x0 PUSH1 0x20 DUP3 ADD SWAP1 POP DUP2 DUP2 SUB PUSH1 0x0 DUP4 ADD MSTORE PUSH2 0x354D DUP2 PUSH2 0x3511 JUMP JUMPDEST SWAP1 POP SWAP2 SWAP1 POP JUMP JUMPDEST PUSH1 0x0 DUP2 SWAP1 POP SWAP2 SWAP1 POP JUMP JUMPDEST PUSH2 0x356F PUSH2 0x356A DUP3 PUSH2 0x2706 JUMP JUMPDEST PUSH2 0x3554 JUMP JUMPDEST DUP3 MSTORE POP POP JUMP JUMPDEST PUSH1 0x0 PUSH2 0x3581 DUP3 DUP6 PUSH2 0x355E JUMP JUMPDEST PUSH1 0x20 DUP3 ADD SWAP2 POP PUSH2 0x3591 DUP3 DUP5 PUSH2 0x313B JUMP JUMPDEST PUSH1 0x14 DUP3 ADD SWAP2 POP DUP2 SWAP1 POP SWAP4 SWAP3 POP POP POP JUMP JUMPDEST PUSH32 0x4552433732313A20617070726F766520746F2063616C6C657200000000000000 PUSH1 0x0 DUP3 ADD MSTORE POP JUMP JUMPDEST PUSH1 0x0 PUSH2 0x35D7 PUSH1 0x19 DUP4 PUSH2 0x2656 JUMP JUMPDEST SWAP2 POP PUSH2 0x35E2 DUP3 PUSH2 0x35A1 JUMP JUMPDEST PUSH1 0x20 DUP3 ADD SWAP1 POP SWAP2 SWAP1 POP JUMP JUMPDEST PUSH1 0x0 PUSH1 0x20 DUP3 ADD SWAP1 POP DUP2 DUP2 SUB PUSH1 0x0 DUP4 ADD MSTORE PUSH2 0x3606 DUP2 PUSH2 0x35CA JUMP JUMPDEST SWAP1 POP SWAP2 SWAP1 POP JUMP JUMPDEST PUSH32 0x4552433732314D657461646174613A2055524920717565727920666F72206E6F PUSH1 0x0 DUP3 ADD MSTORE PUSH32 0x6E6578697374656E7420746F6B656E0000000000000000000000000000000000 PUSH1 0x20 DUP3 ADD MSTORE POP JUMP JUMPDEST PUSH1 0x0 PUSH2 0x3669 PUSH1 0x2F DUP4 PUSH2 0x2656 JUMP JUMPDEST SWAP2 POP PUSH2 0x3674 DUP3 PUSH2 0x360D JUMP JUMPDEST PUSH1 0x40 DUP3 ADD SWAP1 POP SWAP2 SWAP1 POP JUMP JUMPDEST PUSH1 0x0 PUSH1 0x20 DUP3 ADD SWAP1 POP DUP2 DUP2 SUB PUSH1 0x0 DUP4 ADD MSTORE PUSH2 0x3698 DUP2 PUSH2 0x365C JUMP JUMPDEST SWAP1 POP SWAP2 SWAP1 POP JUMP JUMPDEST PUSH1 0x0 DUP2 SWAP1 POP SWAP3 SWAP2 POP POP JUMP JUMPDEST PUSH32 0x7B226E616D65223A220000000000000000000000000000000000000000000000 PUSH1 0x0 DUP3 ADD MSTORE POP JUMP JUMPDEST PUSH1 0x0 PUSH2 0x36E0 PUSH1 0x9 DUP4 PUSH2 0x369F JUMP JUMPDEST SWAP2 POP PUSH2 0x36EB DUP3 PUSH2 0x36AA JUMP JUMPDEST PUSH1 0x9 DUP3 ADD SWAP1 POP SWAP2 SWAP1 POP JUMP JUMPDEST PUSH1 0x0 PUSH2 0x3701 DUP3 PUSH2 0x264B JUMP JUMPDEST PUSH2 0x370B DUP2 DUP6 PUSH2 0x369F JUMP JUMPDEST SWAP4 POP PUSH2 0x371B DUP2 DUP6 PUSH1 0x20 DUP7 ADD PUSH2 0x2667 JUMP JUMPDEST DUP1 DUP5 ADD SWAP2 POP POP SWAP3 SWAP2 POP POP JUMP JUMPDEST PUSH32 0x222C20226465736372697074696F6E223A220000000000000000000000000000 PUSH1 0x0 DUP3 ADD MSTORE POP JUMP JUMPDEST PUSH1 0x0 PUSH2 0x375D PUSH1 0x12 DUP4 PUSH2 0x369F JUMP JUMPDEST SWAP2 POP PUSH2 0x3768 DUP3 PUSH2 0x3727 JUMP JUMPDEST PUSH1 0x12 DUP3 ADD SWAP1 POP SWAP2 SWAP1 POP JUMP JUMPDEST PUSH32 0x222C2022696D616765223A202200000000000000000000000000000000000000 PUSH1 0x0 DUP3 ADD MSTORE POP JUMP JUMPDEST PUSH1 0x0 PUSH2 0x37A9 PUSH1 0xD DUP4 PUSH2 0x369F JUMP JUMPDEST SWAP2 POP PUSH2 0x37B4 DUP3 PUSH2 0x3773 JUMP JUMPDEST PUSH1 0xD DUP3 ADD SWAP1 POP SWAP2 SWAP1 POP JUMP JUMPDEST PUSH32 0x646174613A696D6167652F7376672B786D6C3B6261736536342C000000000000 PUSH1 0x0 DUP3 ADD MSTORE POP JUMP JUMPDEST PUSH1 0x0 PUSH2 0x37F5 PUSH1 0x1A DUP4 PUSH2 0x369F JUMP JUMPDEST SWAP2 POP PUSH2 0x3800 DUP3 PUSH2 0x37BF JUMP JUMPDEST PUSH1 0x1A DUP3 ADD SWAP1 POP SWAP2 SWAP1 POP JUMP JUMPDEST PUSH32 0x222C000000000000000000000000000000000000000000000000000000000000 PUSH1 0x0 DUP3 ADD MSTORE POP JUMP JUMPDEST PUSH1 0x0 PUSH2 0x3841 PUSH1 0x2 DUP4 PUSH2 0x369F JUMP JUMPDEST SWAP2 POP PUSH2 0x384C DUP3 PUSH2 0x380B JUMP JUMPDEST PUSH1 0x2 DUP3 ADD SWAP1 POP SWAP2 SWAP1 POP JUMP JUMPDEST PUSH32 0x7D00000000000000000000000000000000000000000000000000000000000000 PUSH1 0x0 DUP3 ADD MSTORE POP JUMP JUMPDEST PUSH1 0x0 PUSH2 0x388D PUSH1 0x1 DUP4 PUSH2 0x369F JUMP JUMPDEST SWAP2 POP PUSH2 0x3898 DUP3 PUSH2 0x3857 JUMP JUMPDEST PUSH1 0x1 DUP3 ADD SWAP1 POP SWAP2 SWAP1 POP JUMP JUMPDEST PUSH1 0x0 PUSH2 0x38AE DUP3 PUSH2 0x36D3 JUMP JUMPDEST SWAP2 POP PUSH2 0x38BA DUP3 DUP8 PUSH2 0x36F6 JUMP JUMPDEST SWAP2 POP PUSH2 0x38C5 DUP3 PUSH2 0x3750 JUMP JUMPDEST SWAP2 POP PUSH2 0x38D1 DUP3 DUP7 PUSH2 0x36F6 JUMP JUMPDEST SWAP2 POP PUSH2 0x38DC DUP3 PUSH2 0x379C JUMP JUMPDEST SWAP2 POP PUSH2 0x38E7 DUP3 PUSH2 0x37E8 JUMP JUMPDEST SWAP2 POP PUSH2 0x38F3 DUP3 DUP6 PUSH2 0x36F6 JUMP JUMPDEST SWAP2 POP PUSH2 0x38FE DUP3 PUSH2 0x3834 JUMP JUMPDEST SWAP2 POP PUSH2 0x390A DUP3 DUP5 PUSH2 0x36F6 JUMP JUMPDEST SWAP2 POP PUSH2 0x3915 DUP3 PUSH2 0x3880 JUMP JUMPDEST SWAP2 POP DUP2 SWAP1 POP SWAP6 SWAP5 POP POP POP POP POP JUMP JUMPDEST PUSH32 0x646174613A6170706C69636174696F6E2F6A736F6E3B6261736536342C000000 PUSH1 0x0 DUP3 ADD MSTORE POP JUMP JUMPDEST PUSH1 0x0 PUSH2 0x3959 PUSH1 0x1D DUP4 PUSH2 0x369F JUMP JUMPDEST SWAP2 POP PUSH2 0x3964 DUP3 PUSH2 0x3923 JUMP JUMPDEST PUSH1 0x1D DUP3 ADD SWAP1 POP SWAP2 SWAP1 POP JUMP JUMPDEST PUSH1 0x0 PUSH2 0x397A DUP3 PUSH2 0x394C JUMP JUMPDEST SWAP2 POP PUSH2 0x3986 DUP3 DUP5 PUSH2 0x36F6 JUMP JUMPDEST SWAP2 POP DUP2 SWAP1 POP SWAP3 SWAP2 POP POP JUMP JUMPDEST PUSH1 0x0 DUP2 SWAP1 POP SWAP3 SWAP2 POP POP JUMP JUMPDEST POP JUMP JUMPDEST PUSH1 0x0 PUSH2 0x39AC PUSH1 0x0 DUP4 PUSH2 0x3991 JUMP JUMPDEST SWAP2 POP PUSH2 0x39B7 DUP3 PUSH2 0x399C JUMP JUMPDEST PUSH1 0x0 DUP3 ADD SWAP1 POP SWAP2 SWAP1 POP JUMP JUMPDEST PUSH1 0x0 PUSH2 0x39CD DUP3 PUSH2 0x399F JUMP JUMPDEST SWAP2 POP DUP2 SWAP1 POP SWAP2 SWAP1 POP JUMP JUMPDEST PUSH32 0x4552433732313A206D696E7420746F20746865207A65726F2061646472657373 PUSH1 0x0 DUP3 ADD MSTORE POP JUMP JUMPDEST PUSH1 0x0 PUSH2 0x3A0D PUSH1 0x20 DUP4 PUSH2 0x2656 JUMP JUMPDEST SWAP2 POP PUSH2 0x3A18 DUP3 PUSH2 0x39D7 JUMP JUMPDEST PUSH1 0x20 DUP3 ADD SWAP1 POP SWAP2 SWAP1 POP JUMP JUMPDEST PUSH1 0x0 PUSH1 0x20 DUP3 ADD SWAP1 POP DUP2 DUP2 SUB PUSH1 0x0 DUP4 ADD MSTORE PUSH2 0x3A3C DUP2 PUSH2 0x3A00 JUMP JUMPDEST SWAP1 POP SWAP2 SWAP1 POP JUMP JUMPDEST PUSH32 0x4552433732313A20746F6B656E20616C7265616479206D696E74656400000000 PUSH1 0x0 DUP3 ADD MSTORE POP JUMP JUMPDEST PUSH1 0x0 PUSH2 0x3A79 PUSH1 0x1C DUP4 PUSH2 0x2656 JUMP JUMPDEST SWAP2 POP PUSH2 0x3A84 DUP3 PUSH2 0x3A43 JUMP JUMPDEST PUSH1 0x20 DUP3 ADD SWAP1 POP SWAP2 SWAP1 POP JUMP JUMPDEST PUSH1 0x0 PUSH1 0x20 DUP3 ADD SWAP1 POP DUP2 DUP2 SUB PUSH1 0x0 DUP4 ADD MSTORE PUSH2 0x3AA8 DUP2 PUSH2 0x3A6C JUMP JUMPDEST SWAP1 POP SWAP2 SWAP1 POP JUMP JUMPDEST PUSH32 0x4E487B7100000000000000000000000000000000000000000000000000000000 PUSH1 0x0 MSTORE PUSH1 0x11 PUSH1 0x4 MSTORE PUSH1 0x24 PUSH1 0x0 REVERT JUMPDEST PUSH1 0x0 PUSH2 0x3AE9 DUP3 PUSH2 0x2706 JUMP JUMPDEST SWAP2 POP PUSH2 0x3AF4 DUP4 PUSH2 0x2706 JUMP JUMPDEST SWAP3 POP DUP3 PUSH32 0xFFFFFFFFFFFFFFFFFFFFFFFFFFFFFFFFFFFFFFFFFFFFFFFFFFFFFFFFFFFFFFFF SUB DUP3 GT ISZERO PUSH2 0x3B29 JUMPI PUSH2 0x3B28 PUSH2 0x3AAF JUMP JUMPDEST JUMPDEST DUP3 DUP3 ADD SWAP1 POP SWAP3 SWAP2 POP POP JUMP JUMPDEST PUSH32 0x4E4F545F53544152544544000000000000000000000000000000000000000000 PUSH1 0x0 DUP3 ADD MSTORE POP JUMP JUMPDEST PUSH1 0x0 PUSH2 0x3B6A PUSH1 0xB DUP4 PUSH2 0x2656 JUMP JUMPDEST SWAP2 POP PUSH2 0x3B75 DUP3 PUSH2 0x3B34 JUMP JUMPDEST PUSH1 0x20 DUP3 ADD SWAP1 POP SWAP2 SWAP1 POP JUMP JUMPDEST PUSH1 0x0 PUSH1 0x20 DUP3 ADD SWAP1 POP DUP2 DUP2 SUB PUSH1 0x0 DUP4 ADD MSTORE PUSH2 0x3B99 DUP2 PUSH2 0x3B5D JUMP JUMPDEST SWAP1 POP SWAP2 SWAP1 POP JUMP JUMPDEST PUSH32 0x454E444544000000000000000000000000000000000000000000000000000000 PUSH1 0x0 DUP3 ADD MSTORE POP JUMP JUMPDEST PUSH1 0x0 PUSH2 0x3BD6 PUSH1 0x5 DUP4 PUSH2 0x2656 JUMP JUMPDEST SWAP2 POP PUSH2 0x3BE1 DUP3 PUSH2 0x3BA0 JUMP JUMPDEST PUSH1 0x20 DUP3 ADD SWAP1 POP SWAP2 SWAP1 POP JUMP JUMPDEST PUSH1 0x0 PUSH1 0x20 DUP3 ADD SWAP1 POP DUP2 DUP2 SUB PUSH1 0x0 DUP4 ADD MSTORE PUSH2 0x3C05 DUP2 PUSH2 0x3BC9 JUMP JUMPDEST SWAP1 POP SWAP2 SWAP1 POP JUMP JUMPDEST PUSH32 0x4552433732313A206F70657261746F7220717565727920666F72206E6F6E6578 PUSH1 0x0 DUP3 ADD MSTORE PUSH32 0x697374656E7420746F6B656E0000000000000000000000000000000000000000 PUSH1 0x20 DUP3 ADD MSTORE POP JUMP JUMPDEST PUSH1 0x0 PUSH2 0x3C68 PUSH1 0x2C DUP4 PUSH2 0x2656 JUMP JUMPDEST SWAP2 POP PUSH2 0x3C73 DUP3 PUSH2 0x3C0C JUMP JUMPDEST PUSH1 0x40 DUP3 ADD SWAP1 POP SWAP2 SWAP1 POP JUMP JUMPDEST PUSH1 0x0 PUSH1 0x20 DUP3 ADD SWAP1 POP DUP2 DUP2 SUB PUSH1 0x0 DUP4 ADD MSTORE PUSH2 0x3C97 DUP2 PUSH2 0x3C5B JUMP JUMPDEST SWAP1 POP SWAP2 SWAP1 POP JUMP JUMPDEST PUSH32 0x4552433732313A207472616E73666572206F6620746F6B656E20746861742069 PUSH1 0x0 DUP3 ADD MSTORE PUSH32 0x73206E6F74206F776E0000000000000000000000000000000000000000000000 PUSH1 0x20 DUP3 ADD MSTORE POP JUMP JUMPDEST PUSH1 0x0 PUSH2 0x3CFA PUSH1 0x29 DUP4 PUSH2 0x2656 JUMP JUMPDEST SWAP2 POP PUSH2 0x3D05 DUP3 PUSH2 0x3C9E JUMP JUMPDEST PUSH1 0x40 DUP3 ADD SWAP1 POP SWAP2 SWAP1 POP JUMP JUMPDEST PUSH1 0x0 PUSH1 0x20 DUP3 ADD SWAP1 POP DUP2 DUP2 SUB PUSH1 0x0 DUP4 ADD MSTORE PUSH2 0x3D29 DUP2 PUSH2 0x3CED JUMP JUMPDEST SWAP1 POP SWAP2 SWAP1 POP JUMP JUMPDEST PUSH32 0x4552433732313A207472616E7366657220746F20746865207A65726F20616464 PUSH1 0x0 DUP3 ADD MSTORE PUSH32 0x7265737300000000000000000000000000000000000000000000000000000000 PUSH1 0x20 DUP3 ADD MSTORE POP JUMP JUMPDEST PUSH1 0x0 PUSH2 0x3D8C PUSH1 0x24 DUP4 PUSH2 0x2656 JUMP JUMPDEST SWAP2 POP PUSH2 0x3D97 DUP3 PUSH2 0x3D30 JUMP JUMPDEST PUSH1 0x40 DUP3 ADD SWAP1 POP SWAP2 SWAP1 POP JUMP JUMPDEST PUSH1 0x0 PUSH1 0x20 DUP3 ADD SWAP1 POP DUP2 DUP2 SUB PUSH1 0x0 DUP4 ADD MSTORE PUSH2 0x3DBB DUP2 PUSH2 0x3D7F JUMP JUMPDEST SWAP1 POP SWAP2 SWAP1 POP JUMP JUMPDEST PUSH1 0x0 PUSH2 0x3DCD DUP3 PUSH2 0x2706 JUMP JUMPDEST SWAP2 POP PUSH2 0x3DD8 DUP4 PUSH2 0x2706 JUMP JUMPDEST SWAP3 POP DUP3 DUP3 LT ISZERO PUSH2 0x3DEB JUMPI PUSH2 0x3DEA PUSH2 0x3AAF JUMP JUMPDEST JUMPDEST DUP3 DUP3 SUB SWAP1 POP SWAP3 SWAP2 POP POP JUMP JUMPDEST PUSH32 0x4E487B7100000000000000000000000000000000000000000000000000000000 PUSH1 0x0 MSTORE PUSH1 0x12 PUSH1 0x4 MSTORE PUSH1 0x24 PUSH1 0x0 REVERT JUMPDEST PUSH1 0x0 PUSH2 0x3E30 DUP3 PUSH2 0x2706 JUMP JUMPDEST SWAP2 POP PUSH2 0x3E3B DUP4 PUSH2 0x2706 JUMP JUMPDEST SWAP3 POP DUP3 PUSH2 0x3E4B JUMPI PUSH2 0x3E4A PUSH2 0x3DF6 JUMP JUMPDEST JUMPDEST DUP3 DUP3 DIV SWAP1 POP SWAP3 SWAP2 POP POP JUMP JUMPDEST PUSH1 0x0 PUSH2 0x3E61 DUP3 PUSH2 0x2706 JUMP JUMPDEST SWAP2 POP PUSH2 0x3E6C DUP4 PUSH2 0x2706 JUMP JUMPDEST SWAP3 POP DUP2 PUSH32 0xFFFFFFFFFFFFFFFFFFFFFFFFFFFFFFFFFFFFFFFFFFFFFFFFFFFFFFFFFFFFFFFF DIV DUP4 GT DUP3 ISZERO ISZERO AND ISZERO PUSH2 0x3EA5 JUMPI PUSH2 0x3EA4 PUSH2 0x3AAF JUMP JUMPDEST JUMPDEST DUP3 DUP3 MUL SWAP1 POP SWAP3 SWAP2 POP POP JUMP JUMPDEST PUSH32 0x4552433732313A207472616E7366657220746F206E6F6E204552433732315265 PUSH1 0x0 DUP3 ADD MSTORE PUSH32 0x63656976657220696D706C656D656E7465720000000000000000000000000000 PUSH1 0x20 DUP3 ADD MSTORE POP JUMP JUMPDEST PUSH1 0x0 PUSH2 0x3F0C PUSH1 0x32 DUP4 PUSH2 0x2656 JUMP JUMPDEST SWAP2 POP PUSH2 0x3F17 DUP3 PUSH2 0x3EB0 JUMP JUMPDEST PUSH1 0x40 DUP3 ADD SWAP1 POP SWAP2 SWAP1 POP JUMP JUMPDEST PUSH1 0x0 PUSH1 0x20 DUP3 ADD SWAP1 POP DUP2 DUP2 SUB PUSH1 0x0 DUP4 ADD MSTORE PUSH2 0x3F3B DUP2 PUSH2 0x3EFF JUMP JUMPDEST SWAP1 POP SWAP2 SWAP1 POP JUMP JUMPDEST PUSH32 0x4E487B7100000000000000000000000000000000000000000000000000000000 PUSH1 0x0 MSTORE PUSH1 0x32 PUSH1 0x4 MSTORE PUSH1 0x24 PUSH1 0x0 REVERT JUMPDEST PUSH1 0x0 DUP2 SWAP1 POP SWAP2 SWAP1 POP JUMP JUMPDEST PUSH2 0x3F8C PUSH2 0x3F87 DUP3 PUSH2 0x2A29 JUMP JUMPDEST PUSH2 0x3F71 JUMP JUMPDEST DUP3 MSTORE POP POP JUMP JUMPDEST PUSH1 0x0 PUSH2 0x3F9E DUP3 DUP6 PUSH2 0x3F7B JUMP JUMPDEST PUSH1 0x20 DUP3 ADD SWAP2 POP PUSH2 0x3FAE DUP3 DUP5 PUSH2 0x3F7B JUMP JUMPDEST PUSH1 0x20 DUP3 ADD SWAP2 POP DUP2 SWAP1 POP SWAP4 SWAP3 POP POP POP JUMP JUMPDEST PUSH1 0x0 PUSH2 0x3FC9 DUP3 PUSH2 0x2706 JUMP JUMPDEST SWAP2 POP PUSH32 0xFFFFFFFFFFFFFFFFFFFFFFFFFFFFFFFFFFFFFFFFFFFFFFFFFFFFFFFFFFFFFFFF DUP3 EQ ISZERO PUSH2 0x3FFC JUMPI PUSH2 0x3FFB PUSH2 0x3AAF JUMP JUMPDEST JUMPDEST PUSH1 0x1 DUP3 ADD SWAP1 POP SWAP2 SWAP1 POP JUMP JUMPDEST PUSH1 0x0 DUP2 MLOAD SWAP1 POP SWAP2 SWAP1 POP JUMP JUMPDEST PUSH1 0x0 DUP3 DUP3 MSTORE PUSH1 0x20 DUP3 ADD SWAP1 POP SWAP3 SWAP2 POP POP JUMP JUMPDEST PUSH1 0x0 PUSH2 0x402E DUP3 PUSH2 0x4007 JUMP JUMPDEST PUSH2 0x4038 DUP2 DUP6 PUSH2 0x4012 JUMP JUMPDEST SWAP4 POP PUSH2 0x4048 DUP2 DUP6 PUSH1 0x20 DUP7 ADD PUSH2 0x2667 JUMP JUMPDEST PUSH2 0x4051 DUP2 PUSH2 0x269A JUMP JUMPDEST DUP5 ADD SWAP2 POP POP SWAP3 SWAP2 POP POP JUMP JUMPDEST PUSH1 0x0 PUSH1 0x80 DUP3 ADD SWAP1 POP PUSH2 0x4071 PUSH1 0x0 DUP4 ADD DUP8 PUSH2 0x279B JUMP JUMPDEST PUSH2 0x407E PUSH1 0x20 DUP4 ADD DUP7 PUSH2 0x279B JUMP JUMPDEST PUSH2 0x408B PUSH1 0x40 DUP4 ADD DUP6 PUSH2 0x2831 JUMP JUMPDEST DUP2 DUP2 SUB PUSH1 0x60 DUP4 ADD MSTORE PUSH2 0x409D DUP2 DUP5 PUSH2 0x4023 JUMP JUMPDEST SWAP1 POP SWAP6 SWAP5 POP POP POP POP POP JUMP JUMPDEST PUSH1 0x0 DUP2 MLOAD SWAP1 POP PUSH2 0x40B7 DUP2 PUSH2 0x25BC JUMP JUMPDEST SWAP3 SWAP2 POP POP JUMP JUMPDEST PUSH1 0x0 PUSH1 0x20 DUP3 DUP5 SUB SLT ISZERO PUSH2 0x40D3 JUMPI PUSH2 0x40D2 PUSH2 0x2586 JUMP JUMPDEST JUMPDEST PUSH1 0x0 PUSH2 0x40E1 DUP5 DUP3 DUP6 ADD PUSH2 0x40A8 JUMP JUMPDEST SWAP2 POP POP SWAP3 SWAP2 POP POP JUMP INVALID COINBASE TIMESTAMP NUMBER DIFFICULTY GASLIMIT CHAINID SELFBALANCE BASEFEE 0x49 0x4A 0x4B 0x4C 0x4D 0x4E 0x4F POP MLOAD MSTORE MSTORE8 SLOAD SSTORE JUMP JUMPI PC MSIZE GAS PUSH2 0x6263 PUSH5 0x6566676869 PUSH11 0x6B6C6D6E6F707172737475 PUSH23 0x7778797A303132333435363738392B2F43617073756C65 PUSH20 0x20636F6E7461696E696E672076697375616C697A PUSH2 0x7469 PUSH16 0x6E73206F6620616C6C20746865206C69 PUSH23 0x6573206C697665642062792073696D756C61746564206D PUSH10 0x6E647320696E20746865 KECCAK256 PUSH20 0x63686F6F6C206F6620756E6C6561726E696E672E LOG2 PUSH5 0x6970667358 0x22 SLT KECCAK256 DUP16 AND 0xC1 0xE7 0xAE DIV SLOAD 0xF6 BYTE SWAP9 0xE1 PUSH11 0x62D950F4048D87C23F19B3 0x2F MULMOD 0xCA 0x4A BLOCKHASH MSTORE MSTORE LOG0 0x4B PUSH5 0x736F6C6343 STOP ADDMOD 0xC STOP CALLER PUSH1 0x80 PUSH1 0x40 MSTORE CALLVALUE DUP1 ISZERO PUSH2 0x10 JUMPI PUSH1 0x0 DUP1 REVERT JUMPDEST POP PUSH2 0x3362 DUP1 PUSH2 0x20 PUSH1 0x0 CODECOPY PUSH1 0x0 RETURN INVALID PUSH1 0x80 PUSH1 0x40 MSTORE CALLVALUE DUP1 ISZERO PUSH2 0x10 JUMPI PUSH1 0x0 DUP1 REVERT JUMPDEST POP PUSH1 0x4 CALLDATASIZE LT PUSH2 0x62 JUMPI PUSH1 0x0 CALLDATALOAD PUSH1 0xE0 SHR DUP1 PUSH4 0x192A0A1F EQ PUSH2 0x67 JUMPI DUP1 PUSH4 0x2581D8B3 EQ PUSH2 0x97 JUMPI DUP1 PUSH4 0x37EE03EC EQ PUSH2 0xC7 JUMPI DUP1 PUSH4 0x54353F2F EQ PUSH2 0xF7 JUMPI DUP1 PUSH4 0x594BF5AD EQ PUSH2 0x115 JUMPI DUP1 PUSH4 0xEFFAAF6A EQ PUSH2 0x145 JUMPI JUMPDEST PUSH1 0x0 DUP1 REVERT JUMPDEST PUSH2 0x81 PUSH1 0x4 DUP1 CALLDATASIZE SUB DUP2 ADD SWAP1 PUSH2 0x7C SWAP2 SWAP1 PUSH2 0x15BF JUMP JUMPDEST PUSH2 0x175 JUMP JUMPDEST PUSH1 0x40 MLOAD PUSH2 0x8E SWAP2 SWAP1 PUSH2 0x1685 JUMP JUMPDEST PUSH1 0x40 MLOAD DUP1 SWAP2 SUB SWAP1 RETURN JUMPDEST PUSH2 0xB1 PUSH1 0x4 DUP1 CALLDATASIZE SUB DUP2 ADD SWAP1 PUSH2 0xAC SWAP2 SWAP1 PUSH2 0x1814 JUMP JUMPDEST PUSH2 0x1B2 JUMP JUMPDEST PUSH1 0x40 MLOAD PUSH2 0xBE SWAP2 SWAP1 PUSH2 0x1685 JUMP JUMPDEST PUSH1 0x40 MLOAD DUP1 SWAP2 SUB SWAP1 RETURN JUMPDEST PUSH2 0xE1 PUSH1 0x4 DUP1 CALLDATASIZE SUB DUP2 ADD SWAP1 PUSH2 0xDC SWAP2 SWAP1 PUSH2 0x1870 JUMP JUMPDEST PUSH2 0x34F JUMP JUMPDEST PUSH1 0x40 MLOAD PUSH2 0xEE SWAP2 SWAP1 PUSH2 0x1685 JUMP JUMPDEST PUSH1 0x40 MLOAD DUP1 SWAP2 SUB SWAP1 RETURN JUMPDEST PUSH2 0xFF PUSH2 0x4FF JUMP JUMPDEST PUSH1 0x40 MLOAD PUSH2 0x10C SWAP2 SWAP1 PUSH2 0x1685 JUMP JUMPDEST PUSH1 0x40 MLOAD DUP1 SWAP2 SUB SWAP1 RETURN JUMPDEST PUSH2 0x12F PUSH1 0x4 DUP1 CALLDATASIZE SUB DUP2 ADD SWAP1 PUSH2 0x12A SWAP2 SWAP1 PUSH2 0x1A25 JUMP JUMPDEST PUSH2 0x540 JUMP JUMPDEST PUSH1 0x40 MLOAD PUSH2 0x13C SWAP2 SWAP1 PUSH2 0x1685 JUMP JUMPDEST PUSH1 0x40 MLOAD DUP1 SWAP2 SUB SWAP1 RETURN JUMPDEST PUSH2 0x15F PUSH1 0x4 DUP1 CALLDATASIZE SUB DUP2 ADD SWAP1 PUSH2 0x15A SWAP2 SWAP1 PUSH2 0x1870 JUMP JUMPDEST PUSH2 0x5ED JUMP JUMPDEST PUSH1 0x40 MLOAD PUSH2 0x16C SWAP2 SWAP1 PUSH2 0x1685 JUMP JUMPDEST PUSH1 0x40 MLOAD DUP1 SWAP2 SUB SWAP1 RETURN JUMPDEST PUSH1 0x60 PUSH2 0x18C PUSH2 0x183 DUP4 PUSH2 0x601 JUMP JUMPDEST PUSH1 0x0 PUSH1 0x8 PUSH2 0x78A JUMP JUMPDEST PUSH1 0x40 MLOAD PUSH1 0x20 ADD PUSH2 0x19C SWAP2 SWAP1 PUSH2 0x1B54 JUMP JUMPDEST PUSH1 0x40 MLOAD PUSH1 0x20 DUP2 DUP4 SUB SUB DUP2 MSTORE SWAP1 PUSH1 0x40 MSTORE SWAP1 POP SWAP2 SWAP1 POP JUMP JUMPDEST PUSH1 0x60 DUP1 PUSH1 0x0 JUMPDEST PUSH1 0x14 DUP2 LT ISZERO PUSH2 0x344 JUMPI PUSH1 0x0 PUSH2 0x1CD DUP7 DUP4 PUSH2 0x886 JUMP JUMPDEST SWAP1 POP PUSH1 0x0 PUSH2 0x1E7 DUP8 PUSH1 0x1 DUP6 PUSH2 0x1E2 SWAP2 SWAP1 PUSH2 0x1BA5 JUMP JUMPDEST PUSH2 0x8A9 JUMP JUMPDEST SWAP1 POP PUSH1 0x12 DUP4 EQ ISZERO PUSH2 0x219 JUMPI DUP4 PUSH1 0x40 MLOAD PUSH1 0x20 ADD PUSH2 0x203 SWAP2 SWAP1 PUSH2 0x1C21 JUMP JUMPDEST PUSH1 0x40 MLOAD PUSH1 0x20 DUP2 DUP4 SUB SUB DUP2 MSTORE SWAP1 PUSH1 0x40 MSTORE SWAP4 POP PUSH2 0x32E JUMP JUMPDEST PUSH1 0x13 DUP4 EQ ISZERO PUSH2 0x249 JUMPI DUP4 PUSH1 0x40 MLOAD PUSH1 0x20 ADD PUSH2 0x233 SWAP2 SWAP1 PUSH2 0x1C6D JUMP JUMPDEST PUSH1 0x40 MLOAD PUSH1 0x20 DUP2 DUP4 SUB SUB DUP2 MSTORE SWAP1 PUSH1 0x40 MSTORE SWAP4 POP PUSH2 0x32D JUMP JUMPDEST PUSH1 0x4 DUP4 EQ DUP1 PUSH2 0x258 JUMPI POP PUSH1 0x9 DUP4 EQ JUMPDEST DUP1 PUSH2 0x263 JUMPI POP PUSH1 0xE DUP4 EQ JUMPDEST ISZERO PUSH2 0x2C4 JUMPI PUSH1 0x1 ISZERO ISZERO DUP7 ISZERO ISZERO EQ ISZERO PUSH2 0x29C JUMPI DUP4 PUSH1 0x40 MLOAD PUSH1 0x20 ADD PUSH2 0x286 SWAP2 SWAP1 PUSH2 0x1C21 JUMP JUMPDEST PUSH1 0x40 MLOAD PUSH1 0x20 DUP2 DUP4 SUB SUB DUP2 MSTORE SWAP1 PUSH1 0x40 MSTORE SWAP4 POP PUSH2 0x2BF JUMP JUMPDEST DUP4 PUSH1 0x40 MLOAD PUSH1 0x20 ADD PUSH2 0x2AD SWAP2 SWAP1 PUSH2 0x1C6D JUMP JUMPDEST PUSH1 0x40 MLOAD PUSH1 0x20 DUP2 DUP4 SUB SUB DUP2 MSTORE SWAP1 PUSH1 0x40 MSTORE SWAP4 POP JUMPDEST PUSH2 0x32C JUMP JUMPDEST PUSH1 0x80 DUP2 LT ISZERO PUSH2 0x2FE JUMPI DUP4 PUSH2 0x2D7 DUP4 PUSH2 0x601 JUMP JUMPDEST PUSH1 0x40 MLOAD PUSH1 0x20 ADD PUSH2 0x2E8 SWAP3 SWAP2 SWAP1 PUSH2 0x1CB9 JUMP JUMPDEST PUSH1 0x40 MLOAD PUSH1 0x20 DUP2 DUP4 SUB SUB DUP2 MSTORE SWAP1 PUSH1 0x40 MSTORE SWAP4 POP PUSH2 0x32B JUMP JUMPDEST DUP4 PUSH2 0x308 DUP4 PUSH2 0x601 JUMP JUMPDEST PUSH1 0x40 MLOAD PUSH1 0x20 ADD PUSH2 0x319 SWAP3 SWAP2 SWAP1 PUSH2 0x1D12 JUMP JUMPDEST PUSH1 0x40 MLOAD PUSH1 0x20 DUP2 DUP4 SUB SUB DUP2 MSTORE SWAP1 PUSH1 0x40 MSTORE SWAP4 POP JUMPDEST JUMPDEST JUMPDEST JUMPDEST POP POP PUSH1 0x1 DUP2 PUSH2 0x33D SWAP2 SWAP1 PUSH2 0x1BA5 JUMP JUMPDEST SWAP1 POP PUSH2 0x1B8 JUMP JUMPDEST POP DUP1 SWAP2 POP POP SWAP3 SWAP2 POP POP JUMP JUMPDEST PUSH1 0x60 PUSH1 0x0 DUP4 PUSH1 0x0 SHL PUSH1 0x40 MLOAD PUSH1 0x20 ADD PUSH2 0x367 SWAP2 SWAP1 PUSH2 0x1D7F JUMP JUMPDEST PUSH1 0x40 MLOAD PUSH1 0x20 DUP2 DUP4 SUB SUB DUP2 MSTORE SWAP1 PUSH1 0x40 MSTORE SWAP1 POP PUSH1 0x60 PUSH1 0x1 ISZERO ISZERO DUP5 ISZERO ISZERO EQ ISZERO PUSH2 0x402 JUMPI PUSH2 0x3FB PUSH1 0x40 MLOAD DUP1 PUSH1 0x40 ADD PUSH1 0x40 MSTORE DUP1 PUSH1 0x8 DUP2 MSTORE PUSH1 0x20 ADD PUSH32 0x416E696D61746564000000000000000000000000000000000000000000000000 DUP2 MSTORE POP PUSH1 0x40 MLOAD DUP1 PUSH1 0x40 ADD PUSH1 0x40 MSTORE DUP1 PUSH1 0x4 DUP2 MSTORE PUSH1 0x20 ADD PUSH32 0x5472756500000000000000000000000000000000000000000000000000000000 DUP2 MSTORE POP PUSH2 0x8C0 JUMP JUMPDEST SWAP1 POP PUSH2 0x479 JUMP JUMPDEST PUSH2 0x476 PUSH1 0x40 MLOAD DUP1 PUSH1 0x40 ADD PUSH1 0x40 MSTORE DUP1 PUSH1 0x8 DUP2 MSTORE PUSH1 0x20 ADD PUSH32 0x416E696D61746564000000000000000000000000000000000000000000000000 DUP2 MSTORE POP PUSH1 0x40 MLOAD DUP1 PUSH1 0x40 ADD PUSH1 0x40 MSTORE DUP1 PUSH1 0x5 DUP2 MSTORE PUSH1 0x20 ADD PUSH32 0x46616C7365000000000000000000000000000000000000000000000000000000 DUP2 MSTORE POP PUSH2 0x8C0 JUMP JUMPDEST SWAP1 POP JUMPDEST PUSH1 0x0 PUSH2 0x484 DUP4 PUSH2 0x8EC JUMP JUMPDEST SWAP1 POP PUSH1 0x0 PUSH2 0x4CF PUSH1 0x40 MLOAD DUP1 PUSH1 0x40 ADD PUSH1 0x40 MSTORE DUP1 PUSH1 0xB DUP2 MSTORE PUSH1 0x20 ADD PUSH32 0x506574616C20436F756E74000000000000000000000000000000000000000000 DUP2 MSTORE POP PUSH2 0x4CA DUP5 PUSH2 0x601 JUMP JUMPDEST PUSH2 0x8C0 JUMP JUMPDEST SWAP1 POP DUP3 DUP2 PUSH1 0x40 MLOAD PUSH1 0x20 ADD PUSH2 0x4E4 SWAP3 SWAP2 SWAP1 PUSH2 0x1E7E JUMP JUMPDEST PUSH1 0x40 MLOAD PUSH1 0x20 DUP2 DUP4 SUB SUB DUP2 MSTORE SWAP1 PUSH1 0x40 MSTORE SWAP5 POP POP POP POP POP SWAP3 SWAP2 POP POP JUMP JUMPDEST PUSH1 0x60 PUSH1 0x0 GAS PUSH1 0x40 MLOAD PUSH1 0x20 ADD PUSH2 0x514 SWAP2 SWAP1 PUSH2 0x1EE4 JUMP JUMPDEST PUSH1 0x40 MLOAD PUSH1 0x20 DUP2 DUP4 SUB SUB DUP2 MSTORE SWAP1 PUSH1 0x40 MSTORE DUP1 MLOAD SWAP1 PUSH1 0x20 ADD KECCAK256 PUSH1 0x0 SHR SWAP1 POP PUSH2 0x53A DUP2 PUSH1 0x1 PUSH2 0x974 JUMP JUMPDEST SWAP2 POP POP SWAP1 JUMP JUMPDEST PUSH1 0x60 PUSH1 0x0 PUSH2 0x555 PUSH2 0x550 DUP7 PUSH2 0xA3B JUMP JUMPDEST PUSH2 0x601 JUMP JUMPDEST SWAP1 POP PUSH1 0x0 PUSH2 0x562 DUP7 PUSH2 0xA78 JUMP JUMPDEST SWAP1 POP PUSH1 0x0 PUSH2 0x577 PUSH2 0x572 DUP9 PUSH2 0xAA8 JUMP JUMPDEST PUSH2 0x601 JUMP JUMPDEST SWAP1 POP PUSH1 0x0 PUSH2 0x584 DUP9 PUSH2 0xAE5 JUMP JUMPDEST SWAP1 POP PUSH1 0x0 DUP8 DUP5 PUSH1 0x3 DUP2 LT PUSH2 0x59B JUMPI PUSH2 0x59A PUSH2 0x1EFF JUMP JUMPDEST JUMPDEST PUSH1 0x20 MUL ADD MLOAD DUP6 DUP9 DUP5 PUSH1 0x3 DUP2 LT PUSH2 0x5B4 JUMPI PUSH2 0x5B3 PUSH2 0x1EFF JUMP JUMPDEST JUMPDEST PUSH1 0x20 MUL ADD MLOAD DUP6 PUSH1 0x40 MLOAD PUSH1 0x20 ADD PUSH2 0x5CD SWAP5 SWAP4 SWAP3 SWAP2 SWAP1 PUSH2 0x1F2E JUMP JUMPDEST PUSH1 0x40 MLOAD PUSH1 0x20 DUP2 DUP4 SUB SUB DUP2 MSTORE SWAP1 PUSH1 0x40 MSTORE SWAP1 POP DUP1 SWAP6 POP POP POP POP POP POP SWAP4 SWAP3 POP POP POP JUMP JUMPDEST PUSH1 0x60 PUSH2 0x5F9 DUP4 DUP4 PUSH2 0x974 JUMP JUMPDEST SWAP1 POP SWAP3 SWAP2 POP POP JUMP JUMPDEST PUSH1 0x60 PUSH1 0x0 DUP3 EQ ISZERO PUSH2 0x649 JUMPI PUSH1 0x40 MLOAD DUP1 PUSH1 0x40 ADD PUSH1 0x40 MSTORE DUP1 PUSH1 0x1 DUP2 MSTORE PUSH1 0x20 ADD PUSH32 0x3000000000000000000000000000000000000000000000000000000000000000 DUP2 MSTORE POP SWAP1 POP PUSH2 0x785 JUMP JUMPDEST PUSH1 0x0 DUP3 SWAP1 POP PUSH1 0x0 JUMPDEST PUSH1 0x0 DUP3 EQ PUSH2 0x67B JUMPI DUP1 DUP1 PUSH2 0x664 SWAP1 PUSH2 0x1F7B JUMP JUMPDEST SWAP2 POP POP PUSH1 0xA DUP3 PUSH2 0x674 SWAP2 SWAP1 PUSH2 0x1FF3 JUMP JUMPDEST SWAP2 POP PUSH2 0x651 JUMP JUMPDEST PUSH1 0x0 DUP2 PUSH8 0xFFFFFFFFFFFFFFFF DUP2 GT ISZERO PUSH2 0x697 JUMPI PUSH2 0x696 PUSH2 0x16B1 JUMP JUMPDEST JUMPDEST PUSH1 0x40 MLOAD SWAP1 DUP1 DUP3 MSTORE DUP1 PUSH1 0x1F ADD PUSH1 0x1F NOT AND PUSH1 0x20 ADD DUP3 ADD PUSH1 0x40 MSTORE DUP1 ISZERO PUSH2 0x6C9 JUMPI DUP2 PUSH1 0x20 ADD PUSH1 0x1 DUP3 MUL DUP1 CALLDATASIZE DUP4 CALLDATACOPY DUP1 DUP3 ADD SWAP2 POP POP SWAP1 POP JUMPDEST POP SWAP1 POP PUSH1 0x0 DUP3 SWAP1 POP JUMPDEST PUSH1 0x0 DUP7 EQ PUSH2 0x77D JUMPI PUSH1 0x1 DUP2 PUSH2 0x6E7 SWAP2 SWAP1 PUSH2 0x2024 JUMP JUMPDEST SWAP1 POP PUSH1 0x0 PUSH1 0xA DUP1 DUP9 PUSH2 0x6F9 SWAP2 SWAP1 PUSH2 0x1FF3 JUMP JUMPDEST PUSH2 0x703 SWAP2 SWAP1 PUSH2 0x2058 JUMP JUMPDEST DUP8 PUSH2 0x70E SWAP2 SWAP1 PUSH2 0x2024 JUMP JUMPDEST PUSH1 0x30 PUSH2 0x71A SWAP2 SWAP1 PUSH2 0x20BF JUMP JUMPDEST SWAP1 POP PUSH1 0x0 DUP2 PUSH1 0xF8 SHL SWAP1 POP DUP1 DUP5 DUP5 DUP2 MLOAD DUP2 LT PUSH2 0x738 JUMPI PUSH2 0x737 PUSH2 0x1EFF JUMP JUMPDEST JUMPDEST PUSH1 0x20 ADD ADD SWAP1 PUSH31 0xFFFFFFFFFFFFFFFFFFFFFFFFFFFFFFFFFFFFFFFFFFFFFFFFFFFFFFFFFFFFFF NOT AND SWAP1 DUP2 PUSH1 0x0 BYTE SWAP1 MSTORE8 POP PUSH1 0xA DUP9 PUSH2 0x774 SWAP2 SWAP1 PUSH2 0x1FF3 JUMP JUMPDEST SWAP8 POP POP POP PUSH2 0x6D2 JUMP JUMPDEST DUP2 SWAP5 POP POP POP POP POP JUMPDEST SWAP2 SWAP1 POP JUMP JUMPDEST PUSH1 0x60 PUSH1 0x0 DUP5 SWAP1 POP PUSH1 0x0 DUP5 DUP5 PUSH2 0x79F SWAP2 SWAP1 PUSH2 0x2024 JUMP JUMPDEST PUSH8 0xFFFFFFFFFFFFFFFF DUP2 GT ISZERO PUSH2 0x7B8 JUMPI PUSH2 0x7B7 PUSH2 0x16B1 JUMP JUMPDEST JUMPDEST PUSH1 0x40 MLOAD SWAP1 DUP1 DUP3 MSTORE DUP1 PUSH1 0x1F ADD PUSH1 0x1F NOT AND PUSH1 0x20 ADD DUP3 ADD PUSH1 0x40 MSTORE DUP1 ISZERO PUSH2 0x7EA JUMPI DUP2 PUSH1 0x20 ADD PUSH1 0x1 DUP3 MUL DUP1 CALLDATASIZE DUP4 CALLDATACOPY DUP1 DUP3 ADD SWAP2 POP POP SWAP1 POP JUMPDEST POP SWAP1 POP PUSH1 0x0 DUP6 SWAP1 POP JUMPDEST DUP5 DUP2 LT ISZERO PUSH2 0x879 JUMPI DUP3 DUP2 DUP2 MLOAD DUP2 LT PUSH2 0x80E JUMPI PUSH2 0x80D PUSH2 0x1EFF JUMP JUMPDEST JUMPDEST PUSH1 0x20 ADD ADD MLOAD PUSH1 0xF8 SHR PUSH1 0xF8 SHL DUP3 DUP8 DUP4 PUSH2 0x826 SWAP2 SWAP1 PUSH2 0x2024 JUMP JUMPDEST DUP2 MLOAD DUP2 LT PUSH2 0x837 JUMPI PUSH2 0x836 PUSH2 0x1EFF JUMP JUMPDEST JUMPDEST PUSH1 0x20 ADD ADD SWAP1 PUSH31 0xFFFFFFFFFFFFFFFFFFFFFFFFFFFFFFFFFFFFFFFFFFFFFFFFFFFFFFFFFFFFFF NOT AND SWAP1 DUP2 PUSH1 0x0 BYTE SWAP1 MSTORE8 POP DUP1 DUP1 PUSH2 0x871 SWAP1 PUSH2 0x1F7B JUMP JUMPDEST SWAP2 POP POP PUSH2 0x7F3 JUMP JUMPDEST POP DUP1 SWAP3 POP POP POP SWAP4 SWAP3 POP POP POP JUMP JUMPDEST PUSH1 0x0 PUSH1 0x4 PUSH2 0x894 DUP5 DUP5 PUSH2 0xB15 JUMP JUMPDEST PUSH1 0xFF AND PUSH2 0x8A1 SWAP2 SWAP1 PUSH2 0x1FF3 JUMP JUMPDEST SWAP1 POP SWAP3 SWAP2 POP POP JUMP JUMPDEST PUSH1 0x0 PUSH2 0x8B5 DUP4 DUP4 PUSH2 0xB15 JUMP JUMPDEST PUSH1 0xFF AND SWAP1 POP SWAP3 SWAP2 POP POP JUMP JUMPDEST PUSH1 0x60 DUP3 DUP3 PUSH1 0x40 MLOAD PUSH1 0x20 ADD PUSH2 0x8D5 SWAP3 SWAP2 SWAP1 PUSH2 0x2168 JUMP JUMPDEST PUSH1 0x40 MLOAD PUSH1 0x20 DUP2 DUP4 SUB SUB DUP2 MSTORE SWAP1 PUSH1 0x40 MSTORE SWAP1 POP SWAP3 SWAP2 POP POP JUMP JUMPDEST PUSH1 0x0 DUP1 PUSH1 0x40 MLOAD DUP1 PUSH1 0xA0 ADD PUSH1 0x40 MSTORE DUP1 PUSH1 0x8 PUSH1 0xFF AND DUP2 MSTORE PUSH1 0x20 ADD PUSH1 0xC PUSH1 0xFF AND DUP2 MSTORE PUSH1 0x20 ADD PUSH1 0x14 PUSH1 0xFF AND DUP2 MSTORE PUSH1 0x20 ADD PUSH1 0x18 PUSH1 0xFF AND DUP2 MSTORE PUSH1 0x20 ADD PUSH1 0x24 PUSH1 0xFF AND DUP2 MSTORE POP SWAP1 POP PUSH1 0x0 PUSH1 0x34 PUSH2 0x93B DUP6 PUSH1 0x0 PUSH2 0xB15 JUMP JUMPDEST PUSH2 0x945 SWAP2 SWAP1 PUSH2 0x21B9 JUMP JUMPDEST PUSH1 0xFF AND SWAP1 POP PUSH1 0x0 DUP3 DUP3 PUSH1 0x5 DUP2 LT PUSH2 0x95F JUMPI PUSH2 0x95E PUSH2 0x1EFF JUMP JUMPDEST JUMPDEST PUSH1 0x20 MUL ADD MLOAD PUSH1 0xFF AND SWAP1 POP DUP1 SWAP4 POP POP POP POP SWAP2 SWAP1 POP JUMP JUMPDEST PUSH1 0x60 PUSH1 0x0 DUP4 PUSH1 0x0 SHL PUSH1 0x40 MLOAD PUSH1 0x20 ADD PUSH2 0x98C SWAP2 SWAP1 PUSH2 0x1D7F JUMP JUMPDEST PUSH1 0x40 MLOAD PUSH1 0x20 DUP2 DUP4 SUB SUB DUP2 MSTORE SWAP1 PUSH1 0x40 MSTORE SWAP1 POP PUSH1 0x0 PUSH2 0x9A8 DUP3 PUSH2 0x8EC JUMP JUMPDEST SWAP1 POP PUSH1 0x0 DUP2 PUSH2 0x168 PUSH2 0x9BA SWAP2 SWAP1 PUSH2 0x1FF3 JUMP JUMPDEST SWAP1 POP PUSH1 0x0 PUSH1 0x40 MLOAD DUP1 PUSH1 0x20 ADD PUSH1 0x40 MSTORE DUP1 PUSH1 0x0 DUP2 MSTORE POP SWAP1 POP PUSH1 0x1 ISZERO ISZERO DUP7 ISZERO ISZERO EQ ISZERO PUSH2 0x9F9 JUMPI PUSH1 0x40 MLOAD DUP1 PUSH1 0xE0 ADD PUSH1 0x40 MSTORE DUP1 PUSH1 0xAF DUP2 MSTORE PUSH1 0x20 ADD PUSH2 0x327E PUSH1 0xAF SWAP2 CODECOPY SWAP1 POP JUMPDEST DUP1 PUSH2 0xA03 DUP6 PUSH2 0xBCB JUMP JUMPDEST PUSH2 0xA0E DUP7 DUP7 DUP7 PUSH2 0xC46 JUMP JUMPDEST PUSH1 0x40 MLOAD PUSH1 0x20 ADD PUSH2 0xA20 SWAP4 SWAP3 SWAP2 SWAP1 PUSH2 0x2470 JUMP JUMPDEST PUSH1 0x40 MLOAD PUSH1 0x20 DUP2 DUP4 SUB SUB DUP2 MSTORE SWAP1 PUSH1 0x40 MSTORE SWAP5 POP POP POP POP POP SWAP3 SWAP2 POP POP JUMP JUMPDEST PUSH1 0x0 PUSH2 0x100 PUSH2 0x3E8 PUSH2 0xA4E DUP5 PUSH1 0x5 PUSH2 0xB15 JUMP JUMPDEST PUSH1 0xFF AND PUSH2 0xA5B SWAP2 SWAP1 PUSH2 0x2058 JUMP JUMPDEST PUSH2 0xA65 SWAP2 SWAP1 PUSH2 0x1FF3 JUMP JUMPDEST PUSH1 0x1 PUSH2 0xA71 SWAP2 SWAP1 PUSH2 0x1BA5 JUMP JUMPDEST SWAP1 POP SWAP2 SWAP1 POP JUMP JUMPDEST PUSH1 0x0 PUSH2 0x100 PUSH1 0x3 PUSH2 0xA8A DUP5 PUSH1 0x7 PUSH2 0xB15 JUMP JUMPDEST PUSH1 0xFF AND PUSH2 0xA97 SWAP2 SWAP1 PUSH2 0x2058 JUMP JUMPDEST PUSH2 0xAA1 SWAP2 SWAP1 PUSH2 0x1FF3 JUMP JUMPDEST SWAP1 POP SWAP2 SWAP1 POP JUMP JUMPDEST PUSH1 0x0 PUSH2 0x100 PUSH2 0x3E8 PUSH2 0xABB DUP5 PUSH1 0x6 PUSH2 0xB15 JUMP JUMPDEST PUSH1 0xFF AND PUSH2 0xAC8 SWAP2 SWAP1 PUSH2 0x2058 JUMP JUMPDEST PUSH2 0xAD2 SWAP2 SWAP1 PUSH2 0x1FF3 JUMP JUMPDEST PUSH1 0x1 PUSH2 0xADE SWAP2 SWAP1 PUSH2 0x1BA5 JUMP JUMPDEST SWAP1 POP SWAP2 SWAP1 POP JUMP JUMPDEST PUSH1 0x0 PUSH2 0x100 PUSH1 0x3 PUSH2 0xAF7 DUP5 PUSH1 0x8 PUSH2 0xB15 JUMP JUMPDEST PUSH1 0xFF AND PUSH2 0xB04 SWAP2 SWAP1 PUSH2 0x2058 JUMP JUMPDEST PUSH2 0xB0E SWAP2 SWAP1 PUSH2 0x1FF3 JUMP JUMPDEST SWAP1 POP SWAP2 SWAP1 POP JUMP JUMPDEST PUSH1 0x0 DUP2 PUSH1 0x1 DUP4 PUSH2 0xB25 SWAP2 SWAP1 PUSH2 0x1BA5 JUMP JUMPDEST LT ISZERO PUSH2 0xB66 JUMPI PUSH1 0x40 MLOAD PUSH32 0x8C379A000000000000000000000000000000000000000000000000000000000 DUP2 MSTORE PUSH1 0x4 ADD PUSH2 0xB5D SWAP1 PUSH2 0x253B JUMP JUMPDEST PUSH1 0x40 MLOAD DUP1 SWAP2 SUB SWAP1 REVERT JUMPDEST PUSH1 0x1 DUP3 PUSH2 0xB73 SWAP2 SWAP1 PUSH2 0x1BA5 JUMP JUMPDEST DUP4 MLOAD LT ISZERO PUSH2 0xBB6 JUMPI PUSH1 0x40 MLOAD PUSH32 0x8C379A000000000000000000000000000000000000000000000000000000000 DUP2 MSTORE PUSH1 0x4 ADD PUSH2 0xBAD SWAP1 PUSH2 0x25A7 JUMP JUMPDEST PUSH1 0x40 MLOAD DUP1 SWAP2 SUB SWAP1 REVERT JUMPDEST PUSH1 0x0 DUP3 PUSH1 0x1 DUP6 ADD ADD MLOAD SWAP1 POP DUP1 SWAP2 POP POP SWAP3 SWAP2 POP POP JUMP JUMPDEST PUSH1 0x60 PUSH1 0x0 PUSH2 0xBDA DUP4 PUSH1 0x1 PUSH2 0xD2F JUMP JUMPDEST SWAP1 POP PUSH1 0x0 PUSH2 0xBE9 DUP5 PUSH1 0x0 PUSH2 0xD2F JUMP JUMPDEST SWAP1 POP PUSH1 0x0 PUSH2 0xBF6 DUP6 PUSH2 0x11D1 JUMP JUMPDEST SWAP1 POP PUSH1 0x0 PUSH2 0xC0F DUP3 PUSH1 0x96 PUSH2 0xC0A SWAP2 SWAP1 PUSH2 0x1BA5 JUMP JUMPDEST PUSH2 0x601 JUMP JUMPDEST SWAP1 POP DUP4 DUP4 DUP3 DUP4 DUP5 DUP6 PUSH1 0x40 MLOAD PUSH1 0x20 ADD PUSH2 0xC2C SWAP7 SWAP6 SWAP5 SWAP4 SWAP3 SWAP2 SWAP1 PUSH2 0x28E5 JUMP JUMPDEST PUSH1 0x40 MLOAD PUSH1 0x20 DUP2 DUP4 SUB SUB DUP2 MSTORE SWAP1 PUSH1 0x40 MSTORE SWAP5 POP POP POP POP POP SWAP2 SWAP1 POP JUMP JUMPDEST PUSH1 0x60 PUSH1 0x0 PUSH2 0xC5B PUSH2 0xC56 DUP7 PUSH2 0x11D1 JUMP JUMPDEST PUSH2 0x601 JUMP JUMPDEST SWAP1 POP PUSH1 0x0 PUSH2 0xC68 DUP7 PUSH2 0x1200 JUMP JUMPDEST SWAP1 POP PUSH1 0x0 PUSH1 0x2 DUP3 PUSH2 0xC79 SWAP2 SWAP1 PUSH2 0x2058 JUMP JUMPDEST SWAP1 POP PUSH1 0x0 PUSH2 0xC88 DUP9 DUP9 DUP9 PUSH2 0x122F JUMP JUMPDEST SWAP1 POP PUSH1 0x0 DUP5 DUP6 PUSH2 0xCA3 DUP7 PUSH1 0x96 PUSH2 0xC9E SWAP2 SWAP1 PUSH2 0x2024 JUMP JUMPDEST PUSH2 0x601 JUMP JUMPDEST PUSH2 0xCB8 DUP7 PUSH1 0x96 PUSH2 0xCB3 SWAP2 SWAP1 PUSH2 0x2024 JUMP JUMPDEST PUSH2 0x601 JUMP JUMPDEST PUSH2 0xCCD DUP8 PUSH1 0x96 PUSH2 0xCC8 SWAP2 SWAP1 PUSH2 0x2024 JUMP JUMPDEST PUSH2 0x601 JUMP JUMPDEST PUSH2 0xCE2 DUP10 PUSH1 0x96 PUSH2 0xCDD SWAP2 SWAP1 PUSH2 0x1BA5 JUMP JUMPDEST PUSH2 0x601 JUMP JUMPDEST PUSH2 0xCF7 DUP10 PUSH1 0x96 PUSH2 0xCF2 SWAP2 SWAP1 PUSH2 0x2024 JUMP JUMPDEST PUSH2 0x601 JUMP JUMPDEST DUP9 PUSH1 0x40 MLOAD PUSH1 0x20 ADD PUSH2 0xD0F SWAP9 SWAP8 SWAP7 SWAP6 SWAP5 SWAP4 SWAP3 SWAP2 SWAP1 PUSH2 0x2C44 JUMP JUMPDEST PUSH1 0x40 MLOAD PUSH1 0x20 DUP2 DUP4 SUB SUB DUP2 MSTORE SWAP1 PUSH1 0x40 MSTORE SWAP1 POP DUP1 SWAP6 POP POP POP POP POP POP SWAP4 SWAP3 POP POP POP JUMP JUMPDEST PUSH1 0x60 PUSH1 0x0 PUSH2 0xEB0 DUP5 PUSH1 0x40 MLOAD DUP1 PUSH1 0x60 ADD PUSH1 0x40 MSTORE DUP1 PUSH1 0x40 MLOAD DUP1 PUSH1 0x40 ADD PUSH1 0x40 MSTORE DUP1 PUSH1 0x3 DUP2 MSTORE PUSH1 0x20 ADD PUSH32 0x302E300000000000000000000000000000000000000000000000000000000000 DUP2 MSTORE POP DUP2 MSTORE PUSH1 0x20 ADD PUSH1 0x40 MLOAD DUP1 PUSH1 0x40 ADD PUSH1 0x40 MSTORE DUP1 PUSH1 0x4 DUP2 MSTORE PUSH1 0x20 ADD PUSH32 0x302E303000000000000000000000000000000000000000000000000000000000 DUP2 MSTORE POP DUP2 MSTORE PUSH1 0x20 ADD PUSH1 0x40 MLOAD DUP1 PUSH1 0x40 ADD PUSH1 0x40 MSTORE DUP1 PUSH1 0x4 DUP2 MSTORE PUSH1 0x20 ADD PUSH32 0x302E303000000000000000000000000000000000000000000000000000000000 DUP2 MSTORE POP DUP2 MSTORE POP PUSH1 0x40 MLOAD DUP1 PUSH1 0x60 ADD PUSH1 0x40 MSTORE DUP1 PUSH1 0x40 MLOAD DUP1 PUSH1 0x40 ADD PUSH1 0x40 MSTORE DUP1 PUSH1 0x3 DUP2 MSTORE PUSH1 0x20 ADD PUSH32 0x302E300000000000000000000000000000000000000000000000000000000000 DUP2 MSTORE POP DUP2 MSTORE PUSH1 0x20 ADD PUSH1 0x40 MLOAD DUP1 PUSH1 0x40 ADD PUSH1 0x40 MSTORE DUP1 PUSH1 0x3 DUP2 MSTORE PUSH1 0x20 ADD PUSH32 0x302E300000000000000000000000000000000000000000000000000000000000 DUP2 MSTORE POP DUP2 MSTORE PUSH1 0x20 ADD PUSH1 0x40 MLOAD DUP1 PUSH1 0x40 ADD PUSH1 0x40 MSTORE DUP1 PUSH1 0x3 DUP2 MSTORE PUSH1 0x20 ADD PUSH32 0x302E300000000000000000000000000000000000000000000000000000000000 DUP2 MSTORE POP DUP2 MSTORE POP PUSH2 0x540 JUMP JUMPDEST SWAP1 POP PUSH1 0x0 PUSH2 0xEC5 PUSH2 0xEC0 DUP7 PUSH2 0x13FC JUMP JUMPDEST PUSH2 0x601 JUMP JUMPDEST SWAP1 POP PUSH2 0x1018 PUSH1 0x40 MLOAD DUP1 PUSH1 0x40 ADD PUSH1 0x40 MSTORE DUP1 PUSH1 0xC DUP2 MSTORE PUSH1 0x20 ADD PUSH32 0x666554757262756C656E63650000000000000000000000000000000000000000 DUP2 MSTORE POP PUSH2 0xF3F PUSH1 0x40 MLOAD DUP1 PUSH1 0x40 ADD PUSH1 0x40 MSTORE DUP1 PUSH1 0xD DUP2 MSTORE PUSH1 0x20 ADD PUSH32 0x626173654672657175656E637900000000000000000000000000000000000000 DUP2 MSTORE POP DUP6 PUSH2 0x1443 JUMP JUMPDEST PUSH2 0xF7E PUSH1 0x40 MLOAD DUP1 PUSH1 0x40 ADD PUSH1 0x40 MSTORE DUP1 PUSH1 0x4 DUP2 MSTORE PUSH1 0x20 ADD PUSH32 0x7365656400000000000000000000000000000000000000000000000000000000 DUP2 MSTORE POP DUP6 PUSH2 0x1443 JUMP JUMPDEST PUSH2 0xFF2 PUSH1 0x40 MLOAD DUP1 PUSH1 0x40 ADD PUSH1 0x40 MSTORE DUP1 PUSH1 0x6 DUP2 MSTORE PUSH1 0x20 ADD PUSH32 0x726573756C740000000000000000000000000000000000000000000000000000 DUP2 MSTORE POP PUSH1 0x40 MLOAD DUP1 PUSH1 0x40 ADD PUSH1 0x40 MSTORE DUP1 PUSH1 0x4 DUP2 MSTORE PUSH1 0x20 ADD PUSH32 0x7475726200000000000000000000000000000000000000000000000000000000 DUP2 MSTORE POP PUSH2 0x1443 JUMP JUMPDEST PUSH1 0x40 MLOAD PUSH1 0x20 ADD PUSH2 0x1004 SWAP4 SWAP3 SWAP2 SWAP1 PUSH2 0x2D71 JUMP JUMPDEST PUSH1 0x40 MLOAD PUSH1 0x20 DUP2 DUP4 SUB SUB DUP2 MSTORE SWAP1 PUSH1 0x40 MSTORE PUSH2 0x146F JUMP JUMPDEST PUSH2 0x11A7 PUSH1 0x40 MLOAD DUP1 PUSH1 0x40 ADD PUSH1 0x40 MSTORE DUP1 PUSH1 0xD DUP2 MSTORE PUSH1 0x20 ADD PUSH32 0x6665436F6C6F724D617472697800000000000000000000000000000000000000 DUP2 MSTORE POP PUSH2 0x10C5 PUSH1 0x40 MLOAD DUP1 PUSH1 0x40 ADD PUSH1 0x40 MSTORE DUP1 PUSH1 0x2 DUP2 MSTORE PUSH1 0x20 ADD PUSH32 0x696E000000000000000000000000000000000000000000000000000000000000 DUP2 MSTORE POP PUSH1 0x40 MLOAD DUP1 PUSH1 0x40 ADD PUSH1 0x40 MSTORE DUP1 PUSH1 0x4 DUP2 MSTORE PUSH1 0x20 ADD PUSH32 0x7475726200000000000000000000000000000000000000000000000000000000 DUP2 MSTORE POP PUSH2 0x1443 JUMP JUMPDEST PUSH2 0x110D PUSH1 0x40 MLOAD DUP1 PUSH1 0x40 ADD PUSH1 0x40 MSTORE DUP1 PUSH1 0x6 DUP2 MSTORE PUSH1 0x20 ADD PUSH32 0x76616C7565730000000000000000000000000000000000000000000000000000 DUP2 MSTORE POP PUSH2 0x1108 DUP12 DUP12 PUSH2 0x1B2 JUMP JUMPDEST PUSH2 0x1443 JUMP JUMPDEST PUSH2 0x1181 PUSH1 0x40 MLOAD DUP1 PUSH1 0x40 ADD PUSH1 0x40 MSTORE DUP1 PUSH1 0x3 DUP2 MSTORE PUSH1 0x20 ADD PUSH32 0x6F75740000000000000000000000000000000000000000000000000000000000 DUP2 MSTORE POP PUSH1 0x40 MLOAD DUP1 PUSH1 0x40 ADD PUSH1 0x40 MSTORE DUP1 PUSH1 0x5 DUP2 MSTORE PUSH1 0x20 ADD PUSH32 0x7475726232000000000000000000000000000000000000000000000000000000 DUP2 MSTORE POP PUSH2 0x1443 JUMP JUMPDEST PUSH1 0x40 MLOAD PUSH1 0x20 ADD PUSH2 0x1193 SWAP4 SWAP3 SWAP2 SWAP1 PUSH2 0x2D71 JUMP JUMPDEST PUSH1 0x40 MLOAD PUSH1 0x20 DUP2 DUP4 SUB SUB DUP2 MSTORE SWAP1 PUSH1 0x40 MSTORE PUSH2 0x146F JUMP JUMPDEST PUSH1 0x40 MLOAD PUSH1 0x20 ADD PUSH2 0x11B8 SWAP3 SWAP2 SWAP1 PUSH2 0x2DA2 JUMP JUMPDEST PUSH1 0x40 MLOAD PUSH1 0x20 DUP2 DUP4 SUB SUB DUP2 MSTORE SWAP1 PUSH1 0x40 MSTORE SWAP3 POP POP POP SWAP3 SWAP2 POP POP JUMP JUMPDEST PUSH1 0x0 PUSH1 0x2 PUSH2 0x11E0 DUP4 PUSH1 0x1 PUSH2 0xB15 JUMP JUMPDEST PUSH2 0x11EA SWAP2 SWAP1 PUSH2 0x21B9 JUMP JUMPDEST PUSH1 0xB4 PUSH2 0x11F6 SWAP2 SWAP1 PUSH2 0x2DC6 JUMP JUMPDEST PUSH1 0xFF AND SWAP1 POP SWAP2 SWAP1 POP JUMP JUMPDEST PUSH1 0x0 PUSH1 0xD PUSH2 0x120F DUP4 PUSH1 0x9 PUSH2 0xB15 JUMP JUMPDEST PUSH2 0x1219 SWAP2 SWAP1 PUSH2 0x21B9 JUMP JUMPDEST PUSH1 0x5 PUSH2 0x1225 SWAP2 SWAP1 PUSH2 0x20BF JUMP JUMPDEST PUSH1 0xFF AND SWAP1 POP SWAP2 SWAP1 POP JUMP JUMPDEST PUSH1 0x60 PUSH1 0x0 PUSH1 0x40 MLOAD DUP1 PUSH1 0x20 ADD PUSH1 0x40 MSTORE DUP1 PUSH1 0x0 DUP2 MSTORE POP SWAP1 POP PUSH1 0x0 PUSH1 0x40 MLOAD DUP1 PUSH1 0x20 ADD PUSH1 0x40 MSTORE DUP1 PUSH1 0x0 DUP2 MSTORE POP SWAP1 POP PUSH1 0x0 PUSH1 0x40 MLOAD DUP1 PUSH1 0x20 ADD PUSH1 0x40 MSTORE DUP1 PUSH1 0x0 DUP2 MSTORE POP SWAP1 POP PUSH1 0x0 JUMPDEST DUP7 DUP2 LT ISZERO PUSH2 0x134C JUMPI PUSH1 0x2 PUSH1 0x3 PUSH1 0x4 DUP10 PUSH2 0x1289 SWAP2 SWAP1 PUSH2 0x1FF3 JUMP JUMPDEST PUSH2 0x1293 SWAP2 SWAP1 PUSH2 0x2058 JUMP JUMPDEST PUSH2 0x129D SWAP2 SWAP1 PUSH2 0x1BA5 JUMP JUMPDEST DUP2 LT ISZERO PUSH2 0x1338 JUMPI DUP3 PUSH2 0x12C5 PUSH1 0x1 DUP4 PUSH2 0x12B5 SWAP2 SWAP1 PUSH2 0x1BA5 JUMP JUMPDEST DUP9 PUSH2 0x12C0 SWAP2 SWAP1 PUSH2 0x2058 JUMP JUMPDEST PUSH2 0x149B JUMP JUMPDEST PUSH1 0x40 MLOAD PUSH1 0x20 ADD PUSH2 0x12D6 SWAP3 SWAP2 SWAP1 PUSH2 0x2DA2 JUMP JUMPDEST PUSH1 0x40 MLOAD PUSH1 0x20 DUP2 DUP4 SUB SUB DUP2 MSTORE SWAP1 PUSH1 0x40 MSTORE SWAP3 POP DUP2 PUSH2 0x1315 DUP10 PUSH1 0x5A PUSH1 0x1 DUP6 PUSH2 0x12FB SWAP2 SWAP1 PUSH2 0x1BA5 JUMP JUMPDEST DUP11 PUSH2 0x1306 SWAP2 SWAP1 PUSH2 0x2058 JUMP JUMPDEST PUSH2 0x1310 SWAP2 SWAP1 PUSH2 0x1BA5 JUMP JUMPDEST PUSH2 0x14EE JUMP JUMPDEST PUSH1 0x40 MLOAD PUSH1 0x20 ADD PUSH2 0x1326 SWAP3 SWAP2 SWAP1 PUSH2 0x2DA2 JUMP JUMPDEST PUSH1 0x40 MLOAD PUSH1 0x20 DUP2 DUP4 SUB SUB DUP2 MSTORE SWAP1 PUSH1 0x40 MSTORE SWAP2 POP JUMPDEST PUSH1 0x1 DUP2 PUSH2 0x1345 SWAP2 SWAP1 PUSH2 0x1BA5 JUMP JUMPDEST SWAP1 POP PUSH2 0x1270 JUMP JUMPDEST POP DUP1 PUSH2 0x137B DUP9 PUSH1 0x5A PUSH1 0x1 DUP11 PUSH2 0x1361 SWAP2 SWAP1 PUSH2 0x1BA5 JUMP JUMPDEST DUP10 PUSH2 0x136C SWAP2 SWAP1 PUSH2 0x2058 JUMP JUMPDEST PUSH2 0x1376 SWAP2 SWAP1 PUSH2 0x1BA5 JUMP JUMPDEST PUSH2 0x14EE JUMP JUMPDEST PUSH2 0x13A8 DUP10 PUSH1 0x5A PUSH1 0x2 DUP12 PUSH2 0x138E SWAP2 SWAP1 PUSH2 0x1BA5 JUMP JUMPDEST DUP11 PUSH2 0x1399 SWAP2 SWAP1 PUSH2 0x2058 JUMP JUMPDEST PUSH2 0x13A3 SWAP2 SWAP1 PUSH2 0x1BA5 JUMP JUMPDEST PUSH2 0x14EE JUMP JUMPDEST PUSH1 0x40 MLOAD PUSH1 0x20 ADD PUSH2 0x13BA SWAP4 SWAP3 SWAP2 SWAP1 PUSH2 0x2D71 JUMP JUMPDEST PUSH1 0x40 MLOAD PUSH1 0x20 DUP2 DUP4 SUB SUB DUP2 MSTORE SWAP1 PUSH1 0x40 MSTORE SWAP1 POP DUP2 DUP2 PUSH1 0x40 MLOAD PUSH1 0x20 ADD PUSH2 0x13DE SWAP3 SWAP2 SWAP1 PUSH2 0x2DA2 JUMP JUMPDEST PUSH1 0x40 MLOAD PUSH1 0x20 DUP2 DUP4 SUB SUB DUP2 MSTORE SWAP1 PUSH1 0x40 MSTORE SWAP3 POP DUP3 SWAP4 POP POP POP POP SWAP4 SWAP3 POP POP POP JUMP JUMPDEST PUSH1 0x0 PUSH2 0x1409 DUP3 PUSH1 0x4 PUSH2 0xB15 JUMP JUMPDEST PUSH1 0xFF AND PUSH2 0x1417 DUP4 PUSH1 0x3 PUSH2 0xB15 JUMP JUMPDEST PUSH1 0xFF AND PUSH2 0x1425 DUP5 PUSH1 0x2 PUSH2 0xB15 JUMP JUMPDEST PUSH1 0xFF AND PUSH2 0x1432 SWAP2 SWAP1 PUSH2 0x2058 JUMP JUMPDEST PUSH2 0x143C SWAP2 SWAP1 PUSH2 0x2058 JUMP JUMPDEST SWAP1 POP SWAP2 SWAP1 POP JUMP JUMPDEST PUSH1 0x60 DUP3 DUP3 PUSH1 0x40 MLOAD PUSH1 0x20 ADD PUSH2 0x1458 SWAP3 SWAP2 SWAP1 PUSH2 0x2E6C JUMP JUMPDEST PUSH1 0x40 MLOAD PUSH1 0x20 DUP2 DUP4 SUB SUB DUP2 MSTORE SWAP1 PUSH1 0x40 MSTORE SWAP1 POP SWAP3 SWAP2 POP POP JUMP JUMPDEST PUSH1 0x60 DUP3 DUP3 PUSH1 0x40 MLOAD PUSH1 0x20 ADD PUSH2 0x1484 SWAP3 SWAP2 SWAP1 PUSH2 0x2F09 JUMP JUMPDEST PUSH1 0x40 MLOAD PUSH1 0x20 DUP2 DUP4 SUB SUB DUP2 MSTORE SWAP1 PUSH1 0x40 MSTORE SWAP1 POP SWAP3 SWAP2 POP POP JUMP JUMPDEST PUSH1 0x60 PUSH2 0x14B2 PUSH1 0x1 DUP4 PUSH2 0x14AD SWAP2 SWAP1 PUSH2 0x1BA5 JUMP JUMPDEST PUSH2 0x601 JUMP JUMPDEST PUSH2 0x14C7 PUSH1 0x1 DUP5 PUSH2 0x14C2 SWAP2 SWAP1 PUSH2 0x1BA5 JUMP JUMPDEST PUSH2 0x601 JUMP JUMPDEST PUSH1 0x40 MLOAD PUSH1 0x20 ADD PUSH2 0x14D8 SWAP3 SWAP2 SWAP1 PUSH2 0x3122 JUMP JUMPDEST PUSH1 0x40 MLOAD PUSH1 0x20 DUP2 DUP4 SUB SUB DUP2 MSTORE SWAP1 PUSH1 0x40 MSTORE SWAP1 POP SWAP2 SWAP1 POP JUMP JUMPDEST PUSH1 0x60 PUSH1 0x0 PUSH2 0x14FB DUP5 PUSH2 0x1544 JUMP JUMPDEST SWAP1 POP PUSH2 0x1512 PUSH1 0x1 DUP5 PUSH2 0x150D SWAP2 SWAP1 PUSH2 0x1BA5 JUMP JUMPDEST PUSH2 0x601 JUMP JUMPDEST PUSH2 0x151B DUP3 PUSH2 0x601 JUMP JUMPDEST PUSH1 0x40 MLOAD PUSH1 0x20 ADD PUSH2 0x152C SWAP3 SWAP2 SWAP1 PUSH2 0x3230 JUMP JUMPDEST PUSH1 0x40 MLOAD PUSH1 0x20 DUP2 DUP4 SUB SUB DUP2 MSTORE SWAP1 PUSH1 0x40 MSTORE SWAP2 POP POP SWAP3 SWAP2 POP POP JUMP JUMPDEST PUSH1 0x0 PUSH2 0x100 PUSH2 0x168 PUSH2 0x1557 DUP5 PUSH1 0xA PUSH2 0xB15 JUMP JUMPDEST PUSH1 0xFF AND PUSH2 0x1564 SWAP2 SWAP1 PUSH2 0x2058 JUMP JUMPDEST PUSH2 0x156E SWAP2 SWAP1 PUSH2 0x1FF3 JUMP JUMPDEST SWAP1 POP SWAP2 SWAP1 POP JUMP JUMPDEST PUSH1 0x0 PUSH1 0x40 MLOAD SWAP1 POP SWAP1 JUMP JUMPDEST PUSH1 0x0 DUP1 REVERT JUMPDEST PUSH1 0x0 DUP1 REVERT JUMPDEST PUSH1 0x0 DUP2 SWAP1 POP SWAP2 SWAP1 POP JUMP JUMPDEST PUSH2 0x159C DUP2 PUSH2 0x1589 JUMP JUMPDEST DUP2 EQ PUSH2 0x15A7 JUMPI PUSH1 0x0 DUP1 REVERT JUMPDEST POP JUMP JUMPDEST PUSH1 0x0 DUP2 CALLDATALOAD SWAP1 POP PUSH2 0x15B9 DUP2 PUSH2 0x1593 JUMP JUMPDEST SWAP3 SWAP2 POP POP JUMP JUMPDEST PUSH1 0x0 PUSH1 0x20 DUP3 DUP5 SUB SLT ISZERO PUSH2 0x15D5 JUMPI PUSH2 0x15D4 PUSH2 0x157F JUMP JUMPDEST JUMPDEST PUSH1 0x0 PUSH2 0x15E3 DUP5 DUP3 DUP6 ADD PUSH2 0x15AA JUMP JUMPDEST SWAP2 POP POP SWAP3 SWAP2 POP POP JUMP JUMPDEST PUSH1 0x0 DUP2 MLOAD SWAP1 POP SWAP2 SWAP1 POP JUMP JUMPDEST PUSH1 0x0 DUP3 DUP3 MSTORE PUSH1 0x20 DUP3 ADD SWAP1 POP SWAP3 SWAP2 POP POP JUMP JUMPDEST PUSH1 0x0 JUMPDEST DUP4 DUP2 LT ISZERO PUSH2 0x1626 JUMPI DUP1 DUP3 ADD MLOAD DUP2 DUP5 ADD MSTORE PUSH1 0x20 DUP2 ADD SWAP1 POP PUSH2 0x160B JUMP JUMPDEST DUP4 DUP2 GT ISZERO PUSH2 0x1635 JUMPI PUSH1 0x0 DUP5 DUP5 ADD MSTORE JUMPDEST POP POP POP POP JUMP JUMPDEST PUSH1 0x0 PUSH1 0x1F NOT PUSH1 0x1F DUP4 ADD AND SWAP1 POP SWAP2 SWAP1 POP JUMP JUMPDEST PUSH1 0x0 PUSH2 0x1657 DUP3 PUSH2 0x15EC JUMP JUMPDEST PUSH2 0x1661 DUP2 DUP6 PUSH2 0x15F7 JUMP JUMPDEST SWAP4 POP PUSH2 0x1671 DUP2 DUP6 PUSH1 0x20 DUP7 ADD PUSH2 0x1608 JUMP JUMPDEST PUSH2 0x167A DUP2 PUSH2 0x163B JUMP JUMPDEST DUP5 ADD SWAP2 POP POP SWAP3 SWAP2 POP POP JUMP JUMPDEST PUSH1 0x0 PUSH1 0x20 DUP3 ADD SWAP1 POP DUP2 DUP2 SUB PUSH1 0x0 DUP4 ADD MSTORE PUSH2 0x169F DUP2 DUP5 PUSH2 0x164C JUMP JUMPDEST SWAP1 POP SWAP3 SWAP2 POP POP JUMP JUMPDEST PUSH1 0x0 DUP1 REVERT JUMPDEST PUSH1 0x0 DUP1 REVERT JUMPDEST PUSH32 0x4E487B7100000000000000000000000000000000000000000000000000000000 PUSH1 0x0 MSTORE PUSH1 0x41 PUSH1 0x4 MSTORE PUSH1 0x24 PUSH1 0x0 REVERT JUMPDEST PUSH2 0x16E9 DUP3 PUSH2 0x163B JUMP JUMPDEST DUP2 ADD DUP2 DUP2 LT PUSH8 0xFFFFFFFFFFFFFFFF DUP3 GT OR ISZERO PUSH2 0x1708 JUMPI PUSH2 0x1707 PUSH2 0x16B1 JUMP JUMPDEST JUMPDEST DUP1 PUSH1 0x40 MSTORE POP POP POP JUMP JUMPDEST PUSH1 0x0 PUSH2 0x171B PUSH2 0x1575 JUMP JUMPDEST SWAP1 POP PUSH2 0x1727 DUP3 DUP3 PUSH2 0x16E0 JUMP JUMPDEST SWAP2 SWAP1 POP JUMP JUMPDEST PUSH1 0x0 PUSH8 0xFFFFFFFFFFFFFFFF DUP3 GT ISZERO PUSH2 0x1747 JUMPI PUSH2 0x1746 PUSH2 0x16B1 JUMP JUMPDEST JUMPDEST PUSH2 0x1750 DUP3 PUSH2 0x163B JUMP JUMPDEST SWAP1 POP PUSH1 0x20 DUP2 ADD SWAP1 POP SWAP2 SWAP1 POP JUMP JUMPDEST DUP3 DUP2 DUP4 CALLDATACOPY PUSH1 0x0 DUP4 DUP4 ADD MSTORE POP POP POP JUMP JUMPDEST PUSH1 0x0 PUSH2 0x177F PUSH2 0x177A DUP5 PUSH2 0x172C JUMP JUMPDEST PUSH2 0x1711 JUMP JUMPDEST SWAP1 POP DUP3 DUP2 MSTORE PUSH1 0x20 DUP2 ADD DUP5 DUP5 DUP5 ADD GT ISZERO PUSH2 0x179B JUMPI PUSH2 0x179A PUSH2 0x16AC JUMP JUMPDEST JUMPDEST PUSH2 0x17A6 DUP5 DUP3 DUP6 PUSH2 0x175D JUMP JUMPDEST POP SWAP4 SWAP3 POP POP POP JUMP JUMPDEST PUSH1 0x0 DUP3 PUSH1 0x1F DUP4 ADD SLT PUSH2 0x17C3 JUMPI PUSH2 0x17C2 PUSH2 0x16A7 JUMP JUMPDEST JUMPDEST DUP2 CALLDATALOAD PUSH2 0x17D3 DUP5 DUP3 PUSH1 0x20 DUP7 ADD PUSH2 0x176C JUMP JUMPDEST SWAP2 POP POP SWAP3 SWAP2 POP POP JUMP JUMPDEST PUSH1 0x0 DUP2 ISZERO ISZERO SWAP1 POP SWAP2 SWAP1 POP JUMP JUMPDEST PUSH2 0x17F1 DUP2 PUSH2 0x17DC JUMP JUMPDEST DUP2 EQ PUSH2 0x17FC JUMPI PUSH1 0x0 DUP1 REVERT JUMPDEST POP JUMP JUMPDEST PUSH1 0x0 DUP2 CALLDATALOAD SWAP1 POP PUSH2 0x180E DUP2 PUSH2 0x17E8 JUMP JUMPDEST SWAP3 SWAP2 POP POP JUMP JUMPDEST PUSH1 0x0 DUP1 PUSH1 0x40 DUP4 DUP6 SUB SLT ISZERO PUSH2 0x182B JUMPI PUSH2 0x182A PUSH2 0x157F JUMP JUMPDEST JUMPDEST PUSH1 0x0 DUP4 ADD CALLDATALOAD PUSH8 0xFFFFFFFFFFFFFFFF DUP2 GT ISZERO PUSH2 0x1849 JUMPI PUSH2 0x1848 PUSH2 0x1584 JUMP JUMPDEST JUMPDEST PUSH2 0x1855 DUP6 DUP3 DUP7 ADD PUSH2 0x17AE JUMP JUMPDEST SWAP3 POP POP PUSH1 0x20 PUSH2 0x1866 DUP6 DUP3 DUP7 ADD PUSH2 0x17FF JUMP JUMPDEST SWAP2 POP POP SWAP3 POP SWAP3 SWAP1 POP JUMP JUMPDEST PUSH1 0x0 DUP1 PUSH1 0x40 DUP4 DUP6 SUB SLT ISZERO PUSH2 0x1887 JUMPI PUSH2 0x1886 PUSH2 0x157F JUMP JUMPDEST JUMPDEST PUSH1 0x0 PUSH2 0x1895 DUP6 DUP3 DUP7 ADD PUSH2 0x15AA JUMP JUMPDEST SWAP3 POP POP PUSH1 0x20 PUSH2 0x18A6 DUP6 DUP3 DUP7 ADD PUSH2 0x17FF JUMP JUMPDEST SWAP2 POP POP SWAP3 POP SWAP3 SWAP1 POP JUMP JUMPDEST PUSH1 0x0 PUSH8 0xFFFFFFFFFFFFFFFF DUP3 GT ISZERO PUSH2 0x18CB JUMPI PUSH2 0x18CA PUSH2 0x16B1 JUMP JUMPDEST JUMPDEST PUSH1 0x20 DUP3 MUL SWAP1 POP SWAP2 SWAP1 POP JUMP JUMPDEST PUSH1 0x0 DUP1 REVERT JUMPDEST PUSH1 0x0 PUSH8 0xFFFFFFFFFFFFFFFF DUP3 GT ISZERO PUSH2 0x18F6 JUMPI PUSH2 0x18F5 PUSH2 0x16B1 JUMP JUMPDEST JUMPDEST PUSH2 0x18FF DUP3 PUSH2 0x163B JUMP JUMPDEST SWAP1 POP PUSH1 0x20 DUP2 ADD SWAP1 POP SWAP2 SWAP1 POP JUMP JUMPDEST PUSH1 0x0 PUSH2 0x191F PUSH2 0x191A DUP5 PUSH2 0x18DB JUMP JUMPDEST PUSH2 0x1711 JUMP JUMPDEST SWAP1 POP DUP3 DUP2 MSTORE PUSH1 0x20 DUP2 ADD DUP5 DUP5 DUP5 ADD GT ISZERO PUSH2 0x193B JUMPI PUSH2 0x193A PUSH2 0x16AC JUMP JUMPDEST JUMPDEST PUSH2 0x1946 DUP5 DUP3 DUP6 PUSH2 0x175D JUMP JUMPDEST POP SWAP4 SWAP3 POP POP POP JUMP JUMPDEST PUSH1 0x0 DUP3 PUSH1 0x1F DUP4 ADD SLT PUSH2 0x1963 JUMPI PUSH2 0x1962 PUSH2 0x16A7 JUMP JUMPDEST JUMPDEST DUP2 CALLDATALOAD PUSH2 0x1973 DUP5 DUP3 PUSH1 0x20 DUP7 ADD PUSH2 0x190C JUMP JUMPDEST SWAP2 POP POP SWAP3 SWAP2 POP POP JUMP JUMPDEST PUSH1 0x0 PUSH2 0x198F PUSH2 0x198A DUP5 PUSH2 0x18B0 JUMP JUMPDEST PUSH2 0x1711 JUMP JUMPDEST SWAP1 POP DUP1 PUSH1 0x20 DUP5 MUL DUP4 ADD DUP6 DUP2 GT ISZERO PUSH2 0x19A9 JUMPI PUSH2 0x19A8 PUSH2 0x18D6 JUMP JUMPDEST JUMPDEST DUP4 JUMPDEST DUP2 DUP2 LT ISZERO PUSH2 0x19F0 JUMPI DUP1 CALLDATALOAD PUSH8 0xFFFFFFFFFFFFFFFF DUP2 GT ISZERO PUSH2 0x19CE JUMPI PUSH2 0x19CD PUSH2 0x16A7 JUMP JUMPDEST JUMPDEST DUP1 DUP7 ADD PUSH2 0x19DB DUP10 DUP3 PUSH2 0x194E JUMP JUMPDEST DUP6 MSTORE PUSH1 0x20 DUP6 ADD SWAP5 POP POP POP PUSH1 0x20 DUP2 ADD SWAP1 POP PUSH2 0x19AB JUMP JUMPDEST POP POP POP SWAP4 SWAP3 POP POP POP JUMP JUMPDEST PUSH1 0x0 DUP3 PUSH1 0x1F DUP4 ADD SLT PUSH2 0x1A0F JUMPI PUSH2 0x1A0E PUSH2 0x16A7 JUMP JUMPDEST JUMPDEST PUSH1 0x3 PUSH2 0x1A1C DUP5 DUP3 DUP6 PUSH2 0x197C JUMP JUMPDEST SWAP2 POP POP SWAP3 SWAP2 POP POP JUMP JUMPDEST PUSH1 0x0 DUP1 PUSH1 0x0 PUSH1 0x60 DUP5 DUP7 SUB SLT ISZERO PUSH2 0x1A3E JUMPI PUSH2 0x1A3D PUSH2 0x157F JUMP JUMPDEST JUMPDEST PUSH1 0x0 DUP5 ADD CALLDATALOAD PUSH8 0xFFFFFFFFFFFFFFFF DUP2 GT ISZERO PUSH2 0x1A5C JUMPI PUSH2 0x1A5B PUSH2 0x1584 JUMP JUMPDEST JUMPDEST PUSH2 0x1A68 DUP7 DUP3 DUP8 ADD PUSH2 0x17AE JUMP JUMPDEST SWAP4 POP POP PUSH1 0x20 DUP5 ADD CALLDATALOAD PUSH8 0xFFFFFFFFFFFFFFFF DUP2 GT ISZERO PUSH2 0x1A89 JUMPI PUSH2 0x1A88 PUSH2 0x1584 JUMP JUMPDEST JUMPDEST PUSH2 0x1A95 DUP7 DUP3 DUP8 ADD PUSH2 0x19FA JUMP JUMPDEST SWAP3 POP POP PUSH1 0x40 DUP5 ADD CALLDATALOAD PUSH8 0xFFFFFFFFFFFFFFFF DUP2 GT ISZERO PUSH2 0x1AB6 JUMPI PUSH2 0x1AB5 PUSH2 0x1584 JUMP JUMPDEST JUMPDEST PUSH2 0x1AC2 DUP7 DUP3 DUP8 ADD PUSH2 0x19FA JUMP JUMPDEST SWAP2 POP POP SWAP3 POP SWAP3 POP SWAP3 JUMP JUMPDEST PUSH1 0x0 DUP2 SWAP1 POP SWAP3 SWAP2 POP POP JUMP JUMPDEST PUSH32 0x4461697379636861696E20230000000000000000000000000000000000000000 PUSH1 0x0 DUP3 ADD MSTORE POP JUMP JUMPDEST PUSH1 0x0 PUSH2 0x1B0D PUSH1 0xC DUP4 PUSH2 0x1ACC JUMP JUMPDEST SWAP2 POP PUSH2 0x1B18 DUP3 PUSH2 0x1AD7 JUMP JUMPDEST PUSH1 0xC DUP3 ADD SWAP1 POP SWAP2 SWAP1 POP JUMP JUMPDEST PUSH1 0x0 PUSH2 0x1B2E DUP3 PUSH2 0x15EC JUMP JUMPDEST PUSH2 0x1B38 DUP2 DUP6 PUSH2 0x1ACC JUMP JUMPDEST SWAP4 POP PUSH2 0x1B48 DUP2 DUP6 PUSH1 0x20 DUP7 ADD PUSH2 0x1608 JUMP JUMPDEST DUP1 DUP5 ADD SWAP2 POP POP SWAP3 SWAP2 POP POP JUMP JUMPDEST PUSH1 0x0 PUSH2 0x1B5F DUP3 PUSH2 0x1B00 JUMP JUMPDEST SWAP2 POP PUSH2 0x1B6B DUP3 DUP5 PUSH2 0x1B23 JUMP JUMPDEST SWAP2 POP DUP2 SWAP1 POP SWAP3 SWAP2 POP POP JUMP JUMPDEST PUSH32 0x4E487B7100000000000000000000000000000000000000000000000000000000 PUSH1 0x0 MSTORE PUSH1 0x11 PUSH1 0x4 MSTORE PUSH1 0x24 PUSH1 0x0 REVERT JUMPDEST PUSH1 0x0 PUSH2 0x1BB0 DUP3 PUSH2 0x1589 JUMP JUMPDEST SWAP2 POP PUSH2 0x1BBB DUP4 PUSH2 0x1589 JUMP JUMPDEST SWAP3 POP DUP3 PUSH32 0xFFFFFFFFFFFFFFFFFFFFFFFFFFFFFFFFFFFFFFFFFFFFFFFFFFFFFFFFFFFFFFFF SUB DUP3 GT ISZERO PUSH2 0x1BF0 JUMPI PUSH2 0x1BEF PUSH2 0x1B76 JUMP JUMPDEST JUMPDEST DUP3 DUP3 ADD SWAP1 POP SWAP3 SWAP2 POP POP JUMP JUMPDEST PUSH32 0x3020000000000000000000000000000000000000000000000000000000000000 DUP2 MSTORE POP JUMP JUMPDEST PUSH1 0x0 PUSH2 0x1C2D DUP3 DUP5 PUSH2 0x1B23 JUMP JUMPDEST SWAP2 POP PUSH2 0x1C38 DUP3 PUSH2 0x1BFB JUMP JUMPDEST PUSH1 0x2 DUP3 ADD SWAP2 POP DUP2 SWAP1 POP SWAP3 SWAP2 POP POP JUMP JUMPDEST PUSH32 0x3120000000000000000000000000000000000000000000000000000000000000 DUP2 MSTORE POP JUMP JUMPDEST PUSH1 0x0 PUSH2 0x1C79 DUP3 DUP5 PUSH2 0x1B23 JUMP JUMPDEST SWAP2 POP PUSH2 0x1C84 DUP3 PUSH2 0x1C47 JUMP JUMPDEST PUSH1 0x2 DUP3 ADD SWAP2 POP DUP2 SWAP1 POP SWAP3 SWAP2 POP POP JUMP JUMPDEST PUSH32 0x2000000000000000000000000000000000000000000000000000000000000000 DUP2 MSTORE POP JUMP JUMPDEST PUSH1 0x0 PUSH2 0x1CC5 DUP3 DUP6 PUSH2 0x1B23 JUMP JUMPDEST SWAP2 POP PUSH2 0x1CD1 DUP3 DUP5 PUSH2 0x1B23 JUMP JUMPDEST SWAP2 POP PUSH2 0x1CDC DUP3 PUSH2 0x1C93 JUMP JUMPDEST PUSH1 0x1 DUP3 ADD SWAP2 POP DUP2 SWAP1 POP SWAP4 SWAP3 POP POP POP JUMP JUMPDEST PUSH32 0x2D00000000000000000000000000000000000000000000000000000000000000 DUP2 MSTORE POP JUMP JUMPDEST PUSH1 0x0 PUSH2 0x1D1E DUP3 DUP6 PUSH2 0x1B23 JUMP JUMPDEST SWAP2 POP PUSH2 0x1D29 DUP3 PUSH2 0x1CEC JUMP JUMPDEST PUSH1 0x1 DUP3 ADD SWAP2 POP PUSH2 0x1D39 DUP3 DUP5 PUSH2 0x1B23 JUMP JUMPDEST SWAP2 POP PUSH2 0x1D44 DUP3 PUSH2 0x1C93 JUMP JUMPDEST PUSH1 0x1 DUP3 ADD SWAP2 POP DUP2 SWAP1 POP SWAP4 SWAP3 POP POP POP JUMP JUMPDEST PUSH1 0x0 DUP2 SWAP1 POP SWAP2 SWAP1 POP JUMP JUMPDEST PUSH1 0x0 DUP2 SWAP1 POP SWAP2 SWAP1 POP JUMP JUMPDEST PUSH2 0x1D79 PUSH2 0x1D74 DUP3 PUSH2 0x1D54 JUMP JUMPDEST PUSH2 0x1D5E JUMP JUMPDEST DUP3 MSTORE POP POP JUMP JUMPDEST PUSH1 0x0 PUSH2 0x1D8B DUP3 DUP5 PUSH2 0x1D68 JUMP JUMPDEST PUSH1 0x20 DUP3 ADD SWAP2 POP DUP2 SWAP1 POP SWAP3 SWAP2 POP POP JUMP JUMPDEST PUSH32 0x2261747472696275746573223A205B0000000000000000000000000000000000 PUSH1 0x0 DUP3 ADD MSTORE POP JUMP JUMPDEST PUSH1 0x0 PUSH2 0x1DD0 PUSH1 0xF DUP4 PUSH2 0x1ACC JUMP JUMPDEST SWAP2 POP PUSH2 0x1DDB DUP3 PUSH2 0x1D9A JUMP JUMPDEST PUSH1 0xF DUP3 ADD SWAP1 POP SWAP2 SWAP1 POP JUMP JUMPDEST PUSH32 0x2C00000000000000000000000000000000000000000000000000000000000000 PUSH1 0x0 DUP3 ADD MSTORE POP JUMP JUMPDEST PUSH1 0x0 PUSH2 0x1E1C PUSH1 0x1 DUP4 PUSH2 0x1ACC JUMP JUMPDEST SWAP2 POP PUSH2 0x1E27 DUP3 PUSH2 0x1DE6 JUMP JUMPDEST PUSH1 0x1 DUP3 ADD SWAP1 POP SWAP2 SWAP1 POP JUMP JUMPDEST PUSH32 0x5D00000000000000000000000000000000000000000000000000000000000000 PUSH1 0x0 DUP3 ADD MSTORE POP JUMP JUMPDEST PUSH1 0x0 PUSH2 0x1E68 PUSH1 0x1 DUP4 PUSH2 0x1ACC JUMP JUMPDEST SWAP2 POP PUSH2 0x1E73 DUP3 PUSH2 0x1E32 JUMP JUMPDEST PUSH1 0x1 DUP3 ADD SWAP1 POP SWAP2 SWAP1 POP JUMP JUMPDEST PUSH1 0x0 PUSH2 0x1E89 DUP3 PUSH2 0x1DC3 JUMP JUMPDEST SWAP2 POP PUSH2 0x1E95 DUP3 DUP6 PUSH2 0x1B23 JUMP JUMPDEST SWAP2 POP PUSH2 0x1EA0 DUP3 PUSH2 0x1E0F JUMP JUMPDEST SWAP2 POP PUSH2 0x1EAC DUP3 DUP5 PUSH2 0x1B23 JUMP JUMPDEST SWAP2 POP PUSH2 0x1EB7 DUP3 PUSH2 0x1E5B JUMP JUMPDEST SWAP2 POP DUP2 SWAP1 POP SWAP4 SWAP3 POP POP POP JUMP JUMPDEST PUSH1 0x0 DUP2 SWAP1 POP SWAP2 SWAP1 POP JUMP JUMPDEST PUSH2 0x1EDE PUSH2 0x1ED9 DUP3 PUSH2 0x1589 JUMP JUMPDEST PUSH2 0x1EC3 JUMP JUMPDEST DUP3 MSTORE POP POP JUMP JUMPDEST PUSH1 0x0 PUSH2 0x1EF0 DUP3 DUP5 PUSH2 0x1ECD JUMP JUMPDEST PUSH1 0x20 DUP3 ADD SWAP2 POP DUP2 SWAP1 POP SWAP3 SWAP2 POP POP JUMP JUMPDEST PUSH32 0x4E487B7100000000000000000000000000000000000000000000000000000000 PUSH1 0x0 MSTORE PUSH1 0x32 PUSH1 0x4 MSTORE PUSH1 0x24 PUSH1 0x0 REVERT JUMPDEST PUSH1 0x0 PUSH2 0x1F3A DUP3 DUP8 PUSH2 0x1B23 JUMP JUMPDEST SWAP2 POP PUSH2 0x1F46 DUP3 DUP7 PUSH2 0x1B23 JUMP JUMPDEST SWAP2 POP PUSH2 0x1F51 DUP3 PUSH2 0x1C93 JUMP JUMPDEST PUSH1 0x1 DUP3 ADD SWAP2 POP PUSH2 0x1F61 DUP3 DUP6 PUSH2 0x1B23 JUMP JUMPDEST SWAP2 POP PUSH2 0x1F6D DUP3 DUP5 PUSH2 0x1B23 JUMP JUMPDEST SWAP2 POP DUP2 SWAP1 POP SWAP6 SWAP5 POP POP POP POP POP JUMP JUMPDEST PUSH1 0x0 PUSH2 0x1F86 DUP3 PUSH2 0x1589 JUMP JUMPDEST SWAP2 POP PUSH32 0xFFFFFFFFFFFFFFFFFFFFFFFFFFFFFFFFFFFFFFFFFFFFFFFFFFFFFFFFFFFFFFFF DUP3 EQ ISZERO PUSH2 0x1FB9 JUMPI PUSH2 0x1FB8 PUSH2 0x1B76 JUMP JUMPDEST JUMPDEST PUSH1 0x1 DUP3 ADD SWAP1 POP SWAP2 SWAP1 POP JUMP JUMPDEST PUSH32 0x4E487B7100000000000000000000000000000000000000000000000000000000 PUSH1 0x0 MSTORE PUSH1 0x12 PUSH1 0x4 MSTORE PUSH1 0x24 PUSH1 0x0 REVERT JUMPDEST PUSH1 0x0 PUSH2 0x1FFE DUP3 PUSH2 0x1589 JUMP JUMPDEST SWAP2 POP PUSH2 0x2009 DUP4 PUSH2 0x1589 JUMP JUMPDEST SWAP3 POP DUP3 PUSH2 0x2019 JUMPI PUSH2 0x2018 PUSH2 0x1FC4 JUMP JUMPDEST JUMPDEST DUP3 DUP3 DIV SWAP1 POP SWAP3 SWAP2 POP POP JUMP JUMPDEST PUSH1 0x0 PUSH2 0x202F DUP3 PUSH2 0x1589 JUMP JUMPDEST SWAP2 POP PUSH2 0x203A DUP4 PUSH2 0x1589 JUMP JUMPDEST SWAP3 POP DUP3 DUP3 LT ISZERO PUSH2 0x204D JUMPI PUSH2 0x204C PUSH2 0x1B76 JUMP JUMPDEST JUMPDEST DUP3 DUP3 SUB SWAP1 POP SWAP3 SWAP2 POP POP JUMP JUMPDEST PUSH1 0x0 PUSH2 0x2063 DUP3 PUSH2 0x1589 JUMP JUMPDEST SWAP2 POP PUSH2 0x206E DUP4 PUSH2 0x1589 JUMP JUMPDEST SWAP3 POP DUP2 PUSH32 0xFFFFFFFFFFFFFFFFFFFFFFFFFFFFFFFFFFFFFFFFFFFFFFFFFFFFFFFFFFFFFFFF DIV DUP4 GT DUP3 ISZERO ISZERO AND ISZERO PUSH2 0x20A7 JUMPI PUSH2 0x20A6 PUSH2 0x1B76 JUMP JUMPDEST JUMPDEST DUP3 DUP3 MUL SWAP1 POP SWAP3 SWAP2 POP POP JUMP JUMPDEST PUSH1 0x0 PUSH1 0xFF DUP3 AND SWAP1 POP SWAP2 SWAP1 POP JUMP JUMPDEST PUSH1 0x0 PUSH2 0x20CA DUP3 PUSH2 0x20B2 JUMP JUMPDEST SWAP2 POP PUSH2 0x20D5 DUP4 PUSH2 0x20B2 JUMP JUMPDEST SWAP3 POP DUP3 PUSH1 0xFF SUB DUP3 GT ISZERO PUSH2 0x20EB JUMPI PUSH2 0x20EA PUSH2 0x1B76 JUMP JUMPDEST JUMPDEST DUP3 DUP3 ADD SWAP1 POP SWAP3 SWAP2 POP POP JUMP JUMPDEST PUSH32 0x7B2274726169745F74797065223A202200000000000000000000000000000000 DUP2 MSTORE POP JUMP JUMPDEST PUSH32 0x222C202276616C7565223A202200000000000000000000000000000000000000 DUP2 MSTORE POP JUMP JUMPDEST PUSH32 0x227D000000000000000000000000000000000000000000000000000000000000 DUP2 MSTORE POP JUMP JUMPDEST PUSH1 0x0 PUSH2 0x2173 DUP3 PUSH2 0x20F6 JUMP JUMPDEST PUSH1 0x10 DUP3 ADD SWAP2 POP PUSH2 0x2183 DUP3 DUP6 PUSH2 0x1B23 JUMP JUMPDEST SWAP2 POP PUSH2 0x218E DUP3 PUSH2 0x211C JUMP JUMPDEST PUSH1 0xD DUP3 ADD SWAP2 POP PUSH2 0x219E DUP3 DUP5 PUSH2 0x1B23 JUMP JUMPDEST SWAP2 POP PUSH2 0x21A9 DUP3 PUSH2 0x2142 JUMP JUMPDEST PUSH1 0x2 DUP3 ADD SWAP2 POP DUP2 SWAP1 POP SWAP4 SWAP3 POP POP POP JUMP JUMPDEST PUSH1 0x0 PUSH2 0x21C4 DUP3 PUSH2 0x20B2 JUMP JUMPDEST SWAP2 POP PUSH2 0x21CF DUP4 PUSH2 0x20B2 JUMP JUMPDEST SWAP3 POP DUP3 PUSH2 0x21DF JUMPI PUSH2 0x21DE PUSH2 0x1FC4 JUMP JUMPDEST JUMPDEST DUP3 DUP3 DIV SWAP1 POP SWAP3 SWAP2 POP POP JUMP JUMPDEST PUSH32 0x3C73766720786D6C6E733D22687474703A2F2F7777772E77332E6F72672F3230 PUSH1 0x0 DUP3 ADD MSTORE PUSH32 0x30302F737667222077696474683D2233303022206865696768743D2233303022 PUSH1 0x20 DUP3 ADD MSTORE PUSH32 0x207374796C653D226261636B67726F756E643A236666662220786D6C6E733A78 PUSH1 0x40 DUP3 ADD MSTORE PUSH32 0x6C696E6B3D22687474703A2F2F7777772E77332E6F72672F313939392F786C69 PUSH1 0x60 DUP3 ADD MSTORE PUSH32 0x6E6B223E00000000000000000000000000000000000000000000000000000000 PUSH1 0x80 DUP3 ADD MSTORE POP JUMP JUMPDEST PUSH1 0x0 PUSH2 0x22B8 PUSH1 0x84 DUP4 PUSH2 0x1ACC JUMP JUMPDEST SWAP2 POP PUSH2 0x22C3 DUP3 PUSH2 0x21EA JUMP JUMPDEST PUSH1 0x84 DUP3 ADD SWAP1 POP SWAP2 SWAP1 POP JUMP JUMPDEST PUSH32 0x3C672069643D22656E74697265223E0000000000000000000000000000000000 DUP2 MSTORE POP JUMP JUMPDEST PUSH32 0x3C75736520786C696E6B3A687265663D2223666C6F7765722220636C69702D70 PUSH1 0x0 DUP3 ADD MSTORE PUSH32 0x6174683D2275726C282368616C66436C69702922207472616E73666F726D3D22 PUSH1 0x20 DUP3 ADD MSTORE PUSH32 0x726F7461746528302C203135302C2031353029222F3E00000000000000000000 PUSH1 0x40 DUP3 ADD MSTORE POP JUMP JUMPDEST PUSH1 0x0 PUSH2 0x2376 PUSH1 0x56 DUP4 PUSH2 0x1ACC JUMP JUMPDEST SWAP2 POP PUSH2 0x2381 DUP3 PUSH2 0x22F4 JUMP JUMPDEST PUSH1 0x56 DUP3 ADD SWAP1 POP SWAP2 SWAP1 POP JUMP JUMPDEST PUSH32 0x3C75736520786C696E6B3A687265663D2223666C6F7765722220636C69702D70 PUSH1 0x0 DUP3 ADD MSTORE PUSH32 0x6174683D2275726C282368616C66436C69702922207472616E73666F726D3D22 PUSH1 0x20 DUP3 ADD MSTORE PUSH32 0x726F74617465283138302C203135302C2031353029222F3E0000000000000000 PUSH1 0x40 DUP3 ADD MSTORE POP JUMP JUMPDEST PUSH1 0x0 PUSH2 0x240E PUSH1 0x58 DUP4 PUSH2 0x1ACC JUMP JUMPDEST SWAP2 POP PUSH2 0x2419 DUP3 PUSH2 0x238C JUMP JUMPDEST PUSH1 0x58 DUP3 ADD SWAP1 POP SWAP2 SWAP1 POP JUMP JUMPDEST PUSH32 0x3C2F673E00000000000000000000000000000000000000000000000000000000 DUP2 MSTORE POP JUMP JUMPDEST PUSH32 0x3C2F7376673E0000000000000000000000000000000000000000000000000000 DUP2 MSTORE POP JUMP JUMPDEST PUSH1 0x0 PUSH2 0x247B DUP3 PUSH2 0x22AB JUMP JUMPDEST SWAP2 POP PUSH2 0x2487 DUP3 DUP7 PUSH2 0x1B23 JUMP JUMPDEST SWAP2 POP PUSH2 0x2493 DUP3 DUP6 PUSH2 0x1B23 JUMP JUMPDEST SWAP2 POP PUSH2 0x249E DUP3 PUSH2 0x22CE JUMP JUMPDEST PUSH1 0xF DUP3 ADD SWAP2 POP PUSH2 0x24AE DUP3 DUP5 PUSH2 0x1B23 JUMP JUMPDEST SWAP2 POP PUSH2 0x24B9 DUP3 PUSH2 0x2369 JUMP JUMPDEST SWAP2 POP PUSH2 0x24C4 DUP3 PUSH2 0x2401 JUMP JUMPDEST SWAP2 POP PUSH2 0x24CF DUP3 PUSH2 0x2424 JUMP JUMPDEST PUSH1 0x4 DUP3 ADD SWAP2 POP PUSH2 0x24DE DUP3 PUSH2 0x244A JUMP JUMPDEST PUSH1 0x6 DUP3 ADD SWAP2 POP DUP2 SWAP1 POP SWAP5 SWAP4 POP POP POP POP JUMP JUMPDEST PUSH32 0x746F55696E74385F6F766572666C6F7700000000000000000000000000000000 PUSH1 0x0 DUP3 ADD MSTORE POP JUMP JUMPDEST PUSH1 0x0 PUSH2 0x2525 PUSH1 0x10 DUP4 PUSH2 0x15F7 JUMP JUMPDEST SWAP2 POP PUSH2 0x2530 DUP3 PUSH2 0x24EF JUMP JUMPDEST PUSH1 0x20 DUP3 ADD SWAP1 POP SWAP2 SWAP1 POP JUMP JUMPDEST PUSH1 0x0 PUSH1 0x20 DUP3 ADD SWAP1 POP DUP2 DUP2 SUB PUSH1 0x0 DUP4 ADD MSTORE PUSH2 0x2554 DUP2 PUSH2 0x2518 JUMP JUMPDEST SWAP1 POP SWAP2 SWAP1 POP JUMP JUMPDEST PUSH32 0x746F55696E74385F6F75744F66426F756E647300000000000000000000000000 PUSH1 0x0 DUP3 ADD MSTORE POP JUMP JUMPDEST PUSH1 0x0 PUSH2 0x2591 PUSH1 0x13 DUP4 PUSH2 0x15F7 JUMP JUMPDEST SWAP2 POP PUSH2 0x259C DUP3 PUSH2 0x255B JUMP JUMPDEST PUSH1 0x20 DUP3 ADD SWAP1 POP SWAP2 SWAP1 POP JUMP JUMPDEST PUSH1 0x0 PUSH1 0x20 DUP3 ADD SWAP1 POP DUP2 DUP2 SUB PUSH1 0x0 DUP4 ADD MSTORE PUSH2 0x25C0 DUP2 PUSH2 0x2584 JUMP JUMPDEST SWAP1 POP SWAP2 SWAP1 POP JUMP JUMPDEST PUSH32 0x3C66696C7465722069643D22626C7572223E0000000000000000000000000000 DUP2 MSTORE POP JUMP JUMPDEST PUSH32 0x3C6665476175737369616E426C757220737464446576696174696F6E3D223122 PUSH1 0x0 DUP3 ADD MSTORE PUSH32 0x2F3E000000000000000000000000000000000000000000000000000000000000 PUSH1 0x20 DUP3 ADD MSTORE POP JUMP JUMPDEST PUSH1 0x0 PUSH2 0x2649 PUSH1 0x22 DUP4 PUSH2 0x1ACC JUMP JUMPDEST SWAP2 POP PUSH2 0x2654 DUP3 PUSH2 0x25ED JUMP JUMPDEST PUSH1 0x22 DUP3 ADD SWAP1 POP SWAP2 SWAP1 POP JUMP JUMPDEST PUSH32 0x3C2F66696C7465723E0000000000000000000000000000000000000000000000 DUP2 MSTORE POP JUMP JUMPDEST PUSH32 0x3C66696C7465722069643D227368617270223E00000000000000000000000000 DUP2 MSTORE POP JUMP JUMPDEST PUSH32 0x3C636C6970506174682069643D22626C7572436C6970223E0000000000000000 DUP2 MSTORE POP JUMP JUMPDEST PUSH32 0x3C7265637420783D223135302220793D22313530222077696474683D22333030 PUSH1 0x0 DUP3 ADD MSTORE PUSH32 0x22206865696768743D22333030222F3E00000000000000000000000000000000 PUSH1 0x20 DUP3 ADD MSTORE POP JUMP JUMPDEST PUSH1 0x0 PUSH2 0x272D PUSH1 0x30 DUP4 PUSH2 0x1ACC JUMP JUMPDEST SWAP2 POP PUSH2 0x2738 DUP3 PUSH2 0x26D1 JUMP JUMPDEST PUSH1 0x30 DUP3 ADD SWAP1 POP SWAP2 SWAP1 POP JUMP JUMPDEST PUSH32 0x3C2F636C6970506174683E000000000000000000000000000000000000000000 DUP2 MSTORE POP JUMP JUMPDEST PUSH32 0x3C636C6970506174682069643D227061747465726E436C6970223E0000000000 DUP2 MSTORE POP JUMP JUMPDEST PUSH32 0x3C7061746820643D224D2031353020313530204C200000000000000000000000 DUP2 MSTORE POP JUMP JUMPDEST PUSH32 0x2031353020512000000000000000000000000000000000000000000000000000 DUP2 MSTORE POP JUMP JUMPDEST PUSH32 0x2031353020000000000000000000000000000000000000000000000000000000 DUP2 MSTORE POP JUMP JUMPDEST PUSH32 0x205A222F3E3C2F636C6970506174683E00000000000000000000000000000000 DUP2 MSTORE POP JUMP JUMPDEST PUSH32 0x3C636C6970506174682069643D2268616C66436C6970223E0000000000000000 DUP2 MSTORE POP JUMP JUMPDEST PUSH32 0x3C72656374207472616E73666F726D3D22726F7461746528312C203135302C20 PUSH1 0x0 DUP3 ADD MSTORE PUSH32 0x31353029222077696474683D2232363022206865696768743D22363130222078 PUSH1 0x20 DUP3 ADD MSTORE PUSH32 0x3D222D3131302220793D222D313130222F3E0000000000000000000000000000 PUSH1 0x40 DUP3 ADD MSTORE POP JUMP JUMPDEST PUSH1 0x0 PUSH2 0x28CF PUSH1 0x52 DUP4 PUSH2 0x1ACC JUMP JUMPDEST SWAP2 POP PUSH2 0x28DA DUP3 PUSH2 0x284D JUMP JUMPDEST PUSH1 0x52 DUP3 ADD SWAP1 POP SWAP2 SWAP1 POP JUMP JUMPDEST PUSH1 0x0 PUSH2 0x28F0 DUP3 PUSH2 0x25C7 JUMP JUMPDEST PUSH1 0x12 DUP3 ADD SWAP2 POP PUSH2 0x2900 DUP3 DUP10 PUSH2 0x1B23 JUMP JUMPDEST SWAP2 POP PUSH2 0x290B DUP3 PUSH2 0x263C JUMP JUMPDEST SWAP2 POP PUSH2 0x2916 DUP3 PUSH2 0x265F JUMP JUMPDEST PUSH1 0x9 DUP3 ADD SWAP2 POP PUSH2 0x2925 DUP3 PUSH2 0x2685 JUMP JUMPDEST PUSH1 0x13 DUP3 ADD SWAP2 POP PUSH2 0x2935 DUP3 DUP9 PUSH2 0x1B23 JUMP JUMPDEST SWAP2 POP PUSH2 0x2940 DUP3 PUSH2 0x265F JUMP JUMPDEST PUSH1 0x9 DUP3 ADD SWAP2 POP PUSH2 0x294F DUP3 PUSH2 0x26AB JUMP JUMPDEST PUSH1 0x18 DUP3 ADD SWAP2 POP PUSH2 0x295E DUP3 PUSH2 0x2720 JUMP JUMPDEST SWAP2 POP PUSH2 0x2969 DUP3 PUSH2 0x2743 JUMP JUMPDEST PUSH1 0xB DUP3 ADD SWAP2 POP PUSH2 0x2978 DUP3 PUSH2 0x2769 JUMP JUMPDEST PUSH1 0x1B DUP3 ADD SWAP2 POP PUSH2 0x2987 DUP3 PUSH2 0x278F JUMP JUMPDEST PUSH1 0x15 DUP3 ADD SWAP2 POP PUSH2 0x2997 DUP3 DUP8 PUSH2 0x1B23 JUMP JUMPDEST SWAP2 POP PUSH2 0x29A2 DUP3 PUSH2 0x27B5 JUMP JUMPDEST PUSH1 0x7 DUP3 ADD SWAP2 POP PUSH2 0x29B2 DUP3 DUP7 PUSH2 0x1B23 JUMP JUMPDEST SWAP2 POP PUSH2 0x29BD DUP3 PUSH2 0x1C93 JUMP JUMPDEST PUSH1 0x1 DUP3 ADD SWAP2 POP PUSH2 0x29CD DUP3 DUP6 PUSH2 0x1B23 JUMP JUMPDEST SWAP2 POP PUSH2 0x29D8 DUP3 PUSH2 0x27DB JUMP JUMPDEST PUSH1 0x5 DUP3 ADD SWAP2 POP PUSH2 0x29E8 DUP3 DUP5 PUSH2 0x1B23 JUMP JUMPDEST SWAP2 POP PUSH2 0x29F3 DUP3 PUSH2 0x2801 JUMP JUMPDEST PUSH1 0x10 DUP3 ADD SWAP2 POP PUSH2 0x2A02 DUP3 PUSH2 0x2827 JUMP JUMPDEST PUSH1 0x18 DUP3 ADD SWAP2 POP PUSH2 0x2A11 DUP3 PUSH2 0x28C2 JUMP JUMPDEST SWAP2 POP PUSH2 0x2A1C DUP3 PUSH2 0x2743 JUMP JUMPDEST PUSH1 0xB DUP3 ADD SWAP2 POP DUP2 SWAP1 POP SWAP8 SWAP7 POP POP POP POP POP POP POP JUMP JUMPDEST PUSH32 0x3C646566733E0000000000000000000000000000000000000000000000000000 DUP2 MSTORE POP JUMP JUMPDEST PUSH32 0x3C726563742069643D227461702220783D223135302220793D22313530222077 PUSH1 0x0 DUP3 ADD MSTORE PUSH32 0x696474683D220000000000000000000000000000000000000000000000000000 PUSH1 0x20 DUP3 ADD MSTORE POP JUMP JUMPDEST PUSH1 0x0 PUSH2 0x2AB2 PUSH1 0x26 DUP4 PUSH2 0x1ACC JUMP JUMPDEST SWAP2 POP PUSH2 0x2ABD DUP3 PUSH2 0x2A56 JUMP JUMPDEST PUSH1 0x26 DUP3 ADD SWAP1 POP SWAP2 SWAP1 POP JUMP JUMPDEST PUSH32 0x22206865696768743D2200000000000000000000000000000000000000000000 DUP2 MSTORE POP JUMP JUMPDEST PUSH32 0x222066696C7465723D2275726C2823736861727029222F3E0000000000000000 DUP2 MSTORE POP JUMP JUMPDEST PUSH32 0x3C726563742069643D22626C75727461702220783D223135302220793D223135 PUSH1 0x0 DUP3 ADD MSTORE PUSH32 0x30222077696474683D2235303022206865696768743D22353030222066696C74 PUSH1 0x20 DUP3 ADD MSTORE PUSH32 0x65723D2275726C2823626C757229222F3E000000000000000000000000000000 PUSH1 0x40 DUP3 ADD MSTORE POP JUMP JUMPDEST PUSH1 0x0 PUSH2 0x2B96 PUSH1 0x51 DUP4 PUSH2 0x1ACC JUMP JUMPDEST SWAP2 POP PUSH2 0x2BA1 DUP3 PUSH2 0x2B14 JUMP JUMPDEST PUSH1 0x51 DUP3 ADD SWAP1 POP SWAP2 SWAP1 POP JUMP JUMPDEST PUSH32 0x3C706174682069643D2270746C2220643D224D20313530203135302051200000 DUP2 MSTORE POP JUMP JUMPDEST PUSH32 0x2031353020313530205A22207374726F6B653D22626C61636B222F3E00000000 DUP2 MSTORE POP JUMP JUMPDEST PUSH32 0x3C672069643D22666C6F776572223E0000000000000000000000000000000000 DUP2 MSTORE POP JUMP JUMPDEST PUSH32 0x3C2F673E3C2F646566733E000000000000000000000000000000000000000000 DUP2 MSTORE POP JUMP JUMPDEST PUSH1 0x0 PUSH2 0x2C4F DUP3 PUSH2 0x2A30 JUMP JUMPDEST PUSH1 0x6 DUP3 ADD SWAP2 POP PUSH2 0x2C5E DUP3 PUSH2 0x2AA5 JUMP JUMPDEST SWAP2 POP PUSH2 0x2C6A DUP3 DUP12 PUSH2 0x1B23 JUMP JUMPDEST SWAP2 POP PUSH2 0x2C75 DUP3 PUSH2 0x2AC8 JUMP JUMPDEST PUSH1 0xA DUP3 ADD SWAP2 POP PUSH2 0x2C85 DUP3 DUP11 PUSH2 0x1B23 JUMP JUMPDEST SWAP2 POP PUSH2 0x2C90 DUP3 PUSH2 0x2AEE JUMP JUMPDEST PUSH1 0x18 DUP3 ADD SWAP2 POP PUSH2 0x2C9F DUP3 PUSH2 0x2B89 JUMP JUMPDEST SWAP2 POP PUSH2 0x2CAA DUP3 PUSH2 0x2BAC JUMP JUMPDEST PUSH1 0x1E DUP3 ADD SWAP2 POP PUSH2 0x2CBA DUP3 DUP10 PUSH2 0x1B23 JUMP JUMPDEST SWAP2 POP PUSH2 0x2CC5 DUP3 PUSH2 0x1C93 JUMP JUMPDEST PUSH1 0x1 DUP3 ADD SWAP2 POP PUSH2 0x2CD5 DUP3 DUP9 PUSH2 0x1B23 JUMP JUMPDEST SWAP2 POP PUSH2 0x2CE0 DUP3 PUSH2 0x27DB JUMP JUMPDEST PUSH1 0x5 DUP3 ADD SWAP2 POP PUSH2 0x2CF0 DUP3 DUP8 PUSH2 0x1B23 JUMP JUMPDEST SWAP2 POP PUSH2 0x2CFB DUP3 PUSH2 0x1C93 JUMP JUMPDEST PUSH1 0x1 DUP3 ADD SWAP2 POP PUSH2 0x2D0B DUP3 DUP7 PUSH2 0x1B23 JUMP JUMPDEST SWAP2 POP PUSH2 0x2D16 DUP3 PUSH2 0x1C93 JUMP JUMPDEST PUSH1 0x1 DUP3 ADD SWAP2 POP PUSH2 0x2D26 DUP3 DUP6 PUSH2 0x1B23 JUMP JUMPDEST SWAP2 POP PUSH2 0x2D31 DUP3 PUSH2 0x2BD2 JUMP JUMPDEST PUSH1 0x1C DUP3 ADD SWAP2 POP PUSH2 0x2D40 DUP3 PUSH2 0x2BF8 JUMP JUMPDEST PUSH1 0xF DUP3 ADD SWAP2 POP PUSH2 0x2D50 DUP3 DUP5 PUSH2 0x1B23 JUMP JUMPDEST SWAP2 POP PUSH2 0x2D5B DUP3 PUSH2 0x2C1E JUMP JUMPDEST PUSH1 0xB DUP3 ADD SWAP2 POP DUP2 SWAP1 POP SWAP10 SWAP9 POP POP POP POP POP POP POP POP POP JUMP JUMPDEST PUSH1 0x0 PUSH2 0x2D7D DUP3 DUP7 PUSH2 0x1B23 JUMP JUMPDEST SWAP2 POP PUSH2 0x2D89 DUP3 DUP6 PUSH2 0x1B23 JUMP JUMPDEST SWAP2 POP PUSH2 0x2D95 DUP3 DUP5 PUSH2 0x1B23 JUMP JUMPDEST SWAP2 POP DUP2 SWAP1 POP SWAP5 SWAP4 POP POP POP POP JUMP JUMPDEST PUSH1 0x0 PUSH2 0x2DAE DUP3 DUP6 PUSH2 0x1B23 JUMP JUMPDEST SWAP2 POP PUSH2 0x2DBA DUP3 DUP5 PUSH2 0x1B23 JUMP JUMPDEST SWAP2 POP DUP2 SWAP1 POP SWAP4 SWAP3 POP POP POP JUMP JUMPDEST PUSH1 0x0 PUSH2 0x2DD1 DUP3 PUSH2 0x20B2 JUMP JUMPDEST SWAP2 POP PUSH2 0x2DDC DUP4 PUSH2 0x20B2 JUMP JUMPDEST SWAP3 POP DUP3 DUP3 LT ISZERO PUSH2 0x2DEF JUMPI PUSH2 0x2DEE PUSH2 0x1B76 JUMP JUMPDEST JUMPDEST DUP3 DUP3 SUB SWAP1 POP SWAP3 SWAP2 POP POP JUMP JUMPDEST PUSH32 0x3D00000000000000000000000000000000000000000000000000000000000000 DUP2 MSTORE POP JUMP JUMPDEST PUSH32 0x2200000000000000000000000000000000000000000000000000000000000000 DUP2 MSTORE POP JUMP JUMPDEST PUSH32 0x2220000000000000000000000000000000000000000000000000000000000000 DUP2 MSTORE POP JUMP JUMPDEST PUSH1 0x0 PUSH2 0x2E78 DUP3 DUP6 PUSH2 0x1B23 JUMP JUMPDEST SWAP2 POP PUSH2 0x2E83 DUP3 PUSH2 0x2DFA JUMP JUMPDEST PUSH1 0x1 DUP3 ADD SWAP2 POP PUSH2 0x2E92 DUP3 PUSH2 0x2E20 JUMP JUMPDEST PUSH1 0x1 DUP3 ADD SWAP2 POP PUSH2 0x2EA2 DUP3 DUP5 PUSH2 0x1B23 JUMP JUMPDEST SWAP2 POP PUSH2 0x2EAD DUP3 PUSH2 0x2E46 JUMP JUMPDEST PUSH1 0x2 DUP3 ADD SWAP2 POP DUP2 SWAP1 POP SWAP4 SWAP3 POP POP POP JUMP JUMPDEST PUSH32 0x3C00000000000000000000000000000000000000000000000000000000000000 DUP2 MSTORE POP JUMP JUMPDEST PUSH32 0x2F3E000000000000000000000000000000000000000000000000000000000000 DUP2 MSTORE POP JUMP JUMPDEST PUSH1 0x0 PUSH2 0x2F14 DUP3 PUSH2 0x2EBD JUMP JUMPDEST PUSH1 0x1 DUP3 ADD SWAP2 POP PUSH2 0x2F24 DUP3 DUP6 PUSH2 0x1B23 JUMP JUMPDEST SWAP2 POP PUSH2 0x2F2F DUP3 PUSH2 0x1C93 JUMP JUMPDEST PUSH1 0x1 DUP3 ADD SWAP2 POP PUSH2 0x2F3F DUP3 DUP5 PUSH2 0x1B23 JUMP JUMPDEST SWAP2 POP PUSH2 0x2F4A DUP3 PUSH2 0x2EE3 JUMP JUMPDEST PUSH1 0x2 DUP3 ADD SWAP2 POP DUP2 SWAP1 POP SWAP4 SWAP3 POP POP POP JUMP JUMPDEST PUSH32 0x3C75736520786C696E6B3A687265663D2223626C757274617022207472616E73 PUSH1 0x0 DUP3 ADD MSTORE PUSH32 0x666F726D3D22726F746174652800000000000000000000000000000000000000 PUSH1 0x20 DUP3 ADD MSTORE POP JUMP JUMPDEST PUSH1 0x0 PUSH2 0x2FB6 PUSH1 0x2D DUP4 PUSH2 0x1ACC JUMP JUMPDEST SWAP2 POP PUSH2 0x2FC1 DUP3 PUSH2 0x2F5A JUMP JUMPDEST PUSH1 0x2D DUP3 ADD SWAP1 POP SWAP2 SWAP1 POP JUMP JUMPDEST PUSH32 0x2C203135302C20313530292220636C69702D706174683D2275726C2823626C75 PUSH1 0x0 DUP3 ADD MSTORE PUSH32 0x72436C697029222F3E0000000000000000000000000000000000000000000000 PUSH1 0x20 DUP3 ADD MSTORE POP JUMP JUMPDEST PUSH1 0x0 PUSH2 0x3028 PUSH1 0x29 DUP4 PUSH2 0x1ACC JUMP JUMPDEST SWAP2 POP PUSH2 0x3033 DUP3 PUSH2 0x2FCC JUMP JUMPDEST PUSH1 0x29 DUP3 ADD SWAP1 POP SWAP2 SWAP1 POP JUMP JUMPDEST PUSH32 0x3C75736520786C696E6B3A687265663D222374617022207472616E73666F726D PUSH1 0x0 DUP3 ADD MSTORE PUSH32 0x3D22726F74617465280000000000000000000000000000000000000000000000 PUSH1 0x20 DUP3 ADD MSTORE POP JUMP JUMPDEST PUSH1 0x0 PUSH2 0x309A PUSH1 0x29 DUP4 PUSH2 0x1ACC JUMP JUMPDEST SWAP2 POP PUSH2 0x30A5 DUP3 PUSH2 0x303E JUMP JUMPDEST PUSH1 0x29 DUP3 ADD SWAP1 POP SWAP2 SWAP1 POP JUMP JUMPDEST PUSH32 0x2C203135302C20313530292220636C69702D706174683D2275726C2823706174 PUSH1 0x0 DUP3 ADD MSTORE PUSH32 0x7465726E436C697029222F3E0000000000000000000000000000000000000000 PUSH1 0x20 DUP3 ADD MSTORE POP JUMP JUMPDEST PUSH1 0x0 PUSH2 0x310C PUSH1 0x2C DUP4 PUSH2 0x1ACC JUMP JUMPDEST SWAP2 POP PUSH2 0x3117 DUP3 PUSH2 0x30B0 JUMP JUMPDEST PUSH1 0x2C DUP3 ADD SWAP1 POP SWAP2 SWAP1 POP JUMP JUMPDEST PUSH1 0x0 PUSH2 0x312D DUP3 PUSH2 0x2FA9 JUMP JUMPDEST SWAP2 POP PUSH2 0x3139 DUP3 DUP6 PUSH2 0x1B23 JUMP JUMPDEST SWAP2 POP PUSH2 0x3144 DUP3 PUSH2 0x301B JUMP JUMPDEST SWAP2 POP PUSH2 0x314F DUP3 PUSH2 0x308D JUMP JUMPDEST SWAP2 POP PUSH2 0x315B DUP3 DUP5 PUSH2 0x1B23 JUMP JUMPDEST SWAP2 POP PUSH2 0x3166 DUP3 PUSH2 0x30FF JUMP JUMPDEST SWAP2 POP DUP2 SWAP1 POP SWAP4 SWAP3 POP POP POP JUMP JUMPDEST PUSH32 0x3C75736520786C696E6B3A687265663D222370746C22207472616E73666F726D PUSH1 0x0 DUP3 ADD MSTORE PUSH32 0x3D22726F74617465280000000000000000000000000000000000000000000000 PUSH1 0x20 DUP3 ADD MSTORE POP JUMP JUMPDEST PUSH1 0x0 PUSH2 0x31CE PUSH1 0x29 DUP4 PUSH2 0x1ACC JUMP JUMPDEST SWAP2 POP PUSH2 0x31D9 DUP3 PUSH2 0x3172 JUMP JUMPDEST PUSH1 0x29 DUP3 ADD SWAP1 POP SWAP2 SWAP1 POP JUMP JUMPDEST PUSH32 0x2C203135302C2031353029222066696C6C3D2268736C28000000000000000000 DUP2 MSTORE POP JUMP JUMPDEST PUSH32 0x2C313030252C3530252922207374726F6B653D22626C61636B222F3E00000000 DUP2 MSTORE POP JUMP JUMPDEST PUSH1 0x0 PUSH2 0x323B DUP3 PUSH2 0x31C1 JUMP JUMPDEST SWAP2 POP PUSH2 0x3247 DUP3 DUP6 PUSH2 0x1B23 JUMP JUMPDEST SWAP2 POP PUSH2 0x3252 DUP3 PUSH2 0x31E4 JUMP JUMPDEST PUSH1 0x17 DUP3 ADD SWAP2 POP PUSH2 0x3262 DUP3 DUP5 PUSH2 0x1B23 JUMP JUMPDEST SWAP2 POP PUSH2 0x326D DUP3 PUSH2 0x320A JUMP JUMPDEST PUSH1 0x1C DUP3 ADD SWAP2 POP DUP2 SWAP1 POP SWAP4 SWAP3 POP POP POP JUMP INVALID EXTCODECOPY PUSH20 0x74796C653E23656E74697265207B7472616E7366 PUSH16 0x726D2D6F726967696E3A203135307078 KECCAK256 BALANCE CALLDATALOAD ADDRESS PUSH17 0x783B616E696D6174696F6E3A20726F7461 PUSH21 0x6520383073206C696E65617220696E66696E697465 EXTCODESIZE KECCAK256 PUSH30 0x406B65796672616D657320726F74617465207B66726F6D207B7472616E73 PUSH7 0x6F726D3A20726F PUSH21 0x6174652830646567293B7D746F207B7472616E7366 PUSH16 0x726D3A20726F74617465283336306465 PUSH8 0x293B7D3C2F737479 PUSH13 0x653EA2646970667358221220C4 LOG1 GASPRICE 0xCC 0x22 0xB6 CALLVALUE SWAP7 0xD5 MLOAD SHR 0xC1 0xEE PUSH14 0xDF0F3272F2C2558E1D80F2F5C613 0xDC 0xFB 0xEA 0xB5 PUSH5 0x736F6C6343 STOP ADDMOD 0xC STOP CALLER "},"methodIdentifiers":{"approve(address,uint256)":"095ea7b3","balanceOf(address)":"70a08231","changeDescriptor(address)":"6ddab6f9","claimed(address)":"c884ef83","deluxeBuyableSupply()":"c35ab716","descriptor()":"303e74df","endDate()":"c24a0f8b","generateBase64Image(uint256)":"a48b3b8f","generateFullImageFromVM(uint256,address,bool)":"fd85b89f","generateImage(uint256)":"4b44d812","generateTraits(uint256)":"79b92f27","generateTraitsWithSeedAndAddress(uint256,address,bool)":"90346fd4","getApproved(uint256)":"081812fc","isApprovedForAll(address,address)":"e985e9c5","loyalMint(bytes32[])":"aba048b4","loyalMintLeaf(bytes32[],address)":"423d7939","loyaltyRoot()":"6d9ec494","mint()":"1249c58b","mintDeluxe(uint256)":"6a9f60c4","name()":"06fdde03","owner()":"8da5cb5b","ownerOf(uint256)":"6352211e","recipient()":"66d003ac","safeTransferFrom(address,address,uint256)":"42842e0e","safeTransferFrom(address,address,uint256,bytes)":"b88d4fde","setApprovalForAll(address,bool)":"a22cb465","startDate()":"0b97bc86","supportsInterface(bytes4)":"01ffc9a7","symbol()":"95d89b41","tokenURI(uint256)":"c87b56dd","transferFrom(address,address,uint256)":"23b872dd","withdrawETH()":"e086e5ec"}}}}}