{"contracts/splits/Splitter.sol":{"Splitter":{"abi":[{"anonymous":false,"inputs":[{"indexed":false,"internalType":"address","name":"account","type":"address"},{"indexed":false,"internalType":"uint256","name":"amount","type":"uint256"},{"indexed":false,"internalType":"bool","name":"success","type":"bool"}],"name":"TransferETH","type":"event"},{"anonymous":false,"inputs":[{"indexed":false,"internalType":"uint256","name":"currentWindow","type":"uint256"},{"indexed":false,"internalType":"uint256","name":"fundsAvailable","type":"uint256"}],"name":"WindowIncremented","type":"event"},{"inputs":[],"name":"PERCENTAGE_SCALE","outputs":[{"internalType":"uint256","name":"","type":"uint256"}],"stateMutability":"view","type":"function"},{"inputs":[{"internalType":"uint256","name":"","type":"uint256"}],"name":"balanceForWindow","outputs":[{"internalType":"uint256","name":"","type":"uint256"}],"stateMutability":"view","type":"function"},{"inputs":[{"internalType":"uint256","name":"window","type":"uint256"},{"internalType":"address","name":"account","type":"address"},{"internalType":"uint256","name":"scaledPercentageAllocation","type":"uint256"},{"internalType":"bytes32[]","name":"merkleProof","type":"bytes32[]"}],"name":"claim","outputs":[],"stateMutability":"nonpayable","type":"function"},{"inputs":[{"internalType":"address","name":"account","type":"address"},{"internalType":"uint256","name":"percentageAllocation","type":"uint256"},{"internalType":"bytes32[]","name":"merkleProof","type":"bytes32[]"}],"name":"claimForAllWindows","outputs":[],"stateMutability":"nonpayable","type":"function"},{"inputs":[],"name":"currentWindow","outputs":[{"internalType":"uint256","name":"","type":"uint256"}],"stateMutability":"view","type":"function"},{"inputs":[],"name":"incrementWindow","outputs":[],"stateMutability":"nonpayable","type":"function"},{"inputs":[{"internalType":"uint256","name":"window","type":"uint256"},{"internalType":"address","name":"account","type":"address"}],"name":"isClaimed","outputs":[{"internalType":"bool","name":"","type":"bool"}],"stateMutability":"view","type":"function"},{"inputs":[],"name":"merkleRoot","outputs":[{"internalType":"bytes32","name":"","type":"bytes32"}],"stateMutability":"view","type":"function"},{"inputs":[{"internalType":"uint256","name":"amount","type":"uint256"},{"internalType":"uint256","name":"scaledPercent","type":"uint256"}],"name":"scaleAmountByPercentage","outputs":[{"internalType":"uint256","name":"scaledAmount","type":"uint256"}],"stateMutability":"pure","type":"function"}],"evm":{"bytecode":{"linkReferences":{},"object":"608060405234801561001057600080fd5b50611266806100206000396000f3fe608060405234801561001057600080fd5b50600436106100935760003560e01c80633f26479e116100665780633f26479e146100f857806381e580d3146101165780638ffb5c9714610146578063ba0bafb414610176578063d2ef07951461019457610093565b80631e7df9d3146100985780632e7ba6ef146100b45780632eb4a7ab146100d0578063338b1d31146100ee575b600080fd5b6100b260048036038101906100ad9190610a10565b6101c4565b005b6100ce60048036038101906100c99190610a84565b6102dc565b005b6100d8610443565b6040516100e59190610b25565b60405180910390f35b6100f6610449565b005b61010061052e565b60405161010d9190610b4f565b60405180910390f35b610130600480360381019061012b9190610b6a565b610535565b60405161013d9190610b4f565b60405180910390f35b610160600480360381019061015b9190610b97565b610559565b60405161016d9190610b4f565b60405180910390f35b61017e610589565b60405161018b9190610b4f565b60405180910390f35b6101ae60048036038101906101a99190610bd7565b61058f565b6040516101bb9190610c32565b60405180910390f35b61021b828280806020026020016040519081016040528093929190818152602001838360200280828437600081840152601f19601f8201169050808301925050505050505060005461021687876105c3565b6105f6565b61025a576040517f08c379a000000000000000000000000000000000000000000000000000000000815260040161025190610caa565b60405180910390fd5b6000805b6001548110156102c957610272818761058f565b6102b65761028081876106ac565b6102a86004828154811061029757610296610cca565b5b906000526020600020015486610559565b826102b39190610d28565b91505b80806102c190610d7e565b91505061025e565b506102d485826106e5565b505050505050565b8460015411610320576040517f08c379a000000000000000000000000000000000000000000000000000000000815260040161031790610e13565b60405180910390fd5b61032a858561058f565b1561036a576040517f08c379a000000000000000000000000000000000000000000000000000000000815260040161036190610ea5565b60405180910390fd5b61037485856106ac565b6103cb828280806020026020016040519081016040528093929190818152602001838360200280828437600081840152601f19601f820116905080830192505050505050506000546103c687876105c3565b6105f6565b61040a576040517f08c379a000000000000000000000000000000000000000000000000000000000815260040161040190610caa565b60405180910390fd5b61043b846104366004888154811061042557610424610cca565b5b906000526020600020015486610559565b6106e5565b505050505050565b60005481565b600080600154141561045d57479050610463565b60065490505b6000600681905550600081116104ae576040517f08c379a00000000000000000000000000000000000000000000000000000000081526004016104a590610f11565b60405180910390fd5b600481908060018154018082558091505060019003906000526020600020016000909190919091505560018060008282546104e99190610d28565b925050819055507ff0840b82b46c1dc7df62cae652baa1b5588ce37b6a1236ed1dcf4caf34d738ac60015482604051610523929190610f31565b60405180910390a150565b620f424081565b6004818154811061054557600080fd5b906000526020600020016000915090505481565b6000620f4240606461056b9190610f5a565b82846105779190610f5a565b6105819190610fe3565b905092915050565b60015481565b60006005600061059f858561085e565b815260200190815260200160002060009054906101000a900460ff16905092915050565b600082826040516020016105d892919061107d565b60405160208183030381529060405280519060200120905092915050565b60008082905060005b855181101561069e57600086828151811061061d5761061c610cca565b5b6020026020010151905080831161065e5782816040516020016106419291906110ca565b60405160208183030381529060405280519060200120925061068a565b80836040516020016106719291906110ca565b6040516020818303038152906040528051906020012092505b50808061069690610d7e565b9150506105ff565b508381149150509392505050565b6001600560006106bc858561085e565b815260200190815260200160002060006101000a81548160ff0219169083151502179055505050565b60006106f18383610891565b90508061081d57600260009054906101000a900473ffffffffffffffffffffffffffffffffffffffff1673ffffffffffffffffffffffffffffffffffffffff1663d0e30db0836040518263ffffffff1660e01b81526004016000604051808303818588803b15801561076257600080fd5b505af1158015610776573d6000803e3d6000fd5b5050505050600260009054906101000a900473ffffffffffffffffffffffffffffffffffffffff1673ffffffffffffffffffffffffffffffffffffffff1663a9059cbb84846040518363ffffffff1660e01b81526004016107d8929190611105565b6020604051808303816000875af11580156107f7573d6000803e3d6000fd5b505050506040513d601f19601f8201168201806040525081019061081b919061115a565b505b7fdbd5389f52533f4cbd998e752125a5a4eaa0b813b399ad15f775ec0e8438620d83838360405161085093929190611187565b60405180910390a192915050565b600082826040516020016108739291906111be565b60405160208183030381529060405280519060200120905092915050565b6000808373ffffffffffffffffffffffffffffffffffffffff1683617530906040516108bc9061121b565b600060405180830381858888f193505050503d80600081146108fa576040519150601f19603f3d011682016040523d82523d6000602084013e6108ff565b606091505b505090508091505092915050565b600080fd5b600080fd5b600073ffffffffffffffffffffffffffffffffffffffff82169050919050565b600061094282610917565b9050919050565b61095281610937565b811461095d57600080fd5b50565b60008135905061096f81610949565b92915050565b6000819050919050565b61098881610975565b811461099357600080fd5b50565b6000813590506109a58161097f565b92915050565b600080fd5b600080fd5b600080fd5b60008083601f8401126109d0576109cf6109ab565b5b8235905067ffffffffffffffff8111156109ed576109ec6109b0565b5b602083019150836020820283011115610a0957610a086109b5565b5b9250929050565b60008060008060608587031215610a2a57610a2961090d565b5b6000610a3887828801610960565b9450506020610a4987828801610996565b935050604085013567ffffffffffffffff811115610a6a57610a69610912565b5b610a76878288016109ba565b925092505092959194509250565b600080600080600060808688031215610aa057610a9f61090d565b5b6000610aae88828901610996565b9550506020610abf88828901610960565b9450506040610ad088828901610996565b935050606086013567ffffffffffffffff811115610af157610af0610912565b5b610afd888289016109ba565b92509250509295509295909350565b6000819050919050565b610b1f81610b0c565b82525050565b6000602082019050610b3a6000830184610b16565b92915050565b610b4981610975565b82525050565b6000602082019050610b646000830184610b40565b92915050565b600060208284031215610b8057610b7f61090d565b5b6000610b8e84828501610996565b91505092915050565b60008060408385031215610bae57610bad61090d565b5b6000610bbc85828601610996565b9250506020610bcd85828601610996565b9150509250929050565b60008060408385031215610bee57610bed61090d565b5b6000610bfc85828601610996565b9250506020610c0d85828601610960565b9150509250929050565b60008115159050919050565b610c2c81610c17565b82525050565b6000602082019050610c476000830184610c23565b92915050565b600082825260208201905092915050565b7f496e76616c69642070726f6f6600000000000000000000000000000000000000600082015250565b6000610c94600d83610c4d565b9150610c9f82610c5e565b602082019050919050565b60006020820190508181036000830152610cc381610c87565b9050919050565b7f4e487b7100000000000000000000000000000000000000000000000000000000600052603260045260246000fd5b7f4e487b7100000000000000000000000000000000000000000000000000000000600052601160045260246000fd5b6000610d3382610975565b9150610d3e83610975565b9250827fffffffffffffffffffffffffffffffffffffffffffffffffffffffffffffffff03821115610d7357610d72610cf9565b5b828201905092915050565b6000610d8982610975565b91507fffffffffffffffffffffffffffffffffffffffffffffffffffffffffffffffff821415610dbc57610dbb610cf9565b5b600182019050919050565b7f63616e6e6f7420636c61696d20666f722061206675747572652077696e646f77600082015250565b6000610dfd602083610c4d565b9150610e0882610dc7565b602082019050919050565b60006020820190508181036000830152610e2c81610df0565b9050919050565b7f4163636f756e7420616c726561647920636c61696d656420746865206769766560008201527f6e2077696e646f77000000000000000000000000000000000000000000000000602082015250565b6000610e8f602883610c4d565b9150610e9a82610e33565b604082019050919050565b60006020820190508181036000830152610ebe81610e82565b9050919050565b7f4e6f206164646974696f6e616c2066756e647320666f722077696e646f770000600082015250565b6000610efb601e83610c4d565b9150610f0682610ec5565b602082019050919050565b60006020820190508181036000830152610f2a81610eee565b9050919050565b6000604082019050610f466000830185610b40565b610f536020830184610b40565b9392505050565b6000610f6582610975565b9150610f7083610975565b9250817fffffffffffffffffffffffffffffffffffffffffffffffffffffffffffffffff0483118215151615610fa957610fa8610cf9565b5b828202905092915050565b7f4e487b7100000000000000000000000000000000000000000000000000000000600052601260045260246000fd5b6000610fee82610975565b9150610ff983610975565b92508261100957611008610fb4565b5b828204905092915050565b60008160601b9050919050565b600061102c82611014565b9050919050565b600061103e82611021565b9050919050565b61105661105182610937565b611033565b82525050565b6000819050919050565b61107761107282610975565b61105c565b82525050565b60006110898285611045565b6014820191506110998284611066565b6020820191508190509392505050565b6000819050919050565b6110c46110bf82610b0c565b6110a9565b82525050565b60006110d682856110b3565b6020820191506110e682846110b3565b6020820191508190509392505050565b6110ff81610937565b82525050565b600060408201905061111a60008301856110f6565b6111276020830184610b40565b9392505050565b61113781610c17565b811461114257600080fd5b50565b6000815190506111548161112e565b92915050565b6000602082840312156111705761116f61090d565b5b600061117e84828501611145565b91505092915050565b600060608201905061119c60008301866110f6565b6111a96020830185610b40565b6111b66040830184610c23565b949350505050565b60006111ca8285611066565b6020820191506111da8284611045565b6014820191508190509392505050565b600081905092915050565b50565b60006112056000836111ea565b9150611210826111f5565b600082019050919050565b6000611226826111f8565b915081905091905056fea264697066735822122020e475d8acc9c094c1e0ee167182a9193c12c43b8d4008f6336343a33dae1ff264736f6c634300080c0033","opcodes":"PUSH1 0x80 PUSH1 0x40 MSTORE CALLVALUE DUP1 ISZERO PUSH2 0x10 JUMPI PUSH1 0x0 DUP1 REVERT JUMPDEST POP PUSH2 0x1266 DUP1 PUSH2 0x20 PUSH1 0x0 CODECOPY PUSH1 0x0 RETURN INVALID PUSH1 0x80 PUSH1 0x40 MSTORE CALLVALUE DUP1 ISZERO PUSH2 0x10 JUMPI PUSH1 0x0 DUP1 REVERT JUMPDEST POP PUSH1 0x4 CALLDATASIZE LT PUSH2 0x93 JUMPI PUSH1 0x0 CALLDATALOAD PUSH1 0xE0 SHR DUP1 PUSH4 0x3F26479E GT PUSH2 0x66 JUMPI DUP1 PUSH4 0x3F26479E EQ PUSH2 0xF8 JUMPI DUP1 PUSH4 0x81E580D3 EQ PUSH2 0x116 JUMPI DUP1 PUSH4 0x8FFB5C97 EQ PUSH2 0x146 JUMPI DUP1 PUSH4 0xBA0BAFB4 EQ PUSH2 0x176 JUMPI DUP1 PUSH4 0xD2EF0795 EQ PUSH2 0x194 JUMPI PUSH2 0x93 JUMP JUMPDEST DUP1 PUSH4 0x1E7DF9D3 EQ PUSH2 0x98 JUMPI DUP1 PUSH4 0x2E7BA6EF EQ PUSH2 0xB4 JUMPI DUP1 PUSH4 0x2EB4A7AB EQ PUSH2 0xD0 JUMPI DUP1 PUSH4 0x338B1D31 EQ PUSH2 0xEE JUMPI JUMPDEST PUSH1 0x0 DUP1 REVERT JUMPDEST PUSH2 0xB2 PUSH1 0x4 DUP1 CALLDATASIZE SUB DUP2 ADD SWAP1 PUSH2 0xAD SWAP2 SWAP1 PUSH2 0xA10 JUMP JUMPDEST PUSH2 0x1C4 JUMP JUMPDEST STOP JUMPDEST PUSH2 0xCE PUSH1 0x4 DUP1 CALLDATASIZE SUB DUP2 ADD SWAP1 PUSH2 0xC9 SWAP2 SWAP1 PUSH2 0xA84 JUMP JUMPDEST PUSH2 0x2DC JUMP JUMPDEST STOP JUMPDEST PUSH2 0xD8 PUSH2 0x443 JUMP JUMPDEST PUSH1 0x40 MLOAD PUSH2 0xE5 SWAP2 SWAP1 PUSH2 0xB25 JUMP JUMPDEST PUSH1 0x40 MLOAD DUP1 SWAP2 SUB SWAP1 RETURN JUMPDEST PUSH2 0xF6 PUSH2 0x449 JUMP JUMPDEST STOP JUMPDEST PUSH2 0x100 PUSH2 0x52E JUMP JUMPDEST PUSH1 0x40 MLOAD PUSH2 0x10D SWAP2 SWAP1 PUSH2 0xB4F JUMP JUMPDEST PUSH1 0x40 MLOAD DUP1 SWAP2 SUB SWAP1 RETURN JUMPDEST PUSH2 0x130 PUSH1 0x4 DUP1 CALLDATASIZE SUB DUP2 ADD SWAP1 PUSH2 0x12B SWAP2 SWAP1 PUSH2 0xB6A JUMP JUMPDEST PUSH2 0x535 JUMP JUMPDEST PUSH1 0x40 MLOAD PUSH2 0x13D SWAP2 SWAP1 PUSH2 0xB4F JUMP JUMPDEST PUSH1 0x40 MLOAD DUP1 SWAP2 SUB SWAP1 RETURN JUMPDEST PUSH2 0x160 PUSH1 0x4 DUP1 CALLDATASIZE SUB DUP2 ADD SWAP1 PUSH2 0x15B SWAP2 SWAP1 PUSH2 0xB97 JUMP JUMPDEST PUSH2 0x559 JUMP JUMPDEST PUSH1 0x40 MLOAD PUSH2 0x16D SWAP2 SWAP1 PUSH2 0xB4F JUMP JUMPDEST PUSH1 0x40 MLOAD DUP1 SWAP2 SUB SWAP1 RETURN JUMPDEST PUSH2 0x17E PUSH2 0x589 JUMP JUMPDEST PUSH1 0x40 MLOAD PUSH2 0x18B SWAP2 SWAP1 PUSH2 0xB4F JUMP JUMPDEST PUSH1 0x40 MLOAD DUP1 SWAP2 SUB SWAP1 RETURN JUMPDEST PUSH2 0x1AE PUSH1 0x4 DUP1 CALLDATASIZE SUB DUP2 ADD SWAP1 PUSH2 0x1A9 SWAP2 SWAP1 PUSH2 0xBD7 JUMP JUMPDEST PUSH2 0x58F JUMP JUMPDEST PUSH1 0x40 MLOAD PUSH2 0x1BB SWAP2 SWAP1 PUSH2 0xC32 JUMP JUMPDEST PUSH1 0x40 MLOAD DUP1 SWAP2 SUB SWAP1 RETURN JUMPDEST PUSH2 0x21B DUP3 DUP3 DUP1 DUP1 PUSH1 0x20 MUL PUSH1 0x20 ADD PUSH1 0x40 MLOAD SWAP1 DUP2 ADD PUSH1 0x40 MSTORE DUP1 SWAP4 SWAP3 SWAP2 SWAP1 DUP2 DUP2 MSTORE PUSH1 0x20 ADD DUP4 DUP4 PUSH1 0x20 MUL DUP1 DUP3 DUP5 CALLDATACOPY PUSH1 0x0 DUP2 DUP5 ADD MSTORE PUSH1 0x1F NOT PUSH1 0x1F DUP3 ADD AND SWAP1 POP DUP1 DUP4 ADD SWAP3 POP POP POP POP POP POP POP PUSH1 0x0 SLOAD PUSH2 0x216 DUP8 DUP8 PUSH2 0x5C3 JUMP JUMPDEST PUSH2 0x5F6 JUMP JUMPDEST PUSH2 0x25A JUMPI PUSH1 0x40 MLOAD PUSH32 0x8C379A000000000000000000000000000000000000000000000000000000000 DUP2 MSTORE PUSH1 0x4 ADD PUSH2 0x251 SWAP1 PUSH2 0xCAA JUMP JUMPDEST PUSH1 0x40 MLOAD DUP1 SWAP2 SUB SWAP1 REVERT JUMPDEST PUSH1 0x0 DUP1 JUMPDEST PUSH1 0x1 SLOAD DUP2 LT ISZERO PUSH2 0x2C9 JUMPI PUSH2 0x272 DUP2 DUP8 PUSH2 0x58F JUMP JUMPDEST PUSH2 0x2B6 JUMPI PUSH2 0x280 DUP2 DUP8 PUSH2 0x6AC JUMP JUMPDEST PUSH2 0x2A8 PUSH1 0x4 DUP3 DUP2 SLOAD DUP2 LT PUSH2 0x297 JUMPI PUSH2 0x296 PUSH2 0xCCA JUMP JUMPDEST JUMPDEST SWAP1 PUSH1 0x0 MSTORE PUSH1 0x20 PUSH1 0x0 KECCAK256 ADD SLOAD DUP7 PUSH2 0x559 JUMP JUMPDEST DUP3 PUSH2 0x2B3 SWAP2 SWAP1 PUSH2 0xD28 JUMP JUMPDEST SWAP2 POP JUMPDEST DUP1 DUP1 PUSH2 0x2C1 SWAP1 PUSH2 0xD7E JUMP JUMPDEST SWAP2 POP POP PUSH2 0x25E JUMP JUMPDEST POP PUSH2 0x2D4 DUP6 DUP3 PUSH2 0x6E5 JUMP JUMPDEST POP POP POP POP POP POP JUMP JUMPDEST DUP5 PUSH1 0x1 SLOAD GT PUSH2 0x320 JUMPI PUSH1 0x40 MLOAD PUSH32 0x8C379A000000000000000000000000000000000000000000000000000000000 DUP2 MSTORE PUSH1 0x4 ADD PUSH2 0x317 SWAP1 PUSH2 0xE13 JUMP JUMPDEST PUSH1 0x40 MLOAD DUP1 SWAP2 SUB SWAP1 REVERT JUMPDEST PUSH2 0x32A DUP6 DUP6 PUSH2 0x58F JUMP JUMPDEST ISZERO PUSH2 0x36A JUMPI PUSH1 0x40 MLOAD PUSH32 0x8C379A000000000000000000000000000000000000000000000000000000000 DUP2 MSTORE PUSH1 0x4 ADD PUSH2 0x361 SWAP1 PUSH2 0xEA5 JUMP JUMPDEST PUSH1 0x40 MLOAD DUP1 SWAP2 SUB SWAP1 REVERT JUMPDEST PUSH2 0x374 DUP6 DUP6 PUSH2 0x6AC JUMP JUMPDEST PUSH2 0x3CB DUP3 DUP3 DUP1 DUP1 PUSH1 0x20 MUL PUSH1 0x20 ADD PUSH1 0x40 MLOAD SWAP1 DUP2 ADD PUSH1 0x40 MSTORE DUP1 SWAP4 SWAP3 SWAP2 SWAP1 DUP2 DUP2 MSTORE PUSH1 0x20 ADD DUP4 DUP4 PUSH1 0x20 MUL DUP1 DUP3 DUP5 CALLDATACOPY PUSH1 0x0 DUP2 DUP5 ADD MSTORE PUSH1 0x1F NOT PUSH1 0x1F DUP3 ADD AND SWAP1 POP DUP1 DUP4 ADD SWAP3 POP POP POP POP POP POP POP PUSH1 0x0 SLOAD PUSH2 0x3C6 DUP8 DUP8 PUSH2 0x5C3 JUMP JUMPDEST PUSH2 0x5F6 JUMP JUMPDEST PUSH2 0x40A JUMPI PUSH1 0x40 MLOAD PUSH32 0x8C379A000000000000000000000000000000000000000000000000000000000 DUP2 MSTORE PUSH1 0x4 ADD PUSH2 0x401 SWAP1 PUSH2 0xCAA JUMP JUMPDEST PUSH1 0x40 MLOAD DUP1 SWAP2 SUB SWAP1 REVERT JUMPDEST PUSH2 0x43B DUP5 PUSH2 0x436 PUSH1 0x4 DUP9 DUP2 SLOAD DUP2 LT PUSH2 0x425 JUMPI PUSH2 0x424 PUSH2 0xCCA JUMP JUMPDEST JUMPDEST SWAP1 PUSH1 0x0 MSTORE PUSH1 0x20 PUSH1 0x0 KECCAK256 ADD SLOAD DUP7 PUSH2 0x559 JUMP JUMPDEST PUSH2 0x6E5 JUMP JUMPDEST POP POP POP POP POP POP JUMP JUMPDEST PUSH1 0x0 SLOAD DUP2 JUMP JUMPDEST PUSH1 0x0 DUP1 PUSH1 0x1 SLOAD EQ ISZERO PUSH2 0x45D JUMPI SELFBALANCE SWAP1 POP PUSH2 0x463 JUMP JUMPDEST PUSH1 0x6 SLOAD SWAP1 POP JUMPDEST PUSH1 0x0 PUSH1 0x6 DUP2 SWAP1 SSTORE POP PUSH1 0x0 DUP2 GT PUSH2 0x4AE JUMPI PUSH1 0x40 MLOAD PUSH32 0x8C379A000000000000000000000000000000000000000000000000000000000 DUP2 MSTORE PUSH1 0x4 ADD PUSH2 0x4A5 SWAP1 PUSH2 0xF11 JUMP JUMPDEST PUSH1 0x40 MLOAD DUP1 SWAP2 SUB SWAP1 REVERT JUMPDEST PUSH1 0x4 DUP2 SWAP1 DUP1 PUSH1 0x1 DUP2 SLOAD ADD DUP1 DUP3 SSTORE DUP1 SWAP2 POP POP PUSH1 0x1 SWAP1 SUB SWAP1 PUSH1 0x0 MSTORE PUSH1 0x20 PUSH1 0x0 KECCAK256 ADD PUSH1 0x0 SWAP1 SWAP2 SWAP1 SWAP2 SWAP1 SWAP2 POP SSTORE PUSH1 0x1 DUP1 PUSH1 0x0 DUP3 DUP3 SLOAD PUSH2 0x4E9 SWAP2 SWAP1 PUSH2 0xD28 JUMP JUMPDEST SWAP3 POP POP DUP2 SWAP1 SSTORE POP PUSH32 0xF0840B82B46C1DC7DF62CAE652BAA1B5588CE37B6A1236ED1DCF4CAF34D738AC PUSH1 0x1 SLOAD DUP3 PUSH1 0x40 MLOAD PUSH2 0x523 SWAP3 SWAP2 SWAP1 PUSH2 0xF31 JUMP JUMPDEST PUSH1 0x40 MLOAD DUP1 SWAP2 SUB SWAP1 LOG1 POP JUMP JUMPDEST PUSH3 0xF4240 DUP2 JUMP JUMPDEST PUSH1 0x4 DUP2 DUP2 SLOAD DUP2 LT PUSH2 0x545 JUMPI PUSH1 0x0 DUP1 REVERT JUMPDEST SWAP1 PUSH1 0x0 MSTORE PUSH1 0x20 PUSH1 0x0 KECCAK256 ADD PUSH1 0x0 SWAP2 POP SWAP1 POP SLOAD DUP2 JUMP JUMPDEST PUSH1 0x0 PUSH3 0xF4240 PUSH1 0x64 PUSH2 0x56B SWAP2 SWAP1 PUSH2 0xF5A JUMP JUMPDEST DUP3 DUP5 PUSH2 0x577 SWAP2 SWAP1 PUSH2 0xF5A JUMP JUMPDEST PUSH2 0x581 SWAP2 SWAP1 PUSH2 0xFE3 JUMP JUMPDEST SWAP1 POP SWAP3 SWAP2 POP POP JUMP JUMPDEST PUSH1 0x1 SLOAD DUP2 JUMP JUMPDEST PUSH1 0x0 PUSH1 0x5 PUSH1 0x0 PUSH2 0x59F DUP6 DUP6 PUSH2 0x85E JUMP JUMPDEST DUP2 MSTORE PUSH1 0x20 ADD SWAP1 DUP2 MSTORE PUSH1 0x20 ADD PUSH1 0x0 KECCAK256 PUSH1 0x0 SWAP1 SLOAD SWAP1 PUSH2 0x100 EXP SWAP1 DIV PUSH1 0xFF AND SWAP1 POP SWAP3 SWAP2 POP POP JUMP JUMPDEST PUSH1 0x0 DUP3 DUP3 PUSH1 0x40 MLOAD PUSH1 0x20 ADD PUSH2 0x5D8 SWAP3 SWAP2 SWAP1 PUSH2 0x107D JUMP JUMPDEST PUSH1 0x40 MLOAD PUSH1 0x20 DUP2 DUP4 SUB SUB DUP2 MSTORE SWAP1 PUSH1 0x40 MSTORE DUP1 MLOAD SWAP1 PUSH1 0x20 ADD KECCAK256 SWAP1 POP SWAP3 SWAP2 POP POP JUMP JUMPDEST PUSH1 0x0 DUP1 DUP3 SWAP1 POP PUSH1 0x0 JUMPDEST DUP6 MLOAD DUP2 LT ISZERO PUSH2 0x69E JUMPI PUSH1 0x0 DUP7 DUP3 DUP2 MLOAD DUP2 LT PUSH2 0x61D JUMPI PUSH2 0x61C PUSH2 0xCCA JUMP JUMPDEST JUMPDEST PUSH1 0x20 MUL PUSH1 0x20 ADD ADD MLOAD SWAP1 POP DUP1 DUP4 GT PUSH2 0x65E JUMPI DUP3 DUP2 PUSH1 0x40 MLOAD PUSH1 0x20 ADD PUSH2 0x641 SWAP3 SWAP2 SWAP1 PUSH2 0x10CA JUMP JUMPDEST PUSH1 0x40 MLOAD PUSH1 0x20 DUP2 DUP4 SUB SUB DUP2 MSTORE SWAP1 PUSH1 0x40 MSTORE DUP1 MLOAD SWAP1 PUSH1 0x20 ADD KECCAK256 SWAP3 POP PUSH2 0x68A JUMP JUMPDEST DUP1 DUP4 PUSH1 0x40 MLOAD PUSH1 0x20 ADD PUSH2 0x671 SWAP3 SWAP2 SWAP1 PUSH2 0x10CA JUMP JUMPDEST PUSH1 0x40 MLOAD PUSH1 0x20 DUP2 DUP4 SUB SUB DUP2 MSTORE SWAP1 PUSH1 0x40 MSTORE DUP1 MLOAD SWAP1 PUSH1 0x20 ADD KECCAK256 SWAP3 POP JUMPDEST POP DUP1 DUP1 PUSH2 0x696 SWAP1 PUSH2 0xD7E JUMP JUMPDEST SWAP2 POP POP PUSH2 0x5FF JUMP JUMPDEST POP DUP4 DUP2 EQ SWAP2 POP POP SWAP4 SWAP3 POP POP POP JUMP JUMPDEST PUSH1 0x1 PUSH1 0x5 PUSH1 0x0 PUSH2 0x6BC DUP6 DUP6 PUSH2 0x85E JUMP JUMPDEST DUP2 MSTORE PUSH1 0x20 ADD SWAP1 DUP2 MSTORE PUSH1 0x20 ADD PUSH1 0x0 KECCAK256 PUSH1 0x0 PUSH2 0x100 EXP DUP2 SLOAD DUP2 PUSH1 0xFF MUL NOT AND SWAP1 DUP4 ISZERO ISZERO MUL OR SWAP1 SSTORE POP POP POP JUMP JUMPDEST PUSH1 0x0 PUSH2 0x6F1 DUP4 DUP4 PUSH2 0x891 JUMP JUMPDEST SWAP1 POP DUP1 PUSH2 0x81D JUMPI PUSH1 0x2 PUSH1 0x0 SWAP1 SLOAD SWAP1 PUSH2 0x100 EXP SWAP1 DIV PUSH20 0xFFFFFFFFFFFFFFFFFFFFFFFFFFFFFFFFFFFFFFFF AND PUSH20 0xFFFFFFFFFFFFFFFFFFFFFFFFFFFFFFFFFFFFFFFF AND PUSH4 0xD0E30DB0 DUP4 PUSH1 0x40 MLOAD DUP3 PUSH4 0xFFFFFFFF AND PUSH1 0xE0 SHL DUP2 MSTORE PUSH1 0x4 ADD PUSH1 0x0 PUSH1 0x40 MLOAD DUP1 DUP4 SUB DUP2 DUP6 DUP9 DUP1 EXTCODESIZE ISZERO DUP1 ISZERO PUSH2 0x762 JUMPI PUSH1 0x0 DUP1 REVERT JUMPDEST POP GAS CALL ISZERO DUP1 ISZERO PUSH2 0x776 JUMPI RETURNDATASIZE PUSH1 0x0 DUP1 RETURNDATACOPY RETURNDATASIZE PUSH1 0x0 REVERT JUMPDEST POP POP POP POP POP PUSH1 0x2 PUSH1 0x0 SWAP1 SLOAD SWAP1 PUSH2 0x100 EXP SWAP1 DIV PUSH20 0xFFFFFFFFFFFFFFFFFFFFFFFFFFFFFFFFFFFFFFFF AND PUSH20 0xFFFFFFFFFFFFFFFFFFFFFFFFFFFFFFFFFFFFFFFF AND PUSH4 0xA9059CBB DUP5 DUP5 PUSH1 0x40 MLOAD DUP4 PUSH4 0xFFFFFFFF AND PUSH1 0xE0 SHL DUP2 MSTORE PUSH1 0x4 ADD PUSH2 0x7D8 SWAP3 SWAP2 SWAP1 PUSH2 0x1105 JUMP JUMPDEST PUSH1 0x20 PUSH1 0x40 MLOAD DUP1 DUP4 SUB DUP2 PUSH1 0x0 DUP8 GAS CALL ISZERO DUP1 ISZERO PUSH2 0x7F7 JUMPI RETURNDATASIZE PUSH1 0x0 DUP1 RETURNDATACOPY RETURNDATASIZE PUSH1 0x0 REVERT JUMPDEST POP POP POP POP PUSH1 0x40 MLOAD RETURNDATASIZE PUSH1 0x1F NOT PUSH1 0x1F DUP3 ADD AND DUP3 ADD DUP1 PUSH1 0x40 MSTORE POP DUP2 ADD SWAP1 PUSH2 0x81B SWAP2 SWAP1 PUSH2 0x115A JUMP JUMPDEST POP JUMPDEST PUSH32 0xDBD5389F52533F4CBD998E752125A5A4EAA0B813B399AD15F775EC0E8438620D DUP4 DUP4 DUP4 PUSH1 0x40 MLOAD PUSH2 0x850 SWAP4 SWAP3 SWAP2 SWAP1 PUSH2 0x1187 JUMP JUMPDEST PUSH1 0x40 MLOAD DUP1 SWAP2 SUB SWAP1 LOG1 SWAP3 SWAP2 POP POP JUMP JUMPDEST PUSH1 0x0 DUP3 DUP3 PUSH1 0x40 MLOAD PUSH1 0x20 ADD PUSH2 0x873 SWAP3 SWAP2 SWAP1 PUSH2 0x11BE JUMP JUMPDEST PUSH1 0x40 MLOAD PUSH1 0x20 DUP2 DUP4 SUB SUB DUP2 MSTORE SWAP1 PUSH1 0x40 MSTORE DUP1 MLOAD SWAP1 PUSH1 0x20 ADD KECCAK256 SWAP1 POP SWAP3 SWAP2 POP POP JUMP JUMPDEST PUSH1 0x0 DUP1 DUP4 PUSH20 0xFFFFFFFFFFFFFFFFFFFFFFFFFFFFFFFFFFFFFFFF AND DUP4 PUSH2 0x7530 SWAP1 PUSH1 0x40 MLOAD PUSH2 0x8BC SWAP1 PUSH2 0x121B JUMP JUMPDEST PUSH1 0x0 PUSH1 0x40 MLOAD DUP1 DUP4 SUB DUP2 DUP6 DUP9 DUP9 CALL SWAP4 POP POP POP POP RETURNDATASIZE DUP1 PUSH1 0x0 DUP2 EQ PUSH2 0x8FA JUMPI PUSH1 0x40 MLOAD SWAP2 POP PUSH1 0x1F NOT PUSH1 0x3F RETURNDATASIZE ADD AND DUP3 ADD PUSH1 0x40 MSTORE RETURNDATASIZE DUP3 MSTORE RETURNDATASIZE PUSH1 0x0 PUSH1 0x20 DUP5 ADD RETURNDATACOPY PUSH2 0x8FF JUMP JUMPDEST PUSH1 0x60 SWAP2 POP JUMPDEST POP POP SWAP1 POP DUP1 SWAP2 POP POP SWAP3 SWAP2 POP POP JUMP JUMPDEST PUSH1 0x0 DUP1 REVERT JUMPDEST PUSH1 0x0 DUP1 REVERT JUMPDEST PUSH1 0x0 PUSH20 0xFFFFFFFFFFFFFFFFFFFFFFFFFFFFFFFFFFFFFFFF DUP3 AND SWAP1 POP SWAP2 SWAP1 POP JUMP JUMPDEST PUSH1 0x0 PUSH2 0x942 DUP3 PUSH2 0x917 JUMP JUMPDEST SWAP1 POP SWAP2 SWAP1 POP JUMP JUMPDEST PUSH2 0x952 DUP2 PUSH2 0x937 JUMP JUMPDEST DUP2 EQ PUSH2 0x95D JUMPI PUSH1 0x0 DUP1 REVERT JUMPDEST POP JUMP JUMPDEST PUSH1 0x0 DUP2 CALLDATALOAD SWAP1 POP PUSH2 0x96F DUP2 PUSH2 0x949 JUMP JUMPDEST SWAP3 SWAP2 POP POP JUMP JUMPDEST PUSH1 0x0 DUP2 SWAP1 POP SWAP2 SWAP1 POP JUMP JUMPDEST PUSH2 0x988 DUP2 PUSH2 0x975 JUMP JUMPDEST DUP2 EQ PUSH2 0x993 JUMPI PUSH1 0x0 DUP1 REVERT JUMPDEST POP JUMP JUMPDEST PUSH1 0x0 DUP2 CALLDATALOAD SWAP1 POP PUSH2 0x9A5 DUP2 PUSH2 0x97F JUMP JUMPDEST SWAP3 SWAP2 POP POP JUMP JUMPDEST PUSH1 0x0 DUP1 REVERT JUMPDEST PUSH1 0x0 DUP1 REVERT JUMPDEST PUSH1 0x0 DUP1 REVERT JUMPDEST PUSH1 0x0 DUP1 DUP4 PUSH1 0x1F DUP5 ADD SLT PUSH2 0x9D0 JUMPI PUSH2 0x9CF PUSH2 0x9AB JUMP JUMPDEST JUMPDEST DUP3 CALLDATALOAD SWAP1 POP PUSH8 0xFFFFFFFFFFFFFFFF DUP2 GT ISZERO PUSH2 0x9ED JUMPI PUSH2 0x9EC PUSH2 0x9B0 JUMP JUMPDEST JUMPDEST PUSH1 0x20 DUP4 ADD SWAP2 POP DUP4 PUSH1 0x20 DUP3 MUL DUP4 ADD GT ISZERO PUSH2 0xA09 JUMPI PUSH2 0xA08 PUSH2 0x9B5 JUMP JUMPDEST JUMPDEST SWAP3 POP SWAP3 SWAP1 POP JUMP JUMPDEST PUSH1 0x0 DUP1 PUSH1 0x0 DUP1 PUSH1 0x60 DUP6 DUP8 SUB SLT ISZERO PUSH2 0xA2A JUMPI PUSH2 0xA29 PUSH2 0x90D JUMP JUMPDEST JUMPDEST PUSH1 0x0 PUSH2 0xA38 DUP8 DUP3 DUP9 ADD PUSH2 0x960 JUMP JUMPDEST SWAP5 POP POP PUSH1 0x20 PUSH2 0xA49 DUP8 DUP3 DUP9 ADD PUSH2 0x996 JUMP JUMPDEST SWAP4 POP POP PUSH1 0x40 DUP6 ADD CALLDATALOAD PUSH8 0xFFFFFFFFFFFFFFFF DUP2 GT ISZERO PUSH2 0xA6A JUMPI PUSH2 0xA69 PUSH2 0x912 JUMP JUMPDEST JUMPDEST PUSH2 0xA76 DUP8 DUP3 DUP9 ADD PUSH2 0x9BA JUMP JUMPDEST SWAP3 POP SWAP3 POP POP SWAP3 SWAP6 SWAP2 SWAP5 POP SWAP3 POP JUMP JUMPDEST PUSH1 0x0 DUP1 PUSH1 0x0 DUP1 PUSH1 0x0 PUSH1 0x80 DUP7 DUP9 SUB SLT ISZERO PUSH2 0xAA0 JUMPI PUSH2 0xA9F PUSH2 0x90D JUMP JUMPDEST JUMPDEST PUSH1 0x0 PUSH2 0xAAE DUP9 DUP3 DUP10 ADD PUSH2 0x996 JUMP JUMPDEST SWAP6 POP POP PUSH1 0x20 PUSH2 0xABF DUP9 DUP3 DUP10 ADD PUSH2 0x960 JUMP JUMPDEST SWAP5 POP POP PUSH1 0x40 PUSH2 0xAD0 DUP9 DUP3 DUP10 ADD PUSH2 0x996 JUMP JUMPDEST SWAP4 POP POP PUSH1 0x60 DUP7 ADD CALLDATALOAD PUSH8 0xFFFFFFFFFFFFFFFF DUP2 GT ISZERO PUSH2 0xAF1 JUMPI PUSH2 0xAF0 PUSH2 0x912 JUMP JUMPDEST JUMPDEST PUSH2 0xAFD DUP9 DUP3 DUP10 ADD PUSH2 0x9BA JUMP JUMPDEST SWAP3 POP SWAP3 POP POP SWAP3 SWAP6 POP SWAP3 SWAP6 SWAP1 SWAP4 POP JUMP JUMPDEST PUSH1 0x0 DUP2 SWAP1 POP SWAP2 SWAP1 POP JUMP JUMPDEST PUSH2 0xB1F DUP2 PUSH2 0xB0C JUMP JUMPDEST DUP3 MSTORE POP POP JUMP JUMPDEST PUSH1 0x0 PUSH1 0x20 DUP3 ADD SWAP1 POP PUSH2 0xB3A PUSH1 0x0 DUP4 ADD DUP5 PUSH2 0xB16 JUMP JUMPDEST SWAP3 SWAP2 POP POP JUMP JUMPDEST PUSH2 0xB49 DUP2 PUSH2 0x975 JUMP JUMPDEST DUP3 MSTORE POP POP JUMP JUMPDEST PUSH1 0x0 PUSH1 0x20 DUP3 ADD SWAP1 POP PUSH2 0xB64 PUSH1 0x0 DUP4 ADD DUP5 PUSH2 0xB40 JUMP JUMPDEST SWAP3 SWAP2 POP POP JUMP JUMPDEST PUSH1 0x0 PUSH1 0x20 DUP3 DUP5 SUB SLT ISZERO PUSH2 0xB80 JUMPI PUSH2 0xB7F PUSH2 0x90D JUMP JUMPDEST JUMPDEST PUSH1 0x0 PUSH2 0xB8E DUP5 DUP3 DUP6 ADD PUSH2 0x996 JUMP JUMPDEST SWAP2 POP POP SWAP3 SWAP2 POP POP JUMP JUMPDEST PUSH1 0x0 DUP1 PUSH1 0x40 DUP4 DUP6 SUB SLT ISZERO PUSH2 0xBAE JUMPI PUSH2 0xBAD PUSH2 0x90D JUMP JUMPDEST JUMPDEST PUSH1 0x0 PUSH2 0xBBC DUP6 DUP3 DUP7 ADD PUSH2 0x996 JUMP JUMPDEST SWAP3 POP POP PUSH1 0x20 PUSH2 0xBCD DUP6 DUP3 DUP7 ADD PUSH2 0x996 JUMP JUMPDEST SWAP2 POP POP SWAP3 POP SWAP3 SWAP1 POP JUMP JUMPDEST PUSH1 0x0 DUP1 PUSH1 0x40 DUP4 DUP6 SUB SLT ISZERO PUSH2 0xBEE JUMPI PUSH2 0xBED PUSH2 0x90D JUMP JUMPDEST JUMPDEST PUSH1 0x0 PUSH2 0xBFC DUP6 DUP3 DUP7 ADD PUSH2 0x996 JUMP JUMPDEST SWAP3 POP POP PUSH1 0x20 PUSH2 0xC0D DUP6 DUP3 DUP7 ADD PUSH2 0x960 JUMP JUMPDEST SWAP2 POP POP SWAP3 POP SWAP3 SWAP1 POP JUMP JUMPDEST PUSH1 0x0 DUP2 ISZERO ISZERO SWAP1 POP SWAP2 SWAP1 POP JUMP JUMPDEST PUSH2 0xC2C DUP2 PUSH2 0xC17 JUMP JUMPDEST DUP3 MSTORE POP POP JUMP JUMPDEST PUSH1 0x0 PUSH1 0x20 DUP3 ADD SWAP1 POP PUSH2 0xC47 PUSH1 0x0 DUP4 ADD DUP5 PUSH2 0xC23 JUMP JUMPDEST SWAP3 SWAP2 POP POP JUMP JUMPDEST PUSH1 0x0 DUP3 DUP3 MSTORE PUSH1 0x20 DUP3 ADD SWAP1 POP SWAP3 SWAP2 POP POP JUMP JUMPDEST PUSH32 0x496E76616C69642070726F6F6600000000000000000000000000000000000000 PUSH1 0x0 DUP3 ADD MSTORE POP JUMP JUMPDEST PUSH1 0x0 PUSH2 0xC94 PUSH1 0xD DUP4 PUSH2 0xC4D JUMP JUMPDEST SWAP2 POP PUSH2 0xC9F DUP3 PUSH2 0xC5E JUMP JUMPDEST PUSH1 0x20 DUP3 ADD SWAP1 POP SWAP2 SWAP1 POP JUMP JUMPDEST PUSH1 0x0 PUSH1 0x20 DUP3 ADD SWAP1 POP DUP2 DUP2 SUB PUSH1 0x0 DUP4 ADD MSTORE PUSH2 0xCC3 DUP2 PUSH2 0xC87 JUMP JUMPDEST SWAP1 POP SWAP2 SWAP1 POP JUMP JUMPDEST PUSH32 0x4E487B7100000000000000000000000000000000000000000000000000000000 PUSH1 0x0 MSTORE PUSH1 0x32 PUSH1 0x4 MSTORE PUSH1 0x24 PUSH1 0x0 REVERT JUMPDEST PUSH32 0x4E487B7100000000000000000000000000000000000000000000000000000000 PUSH1 0x0 MSTORE PUSH1 0x11 PUSH1 0x4 MSTORE PUSH1 0x24 PUSH1 0x0 REVERT JUMPDEST PUSH1 0x0 PUSH2 0xD33 DUP3 PUSH2 0x975 JUMP JUMPDEST SWAP2 POP PUSH2 0xD3E DUP4 PUSH2 0x975 JUMP JUMPDEST SWAP3 POP DUP3 PUSH32 0xFFFFFFFFFFFFFFFFFFFFFFFFFFFFFFFFFFFFFFFFFFFFFFFFFFFFFFFFFFFFFFFF SUB DUP3 GT ISZERO PUSH2 0xD73 JUMPI PUSH2 0xD72 PUSH2 0xCF9 JUMP JUMPDEST JUMPDEST DUP3 DUP3 ADD SWAP1 POP SWAP3 SWAP2 POP POP JUMP JUMPDEST PUSH1 0x0 PUSH2 0xD89 DUP3 PUSH2 0x975 JUMP JUMPDEST SWAP2 POP PUSH32 0xFFFFFFFFFFFFFFFFFFFFFFFFFFFFFFFFFFFFFFFFFFFFFFFFFFFFFFFFFFFFFFFF DUP3 EQ ISZERO PUSH2 0xDBC JUMPI PUSH2 0xDBB PUSH2 0xCF9 JUMP JUMPDEST JUMPDEST PUSH1 0x1 DUP3 ADD SWAP1 POP SWAP2 SWAP1 POP JUMP JUMPDEST PUSH32 0x63616E6E6F7420636C61696D20666F722061206675747572652077696E646F77 PUSH1 0x0 DUP3 ADD MSTORE POP JUMP JUMPDEST PUSH1 0x0 PUSH2 0xDFD PUSH1 0x20 DUP4 PUSH2 0xC4D JUMP JUMPDEST SWAP2 POP PUSH2 0xE08 DUP3 PUSH2 0xDC7 JUMP JUMPDEST PUSH1 0x20 DUP3 ADD SWAP1 POP SWAP2 SWAP1 POP JUMP JUMPDEST PUSH1 0x0 PUSH1 0x20 DUP3 ADD SWAP1 POP DUP2 DUP2 SUB PUSH1 0x0 DUP4 ADD MSTORE PUSH2 0xE2C DUP2 PUSH2 0xDF0 JUMP JUMPDEST SWAP1 POP SWAP2 SWAP1 POP JUMP JUMPDEST PUSH32 0x4163636F756E7420616C726561647920636C61696D6564207468652067697665 PUSH1 0x0 DUP3 ADD MSTORE PUSH32 0x6E2077696E646F77000000000000000000000000000000000000000000000000 PUSH1 0x20 DUP3 ADD MSTORE POP JUMP JUMPDEST PUSH1 0x0 PUSH2 0xE8F PUSH1 0x28 DUP4 PUSH2 0xC4D JUMP JUMPDEST SWAP2 POP PUSH2 0xE9A DUP3 PUSH2 0xE33 JUMP JUMPDEST PUSH1 0x40 DUP3 ADD SWAP1 POP SWAP2 SWAP1 POP JUMP JUMPDEST PUSH1 0x0 PUSH1 0x20 DUP3 ADD SWAP1 POP DUP2 DUP2 SUB PUSH1 0x0 DUP4 ADD MSTORE PUSH2 0xEBE DUP2 PUSH2 0xE82 JUMP JUMPDEST SWAP1 POP SWAP2 SWAP1 POP JUMP JUMPDEST PUSH32 0x4E6F206164646974696F6E616C2066756E647320666F722077696E646F770000 PUSH1 0x0 DUP3 ADD MSTORE POP JUMP JUMPDEST PUSH1 0x0 PUSH2 0xEFB PUSH1 0x1E DUP4 PUSH2 0xC4D JUMP JUMPDEST SWAP2 POP PUSH2 0xF06 DUP3 PUSH2 0xEC5 JUMP JUMPDEST PUSH1 0x20 DUP3 ADD SWAP1 POP SWAP2 SWAP1 POP JUMP JUMPDEST PUSH1 0x0 PUSH1 0x20 DUP3 ADD SWAP1 POP DUP2 DUP2 SUB PUSH1 0x0 DUP4 ADD MSTORE PUSH2 0xF2A DUP2 PUSH2 0xEEE JUMP JUMPDEST SWAP1 POP SWAP2 SWAP1 POP JUMP JUMPDEST PUSH1 0x0 PUSH1 0x40 DUP3 ADD SWAP1 POP PUSH2 0xF46 PUSH1 0x0 DUP4 ADD DUP6 PUSH2 0xB40 JUMP JUMPDEST PUSH2 0xF53 PUSH1 0x20 DUP4 ADD DUP5 PUSH2 0xB40 JUMP JUMPDEST SWAP4 SWAP3 POP POP POP JUMP JUMPDEST PUSH1 0x0 PUSH2 0xF65 DUP3 PUSH2 0x975 JUMP JUMPDEST SWAP2 POP PUSH2 0xF70 DUP4 PUSH2 0x975 JUMP JUMPDEST SWAP3 POP DUP2 PUSH32 0xFFFFFFFFFFFFFFFFFFFFFFFFFFFFFFFFFFFFFFFFFFFFFFFFFFFFFFFFFFFFFFFF DIV DUP4 GT DUP3 ISZERO ISZERO AND ISZERO PUSH2 0xFA9 JUMPI PUSH2 0xFA8 PUSH2 0xCF9 JUMP JUMPDEST JUMPDEST DUP3 DUP3 MUL SWAP1 POP SWAP3 SWAP2 POP POP JUMP JUMPDEST PUSH32 0x4E487B7100000000000000000000000000000000000000000000000000000000 PUSH1 0x0 MSTORE PUSH1 0x12 PUSH1 0x4 MSTORE PUSH1 0x24 PUSH1 0x0 REVERT JUMPDEST PUSH1 0x0 PUSH2 0xFEE DUP3 PUSH2 0x975 JUMP JUMPDEST SWAP2 POP PUSH2 0xFF9 DUP4 PUSH2 0x975 JUMP JUMPDEST SWAP3 POP DUP3 PUSH2 0x1009 JUMPI PUSH2 0x1008 PUSH2 0xFB4 JUMP JUMPDEST JUMPDEST DUP3 DUP3 DIV SWAP1 POP SWAP3 SWAP2 POP POP JUMP JUMPDEST PUSH1 0x0 DUP2 PUSH1 0x60 SHL SWAP1 POP SWAP2 SWAP1 POP JUMP JUMPDEST PUSH1 0x0 PUSH2 0x102C DUP3 PUSH2 0x1014 JUMP JUMPDEST SWAP1 POP SWAP2 SWAP1 POP JUMP JUMPDEST PUSH1 0x0 PUSH2 0x103E DUP3 PUSH2 0x1021 JUMP JUMPDEST SWAP1 POP SWAP2 SWAP1 POP JUMP JUMPDEST PUSH2 0x1056 PUSH2 0x1051 DUP3 PUSH2 0x937 JUMP JUMPDEST PUSH2 0x1033 JUMP JUMPDEST DUP3 MSTORE POP POP JUMP JUMPDEST PUSH1 0x0 DUP2 SWAP1 POP SWAP2 SWAP1 POP JUMP JUMPDEST PUSH2 0x1077 PUSH2 0x1072 DUP3 PUSH2 0x975 JUMP JUMPDEST PUSH2 0x105C JUMP JUMPDEST DUP3 MSTORE POP POP JUMP JUMPDEST PUSH1 0x0 PUSH2 0x1089 DUP3 DUP6 PUSH2 0x1045 JUMP JUMPDEST PUSH1 0x14 DUP3 ADD SWAP2 POP PUSH2 0x1099 DUP3 DUP5 PUSH2 0x1066 JUMP JUMPDEST PUSH1 0x20 DUP3 ADD SWAP2 POP DUP2 SWAP1 POP SWAP4 SWAP3 POP POP POP JUMP JUMPDEST PUSH1 0x0 DUP2 SWAP1 POP SWAP2 SWAP1 POP JUMP JUMPDEST PUSH2 0x10C4 PUSH2 0x10BF DUP3 PUSH2 0xB0C JUMP JUMPDEST PUSH2 0x10A9 JUMP JUMPDEST DUP3 MSTORE POP POP JUMP JUMPDEST PUSH1 0x0 PUSH2 0x10D6 DUP3 DUP6 PUSH2 0x10B3 JUMP JUMPDEST PUSH1 0x20 DUP3 ADD SWAP2 POP PUSH2 0x10E6 DUP3 DUP5 PUSH2 0x10B3 JUMP JUMPDEST PUSH1 0x20 DUP3 ADD SWAP2 POP DUP2 SWAP1 POP SWAP4 SWAP3 POP POP POP JUMP JUMPDEST PUSH2 0x10FF DUP2 PUSH2 0x937 JUMP JUMPDEST DUP3 MSTORE POP POP JUMP JUMPDEST PUSH1 0x0 PUSH1 0x40 DUP3 ADD SWAP1 POP PUSH2 0x111A PUSH1 0x0 DUP4 ADD DUP6 PUSH2 0x10F6 JUMP JUMPDEST PUSH2 0x1127 PUSH1 0x20 DUP4 ADD DUP5 PUSH2 0xB40 JUMP JUMPDEST SWAP4 SWAP3 POP POP POP JUMP JUMPDEST PUSH2 0x1137 DUP2 PUSH2 0xC17 JUMP JUMPDEST DUP2 EQ PUSH2 0x1142 JUMPI PUSH1 0x0 DUP1 REVERT JUMPDEST POP JUMP JUMPDEST PUSH1 0x0 DUP2 MLOAD SWAP1 POP PUSH2 0x1154 DUP2 PUSH2 0x112E JUMP JUMPDEST SWAP3 SWAP2 POP POP JUMP JUMPDEST PUSH1 0x0 PUSH1 0x20 DUP3 DUP5 SUB SLT ISZERO PUSH2 0x1170 JUMPI PUSH2 0x116F PUSH2 0x90D JUMP JUMPDEST JUMPDEST PUSH1 0x0 PUSH2 0x117E DUP5 DUP3 DUP6 ADD PUSH2 0x1145 JUMP JUMPDEST SWAP2 POP POP SWAP3 SWAP2 POP POP JUMP JUMPDEST PUSH1 0x0 PUSH1 0x60 DUP3 ADD SWAP1 POP PUSH2 0x119C PUSH1 0x0 DUP4 ADD DUP7 PUSH2 0x10F6 JUMP JUMPDEST PUSH2 0x11A9 PUSH1 0x20 DUP4 ADD DUP6 PUSH2 0xB40 JUMP JUMPDEST PUSH2 0x11B6 PUSH1 0x40 DUP4 ADD DUP5 PUSH2 0xC23 JUMP JUMPDEST SWAP5 SWAP4 POP POP POP POP JUMP JUMPDEST PUSH1 0x0 PUSH2 0x11CA DUP3 DUP6 PUSH2 0x1066 JUMP JUMPDEST PUSH1 0x20 DUP3 ADD SWAP2 POP PUSH2 0x11DA DUP3 DUP5 PUSH2 0x1045 JUMP JUMPDEST PUSH1 0x14 DUP3 ADD SWAP2 POP DUP2 SWAP1 POP SWAP4 SWAP3 POP POP POP JUMP JUMPDEST PUSH1 0x0 DUP2 SWAP1 POP SWAP3 SWAP2 POP POP JUMP JUMPDEST POP JUMP JUMPDEST PUSH1 0x0 PUSH2 0x1205 PUSH1 0x0 DUP4 PUSH2 0x11EA JUMP JUMPDEST SWAP2 POP PUSH2 0x1210 DUP3 PUSH2 0x11F5 JUMP JUMPDEST PUSH1 0x0 DUP3 ADD SWAP1 POP SWAP2 SWAP1 POP JUMP JUMPDEST PUSH1 0x0 PUSH2 0x1226 DUP3 PUSH2 0x11F8 JUMP JUMPDEST SWAP2 POP DUP2 SWAP1 POP SWAP2 SWAP1 POP JUMP INVALID LOG2 PUSH5 0x6970667358 0x22 SLT KECCAK256 KECCAK256 0xE4 PUSH22 0xD8ACC9C094C1E0EE167182A9193C12C43B8D4008F633 PUSH4 0x43A33DAE 0x1F CALLCODE PUSH5 0x736F6C6343 STOP ADDMOD 0xC STOP CALLER "},"methodIdentifiers":{"PERCENTAGE_SCALE()":"3f26479e","balanceForWindow(uint256)":"81e580d3","claim(uint256,address,uint256,bytes32[])":"2e7ba6ef","claimForAllWindows(address,uint256,bytes32[])":"1e7df9d3","currentWindow()":"ba0bafb4","incrementWindow()":"338b1d31","isClaimed(uint256,address)":"d2ef0795","merkleRoot()":"2eb4a7ab","scaleAmountByPercentage(uint256,uint256)":"8ffb5c97"}}}}}