{
  "_format": "hh-sol-artifact-1",
  "contractName": "Collection",
  "sourceName": "contracts/Collection.sol",
  "abi": [
    {
      "inputs": [
        {
          "internalType": "string",
          "name": "name_",
          "type": "string"
        },
        {
          "internalType": "string",
          "name": "symbol_",
          "type": "string"
        },
        {
          "internalType": "address payable",
          "name": "recipient_",
          "type": "address"
        },
        {
          "internalType": "uint256",
          "name": "startDate_",
          "type": "uint256"
        },
        {
          "internalType": "uint256",
          "name": "endDate_",
          "type": "uint256"
        },
        {
          "internalType": "bytes32",
          "name": "root_",
          "type": "bytes32"
        }
      ],
      "stateMutability": "nonpayable",
      "type": "constructor"
    },
    {
      "anonymous": false,
      "inputs": [
        {
          "indexed": true,
          "internalType": "address",
          "name": "owner",
          "type": "address"
        },
        {
          "indexed": true,
          "internalType": "address",
          "name": "approved",
          "type": "address"
        },
        {
          "indexed": true,
          "internalType": "uint256",
          "name": "tokenId",
          "type": "uint256"
        }
      ],
      "name": "Approval",
      "type": "event"
    },
    {
      "anonymous": false,
      "inputs": [
        {
          "indexed": true,
          "internalType": "address",
          "name": "owner",
          "type": "address"
        },
        {
          "indexed": true,
          "internalType": "address",
          "name": "operator",
          "type": "address"
        },
        {
          "indexed": false,
          "internalType": "bool",
          "name": "approved",
          "type": "bool"
        }
      ],
      "name": "ApprovalForAll",
      "type": "event"
    },
    {
      "anonymous": false,
      "inputs": [
        {
          "indexed": true,
          "internalType": "address",
          "name": "from",
          "type": "address"
        },
        {
          "indexed": true,
          "internalType": "address",
          "name": "to",
          "type": "address"
        },
        {
          "indexed": true,
          "internalType": "uint256",
          "name": "tokenId",
          "type": "uint256"
        }
      ],
      "name": "Transfer",
      "type": "event"
    },
    {
      "inputs": [
        {
          "internalType": "address",
          "name": "to",
          "type": "address"
        },
        {
          "internalType": "uint256",
          "name": "tokenId",
          "type": "uint256"
        }
      ],
      "name": "approve",
      "outputs": [],
      "stateMutability": "nonpayable",
      "type": "function"
    },
    {
      "inputs": [
        {
          "internalType": "address",
          "name": "owner",
          "type": "address"
        }
      ],
      "name": "balanceOf",
      "outputs": [
        {
          "internalType": "uint256",
          "name": "",
          "type": "uint256"
        }
      ],
      "stateMutability": "view",
      "type": "function"
    },
    {
      "inputs": [
        {
          "internalType": "address",
          "name": "_newDescriptor",
          "type": "address"
        }
      ],
      "name": "changeDescriptor",
      "outputs": [],
      "stateMutability": "nonpayable",
      "type": "function"
    },
    {
      "inputs": [
        {
          "internalType": "address",
          "name": "",
          "type": "address"
        }
      ],
      "name": "claimed",
      "outputs": [
        {
          "internalType": "bool",
          "name": "",
          "type": "bool"
        }
      ],
      "stateMutability": "view",
      "type": "function"
    },
    {
      "inputs": [],
      "name": "deluxeBuyableSupply",
      "outputs": [
        {
          "internalType": "uint256",
          "name": "",
          "type": "uint256"
        }
      ],
      "stateMutability": "view",
      "type": "function"
    },
    {
      "inputs": [
        {
          "internalType": "uint256",
          "name": "",
          "type": "uint256"
        }
      ],
      "name": "deluxeIDs",
      "outputs": [
        {
          "internalType": "bool",
          "name": "",
          "type": "bool"
        }
      ],
      "stateMutability": "view",
      "type": "function"
    },
    {
      "inputs": [],
      "name": "descriptor",
      "outputs": [
        {
          "internalType": "contract CollectionDescriptor",
          "name": "",
          "type": "address"
        }
      ],
      "stateMutability": "view",
      "type": "function"
    },
    {
      "inputs": [
        {
          "internalType": "address",
          "name": "_newRecipient",
          "type": "address"
        }
      ],
      "name": "emergencyWithdraw",
      "outputs": [],
      "stateMutability": "nonpayable",
      "type": "function"
    },
    {
      "inputs": [],
      "name": "endDate",
      "outputs": [
        {
          "internalType": "uint256",
          "name": "",
          "type": "uint256"
        }
      ],
      "stateMutability": "view",
      "type": "function"
    },
    {
      "inputs": [
        {
          "internalType": "uint256",
          "name": "tokenId",
          "type": "uint256"
        }
      ],
      "name": "generateBase64Image",
      "outputs": [
        {
          "internalType": "string",
          "name": "",
          "type": "string"
        }
      ],
      "stateMutability": "view",
      "type": "function"
    },
    {
      "inputs": [
        {
          "internalType": "uint256",
          "name": "_seed",
          "type": "uint256"
        },
        {
          "internalType": "address",
          "name": "_owner",
          "type": "address"
        },
        {
          "internalType": "bool",
          "name": "deluxe",
          "type": "bool"
        }
      ],
      "name": "generateFullImageFromVM",
      "outputs": [
        {
          "internalType": "string",
          "name": "",
          "type": "string"
        }
      ],
      "stateMutability": "view",
      "type": "function"
    },
    {
      "inputs": [
        {
          "internalType": "uint256",
          "name": "tokenId",
          "type": "uint256"
        }
      ],
      "name": "generateImage",
      "outputs": [
        {
          "internalType": "string",
          "name": "",
          "type": "string"
        }
      ],
      "stateMutability": "view",
      "type": "function"
    },
    {
      "inputs": [
        {
          "internalType": "uint256",
          "name": "tokenId",
          "type": "uint256"
        }
      ],
      "name": "generateTraits",
      "outputs": [
        {
          "internalType": "string",
          "name": "",
          "type": "string"
        }
      ],
      "stateMutability": "view",
      "type": "function"
    },
    {
      "inputs": [
        {
          "internalType": "uint256",
          "name": "_seed",
          "type": "uint256"
        },
        {
          "internalType": "address",
          "name": "_minter",
          "type": "address"
        },
        {
          "internalType": "bool",
          "name": "deluxe",
          "type": "bool"
        }
      ],
      "name": "generateTraitsWithSeedAndAddress",
      "outputs": [
        {
          "internalType": "string",
          "name": "",
          "type": "string"
        }
      ],
      "stateMutability": "view",
      "type": "function"
    },
    {
      "inputs": [
        {
          "internalType": "uint256",
          "name": "tokenId",
          "type": "uint256"
        }
      ],
      "name": "getApproved",
      "outputs": [
        {
          "internalType": "address",
          "name": "",
          "type": "address"
        }
      ],
      "stateMutability": "view",
      "type": "function"
    },
    {
      "inputs": [
        {
          "internalType": "address",
          "name": "owner",
          "type": "address"
        },
        {
          "internalType": "address",
          "name": "operator",
          "type": "address"
        }
      ],
      "name": "isApprovedForAll",
      "outputs": [
        {
          "internalType": "bool",
          "name": "",
          "type": "bool"
        }
      ],
      "stateMutability": "view",
      "type": "function"
    },
    {
      "inputs": [
        {
          "internalType": "bytes32[]",
          "name": "proof",
          "type": "bytes32[]"
        }
      ],
      "name": "loyalMint",
      "outputs": [],
      "stateMutability": "nonpayable",
      "type": "function"
    },
    {
      "inputs": [
        {
          "internalType": "bytes32[]",
          "name": "proof",
          "type": "bytes32[]"
        },
        {
          "internalType": "address",
          "name": "leaf",
          "type": "address"
        }
      ],
      "name": "loyalMintLeaf",
      "outputs": [],
      "stateMutability": "nonpayable",
      "type": "function"
    },
    {
      "inputs": [],
      "name": "loyaltyRoot",
      "outputs": [
        {
          "internalType": "bytes32",
          "name": "",
          "type": "bytes32"
        }
      ],
      "stateMutability": "view",
      "type": "function"
    },
    {
      "inputs": [],
      "name": "mint",
      "outputs": [],
      "stateMutability": "payable",
      "type": "function"
    },
    {
      "inputs": [],
      "name": "mintDeluxe",
      "outputs": [],
      "stateMutability": "payable",
      "type": "function"
    },
    {
      "inputs": [],
      "name": "name",
      "outputs": [
        {
          "internalType": "string",
          "name": "",
          "type": "string"
        }
      ],
      "stateMutability": "view",
      "type": "function"
    },
    {
      "inputs": [],
      "name": "owner",
      "outputs": [
        {
          "internalType": "address",
          "name": "",
          "type": "address"
        }
      ],
      "stateMutability": "view",
      "type": "function"
    },
    {
      "inputs": [
        {
          "internalType": "uint256",
          "name": "tokenId",
          "type": "uint256"
        }
      ],
      "name": "ownerOf",
      "outputs": [
        {
          "internalType": "address",
          "name": "",
          "type": "address"
        }
      ],
      "stateMutability": "view",
      "type": "function"
    },
    {
      "inputs": [],
      "name": "recipient",
      "outputs": [
        {
          "internalType": "address payable",
          "name": "",
          "type": "address"
        }
      ],
      "stateMutability": "view",
      "type": "function"
    },
    {
      "inputs": [
        {
          "internalType": "address",
          "name": "from",
          "type": "address"
        },
        {
          "internalType": "address",
          "name": "to",
          "type": "address"
        },
        {
          "internalType": "uint256",
          "name": "tokenId",
          "type": "uint256"
        }
      ],
      "name": "safeTransferFrom",
      "outputs": [],
      "stateMutability": "nonpayable",
      "type": "function"
    },
    {
      "inputs": [
        {
          "internalType": "address",
          "name": "from",
          "type": "address"
        },
        {
          "internalType": "address",
          "name": "to",
          "type": "address"
        },
        {
          "internalType": "uint256",
          "name": "tokenId",
          "type": "uint256"
        },
        {
          "internalType": "bytes",
          "name": "_data",
          "type": "bytes"
        }
      ],
      "name": "safeTransferFrom",
      "outputs": [],
      "stateMutability": "nonpayable",
      "type": "function"
    },
    {
      "inputs": [
        {
          "internalType": "address",
          "name": "operator",
          "type": "address"
        },
        {
          "internalType": "bool",
          "name": "approved",
          "type": "bool"
        }
      ],
      "name": "setApprovalForAll",
      "outputs": [],
      "stateMutability": "nonpayable",
      "type": "function"
    },
    {
      "inputs": [],
      "name": "startDate",
      "outputs": [
        {
          "internalType": "uint256",
          "name": "",
          "type": "uint256"
        }
      ],
      "stateMutability": "view",
      "type": "function"
    },
    {
      "inputs": [
        {
          "internalType": "bytes4",
          "name": "interfaceId",
          "type": "bytes4"
        }
      ],
      "name": "supportsInterface",
      "outputs": [
        {
          "internalType": "bool",
          "name": "",
          "type": "bool"
        }
      ],
      "stateMutability": "view",
      "type": "function"
    },
    {
      "inputs": [],
      "name": "symbol",
      "outputs": [
        {
          "internalType": "string",
          "name": "",
          "type": "string"
        }
      ],
      "stateMutability": "view",
      "type": "function"
    },
    {
      "inputs": [
        {
          "internalType": "uint256",
          "name": "tokenId",
          "type": "uint256"
        }
      ],
      "name": "tokenURI",
      "outputs": [
        {
          "internalType": "string",
          "name": "",
          "type": "string"
        }
      ],
      "stateMutability": "view",
      "type": "function"
    },
    {
      "inputs": [
        {
          "internalType": "address",
          "name": "from",
          "type": "address"
        },
        {
          "internalType": "address",
          "name": "to",
          "type": "address"
        },
        {
          "internalType": "uint256",
          "name": "tokenId",
          "type": "uint256"
        }
      ],
      "name": "transferFrom",
      "outputs": [],
      "stateMutability": "nonpayable",
      "type": "function"
    },
    {
      "inputs": [],
      "name": "withdrawETH",
      "outputs": [],
      "stateMutability": "nonpayable",
      "type": "function"
    }
  ],
  "bytecode": "0x60806040523480156200001157600080fd5b50604051620084e8380380620084e8833981810160405281019062000037919062000829565b8585816000908051906020019062000051929190620004f3565b5080600190805190602001906200006a929190620004f3565b50505033600660006101000a81548173ffffffffffffffffffffffffffffffffffffffff021916908373ffffffffffffffffffffffffffffffffffffffff160217905550604051620000bc9062000584565b604051809103906000f080158015620000d9573d6000803e3d6000fd5b50600860006101000a81548173ffffffffffffffffffffffffffffffffffffffff021916908373ffffffffffffffffffffffffffffffffffffffff16021790555083600760006101000a81548173ffffffffffffffffffffffffffffffffffffffff021916908373ffffffffffffffffffffffffffffffffffffffff1602179055508260098190555081600a8190555080600e81905550620001a6600660009054906101000a900473ffffffffffffffffffffffffffffffffffffffff164260016200022c60201b60201c565b6001600d6000600660009054906101000a900473ffffffffffffffffffffffffffffffffffffffff1673ffffffffffffffffffffffffffffffffffffffff1673ffffffffffffffffffffffffffffffffffffffff16815260200190815260200160002060006101000a81548160ff02191690831515021790555050505050505062000ba2565b60008284604051602001620002439291906200098c565b6040516020818303038152906040528051906020012060001c9050600115158215151415620002985781600c600083815260200190815260200160002060006101000a81548160ff0219169083151502179055505b620002af8482620002b560201b62001ca71760201c565b50505050565b600073ffffffffffffffffffffffffffffffffffffffff168273ffffffffffffffffffffffffffffffffffffffff16141562000328576040517f08c379a00000000000000000000000000000000000000000000000000000000081526004016200031f9062000a1d565b60405180910390fd5b62000339816200048760201b60201c565b156200037c576040517f08c379a0000000000000000000000000000000000000000000000000000000008152600401620003739062000a8f565b60405180910390fd5b6001600360008473ffffffffffffffffffffffffffffffffffffffff1673ffffffffffffffffffffffffffffffffffffffff1681526020019081526020016000206000828254620003ce919062000ae0565b92505081905550816002600083815260200190815260200160002060006101000a81548173ffffffffffffffffffffffffffffffffffffffff021916908373ffffffffffffffffffffffffffffffffffffffff160217905550808273ffffffffffffffffffffffffffffffffffffffff16600073ffffffffffffffffffffffffffffffffffffffff167fddf252ad1be2c89b69c2b068fc378daa952ba7f163c4a11628f55a4df523b3ef60405160405180910390a45050565b60008073ffffffffffffffffffffffffffffffffffffffff166002600084815260200190815260200160002060009054906101000a900473ffffffffffffffffffffffffffffffffffffffff1673ffffffffffffffffffffffffffffffffffffffff1614159050919050565b828054620005019062000b6c565b90600052602060002090601f01602090048101928262000525576000855562000571565b82601f106200054057805160ff191683800117855562000571565b8280016001018555821562000571579182015b828111156200057057825182559160200191906001019062000553565b5b50905062000580919062000592565b5090565b61340380620050e583390190565b5b80821115620005ad57600081600090555060010162000593565b5090565b6000604051905090565b600080fd5b600080fd5b600080fd5b600080fd5b6000601f19601f8301169050919050565b7f4e487b7100000000000000000000000000000000000000000000000000000000600052604160045260246000fd5b6200061a82620005cf565b810181811067ffffffffffffffff821117156200063c576200063b620005e0565b5b80604052505050565b600062000651620005b1565b90506200065f82826200060f565b919050565b600067ffffffffffffffff821115620006825762000681620005e0565b5b6200068d82620005cf565b9050602081019050919050565b60005b83811015620006ba5780820151818401526020810190506200069d565b83811115620006ca576000848401525b50505050565b6000620006e7620006e18462000664565b62000645565b905082815260208101848484011115620007065762000705620005ca565b5b620007138482856200069a565b509392505050565b600082601f830112620007335762000732620005c5565b5b815162000745848260208601620006d0565b91505092915050565b600073ffffffffffffffffffffffffffffffffffffffff82169050919050565b60006200077b826200074e565b9050919050565b6200078d816200076e565b81146200079957600080fd5b50565b600081519050620007ad8162000782565b92915050565b6000819050919050565b620007c881620007b3565b8114620007d457600080fd5b50565b600081519050620007e881620007bd565b92915050565b6000819050919050565b6200080381620007ee565b81146200080f57600080fd5b50565b6000815190506200082381620007f8565b92915050565b60008060008060008060c08789031215620008495762000848620005bb565b5b600087015167ffffffffffffffff8111156200086a5762000869620005c0565b5b6200087889828a016200071b565b965050602087015167ffffffffffffffff8111156200089c576200089b620005c0565b5b620008aa89828a016200071b565b9550506040620008bd89828a016200079c565b9450506060620008d089828a01620007d7565b9350506080620008e389828a01620007d7565b92505060a0620008f689828a0162000812565b9150509295509295509295565b6000819050919050565b620009226200091c82620007b3565b62000903565b82525050565b600062000935826200074e565b9050919050565b60008160601b9050919050565b600062000956826200093c565b9050919050565b60006200096a8262000949565b9050919050565b62000986620009808262000928565b6200095d565b82525050565b60006200099a82856200090d565b602082019150620009ac828462000971565b6014820191508190509392505050565b600082825260208201905092915050565b7f4552433732313a206d696e7420746f20746865207a65726f2061646472657373600082015250565b600062000a05602083620009bc565b915062000a1282620009cd565b602082019050919050565b6000602082019050818103600083015262000a3881620009f6565b9050919050565b7f4552433732313a20746f6b656e20616c7265616479206d696e74656400000000600082015250565b600062000a77601c83620009bc565b915062000a848262000a3f565b602082019050919050565b6000602082019050818103600083015262000aaa8162000a68565b9050919050565b7f4e487b7100000000000000000000000000000000000000000000000000000000600052601160045260246000fd5b600062000aed82620007b3565b915062000afa83620007b3565b9250827fffffffffffffffffffffffffffffffffffffffffffffffffffffffffffffffff0382111562000b325762000b3162000ab1565b5b828201905092915050565b7f4e487b7100000000000000000000000000000000000000000000000000000000600052602260045260246000fd5b6000600282049050600182168062000b8557607f821691505b6020821081141562000b9c5762000b9b62000b3d565b5b50919050565b6145338062000bb26000396000f3fe6080604052600436106101f95760003560e01c806370a082311161010d578063aba048b4116100a0578063c87b56dd1161006f578063c87b56dd1461072b578063c884ef8314610768578063e086e5ec146107a5578063e985e9c5146107bc578063fd85b89f146107f9576101f9565b8063aba048b414610683578063b88d4fde146106ac578063c24a0f8b146106d5578063c35ab71614610700576101f9565b806395d89b41116100dc57806395d89b41146105b5578063a22cb465146105e0578063a48b3b8f14610609578063a7bd0dba14610646576101f9565b806370a08231146104d357806379b92f27146105105780638da5cb5b1461054d57806390346fd414610578576101f9565b80633ea8aa24116101905780636352211e1161015f5780636352211e146103ee57806366d003ac1461042b5780636d9ec494146104565780636ddab6f9146104815780636ff1c9bc146104aa576101f9565b80633ea8aa2414610355578063423d79391461035f57806342842e0e146103885780634b44d812146103b1576101f9565b80630b97bc86116101cc5780630b97bc86146102cc5780631249c58b146102f757806323b872dd14610301578063303e74df1461032a576101f9565b806301ffc9a7146101fe57806306fdde031461023b578063081812fc14610266578063095ea7b3146102a3575b600080fd5b34801561020a57600080fd5b50610225600480360381019061022091906128e3565b610836565b604051610232919061292b565b60405180910390f35b34801561024757600080fd5b50610250610918565b60405161025d91906129df565b60405180910390f35b34801561027257600080fd5b5061028d60048036038101906102889190612a37565b6109aa565b60405161029a9190612aa5565b60405180910390f35b3480156102af57600080fd5b506102ca60048036038101906102c59190612aec565b610a2f565b005b3480156102d857600080fd5b506102e1610b39565b6040516102ee9190612b3b565b60405180910390f35b6102ff610b3f565b005b34801561030d57600080fd5b5061032860048036038101906103239190612b56565b610b97565b005b34801561033657600080fd5b5061033f610bf0565b60405161034c9190612c08565b60405180910390f35b61035d610c16565b005b34801561036b57600080fd5b5061038660048036038101906103819190612c88565b610ccf565b005b34801561039457600080fd5b506103af60048036038101906103aa9190612b56565b610e84565b005b3480156103bd57600080fd5b506103d860048036038101906103d39190612a37565b610ea4565b6040516103e591906129df565b60405180910390f35b3480156103fa57600080fd5b5061041560048036038101906104109190612a37565b610f76565b6040516104229190612aa5565b60405180910390f35b34801561043757600080fd5b50610440611028565b60405161044d9190612d09565b60405180910390f35b34801561046257600080fd5b5061046b61104e565b6040516104789190612d3d565b60405180910390f35b34801561048d57600080fd5b506104a860048036038101906104a39190612d58565b611054565b005b3480156104b657600080fd5b506104d160048036038101906104cc9190612d58565b61116e565b005b3480156104df57600080fd5b506104fa60048036038101906104f59190612d58565b611349565b6040516105079190612b3b565b60405180910390f35b34801561051c57600080fd5b5061053760048036038101906105329190612a37565b611401565b60405161054491906129df565b60405180910390f35b34801561055957600080fd5b506105626114d3565b60405161056f9190612aa5565b60405180910390f35b34801561058457600080fd5b5061059f600480360381019061059a9190612db1565b6114f9565b6040516105ac91906129df565b60405180910390f35b3480156105c157600080fd5b506105ca6115d8565b6040516105d791906129df565b60405180910390f35b3480156105ec57600080fd5b5061060760048036038101906106029190612e04565b61166a565b005b34801561061557600080fd5b50610630600480360381019061062b9190612a37565b6117d6565b60405161063d91906129df565b60405180910390f35b34801561065257600080fd5b5061066d60048036038101906106689190612a37565b6117f6565b60405161067a919061292b565b60405180910390f35b34801561068f57600080fd5b506106aa60048036038101906106a59190612e44565b611816565b005b3480156106b857600080fd5b506106d360048036038101906106ce9190612fc1565b611825565b005b3480156106e157600080fd5b506106ea611880565b6040516106f79190612b3b565b60405180910390f35b34801561070c57600080fd5b50610715611886565b6040516107229190612b3b565b60405180910390f35b34801561073757600080fd5b50610752600480360381019061074d9190612a37565b61188c565b60405161075f91906129df565b60405180910390f35b34801561077457600080fd5b5061078f600480360381019061078a9190612d58565b611a87565b60405161079c919061292b565b60405180910390f35b3480156107b157600080fd5b506107ba611aa7565b005b3480156107c857600080fd5b506107e360048036038101906107de9190613044565b611b34565b6040516107f0919061292b565b60405180910390f35b34801561080557600080fd5b50610820600480360381019061081b9190612db1565b611bc8565b60405161082d91906129df565b60405180910390f35b60007f80ac58cd000000000000000000000000000000000000000000000000000000007bffffffffffffffffffffffffffffffffffffffffffffffffffffffff1916827bffffffffffffffffffffffffffffffffffffffffffffffffffffffff1916148061090157507f5b5e139f000000000000000000000000000000000000000000000000000000007bffffffffffffffffffffffffffffffffffffffffffffffffffffffff1916827bffffffffffffffffffffffffffffffffffffffffffffffffffffffff1916145b80610911575061091082611e69565b5b9050919050565b606060008054610927906130b3565b80601f0160208091040260200160405190810160405280929190818152602001828054610953906130b3565b80156109a05780601f10610975576101008083540402835291602001916109a0565b820191906000526020600020905b81548152906001019060200180831161098357829003601f168201915b5050505050905090565b60006109b582611ed3565b6109f4576040517f08c379a00000000000000000000000000000000000000000000000000000000081526004016109eb90613157565b60405180910390fd5b6004600083815260200190815260200160002060009054906101000a900473ffffffffffffffffffffffffffffffffffffffff169050919050565b6000610a3a82610f76565b90508073ffffffffffffffffffffffffffffffffffffffff168373ffffffffffffffffffffffffffffffffffffffff161415610aab576040517f08c379a0000000000000000000000000000000000000000000000000000000008152600401610aa2906131e9565b60405180910390fd5b8073ffffffffffffffffffffffffffffffffffffffff163373ffffffffffffffffffffffffffffffffffffffff161480610aeb5750610aea8133611b34565b5b610b2a576040517f08c379a0000000000000000000000000000000000000000000000000000000008152600401610b219061327b565b60405180910390fd5b610b348383611f3f565b505050565b60095481565b664e28e2290f0000341015610b89576040517f08c379a0000000000000000000000000000000000000000000000000000000008152600401610b80906132e7565b60405180910390fd5b610b9533426000611ff8565b565b610ba13382612090565b610be0576040517f08c379a0000000000000000000000000000000000000000000000000000000008152600401610bd790613379565b60405180910390fd5b610beb83838361216e565b505050565b600860009054906101000a900473ffffffffffffffffffffffffffffffffffffffff1681565b6001600b6000828254610c2991906133c8565b925050819055506060600b541115610c76576040517f08c379a0000000000000000000000000000000000000000000000000000000008152600401610c6d9061346a565b60405180910390fd5b670106e69ba1610000341015610cc1576040517f08c379a0000000000000000000000000000000000000000000000000000000008152600401610cb8906132e7565b60405180910390fd5b610ccd33426001611ff8565b565b60001515600d60008373ffffffffffffffffffffffffffffffffffffffff1673ffffffffffffffffffffffffffffffffffffffff16815260200190815260200160002060009054906101000a900460ff16151514610d62576040517f08c379a0000000000000000000000000000000000000000000000000000000008152600401610d59906134d6565b60405180910390fd5b6001600d60008373ffffffffffffffffffffffffffffffffffffffff1673ffffffffffffffffffffffffffffffffffffffff16815260200190815260200160002060006101000a81548160ff021916908315150217905550600081604051602001610dcd919061353e565b604051602081830303815290604052805190602001209050610e33848480806020026020016040519081016040528093929190818152602001838360200280828437600081840152601f19601f82011690508083019250505050505050600e54836123bf565b610e72576040517f08c379a0000000000000000000000000000000000000000000000000000000008152600401610e69906135a5565b60405180910390fd5b610e7e82426001611ff8565b50505050565b610e9f83838360405180602001604052806000815250611825565b505050565b60606000600c600084815260200190815260200160002060009054906101000a900460ff169050600860009054906101000a900473ffffffffffffffffffffffffffffffffffffffff1673ffffffffffffffffffffffffffffffffffffffff1663effaaf6a84836040518363ffffffff1660e01b8152600401610f289291906135c5565b600060405180830381865afa158015610f45573d6000803e3d6000fd5b505050506040513d6000823e3d601f19601f82011682018060405250810190610f6e919061368f565b915050919050565b6000806002600084815260200190815260200160002060009054906101000a900473ffffffffffffffffffffffffffffffffffffffff169050600073ffffffffffffffffffffffffffffffffffffffff168173ffffffffffffffffffffffffffffffffffffffff16141561101f576040517f08c379a00000000000000000000000000000000000000000000000000000000081526004016110169061374a565b60405180910390fd5b80915050919050565b600760009054906101000a900473ffffffffffffffffffffffffffffffffffffffff1681565b600e5481565b600660009054906101000a900473ffffffffffffffffffffffffffffffffffffffff1673ffffffffffffffffffffffffffffffffffffffff163373ffffffffffffffffffffffffffffffffffffffff16146110e4576040517f08c379a00000000000000000000000000000000000000000000000000000000081526004016110db906137b6565b60405180910390fd5b6365696850421061112a576040517f08c379a000000000000000000000000000000000000000000000000000000000815260040161112190613822565b60405180910390fd5b80600860006101000a81548173ffffffffffffffffffffffffffffffffffffffff021916908373ffffffffffffffffffffffffffffffffffffffff16021790555050565b600660009054906101000a900473ffffffffffffffffffffffffffffffffffffffff1673ffffffffffffffffffffffffffffffffffffffff163373ffffffffffffffffffffffffffffffffffffffff16146111fe576040517f08c379a00000000000000000000000000000000000000000000000000000000081526004016111f59061388e565b60405180910390fd5b600080600760009054906101000a900473ffffffffffffffffffffffffffffffffffffffff1673ffffffffffffffffffffffffffffffffffffffff1647604051611247906138df565b60006040518083038185875af1925050503d8060008114611284576040519150601f19603f3d011682016040523d82523d6000602084013e611289565b606091505b5091509150600015158215151415611309578273ffffffffffffffffffffffffffffffffffffffff16476040516112bf906138df565b60006040518083038185875af1925050503d80600081146112fc576040519150601f19603f3d011682016040523d82523d6000602084013e611301565b606091505b505050611344565b6040517f08c379a000000000000000000000000000000000000000000000000000000000815260040161133b90613940565b60405180910390fd5b505050565b60008073ffffffffffffffffffffffffffffffffffffffff168273ffffffffffffffffffffffffffffffffffffffff1614156113ba576040517f08c379a00000000000000000000000000000000000000000000000000000000081526004016113b1906139d2565b60405180910390fd5b600360008373ffffffffffffffffffffffffffffffffffffffff1673ffffffffffffffffffffffffffffffffffffffff168152602001908152602001600020549050919050565b60606000600c600084815260200190815260200160002060009054906101000a900460ff169050600860009054906101000a900473ffffffffffffffffffffffffffffffffffffffff1673ffffffffffffffffffffffffffffffffffffffff166337ee03ec84836040518363ffffffff1660e01b81526004016114859291906135c5565b600060405180830381865afa1580156114a2573d6000803e3d6000fd5b505050506040513d6000823e3d601f19601f820116820180604052508101906114cb919061368f565b915050919050565b600660009054906101000a900473ffffffffffffffffffffffffffffffffffffffff1681565b606060008484604051602001611510929190613a13565b6040516020818303038152906040528051906020012060001c9050600860009054906101000a900473ffffffffffffffffffffffffffffffffffffffff1673ffffffffffffffffffffffffffffffffffffffff166337ee03ec82856040518363ffffffff1660e01b81526004016115889291906135c5565b600060405180830381865afa1580156115a5573d6000803e3d6000fd5b505050506040513d6000823e3d601f19601f820116820180604052508101906115ce919061368f565b9150509392505050565b6060600180546115e7906130b3565b80601f0160208091040260200160405190810160405280929190818152602001828054611613906130b3565b80156116605780601f1061163557610100808354040283529160200191611660565b820191906000526020600020905b81548152906001019060200180831161164357829003601f168201915b5050505050905090565b3373ffffffffffffffffffffffffffffffffffffffff168273ffffffffffffffffffffffffffffffffffffffff1614156116d9576040517f08c379a00000000000000000000000000000000000000000000000000000000081526004016116d090613a8b565b60405180910390fd5b80600560003373ffffffffffffffffffffffffffffffffffffffff1673ffffffffffffffffffffffffffffffffffffffff16815260200190815260200160002060008473ffffffffffffffffffffffffffffffffffffffff1673ffffffffffffffffffffffffffffffffffffffff16815260200190815260200160002060006101000a81548160ff0219169083151502179055508173ffffffffffffffffffffffffffffffffffffffff163373ffffffffffffffffffffffffffffffffffffffff167f17307eab39ab6107e8899845ad3d59bd9653f200f220920489ca2b5937696c31836040516117ca919061292b565b60405180910390a35050565b606060006117e383610ea4565b90506117ee816123d6565b915050919050565b600c6020528060005260406000206000915054906101000a900460ff1681565b611821828233610ccf565b5050565b61182f3383612090565b61186e576040517f08c379a000000000000000000000000000000000000000000000000000000000815260040161186590613379565b60405180910390fd5b61187a8484848461255b565b50505050565b600a5481565b600b5481565b606061189782611ed3565b6118d6576040517f08c379a00000000000000000000000000000000000000000000000000000000081526004016118cd90613b1d565b60405180910390fd5b6000600860009054906101000a900473ffffffffffffffffffffffffffffffffffffffff1673ffffffffffffffffffffffffffffffffffffffff1663192a0a1f846040518263ffffffff1660e01b81526004016119339190612b3b565b600060405180830381865afa158015611950573d6000803e3d6000fd5b505050506040513d6000823e3d601f19601f82011682018060405250810190611979919061368f565b90506000600860009054906101000a900473ffffffffffffffffffffffffffffffffffffffff1673ffffffffffffffffffffffffffffffffffffffff16635a312a3d6040518163ffffffff1660e01b8152600401600060405180830381865afa1580156119ea573d6000803e3d6000fd5b505050506040513d6000823e3d601f19601f82011682018060405250810190611a13919061368f565b90506000611a20856117d6565b90506000611a2d86611401565b9050611a5d84848484604051602001611a499493929190613d41565b6040516020818303038152906040526123d6565b604051602001611a6d9190613e0d565b604051602081830303815290604052945050505050919050565b600d6020528060005260406000206000915054906101000a900460ff1681565b600760009054906101000a900473ffffffffffffffffffffffffffffffffffffffff1673ffffffffffffffffffffffffffffffffffffffff1647604051611aed906138df565b60006040518083038185875af1925050503d8060008114611b2a576040519150601f19603f3d011682016040523d82523d6000602084013e611b2f565b606091505b505050565b6000600560008473ffffffffffffffffffffffffffffffffffffffff1673ffffffffffffffffffffffffffffffffffffffff16815260200190815260200160002060008373ffffffffffffffffffffffffffffffffffffffff1673ffffffffffffffffffffffffffffffffffffffff16815260200190815260200160002060009054906101000a900460ff16905092915050565b606060008484604051602001611bdf929190613a13565b6040516020818303038152906040528051906020012060001c9050600860009054906101000a900473ffffffffffffffffffffffffffffffffffffffff1673ffffffffffffffffffffffffffffffffffffffff1663effaaf6a82856040518363ffffffff1660e01b8152600401611c579291906135c5565b600060405180830381865afa158015611c74573d6000803e3d6000fd5b505050506040513d6000823e3d601f19601f82011682018060405250810190611c9d919061368f565b9150509392505050565b600073ffffffffffffffffffffffffffffffffffffffff168273ffffffffffffffffffffffffffffffffffffffff161415611d17576040517f08c379a0000000000000000000000000000000000000000000000000000000008152600401611d0e90613e7b565b60405180910390fd5b611d2081611ed3565b15611d60576040517f08c379a0000000000000000000000000000000000000000000000000000000008152600401611d5790613ee7565b60405180910390fd5b6001600360008473ffffffffffffffffffffffffffffffffffffffff1673ffffffffffffffffffffffffffffffffffffffff1681526020019081526020016000206000828254611db091906133c8565b92505081905550816002600083815260200190815260200160002060006101000a81548173ffffffffffffffffffffffffffffffffffffffff021916908373ffffffffffffffffffffffffffffffffffffffff160217905550808273ffffffffffffffffffffffffffffffffffffffff16600073ffffffffffffffffffffffffffffffffffffffff167fddf252ad1be2c89b69c2b068fc378daa952ba7f163c4a11628f55a4df523b3ef60405160405180910390a45050565b60007f01ffc9a7000000000000000000000000000000000000000000000000000000007bffffffffffffffffffffffffffffffffffffffffffffffffffffffff1916827bffffffffffffffffffffffffffffffffffffffffffffffffffffffff1916149050919050565b60008073ffffffffffffffffffffffffffffffffffffffff166002600084815260200190815260200160002060009054906101000a900473ffffffffffffffffffffffffffffffffffffffff1673ffffffffffffffffffffffffffffffffffffffff1614159050919050565b816004600083815260200190815260200160002060006101000a81548173ffffffffffffffffffffffffffffffffffffffff021916908373ffffffffffffffffffffffffffffffffffffffff160217905550808273ffffffffffffffffffffffffffffffffffffffff16611fb283610f76565b73ffffffffffffffffffffffffffffffffffffffff167f8c5be1e5ebec7d5bd14f71427d1e84f3dd0314c0f7b2291e5b200ac8c7c3b92560405160405180910390a45050565b600954421161203c576040517f08c379a000000000000000000000000000000000000000000000000000000000815260040161203390613f53565b60405180910390fd5b600a544210612080576040517f08c379a000000000000000000000000000000000000000000000000000000000815260040161207790613fbf565b60405180910390fd5b61208b8383836125b7565b505050565b600061209b82611ed3565b6120da576040517f08c379a00000000000000000000000000000000000000000000000000000000081526004016120d190614051565b60405180910390fd5b60006120e583610f76565b90508073ffffffffffffffffffffffffffffffffffffffff168473ffffffffffffffffffffffffffffffffffffffff16148061215457508373ffffffffffffffffffffffffffffffffffffffff1661213c846109aa565b73ffffffffffffffffffffffffffffffffffffffff16145b8061216557506121648185611b34565b5b91505092915050565b8273ffffffffffffffffffffffffffffffffffffffff1661218e82610f76565b73ffffffffffffffffffffffffffffffffffffffff16146121e4576040517f08c379a00000000000000000000000000000000000000000000000000000000081526004016121db906140e3565b60405180910390fd5b600073ffffffffffffffffffffffffffffffffffffffff168273ffffffffffffffffffffffffffffffffffffffff161415612254576040517f08c379a000000000000000000000000000000000000000000000000000000000815260040161224b90614175565b60405180910390fd5b61225f600082611f3f565b6001600360008573ffffffffffffffffffffffffffffffffffffffff1673ffffffffffffffffffffffffffffffffffffffff16815260200190815260200160002060008282546122af9190614195565b925050819055506001600360008473ffffffffffffffffffffffffffffffffffffffff1673ffffffffffffffffffffffffffffffffffffffff168152602001908152602001600020600082825461230691906133c8565b92505081905550816002600083815260200190815260200160002060006101000a81548173ffffffffffffffffffffffffffffffffffffffff021916908373ffffffffffffffffffffffffffffffffffffffff160217905550808273ffffffffffffffffffffffffffffffffffffffff168473ffffffffffffffffffffffffffffffffffffffff167fddf252ad1be2c89b69c2b068fc378daa952ba7f163c4a11628f55a4df523b3ef60405160405180910390a4505050565b6000826123cc8584612630565b1490509392505050565b60606000825114156123f957604051806020016040528060008152509050612556565b60006040518060600160405280604081526020016144be604091399050600060036002855161242891906133c8565b61243291906141f8565b600461243e9190614229565b9050600060208261244f91906133c8565b67ffffffffffffffff81111561246857612467612e96565b5b6040519080825280601f01601f19166020018201604052801561249a5781602001600182028036833780820191505090505b509050818152600183018586518101602084015b81831015612515576003830192508251603f8160121c1685015160f81b8252600182019150603f81600c1c1685015160f81b8252600182019150603f8160061c1685015160f81b8252600182019150603f811685015160f81b8252600182019150506124ae565b60038951066001811461252f576002811461253f5761254a565b613d3d60f01b600283035261254a565b603d60f81b60018303525b50505050508093505050505b919050565b61256684848461216e565b612572848484846126e3565b6125b1576040517f08c379a00000000000000000000000000000000000000000000000000000000081526004016125a8906142f5565b60405180910390fd5b50505050565b600082846040516020016125cc929190613a13565b6040516020818303038152906040528051906020012060001c90506001151582151514156126205781600c600083815260200190815260200160002060006101000a81548160ff0219169083151502179055505b61262a8482611ca7565b50505050565b60008082905060005b84518110156126d857600085828151811061265757612656614315565b5b6020026020010151905080831161269857828160405160200161267b929190614365565b6040516020818303038152906040528051906020012092506126c4565b80836040516020016126ab929190614365565b6040516020818303038152906040528051906020012092505b5080806126d090614391565b915050612639565b508091505092915050565b60006127048473ffffffffffffffffffffffffffffffffffffffff16612864565b15612857578373ffffffffffffffffffffffffffffffffffffffff1663150b7a02338786866040518563ffffffff1660e01b8152600401612748949392919061442f565b6020604051808303816000875af192505050801561278457506040513d601f19601f820116820180604052508101906127819190614490565b60015b612807573d80600081146127b4576040519150601f19603f3d011682016040523d82523d6000602084013e6127b9565b606091505b506000815114156127ff576040517f08c379a00000000000000000000000000000000000000000000000000000000081526004016127f6906142f5565b60405180910390fd5b805181602001fd5b63150b7a0260e01b7bffffffffffffffffffffffffffffffffffffffffffffffffffffffff1916817bffffffffffffffffffffffffffffffffffffffffffffffffffffffff19161491505061285c565b600190505b949350505050565b600080823b905060008111915050919050565b6000604051905090565b600080fd5b600080fd5b60007fffffffff0000000000000000000000000000000000000000000000000000000082169050919050565b6128c08161288b565b81146128cb57600080fd5b50565b6000813590506128dd816128b7565b92915050565b6000602082840312156128f9576128f8612881565b5b6000612907848285016128ce565b91505092915050565b60008115159050919050565b61292581612910565b82525050565b6000602082019050612940600083018461291c565b92915050565b600081519050919050565b600082825260208201905092915050565b60005b83811015612980578082015181840152602081019050612965565b8381111561298f576000848401525b50505050565b6000601f19601f8301169050919050565b60006129b182612946565b6129bb8185612951565b93506129cb818560208601612962565b6129d481612995565b840191505092915050565b600060208201905081810360008301526129f981846129a6565b905092915050565b6000819050919050565b612a1481612a01565b8114612a1f57600080fd5b50565b600081359050612a3181612a0b565b92915050565b600060208284031215612a4d57612a4c612881565b5b6000612a5b84828501612a22565b91505092915050565b600073ffffffffffffffffffffffffffffffffffffffff82169050919050565b6000612a8f82612a64565b9050919050565b612a9f81612a84565b82525050565b6000602082019050612aba6000830184612a96565b92915050565b612ac981612a84565b8114612ad457600080fd5b50565b600081359050612ae681612ac0565b92915050565b60008060408385031215612b0357612b02612881565b5b6000612b1185828601612ad7565b9250506020612b2285828601612a22565b9150509250929050565b612b3581612a01565b82525050565b6000602082019050612b506000830184612b2c565b92915050565b600080600060608486031215612b6f57612b6e612881565b5b6000612b7d86828701612ad7565b9350506020612b8e86828701612ad7565b9250506040612b9f86828701612a22565b9150509250925092565b6000819050919050565b6000612bce612bc9612bc484612a64565b612ba9565b612a64565b9050919050565b6000612be082612bb3565b9050919050565b6000612bf282612bd5565b9050919050565b612c0281612be7565b82525050565b6000602082019050612c1d6000830184612bf9565b92915050565b600080fd5b600080fd5b600080fd5b60008083601f840112612c4857612c47612c23565b5b8235905067ffffffffffffffff811115612c6557612c64612c28565b5b602083019150836020820283011115612c8157612c80612c2d565b5b9250929050565b600080600060408486031215612ca157612ca0612881565b5b600084013567ffffffffffffffff811115612cbf57612cbe612886565b5b612ccb86828701612c32565b93509350506020612cde86828701612ad7565b9150509250925092565b6000612cf382612a64565b9050919050565b612d0381612ce8565b82525050565b6000602082019050612d1e6000830184612cfa565b92915050565b6000819050919050565b612d3781612d24565b82525050565b6000602082019050612d526000830184612d2e565b92915050565b600060208284031215612d6e57612d6d612881565b5b6000612d7c84828501612ad7565b91505092915050565b612d8e81612910565b8114612d9957600080fd5b50565b600081359050612dab81612d85565b92915050565b600080600060608486031215612dca57612dc9612881565b5b6000612dd886828701612a22565b9350506020612de986828701612ad7565b9250506040612dfa86828701612d9c565b9150509250925092565b60008060408385031215612e1b57612e1a612881565b5b6000612e2985828601612ad7565b9250506020612e3a85828601612d9c565b9150509250929050565b60008060208385031215612e5b57612e5a612881565b5b600083013567ffffffffffffffff811115612e7957612e78612886565b5b612e8585828601612c32565b92509250509250929050565b600080fd5b7f4e487b7100000000000000000000000000000000000000000000000000000000600052604160045260246000fd5b612ece82612995565b810181811067ffffffffffffffff82111715612eed57612eec612e96565b5b80604052505050565b6000612f00612877565b9050612f0c8282612ec5565b919050565b600067ffffffffffffffff821115612f2c57612f2b612e96565b5b612f3582612995565b9050602081019050919050565b82818337600083830152505050565b6000612f64612f5f84612f11565b612ef6565b905082815260208101848484011115612f8057612f7f612e91565b5b612f8b848285612f42565b509392505050565b600082601f830112612fa857612fa7612c23565b5b8135612fb8848260208601612f51565b91505092915050565b60008060008060808587031215612fdb57612fda612881565b5b6000612fe987828801612ad7565b9450506020612ffa87828801612ad7565b935050604061300b87828801612a22565b925050606085013567ffffffffffffffff81111561302c5761302b612886565b5b61303887828801612f93565b91505092959194509250565b6000806040838503121561305b5761305a612881565b5b600061306985828601612ad7565b925050602061307a85828601612ad7565b9150509250929050565b7f4e487b7100000000000000000000000000000000000000000000000000000000600052602260045260246000fd5b600060028204905060018216806130cb57607f821691505b602082108114156130df576130de613084565b5b50919050565b7f4552433732313a20617070726f76656420717565727920666f72206e6f6e657860008201527f697374656e7420746f6b656e0000000000000000000000000000000000000000602082015250565b6000613141602c83612951565b915061314c826130e5565b604082019050919050565b6000602082019050818103600083015261317081613134565b9050919050565b7f4552433732313a20617070726f76616c20746f2063757272656e74206f776e6560008201527f7200000000000000000000000000000000000000000000000000000000000000602082015250565b60006131d3602183612951565b91506131de82613177565b604082019050919050565b60006020820190508181036000830152613202816131c6565b9050919050565b7f4552433732313a20617070726f76652063616c6c6572206973206e6f74206f7760008201527f6e6572206e6f7220617070726f76656420666f7220616c6c0000000000000000602082015250565b6000613265603883612951565b915061327082613209565b604082019050919050565b6000602082019050818103600083015261329481613258565b9050919050565b7f4d4f524520455448204e45454445440000000000000000000000000000000000600082015250565b60006132d1600f83612951565b91506132dc8261329b565b602082019050919050565b60006020820190508181036000830152613300816132c4565b9050919050565b7f4552433732313a207472616e736665722063616c6c6572206973206e6f74206f60008201527f776e6572206e6f7220617070726f766564000000000000000000000000000000602082015250565b6000613363603183612951565b915061336e82613307565b604082019050919050565b6000602082019050818103600083015261339281613356565b9050919050565b7f4e487b7100000000000000000000000000000000000000000000000000000000600052601160045260246000fd5b60006133d382612a01565b91506133de83612a01565b9250827fffffffffffffffffffffffffffffffffffffffffffffffffffffffffffffffff0382111561341357613412613399565b5b828201905092915050565b7f414c4c2044454c55584520484153204245454e20534f4c440000000000000000600082015250565b6000613454601883612951565b915061345f8261341e565b602082019050919050565b6000602082019050818103600083015261348381613447565b9050919050565b7f416c726561647920636c61696d65640000000000000000000000000000000000600082015250565b60006134c0600f83612951565b91506134cb8261348a565b602082019050919050565b600060208201905081810360008301526134ef816134b3565b9050919050565b60008160601b9050919050565b600061350e826134f6565b9050919050565b600061352082613503565b9050919050565b61353861353382612a84565b613515565b82525050565b600061354a8284613527565b60148201915081905092915050565b7f496e76616c69642050726f6f6600000000000000000000000000000000000000600082015250565b600061358f600d83612951565b915061359a82613559565b602082019050919050565b600060208201905081810360008301526135be81613582565b9050919050565b60006040820190506135da6000830185612b2c565b6135e7602083018461291c565b9392505050565b600067ffffffffffffffff82111561360957613608612e96565b5b61361282612995565b9050602081019050919050565b600061363261362d846135ee565b612ef6565b90508281526020810184848401111561364e5761364d612e91565b5b613659848285612962565b509392505050565b600082601f83011261367657613675612c23565b5b815161368684826020860161361f565b91505092915050565b6000602082840312156136a5576136a4612881565b5b600082015167ffffffffffffffff8111156136c3576136c2612886565b5b6136cf84828501613661565b91505092915050565b7f4552433732313a206f776e657220717565727920666f72206e6f6e657869737460008201527f656e7420746f6b656e0000000000000000000000000000000000000000000000602082015250565b6000613734602983612951565b915061373f826136d8565b604082019050919050565b6000602082019050818103600083015261376381613727565b9050919050565b7f6e6f74206f776e65720000000000000000000000000000000000000000000000600082015250565b60006137a0600983612951565b91506137ab8261376a565b602082019050919050565b600060208201905081810360008301526137cf81613793565b9050919050565b7f63616e74206368616e67652064657363726970746f7220616e796d6f72650000600082015250565b600061380c601e83612951565b9150613817826137d6565b602082019050919050565b6000602082019050818103600083015261383b816137ff565b9050919050565b7f4e4f545f4f574e45520000000000000000000000000000000000000000000000600082015250565b6000613878600983612951565b915061388382613842565b602082019050919050565b600060208201905081810360008301526138a78161386b565b9050919050565b600081905092915050565b50565b60006138c96000836138ae565b91506138d4826138b9565b600082019050919050565b60006138ea826138bc565b9150819050919050565b7f656d657267656e6379206e6f74206e6565646564000000000000000000000000600082015250565b600061392a601483612951565b9150613935826138f4565b602082019050919050565b600060208201905081810360008301526139598161391d565b9050919050565b7f4552433732313a2062616c616e636520717565727920666f7220746865207a6560008201527f726f206164647265737300000000000000000000000000000000000000000000602082015250565b60006139bc602a83612951565b91506139c782613960565b604082019050919050565b600060208201905081810360008301526139eb816139af565b9050919050565b6000819050919050565b613a0d613a0882612a01565b6139f2565b82525050565b6000613a1f82856139fc565b602082019150613a2f8284613527565b6014820191508190509392505050565b7f4552433732313a20617070726f766520746f2063616c6c657200000000000000600082015250565b6000613a75601983612951565b9150613a8082613a3f565b602082019050919050565b60006020820190508181036000830152613aa481613a68565b9050919050565b7f4552433732314d657461646174613a2055524920717565727920666f72206e6f60008201527f6e6578697374656e7420746f6b656e0000000000000000000000000000000000602082015250565b6000613b07602f83612951565b9150613b1282613aab565b604082019050919050565b60006020820190508181036000830152613b3681613afa565b9050919050565b600081905092915050565b7f7b226e616d65223a220000000000000000000000000000000000000000000000600082015250565b6000613b7e600983613b3d565b9150613b8982613b48565b600982019050919050565b6000613b9f82612946565b613ba98185613b3d565b9350613bb9818560208601612962565b80840191505092915050565b7f222c20226465736372697074696f6e223a220000000000000000000000000000600082015250565b6000613bfb601283613b3d565b9150613c0682613bc5565b601282019050919050565b7f222c2022696d616765223a202200000000000000000000000000000000000000600082015250565b6000613c47600d83613b3d565b9150613c5282613c11565b600d82019050919050565b7f646174613a696d6167652f7376672b786d6c3b6261736536342c000000000000600082015250565b6000613c93601a83613b3d565b9150613c9e82613c5d565b601a82019050919050565b7f222c000000000000000000000000000000000000000000000000000000000000600082015250565b6000613cdf600283613b3d565b9150613cea82613ca9565b600282019050919050565b7f7d00000000000000000000000000000000000000000000000000000000000000600082015250565b6000613d2b600183613b3d565b9150613d3682613cf5565b600182019050919050565b6000613d4c82613b71565b9150613d588287613b94565b9150613d6382613bee565b9150613d6f8286613b94565b9150613d7a82613c3a565b9150613d8582613c86565b9150613d918285613b94565b9150613d9c82613cd2565b9150613da88284613b94565b9150613db382613d1e565b915081905095945050505050565b7f646174613a6170706c69636174696f6e2f6a736f6e3b6261736536342c000000600082015250565b6000613df7601d83613b3d565b9150613e0282613dc1565b601d82019050919050565b6000613e1882613dea565b9150613e248284613b94565b915081905092915050565b7f4552433732313a206d696e7420746f20746865207a65726f2061646472657373600082015250565b6000613e65602083612951565b9150613e7082613e2f565b602082019050919050565b60006020820190508181036000830152613e9481613e58565b9050919050565b7f4552433732313a20746f6b656e20616c7265616479206d696e74656400000000600082015250565b6000613ed1601c83612951565b9150613edc82613e9b565b602082019050919050565b60006020820190508181036000830152613f0081613ec4565b9050919050565b7f4e4f545f53544152544544000000000000000000000000000000000000000000600082015250565b6000613f3d600b83612951565b9150613f4882613f07565b602082019050919050565b60006020820190508181036000830152613f6c81613f30565b9050919050565b7f454e444544000000000000000000000000000000000000000000000000000000600082015250565b6000613fa9600583612951565b9150613fb482613f73565b602082019050919050565b60006020820190508181036000830152613fd881613f9c565b9050919050565b7f4552433732313a206f70657261746f7220717565727920666f72206e6f6e657860008201527f697374656e7420746f6b656e0000000000000000000000000000000000000000602082015250565b600061403b602c83612951565b915061404682613fdf565b604082019050919050565b6000602082019050818103600083015261406a8161402e565b9050919050565b7f4552433732313a207472616e73666572206f6620746f6b656e2074686174206960008201527f73206e6f74206f776e0000000000000000000000000000000000000000000000602082015250565b60006140cd602983612951565b91506140d882614071565b604082019050919050565b600060208201905081810360008301526140fc816140c0565b9050919050565b7f4552433732313a207472616e7366657220746f20746865207a65726f2061646460008201527f7265737300000000000000000000000000000000000000000000000000000000602082015250565b600061415f602483612951565b915061416a82614103565b604082019050919050565b6000602082019050818103600083015261418e81614152565b9050919050565b60006141a082612a01565b91506141ab83612a01565b9250828210156141be576141bd613399565b5b828203905092915050565b7f4e487b7100000000000000000000000000000000000000000000000000000000600052601260045260246000fd5b600061420382612a01565b915061420e83612a01565b92508261421e5761421d6141c9565b5b828204905092915050565b600061423482612a01565b915061423f83612a01565b9250817fffffffffffffffffffffffffffffffffffffffffffffffffffffffffffffffff048311821515161561427857614277613399565b5b828202905092915050565b7f4552433732313a207472616e7366657220746f206e6f6e20455243373231526560008201527f63656976657220696d706c656d656e7465720000000000000000000000000000602082015250565b60006142df603283612951565b91506142ea82614283565b604082019050919050565b6000602082019050818103600083015261430e816142d2565b9050919050565b7f4e487b7100000000000000000000000000000000000000000000000000000000600052603260045260246000fd5b6000819050919050565b61435f61435a82612d24565b614344565b82525050565b6000614371828561434e565b602082019150614381828461434e565b6020820191508190509392505050565b600061439c82612a01565b91507fffffffffffffffffffffffffffffffffffffffffffffffffffffffffffffffff8214156143cf576143ce613399565b5b600182019050919050565b600081519050919050565b600082825260208201905092915050565b6000614401826143da565b61440b81856143e5565b935061441b818560208601612962565b61442481612995565b840191505092915050565b60006080820190506144446000830187612a96565b6144516020830186612a96565b61445e6040830185612b2c565b818103606083015261447081846143f6565b905095945050505050565b60008151905061448a816128b7565b92915050565b6000602082840312156144a6576144a5612881565b5b60006144b48482850161447b565b9150509291505056fe4142434445464748494a4b4c4d4e4f505152535455565758595a6162636465666768696a6b6c6d6e6f707172737475767778797a303132333435363738392b2fa2646970667358221220e58d4cfad58e8a977332a78417e5ecef06d0c1263b736e72eb7db2ee2f94c62764736f6c634300080c0033608060405234801561001057600080fd5b506133e3806100206000396000f3fe608060405234801561001057600080fd5b506004361061007d5760003560e01c806354353f2f1161005b57806354353f2f14610112578063594bf5ad146101305780635a312a3d14610160578063effaaf6a1461017e5761007d565b8063192a0a1f146100825780632581d8b3146100b257806337ee03ec146100e2575b600080fd5b61009c6004803603810190610097919061161e565b6101ae565b6040516100a991906116e4565b60405180910390f35b6100cc60048036038101906100c79190611873565b6101eb565b6040516100d991906116e4565b60405180910390f35b6100fc60048036038101906100f791906118cf565b610388565b60405161010991906116e4565b60405180910390f35b61011a610538565b60405161012791906116e4565b60405180910390f35b61014a60048036038101906101459190611a84565b610579565b60405161015791906116e4565b60405180910390f35b610168610626565b60405161017591906116e4565b60405180910390f35b610198600480360381019061019391906118cf565b61064c565b6040516101a591906116e4565b60405180910390f35b60606101c56101bc83610660565b600060086107e9565b6040516020016101d59190611bb3565b6040516020818303038152906040529050919050565b60608060005b601481101561037d57600061020686836108e5565b905060006102208760018561021b9190611c04565b610908565b90506012831415610252578360405160200161023c9190611c80565b6040516020818303038152906040529350610367565b6013831415610282578360405160200161026c9190611ccc565b6040516020818303038152906040529350610366565b60048314806102915750600983145b8061029c5750600e83145b156102fd576001151586151514156102d557836040516020016102bf9190611c80565b60405160208183030381529060405293506102f8565b836040516020016102e69190611ccc565b60405160208183030381529060405293505b610365565b6080811015610337578361031083610660565b604051602001610321929190611d18565b6040516020818303038152906040529350610364565b8361034183610660565b604051602001610352929190611d71565b60405160208183030381529060405293505b5b5b5b50506001816103769190611c04565b90506101f1565b508091505092915050565b606060008360001b6040516020016103a09190611dde565b6040516020818303038152906040529050606060011515841515141561043b576104346040518060400160405280600881526020017f416e696d617465640000000000000000000000000000000000000000000000008152506040518060400160405280600481526020017f547275650000000000000000000000000000000000000000000000000000000081525061091f565b90506104b2565b6104af6040518060400160405280600881526020017f416e696d617465640000000000000000000000000000000000000000000000008152506040518060400160405280600581526020017f46616c736500000000000000000000000000000000000000000000000000000081525061091f565b90505b60006104bd8361094b565b905060006105086040518060400160405280600b81526020017f506574616c20436f756e7400000000000000000000000000000000000000000081525061050384610660565b61091f565b9050828160405160200161051d929190611edd565b60405160208183030381529060405294505050505092915050565b606060005a60405160200161054d9190611f43565b6040516020818303038152906040528051906020012060001c90506105738160016109d3565b91505090565b6060600061058e61058986610a9a565b610660565b9050600061059b86610ad7565b905060006105b06105ab88610b07565b610660565b905060006105bd88610b44565b905060008784600381106105d4576105d3611f5e565b5b6020020151858884600381106105ed576105ec611f5e565b5b6020020151856040516020016106069493929190611f8d565b604051602081830303815290604052905080955050505050509392505050565b606060006040518060600160405280602281526020016132dd6022913990508091505090565b606061065883836109d3565b905092915050565b606060008214156106a8576040518060400160405280600181526020017f300000000000000000000000000000000000000000000000000000000000000081525090506107e4565b600082905060005b600082146106da5780806106c390611fda565b915050600a826106d39190612052565b91506106b0565b60008167ffffffffffffffff8111156106f6576106f5611710565b5b6040519080825280601f01601f1916602001820160405280156107285781602001600182028036833780820191505090505b50905060008290505b600086146107dc576001816107469190612083565b90506000600a80886107589190612052565b61076291906120b7565b8761076d9190612083565b6030610779919061211e565b905060008160f81b90508084848151811061079757610796611f5e565b5b60200101907effffffffffffffffffffffffffffffffffffffffffffffffffffffffffffff1916908160001a905350600a886107d39190612052565b97505050610731565b819450505050505b919050565b60606000849050600084846107fe9190612083565b67ffffffffffffffff81111561081757610816611710565b5b6040519080825280601f01601f1916602001820160405280156108495781602001600182028036833780820191505090505b50905060008590505b848110156108d85782818151811061086d5761086c611f5e565b5b602001015160f81c60f81b8287836108859190612083565b8151811061089657610895611f5e565b5b60200101907effffffffffffffffffffffffffffffffffffffffffffffffffffffffffffff1916908160001a90535080806108d090611fda565b915050610852565b5080925050509392505050565b600060046108f38484610b74565b60ff166109009190612052565b905092915050565b60006109148383610b74565b60ff16905092915050565b606082826040516020016109349291906121c7565b604051602081830303815290604052905092915050565b6000806040518060a00160405280600860ff168152602001600c60ff168152602001601460ff168152602001601860ff168152602001602460ff1681525090506000603461099a856000610b74565b6109a49190612218565b60ff16905060008282600581106109be576109bd611f5e565b5b602002015160ff169050809350505050919050565b606060008360001b6040516020016109eb9190611dde565b60405160208183030381529060405290506000610a078261094b565b9050600081610168610a199190612052565b90506000604051806020016040528060008152509050600115158615151415610a58576040518060e0016040528060af81526020016132ff60af913990505b80610a6285610c2a565b610a6d868686610ca5565b604051602001610a7f939291906124cf565b60405160208183030381529060405294505050505092915050565b60006101006103e8610aad846005610b74565b60ff16610aba91906120b7565b610ac49190612052565b6001610ad09190611c04565b9050919050565b60006101006003610ae9846007610b74565b60ff16610af691906120b7565b610b009190612052565b9050919050565b60006101006103e8610b1a846006610b74565b60ff16610b2791906120b7565b610b319190612052565b6001610b3d9190611c04565b9050919050565b60006101006003610b56846008610b74565b60ff16610b6391906120b7565b610b6d9190612052565b9050919050565b600081600183610b849190611c04565b1015610bc5576040517f08c379a0000000000000000000000000000000000000000000000000000000008152600401610bbc9061259a565b60405180910390fd5b600182610bd29190611c04565b83511015610c15576040517f08c379a0000000000000000000000000000000000000000000000000000000008152600401610c0c90612606565b60405180910390fd5b60008260018501015190508091505092915050565b60606000610c39836001610d8e565b90506000610c48846000610d8e565b90506000610c5585611230565b90506000610c6e826096610c699190611c04565b610660565b9050838382838485604051602001610c8b96959493929190612944565b604051602081830303815290604052945050505050919050565b60606000610cba610cb586611230565b610660565b90506000610cc78661125f565b90506000600282610cd891906120b7565b90506000610ce788888861128e565b905060008485610d02866096610cfd9190612083565b610660565b610d17866096610d129190612083565b610660565b610d2c876096610d279190612083565b610660565b610d41896096610d3c9190611c04565b610660565b610d56896096610d519190612083565b610660565b88604051602001610d6e989796959493929190612ca3565b604051602081830303815290604052905080955050505050509392505050565b60606000610f0f8460405180606001604052806040518060400160405280600381526020017f302e30000000000000000000000000000000000000000000000000000000000081525081526020016040518060400160405280600481526020017f302e30300000000000000000000000000000000000000000000000000000000081525081526020016040518060400160405280600481526020017f302e30300000000000000000000000000000000000000000000000000000000081525081525060405180606001604052806040518060400160405280600381526020017f302e30000000000000000000000000000000000000000000000000000000000081525081526020016040518060400160405280600381526020017f302e30000000000000000000000000000000000000000000000000000000000081525081526020016040518060400160405280600381526020017f302e300000000000000000000000000000000000000000000000000000000000815250815250610579565b90506000610f24610f1f8661145b565b610660565b90506110776040518060400160405280600c81526020017f666554757262756c656e63650000000000000000000000000000000000000000815250610f9e6040518060400160405280600d81526020017f626173654672657175656e637900000000000000000000000000000000000000815250856114a2565b610fdd6040518060400160405280600481526020017f7365656400000000000000000000000000000000000000000000000000000000815250856114a2565b6110516040518060400160405280600681526020017f726573756c7400000000000000000000000000000000000000000000000000008152506040518060400160405280600481526020017f74757262000000000000000000000000000000000000000000000000000000008152506114a2565b60405160200161106393929190612dd0565b6040516020818303038152906040526114ce565b6112066040518060400160405280600d81526020017f6665436f6c6f724d6174726978000000000000000000000000000000000000008152506111246040518060400160405280600281526020017f696e0000000000000000000000000000000000000000000000000000000000008152506040518060400160405280600481526020017f74757262000000000000000000000000000000000000000000000000000000008152506114a2565b61116c6040518060400160405280600681526020017f76616c75657300000000000000000000000000000000000000000000000000008152506111678b8b6101eb565b6114a2565b6111e06040518060400160405280600381526020017f6f757400000000000000000000000000000000000000000000000000000000008152506040518060400160405280600581526020017f74757262320000000000000000000000000000000000000000000000000000008152506114a2565b6040516020016111f293929190612dd0565b6040516020818303038152906040526114ce565b604051602001611217929190612e01565b6040516020818303038152906040529250505092915050565b6000600261123f836001610b74565b6112499190612218565b60b46112559190612e25565b60ff169050919050565b6000600d61126e836009610b74565b6112789190612218565b6005611284919061211e565b60ff169050919050565b606060006040518060200160405280600081525090506000604051806020016040528060008152509050600060405180602001604052806000815250905060005b868110156113ab57600260036004896112e89190612052565b6112f291906120b7565b6112fc9190611c04565b81101561139757826113246001836113149190611c04565b8861131f91906120b7565b6114fa565b604051602001611335929190612e01565b60405160208183030381529060405292508161137489605a60018561135a9190611c04565b8a61136591906120b7565b61136f9190611c04565b61154d565b604051602001611385929190612e01565b60405160208183030381529060405291505b6001816113a49190611c04565b90506112cf565b50806113da88605a60018a6113c09190611c04565b896113cb91906120b7565b6113d59190611c04565b61154d565b61140789605a60028b6113ed9190611c04565b8a6113f891906120b7565b6114029190611c04565b61154d565b60405160200161141993929190612dd0565b6040516020818303038152906040529050818160405160200161143d929190612e01565b60405160208183030381529060405292508293505050509392505050565b6000611468826004610b74565b60ff16611476836003610b74565b60ff16611484846002610b74565b60ff1661149191906120b7565b61149b91906120b7565b9050919050565b606082826040516020016114b7929190612ecb565b604051602081830303815290604052905092915050565b606082826040516020016114e3929190612f68565b604051602081830303815290604052905092915050565b606061151160018361150c9190611c04565b610660565b6115266001846115219190611c04565b610660565b604051602001611537929190613181565b6040516020818303038152906040529050919050565b6060600061155a846115a3565b905061157160018461156c9190611c04565b610660565b61157a82610660565b60405160200161158b92919061328f565b60405160208183030381529060405291505092915050565b60006101006101686115b684600a610b74565b60ff166115c391906120b7565b6115cd9190612052565b9050919050565b6000604051905090565b600080fd5b600080fd5b6000819050919050565b6115fb816115e8565b811461160657600080fd5b50565b600081359050611618816115f2565b92915050565b600060208284031215611634576116336115de565b5b600061164284828501611609565b91505092915050565b600081519050919050565b600082825260208201905092915050565b60005b8381101561168557808201518184015260208101905061166a565b83811115611694576000848401525b50505050565b6000601f19601f8301169050919050565b60006116b68261164b565b6116c08185611656565b93506116d0818560208601611667565b6116d98161169a565b840191505092915050565b600060208201905081810360008301526116fe81846116ab565b905092915050565b600080fd5b600080fd5b7f4e487b7100000000000000000000000000000000000000000000000000000000600052604160045260246000fd5b6117488261169a565b810181811067ffffffffffffffff8211171561176757611766611710565b5b80604052505050565b600061177a6115d4565b9050611786828261173f565b919050565b600067ffffffffffffffff8211156117a6576117a5611710565b5b6117af8261169a565b9050602081019050919050565b82818337600083830152505050565b60006117de6117d98461178b565b611770565b9050828152602081018484840111156117fa576117f961170b565b5b6118058482856117bc565b509392505050565b600082601f83011261182257611821611706565b5b81356118328482602086016117cb565b91505092915050565b60008115159050919050565b6118508161183b565b811461185b57600080fd5b50565b60008135905061186d81611847565b92915050565b6000806040838503121561188a576118896115de565b5b600083013567ffffffffffffffff8111156118a8576118a76115e3565b5b6118b48582860161180d565b92505060206118c58582860161185e565b9150509250929050565b600080604083850312156118e6576118e56115de565b5b60006118f485828601611609565b92505060206119058582860161185e565b9150509250929050565b600067ffffffffffffffff82111561192a57611929611710565b5b602082029050919050565b600080fd5b600067ffffffffffffffff82111561195557611954611710565b5b61195e8261169a565b9050602081019050919050565b600061197e6119798461193a565b611770565b90508281526020810184848401111561199a5761199961170b565b5b6119a58482856117bc565b509392505050565b600082601f8301126119c2576119c1611706565b5b81356119d284826020860161196b565b91505092915050565b60006119ee6119e98461190f565b611770565b90508060208402830185811115611a0857611a07611935565b5b835b81811015611a4f57803567ffffffffffffffff811115611a2d57611a2c611706565b5b808601611a3a89826119ad565b85526020850194505050602081019050611a0a565b5050509392505050565b600082601f830112611a6e57611a6d611706565b5b6003611a7b8482856119db565b91505092915050565b600080600060608486031215611a9d57611a9c6115de565b5b600084013567ffffffffffffffff811115611abb57611aba6115e3565b5b611ac78682870161180d565b935050602084013567ffffffffffffffff811115611ae857611ae76115e3565b5b611af486828701611a59565b925050604084013567ffffffffffffffff811115611b1557611b146115e3565b5b611b2186828701611a59565b9150509250925092565b600081905092915050565b7f4461697379636861696e20230000000000000000000000000000000000000000600082015250565b6000611b6c600c83611b2b565b9150611b7782611b36565b600c82019050919050565b6000611b8d8261164b565b611b978185611b2b565b9350611ba7818560208601611667565b80840191505092915050565b6000611bbe82611b5f565b9150611bca8284611b82565b915081905092915050565b7f4e487b7100000000000000000000000000000000000000000000000000000000600052601160045260246000fd5b6000611c0f826115e8565b9150611c1a836115e8565b9250827fffffffffffffffffffffffffffffffffffffffffffffffffffffffffffffffff03821115611c4f57611c4e611bd5565b5b828201905092915050565b7f3020000000000000000000000000000000000000000000000000000000000000815250565b6000611c8c8284611b82565b9150611c9782611c5a565b60028201915081905092915050565b7f3120000000000000000000000000000000000000000000000000000000000000815250565b6000611cd88284611b82565b9150611ce382611ca6565b60028201915081905092915050565b7f2000000000000000000000000000000000000000000000000000000000000000815250565b6000611d248285611b82565b9150611d308284611b82565b9150611d3b82611cf2565b6001820191508190509392505050565b7f2d00000000000000000000000000000000000000000000000000000000000000815250565b6000611d7d8285611b82565b9150611d8882611d4b565b600182019150611d988284611b82565b9150611da382611cf2565b6001820191508190509392505050565b6000819050919050565b6000819050919050565b611dd8611dd382611db3565b611dbd565b82525050565b6000611dea8284611dc7565b60208201915081905092915050565b7f2261747472696275746573223a205b0000000000000000000000000000000000600082015250565b6000611e2f600f83611b2b565b9150611e3a82611df9565b600f82019050919050565b7f2c00000000000000000000000000000000000000000000000000000000000000600082015250565b6000611e7b600183611b2b565b9150611e8682611e45565b600182019050919050565b7f5d00000000000000000000000000000000000000000000000000000000000000600082015250565b6000611ec7600183611b2b565b9150611ed282611e91565b600182019050919050565b6000611ee882611e22565b9150611ef48285611b82565b9150611eff82611e6e565b9150611f0b8284611b82565b9150611f1682611eba565b91508190509392505050565b6000819050919050565b611f3d611f38826115e8565b611f22565b82525050565b6000611f4f8284611f2c565b60208201915081905092915050565b7f4e487b7100000000000000000000000000000000000000000000000000000000600052603260045260246000fd5b6000611f998287611b82565b9150611fa58286611b82565b9150611fb082611cf2565b600182019150611fc08285611b82565b9150611fcc8284611b82565b915081905095945050505050565b6000611fe5826115e8565b91507fffffffffffffffffffffffffffffffffffffffffffffffffffffffffffffffff82141561201857612017611bd5565b5b600182019050919050565b7f4e487b7100000000000000000000000000000000000000000000000000000000600052601260045260246000fd5b600061205d826115e8565b9150612068836115e8565b92508261207857612077612023565b5b828204905092915050565b600061208e826115e8565b9150612099836115e8565b9250828210156120ac576120ab611bd5565b5b828203905092915050565b60006120c2826115e8565b91506120cd836115e8565b9250817fffffffffffffffffffffffffffffffffffffffffffffffffffffffffffffffff048311821515161561210657612105611bd5565b5b828202905092915050565b600060ff82169050919050565b600061212982612111565b915061213483612111565b92508260ff0382111561214a57612149611bd5565b5b828201905092915050565b7f7b2274726169745f74797065223a202200000000000000000000000000000000815250565b7f222c202276616c7565223a202200000000000000000000000000000000000000815250565b7f227d000000000000000000000000000000000000000000000000000000000000815250565b60006121d282612155565b6010820191506121e28285611b82565b91506121ed8261217b565b600d820191506121fd8284611b82565b9150612208826121a1565b6002820191508190509392505050565b600061222382612111565b915061222e83612111565b92508261223e5761223d612023565b5b828204905092915050565b7f3c73766720786d6c6e733d22687474703a2f2f7777772e77332e6f72672f323060008201527f30302f737667222077696474683d2233303022206865696768743d223330302260208201527f207374796c653d226261636b67726f756e643a236666662220786d6c6e733a7860408201527f6c696e6b3d22687474703a2f2f7777772e77332e6f72672f313939392f786c6960608201527f6e6b223e00000000000000000000000000000000000000000000000000000000608082015250565b6000612317608483611b2b565b915061232282612249565b608482019050919050565b7f3c672069643d22656e74697265223e0000000000000000000000000000000000815250565b7f3c75736520786c696e6b3a687265663d2223666c6f7765722220636c69702d7060008201527f6174683d2275726c282368616c66436c69702922207472616e73666f726d3d2260208201527f726f7461746528302c203135302c2031353029222f3e00000000000000000000604082015250565b60006123d5605683611b2b565b91506123e082612353565b605682019050919050565b7f3c75736520786c696e6b3a687265663d2223666c6f7765722220636c69702d7060008201527f6174683d2275726c282368616c66436c69702922207472616e73666f726d3d2260208201527f726f74617465283138302c203135302c2031353029222f3e0000000000000000604082015250565b600061246d605883611b2b565b9150612478826123eb565b605882019050919050565b7f3c2f673e00000000000000000000000000000000000000000000000000000000815250565b7f3c2f7376673e0000000000000000000000000000000000000000000000000000815250565b60006124da8261230a565b91506124e68286611b82565b91506124f28285611b82565b91506124fd8261232d565b600f8201915061250d8284611b82565b9150612518826123c8565b915061252382612460565b915061252e82612483565b60048201915061253d826124a9565b600682019150819050949350505050565b7f746f55696e74385f6f766572666c6f7700000000000000000000000000000000600082015250565b6000612584601083611656565b915061258f8261254e565b602082019050919050565b600060208201905081810360008301526125b381612577565b9050919050565b7f746f55696e74385f6f75744f66426f756e647300000000000000000000000000600082015250565b60006125f0601383611656565b91506125fb826125ba565b602082019050919050565b6000602082019050818103600083015261261f816125e3565b9050919050565b7f3c66696c7465722069643d22626c7572223e0000000000000000000000000000815250565b7f3c6665476175737369616e426c757220737464446576696174696f6e3d22312260008201527f2f3e000000000000000000000000000000000000000000000000000000000000602082015250565b60006126a8602283611b2b565b91506126b38261264c565b602282019050919050565b7f3c2f66696c7465723e0000000000000000000000000000000000000000000000815250565b7f3c66696c7465722069643d227368617270223e00000000000000000000000000815250565b7f3c636c6970506174682069643d22626c7572436c6970223e0000000000000000815250565b7f3c7265637420783d223135302220793d22313530222077696474683d2233303060008201527f22206865696768743d22333030222f3e00000000000000000000000000000000602082015250565b600061278c603083611b2b565b915061279782612730565b603082019050919050565b7f3c2f636c6970506174683e000000000000000000000000000000000000000000815250565b7f3c636c6970506174682069643d227061747465726e436c6970223e0000000000815250565b7f3c7061746820643d224d2031353020313530204c200000000000000000000000815250565b7f2031353020512000000000000000000000000000000000000000000000000000815250565b7f2031353020000000000000000000000000000000000000000000000000000000815250565b7f205a222f3e3c2f636c6970506174683e00000000000000000000000000000000815250565b7f3c636c6970506174682069643d2268616c66436c6970223e0000000000000000815250565b7f3c72656374207472616e73666f726d3d22726f7461746528312c203135302c2060008201527f31353029222077696474683d2232363022206865696768743d2236313022207860208201527f3d222d3131302220793d222d313130222f3e0000000000000000000000000000604082015250565b600061292e605283611b2b565b9150612939826128ac565b605282019050919050565b600061294f82612626565b60128201915061295f8289611b82565b915061296a8261269b565b9150612975826126be565b600982019150612984826126e4565b6013820191506129948288611b82565b915061299f826126be565b6009820191506129ae8261270a565b6018820191506129bd8261277f565b91506129c8826127a2565b600b820191506129d7826127c8565b601b820191506129e6826127ee565b6015820191506129f68287611b82565b9150612a0182612814565b600782019150612a118286611b82565b9150612a1c82611cf2565b600182019150612a2c8285611b82565b9150612a378261283a565b600582019150612a478284611b82565b9150612a5282612860565b601082019150612a6182612886565b601882019150612a7082612921565b9150612a7b826127a2565b600b82019150819050979650505050505050565b7f3c646566733e0000000000000000000000000000000000000000000000000000815250565b7f3c726563742069643d227461702220783d223135302220793d2231353022207760008201527f696474683d220000000000000000000000000000000000000000000000000000602082015250565b6000612b11602683611b2b565b9150612b1c82612ab5565b602682019050919050565b7f22206865696768743d2200000000000000000000000000000000000000000000815250565b7f222066696c7465723d2275726c2823736861727029222f3e0000000000000000815250565b7f3c726563742069643d22626c75727461702220783d223135302220793d22313560008201527f30222077696474683d2235303022206865696768743d22353030222066696c7460208201527f65723d2275726c2823626c757229222f3e000000000000000000000000000000604082015250565b6000612bf5605183611b2b565b9150612c0082612b73565b605182019050919050565b7f3c706174682069643d2270746c2220643d224d20313530203135302051200000815250565b7f2031353020313530205a22207374726f6b653d22626c61636b222f3e00000000815250565b7f3c672069643d22666c6f776572223e0000000000000000000000000000000000815250565b7f3c2f673e3c2f646566733e000000000000000000000000000000000000000000815250565b6000612cae82612a8f565b600682019150612cbd82612b04565b9150612cc9828b611b82565b9150612cd482612b27565b600a82019150612ce4828a611b82565b9150612cef82612b4d565b601882019150612cfe82612be8565b9150612d0982612c0b565b601e82019150612d198289611b82565b9150612d2482611cf2565b600182019150612d348288611b82565b9150612d3f8261283a565b600582019150612d4f8287611b82565b9150612d5a82611cf2565b600182019150612d6a8286611b82565b9150612d7582611cf2565b600182019150612d858285611b82565b9150612d9082612c31565b601c82019150612d9f82612c57565b600f82019150612daf8284611b82565b9150612dba82612c7d565b600b820191508190509998505050505050505050565b6000612ddc8286611b82565b9150612de88285611b82565b9150612df48284611b82565b9150819050949350505050565b6000612e0d8285611b82565b9150612e198284611b82565b91508190509392505050565b6000612e3082612111565b9150612e3b83612111565b925082821015612e4e57612e4d611bd5565b5b828203905092915050565b7f3d00000000000000000000000000000000000000000000000000000000000000815250565b7f2200000000000000000000000000000000000000000000000000000000000000815250565b7f2220000000000000000000000000000000000000000000000000000000000000815250565b6000612ed78285611b82565b9150612ee282612e59565b600182019150612ef182612e7f565b600182019150612f018284611b82565b9150612f0c82612ea5565b6002820191508190509392505050565b7f3c00000000000000000000000000000000000000000000000000000000000000815250565b7f2f3e000000000000000000000000000000000000000000000000000000000000815250565b6000612f7382612f1c565b600182019150612f838285611b82565b9150612f8e82611cf2565b600182019150612f9e8284611b82565b9150612fa982612f42565b6002820191508190509392505050565b7f3c75736520786c696e6b3a687265663d2223626c757274617022207472616e7360008201527f666f726d3d22726f746174652800000000000000000000000000000000000000602082015250565b6000613015602d83611b2b565b915061302082612fb9565b602d82019050919050565b7f2c203135302c20313530292220636c69702d706174683d2275726c2823626c7560008201527f72436c697029222f3e0000000000000000000000000000000000000000000000602082015250565b6000613087602983611b2b565b91506130928261302b565b602982019050919050565b7f3c75736520786c696e6b3a687265663d222374617022207472616e73666f726d60008201527f3d22726f74617465280000000000000000000000000000000000000000000000602082015250565b60006130f9602983611b2b565b91506131048261309d565b602982019050919050565b7f2c203135302c20313530292220636c69702d706174683d2275726c282370617460008201527f7465726e436c697029222f3e0000000000000000000000000000000000000000602082015250565b600061316b602c83611b2b565b91506131768261310f565b602c82019050919050565b600061318c82613008565b91506131988285611b82565b91506131a38261307a565b91506131ae826130ec565b91506131ba8284611b82565b91506131c58261315e565b91508190509392505050565b7f3c75736520786c696e6b3a687265663d222370746c22207472616e73666f726d60008201527f3d22726f74617465280000000000000000000000000000000000000000000000602082015250565b600061322d602983611b2b565b9150613238826131d1565b602982019050919050565b7f2c203135302c2031353029222066696c6c3d2268736c28000000000000000000815250565b7f2c313030252c3530252922207374726f6b653d22626c61636b222f3e00000000815250565b600061329a82613220565b91506132a68285611b82565b91506132b182613243565b6017820191506132c18284611b82565b91506132cc82613269565b601c82019150819050939250505056fe4461697379636861696e732e204c69666520496e204576657279204272656174682e3c7374796c653e23656e74697265207b7472616e73666f726d2d6f726967696e3a2031353070782031353070783b616e696d6174696f6e3a20726f7461746520383073206c696e65617220696e66696e6974653b207d406b65796672616d657320726f74617465207b66726f6d207b7472616e73666f726d3a20726f746174652830646567293b7d746f207b7472616e73666f726d3a20726f7461746528333630646567293b7d3c2f7374796c653ea2646970667358221220003a4400cbdaf2bbd7ea58fcaa2e313d5bcd0e91313d2a32a64834e7e4e68aff64736f6c634300080c0033",
  "linkReferences": {},
  "deployedLinkReferences": {}
}