{
  "_format": "hh-sol-artifact-1",
  "contractName": "Collection",
  "sourceName": "contracts/Collection.sol",
  "abi": [
    {
      "inputs": [
        {
          "internalType": "string",
          "name": "name_",
          "type": "string"
        },
        {
          "internalType": "string",
          "name": "symbol_",
          "type": "string"
        },
        {
          "internalType": "address payable",
          "name": "recipient_",
          "type": "address"
        },
        {
          "internalType": "uint256",
          "name": "startDate_",
          "type": "uint256"
        },
        {
          "internalType": "uint256",
          "name": "endDate_",
          "type": "uint256"
        },
        {
          "internalType": "bytes32",
          "name": "root_",
          "type": "bytes32"
        }
      ],
      "stateMutability": "nonpayable",
      "type": "constructor"
    },
    {
      "anonymous": false,
      "inputs": [
        {
          "indexed": true,
          "internalType": "address",
          "name": "owner",
          "type": "address"
        },
        {
          "indexed": true,
          "internalType": "address",
          "name": "approved",
          "type": "address"
        },
        {
          "indexed": true,
          "internalType": "uint256",
          "name": "tokenId",
          "type": "uint256"
        }
      ],
      "name": "Approval",
      "type": "event"
    },
    {
      "anonymous": false,
      "inputs": [
        {
          "indexed": true,
          "internalType": "address",
          "name": "owner",
          "type": "address"
        },
        {
          "indexed": true,
          "internalType": "address",
          "name": "operator",
          "type": "address"
        },
        {
          "indexed": false,
          "internalType": "bool",
          "name": "approved",
          "type": "bool"
        }
      ],
      "name": "ApprovalForAll",
      "type": "event"
    },
    {
      "anonymous": false,
      "inputs": [
        {
          "indexed": true,
          "internalType": "address",
          "name": "from",
          "type": "address"
        },
        {
          "indexed": true,
          "internalType": "address",
          "name": "to",
          "type": "address"
        },
        {
          "indexed": true,
          "internalType": "uint256",
          "name": "tokenId",
          "type": "uint256"
        }
      ],
      "name": "Transfer",
      "type": "event"
    },
    {
      "inputs": [
        {
          "internalType": "address",
          "name": "to",
          "type": "address"
        },
        {
          "internalType": "uint256",
          "name": "tokenId",
          "type": "uint256"
        }
      ],
      "name": "approve",
      "outputs": [],
      "stateMutability": "nonpayable",
      "type": "function"
    },
    {
      "inputs": [
        {
          "internalType": "address",
          "name": "owner",
          "type": "address"
        }
      ],
      "name": "balanceOf",
      "outputs": [
        {
          "internalType": "uint256",
          "name": "",
          "type": "uint256"
        }
      ],
      "stateMutability": "view",
      "type": "function"
    },
    {
      "inputs": [
        {
          "internalType": "address",
          "name": "_newDescriptor",
          "type": "address"
        }
      ],
      "name": "changeDescriptor",
      "outputs": [],
      "stateMutability": "nonpayable",
      "type": "function"
    },
    {
      "inputs": [
        {
          "internalType": "address",
          "name": "",
          "type": "address"
        }
      ],
      "name": "claimed",
      "outputs": [
        {
          "internalType": "bool",
          "name": "",
          "type": "bool"
        }
      ],
      "stateMutability": "view",
      "type": "function"
    },
    {
      "inputs": [],
      "name": "deluxeBuyableSupply",
      "outputs": [
        {
          "internalType": "uint256",
          "name": "",
          "type": "uint256"
        }
      ],
      "stateMutability": "view",
      "type": "function"
    },
    {
      "inputs": [
        {
          "internalType": "uint256",
          "name": "",
          "type": "uint256"
        }
      ],
      "name": "deluxeIDs",
      "outputs": [
        {
          "internalType": "bool",
          "name": "",
          "type": "bool"
        }
      ],
      "stateMutability": "view",
      "type": "function"
    },
    {
      "inputs": [],
      "name": "descriptor",
      "outputs": [
        {
          "internalType": "contract CollectionDescriptor",
          "name": "",
          "type": "address"
        }
      ],
      "stateMutability": "view",
      "type": "function"
    },
    {
      "inputs": [
        {
          "internalType": "address",
          "name": "_newRecipient",
          "type": "address"
        }
      ],
      "name": "emergencyWithdraw",
      "outputs": [],
      "stateMutability": "nonpayable",
      "type": "function"
    },
    {
      "inputs": [],
      "name": "endDate",
      "outputs": [
        {
          "internalType": "uint256",
          "name": "",
          "type": "uint256"
        }
      ],
      "stateMutability": "view",
      "type": "function"
    },
    {
      "inputs": [
        {
          "internalType": "uint256",
          "name": "tokenId",
          "type": "uint256"
        }
      ],
      "name": "generateBase64Image",
      "outputs": [
        {
          "internalType": "string",
          "name": "",
          "type": "string"
        }
      ],
      "stateMutability": "view",
      "type": "function"
    },
    {
      "inputs": [
        {
          "internalType": "uint256",
          "name": "_seed",
          "type": "uint256"
        },
        {
          "internalType": "address",
          "name": "_owner",
          "type": "address"
        },
        {
          "internalType": "bool",
          "name": "deluxe",
          "type": "bool"
        }
      ],
      "name": "generateFullImageFromVM",
      "outputs": [
        {
          "internalType": "string",
          "name": "",
          "type": "string"
        }
      ],
      "stateMutability": "view",
      "type": "function"
    },
    {
      "inputs": [
        {
          "internalType": "uint256",
          "name": "_seed",
          "type": "uint256"
        },
        {
          "internalType": "address",
          "name": "_minter",
          "type": "address"
        },
        {
          "internalType": "bool",
          "name": "deluxe",
          "type": "bool"
        }
      ],
      "name": "generateFullTraitsFromVM",
      "outputs": [
        {
          "internalType": "string",
          "name": "",
          "type": "string"
        }
      ],
      "stateMutability": "view",
      "type": "function"
    },
    {
      "inputs": [
        {
          "internalType": "uint256",
          "name": "tokenId",
          "type": "uint256"
        }
      ],
      "name": "generateImage",
      "outputs": [
        {
          "internalType": "string",
          "name": "",
          "type": "string"
        }
      ],
      "stateMutability": "view",
      "type": "function"
    },
    {
      "inputs": [
        {
          "internalType": "uint256",
          "name": "tokenId",
          "type": "uint256"
        },
        {
          "internalType": "bool",
          "name": "deluxe",
          "type": "bool"
        }
      ],
      "name": "generateImageFromTokenIDAndDeluxe",
      "outputs": [
        {
          "internalType": "string",
          "name": "",
          "type": "string"
        }
      ],
      "stateMutability": "view",
      "type": "function"
    },
    {
      "inputs": [
        {
          "internalType": "uint256",
          "name": "tokenId",
          "type": "uint256"
        }
      ],
      "name": "generateTraits",
      "outputs": [
        {
          "internalType": "string",
          "name": "",
          "type": "string"
        }
      ],
      "stateMutability": "view",
      "type": "function"
    },
    {
      "inputs": [
        {
          "internalType": "uint256",
          "name": "tokenId",
          "type": "uint256"
        }
      ],
      "name": "getApproved",
      "outputs": [
        {
          "internalType": "address",
          "name": "",
          "type": "address"
        }
      ],
      "stateMutability": "view",
      "type": "function"
    },
    {
      "inputs": [
        {
          "internalType": "address",
          "name": "owner",
          "type": "address"
        },
        {
          "internalType": "address",
          "name": "operator",
          "type": "address"
        }
      ],
      "name": "isApprovedForAll",
      "outputs": [
        {
          "internalType": "bool",
          "name": "",
          "type": "bool"
        }
      ],
      "stateMutability": "view",
      "type": "function"
    },
    {
      "inputs": [
        {
          "internalType": "bytes32[]",
          "name": "proof",
          "type": "bytes32[]"
        }
      ],
      "name": "loyalMint",
      "outputs": [],
      "stateMutability": "nonpayable",
      "type": "function"
    },
    {
      "inputs": [
        {
          "internalType": "bytes32[]",
          "name": "proof",
          "type": "bytes32[]"
        },
        {
          "internalType": "address",
          "name": "leaf",
          "type": "address"
        }
      ],
      "name": "loyalMintLeaf",
      "outputs": [],
      "stateMutability": "nonpayable",
      "type": "function"
    },
    {
      "inputs": [],
      "name": "loyaltyRoot",
      "outputs": [
        {
          "internalType": "bytes32",
          "name": "",
          "type": "bytes32"
        }
      ],
      "stateMutability": "view",
      "type": "function"
    },
    {
      "inputs": [],
      "name": "mint",
      "outputs": [],
      "stateMutability": "payable",
      "type": "function"
    },
    {
      "inputs": [],
      "name": "mintDeluxe",
      "outputs": [],
      "stateMutability": "payable",
      "type": "function"
    },
    {
      "inputs": [],
      "name": "name",
      "outputs": [
        {
          "internalType": "string",
          "name": "",
          "type": "string"
        }
      ],
      "stateMutability": "view",
      "type": "function"
    },
    {
      "inputs": [],
      "name": "owner",
      "outputs": [
        {
          "internalType": "address",
          "name": "",
          "type": "address"
        }
      ],
      "stateMutability": "view",
      "type": "function"
    },
    {
      "inputs": [
        {
          "internalType": "uint256",
          "name": "tokenId",
          "type": "uint256"
        }
      ],
      "name": "ownerOf",
      "outputs": [
        {
          "internalType": "address",
          "name": "",
          "type": "address"
        }
      ],
      "stateMutability": "view",
      "type": "function"
    },
    {
      "inputs": [],
      "name": "recipient",
      "outputs": [
        {
          "internalType": "address payable",
          "name": "",
          "type": "address"
        }
      ],
      "stateMutability": "view",
      "type": "function"
    },
    {
      "inputs": [
        {
          "internalType": "address",
          "name": "from",
          "type": "address"
        },
        {
          "internalType": "address",
          "name": "to",
          "type": "address"
        },
        {
          "internalType": "uint256",
          "name": "tokenId",
          "type": "uint256"
        }
      ],
      "name": "safeTransferFrom",
      "outputs": [],
      "stateMutability": "nonpayable",
      "type": "function"
    },
    {
      "inputs": [
        {
          "internalType": "address",
          "name": "from",
          "type": "address"
        },
        {
          "internalType": "address",
          "name": "to",
          "type": "address"
        },
        {
          "internalType": "uint256",
          "name": "tokenId",
          "type": "uint256"
        },
        {
          "internalType": "bytes",
          "name": "_data",
          "type": "bytes"
        }
      ],
      "name": "safeTransferFrom",
      "outputs": [],
      "stateMutability": "nonpayable",
      "type": "function"
    },
    {
      "inputs": [
        {
          "internalType": "address",
          "name": "operator",
          "type": "address"
        },
        {
          "internalType": "bool",
          "name": "approved",
          "type": "bool"
        }
      ],
      "name": "setApprovalForAll",
      "outputs": [],
      "stateMutability": "nonpayable",
      "type": "function"
    },
    {
      "inputs": [],
      "name": "startDate",
      "outputs": [
        {
          "internalType": "uint256",
          "name": "",
          "type": "uint256"
        }
      ],
      "stateMutability": "view",
      "type": "function"
    },
    {
      "inputs": [
        {
          "internalType": "bytes4",
          "name": "interfaceId",
          "type": "bytes4"
        }
      ],
      "name": "supportsInterface",
      "outputs": [
        {
          "internalType": "bool",
          "name": "",
          "type": "bool"
        }
      ],
      "stateMutability": "view",
      "type": "function"
    },
    {
      "inputs": [],
      "name": "symbol",
      "outputs": [
        {
          "internalType": "string",
          "name": "",
          "type": "string"
        }
      ],
      "stateMutability": "view",
      "type": "function"
    },
    {
      "inputs": [
        {
          "internalType": "uint256",
          "name": "tokenId",
          "type": "uint256"
        }
      ],
      "name": "tokenURI",
      "outputs": [
        {
          "internalType": "string",
          "name": "",
          "type": "string"
        }
      ],
      "stateMutability": "view",
      "type": "function"
    },
    {
      "inputs": [
        {
          "internalType": "address",
          "name": "from",
          "type": "address"
        },
        {
          "internalType": "address",
          "name": "to",
          "type": "address"
        },
        {
          "internalType": "uint256",
          "name": "tokenId",
          "type": "uint256"
        }
      ],
      "name": "transferFrom",
      "outputs": [],
      "stateMutability": "nonpayable",
      "type": "function"
    },
    {
      "inputs": [],
      "name": "withdrawETH",
      "outputs": [],
      "stateMutability": "nonpayable",
      "type": "function"
    }
  ],
  "bytecode": "0x60806040523480156200001157600080fd5b50604051620085cd380380620085cd833981810160405281019062000037919062000829565b8585816000908051906020019062000051929190620004f3565b5080600190805190602001906200006a929190620004f3565b50505033600660006101000a81548173ffffffffffffffffffffffffffffffffffffffff021916908373ffffffffffffffffffffffffffffffffffffffff160217905550604051620000bc9062000584565b604051809103906000f080158015620000d9573d6000803e3d6000fd5b50600860006101000a81548173ffffffffffffffffffffffffffffffffffffffff021916908373ffffffffffffffffffffffffffffffffffffffff16021790555083600760006101000a81548173ffffffffffffffffffffffffffffffffffffffff021916908373ffffffffffffffffffffffffffffffffffffffff1602179055508260098190555081600a8190555080600e81905550620001a6600660009054906101000a900473ffffffffffffffffffffffffffffffffffffffff164260016200022c60201b60201c565b6001600d6000600660009054906101000a900473ffffffffffffffffffffffffffffffffffffffff1673ffffffffffffffffffffffffffffffffffffffff1673ffffffffffffffffffffffffffffffffffffffff16815260200190815260200160002060006101000a81548160ff02191690831515021790555050505050505062000ba2565b60008284604051602001620002439291906200098c565b6040516020818303038152906040528051906020012060001c9050600115158215151415620002985781600c600083815260200190815260200160002060006101000a81548160ff0219169083151502179055505b620002af8482620002b560201b62001d9b1760201c565b50505050565b600073ffffffffffffffffffffffffffffffffffffffff168273ffffffffffffffffffffffffffffffffffffffff16141562000328576040517f08c379a00000000000000000000000000000000000000000000000000000000081526004016200031f9062000a1d565b60405180910390fd5b62000339816200048760201b60201c565b156200037c576040517f08c379a0000000000000000000000000000000000000000000000000000000008152600401620003739062000a8f565b60405180910390fd5b6001600360008473ffffffffffffffffffffffffffffffffffffffff1673ffffffffffffffffffffffffffffffffffffffff1681526020019081526020016000206000828254620003ce919062000ae0565b92505081905550816002600083815260200190815260200160002060006101000a81548173ffffffffffffffffffffffffffffffffffffffff021916908373ffffffffffffffffffffffffffffffffffffffff160217905550808273ffffffffffffffffffffffffffffffffffffffff16600073ffffffffffffffffffffffffffffffffffffffff167fddf252ad1be2c89b69c2b068fc378daa952ba7f163c4a11628f55a4df523b3ef60405160405180910390a45050565b60008073ffffffffffffffffffffffffffffffffffffffff166002600084815260200190815260200160002060009054906101000a900473ffffffffffffffffffffffffffffffffffffffff1673ffffffffffffffffffffffffffffffffffffffff1614159050919050565b828054620005019062000b6c565b90600052602060002090601f01602090048101928262000525576000855562000571565b82601f106200054057805160ff191683800117855562000571565b8280016001018555821562000571579182015b828111156200057057825182559160200191906001019062000553565b5b50905062000580919062000592565b5090565b6133b4806200521983390190565b5b80821115620005ad57600081600090555060010162000593565b5090565b6000604051905090565b600080fd5b600080fd5b600080fd5b600080fd5b6000601f19601f8301169050919050565b7f4e487b7100000000000000000000000000000000000000000000000000000000600052604160045260246000fd5b6200061a82620005cf565b810181811067ffffffffffffffff821117156200063c576200063b620005e0565b5b80604052505050565b600062000651620005b1565b90506200065f82826200060f565b919050565b600067ffffffffffffffff821115620006825762000681620005e0565b5b6200068d82620005cf565b9050602081019050919050565b60005b83811015620006ba5780820151818401526020810190506200069d565b83811115620006ca576000848401525b50505050565b6000620006e7620006e18462000664565b62000645565b905082815260208101848484011115620007065762000705620005ca565b5b620007138482856200069a565b509392505050565b600082601f830112620007335762000732620005c5565b5b815162000745848260208601620006d0565b91505092915050565b600073ffffffffffffffffffffffffffffffffffffffff82169050919050565b60006200077b826200074e565b9050919050565b6200078d816200076e565b81146200079957600080fd5b50565b600081519050620007ad8162000782565b92915050565b6000819050919050565b620007c881620007b3565b8114620007d457600080fd5b50565b600081519050620007e881620007bd565b92915050565b6000819050919050565b6200080381620007ee565b81146200080f57600080fd5b50565b6000815190506200082381620007f8565b92915050565b60008060008060008060c08789031215620008495762000848620005bb565b5b600087015167ffffffffffffffff8111156200086a5762000869620005c0565b5b6200087889828a016200071b565b965050602087015167ffffffffffffffff8111156200089c576200089b620005c0565b5b620008aa89828a016200071b565b9550506040620008bd89828a016200079c565b9450506060620008d089828a01620007d7565b9350506080620008e389828a01620007d7565b92505060a0620008f689828a0162000812565b9150509295509295509295565b6000819050919050565b620009226200091c82620007b3565b62000903565b82525050565b600062000935826200074e565b9050919050565b60008160601b9050919050565b600062000956826200093c565b9050919050565b60006200096a8262000949565b9050919050565b62000986620009808262000928565b6200095d565b82525050565b60006200099a82856200090d565b602082019150620009ac828462000971565b6014820191508190509392505050565b600082825260208201905092915050565b7f4552433732313a206d696e7420746f20746865207a65726f2061646472657373600082015250565b600062000a05602083620009bc565b915062000a1282620009cd565b602082019050919050565b6000602082019050818103600083015262000a3881620009f6565b9050919050565b7f4552433732313a20746f6b656e20616c7265616479206d696e74656400000000600082015250565b600062000a77601c83620009bc565b915062000a848262000a3f565b602082019050919050565b6000602082019050818103600083015262000aaa8162000a68565b9050919050565b7f4e487b7100000000000000000000000000000000000000000000000000000000600052601160045260246000fd5b600062000aed82620007b3565b915062000afa83620007b3565b9250827fffffffffffffffffffffffffffffffffffffffffffffffffffffffffffffffff0382111562000b325762000b3162000ab1565b5b828201905092915050565b7f4e487b7100000000000000000000000000000000000000000000000000000000600052602260045260246000fd5b6000600282049050600182168062000b8557607f821691505b6020821081141562000b9c5762000b9b62000b3d565b5b50919050565b6146678062000bb26000396000f3fe6080604052600436106102045760003560e01c80636ff1c9bc11610118578063aba048b4116100a0578063c87b56dd1161006f578063c87b56dd14610773578063c884ef83146107b0578063e086e5ec146107ed578063e985e9c514610804578063fd85b89f1461084157610204565b8063aba048b4146106cb578063b88d4fde146106f4578063c24a0f8b1461071d578063c35ab7161461074857610204565b806395d89b41116100e757806395d89b41146105c0578063a22cb465146105eb578063a48b3b8f14610614578063a7bd0dba14610651578063ab7b5c8a1461068e57610204565b80636ff1c9bc146104f257806370a082311461051b57806379b92f27146105585780638da5cb5b1461059557610204565b80633ea8aa241161019b578063551c05fd1161016a578063551c05fd146103f95780636352211e1461043657806366d003ac146104735780636d9ec4941461049e5780636ddab6f9146104c957610204565b80633ea8aa2414610360578063423d79391461036a57806342842e0e146103935780634b44d812146103bc57610204565b80630b97bc86116101d75780630b97bc86146102d75780631249c58b1461030257806323b872dd1461030c578063303e74df1461033557610204565b806301ffc9a71461020957806306fdde0314610246578063081812fc14610271578063095ea7b3146102ae575b600080fd5b34801561021557600080fd5b50610230600480360381019061022b91906129d7565b61087e565b60405161023d9190612a1f565b60405180910390f35b34801561025257600080fd5b5061025b610960565b6040516102689190612ad3565b60405180910390f35b34801561027d57600080fd5b5061029860048036038101906102939190612b2b565b6109f2565b6040516102a59190612b99565b60405180910390f35b3480156102ba57600080fd5b506102d560048036038101906102d09190612be0565b610a77565b005b3480156102e357600080fd5b506102ec610b81565b6040516102f99190612c2f565b60405180910390f35b61030a610b87565b005b34801561031857600080fd5b50610333600480360381019061032e9190612c4a565b610bdf565b005b34801561034157600080fd5b5061034a610c38565b6040516103579190612cfc565b60405180910390f35b610368610c5e565b005b34801561037657600080fd5b50610391600480360381019061038c9190612d7c565b610d16565b005b34801561039f57600080fd5b506103ba60048036038101906103b59190612c4a565b610ecb565b005b3480156103c857600080fd5b506103e360048036038101906103de9190612b2b565b610eeb565b6040516103f09190612ad3565b60405180910390f35b34801561040557600080fd5b50610420600480360381019061041b9190612e08565b610fbd565b60405161042d9190612ad3565b60405180910390f35b34801561044257600080fd5b5061045d60048036038101906104589190612b2b565b61106a565b60405161046a9190612b99565b60405180910390f35b34801561047f57600080fd5b5061048861111c565b6040516104959190612e69565b60405180910390f35b3480156104aa57600080fd5b506104b3611142565b6040516104c09190612e9d565b60405180910390f35b3480156104d557600080fd5b506104f060048036038101906104eb9190612eb8565b611148565b005b3480156104fe57600080fd5b5061051960048036038101906105149190612eb8565b611262565b005b34801561052757600080fd5b50610542600480360381019061053d9190612eb8565b61143d565b60405161054f9190612c2f565b60405180910390f35b34801561056457600080fd5b5061057f600480360381019061057a9190612b2b565b6114f5565b60405161058c9190612ad3565b60405180910390f35b3480156105a157600080fd5b506105aa6115c7565b6040516105b79190612b99565b60405180910390f35b3480156105cc57600080fd5b506105d56115ed565b6040516105e29190612ad3565b60405180910390f35b3480156105f757600080fd5b50610612600480360381019061060d9190612ee5565b61167f565b005b34801561062057600080fd5b5061063b60048036038101906106369190612b2b565b6117eb565b6040516106489190612ad3565b60405180910390f35b34801561065d57600080fd5b5061067860048036038101906106739190612b2b565b61180b565b6040516106859190612a1f565b60405180910390f35b34801561069a57600080fd5b506106b560048036038101906106b09190612f25565b61182b565b6040516106c29190612ad3565b60405180910390f35b3480156106d757600080fd5b506106f260048036038101906106ed9190612f78565b61190a565b005b34801561070057600080fd5b5061071b600480360381019061071691906130f5565b611919565b005b34801561072957600080fd5b50610732611974565b60405161073f9190612c2f565b60405180910390f35b34801561075457600080fd5b5061075d61197a565b60405161076a9190612c2f565b60405180910390f35b34801561077f57600080fd5b5061079a60048036038101906107959190612b2b565b611980565b6040516107a79190612ad3565b60405180910390f35b3480156107bc57600080fd5b506107d760048036038101906107d29190612eb8565b611b7b565b6040516107e49190612a1f565b60405180910390f35b3480156107f957600080fd5b50610802611b9b565b005b34801561081057600080fd5b5061082b60048036038101906108269190613178565b611c28565b6040516108389190612a1f565b60405180910390f35b34801561084d57600080fd5b5061086860048036038101906108639190612f25565b611cbc565b6040516108759190612ad3565b60405180910390f35b60007f80ac58cd000000000000000000000000000000000000000000000000000000007bffffffffffffffffffffffffffffffffffffffffffffffffffffffff1916827bffffffffffffffffffffffffffffffffffffffffffffffffffffffff1916148061094957507f5b5e139f000000000000000000000000000000000000000000000000000000007bffffffffffffffffffffffffffffffffffffffffffffffffffffffff1916827bffffffffffffffffffffffffffffffffffffffffffffffffffffffff1916145b80610959575061095882611f5d565b5b9050919050565b60606000805461096f906131e7565b80601f016020809104026020016040519081016040528092919081815260200182805461099b906131e7565b80156109e85780601f106109bd576101008083540402835291602001916109e8565b820191906000526020600020905b8154815290600101906020018083116109cb57829003601f168201915b5050505050905090565b60006109fd82611fc7565b610a3c576040517f08c379a0000000000000000000000000000000000000000000000000000000008152600401610a339061328b565b60405180910390fd5b6004600083815260200190815260200160002060009054906101000a900473ffffffffffffffffffffffffffffffffffffffff169050919050565b6000610a828261106a565b90508073ffffffffffffffffffffffffffffffffffffffff168373ffffffffffffffffffffffffffffffffffffffff161415610af3576040517f08c379a0000000000000000000000000000000000000000000000000000000008152600401610aea9061331d565b60405180910390fd5b8073ffffffffffffffffffffffffffffffffffffffff163373ffffffffffffffffffffffffffffffffffffffff161480610b335750610b328133611c28565b5b610b72576040517f08c379a0000000000000000000000000000000000000000000000000000000008152600401610b69906133af565b60405180910390fd5b610b7c8383612033565b505050565b60095481565b6638d7ea4c680000341015610bd1576040517f08c379a0000000000000000000000000000000000000000000000000000000008152600401610bc89061341b565b60405180910390fd5b610bdd334260006120ec565b565b610be93382612184565b610c28576040517f08c379a0000000000000000000000000000000000000000000000000000000008152600401610c1f906134ad565b60405180910390fd5b610c33838383612262565b505050565b600860009054906101000a900473ffffffffffffffffffffffffffffffffffffffff1681565b6001600b6000828254610c7191906134fc565b925050819055506060600b541115610cbe576040517f08c379a0000000000000000000000000000000000000000000000000000000008152600401610cb59061359e565b60405180910390fd5b66c3663566a58000341015610d08576040517f08c379a0000000000000000000000000000000000000000000000000000000008152600401610cff9061341b565b60405180910390fd5b610d14334260016120ec565b565b60001515600d60008373ffffffffffffffffffffffffffffffffffffffff1673ffffffffffffffffffffffffffffffffffffffff16815260200190815260200160002060009054906101000a900460ff16151514610da9576040517f08c379a0000000000000000000000000000000000000000000000000000000008152600401610da09061360a565b60405180910390fd5b6001600d60008373ffffffffffffffffffffffffffffffffffffffff1673ffffffffffffffffffffffffffffffffffffffff16815260200190815260200160002060006101000a81548160ff021916908315150217905550600081604051602001610e149190613672565b604051602081830303815290604052805190602001209050610e7a848480806020026020016040519081016040528093929190818152602001838360200280828437600081840152601f19601f82011690508083019250505050505050600e54836124b3565b610eb9576040517f08c379a0000000000000000000000000000000000000000000000000000000008152600401610eb0906136d9565b60405180910390fd5b610ec5824260016120ec565b50505050565b610ee683838360405180602001604052806000815250611919565b505050565b60606000600c600084815260200190815260200160002060009054906101000a900460ff169050600860009054906101000a900473ffffffffffffffffffffffffffffffffffffffff1673ffffffffffffffffffffffffffffffffffffffff1663effaaf6a84836040518363ffffffff1660e01b8152600401610f6f9291906136f9565b600060405180830381865afa158015610f8c573d6000803e3d6000fd5b505050506040513d6000823e3d601f19601f82011682018060405250810190610fb591906137c3565b915050919050565b6060600860009054906101000a900473ffffffffffffffffffffffffffffffffffffffff1673ffffffffffffffffffffffffffffffffffffffff1663effaaf6a84846040518363ffffffff1660e01b815260040161101c9291906136f9565b600060405180830381865afa158015611039573d6000803e3d6000fd5b505050506040513d6000823e3d601f19601f8201168201806040525081019061106291906137c3565b905092915050565b6000806002600084815260200190815260200160002060009054906101000a900473ffffffffffffffffffffffffffffffffffffffff169050600073ffffffffffffffffffffffffffffffffffffffff168173ffffffffffffffffffffffffffffffffffffffff161415611113576040517f08c379a000000000000000000000000000000000000000000000000000000000815260040161110a9061387e565b60405180910390fd5b80915050919050565b600760009054906101000a900473ffffffffffffffffffffffffffffffffffffffff1681565b600e5481565b600660009054906101000a900473ffffffffffffffffffffffffffffffffffffffff1673ffffffffffffffffffffffffffffffffffffffff163373ffffffffffffffffffffffffffffffffffffffff16146111d8576040517f08c379a00000000000000000000000000000000000000000000000000000000081526004016111cf906138ea565b60405180910390fd5b6365696850421061121e576040517f08c379a000000000000000000000000000000000000000000000000000000000815260040161121590613956565b60405180910390fd5b80600860006101000a81548173ffffffffffffffffffffffffffffffffffffffff021916908373ffffffffffffffffffffffffffffffffffffffff16021790555050565b600660009054906101000a900473ffffffffffffffffffffffffffffffffffffffff1673ffffffffffffffffffffffffffffffffffffffff163373ffffffffffffffffffffffffffffffffffffffff16146112f2576040517f08c379a00000000000000000000000000000000000000000000000000000000081526004016112e9906139c2565b60405180910390fd5b600080600760009054906101000a900473ffffffffffffffffffffffffffffffffffffffff1673ffffffffffffffffffffffffffffffffffffffff164760405161133b90613a13565b60006040518083038185875af1925050503d8060008114611378576040519150601f19603f3d011682016040523d82523d6000602084013e61137d565b606091505b50915091506000151582151514156113fd578273ffffffffffffffffffffffffffffffffffffffff16476040516113b390613a13565b60006040518083038185875af1925050503d80600081146113f0576040519150601f19603f3d011682016040523d82523d6000602084013e6113f5565b606091505b505050611438565b6040517f08c379a000000000000000000000000000000000000000000000000000000000815260040161142f90613a74565b60405180910390fd5b505050565b60008073ffffffffffffffffffffffffffffffffffffffff168273ffffffffffffffffffffffffffffffffffffffff1614156114ae576040517f08c379a00000000000000000000000000000000000000000000000000000000081526004016114a590613b06565b60405180910390fd5b600360008373ffffffffffffffffffffffffffffffffffffffff1673ffffffffffffffffffffffffffffffffffffffff168152602001908152602001600020549050919050565b60606000600c600084815260200190815260200160002060009054906101000a900460ff169050600860009054906101000a900473ffffffffffffffffffffffffffffffffffffffff1673ffffffffffffffffffffffffffffffffffffffff166337ee03ec84836040518363ffffffff1660e01b81526004016115799291906136f9565b600060405180830381865afa158015611596573d6000803e3d6000fd5b505050506040513d6000823e3d601f19601f820116820180604052508101906115bf91906137c3565b915050919050565b600660009054906101000a900473ffffffffffffffffffffffffffffffffffffffff1681565b6060600180546115fc906131e7565b80601f0160208091040260200160405190810160405280929190818152602001828054611628906131e7565b80156116755780601f1061164a57610100808354040283529160200191611675565b820191906000526020600020905b81548152906001019060200180831161165857829003601f168201915b5050505050905090565b3373ffffffffffffffffffffffffffffffffffffffff168273ffffffffffffffffffffffffffffffffffffffff1614156116ee576040517f08c379a00000000000000000000000000000000000000000000000000000000081526004016116e590613b72565b60405180910390fd5b80600560003373ffffffffffffffffffffffffffffffffffffffff1673ffffffffffffffffffffffffffffffffffffffff16815260200190815260200160002060008473ffffffffffffffffffffffffffffffffffffffff1673ffffffffffffffffffffffffffffffffffffffff16815260200190815260200160002060006101000a81548160ff0219169083151502179055508173ffffffffffffffffffffffffffffffffffffffff163373ffffffffffffffffffffffffffffffffffffffff167f17307eab39ab6107e8899845ad3d59bd9653f200f220920489ca2b5937696c31836040516117df9190612a1f565b60405180910390a35050565b606060006117f883610eeb565b9050611803816124ca565b915050919050565b600c6020528060005260406000206000915054906101000a900460ff1681565b606060008484604051602001611842929190613bb3565b6040516020818303038152906040528051906020012060001c9050600860009054906101000a900473ffffffffffffffffffffffffffffffffffffffff1673ffffffffffffffffffffffffffffffffffffffff166337ee03ec82856040518363ffffffff1660e01b81526004016118ba9291906136f9565b600060405180830381865afa1580156118d7573d6000803e3d6000fd5b505050506040513d6000823e3d601f19601f8201168201806040525081019061190091906137c3565b9150509392505050565b611915828233610d16565b5050565b6119233383612184565b611962576040517f08c379a0000000000000000000000000000000000000000000000000000000008152600401611959906134ad565b60405180910390fd5b61196e8484848461264f565b50505050565b600a5481565b600b5481565b606061198b82611fc7565b6119ca576040517f08c379a00000000000000000000000000000000000000000000000000000000081526004016119c190613c51565b60405180910390fd5b6000600860009054906101000a900473ffffffffffffffffffffffffffffffffffffffff1673ffffffffffffffffffffffffffffffffffffffff1663192a0a1f846040518263ffffffff1660e01b8152600401611a279190612c2f565b600060405180830381865afa158015611a44573d6000803e3d6000fd5b505050506040513d6000823e3d601f19601f82011682018060405250810190611a6d91906137c3565b90506000600860009054906101000a900473ffffffffffffffffffffffffffffffffffffffff1673ffffffffffffffffffffffffffffffffffffffff16635a312a3d6040518163ffffffff1660e01b8152600401600060405180830381865afa158015611ade573d6000803e3d6000fd5b505050506040513d6000823e3d601f19601f82011682018060405250810190611b0791906137c3565b90506000611b14856117eb565b90506000611b21866114f5565b9050611b5184848484604051602001611b3d9493929190613e75565b6040516020818303038152906040526124ca565b604051602001611b619190613f41565b604051602081830303815290604052945050505050919050565b600d6020528060005260406000206000915054906101000a900460ff1681565b600760009054906101000a900473ffffffffffffffffffffffffffffffffffffffff1673ffffffffffffffffffffffffffffffffffffffff1647604051611be190613a13565b60006040518083038185875af1925050503d8060008114611c1e576040519150601f19603f3d011682016040523d82523d6000602084013e611c23565b606091505b505050565b6000600560008473ffffffffffffffffffffffffffffffffffffffff1673ffffffffffffffffffffffffffffffffffffffff16815260200190815260200160002060008373ffffffffffffffffffffffffffffffffffffffff1673ffffffffffffffffffffffffffffffffffffffff16815260200190815260200160002060009054906101000a900460ff16905092915050565b606060008484604051602001611cd3929190613bb3565b6040516020818303038152906040528051906020012060001c9050600860009054906101000a900473ffffffffffffffffffffffffffffffffffffffff1673ffffffffffffffffffffffffffffffffffffffff1663effaaf6a82856040518363ffffffff1660e01b8152600401611d4b9291906136f9565b600060405180830381865afa158015611d68573d6000803e3d6000fd5b505050506040513d6000823e3d601f19601f82011682018060405250810190611d9191906137c3565b9150509392505050565b600073ffffffffffffffffffffffffffffffffffffffff168273ffffffffffffffffffffffffffffffffffffffff161415611e0b576040517f08c379a0000000000000000000000000000000000000000000000000000000008152600401611e0290613faf565b60405180910390fd5b611e1481611fc7565b15611e54576040517f08c379a0000000000000000000000000000000000000000000000000000000008152600401611e4b9061401b565b60405180910390fd5b6001600360008473ffffffffffffffffffffffffffffffffffffffff1673ffffffffffffffffffffffffffffffffffffffff1681526020019081526020016000206000828254611ea491906134fc565b92505081905550816002600083815260200190815260200160002060006101000a81548173ffffffffffffffffffffffffffffffffffffffff021916908373ffffffffffffffffffffffffffffffffffffffff160217905550808273ffffffffffffffffffffffffffffffffffffffff16600073ffffffffffffffffffffffffffffffffffffffff167fddf252ad1be2c89b69c2b068fc378daa952ba7f163c4a11628f55a4df523b3ef60405160405180910390a45050565b60007f01ffc9a7000000000000000000000000000000000000000000000000000000007bffffffffffffffffffffffffffffffffffffffffffffffffffffffff1916827bffffffffffffffffffffffffffffffffffffffffffffffffffffffff1916149050919050565b60008073ffffffffffffffffffffffffffffffffffffffff166002600084815260200190815260200160002060009054906101000a900473ffffffffffffffffffffffffffffffffffffffff1673ffffffffffffffffffffffffffffffffffffffff1614159050919050565b816004600083815260200190815260200160002060006101000a81548173ffffffffffffffffffffffffffffffffffffffff021916908373ffffffffffffffffffffffffffffffffffffffff160217905550808273ffffffffffffffffffffffffffffffffffffffff166120a68361106a565b73ffffffffffffffffffffffffffffffffffffffff167f8c5be1e5ebec7d5bd14f71427d1e84f3dd0314c0f7b2291e5b200ac8c7c3b92560405160405180910390a45050565b6009544211612130576040517f08c379a000000000000000000000000000000000000000000000000000000000815260040161212790614087565b60405180910390fd5b600a544210612174576040517f08c379a000000000000000000000000000000000000000000000000000000000815260040161216b906140f3565b60405180910390fd5b61217f8383836126ab565b505050565b600061218f82611fc7565b6121ce576040517f08c379a00000000000000000000000000000000000000000000000000000000081526004016121c590614185565b60405180910390fd5b60006121d98361106a565b90508073ffffffffffffffffffffffffffffffffffffffff168473ffffffffffffffffffffffffffffffffffffffff16148061224857508373ffffffffffffffffffffffffffffffffffffffff16612230846109f2565b73ffffffffffffffffffffffffffffffffffffffff16145b8061225957506122588185611c28565b5b91505092915050565b8273ffffffffffffffffffffffffffffffffffffffff166122828261106a565b73ffffffffffffffffffffffffffffffffffffffff16146122d8576040517f08c379a00000000000000000000000000000000000000000000000000000000081526004016122cf90614217565b60405180910390fd5b600073ffffffffffffffffffffffffffffffffffffffff168273ffffffffffffffffffffffffffffffffffffffff161415612348576040517f08c379a000000000000000000000000000000000000000000000000000000000815260040161233f906142a9565b60405180910390fd5b612353600082612033565b6001600360008573ffffffffffffffffffffffffffffffffffffffff1673ffffffffffffffffffffffffffffffffffffffff16815260200190815260200160002060008282546123a391906142c9565b925050819055506001600360008473ffffffffffffffffffffffffffffffffffffffff1673ffffffffffffffffffffffffffffffffffffffff16815260200190815260200160002060008282546123fa91906134fc565b92505081905550816002600083815260200190815260200160002060006101000a81548173ffffffffffffffffffffffffffffffffffffffff021916908373ffffffffffffffffffffffffffffffffffffffff160217905550808273ffffffffffffffffffffffffffffffffffffffff168473ffffffffffffffffffffffffffffffffffffffff167fddf252ad1be2c89b69c2b068fc378daa952ba7f163c4a11628f55a4df523b3ef60405160405180910390a4505050565b6000826124c08584612724565b1490509392505050565b60606000825114156124ed5760405180602001604052806000815250905061264a565b60006040518060600160405280604081526020016145f2604091399050600060036002855161251c91906134fc565b612526919061432c565b6004612532919061435d565b9050600060208261254391906134fc565b67ffffffffffffffff81111561255c5761255b612fca565b5b6040519080825280601f01601f19166020018201604052801561258e5781602001600182028036833780820191505090505b509050818152600183018586518101602084015b81831015612609576003830192508251603f8160121c1685015160f81b8252600182019150603f81600c1c1685015160f81b8252600182019150603f8160061c1685015160f81b8252600182019150603f811685015160f81b8252600182019150506125a2565b60038951066001811461262357600281146126335761263e565b613d3d60f01b600283035261263e565b603d60f81b60018303525b50505050508093505050505b919050565b61265a848484612262565b612666848484846127d7565b6126a5576040517f08c379a000000000000000000000000000000000000000000000000000000000815260040161269c90614429565b60405180910390fd5b50505050565b600082846040516020016126c0929190613bb3565b6040516020818303038152906040528051906020012060001c90506001151582151514156127145781600c600083815260200190815260200160002060006101000a81548160ff0219169083151502179055505b61271e8482611d9b565b50505050565b60008082905060005b84518110156127cc57600085828151811061274b5761274a614449565b5b6020026020010151905080831161278c57828160405160200161276f929190614499565b6040516020818303038152906040528051906020012092506127b8565b808360405160200161279f929190614499565b6040516020818303038152906040528051906020012092505b5080806127c4906144c5565b91505061272d565b508091505092915050565b60006127f88473ffffffffffffffffffffffffffffffffffffffff16612958565b1561294b578373ffffffffffffffffffffffffffffffffffffffff1663150b7a02338786866040518563ffffffff1660e01b815260040161283c9493929190614563565b6020604051808303816000875af192505050801561287857506040513d601f19601f8201168201806040525081019061287591906145c4565b60015b6128fb573d80600081146128a8576040519150601f19603f3d011682016040523d82523d6000602084013e6128ad565b606091505b506000815114156128f3576040517f08c379a00000000000000000000000000000000000000000000000000000000081526004016128ea90614429565b60405180910390fd5b805181602001fd5b63150b7a0260e01b7bffffffffffffffffffffffffffffffffffffffffffffffffffffffff1916817bffffffffffffffffffffffffffffffffffffffffffffffffffffffff191614915050612950565b600190505b949350505050565b600080823b905060008111915050919050565b6000604051905090565b600080fd5b600080fd5b60007fffffffff0000000000000000000000000000000000000000000000000000000082169050919050565b6129b48161297f565b81146129bf57600080fd5b50565b6000813590506129d1816129ab565b92915050565b6000602082840312156129ed576129ec612975565b5b60006129fb848285016129c2565b91505092915050565b60008115159050919050565b612a1981612a04565b82525050565b6000602082019050612a346000830184612a10565b92915050565b600081519050919050565b600082825260208201905092915050565b60005b83811015612a74578082015181840152602081019050612a59565b83811115612a83576000848401525b50505050565b6000601f19601f8301169050919050565b6000612aa582612a3a565b612aaf8185612a45565b9350612abf818560208601612a56565b612ac881612a89565b840191505092915050565b60006020820190508181036000830152612aed8184612a9a565b905092915050565b6000819050919050565b612b0881612af5565b8114612b1357600080fd5b50565b600081359050612b2581612aff565b92915050565b600060208284031215612b4157612b40612975565b5b6000612b4f84828501612b16565b91505092915050565b600073ffffffffffffffffffffffffffffffffffffffff82169050919050565b6000612b8382612b58565b9050919050565b612b9381612b78565b82525050565b6000602082019050612bae6000830184612b8a565b92915050565b612bbd81612b78565b8114612bc857600080fd5b50565b600081359050612bda81612bb4565b92915050565b60008060408385031215612bf757612bf6612975565b5b6000612c0585828601612bcb565b9250506020612c1685828601612b16565b9150509250929050565b612c2981612af5565b82525050565b6000602082019050612c446000830184612c20565b92915050565b600080600060608486031215612c6357612c62612975565b5b6000612c7186828701612bcb565b9350506020612c8286828701612bcb565b9250506040612c9386828701612b16565b9150509250925092565b6000819050919050565b6000612cc2612cbd612cb884612b58565b612c9d565b612b58565b9050919050565b6000612cd482612ca7565b9050919050565b6000612ce682612cc9565b9050919050565b612cf681612cdb565b82525050565b6000602082019050612d116000830184612ced565b92915050565b600080fd5b600080fd5b600080fd5b60008083601f840112612d3c57612d3b612d17565b5b8235905067ffffffffffffffff811115612d5957612d58612d1c565b5b602083019150836020820283011115612d7557612d74612d21565b5b9250929050565b600080600060408486031215612d9557612d94612975565b5b600084013567ffffffffffffffff811115612db357612db261297a565b5b612dbf86828701612d26565b93509350506020612dd286828701612bcb565b9150509250925092565b612de581612a04565b8114612df057600080fd5b50565b600081359050612e0281612ddc565b92915050565b60008060408385031215612e1f57612e1e612975565b5b6000612e2d85828601612b16565b9250506020612e3e85828601612df3565b9150509250929050565b6000612e5382612b58565b9050919050565b612e6381612e48565b82525050565b6000602082019050612e7e6000830184612e5a565b92915050565b6000819050919050565b612e9781612e84565b82525050565b6000602082019050612eb26000830184612e8e565b92915050565b600060208284031215612ece57612ecd612975565b5b6000612edc84828501612bcb565b91505092915050565b60008060408385031215612efc57612efb612975565b5b6000612f0a85828601612bcb565b9250506020612f1b85828601612df3565b9150509250929050565b600080600060608486031215612f3e57612f3d612975565b5b6000612f4c86828701612b16565b9350506020612f5d86828701612bcb565b9250506040612f6e86828701612df3565b9150509250925092565b60008060208385031215612f8f57612f8e612975565b5b600083013567ffffffffffffffff811115612fad57612fac61297a565b5b612fb985828601612d26565b92509250509250929050565b600080fd5b7f4e487b7100000000000000000000000000000000000000000000000000000000600052604160045260246000fd5b61300282612a89565b810181811067ffffffffffffffff8211171561302157613020612fca565b5b80604052505050565b600061303461296b565b90506130408282612ff9565b919050565b600067ffffffffffffffff8211156130605761305f612fca565b5b61306982612a89565b9050602081019050919050565b82818337600083830152505050565b600061309861309384613045565b61302a565b9050828152602081018484840111156130b4576130b3612fc5565b5b6130bf848285613076565b509392505050565b600082601f8301126130dc576130db612d17565b5b81356130ec848260208601613085565b91505092915050565b6000806000806080858703121561310f5761310e612975565b5b600061311d87828801612bcb565b945050602061312e87828801612bcb565b935050604061313f87828801612b16565b925050606085013567ffffffffffffffff8111156131605761315f61297a565b5b61316c878288016130c7565b91505092959194509250565b6000806040838503121561318f5761318e612975565b5b600061319d85828601612bcb565b92505060206131ae85828601612bcb565b9150509250929050565b7f4e487b7100000000000000000000000000000000000000000000000000000000600052602260045260246000fd5b600060028204905060018216806131ff57607f821691505b60208210811415613213576132126131b8565b5b50919050565b7f4552433732313a20617070726f76656420717565727920666f72206e6f6e657860008201527f697374656e7420746f6b656e0000000000000000000000000000000000000000602082015250565b6000613275602c83612a45565b915061328082613219565b604082019050919050565b600060208201905081810360008301526132a481613268565b9050919050565b7f4552433732313a20617070726f76616c20746f2063757272656e74206f776e6560008201527f7200000000000000000000000000000000000000000000000000000000000000602082015250565b6000613307602183612a45565b9150613312826132ab565b604082019050919050565b60006020820190508181036000830152613336816132fa565b9050919050565b7f4552433732313a20617070726f76652063616c6c6572206973206e6f74206f7760008201527f6e6572206e6f7220617070726f76656420666f7220616c6c0000000000000000602082015250565b6000613399603883612a45565b91506133a48261333d565b604082019050919050565b600060208201905081810360008301526133c88161338c565b9050919050565b7f4d4f524520455448204e45454445440000000000000000000000000000000000600082015250565b6000613405600f83612a45565b9150613410826133cf565b602082019050919050565b60006020820190508181036000830152613434816133f8565b9050919050565b7f4552433732313a207472616e736665722063616c6c6572206973206e6f74206f60008201527f776e6572206e6f7220617070726f766564000000000000000000000000000000602082015250565b6000613497603183612a45565b91506134a28261343b565b604082019050919050565b600060208201905081810360008301526134c68161348a565b9050919050565b7f4e487b7100000000000000000000000000000000000000000000000000000000600052601160045260246000fd5b600061350782612af5565b915061351283612af5565b9250827fffffffffffffffffffffffffffffffffffffffffffffffffffffffffffffffff03821115613547576135466134cd565b5b828201905092915050565b7f414c4c2044454c55584520484153204245454e20534f4c440000000000000000600082015250565b6000613588601883612a45565b915061359382613552565b602082019050919050565b600060208201905081810360008301526135b78161357b565b9050919050565b7f416c726561647920636c61696d65640000000000000000000000000000000000600082015250565b60006135f4600f83612a45565b91506135ff826135be565b602082019050919050565b60006020820190508181036000830152613623816135e7565b9050919050565b60008160601b9050919050565b60006136428261362a565b9050919050565b600061365482613637565b9050919050565b61366c61366782612b78565b613649565b82525050565b600061367e828461365b565b60148201915081905092915050565b7f496e76616c69642050726f6f6600000000000000000000000000000000000000600082015250565b60006136c3600d83612a45565b91506136ce8261368d565b602082019050919050565b600060208201905081810360008301526136f2816136b6565b9050919050565b600060408201905061370e6000830185612c20565b61371b6020830184612a10565b9392505050565b600067ffffffffffffffff82111561373d5761373c612fca565b5b61374682612a89565b9050602081019050919050565b600061376661376184613722565b61302a565b90508281526020810184848401111561378257613781612fc5565b5b61378d848285612a56565b509392505050565b600082601f8301126137aa576137a9612d17565b5b81516137ba848260208601613753565b91505092915050565b6000602082840312156137d9576137d8612975565b5b600082015167ffffffffffffffff8111156137f7576137f661297a565b5b61380384828501613795565b91505092915050565b7f4552433732313a206f776e657220717565727920666f72206e6f6e657869737460008201527f656e7420746f6b656e0000000000000000000000000000000000000000000000602082015250565b6000613868602983612a45565b91506138738261380c565b604082019050919050565b600060208201905081810360008301526138978161385b565b9050919050565b7f6e6f74206f776e65720000000000000000000000000000000000000000000000600082015250565b60006138d4600983612a45565b91506138df8261389e565b602082019050919050565b60006020820190508181036000830152613903816138c7565b9050919050565b7f63616e74206368616e67652064657363726970746f7220616e796d6f72650000600082015250565b6000613940601e83612a45565b915061394b8261390a565b602082019050919050565b6000602082019050818103600083015261396f81613933565b9050919050565b7f4e4f545f4f574e45520000000000000000000000000000000000000000000000600082015250565b60006139ac600983612a45565b91506139b782613976565b602082019050919050565b600060208201905081810360008301526139db8161399f565b9050919050565b600081905092915050565b50565b60006139fd6000836139e2565b9150613a08826139ed565b600082019050919050565b6000613a1e826139f0565b9150819050919050565b7f656d657267656e6379206e6f74206e6565646564000000000000000000000000600082015250565b6000613a5e601483612a45565b9150613a6982613a28565b602082019050919050565b60006020820190508181036000830152613a8d81613a51565b9050919050565b7f4552433732313a2062616c616e636520717565727920666f7220746865207a6560008201527f726f206164647265737300000000000000000000000000000000000000000000602082015250565b6000613af0602a83612a45565b9150613afb82613a94565b604082019050919050565b60006020820190508181036000830152613b1f81613ae3565b9050919050565b7f4552433732313a20617070726f766520746f2063616c6c657200000000000000600082015250565b6000613b5c601983612a45565b9150613b6782613b26565b602082019050919050565b60006020820190508181036000830152613b8b81613b4f565b9050919050565b6000819050919050565b613bad613ba882612af5565b613b92565b82525050565b6000613bbf8285613b9c565b602082019150613bcf828461365b565b6014820191508190509392505050565b7f4552433732314d657461646174613a2055524920717565727920666f72206e6f60008201527f6e6578697374656e7420746f6b656e0000000000000000000000000000000000602082015250565b6000613c3b602f83612a45565b9150613c4682613bdf565b604082019050919050565b60006020820190508181036000830152613c6a81613c2e565b9050919050565b600081905092915050565b7f7b226e616d65223a220000000000000000000000000000000000000000000000600082015250565b6000613cb2600983613c71565b9150613cbd82613c7c565b600982019050919050565b6000613cd382612a3a565b613cdd8185613c71565b9350613ced818560208601612a56565b80840191505092915050565b7f222c20226465736372697074696f6e223a220000000000000000000000000000600082015250565b6000613d2f601283613c71565b9150613d3a82613cf9565b601282019050919050565b7f222c2022696d616765223a202200000000000000000000000000000000000000600082015250565b6000613d7b600d83613c71565b9150613d8682613d45565b600d82019050919050565b7f646174613a696d6167652f7376672b786d6c3b6261736536342c000000000000600082015250565b6000613dc7601a83613c71565b9150613dd282613d91565b601a82019050919050565b7f222c000000000000000000000000000000000000000000000000000000000000600082015250565b6000613e13600283613c71565b9150613e1e82613ddd565b600282019050919050565b7f7d00000000000000000000000000000000000000000000000000000000000000600082015250565b6000613e5f600183613c71565b9150613e6a82613e29565b600182019050919050565b6000613e8082613ca5565b9150613e8c8287613cc8565b9150613e9782613d22565b9150613ea38286613cc8565b9150613eae82613d6e565b9150613eb982613dba565b9150613ec58285613cc8565b9150613ed082613e06565b9150613edc8284613cc8565b9150613ee782613e52565b915081905095945050505050565b7f646174613a6170706c69636174696f6e2f6a736f6e3b6261736536342c000000600082015250565b6000613f2b601d83613c71565b9150613f3682613ef5565b601d82019050919050565b6000613f4c82613f1e565b9150613f588284613cc8565b915081905092915050565b7f4552433732313a206d696e7420746f20746865207a65726f2061646472657373600082015250565b6000613f99602083612a45565b9150613fa482613f63565b602082019050919050565b60006020820190508181036000830152613fc881613f8c565b9050919050565b7f4552433732313a20746f6b656e20616c7265616479206d696e74656400000000600082015250565b6000614005601c83612a45565b915061401082613fcf565b602082019050919050565b6000602082019050818103600083015261403481613ff8565b9050919050565b7f4e4f545f53544152544544000000000000000000000000000000000000000000600082015250565b6000614071600b83612a45565b915061407c8261403b565b602082019050919050565b600060208201905081810360008301526140a081614064565b9050919050565b7f454e444544000000000000000000000000000000000000000000000000000000600082015250565b60006140dd600583612a45565b91506140e8826140a7565b602082019050919050565b6000602082019050818103600083015261410c816140d0565b9050919050565b7f4552433732313a206f70657261746f7220717565727920666f72206e6f6e657860008201527f697374656e7420746f6b656e0000000000000000000000000000000000000000602082015250565b600061416f602c83612a45565b915061417a82614113565b604082019050919050565b6000602082019050818103600083015261419e81614162565b9050919050565b7f4552433732313a207472616e73666572206f6620746f6b656e2074686174206960008201527f73206e6f74206f776e0000000000000000000000000000000000000000000000602082015250565b6000614201602983612a45565b915061420c826141a5565b604082019050919050565b60006020820190508181036000830152614230816141f4565b9050919050565b7f4552433732313a207472616e7366657220746f20746865207a65726f2061646460008201527f7265737300000000000000000000000000000000000000000000000000000000602082015250565b6000614293602483612a45565b915061429e82614237565b604082019050919050565b600060208201905081810360008301526142c281614286565b9050919050565b60006142d482612af5565b91506142df83612af5565b9250828210156142f2576142f16134cd565b5b828203905092915050565b7f4e487b7100000000000000000000000000000000000000000000000000000000600052601260045260246000fd5b600061433782612af5565b915061434283612af5565b925082614352576143516142fd565b5b828204905092915050565b600061436882612af5565b915061437383612af5565b9250817fffffffffffffffffffffffffffffffffffffffffffffffffffffffffffffffff04831182151516156143ac576143ab6134cd565b5b828202905092915050565b7f4552433732313a207472616e7366657220746f206e6f6e20455243373231526560008201527f63656976657220696d706c656d656e7465720000000000000000000000000000602082015250565b6000614413603283612a45565b915061441e826143b7565b604082019050919050565b6000602082019050818103600083015261444281614406565b9050919050565b7f4e487b7100000000000000000000000000000000000000000000000000000000600052603260045260246000fd5b6000819050919050565b61449361448e82612e84565b614478565b82525050565b60006144a58285614482565b6020820191506144b58284614482565b6020820191508190509392505050565b60006144d082612af5565b91507fffffffffffffffffffffffffffffffffffffffffffffffffffffffffffffffff821415614503576145026134cd565b5b600182019050919050565b600081519050919050565b600082825260208201905092915050565b60006145358261450e565b61453f8185614519565b935061454f818560208601612a56565b61455881612a89565b840191505092915050565b60006080820190506145786000830187612b8a565b6145856020830186612b8a565b6145926040830185612c20565b81810360608301526145a4818461452a565b905095945050505050565b6000815190506145be816129ab565b92915050565b6000602082840312156145da576145d9612975565b5b60006145e8848285016145af565b9150509291505056fe4142434445464748494a4b4c4d4e4f505152535455565758595a6162636465666768696a6b6c6d6e6f707172737475767778797a303132333435363738392b2fa26469706673582212201566cdce69070888c56738c3ebff8bed07fa427239030d43e9de82511969161264736f6c634300080c0033608060405234801561001057600080fd5b50613394806100206000396000f3fe608060405234801561001057600080fd5b50600436106100625760003560e01c8063192a0a1f146100675780632581d8b31461009757806337ee03ec146100c7578063594bf5ad146100f75780635a312a3d14610127578063effaaf6a14610145575b600080fd5b610081600480360381019061007c91906115a4565b610175565b60405161008e919061166a565b60405180910390f35b6100b160048036038101906100ac91906117f9565b6101b2565b6040516100be919061166a565b60405180910390f35b6100e160048036038101906100dc9190611855565b61034f565b6040516100ee919061166a565b60405180910390f35b610111600480360381019061010c9190611a0a565b6104ff565b60405161011e919061166a565b60405180910390f35b61012f6105ac565b60405161013c919061166a565b60405180910390f35b61015f600480360381019061015a9190611855565b6105d2565b60405161016c919061166a565b60405180910390f35b606061018c610183836105e6565b6000600861076f565b60405160200161019c9190611b39565b6040516020818303038152906040529050919050565b60608060005b60148110156103445760006101cd868361086b565b905060006101e7876001856101e29190611b8a565b61088e565b9050601283141561021957836040516020016102039190611c06565b604051602081830303815290604052935061032e565b601383141561024957836040516020016102339190611c52565b604051602081830303815290604052935061032d565b60048314806102585750600983145b806102635750600e83145b156102c45760011515861515141561029c57836040516020016102869190611c06565b60405160208183030381529060405293506102bf565b836040516020016102ad9190611c52565b60405160208183030381529060405293505b61032c565b60808110156102fe57836102d7836105e6565b6040516020016102e8929190611c9e565b604051602081830303815290604052935061032b565b83610308836105e6565b604051602001610319929190611cf7565b60405160208183030381529060405293505b5b5b5b505060018161033d9190611b8a565b90506101b8565b508091505092915050565b606060008360001b6040516020016103679190611d64565b60405160208183030381529060405290506060600115158415151415610402576103fb6040518060400160405280600881526020017f416e696d617465640000000000000000000000000000000000000000000000008152506040518060400160405280600481526020017f54727565000000000000000000000000000000000000000000000000000000008152506108a5565b9050610479565b6104766040518060400160405280600881526020017f416e696d617465640000000000000000000000000000000000000000000000008152506040518060400160405280600581526020017f46616c73650000000000000000000000000000000000000000000000000000008152506108a5565b90505b6000610484836108d1565b905060006104cf6040518060400160405280600b81526020017f506574616c20436f756e740000000000000000000000000000000000000000008152506104ca846105e6565b6108a5565b905082816040516020016104e4929190611e63565b60405160208183030381529060405294505050505092915050565b6060600061051461050f86610959565b6105e6565b9050600061052186610996565b90506000610536610531886109c6565b6105e6565b9050600061054388610a03565b9050600087846003811061055a57610559611ea8565b5b60200201518588846003811061057357610572611ea8565b5b60200201518560405160200161058c9493929190611ed7565b604051602081830303815290604052905080955050505050509392505050565b606060006040518060c00160405280608981526020016132276089913990508091505090565b60606105de8383610a33565b905092915050565b6060600082141561062e576040518060400160405280600181526020017f3000000000000000000000000000000000000000000000000000000000000000815250905061076a565b600082905060005b6000821461066057808061064990611f24565b915050600a826106599190611f9c565b9150610636565b60008167ffffffffffffffff81111561067c5761067b611696565b5b6040519080825280601f01601f1916602001820160405280156106ae5781602001600182028036833780820191505090505b50905060008290505b60008614610762576001816106cc9190611fcd565b90506000600a80886106de9190611f9c565b6106e89190612001565b876106f39190611fcd565b60306106ff9190612068565b905060008160f81b90508084848151811061071d5761071c611ea8565b5b60200101907effffffffffffffffffffffffffffffffffffffffffffffffffffffffffffff1916908160001a905350600a886107599190611f9c565b975050506106b7565b819450505050505b919050565b60606000849050600084846107849190611fcd565b67ffffffffffffffff81111561079d5761079c611696565b5b6040519080825280601f01601f1916602001820160405280156107cf5781602001600182028036833780820191505090505b50905060008590505b8481101561085e578281815181106107f3576107f2611ea8565b5b602001015160f81c60f81b82878361080b9190611fcd565b8151811061081c5761081b611ea8565b5b60200101907effffffffffffffffffffffffffffffffffffffffffffffffffffffffffffff1916908160001a905350808061085690611f24565b9150506107d8565b5080925050509392505050565b600060046108798484610afa565b60ff166108869190611f9c565b905092915050565b600061089a8383610afa565b60ff16905092915050565b606082826040516020016108ba929190612111565b604051602081830303815290604052905092915050565b6000806040518060a00160405280600860ff168152602001600c60ff168152602001601460ff168152602001601860ff168152602001602460ff16815250905060006034610920856000610afa565b61092a9190612162565b60ff169050600082826005811061094457610943611ea8565b5b602002015160ff169050809350505050919050565b60006101006103e861096c846005610afa565b60ff166109799190612001565b6109839190611f9c565b600161098f9190611b8a565b9050919050565b600061010060036109a8846007610afa565b60ff166109b59190612001565b6109bf9190611f9c565b9050919050565b60006101006103e86109d9846006610afa565b60ff166109e69190612001565b6109f09190611f9c565b60016109fc9190611b8a565b9050919050565b60006101006003610a15846008610afa565b60ff16610a229190612001565b610a2c9190611f9c565b9050919050565b606060008360001b604051602001610a4b9190611d64565b60405160208183030381529060405290506000610a67826108d1565b9050600081610168610a799190611f9c565b90506000604051806020016040528060008152509050600115158615151415610ab8576040518060e0016040528060af81526020016132b060af913990505b80610ac285610bb0565b610acd868686610c2b565b604051602001610adf93929190612419565b60405160208183030381529060405294505050505092915050565b600081600183610b0a9190611b8a565b1015610b4b576040517f08c379a0000000000000000000000000000000000000000000000000000000008152600401610b42906124e4565b60405180910390fd5b600182610b589190611b8a565b83511015610b9b576040517f08c379a0000000000000000000000000000000000000000000000000000000008152600401610b9290612550565b60405180910390fd5b60008260018501015190508091505092915050565b60606000610bbf836001610d14565b90506000610bce846000610d14565b90506000610bdb856111b6565b90506000610bf4826096610bef9190611b8a565b6105e6565b9050838382838485604051602001610c119695949392919061288e565b604051602081830303815290604052945050505050919050565b60606000610c40610c3b866111b6565b6105e6565b90506000610c4d866111e5565b90506000600282610c5e9190612001565b90506000610c6d888888611214565b905060008485610c88866096610c839190611fcd565b6105e6565b610c9d866096610c989190611fcd565b6105e6565b610cb2876096610cad9190611fcd565b6105e6565b610cc7896096610cc29190611b8a565b6105e6565b610cdc896096610cd79190611fcd565b6105e6565b88604051602001610cf4989796959493929190612bed565b604051602081830303815290604052905080955050505050509392505050565b60606000610e958460405180606001604052806040518060400160405280600381526020017f302e30000000000000000000000000000000000000000000000000000000000081525081526020016040518060400160405280600481526020017f302e30300000000000000000000000000000000000000000000000000000000081525081526020016040518060400160405280600481526020017f302e30300000000000000000000000000000000000000000000000000000000081525081525060405180606001604052806040518060400160405280600381526020017f302e30000000000000000000000000000000000000000000000000000000000081525081526020016040518060400160405280600381526020017f302e30000000000000000000000000000000000000000000000000000000000081525081526020016040518060400160405280600381526020017f302e3000000000000000000000000000000000000000000000000000000000008152508152506104ff565b90506000610eaa610ea5866113e1565b6105e6565b9050610ffd6040518060400160405280600c81526020017f666554757262756c656e63650000000000000000000000000000000000000000815250610f246040518060400160405280600d81526020017f626173654672657175656e63790000000000000000000000000000000000000081525085611428565b610f636040518060400160405280600481526020017f736565640000000000000000000000000000000000000000000000000000000081525085611428565b610fd76040518060400160405280600681526020017f726573756c7400000000000000000000000000000000000000000000000000008152506040518060400160405280600481526020017f7475726200000000000000000000000000000000000000000000000000000000815250611428565b604051602001610fe993929190612d1a565b604051602081830303815290604052611454565b61118c6040518060400160405280600d81526020017f6665436f6c6f724d6174726978000000000000000000000000000000000000008152506110aa6040518060400160405280600281526020017f696e0000000000000000000000000000000000000000000000000000000000008152506040518060400160405280600481526020017f7475726200000000000000000000000000000000000000000000000000000000815250611428565b6110f26040518060400160405280600681526020017f76616c75657300000000000000000000000000000000000000000000000000008152506110ed8b8b6101b2565b611428565b6111666040518060400160405280600381526020017f6f757400000000000000000000000000000000000000000000000000000000008152506040518060400160405280600581526020017f7475726232000000000000000000000000000000000000000000000000000000815250611428565b60405160200161117893929190612d1a565b604051602081830303815290604052611454565b60405160200161119d929190612d4b565b6040516020818303038152906040529250505092915050565b600060026111c5836001610afa565b6111cf9190612162565b60b46111db9190612d6f565b60ff169050919050565b6000600d6111f4836009610afa565b6111fe9190612162565b600561120a9190612068565b60ff169050919050565b606060006040518060200160405280600081525090506000604051806020016040528060008152509050600060405180602001604052806000815250905060005b86811015611331576002600360048961126e9190611f9c565b6112789190612001565b6112829190611b8a565b81101561131d57826112aa60018361129a9190611b8a565b886112a59190612001565b611480565b6040516020016112bb929190612d4b565b6040516020818303038152906040529250816112fa89605a6001856112e09190611b8a565b8a6112eb9190612001565b6112f59190611b8a565b6114d3565b60405160200161130b929190612d4b565b60405160208183030381529060405291505b60018161132a9190611b8a565b9050611255565b508061136088605a60018a6113469190611b8a565b896113519190612001565b61135b9190611b8a565b6114d3565b61138d89605a60028b6113739190611b8a565b8a61137e9190612001565b6113889190611b8a565b6114d3565b60405160200161139f93929190612d1a565b604051602081830303815290604052905081816040516020016113c3929190612d4b565b60405160208183030381529060405292508293505050509392505050565b60006113ee826004610afa565b60ff166113fc836003610afa565b60ff1661140a846002610afa565b60ff166114179190612001565b6114219190612001565b9050919050565b6060828260405160200161143d929190612e15565b604051602081830303815290604052905092915050565b60608282604051602001611469929190612eb2565b604051602081830303815290604052905092915050565b60606114976001836114929190611b8a565b6105e6565b6114ac6001846114a79190611b8a565b6105e6565b6040516020016114bd9291906130cb565b6040516020818303038152906040529050919050565b606060006114e084611529565b90506114f76001846114f29190611b8a565b6105e6565b611500826105e6565b6040516020016115119291906131d9565b60405160208183030381529060405291505092915050565b600061010061016861153c84600a610afa565b60ff166115499190612001565b6115539190611f9c565b9050919050565b6000604051905090565b600080fd5b600080fd5b6000819050919050565b6115818161156e565b811461158c57600080fd5b50565b60008135905061159e81611578565b92915050565b6000602082840312156115ba576115b9611564565b5b60006115c88482850161158f565b91505092915050565b600081519050919050565b600082825260208201905092915050565b60005b8381101561160b5780820151818401526020810190506115f0565b8381111561161a576000848401525b50505050565b6000601f19601f8301169050919050565b600061163c826115d1565b61164681856115dc565b93506116568185602086016115ed565b61165f81611620565b840191505092915050565b600060208201905081810360008301526116848184611631565b905092915050565b600080fd5b600080fd5b7f4e487b7100000000000000000000000000000000000000000000000000000000600052604160045260246000fd5b6116ce82611620565b810181811067ffffffffffffffff821117156116ed576116ec611696565b5b80604052505050565b600061170061155a565b905061170c82826116c5565b919050565b600067ffffffffffffffff82111561172c5761172b611696565b5b61173582611620565b9050602081019050919050565b82818337600083830152505050565b600061176461175f84611711565b6116f6565b9050828152602081018484840111156117805761177f611691565b5b61178b848285611742565b509392505050565b600082601f8301126117a8576117a761168c565b5b81356117b8848260208601611751565b91505092915050565b60008115159050919050565b6117d6816117c1565b81146117e157600080fd5b50565b6000813590506117f3816117cd565b92915050565b600080604083850312156118105761180f611564565b5b600083013567ffffffffffffffff81111561182e5761182d611569565b5b61183a85828601611793565b925050602061184b858286016117e4565b9150509250929050565b6000806040838503121561186c5761186b611564565b5b600061187a8582860161158f565b925050602061188b858286016117e4565b9150509250929050565b600067ffffffffffffffff8211156118b0576118af611696565b5b602082029050919050565b600080fd5b600067ffffffffffffffff8211156118db576118da611696565b5b6118e482611620565b9050602081019050919050565b60006119046118ff846118c0565b6116f6565b9050828152602081018484840111156119205761191f611691565b5b61192b848285611742565b509392505050565b600082601f8301126119485761194761168c565b5b81356119588482602086016118f1565b91505092915050565b600061197461196f84611895565b6116f6565b9050806020840283018581111561198e5761198d6118bb565b5b835b818110156119d557803567ffffffffffffffff8111156119b3576119b261168c565b5b8086016119c08982611933565b85526020850194505050602081019050611990565b5050509392505050565b600082601f8301126119f4576119f361168c565b5b6003611a01848285611961565b91505092915050565b600080600060608486031215611a2357611a22611564565b5b600084013567ffffffffffffffff811115611a4157611a40611569565b5b611a4d86828701611793565b935050602084013567ffffffffffffffff811115611a6e57611a6d611569565b5b611a7a868287016119df565b925050604084013567ffffffffffffffff811115611a9b57611a9a611569565b5b611aa7868287016119df565b9150509250925092565b600081905092915050565b7f4461697379636861696e20230000000000000000000000000000000000000000600082015250565b6000611af2600c83611ab1565b9150611afd82611abc565b600c82019050919050565b6000611b13826115d1565b611b1d8185611ab1565b9350611b2d8185602086016115ed565b80840191505092915050565b6000611b4482611ae5565b9150611b508284611b08565b915081905092915050565b7f4e487b7100000000000000000000000000000000000000000000000000000000600052601160045260246000fd5b6000611b958261156e565b9150611ba08361156e565b9250827fffffffffffffffffffffffffffffffffffffffffffffffffffffffffffffffff03821115611bd557611bd4611b5b565b5b828201905092915050565b7f3020000000000000000000000000000000000000000000000000000000000000815250565b6000611c128284611b08565b9150611c1d82611be0565b60028201915081905092915050565b7f3120000000000000000000000000000000000000000000000000000000000000815250565b6000611c5e8284611b08565b9150611c6982611c2c565b60028201915081905092915050565b7f2000000000000000000000000000000000000000000000000000000000000000815250565b6000611caa8285611b08565b9150611cb68284611b08565b9150611cc182611c78565b6001820191508190509392505050565b7f2d00000000000000000000000000000000000000000000000000000000000000815250565b6000611d038285611b08565b9150611d0e82611cd1565b600182019150611d1e8284611b08565b9150611d2982611c78565b6001820191508190509392505050565b6000819050919050565b6000819050919050565b611d5e611d5982611d39565b611d43565b82525050565b6000611d708284611d4d565b60208201915081905092915050565b7f2261747472696275746573223a205b0000000000000000000000000000000000600082015250565b6000611db5600f83611ab1565b9150611dc082611d7f565b600f82019050919050565b7f2c00000000000000000000000000000000000000000000000000000000000000600082015250565b6000611e01600183611ab1565b9150611e0c82611dcb565b600182019050919050565b7f5d00000000000000000000000000000000000000000000000000000000000000600082015250565b6000611e4d600183611ab1565b9150611e5882611e17565b600182019050919050565b6000611e6e82611da8565b9150611e7a8285611b08565b9150611e8582611df4565b9150611e918284611b08565b9150611e9c82611e40565b91508190509392505050565b7f4e487b7100000000000000000000000000000000000000000000000000000000600052603260045260246000fd5b6000611ee38287611b08565b9150611eef8286611b08565b9150611efa82611c78565b600182019150611f0a8285611b08565b9150611f168284611b08565b915081905095945050505050565b6000611f2f8261156e565b91507fffffffffffffffffffffffffffffffffffffffffffffffffffffffffffffffff821415611f6257611f61611b5b565b5b600182019050919050565b7f4e487b7100000000000000000000000000000000000000000000000000000000600052601260045260246000fd5b6000611fa78261156e565b9150611fb28361156e565b925082611fc257611fc1611f6d565b5b828204905092915050565b6000611fd88261156e565b9150611fe38361156e565b925082821015611ff657611ff5611b5b565b5b828203905092915050565b600061200c8261156e565b91506120178361156e565b9250817fffffffffffffffffffffffffffffffffffffffffffffffffffffffffffffffff04831182151516156120505761204f611b5b565b5b828202905092915050565b600060ff82169050919050565b60006120738261205b565b915061207e8361205b565b92508260ff0382111561209457612093611b5b565b5b828201905092915050565b7f7b2274726169745f74797065223a202200000000000000000000000000000000815250565b7f222c202276616c7565223a202200000000000000000000000000000000000000815250565b7f227d000000000000000000000000000000000000000000000000000000000000815250565b600061211c8261209f565b60108201915061212c8285611b08565b9150612137826120c5565b600d820191506121478284611b08565b9150612152826120eb565b6002820191508190509392505050565b600061216d8261205b565b91506121788361205b565b92508261218857612187611f6d565b5b828204905092915050565b7f3c73766720786d6c6e733d22687474703a2f2f7777772e77332e6f72672f323060008201527f30302f737667222077696474683d2233303022206865696768743d223330302260208201527f207374796c653d226261636b67726f756e643a236666662220786d6c6e733a7860408201527f6c696e6b3d22687474703a2f2f7777772e77332e6f72672f313939392f786c6960608201527f6e6b223e00000000000000000000000000000000000000000000000000000000608082015250565b6000612261608483611ab1565b915061226c82612193565b608482019050919050565b7f3c672069643d22656e74697265223e0000000000000000000000000000000000815250565b7f3c75736520786c696e6b3a687265663d2223666c6f7765722220636c69702d7060008201527f6174683d2275726c282368616c66436c69702922207472616e73666f726d3d2260208201527f726f7461746528302c203135302c2031353029222f3e00000000000000000000604082015250565b600061231f605683611ab1565b915061232a8261229d565b605682019050919050565b7f3c75736520786c696e6b3a687265663d2223666c6f7765722220636c69702d7060008201527f6174683d2275726c282368616c66436c69702922207472616e73666f726d3d2260208201527f726f74617465283138302c203135302c2031353029222f3e0000000000000000604082015250565b60006123b7605883611ab1565b91506123c282612335565b605882019050919050565b7f3c2f673e00000000000000000000000000000000000000000000000000000000815250565b7f3c2f7376673e0000000000000000000000000000000000000000000000000000815250565b600061242482612254565b91506124308286611b08565b915061243c8285611b08565b915061244782612277565b600f820191506124578284611b08565b915061246282612312565b915061246d826123aa565b9150612478826123cd565b600482019150612487826123f3565b600682019150819050949350505050565b7f746f55696e74385f6f766572666c6f7700000000000000000000000000000000600082015250565b60006124ce6010836115dc565b91506124d982612498565b602082019050919050565b600060208201905081810360008301526124fd816124c1565b9050919050565b7f746f55696e74385f6f75744f66426f756e647300000000000000000000000000600082015250565b600061253a6013836115dc565b915061254582612504565b602082019050919050565b600060208201905081810360008301526125698161252d565b9050919050565b7f3c66696c7465722069643d22626c7572223e0000000000000000000000000000815250565b7f3c6665476175737369616e426c757220737464446576696174696f6e3d22312260008201527f2f3e000000000000000000000000000000000000000000000000000000000000602082015250565b60006125f2602283611ab1565b91506125fd82612596565b602282019050919050565b7f3c2f66696c7465723e0000000000000000000000000000000000000000000000815250565b7f3c66696c7465722069643d227368617270223e00000000000000000000000000815250565b7f3c636c6970506174682069643d22626c7572436c6970223e0000000000000000815250565b7f3c7265637420783d223135302220793d22313530222077696474683d2233303060008201527f22206865696768743d22333030222f3e00000000000000000000000000000000602082015250565b60006126d6603083611ab1565b91506126e18261267a565b603082019050919050565b7f3c2f636c6970506174683e000000000000000000000000000000000000000000815250565b7f3c636c6970506174682069643d227061747465726e436c6970223e0000000000815250565b7f3c7061746820643d224d2031353020313530204c200000000000000000000000815250565b7f2031353020512000000000000000000000000000000000000000000000000000815250565b7f2031353020000000000000000000000000000000000000000000000000000000815250565b7f205a222f3e3c2f636c6970506174683e00000000000000000000000000000000815250565b7f3c636c6970506174682069643d2268616c66436c6970223e0000000000000000815250565b7f3c72656374207472616e73666f726d3d22726f7461746528312c203135302c2060008201527f31353029222077696474683d2232363022206865696768743d2236313022207860208201527f3d222d3131302220793d222d313130222f3e0000000000000000000000000000604082015250565b6000612878605283611ab1565b9150612883826127f6565b605282019050919050565b600061289982612570565b6012820191506128a98289611b08565b91506128b4826125e5565b91506128bf82612608565b6009820191506128ce8261262e565b6013820191506128de8288611b08565b91506128e982612608565b6009820191506128f882612654565b601882019150612907826126c9565b9150612912826126ec565b600b8201915061292182612712565b601b8201915061293082612738565b6015820191506129408287611b08565b915061294b8261275e565b60078201915061295b8286611b08565b915061296682611c78565b6001820191506129768285611b08565b915061298182612784565b6005820191506129918284611b08565b915061299c826127aa565b6010820191506129ab826127d0565b6018820191506129ba8261286b565b91506129c5826126ec565b600b82019150819050979650505050505050565b7f3c646566733e0000000000000000000000000000000000000000000000000000815250565b7f3c726563742069643d227461702220783d223135302220793d2231353022207760008201527f696474683d220000000000000000000000000000000000000000000000000000602082015250565b6000612a5b602683611ab1565b9150612a66826129ff565b602682019050919050565b7f22206865696768743d2200000000000000000000000000000000000000000000815250565b7f222066696c7465723d2275726c2823736861727029222f3e0000000000000000815250565b7f3c726563742069643d22626c75727461702220783d223135302220793d22313560008201527f30222077696474683d2235303022206865696768743d22353030222066696c7460208201527f65723d2275726c2823626c757229222f3e000000000000000000000000000000604082015250565b6000612b3f605183611ab1565b9150612b4a82612abd565b605182019050919050565b7f3c706174682069643d2270746c2220643d224d20313530203135302051200000815250565b7f2031353020313530205a22207374726f6b653d22626c61636b222f3e00000000815250565b7f3c672069643d22666c6f776572223e0000000000000000000000000000000000815250565b7f3c2f673e3c2f646566733e000000000000000000000000000000000000000000815250565b6000612bf8826129d9565b600682019150612c0782612a4e565b9150612c13828b611b08565b9150612c1e82612a71565b600a82019150612c2e828a611b08565b9150612c3982612a97565b601882019150612c4882612b32565b9150612c5382612b55565b601e82019150612c638289611b08565b9150612c6e82611c78565b600182019150612c7e8288611b08565b9150612c8982612784565b600582019150612c998287611b08565b9150612ca482611c78565b600182019150612cb48286611b08565b9150612cbf82611c78565b600182019150612ccf8285611b08565b9150612cda82612b7b565b601c82019150612ce982612ba1565b600f82019150612cf98284611b08565b9150612d0482612bc7565b600b820191508190509998505050505050505050565b6000612d268286611b08565b9150612d328285611b08565b9150612d3e8284611b08565b9150819050949350505050565b6000612d578285611b08565b9150612d638284611b08565b91508190509392505050565b6000612d7a8261205b565b9150612d858361205b565b925082821015612d9857612d97611b5b565b5b828203905092915050565b7f3d00000000000000000000000000000000000000000000000000000000000000815250565b7f2200000000000000000000000000000000000000000000000000000000000000815250565b7f2220000000000000000000000000000000000000000000000000000000000000815250565b6000612e218285611b08565b9150612e2c82612da3565b600182019150612e3b82612dc9565b600182019150612e4b8284611b08565b9150612e5682612def565b6002820191508190509392505050565b7f3c00000000000000000000000000000000000000000000000000000000000000815250565b7f2f3e000000000000000000000000000000000000000000000000000000000000815250565b6000612ebd82612e66565b600182019150612ecd8285611b08565b9150612ed882611c78565b600182019150612ee88284611b08565b9150612ef382612e8c565b6002820191508190509392505050565b7f3c75736520786c696e6b3a687265663d2223626c757274617022207472616e7360008201527f666f726d3d22726f746174652800000000000000000000000000000000000000602082015250565b6000612f5f602d83611ab1565b9150612f6a82612f03565b602d82019050919050565b7f2c203135302c20313530292220636c69702d706174683d2275726c2823626c7560008201527f72436c697029222f3e0000000000000000000000000000000000000000000000602082015250565b6000612fd1602983611ab1565b9150612fdc82612f75565b602982019050919050565b7f3c75736520786c696e6b3a687265663d222374617022207472616e73666f726d60008201527f3d22726f74617465280000000000000000000000000000000000000000000000602082015250565b6000613043602983611ab1565b915061304e82612fe7565b602982019050919050565b7f2c203135302c20313530292220636c69702d706174683d2275726c282370617460008201527f7465726e436c697029222f3e0000000000000000000000000000000000000000602082015250565b60006130b5602c83611ab1565b91506130c082613059565b602c82019050919050565b60006130d682612f52565b91506130e28285611b08565b91506130ed82612fc4565b91506130f882613036565b91506131048284611b08565b915061310f826130a8565b91508190509392505050565b7f3c75736520786c696e6b3a687265663d222370746c22207472616e73666f726d60008201527f3d22726f74617465280000000000000000000000000000000000000000000000602082015250565b6000613177602983611ab1565b91506131828261311b565b602982019050919050565b7f2c203135302c2031353029222066696c6c3d2268736c28000000000000000000815250565b7f2c313030252c3530252922207374726f6b653d22626c61636b222f3e00000000815250565b60006131e48261316a565b91506131f08285611b08565b91506131fb8261318d565b60178201915061320b8284611b08565b9150613216826131b3565b601c82019150819050939250505056fe4461697379636861696e732e204c69666520496e204576657279204272656174682e20436f6c6c65637469626c65204f6e636861696e2053564720466c6f7765727320696e73706972656420627920746865206a6f75726e6579206f662048696e61746120696e20746865204c6f6767656420556e6976657273652073746f72793a204d532d4f532e3c7374796c653e23656e74697265207b7472616e73666f726d2d6f726967696e3a2031353070782031353070783b616e696d6174696f6e3a20726f7461746520383073206c696e65617220696e66696e6974653b207d406b65796672616d657320726f74617465207b66726f6d207b7472616e73666f726d3a20726f746174652830646567293b7d746f207b7472616e73666f726d3a20726f7461746528333630646567293b7d3c2f7374796c653ea26469706673582212205402269bb4b89a00da63ea9c4865b77aff5ad90f8115c053b16dd4836da724cc64736f6c634300080c0033",
  "linkReferences": {},
  "deployedLinkReferences": {}
}